:100000000C94FF030C9430040C9430040C943004D2
:100010000C9430040C9430040C9430040C94300490
:100020000C9430040C9430040C9430040C94300480
:100030000C9430040C9430040C9430040C94300470
:100040000C9430040C9430040C9430040C94300460
:100050000C9430040C9430040C9430040C9457131A
:100060000C9430040C9478160C9444170C943004BF
:100070000C9430040C9430040C9430040C94300430
:100080000C9430040C9430040C9430040C94300420
:100090000C94AB160C9483170C9430040C9430041D
:1000A0000C9430040C9430040C9430040C94300400
:1000B0000C9430040C9430040C9430040C943004F0
:1000C0000C9430040C9430040C9430040C94DE1620
:1000D0000C94C2170C9430040C9411170C94011852
:1000E0000C9430048A148D1480148414C414911454
:1000F00095149B149F14A314A914AD14B114C41423
:10010000B714BB14BF140C944E1B0C94AD200C946C
:100110006C1B0C9484140C94BB140C94A3140C94BA
:100120006A210C948D140C94A8210C94D5150C9470
:10013000431A0C9495140C949B140C94F1150C9484
:10014000C4240C94441A0C94BC250C94C5150C942E
:10015000BF140C945A150C94B91A0C94741A0C947C
:10016000C4150C94571A0C94B7140C94E21B0C94FD
:100170008A140C9437260C94A0100C9430210C9403
:10018000421C0C9499200C9478240C94FD1A0C9425
:1001900011160C949F140C941C160C94F6200C94BD
:1001A000631A0C94A91F0C94C0200C94C4140C94D2
:1001B0004B1A0C949A190C94731A0C94C8180C943A
:1001C00091140C94411C0C94AD140C948E200C943E
:1001D000A9140C9480140C94B1140000090A0208AC
:1001E0000B0C0D07060304010000000000000000D6
:1001F00000000000000000000000000000000000FF
:1002000000000000000011100F00000000000000BE
:1002100000000000000000000000000000000000DE
:100220000102102020080810204010204080020108
:1002300002010804020101020408102040808040ED
:1002400020100804020180040201804020100804EC
:10025000020108040201010204081020408001028A
:100260000408102040800505050507050808080852
:10027000020202020A0A080804040404010101013E
:100280000101010103030303030303030407070739
:100290000C0C0C0C0C0C0C0C0202020206060606DE
:1002A000060606060B0B0B0B0B0B0B0B00002000BE
:1002B0002300260029002C002F003200000100003E
:1002C00003010601090100002200250028002B007F
:1002D0002E003100340002010000050108010B016D
:1002E00000002100240027002A002D0030003300E8
:1002F00001010000040107010A0100000000003EA6
:100300005B4F5B3E3E6B4F6B3E1C3E7C3E1C183C85
:100310007E3C181C577D571C1C5E7F5E1C00183CE1
:100320001800FFE7C3E7FF0018241800FFE7DBE72A
:10033000FF30483A060E2629792926407F05050711
:10034000407F05253F5A3CE73C5A7F3E1C1C08086D
:100350001C1C3E7F14227F22145F5F005F5F060932
:100360007F017F006689956A606060606094A2FF8B
:10037000A29408047E040810207E201008082A1C7D
:1003800008081C2A08081E101010100C1E0C1E0C49
:1003900030383E3830060E3E0E06000000000000E9
:1003A000005F00000007000700147F147F14242A58
:1003B0007F2A12231308646236495620500008072A
:1003C0000300001C2241000041221C002A1C7F1C4B
:1003D0002A08083E0808008070300008080808084D
:1003E000000060600020100804023E5149453E00B4
:1003F000427F400072494949462141494D33181412
:10040000127F1027454545393C4A49493141211160
:1004100009073649494936464949291E0000140052
:100420000000403400000008142241141414141475
:10043000004122140802015909063E415D594E7CD3
:100440001211127C7F494949363E414141227F4188
:1004500041413E7F494949417F090909013E4141E6
:1004600051737F0808087F00417F41002040413FD1
:10047000017F081422417F404040407F021C027FE0
:100480007F0408107F3E4141413E7F090909063E35
:100490004151215E7F091929462649494932030104
:1004A0007F01033F4040403F1F2040201F3F403816
:1004B000403F631408146303047804036159494DF1
:1004C00043007F4141410204081020004141417F27
:1004D000040201020440404040400003070800209D
:1004E000545478407F28444438384444442838449D
:1004F00044287F385454541800087E090218A4A4D4
:100500009C787F0804047800447D40002040403DF2
:10051000007F1028440000417F40007C047804786C
:100520007C080404783844444438FC1824241818FF
:10053000242418FC7C08040408485454542404045B
:100540003F44243C4040207C1C2040201C3C403048
:10055000403C44281028444C9090907C4464544C77
:1005600044000836410000007700000041360800D2
:1005700002010204023C2623263C1EA1A161123A7C
:100580004040207A385454555921555579412254C8
:10059000547842215554784020545579400C1E52CD
:1005A0007212395555555939545454593955545472
:1005B000580000457C410002457D420001457C40D9
:1005C0007D1211127DF0282528F07C54554500201D
:1005D00054547C547C0A097F4932494949323A448F
:1005E00044443A324A4848303A4141217A3A4240FA
:1005F0002078009DA0A07D3D4242423D3D404040CC
:100600003D3C24FF2424487E4943662B2FFC2F2B9E
:10061000FF0929F620C0887E09032054547941003F
:1006200000447D413048484A32384040227A007ABE
:100630000A0A727D0D19317D2629292F282629299C
:10064000292630484D4020380808080808080808BE
:10065000382F10C8ACBA2F102834FA00007B0000E5
:1006600008142A142222142A14085500550055AAE9
:1006700055AA55AAFF55FF55FF000000FF001010B6
:1006800010FF00141414FF001010FF00FF1010F0F2
:1006900010F0141414FC001414F700FF0000FF0005
:1006A000FF1414F404FC141417101F10101F101F53
:1006B0001414141F00101010F0000000001F101080
:1006C00010101F10101010F010000000FF1010107C
:1006D000101010101010FF10000000FF140000FF99
:1006E00000FF00001F10170000FC04F41414171082
:1006F000171414F404F40000FF00F7141414141475
:100700001414F700F7141414171410101F101F14EA
:100710001414F4141010F010F000001F101F00004B
:10072000001F14000000FC140000F010F01010FF77
:1007300010FF141414FF141010101F00000000F01C
:1007400010FFFFFFFFFFF0F0F0F0F0FFFFFF0000F1
:10075000000000FFFF0F0F0F0F0F3844443844FC18
:100760004A4A4A347E02020606027E027E0263552F
:100770004941633844443C04407E201E2006027EEA
:10078000020299A5E7A5991C2A492A1C4C720172FC
:100790004C304A4D4D303048784830BC625A463D66
:1007A0003E494949007E0101017E2A2A2A2A2A441B
:1007B000445F444440514A444040444A5140000050
:1007C000FF0103E080FF000008086B6B083612365B
:1007D0002436060F090F060000181800000010103C
:1007E000003040FF0101001F01011E00191D1712FA
:1007F000003C3C3C3C0000000000A010C818112444
:100800001FBECFEFD1E2DEBFCDBF00E00CBF12E0D4
:10081000A0E0B2E0E2E4FFE400E00BBF02C007901A
:100820000D92AA36B107D9F725E0AAE6B2E001C0D9
:100830001D92AA36B207E1F713E0CFEFD3E000E054
:1008400006C021970109802FFE010E947927CD3F24
:10085000D10780E00807A9F70E9450130C94542791
:100860000C940000EF92FF920F931F93CF93DF93AE
:10087000EC017B01BA01A90100E010E027E030E0C3
:1008800086E892E00E944C1D00EE1FEF27E030E06A
:10089000A701BE0186E892E00E944C1DDF91CF9136
:1008A0001F910F91FF90EF9008950F931F93CF9397
:1008B000DF9386E30E944E148C0187E30E944E145E
:1008C000EC0182E00E94311540917002509171025A
:1008D00020916E0230916F02CE01885C9140833688
:1008E000910550F4073362E0160734F4043D81E0CB
:1008F00018074CF00C949B100833A2E01A071CF068
:1009000082E090E006C0033DE1E01E073CF48EEF7C
:100910009FEF90936B0280936A0204C010926B0267
:1009200010926A02CC3262E0D6071CF082E090E0BE
:1009300006C0C73C81E0D8073CF48EEF9FEF909350
:100940006D0280936C0204C010926D0210926C02D2
:10095000CA01CD9787379105B0F4203F310599F44E
:1009600030936F0220936E0210926B0210926A0213
:10097000942F852F453B510514F094EB80E0909324
:100980007002809371028091700290917102FC015B
:10099000759760916E0270916F02B79788F46E3010
:1009A000A1E07A0769F410926B0210926A028D330B
:1009B000910514F08CE390E09093710280937002A3
:1009C0008091700290917102FC01E55BF109B7978B
:1009D00090F46E30E1E07E0771F410926B02109299
:1009E0006A028F30A1E09A0714F08EE091E09093B4
:1009F0007102809370028091700290917102FC01EB
:100A0000EB55F109739788F46E30E1E07E0769F4E5
:100A100010926B0210926A028F36910514F08EE6E6
:100A200090E0909371028093700280917002909197
:100A30007102FC01E358F109739788F46E30A1E06C
:100A40007A0769F410926B0210926A028739910555
:100A500014F086E990E09093710280937002809187
:100A6000700290917102FC017597E731F14090F4AA
:100A70006C32E1E07E0771F410926B0210926A0210
:100A80008D32A1E09A0714F08CE291E0909371020C
:100A900080937002603F710561F5809170029091C2
:100AA0007102FC017597739770F410926B021092AB
:100AB0006A0270936F0260936E0289329105ACF006
:100AC00088E290E012C0FC01E95CF109B79788F474
:100AD00010926B0210926A0270936F0260936E0222
:100AE000813F910514F080EF90E090937102809324
:100AF0007002A0916E02B0916F028091700290918D
:100B00007102A23DB10511F5BC016551710969354C
:100B1000710558F410926B0210926A028F3691059B
:100B20000CF44EC08EE690E04BC0BC0163587109D6
:100B30006935710508F048C010926B0210926A0284
:100B40008D3D9105ECF18CED90E03AC0AA3BB105EA
:100B500081F4BC016B5571096B337105A8F51092D6
:100B60006B0210926A028739910554F186E990E090
:100B700027C0A03AB10541F5BC0161507109693542
:100B8000710578F410926B0210926A02BC018B35E9
:100B9000910514F06AE570E0709371026093700241
:100BA00013C0BC01675971096935710568F4109269
:100BB0006B0210926A02813F910514F080EF90E081
:100BC0009093710280937002609170027091710233
:100BD000FD017F97EF3EF105F0F46C33710549F4A8
:100BE00010926D0210926C02CD01AF30B1407CF0DA
:100BF0000CC0643B710579F410926D0210926C0286
:100C0000CD018F30A1E09A0714F08EE091E090932F
:100C10006F0280936E0280916E0290916F02FC01D0
:100C2000EF50F1407D97E8F46431710549F410927A
:100C30006D0210926C028D32E1E09E0774F00BC0E1
:100C40006C3D710571F410926D0210926C028D3240
:100C5000A1E09A0714F08CE291E090936F028093E8
:100C60006E0280916E0290916F02FC01E15FF109CA
:100C70007D97E8F46A35710549F410926D0210927F
:100C80006C028F30E1E09E0774F00BC0663971058D
:100C900071F410926D0210926C028F30A1E09A07ED
:100CA00014F08EE091E090936F0280936E02809139
:100CB0006E0290916F02FC01EF50F1407D97E8F4D5
:100CC0006E36710549F410926D0210926C028D32ED
:100CD000E1E09E0774F00BC06238710571F4109268
:100CE0006D0210926C028D32A1E09A0714F08CE232
:100CF00091E090936F0280936E0280916E029091CA
:100D00006F02FC01E15FF1097D97E8F4683271053B
:100D100049F410926D0210926C028F30E1E09E0750
:100D200074F00BC0683C710571F410926D02109262
:100D30006C028F30A1E09A0714F08EE091E090935E
:100D40006F0280936E0280916E0290916F02FC019F
:100D5000E35DF1097D97C8F46431710549F06C3D9C
:100D6000710531F06E36710519F06238710569F45C
:100D700010926D0210926C02813F910514F080EF89
:100D800090E090936F0280936E0280916E0290913A
:100D90006F02FC01EB5BF1097797B8F46A357105D6
:100DA00019F06639710589F410926D0210926C0287
:100DB0007093710260937002833D910514F082ED8F
:100DC00090E090936F0280936E0280916E029091FA
:100DD0006F02BC01615A71096931710500F56091BA
:100DE0007002709171026A35710529F410926D02DA
:100DF00010926C020BC06639710589F410926D0275
:100E000010926C0270937102609370028B3B91059B
:100E100014F08AEB90E090936F0280936E028091C1
:100E20006E0290916F02BC01635871096D317105BA
:100E300000F560917002709171026A35710529F4B4
:100E400010926D0210926C020BC06639710589F424
:100E500010926D0210926C02709371026093700296
:100E6000813A910514F080EA90E090936F028093AC
:100E70006E02609170027091710280916E02909189
:100E80006F026C33710549F5803F910531F5CC3225
:100E9000E2E0DE0754F062E070E070936D02609370
:100EA0006C0210926B0210926A02B801635D71408D
:100EB0006536710550F06CE370E0709371026093D9
:100EC000700210926D0210926C02C73C61E0D6076E
:100ED00024F410926D0210926C0260917002709175
:100EE0007102643B710549F5803F910531F5CC32C3
:100EF000A2E0DA0724F010926D0210926C02B801A1
:100F0000635D71406536710550F064EB70E070937D
:100F100071026093700210926D0210926C02C73CD5
:100F2000E1E0DE0754F46EEF7FEF70936D026093A3
:100F30006C0210926B0210926A02609170027091C2
:100F400071026C337105E1F48E30914009F001C1FA
:100F5000CC3282E0D80724F010926D0210926C021D
:100F60000833A2E01A0724F010926B0210926A0272
:100F7000C73CE1E0DE070CF0ECC08EE091E0AEC0D3
:100F8000643B710531F58E30914009F0B9C0CC3227
:100F9000E2E0DE0754F082E090E090936D028093EF
:100FA0006C0210926B0210926A02083382E01807FA
:100FB00024F010926B0210926A02C73CA1E0DA079B
:100FC0000CF09EC08EE091E090936F0280936E02D1
:100FD00059C06431710509F05AC08E30914079F5DD
:100FE000CC3282E0D80754F082E090E090936D021A
:100FF00080936C0210926B0210926A020833A2E096
:101000001A073CF082E090E090936B0280936A02B2
:1010100008C0033DE1E01E0724F410926B02109219
:101020006A02C73C81E0D80754F48EE091E09093C7
:101030006F0280936E0210926D0210926C0280918A
:101040006E0290916F028C32914009F059C0CC32FF
:10105000E2E0DE0754F082E090E090936D0280932E
:101060006C0210926B0210926A02083382E0180739
:101070000CF40CC710926B0210926A02C73CE1E0BC
:10108000DE07F4F510926D0210926C0239C06C3DCF
:10109000710599F58E30914009F4EBC780916E028D
:1010A00090916F028C32914009F053C0CC3262E0D3
:1010B000D60724F010926D0210926C02083382E081
:1010C000180714F40C946C1010926B0210926A02C0
:1010D000C73C61E0D607ECF58CE291E090936F029B
:1010E00080936E028EEF9FEF90936D0280936C025F
:1010F00010926B0210926A022CC06A35710529F1B8
:101100006639710531F580916E0290916F02803FD2
:101110009105F9F4CC3282E0D8073CF010926B02D2
:1011200010926A0282E090E00BC0C73CA1E0DA07AF
:101130000CF0B8C610926B0210926A028EEF9FEF0D
:1011400090936D0280936C02ADC6803F910509F4C7
:10115000D1C7809170029091710260916E0270917E
:101160006F028A359105C9F56E30E1E07E0709F01E
:1011700093C0CC3282E0D8075CF010926B021092E0
:101180006A0282E090E090936D0280936C020CC042
:10119000C73CA1E0DA0744F410926B0210926A0295
:1011A00010926D0210926C020833E2E01E072CF0E0
:1011B00010926B0210926A020BC0033D81E0180787
:1011C0000CF06AC08EEF9FEF90936B0280936A02DF
:1011D00010926D0210926C025FC08639910549F53C
:1011E0006E30A1E07A0709F057C0C73CE1E0DE07A6
:1011F0005CF410926B0210926A028EEF9FEF909354
:101200006D0280936C020CC0CC3282E0D80744F0AF
:1012100010926B0210926A0210926D0210926C0290
:101220000833A2E01A0724F6033DE1E01E0754F25A
:1012300033C08E36910581F56E3081E0780761F517
:10124000C73CA1E0DA073CF48EEF9FEF90936D026C
:1012500080936C0208C0CC32E2E0DE0744F01092CA
:101260006D0210926C0210926B0210926A020833A7
:10127000E2E01E070CF42CC68EE690E0909371021B
:101280008093700210926D0210926C0282E090E0E6
:1012900090936B0280936A02809170029091710228
:1012A0008238910581F56E30A1E07A0761F5CC3284
:1012B000E2E0DE073CF082E090E090936D028093E4
:1012C0006C0208C0C73C81E0D80744F410926D025C
:1012D00010926C0210926B0210926A02083382E044
:1012E00018070CF4FFC582E890E090937102809398
:1012F000700210926D0210926C0282E090E0909366
:101300006B0280936A0280917002909171028E3616
:10131000910571F56C32E1E07E0751F5CC3282E047
:10132000D8071CF082E090E006C0C73CA1E0DA07D5
:1013300054F48EEF9FEF90936D0280936C021092A5
:101340006B0210926A02033DA1E01A070CF0D4C5AB
:101350008EE690E0909371028093700210926D027D
:1013600010926C028EEF9FEF90936B0280936A0253
:1013700080917002909171028238910571F56C3202
:1013800081E0780751F5CC32A2E0DA071CF082E068
:1013900090E006C0C73CE1E0DE0754F48EEF9FEF1B
:1013A00090936D0280936C0210926B0210926A020D
:1013B000033DE1E01E070CF0A9C582E890E09093A0
:1013C00071028093700210926D0210926C028EEF87
:1013D0009FEF90936B0280936A02809170029091CC
:1013E0007102889771F56E30A1E07A0751F5CC3221
:1013F000E2E0DE071CF082E090E006C0C73C81E03E
:10140000D80754F48EEF9FEF90936D0280936C0297
:1014100010926B0210926A02033D81E018070CF0F3
:101420007FC588E290E090937102809370021092E1
:101430006D0210926C028EEF9FEF90936B0280937F
:101440006A028091700290917102883C910571F559
:101450006E30E1E07E0751F5CC3282E0D8071CF017
:1014600082E090E006C0C73CA1E0DA0754F48EEFBA
:101470009FEF90936D0280936C0210926B0210921A
:101480006A02033DA1E01A070CF054C588EC90E015
:10149000909371028093700210926D0210926C0210
:1014A0008EEF9FEF90936B0280936A02809170029F
:1014B000909171028897B9F5603F7105A1F5CC3222
:1014C00082E0D8072CF010926D0210926C020AC0D4
:1014D000C73CA1E0DA0754F48EEF9FEF90936D02C2
:1014E00080936C0210926B0210926A02033DE1E05D
:1014F0001E072CF410926B0210926A0214C008337B
:1015000082E0180784F088E290E090937102809363
:10151000700210926D0210926C0282E090E0909343
:101520006B0280936A028091700290917102883CF4
:101530009105B9F5603F7105A1F5CC32A2E0DA075B
:101540003CF082E090E090936D0280936C0208C0C2
:10155000C73CE1E0DE0744F410926D0210926C0289
:1015600010926B0210926A02033D81E018072CF47E
:1015700010926B0210926A0214C00833A2E01A079C
:1015800084F088EC90E09093710280937002109246
:101590006D0210926C0282E090E090936B02809357
:1015A0006A028091700290917102449779F5603FD0
:1015B000710561F5CC32E2E0DE073CF082E090E0BC
:1015C00090936D0280936C0208C0C73C81E0D807FD
:1015D00044F410926D0210926C0210926B02109201
:1015E0006A02033DE1E01E070CF0AEC484E190E026
:1015F00090937102809370028EEF9FEF90936B0235
:1016000080936A0210926D0210926C0280917002B7
:10161000909171028C3D910579F5603F710561F5FE
:10162000C73CE1E0DE073CF48EEF9FEF90936D0244
:1016300080936C0208C0CC3282E0D80744F010924C
:101640006D0210926C0210926B0210926A02033DBE
:1016500081E018070CF082C48CED90E09093710249
:10166000809370028EEF9FEF90936B0280936A02DB
:1016700010926D0210926C02809170029091710232
:10168000449779F5623D710561F5CC32E2E0DE0701
:101690003CF082E090E090936D0280936C0208C071
:1016A000C73C81E0D80744F410926D0210926C029E
:1016B00010926B0210926A020833A2E01A070CF42F
:1016C00057C484E190E0909371028093700282E0AD
:1016D00090E090936B0280936A0210926D021092D8
:1016E0006C0280917002909171028C3D910579F5A8
:1016F000623D710561F5C73CE1E0DE073CF48EEF29
:101700009FEF90936D0280936C0208C0CC3282E010
:10171000D80744F010926D0210926C0210926B0286
:1017200010926A020833E2E01E070CF42BC48CED21
:1017300090E0909371028093700282E090E0909329
:101740006B0280936A0210926D0210926C0280917B
:101750007002909171028E36910569F5603F7105B6
:1017600051F5C73CE1E0DE071CF48EEF9FEF06C0A9
:10177000CC3282E0D80754F082E090E090936D0282
:1017800080936C0210926B0210926A02033D81E01A
:1017900018070CF001C48EE690E0909371028093DC
:1017A00070028EEF9FEF90936B0280936A0210920B
:1017B0006D0210926C0280917002909171028238D9
:1017C000910569F5603F710551F5C73CE1E0DE0721
:1017D0001CF48EEF9FEF06C0CC3282E0D80754F0A5
:1017E00082E090E090936D0280936C0210926B0205
:1017F00010926A02033DA1E01A070CF0D7C382E8F9
:1018000090E090937102809370028EEF9FEF90931F
:101810006B0280936A0210926D0210926C028091AA
:101820007002909171028E36910579F5623D7105D5
:1018300061F5C73CE1E0DE073CF48EEF9FEF90934B
:101840006D0280936C0208C0CC3282E0D80744F06D
:1018500010926D0210926C0210926B0210926A024A
:101860000833E2E01E070CF4ABC38EE690E09093E1
:1018700071028093700282E090E090936B028093FB
:101880006A0210926D0210926C0280917002909127
:1018900071028238910579F5623D710561F5CC32AE
:1018A000E2E0DE073CF082E090E090936D028093EE
:1018B0006C0208C0C73C81E0D80744F410926D0266
:1018C00010926C0210926B0210926A02083382E04E
:1018D00018070CF47FC382E890E090937102809324
:1018E000700282E090E090936B0280936A02109203
:1018F0006D0210926C028091700290917102CC97EF
:1019000089F5623D710571F5CC32E2E0DE071CF02D
:1019100082E090E006C0C73C81E0D80754F48EEF27
:101920009FEF90936D0280936C0210926B02109265
:101930006A020833A2E01A070CF056C3033DA1E087
:101940001A0784F48EEF9FEF90936B0280936A02E4
:1019500010926D0210926C028CE390E090937102F1
:10196000809370028091700290917102843B910586
:10197000A9F5623D710591F50833E2E01E073CF0E0
:1019800062E070E070936B0260936A020EC0033DE8
:1019900061E0160774F46EEF7FEF70936B02609353
:1019A0006A02909371028093700210926D021092FD
:1019B0006C02CC32E2E0DE070CF419C382ED90E059
:1019C00090936F0280936E0282E090E090936D029C
:1019D00080936C0210926B0210926A0280917002E6
:1019E00090917102E0916E02F0916F028A3591053B
:1019F000C9F5E23DF105B1F5CC32A2E0DA071CF001
:101A000082E090E006C0C73C61E0D60754F48EEF58
:101A10009FEF90936D0280936C0210926B02109274
:101A20006A02083382E018074CF010926B021092A1
:101A30006A0210926D0210926C0214C0033DA1E084
:101A40001A0784F48AE590E0909371028093700203
:101A500010926D0210926C028EEF9FEF90936B02CA
:101A600080936A028091700290917102863991058B
:101A7000A9F5E23DF10591F5CC3262E0D6071CF004
:101A800082E090E006C0C73C81E0D80754F48EEFB6
:101A90009FEF90936D0280936C0210926B021092F4
:101AA0006A020833A2E01A072CF010926D0210921D
:101AB0006C0214C0033D61E0160784F486E990E0EF
:101AC000909371028093700210926D0210926C02DA
:101AD0008EEF9FEF90936B0280936A028091700269
:101AE000909171028A35910551F5EA3BF10539F57E
:101AF000CC3282E0D8075CF082E090E090936D02F7
:101B000080936C0210926B0210926A0208C0C73C6C
:101B1000A1E0DA0724F410926D0210926C02C80161
:101B2000835D91408536910550F08AE590E0909371
:101B300071028093700210926D0210926C0280917B
:101B40007002909171028639910551F5EA3BF105D9
:101B500039F5C73C61E0D6075CF48EEF9FEF9093B8
:101B60006D0280936C0210926B0210926A0208C0A0
:101B7000CC3282E0D80724F010926D0210926C02F1
:101B8000C801835D91408536910550F086E990E06B
:101B9000909371028093700210926D0210926C0209
:101BA00080917002909171028A35910551F5E03A69
:101BB000F10539F5C73CA1E0DA075CF48EEF9FEF41
:101BC00090936D0280936C0210926B0210926A02E5
:101BD00008C0CC3262E0D60724F010926D02109259
:101BE0006C02C801835D91408536910550F08AE50D
:101BF00090E0909371028093700210926D021092A7
:101C00006C0280917002909171028639910551F5B4
:101C1000E03AF10539F5CC3282E0D8075CF082E099
:101C200090E090936D0280936C0210926B02109280
:101C30006A0208C0C73CA1E0DA0724F410926D02E2
:101C400010926C02C801835D91408536910550F079
:101C500086E990E0909371028093700210926D0279
:101C600010926C028091700290917102CC9769F58C
:101C7000E03AF10551F5CC3262E0D6071CF082E083
:101C800090E006C0C73C81E0D80754F48EEF9FEF88
:101C900090936D0280936C0210926B0210926A0214
:101CA000083362E016070CF4B8C18CE390E090931F
:101CB00071028093700282E090E090936B028093B7
:101CC0006A0210926D0210926C02809170029091E3
:101CD0007102843B910569F5E03AF10551F5CC328A
:101CE00062E0D6071CF082E090E006C0C73C81E0CD
:101CF000D80754F48EEF9FEF90936D0280936C029F
:101D000010926B0210926A02083382E018070CF4FA
:101D10009AC184EB90E0909371028093700282E00C
:101D200090E090936B0280936A0210926D02109281
:101D30006C028091700290917102892BC9F5E03A92
:101D4000F105B1F5CC3262E0D6073CF082E090E0DC
:101D500090936D0280936C020EC0C73C81E0D8075F
:101D600074F410926D0210926C0280EF90E09093E8
:101D700071028093700210926B0210926A02083313
:101D8000A2E01A074CF010926B0210926A021092B5
:101D90006D0210926C020CC0033D61E0160744F422
:101DA00010926D0210926C0210926B0210926A02F5
:101DB0008091700290917102803F9105A9F5E03AFF
:101DC000F10591F5CC3282E0D8074CF01092710207
:101DD0001092700210926D0210926C0209C0C73C02
:101DE000D14054F48EEF9FEF90936D0280936C027C
:101DF00010926B0210926A02083362E016074CF0F0
:101E000010926B0210926A0210926D0210926C0294
:101E10000BC0033D114044F410926D0210926C020D
:101E200010926B0210926A026091700270917102BE
:101E300080916C0290916D02860F971F90937102B2
:101E40008093700260916A0270916B026E0F7F1F27
:101E500070936F0260936E0210926D0210926C028A
:101E600010926B0210926A028417950719F4621798
:101E7000730711F00E9432046AE070E080E090E0A5
:101E8000DF91CF911F910F910C94C613033DA1E0F8
:101E90001A070CF0F3C88EEF9FEF90936B028093BC
:101EA0006A02ECC80833A2E01A070CF452C986E9AA
:101EB00090E0909371028093700210926D021092E4
:101EC0006C0282E090E090936B0280936A0241C9B9
:101ED000033D81E018070CF0DFC910926B021092ED
:101EE0006A02DAC9033DA1E01A070CF00CCA10928D
:101EF0006B0210926A0207CA0833E2E01E070CF474
:101F000037CA10926B0210926A0232CA083382E01A
:101F100018070CF462CA10926B0210926A025DCA32
:101F20000833A2E01A070CF48CCA10926B021092CC
:101F30006A0287CA0833E2E01E070CF4B7CA10929F
:101F40006B0210926A02B2CA0833A2E01A070CF4BC
:101F50005DCB10926B0210926A0258CB0833A2E05C
:101F60001A070CF489CB10926B0210926A0284CB90
:101F7000033DA1E01A070CF0B4CB10926B02109253
:101F80006A02AFCB033DA1E01A070CF0E0CB109240
:101F90006B0210926A02DBCB0833A2E01A070CF442
:101FA0000ACC10926B0210926A0205CC0833A2E0B0
:101FB0001A070CF434CC10926B0210926A022FCCE8
:101FC000033DA1E01A070CF060CC10926B02109256
:101FD0006A025BCC033DA1E01A070CF08CCC109296
:101FE0006B0210926A0287CC82E090E0ADCCC73CD5
:101FF00081E0D8070CF0F2CC82ED90E090936F0274
:1020000080936E0210926B0210926A028EEF9FEF25
:1020100090936D0280936C02E1CC033DA1E01A071E
:102020000CF053CE8CE390E0909371028093700299
:1020300010926D0210926C028EEF9FEF90936B02E4
:1020400080936A0242CE033DA1E01A070CF071CEE4
:1020500084EB90E0909371028093700210926D0275
:1020600010926C028EEF9FEF90936B0280936A0246
:1020700060CECC32E2E0DE0724F010926D021092C6
:102080006C02083362E016073CF082E090E0909327
:102090006B0280936A0208C0033D81E0180724F4B4
:1020A00010926B0210926A02C73CA1E0DA0714F0AA
:1020B0000C944E088EE091E090936F0280936E0234
:1020C0008EEF9FEF90936D0280936C0210926B02E3
:1020D00010926A020C944E08033DA1E01A0714F016
:1020E0000C9468088EEF9FEF90936B0280936A02C6
:1020F0000C946808CC32E2E0DE073CF010926B02F0
:1021000010926A0282E090E00AC0C73C61E0D60704
:1021100054F410926B0210926A028EEF9FEF90932C
:102120006D0280936C02083382E018070CF411C82A
:102130008AE590E0BECEDF91CF911F910F91089577
:10214000EF92FF920F932FEF49E06AE086E892E06A
:102150000E94C1218CE2E82EFF24F39405E029E3DC
:1021600048E364E082E792E00E94A6260F91FF9088
:10217000EF900895EF92FF920F931F93EE24EA944D
:10218000FE2C00EF10E024EB30E040EF50E06CE379
:1021900070E086E892E00E946C1B0EE011E02CE3F8
:1021A00030E040EF50E06CE370E086E892E00E949F
:1021B0006C1B24EB30E040EF50E064EB70E086E80D
:1021C00092E00E946C1B24E130E04EE051E06CE3B1
:1021D00070E086E892E00E946C1B2CED30E04EE04F
:1021E00051E064EB70E086E892E00E946C1B0CE228
:1021F00011E024E130E04EE051E064E170E086E877
:1022000092E00E946C1B2CED30E04EE051E06CED52
:1022100070E086E892E00E946C1B2CED30E04CE20E
:1022200051E064E170E086E892E00E946C1B0EE0F1
:1022300011E02AE530E040EF50E06AE570E086E822
:1022400092E00E946C1B26E930E040EF50E066E926
:1022500070E086E892E00E946C1B2EE630E04EE0D3
:1022600051E06AE570E086E892E00E946C1B22E88B
:1022700030E04EE051E066E970E086E892E00E94CE
:102280006C1B0CE211E02EE630E04EE051E06EE611
:1022900070E086E892E00E946C1B22E830E04EE09D
:1022A00051E062E870E086E892E00E946C1B02ED6B
:1022B00010E02EE630E040EF50E06EE670E086E899
:1022C00092E00E946C1B22E830E040EF50E062E8B0
:1022D00070E086E892E00E946C1B24E130E042ED61
:1022E00050E06EE670E086E892E00E946C1B2CEDF8
:1022F00030E042ED50E062E870E086E892E00E9453
:102300006C1B00EF10E024E130E042ED50E064E1AE
:1023100070E086E892E00E946C1B2CED30E042ED0C
:1023200050E06CED70E086E892E00E946C1B28E2C1
:1023300030E040EF50E064E170E086E892E00E9417
:102340006C1B28EC30E040EF50E06CED70E086E86C
:1023500092E00E946C1B0EE011E028E230E040EFBA
:1023600050E068E270E086E892E00E946C1B28EC86
:1023700030E040EF50E068EC70E086E892E00E94C8
:102380006C1B0EE110E02CE330E040EF50E06CE31A
:1023900070E086E892E00E946C1B24EB30E040EF96
:1023A00050E064EB70E086E892E00E946C1B2EE641
:1023B00030E04EE150E064E170E086E892E00E9497
:1023C0006C1B2CED30E04EE150E062E870E086E8F6
:1023D00092E00E946C1B06E410E02EE630E04EE135
:1023E00050E06EE670E086E892E00E946C1B22E806
:1023F00030E04EE150E062E870E086E892E00E9452
:102400006C1B0EE610E024E130E04EE150E064E1A8
:1024100070E086E892E00E946C1B2CED30E04EE10B
:1024200050E06CED70E086E892E00E946C1B06E4E0
:1024300010E02CED30E046E450E064E170E086E826
:1024400092E00E946C1B0EE610E02CE330E04EE6BA
:1024500050E064E170E086E892E00E946C1B2CED95
:1024600030E04EE650E064EB70E086E892E00E94D7
:102470006C1B2AE530E046E450E06AE570E086E84F
:1024800092E00E946C1B26E930E046E450E066E9E9
:1024900070E086E892E00E946C1B2EE630E04EE68B
:1024A00050E06AE570E086E892E00E946C1B26E945
:1024B00030E04EE650E062E870E086E892E00E948C
:1024C0006C1B90EEE92EFF24FA9400EA10E02AE556
:1024D00030E040EA50E060E070E086E892E00E9480
:1024E0006C1B20EF30E040EA50E066E970E086E8DF
:1024F00092E00E946C1B02ED10E02AE530E042E819
:1025000050E06AE570E086E892E00E946C1B26E9E4
:1025100030E042E850E066E970E086E892E00E9430
:102520006C1B02E810E026E930E042E850E06AE582
:1025300070E086E892E00E946C1B2EE630E04EE6EA
:1025400050E06EE670E086E892E00E946C1B22E8A4
:1025500030E04EE650E062E870E086E892E00E94EB
:102560006C1B0AEB10E026E930E04AEB50E06AE52C
:1025700070E086E892E00E946C1B1F910F91FF9023
:10258000EF9008950E94EC1340E855E260E070E09F
:1025900088E293E00E94401862E082E00E94C51445
:1025A00040E050E0BA0186E892E00E94822260E0BA
:1025B00070E086E892E00E944E1B64E086E892E0BC
:1025C0000E9478240E94BA1061E086E892E00E949E
:1025D000852060E086E892E00E948B2088E790E00A
:1025E000909371028093700280EF90E090936F025D
:1025F00080936E0261E072E086E892E00E94B2157C
:1026000068E072E086E892E00C94B215EF92FF92D7
:102610000F931F9340916E0250916F026091700270
:102620007091710200EE1FEF27E030E086E892E043
:102630000E944C1D8FE1E82EF12C04E010E020EF09
:1026400030E046E351E060E070E086E892E00E940E
:102650006A2120EF30E04AE050E060E070E086E878
:1026600092E00E946A210EE110E023E030E04AE0AF
:1026700050E060E070E086E892E00E946A2140E06D
:1026800050E060E070E086E892E00E947F2061E028
:1026900086E892E01F910F91FF90EF900C948520B7
:1026A0000E94C2120E9406130E945504FDCF1F9281
:1026B0000F920FB60F9211242F933F938F939F93F6
:1026C000AF93BF938091BA029091BB02A091BC02DC
:1026D000B091BD023091B90223E0230F2D3720F4D1
:1026E0000196A11DB11D05C026E8230F0296A11D6C
:1026F000B11D2093B9028093BA029093BB02A093BC
:10270000BC02B093BD028091BE029091BF02A09125
:10271000C002B091C1020196A11DB11D8093BE02FD
:102720009093BF02A093C002B093C102BF91AF913A
:102730009F918F913F912F910F900FBE0F901F90FF
:1027400018953FB7F8948091BE029091BF02A09176
:10275000C002B091C10226B5A89B05C02F3F19F059
:102760000196A11DB11D3FBFBA2FA92F982F882711
:10277000820F911DA11DB11DBC01CD0142E0660F6C
:10278000771F881F991F4A95D1F70895CF92DF923E
:10279000EF92FF92CF93DF936B017C010E94A11314
:1027A000EB01C114D104E104F10479F00E94A113FA
:1027B0006C1B7D0B683E7340A0F381E0C81AD10802
:1027C000E108F108C851DC4FECCFDF91CF91FF90C9
:1027D000EF90DF90CF900895789484B5826084BDA7
:1027E00084B5816084BD85B5826085BD85B5816015
:1027F00085BDEEE6F0E0808181608083E1E8F0E075
:102800001082808182608083808181608083E0E8A3
:10281000F0E0808181608083E1EBF0E08081846082
:102820008083E0EBF0E0808181608083E1E9F0E08B
:10283000808182608083808181608083E0E9F0E034
:10284000808181608083E1EAF0E080818260808322
:10285000808181608083E0EAF0E080818160808314
:10286000E1E2F1E080818260808380818160808309
:10287000E0E2F1E0808181608083EAE7F0E080813E
:102880008460808380818260808380818160808396
:102890008081806880831092C1000895863308F09B
:1028A000865390917B00282F2870977F922B9093CE
:1028B0007B0087702091000290E4299F90011124F1
:1028C000822B80937C0080917A00806480937A00D0
:1028D00080917A0086FDFCCF80917800209179006C
:1028E00090E0922B089590E0FC013197E131F105E1
:1028F00008F04AC08827EE58FF4F8F4F0C94792775
:10290000809180008F7703C0809180008F7D8093BD
:102910008000089584B58F7702C084B58F7D84BD13
:1029200008958091B0008F7703C08091B0008F7DB3
:102930008093B0000895809190008F7707C08091B8
:1029400090008F7D03C080919000877F80939000DE
:1029500008958091A0008F7707C08091A0008F7D9F
:1029600003C08091A000877F8093A000089580918C
:1029700020018F7707C0809120018F7D03C0809157
:102980002001877F809320010895CF93DF9390E00B
:10299000FC01E05EFD4F2491FC01EA59FD4F84915A
:1029A000882361F190E0880F991FFC01E052FD4FF0
:1029B000C591D491FC01EA53FD4FA591B4916111E9
:1029C00009C09FB7F8948881209582238883EC9171
:1029D0002E230BC0623061F49FB7F8943881822FA8
:1029E000809583238883EC912E2B2C939FBF06C068
:1029F0008FB7F894E8812E2B28838FBFDF91CF917A
:102A000008951F93CF93DF93282F30E0F901E6520A
:102A1000FE4F8491F901E05EFD4FD491F901EA592E
:102A2000FD4FC491CC23C9F0162F81110E9473145D
:102A3000EC2FF0E0EE0FFF1FEA53FD4FA591B4918C
:102A40008FB7F894111105C09C91ED2FE095E92303
:102A500002C0EC91ED2BEC938FBFDF91CF911F91D2
:102A60000895CF93DF93282F30E0F901E652FE4F0F
:102A70008491F901E05EFD4FD491F901EA59FD4FCF
:102A8000C491CC2391F081110E947314EC2FF0E0DB
:102A9000EE0FFF1FE455FD4FA591B491EC91ED238E
:102AA00081E090E021F480E002C080E090E0DF91DE
:102AB000CF910895CF92DF92EF92FF920F931F93E1
:102AC000CF93DF936C01EB017B01E40EF51E00E078
:102AD00010E0CE15DF0561F06991D601ED91FC9112
:102AE0000190F081E02DC6011995080F191FF1CF53
:102AF000C801DF91CF911F910F91FF90EF90DF9070
:102B0000CF9008956115710579F0FB0101900020C7
:102B1000E9F73197AF01461B570BDC01ED91FC91B2
:102B20000280F381E02D199480E090E00895DC01AB
:102B3000ED91FC910190F081E02D19940F931F937A
:102B4000CF93DF93EC016DE00E9497158C016AE052
:102B5000CE010E949715800F911FDF91CF911F9199
:102B60000F9108950F931F93CF93DF93EC010E9471
:102B700082158C01CE010E949E15800F911FDF915E
:102B8000CF911F910F9108950895FC0124853585FB
:102B9000F901E05CFF4F8081918132962081318183
:102BA000821B930B8F7399270895DC011C96ED917E
:102BB000FC911D97DF01A05CBF4F2D913C911197B7
:102BC00012968D919C9111972817390739F08D91A4
:102BD0009C91E80FF91F808190E008958FEF9FEF9F
:102BE0000895FC01A485B585FD01E05CFF4F2081BF
:102BF00031813296808191812817390779F080815F
:102C00009181A80FB91F8C91208131812F5F3F4F97
:102C10002F7333273183208390E008958FEF9FEF48
:102C20000895FC0181A1882329F0A489B5898C919C
:102C300086FFFBCF11A208950F931F93CF93DF93CD
:102C4000FC01A685B7858D01005C1F4FE8018881D6
:102C5000998101968F739927AD014E5B5F4FEA0111
:102C60002881398182179307D1F3E80128813981BE
:102C7000A20FB31F6C93A685B785A05CBF4F1196BA
:102C80009C938E93A689B7892C9181E090E0078C64
:102C900002C0880F991F0A94E2F7822B8C9381E07F
:102CA00081A30488F589E02D80818064808381E0A0
:102CB00090E0DF91CF911F910F910895FB01E05CAF
:102CC000FF4F208131812F5F3F4F2F733327DB016F
:102CD000AE5BBF4F4D915C912417350741F04081A9
:102CE0005181DB01A40FB51F8C933183208308959C
:102CF0001F920F920FB60F9211240BB60F922F93C3
:102D00003F934F935F936F937F938F939F93AF9373
:102D1000BF93EF93FF938091C00082FD07C0809125
:102D2000C60066E275E00E945E1602C08091C60091
:102D3000FF91EF91BF91AF919F918F917F916F9193
:102D40005F914F913F912F910F900BBE0F900FBE4F
:102D50000F901F9018951F920F920FB60F9211248B
:102D60000BB60F922F933F934F935F936F937F9385
:102D70008F939F93AF93BF93EF93FF938091C8007E
:102D800082FD07C08091CE006EE974E00E945E165D
:102D900002C08091CE00FF91EF91BF91AF919F91C2
:102DA0008F917F916F915F914F913F912F910F90F4
:102DB0000BBE0F900FBE0F901F9018951F920F9291
:102DC0000FB60F9211240BB60F922F933F934F9390
:102DD0005F936F937F938F939F93AF93BF93EF9383
:102DE000FF938091D00082FD07C08091D60066E1FC
:102DF00074E00E945E1602C08091D600FF91EF91B0
:102E0000BF91AF919F918F917F916F915F914F9102
:102E10003F912F910F900BBE0F900FBE0F901F9000
:102E200018951F920F920FB60F9211240BB60F92A6
:102E30002F933F934F935F936F937F938F939F93C2
:102E4000AF93BF93EF93FF938091300182FD07C052
:102E5000809136016EE873E00E945E1602C0809198
:102E60003601FF91EF91BF91AF919F918F917F912B
:102E70006F915F914F913F912F910F900BBE0F90EB
:102E80000FBE0F901F9018951F920F920FB60F92C2
:102E900011240BB60F922F933F938F939F93EF9331
:102EA000FF93209122053091230580912405909174
:102EB00025052817390731F48091C1008F7D809353
:102EC000C10014C0E0912405F0912505EE51FB4F9F
:102ED0002081809124059091250501968F73992773
:102EE00090932505809324052093C600FF91EF91D0
:102EF0009F918F913F912F910F900BBE0F900FBE1E
:102F00000F901F9018951F920F920FB60F921124D9
:102F10000BB60F922F933F938F939F93EF93FF9353
:102F200020919A0430919B0480919C0490919D047F
:102F30002817390731F48091C9008F7D8093C9002B
:102F400014C0E0919C04F0919D04E65AFB4F20814F
:102F500080919C0490919D0401968F739927909382
:102F60009D0480939C042093CE00FF91EF919F914C
:102F70008F913F912F910F900BBE0F900FBE0F902E
:102F80001F9018951F920F920FB60F9211240BB637
:102F90000F922F933F938F939F93EF93FF932091E3
:102FA0001204309113048091140490911504281791
:102FB000390731F48091D1008F7D8093D10014C006
:102FC000E0911404F0911504EE52FC4F20818091A1
:102FD00014049091150401968F739927909315040A
:102FE000809314042093D600FF91EF919F918F91CD
:102FF0003F912F910F900BBE0F900FBE0F901F901F
:1030000018951F920F920FB60F9211240BB60F92C4
:103010002F933F938F939F93EF93FF9320918A0376
:1030200030918B0380918C0390918D032817390781
:1030300031F4809131018F7D8093310114C0E09192
:103040008C03F0918D03E65BFC4F208180918C0313
:1030500090918D0301968F73992790938D038093A0
:103060008C0320933601FF91EF919F918F913F91B7
:103070002F910F900BBE0F900FBE0F901F901895C1
:10308000CF92DF92EF92FF920F931F93CF93DF9334
:10309000EC016A017B014115514E6105710509F191
:1030A000EC89FD8981E090E008A002C0880F991F9B
:1030B0000A94E2F7808360E079E08DE390E0A70175
:1030C00096010E94572789019A010150110921098F
:1030D00031093695279517950795980101151041E7
:1030E000A8F0EC89FD89108260E874E88EE190E038
:1030F000A70196010E945727DA01C9010197A1098A
:10310000B109B695A795979587959C01E889F989A6
:103110003083EA89FB89208319A2EE89FF894081E7
:1031200081E090E09C010C8C02C0220F331F0A94B6
:10313000E2F7242B2083EE89FF8940819C010D8CCE
:1031400002C0220F331F0A94E2F7242B2083EE895A
:10315000FF8940819C010E8C02C0220F331F0A940C
:10316000E2F7242B2083EE89FF8920810F8C02C097
:10317000880F991F0A94E2F7809582238083DF915C
:10318000CF911F910F91FF90EF90DF90CF90089516
:10319000CF92DF92EF92FF92E8E2F3E01382128285
:1031A00088EEC82E83E0D82EE12CF12CC482D58283
:1031B000E682F7826DE072E07183608386E295E0DB
:1031C0009587848782EE94E09787868785EC90E0E8
:1031D000918B808B84EC90E0938B828B80EC90E0E1
:1031E000958B848B81EC90E0978B868B82EC90E0C2
:1031F000918F808F86EC90E0938F828F44E0448F94
:1032000033E0358F27E0268F95E0978F81E080A30C
:10321000E6E0F3E013821282C482D582E682F7826E
:1032200071836083AEE9B4E0B587A487AAE5B4E012
:10323000B787A687ADECB0E0B18BA08BACECB0E06B
:10324000B38BA28BA8ECB0E0B58BA48BA9ECB0E05B
:10325000B78BA68BAAECB0E0B18FA08FAEECB0E03C
:10326000B38FA28F448F358F268F978F80A3E4EE84
:10327000F2E013821282C482D582E682F7827183E1
:103280006083A6E1B4E0B587A487A2EDB3E0B78779
:10329000A687A5EDB0E0B18BA08BA4EDB0E0B38B19
:1032A000A28BA0EDB0E0B58BA48BA1EDB0E0B78B05
:1032B000A68BA2EDB0E0B18FA08FA6EDB0E0B38FEA
:1032C000A28F448F358F268F978F80A3E2ECF2E098
:1032D00013821282C482D582E682F7827183608370
:1032E0006EE873E0758764876AE473E077876687C2
:1032F00065E371E0718B608B64E371E0738B628BCB
:1033000060E371E0758B648B61E371E0778B668BB2
:1033100062E371E0718F608F66E371E0738F628F9B
:10332000448F358F268F978F80A3FF90EF90DF908B
:10333000CF9008952F923F924F925F926F927F921B
:103340008F929F92AF92BF92CF92DF92EF92FF92B5
:103350000F931F93CF93DF9300D0CDB7DEB74C010F
:103360007B836A836A01590117019801241B350B7D
:1033700037FF03C0319521953109C5014A815B8131
:10338000841B950B97FF03C091958195910951E09E
:1033900059838217930714F019820BC09A2D8B2D35
:1033A0005801092F182F9A818B81DB82CA82C92E7E
:1033B000D82E8A819B81A816B9065CF49C2D8D2D90
:1033C0006801092F182F9A818B81BB82AA82A92EAE
:1033D000B82E2501AA81BB814A1A5B0A38016C18F4
:1033E0007D0877FE03C0719461947108720157FEE5
:1033F00003C0BFEFEB1AFB0AF594E794C016D106A1
:103400001CF00FEF1FEF1FC001E010E01CC0D40143
:10341000ED91FC91B9810084F185E02D9101BB23F0
:10342000C1F04A815B81B601C4011995E618F7081D
:10343000F7FE04C0C00ED11EE40CF51CEA81FB812E
:103440003196FB83EA834A815B81A416B506FCF6BC
:1034500004C0A6016A817B81E7CF0F900F900F9087
:10346000DF91CF911F910F91FF90EF90DF90CF9060
:10347000BF90AF909F908F907F906F905F904F9094
:103480003F902F9008950895DC01ED91FC91048008
:10349000F581E02D19940F931F93DC01ED91FC91C0
:1034A000008CF18DE02D19951F910F9108950F93C8
:1034B0001F93DC01ED91FC91028CF38DE02D1995A9
:1034C0001F910F910895EF92FF920F931F93DC01CC
:1034D000ED91FC91048CF58DE02D19951F910F91C4
:1034E000FF90EF9008950895AF92BF92CF92DF9230
:1034F000EF92FF920F931F93CF93DF9300D01F9211
:10350000CDB7DEB75C016901DC01ED91FC9106806D
:10351000F781E02D4B835C8369837A831995D5010C
:10352000ED91FC914B815C81C40ED51EB1E0CB1AAC
:10353000D1080088F189E02D7801860169817A81BE
:103540009B01C5011995D501ED91FC910288F38984
:10355000E02DC5010F900F900F900F90DF91CF914C
:103560001F910F91FF90EF90DF90CF90BF90AF90A1
:103570001994AF92BF92CF92DF92EF92FF920F9386
:103580001F93CF93DF9300D01F92CDB7DEB75C01BE
:103590006901DC01ED91FC910680F781E02D4B8300
:1035A0005C8369837A831995D501ED91FC916981DA
:1035B0007A819B012C0D3D1D215031090088F18934
:1035C000E02D78014B815C818A01C5011995D501F7
:1035D000ED91FC910288F389E02DC5010F900F90C9
:1035E0000F900F90DF91CF911F910F91FF90EF906F
:1035F000DF90CF90BF90AF9019944F925F926F92EF
:103600007F928F929F92AF92BF92CF92DF92EF9272
:10361000FF920F931F93CF93DF931F921F92CDB70B
:10362000DEB76C015A0139014801DC01ED91FC91D2
:103630000680F781E02D69837A8319956981462E8A
:103640007A81572E640C751CD601ED91FC914614BD
:1036500057046CF40484F585E02D87019401A501DD
:10366000B201C6011995BFEF4B1A5B0AEDCF028874
:10367000F389E02DC6010F900F90DF91CF911F913C
:103680000F91FF90EF90DF90CF90BF90AF909F9001
:103690008F907F906F905F904F901994EF92FF9270
:1036A0000F931F93DC01ED91FC9111971A960D91E8
:1036B0001C911B9718962D913C911997048CF58DB0
:1036C000E02D7B0140E050E060E070E019951F9133
:1036D0000F91FF90EF900895CF92DF92EF92FF92BB
:1036E0000F931F93CF93DF9300D000D0CDB7DEB7F9
:1036F0006C01DC01ED91FC916217730789F40417EA
:1037000015072CF4942F852FA801092F182F041BBF
:10371000150B98012F5F3F4F008CF18DE02D12C0EB
:103720004017510709F5261737072CF4962F872FD6
:10373000B901292F382F261B370B2F5F3F4F028CE3
:10374000F38DE02D8701C601199526960FB6F894E2
:10375000DEBF0FBECDBFDF91CF911F910F91FF90C4
:10376000EF90DF90CF9008950680F781E02D2D83B4
:103770003E834B835C8369837A831995D601ED91EF
:10378000FC910088F189E02D2D813E814B815C8187
:1037900069817A81C6011995D601ED91FC91028863
:1037A000F389E02DC60126960FB6F894DEBF0FBE52
:1037B000CDBFDF91CF911F910F91FF90EF90DF90E0
:1037C000CF9019946F927F928F929F92AF92BF92F7
:1037D000CF92DF92EF92FF920F931F93CF93DF93DD
:1037E000EC014B015A0169013801E881F981068039
:1037F000F781E02D1995E881F9810684F785E02DA0
:1038000087019601A501B401CE011995E881F981DE
:10381000A501460D571D415051090684F785E02D3D
:103820009601B401CE011995E881F9810484F585EA
:10383000E02D9301A501B401CE011995E881F9812C
:10384000C80CD91CB601615071090484F585E02DBE
:103850009301A501CE011995E881F9810288F389C8
:10386000E02DCE01DF91CF911F910F91FF90EF904E
:10387000DF90CF90BF90AF909F908F907F906F9090
:1038800019940895FC016370658B8481958126816C
:103890003781613039F0633029F091878087338731
:1038A0002287089531872087938782870895FC01B6
:1038B000138212828DE192E0918380837583648309
:1038C000578346837187608753874287158A158699
:1038D00014861786168681E0848B2FEF3FEF338B9B
:1038E000228B318B208B868B178A118E108E089538
:1038F0002F923F924F925F926F927F928F929F9200
:10390000AF92BF92CF92DF92EF92FF920F931F93ED
:10391000CF93DF93CDB7DEB728970FB6F894DEBF0D
:103920000FBECDBF5C013B014A0138872F83FC826B
:10393000EB8281E090E02C01421A530AC901919573
:10394000819591099C01220F331F3A832983170126
:1039500033E0230E311CEE24E394F12C802F817090
:103960008D8302700E83C7010197EF81F8858E1752
:103970009F070CF078C057FC0CC0AF81B885119739
:10398000B887AF83E981FA813296FA83E9834E0ED4
:103990005F1EC701880F991F0196480E591EFD81B1
:1039A000FF2359F1D501ED91FC912F813885220F2C
:1039B000331F2F5F3F4F8B819C81280F391F048459
:1039C000F585E02D8601A401AF81B8854A1B5B0B0C
:1039D000B701660D771DC5011995D501ED91FC91D3
:1039E0000484F585E02D9101A4014E195F096F81D2
:1039F0007885660D771DC5011995BE81BB2361F1E0
:103A0000D501ED91FC912F813885220F331F2F5F57
:103A10003F4F8B819C81280F391F0484F585E02D51
:103A20008601A401AF81B8854A1B5B0BB3016E19F7
:103A30007F09C5011995D501ED91FC910484F585A7
:103A4000E02D9101A4014E195F09B3018F81988582
:103A5000681B790BC50119959FEFE91AF90AA2E0D5
:103A60002A0E311C80CF28960FB6F894DEBF0FBE09
:103A7000CDBFDF91CF911F910F91FF90EF90DF901D
:103A8000CF90BF90AF909F908F907F906F905F90FE
:103A90004F903F902F9008956F927F928F929F92B8
:103AA000AF92BF92CF92DF92EF92FF920F931F934C
:103AB000CF93DF93EC014B013A0159016801E88192
:103AC000F9810680F781E02D1995E881F98195014A
:103AD000220F331F2F5F3F4FA3014A195B09048454
:103AE000F585E02DB401CE011995E12CF12C03E010
:103AF0009501A301B401CE010E94781CE881F981EF
:103B00000288F389E02DCE01DF91CF911F910F91B3
:103B1000FF90EF90DF90CF90BF90AF909F908F90ED
:103B20007F906F9019942F923F924F925F926F9275
:103B30007F928F929F92AF92BF92CF92DF92EF923D
:103B4000FF920F931F93CF93DF93CDB7DEB76C97A0
:103B50000FB6F894DEBF0FBECDBF9C8F8B8F5B017D
:103B60001A011F830E833701C982DC0158964D91DB
:103B70005C9159974115510509F0E5C018968D9152
:103B80009C911997681779070CF0CAC11A968D9104
:103B90009C911B97281639060CF0C2C18C2C912CD5
:103BA000FB0136E0C39EE00DF11D1124FB87EA877F
:103BB0001E161F060CF0B4C1C40133E0880F991F14
:103BC0003A95E1F79D878C87820D931D181619068B
:103BD0000CF0A6C157968C91811103C0203B08F0D0
:103BE0002F5FAB8DBC8DED91FC9111970680F78115
:103BF000E02DCD012A8F19952A8DB5E02B9F9001DC
:103C00001124F5013596FF87EE872501BB82AA8234
:103C1000A9014A195B09598B488BC10108969B8BF6
:103C20008A8BE889F989E40DF51DE650FD4F9491E2
:103C300098873D822C826101A885A0FF13C0AB8DBF
:103C4000BC8DED91FC91B981B13031F40084F185E6
:103C5000E02D2E813F8116C00284F385E02DEE8099
:103C6000FF801AC0EE81FF816E167F06F1F0AB8DEA
:103C7000BC8DED91FC91B981B13051F40084F18596
:103C8000E02D9301A601B2018B8D9C8D19950DC07D
:103C90000284F385E02D7301840194014C815D81E0
:103CA0006A817B818B8D9C8D1995E885E695E887E7
:103CB0002C813D81280D391D3D832C833FEFC31A94
:103CC000D30A4A895B89C416D50609F0B5CF8A8123
:103CD0009B81880D991D9B838A839FEF491A590AFE
:103CE000AE85BF854A165B0609F09BCFEE81FF814A
:103CF0006E167F0609F4F2C0EB8DFC8DA081B181B8
:103D0000F981F13079F4B5016B5F7F4F1C96ED912D
:103D1000FC911D97830128E030E0A1018B8D9C8DE3
:103D20001995DCC06A857B85681979091A96ED9129
:103D3000FC911B9773010C851D859401A1018B8D4E
:103D40009C8D1995CBC0FA01349694913297659168
:103D50007491291BCB01B7E02B9F800D911D11247D
:103D6000FA01259134913B8B2A8BFC0145915491AA
:103D70005B834A83FC013296C490319654915C87F0
:103D8000329614913196D4908981823058F0612E08
:103D9000012E000C7708AD2D0D2C000CBB0BB98744
:103DA000A88704C019861886612C712CAB8DBC8D38
:103DB000ED91FC9111970680F781E02DCD011995C9
:103DC000B9818B2E912C689CC001699C900D789CC8
:103DD000900D1124FC01EA0DFB1DF98BE88B1C8270
:103DE000712C612CE12F110FFF0B95012E0F3F1F3E
:103DF0003B872A87AC0CB11CA5014E0F5F1F5F8B60
:103E00004E8BC1018D0D911DD7FC9A95998F888F8E
:103E10004C85641608F062C0862D90E0488559856F
:103E2000480F591F489D9001499D300D589D300DF8
:103E30001124D901A20DB31DBF87AE87AA84BB840C
:103E400048885988DC80BA85DB1AE88DF98DE80F3F
:103E5000F91FFD8BEC8B8D2D8A0D2E893F89A216C3
:103E6000B306B9F1877061F48A819B810196EA8972
:103E7000FB89AA81BB81EA0FFB1F74909B838A8315
:103E800077FE20C0AB8DBC8DED91FC91B981B13036
:103E900061F40084F185E02D2E813F814C895D899C
:103EA000B5018B8D9C8D19950DC00284F385E02D95
:103EB000EE80FF80840194014E855F85B2018B8D79
:103EC0009C8D1995770C480C591CEFEFAE1ABE0A61
:103ED000C2CF3C813C0D3C8363949ACFAB8DBC8DAB
:103EE000ED91FC9111970288F389E02DCD016C963C
:103EF0000FB6F894DEBF0FBECDBFDF91CF911F91FB
:103F00000F91FF90EF90DF90CF90BF90AF909F9078
:103F10008F907F906F905F904F903F902F9019946B
:103F20006C960FB6F894DEBF0FBECDBFDF91CF9178
:103F30001F910F91FF90EF90DF90CF90BF90AF90C7
:103F40009F908F907F906F905F904F903F902F90B9
:103F50000895AF92BF92CF92EF92FF920F931F936B
:103F6000CF93DF93EC01262F888D998D009709F070
:103F700040C06A3059F41D861C862C898E859F8529
:103F800038E0239F800D911D112441C06D3009F44C
:103F9000AAC08E898823C1F03C898C859D8546E026
:103FA000349F800D911D1124488559854817590764
:103FB0005CF41D861C868E859F8548E0349F800DAD
:103FC000911D11249F878E87EA88FB8808891989AB
:103FD0004E855F856C857D85CC88CE010E94931DC2
:103FE0002C898C859D8536E0239F800D911D1124A1
:103FF00042C06A3079F41D861C862C89FC013696F5
:10400000E4918E859F852E9F800D911D11249F87A1
:104010008E8769C06D3009F466C0FC013496349116
:10402000631708F460C03196E491E61708F45BC0AA
:10403000FC013296A590B490462F50E0431B5109E5
:1040400037E0349FB001359F700D1124A60EB71EC6
:10405000F501329634913196E491332311F0E11158
:104060000DC0F5013496E4912C898C859D85E29FE5
:10407000800D911D11249D878C8735C0F5013596E3
:1040800044915E89552311F16C89E32FF0E0E40F30
:10409000F11D47FDFA956E9FD0016F9FB00D112461
:1040A0004C855D854A0F5B1FE885F985E417F507A8
:1040B0006CF41D861C86FC013696E4918E859F85E6
:1040C0006E9F800D911D11249F878E87EA88FB8843
:1040D000088919894E855F856C857D85CC88CE01E0
:1040E0000E94931DBECF81E090E0DF91CF911F91A0
:1040F0000F91FF90EF90CF90BF90AF900895FC018B
:1041000075876487578746870895611101C061E00C
:10411000FC01648B0895FC01668B0895DC019C967C
:10412000ED91FC919D979081D1968C91892B808304
:104130000895EF92FF920F931F93DC01ED91FC9194
:104140000284F385E02D7801890121E030E01995A2
:104150001F910F91FF90EF900895EF92FF920F93B0
:104160001F93DC01ED91FC910284F385E02D780131
:1041700001E010E019951F910F91FF90EF900895C5
:104180000F931F93CF93DF9300D000D0CDB7DEB74E
:104190008C01DC01ED91FC910680F781E02D2D83EF
:1041A0003E834B835C8369837A831995D801ED91B3
:1041B000FC910084F185E02D2D813E814B815C8155
:1041C00069817A81C8011995D801ED91FC91028825
:1041D000F389E02DC80126960FB6F894DEBF0FBE16
:1041E000CDBFDF91CF911F910F911994EF92FF9264
:1041F0000F931F93CF93DF9300D000D0CDB7DEB7DE
:104200007C01DC01ED91FC910680F781E02D2D838E
:104210003E834B835C8369837A831995D701ED9143
:10422000FC910484F585E02D2D813E814B815C81DC
:1042300069817A81C7011995D701ED91FC910288B6
:10424000F389E02DC70126960FB6F894DEBF0FBEA6
:10425000CDBFDF91CF911F910F91FF90EF901994F7
:10426000EF92FF920F931F93CF93DF9300D000D074
:10427000CDB7DEB77C01DC01ED91FC910680F781C2
:10428000E02D2D833E834B835C8369837A8319956C
:10429000D701ED91FC910684F785E02D2D813E81BB
:1042A0004B815C8169817A81C7011995D701ED91B4
:1042B000FC910288F389E02DC70126960FB6F89489
:1042C000DEBF0FBECDBFDF91CF911F910F91FF9049
:1042D000EF901994CF92DF92EF92FF920F931F937A
:1042E000CF93DF9300D000D0CDB7DEB76C01DC01F7
:1042F000ED91FC910680F781E02D2D833E834B8369
:104300005C8369837A831995D601ED91FC910284CF
:10431000F385E02D2D813E814B815C8169817A811D
:10432000C6011995D601ED91FC910288F389E02D23
:10433000C60126960FB6F894DEBF0FBECDBFDF9143
:10434000CF911F910F91FF90EF90DF90CF90199434
:10435000CF93DF93EC0189A187FF09C084E00E941D
:10436000452781E00E94372780E00E944027ECA586
:10437000FDA5908189A9809589238083DF91CF91C4
:104380000895EF92FF920F931F93CF93DF931F92A5
:10439000CDB7DEB77C01062F142F40E451E060EF6B
:1043A00070E029830E94571C85E492E0D7011196A2
:1043B0009C938E935E960C935E975F961C935F978B
:1043C000298190962C9390978FEF91968C9391974B
:1043D00092968C93929793968C939397F701128E63
:1043E000138E148E158E602F000F770BFB01EA5988
:1043F000FD4F8491E82FF0E0EE0FFF1FEA53FD4FD1
:10440000859194919D969C938E939C97FB01E05E81
:10441000FD4FE491D196EC93D197412F110F550B9D
:10442000FA01EA59FD4FE491F0E0EE0FFF1FEA5365
:10443000FD4F85919491F70193A782A7FA01E05E61
:10444000FD4FE491D296EC93D29799961C921E92CE
:104450009897D0961C92D09795961C921E929497FE
:104460009E961C929E9797961C921E9296979F9648
:104470001C920F90DF91CF911F910F91FF90EF90C1
:104480000895FC0181A187FF05C06EBD0DB407FE34
:10449000FDCF089528E030E090E8A4A1B5A186A55D
:1044A000492F462319F04C91842B03C04C918095E1
:1044B00084238C93A0A5B1A54C9180A980958423D9
:1044C0008C93A0A5B1A54C9180A9842B8C93969533
:1044D0002150310911F70895CF93DF93EC01EAA53C
:1044E000FBA590818AA9809589238083CE010E94B3
:1044F0004122EAA5FBA590818AA9892B8083DF91BF
:10450000CF910895CF93DF93EC01411551056105DB
:10451000710521F440E052E16AE770E04A8F5B8F59
:104520006C8F7D8F61E08F8D0E94C51460E08F8D50
:104530000E94011561E08E8D0E94C51461E08E8D90
:104540000E94011589A187FD16C061E08AA10E9421
:10455000C51460E08AA10E94011561E089A10E9452
:10456000C51461E089A10E9401158BA187FD03C0DC
:1045700060E00E94C51489A187FD0E94212788A1BF
:1045800087FD21C061E00E94C51461E088A10E94FE
:10459000011564E670E080E090E00E94C61360E0E0
:1045A00088A10E94011564E670E080E090E00E941E
:1045B000C61361E088A10E94011568EC70E080E0FC
:1045C00090E00E94C613E881F9810680F781E02D12
:1045D000CE0119956FEECE010E946C2263E0CE01F0
:1045E0000E94412260E8CE010E94412262E0CE0199
:1045F0000E9441226FECCE010E946C2260E0CE014D
:104600000E94412261ECCE010E94412260E3CE0172
:104610000E9441226DEECE010E946C2264E6CE0122
:104620000E94412263E0CE010E94412262E1CE015C
:104630000E94412261E8CE010E94412268EECE0133
:104640000E946C2265E8CE010E94412260E0CE010A
:104650000E94412268E7CE010E9441226BECCE010C
:104660000E946C2269E3CE010E9441226CE2CE01DD
:104670000E94412260E0CE010E94412264E3CE010B
:104680000E94412262E0CE010E94412267EFCE01EA
:104690000E946C2260E2CE010E9441226AEECE01AD
:1046A0000E946C2260E0CE010E94412260E0CE01B7
:1046B0000E94412260ECCE010E946C2263E2CE0196
:1046C0000E94412261ECCE010E946C2260E1CE0189
:1046D0000E94412265ECCE010E946C226EE3CE0165
:1046E0000E94412268E2CE010E94412267ECCE0185
:1046F0000E946C2266E8CE010E94412266E3CE0150
:104700000E946C2268E4CE010E94412267E3CE0140
:104710000E946C2289A187FF09C01EBC0DB407FE50
:10472000FDCF1EBC0DB407FEFDCF08C060E0CE017A
:104730000E94412260E0CE010E9441226AE3CE0144
:104740000E946C2265E5CE010E94412261EBCE0100
:104750000E946C2260E0CE010E94412268E1CE01FD
:104760000E94412266EBCE010E946C2268E0CE01DD
:104770000E94412262E8CE010E94412267E2CE01FE
:104780000E94412262EFCE010E946C2260E0CE01C5
:104790000E94412266E2CE010E946C2261E0CE01BD
:1047A0000E94412260EECE010E946C226FE0CE0199
:1047B0000E94412261E3CE010E9441226BE2CE01C0
:1047C0000E9441226CE0CE010E9441226EE0CE01A7
:1047D0000E94412268E0CE010E9441226EE4CE0197
:1047E0000E94412261EFCE010E94412267E3CE0187
:1047F0000E94412267E0CE010E94412260E1CE0189
:104800000E94412263E0CE010E9441226EE0CE016F
:104810000E94412269E0CE010E94412260E0CE0167
:104820000E94412261EECE010E946C2260E0CE0126
:104830000E9441226EE0CE010E94412264E1CE013D
:104840000E94412263E0CE010E94412261E1CE013B
:104850000E94412267E0CE010E94412261E3CE0125
:104860000E94412261ECCE010E94412268E4CE0107
:104870000E94412268E0CE010E9441226FE0CE01F9
:104880000E9441226CE0CE010E94412261E3CE01F0
:104890000E94412266E3CE010E9441226FE0CE01D8
:1048A0000E94412261E1CE010E946C2268E770E023
:1048B00080E090E00E94C61369E2CE010E946C2263
:1048C00068E770E080E090E00E94C613E881F9811B
:1048D0000288F389E02DCE01199580EF90E0998749
:1048E000888780E491E09B878A87DF91CF91089544
:1048F0001F93CF93DF93EC0163706D8B6230C1F037
:10490000633001F1613051F080EF90E09987888742
:1049100080E491E09B878A8718E41DC080E491E0E1
:104920009987888780EF90E09B878A8718E213C079
:1049300080EF90E09987888780E491E09B878A8761
:1049400018E809C080E491E09987888780EF90E0BB
:104950009B878A8718EEE881F9810680F781E02D30
:10496000CE01199566E3CE010E946C22612FCE0123
:104970000E944122E881F9810288F389E02DCE016D
:10498000DF91CF911F9119940F931F93CF93DF93D2
:104990001F92CDB7DEB78C01DC01ED91FC91068052
:1049A000F781E02D698319956981611102C060E288
:1049B00001C061E2C8010E946C22D801ED91FC9116
:1049C0000288F389E02DC8010F90DF91CF911F91EC
:1049D0000F9119948F929F92AF92BF92CF92DF92D4
:1049E000EF92FF920F931F93CF93DF93EC01490156
:1049F00081E0881A9108860E971EC401A0E0B0E0FD
:104A00004B01A12CB12C540199248824882A992A7D
:104A1000AA2ABB2A680181E0C81AD108C40ED51E93
:104A2000C601A0E0B0E06A01E12CF12C7601DD24A2
:104A3000CC24C82AD92AEA2AFB2A6AE2CE010E949B
:104A40006C2229A16B2D77278827992727FF18C06B
:104A50006EBD0DB407FEFDCFC501AA27BB278EBDD5
:104A60000DB407FEFDCFBB27AB2D9A2D892D8EBD32
:104A70000DB407FEFDCF8EBC0DB407FEFDCF14C0F4
:104A8000CE010E944122B50188279927CE010E94BC
:104A9000412299278B2D7A2D692DCE010E9441222A
:104AA000682DCE010E9441226BE2CE010E946C2251
:104AB00029A16F2D77278827992727FF18C06EBD5A
:104AC0000DB407FEFDCFC701AA27BB278EBD0DB4CD
:104AD00007FEFDCFBB27AF2D9E2D8D2D8EBD0DB4B6
:104AE00007FEFDCFCEBC0DB407FEFDCF14C0CE0136
:104AF0000E944122B70188279927CE010E944122B6
:104B000099278F2D7E2D6D2DCE010E9441226C2D77
:104B1000CE010E9441226CE2CE01DF91CF911F9124
:104B20000F91FF90EF90DF90CF90BF90AF909F904C
:104B30008F900C946C221F93CF93DF93262FFC0150
:104B400031A137FF09C07EBD0DB407FEFDCF2EBDDC
:104B50000DB407FEFDCF0CC0672F122FEC010E9491
:104B60004122612FCE01DF91CF911F910C94412200
:104B7000DF91CF911F910895EF92FF920F931F93B2
:104B8000CF93DF9377FD23C0DC011896ED91FC9164
:104B900019976E177F07DCF457FD19C01A96ED912F
:104BA000FC911B974E175F0794F47901EC0101E02B
:104BB00010E021E030E00E94EA24B701CE01DF914D
:104BC000CF911F910F91FF90EF900C949B25DF9157
:104BD000CF911F910F91FF90EF900895EF92FF9268
:104BE0001F93CF93DF9300D01F921F92CDB7DEB7F4
:104BF0007C01162FFC0181A187FF12C02115310510
:104C00004105510549F17EBD0DB407FEFDCF1EBD26
:104C10000DB407FEFDCF2150310941095109EECFF6
:104C20002115310541055105B9F0672FC7012983C9
:104C30003A834B835C837D830E944122612FC701AD
:104C40000E94412229813A814B815C8121503109A6
:104C5000410951097D81E4CF0F900F900F900F9083
:104C60000F90DF91CF911F91FF90EF9008958F9259
:104C70009F92AF92BF92CF92DF92EF92FF920F93EB
:104C80001F93CF93DF935C01FB01E9014701DC0136
:104C900018962D913C911997621773070CF049C033
:104CA0001A968D919C911B97481759070CF041C09B
:104CB0006B01CC0EDD1ED60111977A01E00EF11EBC
:104CC000B70161507109B7FD34C077FD32C0F7FFFD
:104CD00003C0E601E0E0F0E057FF03C0870140E0D9
:104CE00050E0A217B3071CF0E901CE1BDF0B6817D9
:104CF00079071CF08C01041B150B9E01D8010E9442
:104D000081276B017C01BF01C5010E94EA24A70134
:104D10009601B401C501DF91CF911F910F91FF90D2
:104D2000EF90DF90CF90BF90AF909F908F900C94BA
:104D3000EE25DF91CF911F910F91FF90EF90DF90C3
:104D4000CF90BF90AF909F908F900895EF92FF9279
:104D50000F931F93DC0112964C93129714962C9389
:104D6000149713960C93139715966C9315971796A3
:104D7000FC92EE92169770E0FB01EA59FD4FE49128
:104D8000F0E0EE0FFF1FEA53FD4F859194911996C5
:104D90009C938E93189750E0FA01EA59FD4FE491E5
:104DA000F0E0EE0FFF1FEA53FD4F859194911B96A3
:104DB0009C938E931A9730E0F901EA59FD4FE491E4
:104DC000F0E0EE0FFF1FEA53FD4F859194911D9681
:104DD0009C938E931C9710E0F801EA59FD4F849143
:104DE00090E0880F991F8A539D4FFC018591949103
:104DF0001F969C938E931E97FB01E05EFD4F64917E
:104E000050966C935097FA01E05EFD4F4491529694
:104E10004C935297F901E05EFD4F249151962C93EB
:104E20005197F801E05EFD4F049153960C93539710
:104E30008AE090E08D939C931F910F91FF90EF90EB
:104E4000089561E085E30E94011561E085E30E9419
:104E5000C5148CB580618CBD8CB580648CBD61E05F
:104E600084E30E94C51461E083E30C94C5148111AE
:104E700003C08CB5806202C08CB58F7D8CBD089557
:104E80009CB5937F892B8CBD08959CB5282F2370EA
:104E90009C7F922B9CBD2DB582FB992790F9822F88
:104EA0008E7F892B8DBD0895F8940C949F27A1E2E5
:104EB0001A2EAA1BBB1BFD010DC0AA1FBB1FEE1F94
:104EC000FF1FA217B307E407F50720F0A21BB30BDF
:104ED000E40BF50B661F771F881F991F1A9469F75B
:104EE00060957095809590959B01AC01BD01CF01B7
:104EF0000895EE0FFF1F881F8BBF0790F691E02DDE
:104F000019940E948927332312F48A1B9B0B0C945B
:104F10009A27A29FB001B39FC001A39F700D811D6E
:104F20001124911DB29F700D811D1124911D0895B2
:104F30000E948927B7FF0895821B930B0895F89468
:024F4000FFCFA1
:104F42000153697A653A203100000000001C165AAC
:104F520015C515F115D515111600000000A91F5A27
:104F620015C415431A441A631A4B1A571A9A19731D
:104F72001A421C411C741AB91AFD1A4E1B6C1BE210
:104F82001B00000000A91F5A15C020A821BC25370C
:104F9200269920AD209A198E207824C424F6203038
:0A4FA200216A214E1B6C1BE21B006C
:00000001FF
