:100000000C9402040C9433040C9433040C943304C5
:100010000C9433040C9433040C9433040C94330484
:100020000C9433040C9433040C9433040C94330474
:100030000C9433040C9433040C9433040C94330464
:100040000C9433040C9433040C9433040C94330454
:100050000C9433040C9433040C9433040C944F2705
:100060000C9433040C94A42C0C94702D0C94330435
:100070000C9433040C9433040C9433040C94330424
:100080000C9433040C9433040C9433040C94330414
:100090000C94D72C0C94AF2D0C9433040C94330493
:1000A0000C9433040C9433040C9433040C943304F4
:1000B0000C9433040C9433040C9433040C943304E4
:1000C0000C9433040C9433040C9433040C940A2DD4
:1000D0000C94EE2D0C9433040C943D2D0C942D2E89
:1000E0000C9433048E28912884288828C8289528C1
:1000F00099289F28A328A728AD28B128B528C82863
:10010000BB28BF28C3280C94C13C0C94F8300C9435
:10011000F0310C94F4370C944A370C941D2C0C9449
:10012000C8300C94DB300C94012C0C94C8280C942F
:10013000F02B0C943D2C0C944E3B0C943D310C94C4
:100140008E280C9499280C94A3280C9480370C9436
:100150001E300C94482C0C9437370C9495280C9432
:10016000BB280C94F7300C9432380C94801D0C94FE
:1001700088280C94C3280C94C7300C94D2310C946A
:10018000B1280C94F12B0C94AD280C944A1D0C94BE
:10019000BA370C944C2F0C94E7300C94C6320C9464
:1001A000C5320C9466320C9484280C9491280C94DB
:1001B00018370C94A7280C945E290C9423370C94C0
:1001C000B5280C94463C0C94023B0C94BF280C942C
:1001D00081310C949F280C94CF300C942D36000064
:1001E000090A02080B0C0D070603040100000000B9
:1001F00000000000000000000000000000000000FF
:100200000000000000000000000011100F000000BE
:1002100000000000000000000000000000000000DE
:1002200000000000010210202008081020401020CB
:1002300040800201020108040201010204081020AA
:1002400040808040201008040201800402018040A8
:100250002010080402010804020101020408102011
:1002600040800102040810204080050505050705AF
:1002700008080808020202020A0A08080404040422
:10028000010101010101010103030303030303034E
:10029000040707070C0C0C0C0C0C0C0C02020202DD
:1002A00006060606060606060B0B0B0B0B0B0B0BC6
:1002B000000020002300260029002C002F0032001F
:1002C00000010000030106010901000022002500D1
:1002D00028002B002E00310034000201000005012F
:1002E00008010B0100002100240027002A002D0036
:1002F0003000330001010000040107010A01000081
:100300000000003E5B4F5B3E3E6B4F6B3E1C3E7CF5
:100310003E1C183C7E3C181C577D571C1C5E7F5EA3
:100320001C00183C1800FFE7C3E7FF001824180062
:10033000FFE7DBE7FF30483A060E262979292640F9
:100340007F050507407F05253F5A3CE73C5A7F3E25
:100350001C1C08081C1C3E7F14227F22145F5F00B7
:100360005F5F06097F017F006689956A6060606053
:100370006094A2FFA29408047E040810207E20103E
:1003800008082A1C08081C2A08081E101010100C47
:100390001E0C1E0C30383E3830060E3E0E06000095
:1003A00000000000005F00000007000700147F1439
:1003B0007F14242A7F2A12231308646236495620A8
:1003C000500008070300001C2241000041221C00CD
:1003D0002A1C7F1C2A08083E08080080703000088C
:1003E00008080808000060600020100804023E5160
:1003F00049453E00427F40007249494946214149F2
:100400004D331814127F1027454545393C4A494958
:100410003141211109073649494936464949291EC2
:1004200000001400000040340000000814224114B1
:1004300014141414004122140802015909063E4103
:100440005D594E7C1211127C7F494949363E41412B
:1004500041227F4141413E7F494949417F09090984
:10046000013E414151737F0808087F00417F4100F0
:100470002040413F017F081422417F404040407F9F
:10048000021C027F7F0408107F3E4141413E7F09EC
:100490000909063E4151215E7F091929462649492D
:1004A000493203017F01033F4040403F1F2040206D
:1004B0001F3F4038403F631408146303047804036B
:1004C0006159494D43007F41414102040810200019
:1004D0004141417F0402010204404040404000038A
:1004E00007080020545478407F2844443838444456
:1004F0004428384444287F385454541800087E094E
:100500000218A4A49C787F0804047800447D40006D
:100510002040403D007F1028440000417F40007C87
:10052000047804787C080404783844444438FC187F
:1005300024241818242418FC7C0804040848545463
:10054000542404043F44243C4040207C1C20402090
:100550001C3C4030403C44281028444C9090907CF7
:100560004464544C44000836410000007700000009
:100570004136080002010204023C2623263C1EA14B
:10058000A161123A4040207A3854545559215555AA
:100590007941225454784221555478402054557959
:1005A000400C1E52721239555555593954545459EC
:1005B00039555454580000457C410002457D4200A5
:1005C00001457C407D1211127DF0282528F07C54D5
:1005D0005545002054547C547C0A097F49324949CE
:1005E00049323A4444443A324A4848303A41412137
:1005F0007A3A42402078009DA0A07D3D4242423D93
:100600003D4040403D3C24FF2424487E4943662B26
:100610002FFC2F2BFF0929F620C0887E09032054C8
:100620005479410000447D413048484A32384040C6
:10063000227A007A0A0A727D0D19317D2629292F26
:1006400028262929292630484D402038080808083E
:1006500008080808382F10C8ACBA2F102834FA0040
:10066000007B000008142A142222142A14085500C2
:10067000550055AA55AA55AAFF55FF55FF00000081
:10068000FF00101010FF00141414FF001010FF00E2
:10069000FF1010F010F0141414FC001414F700FFF5
:1006A0000000FF00FF1414F404FC141417101F10B2
:1006B000101F101F1414141F00101010F000000061
:1006C000001F101010101F10101010F0100000006C
:1006D000FF101010101010101010FF10000000FF7D
:1006E000140000FF00FF00001F10170000FC04F4BE
:1006F00014141710171414F404F40000FF00F71476
:10070000141414141414F700F714141417141010FC
:100710001F101F141414F4141010F010F000001F18
:10072000101F0000001F14000000FC140000F01057
:10073000F01010FF10FF141414FF141010101F00FD
:10074000000000F010FFFFFFFFFFF0F0F0F0F0FFFF
:10075000FFFF0000000000FFFF0F0F0F0F0F3844D6
:10076000443844FC4A4A4A347E02020606027E02AB
:100770007E0263554941633844443C04407E201E58
:100780002006027E020299A5E7A5991C2A492A1C87
:100790004C7201724C304A4D4D303048784830BC74
:1007A000625A463D3E494949007E0101017E2A2A9E
:1007B0002A2A2A44445F444440514A444040444A1F
:1007C00051400000FF0103E080FF000008086B6B50
:1007D000083612362436060F090F060000181800D6
:1007E00000001010003040FF0101001F01011E0039
:1007F000191D1712003C3C3C3C00000000004A1D43
:100800004C2F801D11241FBECFEFD1E2DEBFCDBF24
:1008100000E00CBF13E0A0E0B2E0E6E2F2E800E0A6
:100820000BBF02C007900D92A03BB107D9F72DE195
:10083000A0EBB3E001C01D92A534B207E1F713E0CD
:10084000C1E0D4E000E006C021970109802FFE013D
:100850000E94DB40CF3FD10780E00807A9F70E9444
:10086000B9260C941B400C9400006AE072E084EB03
:1008700093E00E94632B6FE072E08BEB93E00E94A9
:10088000632B66E172E082EC93E00C94632BDF92C1
:10089000EF92FF920F931F93CF93DF937C018B0115
:1008A000C42F6BE172E08FEF9AE10E94FF2940E5CF
:1008B00050E06AE070E08DE59AE10E94033763E062
:1008C0008DE59AE10E940937CC23F1F10E151F0541
:1008D00009F459C0C0E0D0E087E0D82ECE15DF057E
:1008E00071F44FEF5FEF60E070E08DE59AE10E94F8
:1008F0000F37DC9EB001DD9E700D112411C040E069
:1009000050E06FEF7FEF8DE59AE1C017D10779F4E2
:100910000E940F37DC9EC001DD9E900D1124BC01AA
:100920006C547C4F8DE59AE10E94ED2908C00E942D
:100930000F3766E273E08DE59AE10E94FF29219668
:10094000C330D10559F61FC004EB13E0C0E0D0E07E
:10095000CE15DF0529F44FEF5FEF60E070E004C0D3
:1009600040E050E06FEF7FEF8DE59AE10E940F3796
:10097000B8018DE59AE10E94ED292196095F1F4F8C
:10098000C330D10529F7DF91CF911F910F91FF90CF
:10099000EF90DF900895009779F487E090E09093CE
:1009A000381A8093371A81E090E09093361A80933A
:1009B000351A82E090E01FC08130910569F485E02E
:1009C00090E09093381A8093371A82E090E09093E9
:1009D000361A8093351A0FC08230910589F423E0CE
:1009E00030E03093381A2093371A9093361A809358
:1009F000351A85E090E09093341A8093331A089565
:100A000068E272E08FEF9AE10C94FF29841B950B4A
:100A100006960D97E0F4621B730B6A5F7F4F6D3093
:100A20007105A8F48091371A9091381A0197909324
:100A3000381A8093371A6EE372E08FEF9AE10E94C2
:100A4000FF2968EC70E080E090E00C94CA270895DC
:100A5000CF93DF93CDB7DEB727970FB6F894DEBFFD
:100A60000FBECDBF6091371A7091381A4AE0CE019F
:100A700001960E947A2B40E050E060E070E08DE546
:100A80009AE10E94033761E08DE59AE10E940937FF
:100A900062E472E08DE59AE10E94D0296091371AF4
:100AA0007091381A4AE050E08DE59AE10E94B12A2F
:100AB000CE0101960E94BE2A27960FB6F894DEBF9B
:100AC0000FBECDBFDF91CF910895EF92FF920F93AC
:100AD0001F93CF93DF93EC017B01BA01A90100E0E2
:100AE00010E027E030E08DE59AE10E94D03300EE7F
:100AF0001FEF27E030E0A701BE018DE59AE10E94DB
:100B0000D033DF91CF911F910F91FF90EF90089517
:100B1000EF92FF920F931F93CF93DF93EC017B0132
:100B2000BA01A90100E010E027E030E08DE59AE18C
:100B30000E94D03300E018EF27E030E0A701BE01AB
:100B40008DE59AE10E94D033DF91CF911F910F91F3
:100B5000FF90EF900895EF92FF920F931F93CF9322
:100B6000DF93EC017B01BA01A90100E010E027E06E
:100B700030E08DE59AE10E94D0330FE118EF27E0D5
:100B800030E0A701BE018DE59AE10E94D033DF91EC
:100B9000CF911F910F91FF90EF900895EF92FF92E8
:100BA0000F931F93CF93DF93EC017B01BA01A9014F
:100BB00000E010E027E030E08DE59AE10E94D033BC
:100BC0000FEF17E027E030E0A701BE018DE59AE1C5
:100BD0000E94D033DF91CF911F910F91FF90EF9042
:100BE0000895EF92FF920F931F93CF93DF93EC0141
:100BF0007B01BA01A90100E010E027E030E08DE5BB
:100C00009AE10E94D03300E21DEF27E030E0A70117
:100C1000BE018DE59AE10E94D033DF91CF911F9103
:100C20000F91FF90EF900895EF92FF920F931F9313
:100C3000CF93DF93EC017B01BA01A90100E010E042
:100C400027E030E08DE59AE10E94D0330FEF1FEFEF
:100C500027E030E0A701BE018DE59AE10E94D03384
:100C6000DF91CF911F910F91FF90EF900895841B1A
:100C7000950B97FF08C08091351A9091361A91957F
:100C80008195910906C0892B41F08091351A909188
:100C9000361A90931E1A80931D1A621B730B77FFEE
:100CA00008C08091351A9091361A919581959109D5
:100CB00006C0672B41F08091351A9091361A9093B7
:100CC0001C1A80931B1A2091311A3091321A80918C
:100CD0001D1A90911E1A820F931F9093321A8093BF
:100CE000311A20912F1A3091301A80911B1A90914D
:100CF0001C1A820F931F9093301A80932F1A089515
:100D0000841B950B97FF08C08091351A9091361A75
:100D100091958195910906C0892B41F08091351AF2
:100D20009091361A90931A1A8093191A621B730BBA
:100D300077FF08C08091351A9091361A9195819568
:100D4000910906C0672B41F08091351A9091361AAF
:100D50009093181A8093171A20912D1A30912E1AF9
:100D60008091191A90911A1A820F931F90932E1A3C
:100D700080932D1A20912B1A30912C1A8091171ADA
:100D80009091181A820F931F90932C1A80932B1A0C
:100D90000895841B950B97FF08C08091351A909198
:100DA000361A91958195910906C0892B41F0809161
:100DB000351A9091361A9093161A8093151A621B61
:100DC000730B77FF08C08091351A9091361A919570
:100DD0008195910906C0672B41F08091351A909159
:100DE000361A9093141A8093131A2091291A30916D
:100DF0002A1A8091151A9091161A820F931F9093B8
:100E00002A1A8093291A2091271A3091281A809142
:100E1000131A9091141A820F931F9093281A80939B
:100E2000271A0895841B950B97FF08C08091351AE7
:100E30009091361A91958195910906C0892B41F0C0
:100E40008091351A9091361A9093121A8093111A44
:100E5000621B730B77FF08C08091351A9091361A88
:100E600091958195910906C0672B41F08091351AC3
:100E70009091361A9093101A80930F1A2091251A88
:100E80003091261A8091111A9091121A820F931F95
:100E90009093261A8093251A2091231A3091241AB0
:100EA00080910F1A9091101A820F931F9093241A19
:100EB0008093231A08952091211A3091221A80914B
:100EC000331A9091341A820F931F813F91052CF4AD
:100ED0009093221A8093211A08951092221A109248
:100EE000211A08952F923F924F925F926F927F92B4
:100EF0008F929F92AF92BF92CF92DF92EF92FF922A
:100F00000F931F93CF93DF9300D01F92CDB7DEB71F
:100F10008091311A9091321A9C838B8300912F1A01
:100F20001091301AA0902D1AB0902E1A80902B1A82
:100F300090902C1AE090291AF0902A1AC090271A43
:100F4000D090281A4090251A5090261A6090231AA3
:100F50007090241AE091211AF091221AFA83E98301
:100F600020901F1A3090201A6091431A7091441AF1
:100F70009801AC018091451A9091461A0E9437065B
:100F800060912F1A7091301A98014B815C81809189
:100F9000311A9091321A0E94880520912F1A3091AF
:100FA000301A4091311A5091321A6091431A70915F
:100FB000441A8091451A9091461A0E940605209184
:100FC0002B1A30912C1A40912D1A50912E1A6091A3
:100FD000431A7091441A8091451A9091461A0E94C2
:100FE000800660912B1A70912C1A9401A5018091B2
:100FF0002D1A90912E1A0E94AB0520912B1A309138
:101000002C1A40912D1A50912E1A6091431A70910A
:10101000441A8091451A9091461A0E940605209123
:10102000271A3091281A4091291A50912A1A609152
:10103000431A7091441A8091451A9091461A0E9461
:10104000C9066091271A7091281A9601A70180910C
:10105000291A90912A1A0E94CE052091271A3091C0
:10106000281A4091291A50912A1A6091431A7091B6
:10107000441A8091451A9091461A0E9406052091C3
:10108000231A3091241A4091251A5091261A609102
:10109000431A7091441A8091451A9091461A0E9401
:1010A00012076091231A7091241A9301A201809172
:1010B000251A9091261A0E94F1052091231A309149
:1010C000241A4091251A5091261A6091431A709162
:1010D000441A8091451A9091461A0E9406050E9472
:1010E0005B0760911F1A7091201A910149815A8102
:1010F0008091211A9091221A0E94140620911F1AA1
:101100003091201A4091211A5091221A6091431A6D
:101110007091441A8091451A9091461A0E940605D2
:1011200060912D1A70912E1A8091311A9091321A75
:10113000861B970B06960D9708F540912B1A509138
:101140002C1A80912F1A9091301A841B950B0696B9
:101150000D97A0F400E010E027E030E08DE59AE183
:101160000E94D03384E190E090932E1A80932D1A40
:101170008EE190E090932C1A80932B1A6091291A9B
:1011800070912A1A8091311A9091321A861B970B0E
:1011900006960D9708F54091271A5091281A8091CC
:1011A0002F1A9091301A841B950B06960D97A0F478
:1011B00000E010E027E030E08DE59AE10E94D033B6
:1011C0008CED90E090932A1A8093291A8EE190E09A
:1011D0009093281A8093271A6091251A7091261AE5
:1011E0008091311A9091321A861B970B06960D97B3
:1011F00008F54091231A5091241A80912F1A90914A
:10120000301A841B950B06960D97A0F400E010E0B1
:1012100027E030E08DE59AE10E94D03384E190E050
:101220009093261A8093251A8CE291E09093241AC9
:101230008093231A6091291A70912A1A80912D1A8D
:1012400090912E1A861B970B06960D9708F54091E4
:10125000271A5091281A80912B1A90912C1A841BCE
:10126000950B06960D97A0F400E010E027E030E023
:101270008DE59AE10E94D0338CED90E090932A1A8C
:101280008093291A8EE190E09093281A8093271A70
:101290006091251A7091261A80912D1A90912E1A1C
:1012A000861B970B06960D9708F54091231A5091CF
:1012B000241A80912B1A90912C1A841B950B069658
:1012C0000D97A0F400E010E027E030E08DE59AE112
:1012D0000E94D03384E190E09093261A8093251ADF
:1012E0008CE291E09093241A8093231A6091251A3E
:1012F0007091261A8091291A90912A1A861B970BB1
:1013000006960D9708F54091231A5091241A809162
:10131000271A9091281A841B950B06960D97A0F416
:1013200000E010E027E030E08DE59AE10E94D03344
:1013300084E190E09093261A8093251A8CE291E044
:101340009093241A8093231A0F900F900F900F9070
:10135000DF91CF911F910F91FF90EF90DF90CF9091
:10136000BF90AF909F908F907F906F905F904F90C5
:101370003F902F9008950F931F93CF93DF9386E3B1
:101380000E9452288C0187E30E945228EC0182E0DF
:101390000E9435294091451A5091461A2091431ACE
:1013A0003091441ACE01885C91408336910550F407
:1013B000073362E0160734F4043D81E018074CF06F
:1013C0000C94451D0833A2E01A071CF085E090E05C
:1013D00006C0033DE1E01E073CF48BEF9FEF9093C6
:1013E000401A80933F1A04C01092401A10923F1A7C
:1013F000CC3262E0D6071CF085E090E006C0C73C26
:1014000081E0D8073CF48BEF9FEF9093421A8093D2
:10141000411A04C01092421A1092411ACA01CD9783
:1014200087379105B0F4203F310599F43093441A81
:101430002093431A1092401A10923F1A942F852F2E
:10144000453B510514F094EB80E09093451A80934E
:10145000461A8091451A9091461AFC017597609141
:10146000431A7091441AB79788F46E30A1E07A0756
:1014700069F41092401A10923F1A8D33910514F0BE
:101480008CE390E09093461A8093451A8091451A18
:101490009091461AFC01E55BF109B79790F46E3024
:1014A000E1E07E0771F41092401A10923F1A8F30DB
:1014B000A1E09A0714F08EE091E09093461A809391
:1014C000451A8091451A9091461AFC01EB55F10995
:1014D000739788F46E30E1E07E0769F41092401A49
:1014E00010923F1A8F36910514F08EE690E090939B
:1014F000461A8093451A8091451A9091461AFC012C
:10150000E358F109739788F46E30A1E07A0769F423
:101510001092401A10923F1A8739910514F086E90B
:1015200090E09093461A8093451A8091451A9091C5
:10153000461AFC017597E731F14090F46C32E1E016
:101540007E0771F41092401A10923F1A8D32A1E07A
:101550009A0714F08CE291E09093461A8093451A12
:10156000603F710561F58091451A9091461AFC0122
:101570007597739770F41092401A10923F1A7093F7
:10158000441A6093431A89329105ACF088E290E0E6
:1015900012C0FC01E95CF109B79788F41092401A77
:1015A00010923F1A7093441A6093431A813F910539
:1015B00014F080EF90E09093461A8093451AE091E2
:1015C000431AF091441A8091451A9091461AE23DCF
:1015D000F10509F5BC01655171096935710550F4D2
:1015E0001092401A10923F1A8F36910534F18EE610
:1015F00090E023C0BC01635871096935710508F09A
:101600004EC01092401A10923F1A8D3D9105ACF0D9
:101610008CED90E012C0EA3BF105A1F4BC016B55E2
:1016200071096B337105D8F51092401A10923F1A68
:101630008739910514F086E990E09093461A8093DB
:10164000451A2DC0E03AF10551F5BC016150710910
:101650006935710570F41092401A10923F1A8B355B
:10166000910514F08AE590E09093461A8093451A0C
:1016700075C0BC01675971096935710508F06EC004
:101680001092401A10923F1ABC01813F910514F04C
:1016900060EF70E07093461A6093451A5FC08091C6
:1016A000451A9091461AE238F105A9F4BC016B5530
:1016B00071096B33710508F05FC01092401A1092E7
:1016C0003F1A8739910514F086E990E09093461A05
:1016D0008093451A51C0EE36F10509F03FC0BC01B8
:1016E0006B5571096331710508F453C0BC0163582F
:1016F00071096331710558F41092401A10923F1A23
:10170000873991050CF45EC086E990E05BC0BC01AE
:10171000655171096732710558F41092401A1092A0
:101720003F1A8D3391050CF44DC08CE390E04AC014
:10173000BC01655B71096732710508F047C0109202
:10174000401A10923F1ABC018D3D910514F06CEDCA
:1017500070E07093461A6093451A38C0E634F1057C
:1017600059F48091451A9091461ABC01655171094E
:10177000673C710558F51DC0EE31F10539F58091D2
:10178000451A9091461ABC01655171096935710578
:1017900050F41092401A10923F1A8F36910594F02F
:1017A0008EE690E00FC0BC01635871096935710580
:1017B00068F41092401A10923F1A8D3D910514F072
:1017C0008CED90E09093461A8093451A6091451AEB
:1017D0007091461ACF014F978F3E9105F0F46C330C
:1017E000710551F41092421A1092411ACF018F30B4
:1017F000E1E09E0774F00BC0643B710571F4109238
:10180000421A1092411ACF01EF30F14014F08EE0ED
:1018100091E09093441A8093431A8091431A9091D7
:10182000441AFC01EF50F1407D97E8F464317105F2
:1018300049F41092421A1092411A8D32E1E09E074B
:1018400074F00BC06C3D710571F41092421A109245
:10185000411A8D32A1E09A0714F08CE291E0909346
:10186000441A8093431A8091431A9091441AFC01C0
:10187000E15FF1097D97E8F46A35710549F410924A
:10188000421A1092411A8F30E1E09E0774F00BC0AB
:101890006639710571F41092421A1092411A8F3014
:1018A000A1E09A0714F08EE091E09093441A80939F
:1018B000431A8091431A9091441AFC01EF50F14071
:1018C0007D97E8F46E36710549F41092421A109231
:1018D000411A8D32E1E09E0774F00BC06238710549
:1018E00071F41092421A1092411A8D32A1E09A07B7
:1018F00014F08CE291E09093441A8093431A809103
:10190000431A9091441AFC01E15FF1097D97E8F4D4
:101910006832710549F41092421A1092411A8F30C0
:10192000E1E09E0774F00BC0683C710571F4109201
:10193000421A1092411A8F30A1E09A0714F08EE0FB
:1019400091E09093441A8093431A8091431A9091A6
:10195000441AFC01E35DF1097D97C8F46431710517
:1019600049F06C3D710531F06E36710519F0623841
:10197000710569F41092421A1092411A813F910543
:1019800014F080EF90E09093441A8093431A809172
:10199000431A9091441AFC01EB5BF1097797B8F474
:1019A0006A35710519F06639710589F41092421A89
:1019B0001092411A7093461A6093451A833D91051F
:1019C00014F082ED90E09093441A8093431A809132
:1019D000431A9091441ABC01615A71096931710529
:1019E00000F56091451A7091461A6A35710529F41F
:1019F0001092421A1092411A0BC06639710589F48F
:101A00001092421A1092411A7093461A6093451A26
:101A10008B3B910514F08AEB90E09093441A8093ED
:101A2000431A8091431A9091441ABC01635871097A
:101A30006D31710500F56091451A7091461A6A354D
:101A4000710529F41092421A1092411A0BC066399E
:101A5000710589F41092421A1092411A7093461A35
:101A60006093451A813A910514F080EA90E09093D2
:101A7000441A8093431A8091431A9091441ABC01EE
:101A80006F5671096331710500F56091451A7091C7
:101A9000461A6E36710529F41092421A1092411AB4
:101AA0000BC06238710589F41092421A1092411AE3
:101AB0007093461A6093451A8338910514F082E8B2
:101AC00090E09093441A8093431A8091431A909126
:101AD000441ABC016F5171096F34710530F5609182
:101AE000451A7091461A6431710529F41092421A10
:101AF0001092411A11C06C33710531F0643B7105CD
:101B000019F06C3D710589F41092421A1092411A35
:101B10007093461A6093451A8F36910514F08EE63D
:101B200090E09093441A8093431A8091431A9091C5
:101B3000441ABC016F5171096732710500F560915B
:101B4000451A7091461A6E36710529F41092421AA0
:101B50001092411A0BC06238710589F41092421A32
:101B60001092411A7093461A6093451A8734910572
:101B700014F086E490E09093441A8093431A809185
:101B8000431A9091441ABC01675471096732710578
:101B900000F56091451A7091461A6A35710529F46D
:101BA0001092421A1092411A0BC06639710589F4DD
:101BB0001092421A1092411A7093461A6093451A75
:101BC0008F36910514F08EE690E09093441A80933E
:101BD000431A6091451A7091461A8091431A909168
:101BE000441A6C33710549F5803F910531F5CC32CB
:101BF000E2E0DE0754F065E070E07093421A609313
:101C0000411A1092401A10923F1AB801635D714058
:101C10006536710550F06CE370E07093461A60937E
:101C2000451A1092421A1092411AC73C61E0D60739
:101C300024F41092421A1092411A6091451A709140
:101C4000461A643B710549F5803F910531F5CC3268
:101C5000A2E0DA0724F01092421A1092411AB80159
:101C6000635D71406536710550F064EB70E0709310
:101C7000461A6093451A1092421A1092411AC73CB4
:101C8000E1E0DE0754F46BEF7FEF7093421A60934C
:101C9000411A1092401A10923F1A6091451A7091A1
:101CA000461A6C337105E1F48E30914009F008C199
:101CB000CC3282E0D80724F01092421A1092411AD6
:101CC0000833A2E01A0724F01092401A10923F1A2B
:101CD000C73CE1E0DE070CF0F3C08EE091E0B2C05B
:101CE000643B710531F58E30914009F0BDC0CC32B6
:101CF000E2E0DE0754F085E090E09093421A809392
:101D0000411A1092401A10923F1A083382E01807C5
:101D100024F01092401A10923F1AC73CA1E0DA0753
:101D20000CF0A2C08EE091E09093441A8093431A85
:101D30005BC06431710509F05CC08E30914079F56B
:101D4000CC3282E0D80754F085E090E09093421ABC
:101D50008093411A1092401A10923F1A0833A2E061
:101D60001A073CF085E090E09093401A80933F1A68
:101D700008C0033DE1E01E0724F41092401A1092BF
:101D80003F1AC73C81E0D80754F48EE091E090936D
:101D9000441A8093431A1092421A1092411A809169
:101DA000431A9091441A8C32914009F05DC0CC32B4
:101DB000E2E0DE0754F085E090E09093421A8093D1
:101DC000411A1092401A10923F1A083382E0180705
:101DD00014F40C94D31A1092401A10923F1AC73C74
:101DE000E1E0DE070CF040C01092421A1092411A56
:101DF0003BC06C3D7105A9F58E30914011F40C94F7
:101E0000E21C8091431A9091441A8C32914009F05F
:101E100057C0CC3262E0D60724F01092421A1092DA
:101E2000411A083382E0180714F40C94151D10921F
:101E3000401A10923F1AC73C61E0D6070CF040C030
:101E40008CE291E09093441A8093431A8BEF9FEFBA
:101E50009093421A8093411A1092401A10923F1A9E
:101E60002FC06A35710539F16639710549F58091E0
:101E7000431A9091441A803F910511F5CC3282E0CB
:101E8000D8073CF01092401A10923F1A85E090E07B
:101E90000CC0C73CA1E0DA0714F00C94E11A1092D0
:101EA000401A10923F1A8BEF9FEF9093421A809343
:101EB000411A0C94E11A803F910511F40C94231DF2
:101EC0008091451A9091461A6091431A7091441A74
:101ED0008A359105C9F56E30E1E07E0709F094C0BE
:101EE000CC3282E0D8075CF01092401A10923F1A70
:101EF00085E090E09093421A8093411A0CC0C73C51
:101F0000A1E0DA0744F41092401A10923F1A10929E
:101F1000421A1092411A0833E2E01E072CF0109288
:101F2000401A10923F1A0BC0033D81E018070CF0D5
:101F30006BC08BEF9FEF9093401A80933F1A1092E3
:101F4000421A1092411A60C08639910549F56E30E7
:101F5000A1E07A0709F058C0C73CE1E0DE075CF475
:101F60001092401A10923F1A8BEF9FEF9093421AF3
:101F70008093411A0CC0CC3282E0D80744F0109212
:101F8000401A10923F1A1092421A1092411A0833C6
:101F9000A2E01A0724F6033DE1E01E0754F234C024
:101FA0008E36910589F56E3081E0780769F5C73C7A
:101FB000A1E0DA073CF48BEF9FEF9093421A8093F5
:101FC000411A08C0CC32E2E0DE0744F01092421A17
:101FD0001092411A1092401A10923F1A0833E2E010
:101FE0001E0714F40C94F91A8EE690E09093461AAA
:101FF0008093451A1092421A1092411A85E090E09F
:102000009093401A80933F1A8091451A9091461AF6
:102010008238910589F56E30A1E07A0769F5CC32F6
:10202000E2E0DE073CF085E090E09093421A809376
:10203000411A08C0C73C81E0D80744F41092421A04
:102040001092411A1092401A10923F1A083382E0FF
:10205000180714F40C94051B82E890E09093461A3C
:102060008093451A1092421A1092411A85E090E02E
:102070009093401A80933F1A8091451A9091461A86
:102080008E36910579F56C32E1E07E0759F5CC3258
:1020900082E0D8071CF085E090E006C0C73CA1E0D4
:1020A000DA0754F48BEF9FEF9093421A8093411A12
:1020B0001092401A10923F1A033DA1E01A0714F043
:1020C0000C94111B8EE690E09093461A8093451A6B
:1020D0001092421A1092411A8BEF9FEF9093401A80
:1020E00080933F1A8091451A9091461A8238910543
:1020F00079F56C3281E0780759F5CC32A2E0DA0745
:102100001CF085E090E006C0C73CE1E0DE0754F437
:102110008BEF9FEF9093421A8093411A1092401ACE
:1021200010923F1A033DE1E01E0714F00C941D1BB2
:1021300082E890E09093461A8093451A1092421AD2
:102140001092411A8BEF9FEF9093401A80933F1AA1
:102150008091451A9091461A889779F56E30A1E0E2
:102160007A0759F5CC32E2E0DE071CF085E090E01A
:1021700006C0C73C81E0D80754F48BEF9FEF9093E3
:10218000421A8093411A1092401A10923F1A033D4E
:1021900081E0180714F00C94291B88E290E09093DA
:1021A000461A8093451A1092421A1092411A8BEFE8
:1021B0009FEF9093401A80933F1A8091451A909117
:1021C000461A883C910579F56E30E1E07E0759F5B5
:1021D000CC3282E0D8071CF085E090E006C0C73C16
:1021E000A1E0DA0754F48BEF9FEF9093421A8093AB
:1021F000411A1092401A10923F1A033DA1E01A07AB
:1022000014F00C94351B88EC90E09093461A809360
:10221000451A1092421A1092411A8BEF9FEF909339
:10222000401A80933F1A8091451A9091461A8897D8
:10223000B9F5603F7105A1F5CC3282E0D8072CF0EA
:102240001092421A1092411A0AC0C73CA1E0DA0764
:1022500054F48BEF9FEF9093421A8093411A10929F
:10226000401A10923F1A033DE1E01E072CF4109231
:10227000401A10923F1A14C0083382E0180784F005
:1022800088E290E09093461A8093451A1092421A81
:102290001092411A85E090E09093401A80933F1A83
:1022A0008091451A9091461A883C9105B9F5603F96
:1022B0007105A1F5CC32A2E0DA073CF085E090E0B0
:1022C0009093421A8093411A08C0C73CE1E0DE07B0
:1022D00044F41092421A1092411A1092401A10922D
:1022E0003F1A033D81E018072CF41092401A109217
:1022F0003F1A14C00833A2E01A0784F088EC90E07B
:102300009093461A8093451A1092421A1092411ADD
:1023100085E090E09093401A80933F1A8091451A8F
:102320009091461A449781F5603F710569F5CC326A
:10233000E2E0DE073CF085E090E09093421A809363
:10234000411A08C0C73C81E0D80744F41092421AF1
:102350001092411A1092401A10923F1A033DE1E088
:102360001E0714F00C94411B84E190E09093461AF0
:102370008093451A8BEF9FEF9093401A80933F1AFA
:102380001092421A1092411A8091451A9091461A61
:102390008C3D910581F5603F710569F5C73CE1E031
:1023A000DE073CF48BEF9FEF9093421A8093411A23
:1023B00008C0CC3282E0D80744F01092421A109242
:1023C000411A1092401A10923F1A033D81E01807FB
:1023D00014F00C944D1B8CED90E09093461A809372
:1023E000451A8BEF9FEF9093401A80933F1A1092FB
:1023F000421A1092411A8091451A9091461A4497B8
:1024000081F5623D710569F5CC32E2E0DE073CF012
:1024100085E090E09093421A8093411A08C0C73C2F
:1024200081E0D80744F41092421A1092411A109297
:10243000401A10923F1A0833A2E01A0714F40C94C1
:10244000591B84E190E09093461A8093451A85E0E9
:1024500090E09093401A80933F1A1092421A109283
:10246000411A8091451A9091461A8C3D910581F54B
:10247000623D710569F5C73CE1E0DE073CF48BEF96
:102480009FEF9093421A8093411A08C0CC3282E0A9
:10249000D80744F01092421A1092411A1092401A32
:1024A00010923F1A0833E2E01E0714F40C94651BE7
:1024B0008CED90E09093461A8093451A85E090E069
:1024C0009093401A80933F1A1092421A1092411A28
:1024D0008091451A9091461A8E36910571F5603FAC
:1024E000710559F5C73CE1E0DE071CF48BEF9FEF67
:1024F00006C0CC3282E0D80754F085E090E090939B
:10250000421A8093411A1092401A10923F1A033DCA
:1025100081E0180714F00C94711B8EE690E0909304
:10252000461A8093451A8BEF9FEF9093401A809341
:102530003F1A1092421A1092411A8091451A9091B6
:10254000461A8238910571F5603F710559F5C73C0F
:10255000E1E0DE071CF48BEF9FEF06C0CC3282E097
:10256000D80754F085E090E09093421A8093411A86
:102570001092401A10923F1A033DA1E01A0714F07E
:102580000C947D1B82E890E09093461A8093451A44
:102590008BEF9FEF9093401A80933F1A1092421A4C
:1025A0001092411A8091451A9091461A8E369105E3
:1025B00081F5623D710569F5C73CE1E0DE073CF459
:1025C0008BEF9FEF9093421A8093411A08C0CC3250
:1025D00082E0D80744F01092421A1092411A1092E9
:1025E000401A10923F1A0833E2E01E0714F40C94CC
:1025F000891B8EE690E09093461A8093451A85E0F9
:1026000090E09093401A80933F1A1092421A1092D1
:10261000411A8091451A9091461A8238910581F5A8
:10262000623D710569F5CC32E2E0DE073CF085E001
:1026300090E09093421A8093411A08C0C73C81E011
:10264000D80744F41092421A1092411A1092401A7C
:1026500010923F1A083382E0180714F40C94951B6B
:1026600082E890E09093461A8093451A85E090E0C6
:102670009093401A80933F1A1092421A1092411A76
:102680008091451A9091461ACC9709F040C0615D3F
:10269000710963307105D8F5CC32E2E0DE074CF009
:1026A00082ED90E09093441A8093431A85E090E085
:1026B0000CC0C73C61E0D60784F482ED90E09093B3
:1026C000441A8093431A8BEF9FEF9093421A8093A2
:1026D000411A1092401A10923F1A0833A2E01A07CA
:1026E00014F00C94A11B033D81E0180784F48BEFD8
:1026F0009FEF9093401A80933F1A1092421A1092C3
:10270000411A8CE390E09093461A8093451A6091A9
:10271000451A7091461A8091431A9091441A643B6D
:10272000710589F5823D910571F5CC32A2E0DA0799
:102730001CF065E070E006C0C73CE1E0DE0754F441
:102740006BEF7FEF7093421A6093411A1092401A18
:1027500010923F1A0833E2E01E070CF0F6C7033D63
:1027600061E0160784F46BEF7FEF7093401A60937B
:102770003F1A1092421A1092411A64EB70E0709363
:10278000461A6093451A6091451A7091461A6A3547
:102790007105C9F5823D9105B1F5CC32A2E0DA07A9
:1027A0001CF065E070E006C0C73CE1E0DE0754F4D1
:1027B0006BEF7FEF7093421A6093411A1092401AA8
:1027C00010923F1A083362E016074CF01092401A3C
:1027D00010923F1A1092421A1092411A14C0033DEF
:1027E000A1E01A0784F46AE570E07093461A6093DA
:1027F000451A1092421A1092411A6BEF7FEF7093B4
:10280000401A60933F1A6091451A7091461A6639D2
:102810007105A9F5823D910591F5CC32E2E0DE0724
:102820001CF065E070E006C0C73C61E0D60754F4D8
:102830006BEF7FEF7093421A6093411A1092401A27
:1028400010923F1A0833A2E01A072CF01092421A95
:102850001092411A14C0033DE1E01E0784F466E9BA
:1028600070E07093461A6093451A1092421A1092C3
:10287000411A6BEF7FEF7093401A60933F1A60919B
:10288000451A7091461A6A35710551F58A3B9105D2
:1028900039F5CC3262E0D6075CF065E070E0709309
:1028A000421A6093411A1092401A10923F1A08C0BF
:1028B000C73CA1E0DA0724F41092421A1092411AA0
:1028C000B801635D71406536710550F06AE570E0EE
:1028D0007093461A6093451A1092421A1092411A48
:1028E0006091451A7091461A6639710551F58A3B17
:1028F000910539F5C73CE1E0DE075CF46BEF7FEF53
:102900007093421A6093411A1092401A10923F1A23
:1029100008C0CC3262E0D60724F01092421A10921E
:10292000411AB801635D71406536710550F066E982
:1029300070E07093461A6093451A1092421A1092F2
:10294000411A6091451A7091461A6A35710551F520
:10295000803A910539F5C73CA1E0DA075CF46BEFEA
:102960007FEF7093421A6093411A1092401A1092AE
:102970003F1A08C0CC32E2E0DE0724F01092421A7F
:102980001092411AB801635D71406536710550F0CF
:102990006AE570E07093461A6093451A1092421AE5
:1029A0001092411A6091451A7091461A6639710564
:1029B00051F5803A910539F5CC3262E0D6075CF0EA
:1029C00065E070E07093421A6093411A1092401AC9
:1029D00010923F1A08C0C73CA1E0DA0724F4109215
:1029E000421A1092411AB801635D71406536710553
:1029F00050F066E970E07093461A6093451A1092A1
:102A0000421A1092411A6091451A7091461A6C331D
:102A1000710569F5803A910551F5CC32E2E0DE07A7
:102A20001CF065E070E006C0C73C61E0D60754F4D6
:102A30006BEF7FEF7093421A6093411A1092401A25
:102A400010923F1A083362E016070CF481C66CE35B
:102A500070E07093461A6093451A65E070E07093D9
:102A6000401A60933F1A1092421A1092411A6091D4
:102A7000451A7091461A643B710569F5803A9105D3
:102A800051F5CC32E2E0DE071CF065E070E006C0F4
:102A9000C73C61E0D60754F46BEF7FEF7093421AA6
:102AA0006093411A1092401A10923F1A0833A2E024
:102AB0001A070CF463C664EB70E07093461A6093D7
:102AC000451A65E070E07093401A60933F1A1092C7
:102AD000421A1092411A6091451A7091461A672B5A
:102AE000C9F5803A9105B1F5CC32E2E0DE073CF061
:102AF00065E070E07093421A6093411A0EC0C73CC3
:102B000061E0D60774F41092421A1092411A60EFF5
:102B100070E07093461A6093451A1092401A109212
:102B20003F1A0833A2E01A074CF01092401A109294
:102B30003F1A1092421A1092411A0CC0033DE1E074
:102B40001E0744F41092421A1092411A1092401A31
:102B500010923F1A6091451A7091461A603F7105B4
:102B6000B9F5803A9105A1F5CC3262E0D6074CF078
:102B70001092461A1092451A1092421A1092411A57
:102B80000AC0C73CA1E0DA0754F46BEF7FEF709303
:102B9000421A6093411A1092401A10923F1A083359
:102BA000E2E01E074CF01092401A10923F1A109269
:102BB000421A1092411A0CC0033D61E0160744F41A
:102BC0001092421A1092411A1092401A10923F1A13
:102BD0006091451A7091461A6A35710579F5823807
:102BE000910561F5CC32A2E0DA0754F065E070E0BF
:102BF0007093421A6093411A1092401A10923F1A31
:102C00000833E2E01E0754F06AE570E07093461A5C
:102C10006093451A1092421A1092411AC73CE1E0A3
:102C2000DE0724F41092421A1092411A033D61E02B
:102C3000160724F41092401A10923F1A6091451A18
:102C40007091461A6639710579F58238910561F5FA
:102C5000C73CA1E0DA0754F46BEF7FEF7093421AA0
:102C60006093411A1092401A10923F1A083362E0A2
:102C7000160754F066E970E07093461A6093451A9F
:102C80001092421A1092411ACC32E2E0DE0724F090
:102C90001092421A1092411A033D61E0160724F483
:102CA0001092401A10923F1A6091451A7091461A7C
:102CB0006E36710511F582389105F9F4BE01675C35
:102CC00071406536710520F01092401A10923F1A3B
:102CD000033DA1E01A070CF067C56EE670E0709343
:102CE000461A6093451A6BEF7FEF7093401A60931A
:102CF0003F1A1092421A1092411A6091451A70912F
:102D0000461A6238710511F582389105F9F4BE0151
:102D1000675C71406536710520F01092401A109280
:102D20003F1A033DE1E01E070CF048C562E870E081
:102D30007093461A6093451A6BEF7FEF7093401AB9
:102D400060933F1A1092421A1092411A6091451AEC
:102D50007091461A6E36710549F58E36910531F53A
:102D6000C73C61E0D6072CF41092401A10923F1A2B
:102D700008C0CC32A2E0DA0724F01092421A109276
:102D8000411A083362E016070CF422C56EE670E0C3
:102D90007093461A6093451A65E070E07093401A8C
:102DA00060933F1A1092421A1092411A6091451A8C
:102DB0007091461A6238710549F58E36910531F5E4
:102DC000CC3262E0D6072CF01092401A10923F1AD3
:102DD00008C0C73CA1E0DA0724F41092421A10920E
:102DE000411A0833A2E01A070CF4FCC462E870E050
:102DF0007093461A6093451A65E070E07093401A2C
:102E000060933F1A1092421A1092411A6091451A2B
:102E10007091461A6A35710549F58E36910531F57E
:102E2000CC3262E0D6072CF01092401A10923F1A72
:102E300008C0C73CA1E0DA0724F41092421A1092AD
:102E4000411A033DE1E01E070CF0D6C46AE570E0CC
:102E50007093461A6093451A6BEF7FEF7093401A98
:102E600060933F1A1092421A1092411A6091451ACB
:102E70007091461A6639710549F58E36910531F51E
:102E8000C73C61E0D6072CF41092401A10923F1A0A
:102E900008C0CC32A2E0DA0724F01092421A109255
:102EA000411A033D61E016070CF0B0C466E970E01A
:102EB0007093461A6093451A6BEF7FEF7093401A38
:102EC00060933F1A1092421A1092411A6091451A6B
:102ED0007091461A6431710549F58E36910531F5C8
:102EE000CC3262E0D6072CF01092401A10923F1AB2
:102EF00008C0C73CA1E0DA0724F41092421A1092ED
:102F0000411A033DA1E01A070CF08AC464E170E0A5
:102F10007093461A6093451A6BEF7FEF7093401AD7
:102F200060933F1A1092421A1092411A6091451A0A
:102F30007091461A6C3D710549F58E36910531F553
:102F4000C73C61E0D6072CF41092401A10923F1A49
:102F500008C0CC32A2E0DA0724F01092421A109294
:102F6000411A033DE1E01E070CF064C46CED70E013
:102F70007093461A6093451A6BEF7FEF7093401A77
:102F800060933F1A1092421A1092411A6091451AAA
:102F90007091461A6C33710551F58E36910539F5ED
:102FA000C73C61E0D6075CF46BEF7FEF7093421A89
:102FB0006093411A1092401A10923F1A08C0CC3206
:102FC000A2E0DA0724F01092421A1092411AB801D6
:102FD000635D71406536710550F06CE370E070938D
:102FE000461A6093451A1092421A1092411A609143
:102FF000451A7091461A643B710551F58E3691055C
:1030000039F5CC32E2E0DE075CF065E070E0709309
:10301000421A6093411A1092401A10923F1A08C047
:10302000C73C61E0D60724F41092421A1092411A6C
:10303000B801635D71406536710550F064EB70E076
:103040007093461A6093451A1092421A1092411AD0
:103050006091451A7091461A6431710551F58634B4
:10306000910539F5CC32A2E0DA075CF065E070E05A
:103070007093421A6093411A1092401A10923F1AAC
:1030800008C0C73CE1E0DE0724F41092421A109217
:10309000411AB801635D71406536710550F064E115
:1030A00070E07093461A6093451A1092421A10927B
:1030B000411A6091451A7091461A6C3D710551F59F
:1030C0008634910539F5C73C61E0D6075CF46BEFB7
:1030D0007FEF7093421A6093411A1092401A109237
:1030E0003F1A08C0CC32A2E0DA0724F01092421A4C
:1030F0001092411AB801635D71406536710550F058
:103100006CED70E07093461A6093451A1092421A63
:103110001092411A6091451A7091461A6C337105EC
:1031200021F06A357105D1F41DC086349105B1F4E2
:103130000833E2E01E071CF0E5E0F0E006C0033DC6
:10314000A1E01A0754F5EBEFFFEFF093401AE0937C
:103150003F1A1092421A1092411A1FC06E36710522
:1031600089F534C08634910569F5083382E0180783
:103170005CF085E090E09093401A80933F1A1092A3
:10318000421A1092411A3DC0033DA1E01A07CCF546
:103190001092401A10923F1A34C0CC32A2E0DA07E3
:1031A0000CF452C386E490E09093441A8093431A3F
:1031B00085E090E09093421A8093411A1092401A51
:1031C00010923F1A6238710589F534C08634910532
:1031D00069F5033D81E018075CF48BEF9FEF909356
:1031E000401A80933F1A1092421A1092411A41C01D
:1031F0000833A2E01A07ECF11092401A10923F1A1D
:1032000038C0CC32E2E0DE070CF42CC386E490E058
:103210009093441A8093431A85E090E09093421A69
:103220008093411A1092401A10923F1A6639710524
:10323000A9F538C08091431A9091441A86349105BB
:1032400069F5033D81E018075CF48BEF9FEF9093E5
:10325000401A80933F1A1092421A1092411A42C0AB
:103260000833A2E01A07F4F11092401A10923F1AA4
:1032700039C0CC3282E0D8070CF402C386E490E077
:103280009093441A8093431A85E090E09093421AF9
:103290008093411A1092401A10923F1A643B7105B4
:1032A000B1F53AC08091431A9091441A8634910541
:1032B00071F5083382E018075CF085E090E09093A8
:1032C000401A80933F1A1092421A1092411AF4C287
:1032D000033DA1E01A070CF0EFC21092401A1092C1
:1032E0003F1AEAC2CC32A2E0DA070CF4D7C286E475
:1032F00090E09093441A8093431A85E090E0909375
:10330000421A8093411A1092401A10923F1A643167
:10331000710509F041C01DC08091431A9091441A73
:1033200086349105C9F5083362E016071CF085E084
:1033300090E006C0033D81E0180724F58BEF9FEF76
:103340009093401A80933F1A1092421A1092411A99
:1033500019C08091431A9091441A4E97E9F4CC32E7
:10336000E2E0DE072CF01092401A10923F1ACDC214
:10337000C73C61E0D6070CF0C8C21092421A109206
:10338000411AC3C2CC3262E0D6070CF09EC2C73CE1
:10339000A1E0DA070CF4A2C28091451A9091461A76
:1033A0006091431A7091441A8C33910521F0843B4B
:1033B000910529F528C06E31710509F50833A2E0A1
:1033C0001A075CF0E5E0F0E0F093401AE0933F1A52
:1033D0001092421A1092411A08C0033DE1E01E0704
:1033E00024F41092401A10923F1ACC32A2E0DA076D
:1033F0000CF0A0C2C73CA1E0DA070CF4A4C28C3DDB
:103400009105E1F51BC06E317105C1F50833E2E0AD
:103410001E075CF085E090E09093401A80933F1A7D
:103420001092421A1092411A1FC0033D61E0160724
:10343000DCF41092401A10923F1A16C06E317105DA
:10344000E9F4C73CA1E0DA072CF41092401A10927C
:103450003F1A90C2CC32E2E0DE070CF48BC210922D
:10346000421A1092411A86C2CC32E2E0DE070CF01A
:1034700061C2C73C81E0D8070CF465C28091451A4F
:103480009091461AE091431AF091441A8E369105B4
:1034900049F5EE31F10531F5C73C81E0D8072CF450
:1034A0001092401A10923F1A08C0CC32A2E0DA07FC
:1034B00024F01092421A1092411A083382E0180741
:1034C0000CF46DC28EE690E09093461A8093451AF4
:1034D00085E090E09093401A80933F1A1092421A30
:1034E0001092411A8091451A9091461A823891059E
:1034F00041F5EE31F10529F5CC3282E0D8072CF008
:103500001092401A10923F1A07C0C73CD14024F4D1
:103510001092421A1092411A0833A2E01A070CF4D2
:1035200048C282E890E09093461A8093451A85E05D
:1035300090E09093401A80933F1A1092421A109292
:10354000411A6091451A7091461A8091411A9091E2
:10355000421A860F971F9093461A8093451A6091DE
:103560003F1A7091401A6E0F7F1F7093441A609338
:10357000431A1092421A1092411A1092401A109255
:103580003F1A8417950719F46217730711F00E9408
:1035900065056AE070E080E090E0DF91CF911F91D7
:1035A0000F910C94CA27033DA1E01A0714F00C9464
:1035B000EF0E8BEF9FEF9093401A80933F1A0C947D
:1035C000EF0E0833A2E01A0714F40C94600F86E99A
:1035D00090E09093461A8093451A1092421A1092E6
:1035E000411A85E090E09093401A80933F1A0C9422
:1035F000600F033D81E0180714F00C940410109242
:10360000401A10923F1A0C940410033DA1E01A07CF
:1036100014F00C943C101092401A10923F1A0C9423
:103620003C100833E2E01E0714F40C947210109260
:10363000401A10923F1A0C947210083382E0180757
:1036400014F40C94A8101092401A10923F1A0C9483
:10365000A8100833A2E01A0714F40C94DD1010929D
:10366000401A10923F1A0C94DD100833E2E01E0756
:1036700014F40C9413111092401A10923F1A0C94E7
:1036800013110833A2E01A0714F40C94C411109219
:10369000401A10923F1A0C94C4110833A2E01A0782
:1036A00014F40C94FB111092401A10923F1A0C94CF
:1036B000FB11033DA1E01A0714F00C943112109293
:1036C000401A10923F1A0C943112033DA1E01A07E0
:1036D00014F00C9468121092401A10923F1A0C9435
:1036E00068120833A2E01A0714F40C949D12109289
:1036F000401A10923F1A0C949D120833A2E01A0748
:1037000014F40C94D2121092401A10923F1A0C9496
:10371000D212033DA1E01A0714F00C940913109281
:10372000401A10923F1A0C940913033DA1E01A07A6
:1037300014F00C9440131092401A10923F1A0C94FB
:10374000401385E090E00C94791365E070E00DC8BB
:10375000033DA1E01A070CF08AC96CE370E0709396
:10376000461A6093451A1092421A1092411A6BEF52
:103770007FEF7093401A60933F1A79C9033DA1E02F
:103780001A070CF0A8C964EB70E07093461A6093B6
:10379000451A1092421A1092411A6BEF7FEF709304
:1037A000401A60933F1A97C90833A2E01A070CF435
:1037B000A4CA1092401A10923F1A9FCA0833E2E03E
:1037C0001E070CF4C3CA1092401A10923F1ABECAC8
:1037D000033DE1E01E070CF0E9CA1092401A109276
:1037E0003F1AE4CA033DE1E01E070CF00FCB109234
:1037F000401A10923F1A0ACB0833E2E01E070CF47D
:1038000035CB1092401A10923F1A30CB0833E2E0C9
:103810001E070CF45BCB1092401A10923F1A56CB45
:103820000833E2E01E070CF481CB1092401A10928C
:103830003F1A7CCB0833E2E01E070CF4A7CB1092B2
:10384000401A10923F1AA2CBC73CE1E0DE070CF011
:1038500085CC86E490E09093441A8093431A8BEFD2
:103860009FEFA8CCC73CE1E0DE070CF0ABCC86E4D0
:1038700090E09093441A8093431A8BEF9FEFCECC45
:10388000C73CE1E0DE070CF0D1CC86E490E09093F9
:10389000441A8093431A8BEF9FEFF8CCC73CE1E0CA
:1038A000DE070CF0FBCC86E490E09093441A809302
:1038B000431A8BEF9FEF23CDCC32E2E0DE072CF4EE
:1038C000C73CE1E0DE0754F022CD86E490E090931F
:1038D000441A8093431A85E090E008C086E490E0A3
:1038E0009093441A8093431A8BEF9FEF9093421A60
:1038F0008093411A05C0033D81E018070CF04CCDC0
:103900001092401A10923F1A47CD083382E01807F0
:1039100094F384E190E09093461A8093451A85E0F1
:1039200090E09093401A80933F1A1092421A10929E
:10393000411A32CD8EE190E09093441A8093431A5D
:1039400085E090E008C08EE190E09093441A809367
:10395000431A8BEF9FEF9093421A8093411A05C050
:10396000033D61E016070CF089CD1092401A1092C9
:103970003F1A84CD083362E0160794F38CED90E093
:103980009093461A8093451A85E090E09093401AF0
:1039900080933F1A1092421A1092411A6FCD033D44
:1039A00061E016070CF09ECD1092401A10923F1A5B
:1039B00099CD033D11400CF0C4CD1092401A1092E5
:1039C0003F1ABFCDCC32E2E0DE0724F01092421A5B
:1039D0001092411A083362E016073CF085E090E04F
:1039E0009093401A80933F1A08C0033D81E0180766
:1039F00024F41092401A10923F1AC73CA1E0DA0753
:103A000014F00C94010F8EE091E09093441A80938F
:103A1000431A8BEF9FEF9093421A8093411A1092B2
:103A2000401A10923F1A0C94010F033DA1E01A07AF
:103A300014F00C941B0F8BEF9FEF9093401A809320
:103A40003F1A0C941B0FCC32E2E0DE073CF01092E0
:103A5000401A10923F1A85E090E00AC0C73C61E02E
:103A6000D60754F41092401A10923F1A8BEF9FEF32
:103A70009093421A8093411A083382E0180714F495
:103A80000C94600F8AE590E0A4CDDF91CF911F9157
:103A90000F910895EF92FF920F93CF93DF932FEF43
:103AA00049E06AE08DE59AE10E944B388CE2E82E0D
:103AB000FF24F39405E029E348E364E089E49AE114
:103AC0000E94303DC9ECD3E066E273E0CE010E9473
:103AD0002C2B299687E0CD34D807B1F7C4EBD3E07F
:103AE00066E273E0CE010E942C2B279683E0C93C4E
:103AF000D807B1F7DF91CF910F91FF90EF90089524
:103B0000CF93DF9382EC93E00E94BE2A8BEB93E08D
:103B10000E94BE2A84EB93E00E94BE2ACDE4D7E047
:103B20002997CE010E94BE2A83E0C93CD807C1F77D
:103B3000DF91CF910895EF92FF920F931F93EE24A0
:103B4000EA94FE2C00EF10E024EB30E040EF50E070
:103B50006CE370E08DE59AE10E94F0310EE011E037
:103B60002CE330E040EF50E06CE370E08DE59AE14B
:103B70000E94F03124EB30E040EF50E064EB70E065
:103B80008DE59AE10E94F03124E130E04EE051E011
:103B90006CE370E08DE59AE10E94F0312CED30E0AD
:103BA0004EE051E064EB70E08DE59AE10E94F03167
:103BB0000CE211E024E130E04EE051E064E170E01D
:103BC0008DE59AE10E94F0312CED30E04EE051E0BD
:103BD0006CED70E08DE59AE10E94F0312CED30E063
:103BE0004CE251E064E170E08DE59AE10E94F03131
:103BF0000EE011E02AE530E040EF50E06AE570E0C9
:103C00008DE59AE10E94F03126E930E040EF50E086
:103C100066E970E08DE59AE10E94F0312EE630E031
:103C20004EE051E06AE570E08DE59AE10E94F031E6
:103C300022E830E04EE051E066E970E08DE59AE17F
:103C40000E94F0310CE211E02EE630E04EE051E04F
:103C50006EE670E08DE59AE10E94F03122E830E0F6
:103C60004EE051E062E870E08DE59AE10E94F031AB
:103C700002ED10E02EE630E040EF50E06EE670E03E
:103C80008DE59AE10E94F03122E830E040EF50E00B
:103C900062E870E08DE59AE10E94F03124E130E0C5
:103CA00042ED50E06EE670E08DE59AE10E94F03161
:103CB0002CED30E042ED50E062E870E08DE59AE1F5
:103CC0000E94F03100EF10E024E130E042ED50E0DE
:103CD00064E170E08DE59AE10E94F0312CED30E076
:103CE00042ED50E06CED70E08DE59AE10E94F0311C
:103CF00028E230E040EF50E064E170E08DE59AE1C9
:103D00000E94F03128EC30E040EF50E06CED70E0C4
:103D10008DE59AE10E94F0310EE011E028E230E0FA
:103D200040EF50E068E270E08DE59AE10E94F031EA
:103D300028EC30E040EF50E068EC70E08DE59AE16F
:103D40000E94F0310EE110E02CE330E040EF50E053
:103D50006CE370E08DE59AE10E94F03124EB30E0F5
:103D600040EF50E064EB70E08DE59AE10E94F031A5
:103D70002EE630E04EE150E064E170E08DE59AE13E
:103D80000E94F0312CED30E04EE150E062E870E04E
:103D90008DE59AE10E94F03106E410E02EE630E075
:103DA0004EE150E06EE670E08DE59AE10E94F03160
:103DB00022E830E04EE150E062E870E08DE59AE103
:103DC0000E94F0310EE610E024E130E04EE150E0D8
:103DD00064E170E08DE59AE10E94F0312CED30E075
:103DE0004EE150E06CED70E08DE59AE10E94F0311B
:103DF00006E410E02CED30E046E450E064E170E0D1
:103E00008DE59AE10E94F0310EE610E02CE330E0FF
:103E10004EE650E064E170E08DE59AE10E94F031F9
:103E20002CED30E04EE650E064EB70E08DE59AE179
:103E30000E94F0312AE530E046E450E06AE570E0A7
:103E40008DE59AE10E94F03126E930E046E450E049
:103E500066E970E08DE59AE10E94F0312EE630E0EF
:103E60004EE650E06AE570E08DE59AE10E94F0319F
:103E700026E930E04EE650E062E870E08DE59AE138
:103E80000E94F03190EEE92EFF24FA9400EA10E04F
:103E90002AE530E040EA50E060E070E08DE59AE12C
:103EA0000E94F03120EF30E040EA50E066E970E037
:103EB0008DE59AE10E94F03102ED10E02AE530E054
:103EC00042E850E06AE570E08DE59AE10E94F03149
:103ED00026E930E042E850E066E970E08DE59AE1DD
:103EE0000E94F03102E810E026E930E042E850E0BC
:103EF0006AE570E08DE59AE10E94F0312EE630E04F
:103F00004EE650E06EE670E08DE59AE10E94F031F9
:103F100022E830E04EE650E062E870E08DE59AE19C
:103F20000E94F0310AEB10E026E930E04AEB50E065
:103F30006AE570E08DE59AE10E94F0311F910F91E2
:103F4000FF90EF9008958091020281110E94720704
:103F50000E949B1D6AE070E080E090E00C94CA270C
:103F60002F923F924F925F926F927F928F929F9289
:103F7000AF92BF92CF92DF92EF92FF920F931F9377
:103F8000CF93DF93CDB7DEB7A4970FB6F894DEBF1B
:103F90000FBECDBF82E00E9435298C0186E30E94CE
:103FA00052287C0187E30E9452282091391A3091CF
:103FB0003A1A2130310509F075C020914D07309132
:103FC0004E07283C31050CF06DC0875C914085366A
:103FD000910548F483EDE81A81E0F80A95E6E916C0
:103FE000F10408F45FC06CE472E08FEF9AE10E9484
:103FF000D02980914D0790914E0728E1289FF0012C
:10400000299FF00D1124E15BF84F2091451A309162
:10401000461A318320832091431A3091441A338306
:1040200022832091311A3091321A358324832091D2
:104030002F1A3091301A3783268320912D1A309110
:104040002E1A3187208720912B1A30912C1A338712
:1040500022872091291A30912A1A358724872091A6
:10406000271A3091281A378726872091251A3091F0
:10407000261A318B208B2091231A3091241A338BEE
:10408000228B2091211A3091221A358B248B20917A
:104090001F1A3091201A378B268B019690934E076A
:1040A00080934D078091391A90913A1A009779F4CC
:1040B000012B89F466E572E08FEF9AE10E94FF29F7
:1040C00081E090E090933A1A8093391A65C1019784
:1040D00011F4012B41F080914D0790914E07873CE0
:1040E000910509F077C160E672E08FEF9AE10E94D6
:1040F000FF2910923A1A1092391A05E010E06FE683
:1041000072E08FEF9AE10E94D0294AE050E0B801B6
:104110008FEF9AE10E94B12A63E872E08FEF9AE193
:104120000E94FF290150110968EE73E080E090E0E1
:104130000E94CA270115110511F7E0904D07F09074
:104140004E0788E18E9D90018F9D300D1124F9015D
:10415000E15BF84FFCA3EBA3F7FCB4C0EBA1FCA11F
:104160008080918062807380448055802680378073
:10417000F085F983EBA1FCA1F185FA83EBA1FCA109
:10418000F285FB83EBA1FCA1F385FC83EBA1FCA1F1
:10419000F485FD83EBA1FCA1F585FE83EBA1FCA1D9
:1041A000F685FF83EBA1FCA1F785F887EBA1FCA1C5
:1041B000F089F987EBA1FCA1F189FA87EBA1FCA1B9
:1041C000F289FB87EBA1FCA1F389FC87EBA1FCA1A1
:1041D000F489FD87EBA1FCA1F589FE87EBA1FCA189
:1041E000068917898C149D0419F46A147B04A9F1BB
:1041F0009501A601B301C4010E94650529893A8988
:104200004F855889B101C2010E9488052D893E89D8
:104210004B895C896B817C8189819A810E94AB0585
:10422000298D3A8D4F89588D6F8178858D819E813A
:104230000E94CE052D8D3E8D4B8D5C8D6B857C85D2
:1042400089859A850E94F10529A13AA14F8D58A12F
:10425000B8018D859E850E9414060E949B1D69E110
:1042600070E080E090E00E94CA27F1E0EF1AF108C8
:104270008BA19CA148979CA38BA309A31AA39D85FE
:104280009F8FEE85E8A3FB85FD8F8C858E8F9985AA
:104290009B8FEA85EC8FFF81F98F88858A8F9D81BE
:1042A0009F8BEE81E88FFB81FD8B8C818E8B9981BA
:1042B0009B8BEA81EC8B298A3A8A4F86588A530174
:1042C00064014ACF10924E0710924D0780914F071C
:1042D000909150079093461A8093451A8091510708
:1042E000909152079093441A8093431A80915307F8
:1042F000909154079093321A8093311A8091550708
:10430000909156079093301A80932F1A80915707F7
:104310009091580790932E1A80932D1A80915907E7
:1043200090915A0790932C1A80932B1A80915B07D7
:1043300090915C0790932A1A8093291A80915D07C7
:1043400090915E079093281A8093271A80915F07B7
:10435000909160079093261A8093251A80916107A7
:10436000909162079093241A8093231A8091630797
:10437000909164079093221A8093211A8091650787
:10438000909166079093201A80931F1A60E972E05B
:104390008FEF9AE10E94FF2964EF71E080E090E0E6
:1043A000A4960FB6F894DEBF0FBECDBFDF91CF91BC
:1043B0001F910F91FF90EF90DF90CF90BF90AF9043
:1043C0009F908F907F906F905F904F903F902F9035
:1043D0000C94CA27A4960FB6F894DEBF0FBECDBFCB
:1043E000DF91CF911F910F91FF90EF90DF90CF90D1
:1043F000BF90AF909F908F907F906F905F904F9005
:104400003F902F9008950E94F02740E855E260E029
:1044100070E08FEF9AE10E946C2E8FEF9AE10E947C
:104420003D2C62E082E00E94C92840E050E0BA01E1
:104430008DE59AE10C940C39CF92DF92EF92FF92C6
:104440000F931F93CF93DF9360E070E08DE59AE1C7
:104450000E94D23165E972E08FEF9AE10E94FF2954
:1044600040E060E070E080E090E00E94470410E0EF
:1044700000E0C0E0D0E086E30E9452287C0182E0A8
:104480000E9435296C0180E4E81682E0F8063CF0D1
:104490002196C330D10564F0C0E0D0E009C081ECC2
:1044A000E81681E0F80664F4219710F4C2E0D0E049
:1044B00040E0612F702FCE010E9447041C2F0D2F6A
:1044C000CD2831F4CE010E94CB04FF24F39401C027
:1044D000F12C64E670E080E090E00E94CA27FF20A3
:1044E00051F2DF91CF911F910F91FF90EF90DF90EC
:1044F000CF9008950F931F93CF93DF93EC018B011F
:1045000060E070E08DE59AE10E94D2314AE0B801A6
:10451000CE010E947A2B40E550E06AE070E08DE524
:104520009AE10E94033762E08DE59AE10E94093723
:104530004FEF5FEF60E070E08DE59AE10E940F378A
:104540006EE972E08DE59AE10E94D029BE018DE509
:104550009AE10E94ED29CE01DF91CF911F910F9139
:104560000895CF92DF92EF92FF920F931F93CF9314
:10457000DF93CDB7DEB72E970FB6F894DEBF0FBE30
:10458000CDBF6C0160E070E08DE59AE10E94D23110
:1045900040E050E060E070E08DE59AE10E94033772
:1045A00061E08DE59AE10E94093740E050E06FEF4D
:1045B0007FEF8DE59AE10E940F376BEA72E08DE59F
:1045C0009AE10E94FF2989ECE82E83E0F82E00E0B2
:1045D00010E081E0C81AD1080C151D05DCF50F5F4D
:1045E0001F4F4AE0B801CE0108960E947A2BBE0107
:1045F000685F7F4F8DE59AE10E949B2962ED72E032
:104600008DE59AE10E94D029B7018DE59AE10E94DB
:104610009B2962ED72E08DE59AE10E94D029F701B5
:10462000678170854AE0CE0101960E94A72BBE01EA
:104630006F5F7F4F8DE59AE10E94ED29CE010196D3
:104640000E94BE2ACE0108960E94BE2AF9E0EF0E13
:10465000F11CC2CF2E960FB6F894DEBF0FBECDBFB1
:10466000DF91CF911F910F91FF90EF90DF90CF904E
:104670000895EF92FF920F931F9360E070E08DE535
:104680009AE10E94D23140E550E06AE070E08DE5A9
:104690009AE10E94033764E08DE59AE10E940937B0
:1046A00040EE5FEF60E070E08DE59AE10E940F3729
:1046B0006EED72E08DE59AE10E94FF29E12C88EF12
:1046C000F82E02E110E023E130E047EC50E06CE32B
:1046D00070E08DE59AE10E94F4370EE010E021E1F0
:1046E00030E046EC50E06DE370E08DE59AE10E9429
:1046F000F437EE24EA94FE2C07E010E026E030E0E8
:1047000047EC50E06FE370E08DE59AE10E94F437EA
:1047100026E030E047EC50E065E470E08DE59AE19A
:104720000E94F437E12CF12C04E010E024E030E0AA
:1047300048EC50E061E470E08DE59AE10E94F437C6
:1047400024E030E048EC50E067E470E08DE59AE169
:104750000E94F437EE24EA9427E0F22E02E110E002
:1047600023E130E047EC50E06AE570E08DE59AE146
:104770000E94F4370EE010E021E130E046EC50E01A
:104780006BE570E08DE59AE10E94F437EE24EA943F
:10479000FE2C07E010E026E030E047EC50E06DE54D
:1047A00070E08DE59AE10E94F43726E030E047ECB6
:1047B00050E063E670E08DE59AE10E94F437E12C69
:1047C000F12C04E010E024E030E048EC50E06FE52C
:1047D00070E08DE59AE10E94F43724E030E048EC87
:1047E00050E065E670E08DE59AE10E94F4374FE114
:1047F000E42E48EFF42E02E110E023E130E047EC34
:1048000050E068E770E08DE59AE10E94F4370EE031
:1048100010E021E130E046EC50E069E770E08DE522
:104820009AE10E94F437EE24EA94FE2C07E010E0AF
:1048300026E030E047EC50E06BE770E08DE59AE170
:104840000E94F43726E030E047EC50E061E870E089
:104850008DE59AE10E94F437E12CF12C04E010E0A0
:1048600024E030E048EC50E06DE770E08DE59AE13F
:104870000E94F43724E030E048EC50E063E870E058
:104880008DE59AE10E94F43760E2E62E6DEFF62E98
:1048900002E110E023E130E047EC50E066E970E02F
:1048A0008DE59AE10E94F4370EE010E021E130E05E
:1048B00046EC50E067E970E08DE59AE10E94F4373C
:1048C000EE24EA94FE2C07E010E026E030E047EC0E
:1048D00050E069E970E08DE59AE10E94F43726E046
:1048E00030E047EC50E06FE970E08DE59AE10E941E
:1048F000F437E12CF12C04E010E024E030E048EC47
:1049000050E06BE970E08DE59AE10E94F43724E015
:1049100030E048EC50E061EA70E08DE59AE10E94F9
:10492000F43700EE1FEF29E030E04FEC50E060EC90
:1049300070E08DE59AE10E94D03348E151E068E2F1
:1049400070E08DE59AE10E94033761E08DE59AE120
:104950000E94093740E050E060EE7FEF8DE59AE17C
:104960000E940F3768EE72E08DE59AE10E94FF2900
:1049700064E073E08FEF9AE10E94FF2982E00E94D9
:104980003529892BD9F765E173E08FEF9AE11F9103
:104990000F91FF90EF900C94FF29EF92FF920F93ED
:1049A0001F93CF93DF9360E070E08DE59AE10E9462
:1049B000D231C8E7D0E0D093461AC093451A80EFB1
:1049C00090E09093441A8093431A00EE1FEF27E083
:1049D00030E040EF50E068E770E08DE59AE10E943A
:1049E000D0338FE1E82EF12C04E010E020EF30E02E
:1049F00046E351E060E070E08DE59AE10E94F43713
:104A000020EF30E04AE050E060E070E08DE59AE1B0
:104A10000E94F4370EE110E023E030E04AE050E07D
:104A200060E070E08DE59AE10E94F4370E949B1DE2
:104A300061E08DE59AE10E94093760E08DE59AE139
:104A40000E94153780910202882309F47CC080EA15
:104A500090E09093321A8093311A28EC30E0309332
:104A6000301A20932F1AD0932E1AC0932D1A3093F8
:104A70002C1A20932B1A24E630E030932A1A209324
:104A8000291A46E450E05093281A4093271A90932D
:104A9000261A8093251A3093241A2093231A1092F1
:104AA000221A1092211A9093201A80931F1A00E064
:104AB00018EF27E030E048EC50E060EA70E08DE568
:104AC0009AE10E94D03340912B1A50912C1A609198
:104AD0002D1A70912E1A0FE118EF27E030E08DE5C6
:104AE0009AE10E94D0334091271A5091281A609180
:104AF000291A70912A1A0FEF17E027E030E08DE5B0
:104B00009AE10E94D0334091231A5091241A609167
:104B1000251A7091261A00E21DEF27E030E08DE59E
:104B20009AE10E94D03340911F1A5091201A60914F
:104B3000211A7091221A0FEF1FEF27E030E08DE568
:104B40009AE10E94D033DF91CF911F910F91FF9096
:104B5000EF900895CF92DF92EF92FF920F931F9301
:104B6000CF93DF93CDB7DEB7C250D2400FB6F894E3
:104B7000DEBF0FBECDBF8E010F5F1F4F68017601F4
:104B8000E01AF10A8FEF9AE10E94F12B892BD1F301
:104B90008FEF9AE10E941D2CF60181936F018A30FC
:104BA00071F7F801EE0DFF1D10826CED72E0C80187
:104BB0000E941E40FC0180818E3479F56CED72E01C
:104BC00080E090E00E941E40BC01CE018B509E4FC1
:104BD0000E942C2BCE018B509E4F0E94E52B709390
:104BE0000102609300028FEF9AE10E943D2C64E283
:104BF00073E08FEF9AE10E94D02948EE53E060E025
:104C000070E08FEF9AE10E94B82A8FEF9AE10E943C
:104C10003D2CCE018B509E4F67C0873509F067C091
:104C20006CED72E080E090E00E941E40BC01CE017D
:104C300084509E4F0E942C2B6CED72E080E090E03F
:104C40000E941E40BC01CE018B509E4F0E942C2B17
:104C5000CE018B509E4F0E94E52B6B017C01209171
:104C6000B2033091B30319E0129FC001139F900D5E
:104C70001124BE0164507E4F87539C4F0E94422BEB
:104C80008091B2039091B303189FF001199FF00D2A
:104C90001124E753FC4FD086C7828FEF9AE10E9420
:104CA0003D2C64E273E08FEF9AE10E94D02948EE38
:104CB00053E060E070E08FEF9AE10E94B82A8FEF36
:104CC0009AE10E943D2C8091B2039091B30301962A
:104CD0009093B3038093B203CE018B509E4F0E94FA
:104CE000BE2ACE0184509E4F0E94BE2A05C0853444
:104CF00019F481E08093471ACE5FDD4F0FB6F89428
:104D0000DEBF0FBECDBFDF91CF911F910F91FF90FE
:104D1000EF90DF90CF900895CF93DF933091481AB2
:104D20002091471A31111CC0211120C0EC016CECFC
:104D300072E08FEF9AE10E94D0296CED72E08FEF64
:104D40009AE10E94D029BE018FEF9AE10E94ED29DD
:104D50008FEF9AE10E943D2C81E08093481A06C0B3
:104D6000211104C0DF91CF910C94AA25DF91CF913E
:104D700008958F929F92AF92BF92CF92DF92EF925F
:104D8000FF92CF93DF93CDB7DEB72E970FB6F8948F
:104D9000DEBF0FBECDBF0E9403220E9439230E94B6
:104DA00035040E941C220E9499274B015C010E943D
:104DB000CD240E94BB090E94A31F0E9428050E94C7
:104DC000B01F8091371A9091381A892B91F70E9461
:104DD00099276B017C01C818D908EA08FB0867E22B
:104DE00073E08FEF9AE10E94FF29C701B60128EE18
:104DF00033E040E050E00E94B94020933B1A3093EA
:104E00003C1A40933D1A50933E1AB901CE010896C0
:104E10000E947A2260E373E08FEF9AE10E94FF29FB
:104E20008091471A811110C0BE01685F7F4FCE018B
:104E300001960E94592BCE0101960E948C26CE012C
:104E400001960E94BE2AECCF6EE373E08FEF9AE1E9
:104E50000E94FF2980910002909101020E94B122DC
:104E60008FEF9AE10E943D2C8FEF9AE10E94F42E81
:104E7000CE0108960E94BE2A80E090E02E960FB6E2
:104E8000F894DEBF0FBECDBFDF91CF91FF90EF90C2
:104E9000DF90CF90BF90AF909F908F9008951F921A
:104EA0000F920FB60F9211242F933F938F939F93DE
:104EB000AF93BF938091911A9091921AA091931AF7
:104EC000B091941A3091901A23E0230F2D3720F4DB
:104ED0000196A11DB11D05C026E8230F0296A11D54
:104EE000B11D2093901A8093911A9093921AA093D7
:104EF000931AB093941A8091951A9091961AA09152
:104F0000971AB091981A0196A11DB11D8093951A18
:104F10009093961AA093971AB093981ABF91AF9155
:104F20009F918F913F912F910F900FBE0F901F90E7
:104F300018952FB7F8946091911A7091921A8091F8
:104F4000931A9091941A2FBF08953FB7F8948091C7
:104F5000951A9091961AA091971AB091981A26B521
:104F6000A89B05C02F3F19F00196A11DB11D3FBFA1
:104F7000BA2FA92F982F8827820F911DA11DB11D2F
:104F8000BC01CD0142E0660F771F881F991F4A952B
:104F9000D1F70895CF92DF92EF92FF92CF93DF93F4
:104FA0006B017C010E94A527EB01C114D104E1042F
:104FB000F10479F00E94A5276C1B7D0B683E7340BD
:104FC000A0F381E0C81AD108E108F108C851DC4F0C
:104FD000ECCFDF91CF91FF90EF90DF90CF900895CD
:104FE000789484B5826084BD84B5816084BD85B5C4
:104FF000826085BD85B5816085BDEEE6F0E080818B
:1050000081608083E1E8F0E01082808182608083AB
:10501000808181608083E0E8F0E08081816080832E
:10502000E1EBF0E0808184608083E0EBF0E0808160
:1050300081608083E1E9F0E080818260808380810B
:1050400081608083E0E9F0E0808181608083E1EA33
:10505000F0E0808182608083808181608083E0EAEB
:10506000F0E0808181608083E1E2F1E08081826014
:105070008083808181608083E0E2F1E080818160D3
:105080008083EAE7F0E080818460808380818260B1
:10509000808380818160808380818068808310929A
:1050A000C1000895863308F0865390917B00282F25
:1050B0002870977F922B90937B008770209103023A
:1050C00090E4299F90011124822B80937C00809191
:1050D0007A00806480937A0080917A0086FDFCCF0C
:1050E000809178002091790090E0922B089590E0D3
:1050F000FC013197E131F10508F04AC08827EE58EC
:10510000FF4F8F4F0C94DB40809180008F7703C05E
:10511000809180008F7D80938000089584B58F7783
:1051200002C084B58F7D84BD08958091B0008F77D3
:1051300003C08091B0008F7D8093B000089580916E
:1051400090008F7707C0809190008F7D03C0809181
:105150009000877F8093900008958091A0008F77C2
:1051600007C08091A0008F7D03C08091A000877F41
:105170008093A0000895809120018F7707C08091CF
:1051800020018F7D03C080912001877F80932001C3
:105190000895CF93DF9390E0FC01EC5DFD4F2491E7
:1051A000FC01E659FD4F8491882361F190E0880F5E
:1051B000991FFC01EC51FD4FC591D491FC01E653C0
:1051C000FD4FA591B491611109C09FB7F8948881F2
:1051D000209582238883EC912E230BC0623061F4EA
:1051E0009FB7F8943881822F809583238883EC9130
:1051F0002E2B2C939FBF06C08FB7F894E8812E2BDF
:1052000028838FBFDF91CF9108951F93CF93DF93B2
:10521000282F30E0F901E252FE4F8491F901EC5D54
:10522000FD4FD491F901E659FD4FC491CC23C9F04B
:10523000162F81110E947728EC2FF0E0EE0FFF1F50
:10524000E653FD4FA591B4918FB7F894111105C0A5
:105250009C91ED2FE095E92302C0EC91ED2BEC93AE
:105260008FBFDF91CF911F910895CF93DF93282FA8
:1052700030E0F901E252FE4F8491F901EC5DFD4FFF
:10528000D491F901E659FD4FC491CC2391F08111DD
:105290000E947728EC2FF0E0EE0FFF1FE055FD4F46
:1052A000A591B491EC91ED2381E090E021F480E0B0
:1052B00002C080E090E0DF91CF910895CF92DF921D
:1052C000EF92FF920F931F93CF93DF936C01EB014B
:1052D0007B01E40EF51E00E010E0CE15DF0561F065
:1052E0006991D601ED91FC910190F081E02DC6010C
:1052F0001995080F191FF1CFC801DF91CF911F91A8
:105300000F91FF90EF90DF90CF9008956115710598
:1053100079F0FB0101900020E9F73197AF01461BBE
:10532000570BDC01ED91FC910280F381E02D199483
:1053300080E090E00895AF92BF92CF92DF92EF921B
:10534000FF920F931F93CF93DF936C017B01C0E01B
:10535000D0E000E010E0D70114968D919C91159754
:10536000C817D90788F4D601ED91FC91A080B180CF
:10537000BE01C7010E94D42B682FC601F501199503
:10538000080F191F2196E7CFC801DF91CF911F9118
:105390000F91FF90EF90DF90CF90BF90AF90089566
:1053A0000C948629DC01ED91FC910190F081E02DB7
:1053B00019940F931F93CF93DF93EC016DE00E943C
:1053C000D2298C016AE0CE010E94D229800F911F60
:1053D000DF91CF911F910F9108950F931F93CF935A
:1053E000DF93EC010E949B298C01CE010E94D929F8
:1053F000800F911FDF91CF911F910F9108950F930F
:105400001F93CF93DF93EC010E9486298C01CE017C
:105410000E94D929800F911FDF91CF911F910F9189
:1054200008958F929F92AF92BF92CF92DF92EF92A8
:10543000FF920F931F93CF93DF93CDB7DEB7A19762
:105440000FB6F894DEBF0FBECDBF6C01142FE52F51
:10545000CB01022F19A2223008F40AE07E0121E2DA
:10546000E20EF11C802E912CA12CB12C612F7E2FED
:10547000A50194010E94B940029F1019112481E0F6
:10548000E81AF1081A3014F4105D01C0195CF70134
:105490001083122FE32FCA01232B242B252B31F746
:1054A000B701C6010E948629A1960FB6F894DEBF07
:1054B0000FBECDBFDF91CF911F910F91FF90EF9065
:1054C000DF90CF90BF90AF909F908F900895CF9234
:1054D000DF92EF92FF920F931F93CF93DF93EC0134
:1054E0006A017B012115310579F4E881F981019088
:1054F000F081E02D642FDF91CF911F910F91FF90EC
:10550000EF90DF90CF9019942A303105E9F477FFBE
:105510001AC06DE20E94D2298C0144275527BA0196
:105520004C195D096E097F092AE0CE010E94112AFB
:10553000800F911FDF91CF911F910F91FF90EF90FE
:10554000DF90CF9008952AE0B701A601CE01DF9148
:10555000CF911F910F91FF90EF90DF90CF900C941F
:10556000112A9A01AB01770F660B770B0C94672A0F
:10557000FC0144835583668377830895FC01808111
:1055800091810C94293FCF93DF93EC01888199811D
:10559000009711F00E94293F198218821D821C82F7
:1055A0001B821A82DF91CF9108950F931F93CF939F
:1055B000DF93EC018B016F5F7F4F888199810E949F
:1055C000AB3D009731F0998388831B830A8381E088
:1055D00001C080E0DF91CF911F910F910895CF938B
:1055E000DF93EC0188819981892B29F08A819B8145
:1055F0008617970760F4CE010E94D52A882341F0D0
:105600008C819D81892B19F4E881F981108281E0D8
:10561000DF91CF910895EF92FF920F931F93CF9355
:10562000DF93EC017B018A01BA010E94EF2A81110C
:1056300004C0CE010E94C32A07C01D830C83B7019A
:10564000888199810E942B40CE01DF91CF911F91DB
:105650000F91FF90EF900895FC0111821082138248
:1056600012821582148216826115710551F0FB01B8
:1056700001900020E9F73197AF01461B570B0C94BE
:105680000B2B0895CF93DF93EC01FB01861797074F
:1056900061F0608171816115710529F04481558146
:1056A0000E940B2B02C00E94C32ACE01DF91CF9132
:1056B0000895FC01118210821382128215821482D5
:1056C00016820C94422BCF93DF93EC016115710588
:1056D00059F0FB0101900020E9F73197AF01461B1B
:1056E000570B0E940B2B02C00E94C32ACE01DF91F0
:1056F000CF9108950F931F93CF93DF93CDB7DEB76C
:1057000062970FB6F894DEBF0FBECDBF8C01CB0100
:10571000F80111821082138212821582148216827D
:1057200050E0BE016F5F7F4F0E945940BE016F5F26
:105730007F4FC8010E94632B62960FB6F894DEBFBC
:105740000FBECDBFDF91CF911F910F9108950F93A1
:105750001F93CF93DF93CDB7DEB761970FB6F89461
:10576000DEBF0FBECDBF8C01CB01F80111821082CC
:105770001382128215821482168250E0BE016F5F7E
:105780007F4F0E948440BE016F5F7F4FC8010E941F
:10579000632B61960FB6F894DEBF0FBECDBFDF91CD
:1057A000CF911F910F910895FC01248135816217DB
:1057B000730748F480819181009729F0FC01E60F7E
:1057C000F71F8081089580E00895FC018081918118
:1057D000009711F00C94F43F60E070E0CB01089565
:1057E0000895FC0124853585F901E05CFF4F808137
:1057F0009181329620813181821B930B8F7399277F
:105800000895DC011C96ED91FC911D97DF01A05CD1
:10581000BF4F2D913C91119712968D919C911197AC
:105820002817390739F08D919C91E80FF91F808175
:1058300090E008958FEF9FEF0895FC01A485B58552
:10584000FD01E05CFF4F20813181329680819181A2
:105850002817390779F080819181A80FB91F8C91A1
:10586000208131812F5F3F4F2F7333273183208376
:1058700090E008958FEF9FEF0895FC0181A18823A8
:1058800029F0A489B5898C9186FFFBCF11A20895D8
:105890000F931F93CF93DF93FC01A685B7858D01EE
:1058A000005C1F4FE8018881998101968F739927C9
:1058B000AD014E5B5F4FEA01288139818217930762
:1058C000D1F3E80128813981A20FB31F6C93A6851B
:1058D000B785A05CBF4F11969C938E93A689B7891C
:1058E0002C9181E090E0078C02C0880F991F0A94E8
:1058F000E2F7822B8C9381E081A30488F589E02D67
:1059000080818064808381E090E0DF91CF911F915E
:105910000F910895FB01E05CFF4F208131812F5FE3
:105920003F4F2F733327DB01AE5BBF4F4D915C912F
:105930002417350741F040815181DB01A40FB51FC9
:105940008C933183208308951F920F920FB60F928C
:1059500011240BB60F922F933F934F935F936F9346
:105960007F938F939F93AF93BF93EF93FF93809118
:10597000C00082FD07C08091C6006DEF7CE10E94EF
:105980008A2C02C08091C600FF91EF91BF91AF9128
:105990009F918F917F916F915F914F913F912F9147
:1059A0000F900BBE0F900FBE0F901F9018951F9277
:1059B0000F920FB60F9211240BB60F922F933F93B5
:1059C0004F935F936F937F938F939F93AF93BF9307
:1059D000EF93FF938091C80082FD07C08091CE00B5
:1059E00065E77CE10E948A2C02C08091CE00FF9185
:1059F000EF91BF91AF919F918F917F916F915F9147
:105A00004F913F912F910F900BBE0F900FBE0F90B3
:105A10001F9018951F920F920FB60F9211240BB67C
:105A20000F922F933F934F935F936F937F938F9337
:105A30009F93AF93BF93EF93FF938091D00082FD2C
:105A400007C08091D6006DEE7BE10E948A2C02C0D7
:105A50008091D600FF91EF91BF91AF919F918F916F
:105A60007F916F915F914F913F912F910F900BBE5E
:105A70000F900FBE0F901F9018951F920F920FB6A8
:105A80000F9211240BB60F922F933F934F935F9376
:105A90006F937F938F939F93AF93BF93EF93FF93F6
:105AA0008091300182FD07C08091360165E67BE17F
:105AB0000E948A2C02C080913601FF91EF91BF9124
:105AC000AF919F918F917F916F915F914F913F9196
:105AD0002F910F900BBE0F900FBE0F901F90189537
