:100000000C9402040C9433040C9433040C943304C5
:100010000C9433040C9433040C9433040C94330484
:100020000C9433040C9433040C9433040C94330474
:100030000C9433040C9433040C9433040C94330464
:100040000C9433040C9433040C9433040C94330454
:100050000C9433040C9433040C9433040C945B2AF6
:100060000C9433040C94C72F0C9493300C943304E9
:100070000C9433040C9433040C9433040C94330424
:100080000C9433040C9433040C9433040C94330414
:100090000C94FA2F0C94D2300C9433040C94330447
:1000A0000C9433040C9433040C9433040C943304F4
:1000B0000C9433040C9433040C9433040C943304E4
:1000C0000C9433040C9433040C9433040C942D30AE
:1000D0000C9411310C9433040C9460300C94503116
:1000E0000C9433049A2B9D2B902B942BD42BA12B67
:1000F000A52BAB2BAF2BB32BB92BBD2BC12BD42BEB
:10010000C72BCB2BCF2B0C94213B0C94602F0C9442
:10011000DF340C94BE330C94C1340C94C12B0C947A
:10012000942B0C9455350C94353F0C94F13D0C9464
:10013000AB2B0C94A93A0C942C340C94AF2B0C944C
:10014000142F0C94B4350C94C72B0C949A2B0C944C
:10015000242F0C94E33A0C94402F0C94073A0C94FF
:10016000CF2B0C94A01F0C94902B0C94B5350C94B1
:10017000B6330C94B92B0C94E7330C9470340C9474
:10018000B32B0C94B7330C94263A0C94393A0C9454
:100190000D330C94E6330C94CA330C946A1F0C9400
:1001A0009D2B0C946B2F0C94A12B0C94132F0C945F
:1001B0001C390C94D6330C94123A0C9417320C94CC
:1001C000BD2B0C94CB2B0C946F3A0C94D42B0C9429
:1001D000B03F0C943D3E0C946A2C0C94A52B00006F
:1001E000090A02080B0C0D070603040100000000B9
:1001F00000000000000000000000000000000000FF
:100200000000000000000000000011100F000000BE
:1002100000000000000000000000000000000000DE
:1002200000000000010210202008081020401020CB
:1002300040800201020108040201010204081020AA
:1002400040808040201008040201800402018040A8
:100250002010080402010804020101020408102011
:1002600040800102040810204080050505050705AF
:1002700008080808020202020A0A08080404040422
:10028000010101010101010103030303030303034E
:10029000040707070C0C0C0C0C0C0C0C02020202DD
:1002A00006060606060606060B0B0B0B0B0B0B0BC6
:1002B000000020002300260029002C002F0032001F
:1002C00000010000030106010901000022002500D1
:1002D00028002B002E00310034000201000005012F
:1002E00008010B0100002100240027002A002D0036
:1002F0003000330001010000040107010A01000081
:100300000000003E5B4F5B3E3E6B4F6B3E1C3E7CF5
:100310003E1C183C7E3C181C577D571C1C5E7F5EA3
:100320001C00183C1800FFE7C3E7FF001824180062
:10033000FFE7DBE7FF30483A060E262979292640F9
:100340007F050507407F05253F5A3CE73C5A7F3E25
:100350001C1C08081C1C3E7F14227F22145F5F00B7
:100360005F5F06097F017F006689956A6060606053
:100370006094A2FFA29408047E040810207E20103E
:1003800008082A1C08081C2A08081E101010100C47
:100390001E0C1E0C30383E3830060E3E0E06000095
:1003A00000000000005F00000007000700147F1439
:1003B0007F14242A7F2A12231308646236495620A8
:1003C000500008070300001C2241000041221C00CD
:1003D0002A1C7F1C2A08083E08080080703000088C
:1003E00008080808000060600020100804023E5160
:1003F00049453E00427F40007249494946214149F2
:100400004D331814127F1027454545393C4A494958
:100410003141211109073649494936464949291EC2
:1004200000001400000040340000000814224114B1
:1004300014141414004122140802015909063E4103
:100440005D594E7C1211127C7F494949363E41412B
:1004500041227F4141413E7F494949417F09090984
:10046000013E414151737F0808087F00417F4100F0
:100470002040413F017F081422417F404040407F9F
:10048000021C027F7F0408107F3E4141413E7F09EC
:100490000909063E4151215E7F091929462649492D
:1004A000493203017F01033F4040403F1F2040206D
:1004B0001F3F4038403F631408146303047804036B
:1004C0006159494D43007F41414102040810200019
:1004D0004141417F0402010204404040404000038A
:1004E00007080020545478407F2844443838444456
:1004F0004428384444287F385454541800087E094E
:100500000218A4A49C787F0804047800447D40006D
:100510002040403D007F1028440000417F40007C87
:10052000047804787C080404783844444438FC187F
:1005300024241818242418FC7C0804040848545463
:10054000542404043F44243C4040207C1C20402090
:100550001C3C4030403C44281028444C9090907CF7
:100560004464544C44000836410000007700000009
:100570004136080002010204023C2623263C1EA14B
:10058000A161123A4040207A3854545559215555AA
:100590007941225454784221555478402054557959
:1005A000400C1E52721239555555593954545459EC
:1005B00039555454580000457C410002457D4200A5
:1005C00001457C407D1211127DF0282528F07C54D5
:1005D0005545002054547C547C0A097F49324949CE
:1005E00049323A4444443A324A4848303A41412137
:1005F0007A3A42402078009DA0A07D3D4242423D93
:100600003D4040403D3C24FF2424487E4943662B26
:100610002FFC2F2BFF0929F620C0887E09032054C8
:100620005479410000447D413048484A32384040C6
:10063000227A007A0A0A727D0D19317D2629292F26
:1006400028262929292630484D402038080808083E
:1006500008080808382F10C8ACBA2F102834FA0040
:10066000007B000008142A142222142A14085500C2
:10067000550055AA55AA55AAFF55FF55FF00000081
:10068000FF00101010FF00141414FF001010FF00E2
:10069000FF1010F010F0141414FC001414F700FFF5
:1006A0000000FF00FF1414F404FC141417101F10B2
:1006B000101F101F1414141F00101010F000000061
:1006C000001F101010101F10101010F0100000006C
:1006D000FF101010101010101010FF10000000FF7D
:1006E000140000FF00FF00001F10170000FC04F4BE
:1006F00014141710171414F404F40000FF00F71476
:10070000141414141414F700F714141417141010FC
:100710001F101F141414F4141010F010F000001F18
:10072000101F0000001F14000000FC140000F01057
:10073000F01010FF10FF141414FF141010101F00FD
:10074000000000F010FFFFFFFFFFF0F0F0F0F0FFFF
:10075000FFFF0000000000FFFF0F0F0F0F0F3844D6
:10076000443844FC4A4A4A347E02020606027E02AB
:100770007E0263554941633844443C04407E201E58
:100780002006027E020299A5E7A5991C2A492A1C87
:100790004C7201724C304A4D4D303048784830BC74
:1007A000625A463D3E494949007E0101017E2A2A9E
:1007B0002A2A2A44445F444440514A444040444A1F
:1007C00051400000FF0103E080FF000008086B6B50
:1007D000083612362436060F090F060000181800D6
:1007E00000001010003040FF0101001F01011E0039
:1007F000191D1712003C3C3C3C00000000006A1F21
:100800001732A01F11241FBECFEFD1E2DEBFCDBF34
:1008100000E00CBF13E0A0E0B2E0EEE7FBE800E090
:100820000BBF02C007900D92A03EB107D9F72BE194
:10083000A0EEB3E001C01D92A83EB207E1F713E0BD
:10084000C1E0D4E000E006C021970109802FFE013D
:100850000E947445CF3FD10780E00807A9F70E94A6
:10086000BE290C9464430C94000066E372E084EEAD
:1008700093E00E94862E6DE372E08BEE93E00E947F
:10088000862E66E472E082EF93E00C94862EDF926F
:10089000EF92FF920F931F93CF93DF937C018B0115
:1008A000C42F6DE472E082EA99E10E940B2D48E2C8
:1008B00050E062E070E080E099E10E94F23962E08D
:1008C00080E099E10E94F83940E050E06FEF7FEF5F
:1008D00080E099E10E94FE396AE572E080E099E1EA
:1008E0000E940B2D44E650E060E070E080E099E16A
:1008F000CC2309F445C00E94F23963E080E099E11D
:100900000E94F8390E151F0509F460C0C0E0D0E060
:1009100087E0D82ECE15DF0571F44FEF5FEF60E072
:1009200070E080E099E10E94FE39DC9EB001DD9E1E
:10093000700D112411C040E050E06FEF7FEF80E0B8
:1009400099E1C017D10779F40E94FE39DC9EC001FD
:10095000DD9E900D1124BC016C517C4F80E099E12B
:100960000E94F92C08C00E94FE3961E573E080E026
:1009700099E10E940B2D2196C330D10559F626C06E
:100980000E94F23963E080E099E10E94F83904EEB8
:1009900013E0C0E0D0E0CE15DF0529F44FEF5FEFA4
:1009A00060E070E004C040E050E06FEF7FEF80E077
:1009B00099E10E94FE39B80180E099E10E94F92C8A
:1009C0002196095F1F4FC330D10529F7DF91CF91E1
:1009D0001F910F91FF90EF90DF900895009779F4A9
:1009E00087E090E09093DA188093D91881E090E046
:1009F0009093D8188093D71882E090E01FC0813080
:100A0000910569F485E090E09093DA188093D91805
:100A100082E090E09093D8188093D7180FC082306E
:100A2000910589F423E030E03093DA182093D91847
:100A30009093D8188093D71885E090E09093D618BB
:100A40008093D51808956EE672E082EA99E10C94DD
:100A50000B2D841B950B06960D97E0F4621B730B10
:100A60006A5F7F4F6D307105A8F48091D91890911D
:100A7000DA1801979093DA188093D91864E872E035
:100A800082EA99E10E940B2D68EC70E080E090E032
:100A90000C94D62A0895CF93DF93CDB7DEB727976E
:100AA0000FB6F894DEBF0FBECDBF6091D91870911C
:100AB000DA184AE0CE0101960E949D2E40E050E0F7
:100AC00060E070E080E099E10E94F23961E080E04E
:100AD00099E10E94F83968E872E080E099E10E94AB
:100AE000DC2C6091D9187091DA184AE050E080E06F
:100AF00099E10E94BD2DCE0101960E94E12D27961D
:100B00000FB6F894DEBF0FBECDBFDF91CF91089531
:100B1000EF92FF920F931F93CF93DF93EC017B0132
:100B2000BA01A90100E010E027E030E080E099E19F
:100B30000E94BF3600EE1FEF27E030E0A701BE01A4
:100B400080E099E10E94BF36DF91CF911F910F9114
:100B5000FF90EF900895EF92FF920F931F93CF9322
:100B6000DF93EC017B01BA01A90100E010E027E06E
:100B700030E080E099E10E94BF3600E018EF27E006
:100B800030E0A701BE0180E099E10E94BF36DF910D
:100B9000CF911F910F91FF90EF900895EF92FF92E8
:100BA0000F931F93CF93DF93EC017B01BA01A9014F
:100BB00000E010E027E030E080E099E10E94BF36DD
:100BC0000FE118EF27E030E0A701BE0180E099E1D6
:100BD0000E94BF36DF91CF911F910F91FF90EF9050
:100BE0000895EF92FF920F931F93CF93DF93EC0141
:100BF0007B01BA01A90100E010E027E030E080E0CD
:100C000099E10E94BF360FEF17E027E030E0A7011F
:100C1000BE0180E099E10E94BF36DF91CF911F9124
:100C20000F91FF90EF900895EF92FF920F931F9313
:100C3000CF93DF93EC017B01BA01A90100E010E042
:100C400027E030E080E099E10E94BF3600E21DEF2E
:100C500027E030E0A701BE0180E099E10E94BF36A5
:100C6000DF91CF911F910F91FF90EF900895EF9238
:100C7000FF920F931F93CF93DF93EC017B01BA0197
:100C8000A90100E010E027E030E080E099E10E9457
:100C9000BF360FEF1FEF27E030E0A701BE0180E075
:100CA00099E10E94BF36DF91CF911F910F91FF9084
:100CB000EF900895841B950B97FF08C08091D7187B
:100CC0009091D81891958195910906C0892B41F092
:100CD0008091D7189091D8189093BE188093BD1822
:100CE000621B730B77FF08C08091D7189091D818BA
:100CF00091958195910906C0672B41F08091D71895
:100D00009091D8189093BC188093BB182091D31859
:100D10003091D4188091BD189091BE18820F931F06
:100D20009093D4188093D3182091D1183091D21871
:100D30008091BB189091BC18820F931F9093D2188A
:100D40008093D1180895841B950B97FF08C080915C
:100D5000D7189091D81891958195910906C0892B43
:100D600041F08091D7189091D8189093BA18809339
:100D7000B918621B730B77FF08C08091D718909148
:100D8000D81891958195910906C0672B41F0809103
:100D9000D7189091D8189093B8188093B7182091CD
:100DA000CF183091D0188091B9189091BA18820F4D
:100DB000931F9093D0188093CF182091CD18309125
:100DC000CE188091B7189091B818820F931F909306
:100DD000CE188093CD180895841B950B97FF08C0FB
:100DE0008091D7189091D81891958195910906C056
:100DF000892B41F08091D7189091D8189093B6180C
:100E00008093B518621B730B77FF08C08091D718C9
:100E10009091D81891958195910906C0672B41F062
:100E20008091D7189091D8189093B4188093B318E4
:100E30002091CB183091CC188091B5189091B618AC
:100E4000820F931F9093CC188093CB182091C918D0
:100E50003091CA188091B3189091B418820F931FE3
:100E60009093CA188093C9180895841B950B97FF17
:100E700008C08091D7189091D818919581959109C3
:100E800006C0892B41F08091D7189091D818909383
:100E9000B2188093B118621B730B77FF08C0809162
:100EA000D7189091D81891958195910906C0672B14
:100EB00041F08091D7189091D8189093B0188093F2
:100EC000AF182091C7183091C8188091B11890912F
:100ED000B218820F931F9093C8188093C71820915F
:100EE000C5183091C6188091AF189091B018820F34
:100EF000931F9093C6188093C51808952091C31826
:100F00003091C4188091D5189091D618820F931FF4
:100F1000813F91052CF49093C4188093C3180895D1
:100F20001092C4181092C31808952F923F924F92B6
:100F30005F926F927F928F929F92AF92BF92CF9269
:100F4000DF92EF92FF920F931F93CF93DF9300D026
:100F50001F92CDB7DEB78091D3189091D4189C839F
:100F60008B830091D1181091D218A090CF18B09017
:100F7000D0188090CD189090CE18E090CB18F090BB
:100F8000CC18C090C918D090CA184090C71850907B
:100F9000C8186090C5187090C618E091C318F091F9
:100FA000C418FA83E9832090C1183090C218609168
:100FB000E5187091E6189801AC018091E7189091BE
:100FC000E8180E945A066091D1187091D2189801C1
:100FD0004B815C818091D3189091D4180E94AB050D
:100FE0002091D1183091D2184091D3185091D41833
:100FF0006091E5187091E6188091E7189091E818D3
:101000000E9429052091CD183091CE184091CF181B
:101010005091D0186091E5187091E6188091E7180A
:101020009091E8180E94A3066091CD187091CE1897
:101030009401A5018091CF189091D0180E94CE05FF
:101040002091CD183091CE184091CF185091D018E2
:101050006091E5187091E6188091E7189091E81872
:101060000E9429052091C9183091CA184091CB18C7
:101070005091CC186091E5187091E6188091E718AE
:101080009091E8180E94EC066091C9187091CA18F6
:101090009601A7018091CB189091CC180E94F10580
:1010A0002091C9183091CA184091CB185091CC1892
:1010B0006091E5187091E6188091E7189091E81812
:1010C0000E9429052091C5183091C6184091C71873
:1010D0005091C8186091E5187091E6188091E71852
:1010E0009091E8180E9435076091C5187091C61854
:1010F0009301A2018091C7189091C8180E9414060C
:101100002091C5183091C6184091C7185091C81841
:101110006091E5187091E6188091E7189091E818B1
:101120000E9429050E947E076091C1187091C21823
:10113000910149815A818091C3189091C4180E94ED
:1011400037062091C1183091C2184091C3185091B0
:10115000C4186091E5187091E6188091E718909195
:10116000E8180E9429056091CF187091D0188091DD
:10117000D3189091D418861B970B06960D9708F5F7
:101180004091CD185091CE188091D1189091D218DD
:10119000841B950B06960D97A0F400E010E027E065
:1011A00030E080E099E10E94BF3684E190E09093C6
:1011B000D0188093CF188EE190E09093CE18809352
:1011C000CD186091CB187091CC188091D318909164
:1011D000D418861B970B06960D9708F54091C918F1
:1011E0005091CA188091D1189091D218841B950BF8
:1011F00006960D97A0F400E010E027E030E080E0D4
:1012000099E10E94BF368CED90E09093CC188093CA
:10121000CB188EE190E09093CA188093C918609122
:10122000C7187091C8188091D3189091D418861B54
:10123000970B06960D9708F54091C5185091C61862
:101240008091D1189091D218841B950B06960D971A
:10125000A0F400E010E027E030E080E099E10E9497
:10126000BF3684E190E09093C8188093C7188CE251
:1012700091E09093C6188093C5186091CB18709137
:10128000CC188091CF189091D018861B970B06969A
:101290000D9708F54091C9185091CA188091CD1842
:1012A0009091CE18841B950B06960D97A0F400E044
:1012B00010E027E030E080E099E10E94BF368CED3D
:1012C00090E09093CC188093CB188EE190E09093AF
:1012D000CA188093C9186091C7187091C818809176
:1012E000CF189091D018861B970B06960D9708F58E
:1012F0004091C5185091C6188091CD189091CE1884
:10130000841B950B06960D97A0F400E010E027E0F3
:1013100030E080E099E10E94BF3684E190E0909354
:10132000C8188093C7188CE291E09093C6188093F8
:10133000C5186091C7187091C8188091CB1890910A
:10134000CC18861B970B06960D9708F54091C5188B
:101350005091C6188091C9189091CA18841B950B9A
:1013600006960D97A0F400E010E027E030E080E062
:1013700099E10E94BF3684E190E09093C818809371
:10138000C7188CE291E09093C6188093C5180F900F
:101390000F900F900F90DF91CF911F910F91FF90C1
:1013A000EF90DF90CF90BF90AF909F908F907F9005
:1013B0006F905F904F903F902F9008950F931F93E1
:1013C000CF93DF9386E30E945E2B8C0187E30E941C
:1013D0005E2BEC0182E00E94412C4091E718509175
:1013E000E8182091E5183091E618CE01885C91400C
:1013F0008336910550F4073362E0160734F4043D58
:1014000081E018074CF00C94681D0833A2E01A071D
:101410001CF085E090E006C0033DE1E01E073CF4CF
:101420008BEF9FEF9093E2188093E11804C0109225
:10143000E2181092E118CC3262E0D6071CF085E089
:1014400090E006C0C73C81E0D8073CF48BEF9FEFEB
:101450009093E4188093E31804C01092E41810925B
:10146000E318CA01CD9787379105B0F4203F3105C5
:1014700099F43093E6182093E5181092E218109230
:10148000E118942F852F453B510514F094EB80E033
:101490009093E7188093E8188091E7189091E818E6
:1014A000FC0175976091E5187091E618B79788F47C
:1014B0006E30A1E07A0769F41092E2181092E118F8
:1014C0008D33910514F08CE390E09093E8188093AD
:1014D000E7188091E7189091E818FC01E55BF109A5
:1014E000B79790F46E30E1E07E0771F41092E21845
:1014F0001092E1188F30A1E09A0714F08EE091E08D
:101500009093E8188093E7188091E7189091E81875
:10151000FC01EB55F109739788F46E30E1E07E072A
:1015200069F41092E2181092E1188F36910514F0C8
:101530008EE690E09093E8188093E7188091E71882
:101540009091E818FC01E358F109739788F46E3024
:10155000A1E07A0769F41092E2181092E118873935
:10156000910514F086E990E09093E8188093E718CD
:101570008091E7189091E818FC017597E731F140E8
:1015800090F46C32E1E07E0771F41092E218109250
:10159000E1188D32A1E09A0714F08CE291E090936B
:1015A000E8188093E718603F710561F58091E718AE
:1015B0009091E818FC017597739770F41092E218F7
:1015C0001092E1187093E6186093E518893291053E
:1015D000ACF088E290E012C0FC01E95CF109B79739
:1015E00088F41092E2181092E1187093E618609354
:1015F000E518813F910514F080EF90E09093E81892
:101600008093E718E091E518F091E6188091E718CB
:101610009091E818E23DF10509F5BC0165517109A9
:101620006935710550F41092E2181092E1188F3666
:10163000910534F18EE690E023C0BC016358710936
:101640006935710508F04EC01092E2181092E11849
:101650008D3D9105ACF08CED90E012C0EA3BF105B8
:10166000A1F4BC016B5571096B337105D8F510926B
:10167000E2181092E1188739910514F086E990E09C
:101680009093E8188093E7182DC0E03AF10551F5E2
:10169000BC01615071096935710570F41092E2184E
:1016A0001092E1188B35910514F08AE590E0909343
:1016B000E8188093E71875C0BC016759710969354E
:1016C000710508F06EC01092E2181092E118BC018A
:1016D000813F910514F060EF70E07093E81860931B
:1016E000E7185FC08091E7189091E818E238F1059B
:1016F000A9F4BC016B5571096B33710508F05FC02B
:101700001092E2181092E1188739910514F086E9D9
:1017100090E09093E8188093E71851C0EE36F105F9
:1017200009F03FC0BC016B5571096331710508F4C4
:1017300053C0BC01635871096331710558F41092AC
:10174000E2181092E118873991050CF45EC086E921
:1017500090E05BC0BC01655171096732710558F4B6
:101760001092E2181092E1188D3391050CF44DC0DF
:101770008CE390E04AC0BC01655B7109673271057A
:1017800008F047C01092E2181092E118BC018D3D9C
:10179000910514F06CED70E07093E8186093E71811
:1017A00038C0E634F10559F48091E7189091E818B3
:1017B000BC0165517109673C710558F51DC0EE31DA
:1017C000F10539F58091E7189091E818BC01655151
:1017D00071096935710550F41092E2181092E11800
:1017E0008F36910594F08EE690E00FC0BC016358EF
:1017F00071096935710568F41092E2181092E118C8
:101800008D3D910514F08CED90E09093E818809355
:10181000E7186091E7187091E818CF014F978F3E55
:101820009105F0F46C33710551F41092E4181092A4
:10183000E318CF018F30E1E09E0774F00BC0643BEA
:10184000710571F41092E4181092E318CF01EF3093
:10185000F14014F08EE091E09093E6188093E51843
:101860008091E5189091E618FC01EF50F1407D97CA
:10187000E8F46431710549F41092E4181092E31809
:101880008D32E1E09E0774F00BC06C3D710571F480
:101890001092E4181092E3188D32A1E09A0714F028
:1018A0008CE291E09093E6188093E5188091E5181A
:1018B0009091E618FC01E15FF1097D97E8F46A3543
:1018C000710549F41092E4181092E3188F30E1E0AA
:1018D0009E0774F00BC06639710571F41092E4181C
:1018E0001092E3188F30A1E09A0714F08EE091E097
:1018F0009093E6188093E5188091E5189091E6188A
:10190000FC01EF50F1407D97E8F46E36710549F423
:101910001092E4181092E3188D32E1E09E0774F003
:101920000BC06238710571F41092E4181092E3183C
:101930008D32A1E09A0714F08CE291E09093E618C2
:101940008093E5188091E5189091E618FC01E15F1D
:10195000F1097D97E8F46832710549F41092E418B2
:101960001092E3188F30E1E09E0774F00BC0683CE2
:10197000710571F41092E4181092E3188F30A1E011
:101980009A0714F08EE091E09093E6188093E518A2
:101990008091E5189091E618FC01E35DF1097D97CF
:1019A000C8F46431710549F06C3D710531F06E3653
:1019B000710519F06238710569F41092E4181092FB
:1019C000E318813F910514F080EF90E09093E618C2
:1019D0008093E5188091E5189091E618FC01EB5B87
:1019E000F1097797B8F46A35710519F06639710510
:1019F00089F41092E4181092E3187093E818609339
:101A0000E718833D910514F082ED90E09093E6187D
:101A10008093E5188091E5189091E618BC01615A11
:101A200071096931710500F56091E7187091E81846
:101A30006A35710529F41092E4181092E3180BC06E
:101A40006639710589F41092E4181092E3187093C6
:101A5000E8186093E7188B3B910514F08AEB90E04F
:101A60009093E6188093E5188091E5189091E61818
:101A7000BC01635871096D31710500F56091E7187B
:101A80007091E8186A35710529F41092E4181092E3
:101A9000E3180BC06639710589F41092E4181092AE
:101AA000E3187093E8186093E718813A910514F0F1
:101AB00080EA90E09093E6188093E5188091E5180D
:101AC0009091E618BC016F5671096331710500F5FC
:101AD0006091E7187091E8186E36710529F410923C
:101AE000E4181092E3180BC06238710589F4109263
:101AF000E4181092E3187093E8186093E71883389D
:101B0000910514F082E890E09093E6188093E51830
:101B10008091E5189091E618BC016F5171096F34FE
:101B2000710530F56091E7187091E818643171051E
:101B300029F41092E4181092E31811C06C33710567
:101B400031F0643B710519F06C3D710589F4109218
:101B5000E4181092E3187093E8186093E7188F3632
:101B6000910514F08EE690E09093E6188093E518C6
:101B70008091E5189091E618BC016F5171096732A8
:101B8000710500F56091E7187091E8186E367105DF
:101B900029F41092E4181092E3180BC06238710512
:101BA00089F41092E4181092E3187093E818609387
:101BB000E7188734910514F086E490E09093E618D6
:101BC0008093E5188091E5189091E618BC01675460
:101BD00071096732710500F56091E7187091E81896
:101BE0006A35710529F41092E4181092E3180BC0BD
:101BF0006639710589F41092E4181092E318709315
:101C0000E8186093E7188F36910514F08EE690E09F
:101C10009093E6188093E5186091E7187091E818A2
:101C20008091E5189091E6186C33710549F5803F75
:101C3000910531F5CC32E2E0DE0754F065E070E06A
:101C40007093E4186093E3181092E2181092E11870
:101C5000B801635D71406536710550F06CE370E06A
:101C60007093E8186093E7181092E4181092E31844
:101C7000C73C61E0D60724F41092E4181092E318F0
:101C80006091E7187091E818643B710549F5803F51
:101C9000910531F5CC32A2E0DA0724F01092E41875
:101CA0001092E318B801635D71406536710550F01C
:101CB00064EB70E07093E8186093E7181092E418F2
:101CC0001092E318C73CE1E0DE0754F46BEF7FEFBE
:101CD0007093E4186093E3181092E2181092E118E0
:101CE0006091E7187091E8186C337105E1F48E305B
:101CF000914009F008C1CC3282E0D80724F010925C
:101D0000E4181092E3180833A2E01A0724F01092A6
:101D1000E2181092E118C73CE1E0DE070CF0F3C0D6
:101D20008EE091E0B2C0643B710531F58E30914098
:101D300009F0BDC0CC32E2E0DE0754F085E090E06F
:101D40009093E4188093E3181092E2181092E1182F
:101D5000083382E0180724F01092E2181092E1187C
:101D6000C73CA1E0DA070CF0A2C08EE091E09093AE
:101D7000E6188093E5185BC06431710509F05CC01A
:101D80008E30914079F5CC3282E0D80754F085E06E
:101D900090E09093E4188093E3181092E218109268
:101DA000E1180833A2E01A073CF085E090E0909338
:101DB000E2188093E11808C0033DE1E01E0724F417
:101DC0001092E2181092E118C73C81E0D80754F451
:101DD0008EE091E09093E6188093E5181092E41855
:101DE0001092E3188091E5189091E6188C3291409A
:101DF00009F05DC0CC32E2E0DE0754F085E090E00F
:101E00009093E4188093E3181092E2181092E1186E
:101E1000083382E0180714F40C94F61A1092E218B2
:101E20001092E118C73CE1E0DE070CF040C01092D0
:101E3000E4181092E3183BC06C3D7105A9F58E3093
:101E4000914011F40C94051D8091E5189091E618CD
:101E50008C32914009F057C0CC3262E0D60724F0B2
:101E60001092E4181092E318083382E0180714F473
:101E70000C94381D1092E2181092E118C73C61E0F2
:101E8000D6070CF040C08CE291E09093E618809366
:101E9000E5188BEF9FEF9093E4188093E31810926E
:101EA000E2181092E1182FC06A35710539F16639D0
:101EB000710549F58091E5189091E618803F9105EC
:101EC00011F5CC3282E0D8073CF01092E218109263
:101ED000E11885E090E00CC0C73CA1E0DA0714F0FF
:101EE0000C94041B1092E2181092E1188BEF9FEFF4
:101EF0009093E4188093E3180C94041B803F9105A1
:101F000011F40C94461D8091E7189091E8186091A7
:101F1000E5187091E6188A359105C9F56E30E1E053
:101F20007E0709F094C0CC3282E0D8075CF01092B2
:101F3000E2181092E11885E090E09093E418809305
:101F4000E3180CC0C73CA1E0DA0744F41092E21891
:101F50001092E1181092E4181092E3180833E2E0AE
:101F60001E072CF01092E2181092E1180BC0033DEE
:101F700081E018070CF06BC08BEF9FEF9093E21895
:101F80008093E1181092E4181092E31860C086392B
:101F9000910549F56E30A1E07A0709F058C0C73CB9
:101FA000E1E0DE075CF41092E2181092E1188BEF8A
:101FB0009FEF9093E4188093E3180CC0CC3282E03A
:101FC000D80744F01092E2181092E1181092E41829
:101FD0001092E3180833A2E01A0724F6033DE1E06B
:101FE0001E0754F234C08E36910589F56E3081E0BB
:101FF000780769F5C73CA1E0DA073CF48BEF9FEF67
:102000009093E4188093E31808C0CC32E2E0DE0736
:1020100044F01092E4181092E3181092E218109213
:10202000E1180833E2E01E0714F40C941C1B8EE642
:1020300090E09093E8188093E7181092E4181092BB
:10204000E31885E090E09093E2188093E118809186
:10205000E7189091E8188238910589F56E30A1E073
:102060007A0769F5CC32E2E0DE073CF085E090E0EB
:102070009093E4188093E31808C0C73C81E0D80728
:1020800044F41092E4181092E3181092E21810929F
:10209000E118083382E0180714F40C94281B82E836
:1020A00090E09093E8188093E7181092E41810924B
:1020B000E31885E090E09093E2188093E118809116
:1020C000E7189091E8188E36910579F56C32E1E0C9
:1020D0007E0759F5CC3282E0D8071CF085E090E00D
:1020E00006C0C73CA1E0DA0754F48BEF9FEF909352
:1020F000E4188093E3181092E2181092E118033D5F
:10210000A1E01A0714F00C94341B8EE690E0909333
:10211000E8188093E7181092E4181092E3188BEFF8
:102120009FEF9093E2188093E1188091E7189091C7
:10213000E8188238910579F56C3281E0780759F515
:10214000CC32A2E0DA071CF085E090E006C0C73C84
:10215000E1E0DE0754F48BEF9FEF9093E418809357
:10216000E3181092E2181092E118033DE1E01E0717
:1021700014F00C94401B82E890E09093E818809350
:10218000E7181092E4181092E3188BEF9FEF9093EA
:10219000E2188093E1188091E7189091E8188897E9
:1021A00079F56E30A1E07A0759F5CC32E2E0DE072E
:1021B0001CF085E090E006C0C73C81E0D80754F4ED
:1021C0008BEF9FEF9093E4188093E3181092E2183E
:1021D0001092E118033D81E0180714F00C944C1B99
:1021E00088E290E09093E8188093E7181092E41842
:1021F0001092E3188BEF9FEF9093E2188093E11811
:102200008091E7189091E818883C910579F56E3037
:10221000E1E07E0759F5CC3282E0D8071CF085E07A
:1022200090E006C0C73CA1E0DA0754F48BEF9FEFC3
:102230009093E4188093E3181092E2181092E1183A
:10224000033DA1E01A0714F00C94581B88EC90E0B1
:102250009093E8188093E7181092E4181092E3180E
:102260008BEF9FEF9093E2188093E1188091E7182D
:102270009091E8188897B9F5603F7105A1F5CC32C7
:1022800082E0D8072CF01092E4181092E3180AC0EC
:10229000C73CA1E0DA0754F48BEF9FEF9093E4186A
:1022A0008093E3181092E2181092E118033DE1E0E8
:1022B0001E072CF41092E2181092E11814C0083393
:1022C00082E0180784F088E290E09093E818809309
:1022D000E7181092E4181092E31885E090E09093CC
:1022E000E2188093E1188091E7189091E818883CF3
:1022F0009105B9F5603F7105A1F5CC32A2E0DA078E
:102300003CF085E090E09093E4188093E31808C0D7
:10231000C73CE1E0DE0744F41092E4181092E318A1
:102320001092E2181092E118033D81E018072CF496
:102330001092E2181092E11814C00833A2E01A07B4
:1023400084F088EC90E09093E8188093E71810925E
:10235000E4181092E31885E090E09093E2188093DF
:10236000E1188091E7189091E818449781F5603F53
:10237000710569F5CC32E2E0DE073CF085E090E0E3
:102380009093E4188093E31808C0C73C81E0D80715
:1023900044F41092E4181092E3181092E21810928C
:1023A000E118033DE1E01E0714F00C94641B84E186
:1023B00090E09093E8188093E7188BEF9FEF90934D
:1023C000E2188093E1181092E4181092E3188091BB
:1023D000E7189091E8188C3D910581F5603F7105F3
:1023E00069F5C73CE1E0DE073CF48BEF9FEF90938B
:1023F000E4188093E31808C0CC3282E0D80744F098
:102400001092E4181092E3181092E2181092E1185A
:10241000033D81E0180714F00C94701B8CED90E0E4
:102420009093E8188093E7188BEF9FEF9093E21852
:102430008093E1181092E4181092E3188091E71845
:102440009091E818449781F5623D710569F5CC32A9
:10245000E2E0DE073CF085E090E09093E4188093A2
:10246000E31808C0C73C81E0D80744F41092E41890
:102470001092E3181092E2181092E1180833A2E0CB
:102480001A0714F40C947C1B84E190E09093E818F4
:102490008093E71885E090E09093E2188093E1182C
:1024A0001092E4181092E3188091E7189091E818C0
:1024B0008C3D910581F5623D710569F5C73CE1E010
:1024C000DE073CF48BEF9FEF9093E4188093E318C2
:1024D00008C0CC3282E0D80744F01092E418109281
:1024E000E3181092E2181092E1180833E2E01E0798
:1024F00014F40C94881B8CED90E09093E818809372
:10250000E71885E090E09093E2188093E11810922C
:10251000E4181092E3188091E7189091E8188E362D
:10252000910571F5603F710559F5C73CE1E0DE07A3
:102530001CF48BEF9FEF06C0CC3282E0D80754F03A
:1025400085E090E09093E4188093E3181092E218ED
:102550001092E118033D81E0180714F00C94941BCD
:102560008EE690E09093E8188093E7188BEF9FEF4A
:102570009093E2188093E1181092E4181092E318F7
:102580008091E7189091E8188238910571F5603FC5
:10259000710559F5C73CE1E0DE071CF48BEF9FEFB6
:1025A00006C0CC3282E0D80754F085E090E09093EA
:1025B000E4188093E3181092E2181092E118033D9A
:1025C000A1E01A0714F00C94A01B82E890E090930D
:1025D000E8188093E7188BEF9FEF9093E2188093B1
:1025E000E1181092E4181092E3188091E718909186
:1025F000E8188E36910581F5623D710569F5C73C95
:10260000E1E0DE073CF48BEF9FEF9093E4188093BA
:10261000E31808C0CC3282E0D80744F01092E418E6
:102620001092E3181092E2181092E1180833E2E0D9
:102630001E0714F40C94AC1B8EE690E09093E818FF
:102640008093E71885E090E09093E2188093E1187A
:102650001092E4181092E3188091E7189091E8180E
:102660008238910581F5623D710569F5CC32E2E071
:10267000DE073CF085E090E09093E4188093E31847
:1026800008C0C73C81E0D80744F41092E4181092C7
:10269000E3181092E2181092E118083382E018074C
:1026A00014F40C94B81B82E890E09093E81880939F
:1026B000E71885E090E09093E2188093E11810927B
:1026C000E4181092E3188091E7189091E818CC97DD
:1026D00009F040C0615D710963307105D8F5CC32F5
:1026E000E2E0DE074CF082ED90E09093E6188093F4
:1026F000E51885E090E00CC0C73C61E0D60784F4A3
:1027000082ED90E09093E6188093E5188BEF9FEFB1
:102710009093E4188093E3181092E2181092E11855
:102720000833A2E01A0714F00C94C41B033D81E0A7
:10273000180784F48BEF9FEF9093E2188093E118D1
:102740001092E4181092E3188CE390E09093E8184C
:102750008093E7186091E7187091E8188091E51868
:102760009091E618643B710589F5823D910571F5FC
:10277000CC32A2E0DA071CF065E070E006C0C73C8E
:10278000E1E0DE0754F46BEF7FEF7093E4186093A1
:10279000E3181092E2181092E1180833E2E01E07E5
:1027A0000CF0F6C7033D61E0160784F46BEF7FEF92
:1027B0007093E2186093E1181092E4181092E318F5
:1027C00064EB70E07093E8186093E7186091E71885
:1027D0007091E8186A357105C9F5823D9105B1F52A
:1027E000CC32A2E0DA071CF065E070E006C0C73C1E
:1027F000E1E0DE0754F46BEF7FEF7093E418609331
:10280000E3181092E2181092E118083362E01607FC
:102810004CF01092E2181092E1181092E418109205
:10282000E31814C0033DA1E01A0784F46AE570E0E0
:102830007093E8186093E7181092E4181092E31868
:102840006BEF7FEF7093E2186093E1186091E718E7
:102850007091E81866397105A9F5823D910591F5E9
:10286000CC32E2E0DE071CF065E070E006C0C73C59
:1028700061E0D60754F46BEF7FEF7093E418609338
:10288000E3181092E2181092E1180833A2E01A0738
:102890002CF01092E4181092E31814C0033DE1E00C
:1028A0001E0784F466E970E07093E8186093E718F7
:1028B0001092E4181092E3186BEF7FEF7093E21818
:1028C0006093E1186091E7187091E8186A35710516
:1028D00051F58A3B910539F5CC3262E0D6075CF0C0
:1028E00065E070E07093E4186093E3181092E218CA
:1028F0001092E11808C0C73CA1E0DA0724F4109256
:10290000E4181092E318B801635D714065367105F3
:1029100050F06AE570E07093E8186093E718109241
:10292000E4181092E3186091E7187091E81866397E
:10293000710551F58A3B910539F5C73CE1E0DE07A9
:102940005CF46BEF7FEF7093E4186093E3181092E0
:10295000E2181092E11808C0CC3262E0D60724F0E9
:102960001092E4181092E318B801635D7140653667
:10297000710550F066E970E07093E8186093E7180D
:102980001092E4181092E3186091E7187091E8181B
:102990006A35710551F5803A910539F5C73CA1E0DA
:1029A000DA075CF46BEF7FEF7093E4186093E31841
:1029B0001092E2181092E11808C0CC32E2E0DE0773
:1029C00024F01092E4181092E318B801635D71408E
:1029D0006536710550F06AE570E07093E818609311
:1029E000E7181092E4181092E3186091E7187091BC
:1029F000E8186639710551F5803A910539F5CC3200
:102A000062E0D6075CF065E070E07093E4186093D4
:102A1000E3181092E2181092E11808C0C73CA1E038
:102A2000DA0724F41092E4181092E318B801635DF9
:102A300071406536710550F066E970E07093E818F2
:102A40006093E7181092E4181092E3186091E71869
:102A50007091E8186C33710569F5803A910551F56C
:102A6000CC32E2E0DE071CF065E070E006C0C73C57
:102A700061E0D60754F46BEF7FEF7093E418609336
:102A8000E3181092E2181092E118083362E016077A
:102A90000CF481C66CE370E07093E8186093E7185B
:102AA00065E070E07093E2186093E1181092E4180A
:102AB0001092E3186091E7187091E818643B710573
:102AC00069F5803A910551F5CC32E2E0DE071CF061
:102AD00065E070E006C0C73C61E0D60754F46BEFD8
:102AE0007FEF7093E4186093E3181092E21810924D
:102AF000E1180833A2E01A070CF463C664EB70E037
:102B00007093E8186093E71865E070E07093E2183E
:102B10006093E1181092E4181092E3186091E7189E
:102B20007091E818672BC9F5803A9105B1F5CC3260
:102B3000E2E0DE073CF065E070E07093E41860933B
:102B4000E3180EC0C73C61E0D60774F41092E41895
:102B50001092E31860EF70E07093E8186093E71844
:102B60001092E2181092E1180833A2E01A074CF014
:102B70001092E2181092E1181092E4181092E318E3
:102B80000CC0033DE1E01E0744F41092E4181092DB
:102B9000E3181092E2181092E1186091E718709112
:102BA000E818603F7105B9F5803A9105A1F5CC327E
:102BB00062E0D6074CF01092E8181092E7181092D5
:102BC000E4181092E3180AC0C73CA1E0DA0754F4F5
:102BD0006BEF7FEF7093E4186093E3181092E218A4
:102BE0001092E1180833E2E01E074CF01092E21850
:102BF0001092E1181092E4181092E3180CC0033DF3
:102C000061E0160744F41092E4181092E318109251
:102C1000E2181092E1186091E7187091E8186A358F
:102C2000710579F58238910561F5CC32A2E0DA07B9
:102C300054F065E070E07093E4186093E31810922C
:102C4000E2181092E1180833E2E01E0754F06AE53A
:102C500070E07093E8186093E7181092E4181092EF
:102C6000E318C73CE1E0DE0724F41092E418109268
:102C7000E318033D61E0160724F41092E218109265
:102C8000E1186091E7187091E8186639710579F5D7
:102C90008238910561F5C73CA1E0DA0754F46BEF87
:102CA0007FEF7093E4186093E3181092E21810928B
:102CB000E118083362E0160754F066E970E070939B
:102CC000E8186093E7181092E4181092E318CC32D9
:102CD000E2E0DE0724F01092E4181092E318033DBE
:102CE00061E0160724F41092E2181092E118609146
:102CF000E7187091E8186E36710511F58238910564
:102D0000F9F4BE01675C71406536710520F01092E0
:102D1000E2181092E118033DA1E01A070CF067C514
:102D20006EE670E07093E8186093E7186BEF7FEF42
:102D30007093E2186093E1181092E4181092E3186F
:102D40006091E7187091E8186238710511F58238C2
:102D50009105F9F4BE01675C71406536710520F09C
:102D60001092E2181092E118033DE1E01E070CF00A
:102D700048C562E870E07093E8186093E7186BEF5D
:102D80007FEF7093E2186093E1181092E4181092AC
:102D9000E3186091E7187091E8186E36710549F5EF
:102DA0008E36910531F5C73C61E0D6072CF41092C0
:102DB000E2181092E11808C0CC32A2E0DA0724F041
:102DC0001092E4181092E318083362E016070CF42E
:102DD00022C56EE670E07093E8186093E71865E02E
:102DE00070E07093E2186093E1181092E41810926A
:102DF000E3186091E7187091E8186238710549F599
:102E00008E36910531F5CC3262E0D6072CF0109267
:102E1000E2181092E11808C0C73CA1E0DA0724F4D8
:102E20001092E4181092E3180833A2E01A070CF489
:102E3000FCC462E870E07093E8186093E71865E0FE
:102E400070E07093E2186093E1181092E418109209
:102E5000E3186091E7187091E8186A35710549F533
:102E60008E36910531F5CC3262E0D6072CF0109207
:102E7000E2181092E11808C0C73CA1E0DA0724F478
:102E80001092E4181092E318033DE1E01E070CF0E5
:102E9000D6C46AE570E07093E8186093E7186BEFAA
:102EA0007FEF7093E2186093E1181092E41810928B
:102EB000E3186091E7187091E8186639710549F5D3
:102EC0008E36910531F5C73C61E0D6072CF410929F
:102ED000E2181092E11808C0CC32A2E0DA0724F020
:102EE0001092E4181092E318033D61E016070CF00D
:102EF000B0C466E970E07093E8186093E7186BEF70
:102F00007FEF7093E2186093E1181092E41810922A
:102F1000E3186091E7187091E8186431710549F57C
:102F20008E36910531F5CC3262E0D6072CF0109246
:102F3000E2181092E11808C0C73CA1E0DA0724F4B7
:102F40001092E4181092E318033DA1E01A070CF068
:102F50008AC464E170E07093E8186093E7186BEF3F
:102F60007FEF7093E2186093E1181092E4181092CA
:102F7000E3186091E7187091E8186C3D710549F508
:102F80008E36910531F5C73C61E0D6072CF41092DE
:102F9000E2181092E11808C0CC32A2E0DA0724F05F
:102FA0001092E4181092E318033DE1E01E070CF0C4
:102FB00064C46CED70E07093E8186093E7186BEFF1
:102FC0007FEF7093E2186093E1181092E41810926A
:102FD000E3186091E7187091E8186C33710551F5AA
:102FE0008E36910539F5C73C61E0D6075CF46BEF8E
:102FF0007FEF7093E4186093E3181092E218109238
:10300000E11808C0CC32A2E0DA0724F01092E418EC
:103010001092E318B801635D71406536710550F098
:103020006CE370E07093E8186093E7181092E4186E
:103030001092E3186091E7187091E818643B7105ED
:1030400051F58E36910539F5CC32E2E0DE075CF0C1
:1030500065E070E07093E4186093E3181092E21852
:103060001092E11808C0C73C61E0D60724F4109222
:10307000E4181092E318B801635D7140653671057C
:1030800050F064EB70E07093E8186093E7181092CA
:10309000E4181092E3186091E7187091E818643111
:1030A000710551F58634910539F5CC32A2E0DA0785
:1030B0005CF065E070E07093E4186093E3181092A0
:1030C000E2181092E11808C0C73CE1E0DE0724F4E2
:1030D0001092E4181092E318B801635D71406536F0
:1030E000710550F064E170E07093E8186093E718A0
:1030F0001092E4181092E3186091E7187091E818A4
:103100006C3D710551F58634910539F5C73C61E098
:10311000D6075CF46BEF7FEF7093E4186093E318CD
:103120001092E2181092E11808C0CC32A2E0DA073F
:1031300024F01092E4181092E318B801635D714016
:103140006536710550F06CED70E07093E81860938F
:10315000E7181092E4181092E3186091E718709144
:10316000E8186C33710521F06A357105D1F41DC082
:1031700086349105B1F40833E2E01E071CF0E5E067
:10318000F0E006C0033DA1E01A0754F5EBEFFFEFB6
:10319000F093E218E093E1181092E4181092E3180B
:1031A0001FC06E36710589F534C08634910569F506
:1031B000083382E018075CF085E090E09093E21815
:1031C0008093E1181092E4181092E3183DC0033D7B
:1031D000A1E01A07CCF51092E2181092E11834C061
:1031E000CC32A2E0DA070CF452C386E490E090936C
:1031F000E6188093E51885E090E09093E4188093BA
:10320000E3181092E2181092E1186238710589F5FE
:1032100034C08634910569F5033D81E018075CF4FC
:103220008BEF9FEF9093E2188093E1181092E418CF
:103230001092E31841C00833A2E01A07ECF1109293
:10324000E2181092E11838C0CC32E2E0DE070CF44C
:103250002CC386E490E09093E6188093E51885E00F
:1032600090E09093E4188093E3181092E218109283
:10327000E11866397105A9F538C08091E51890917B
:10328000E6188634910569F5033D81E018075CF482
:103290008BEF9FEF9093E2188093E1181092E4185F
:1032A0001092E31842C00833A2E01A07F4F110921A
:1032B000E2181092E11839C0CC3282E0D8070CF441
:1032C00002C386E490E09093E6188093E51885E0C9
:1032D00090E09093E4188093E3181092E218109213
:1032E000E118643B7105B1F53AC08091E518909101
:1032F000E6188634910571F5083382E018075CF012
:1033000085E090E09093E2188093E1181092E41821
:103310001092E318F4C2033DA1E01A070CF0EFC2CB
:103320001092E2181092E118EAC2CC32A2E0DA0759
:103330000CF4D7C286E490E09093E6188093E518E9
:1033400085E090E09093E4188093E3181092E218DF
:103350001092E1186431710509F041C01DC08091DF
:10336000E5189091E61886349105C9F5083362E0B6
:1033700016071CF085E090E006C0033D81E01807C9
:1033800024F58BEF9FEF9093E2188093E118109251
:10339000E4181092E31819C08091E5189091E6188E
:1033A0004E97E9F4CC32E2E0DE072CF01092E218FE
:1033B0001092E118CDC2C73C61E0D6070CF0C8C23C
:1033C0001092E4181092E318C3C2CC3262E0D60720
:1033D0000CF09EC2C73CA1E0DA070CF4A2C28091B7
:1033E000E7189091E8186091E5187091E6188C3311
:1033F000910521F0843B910529F528C06E317105B6
:1034000009F50833A2E01A075CF0E5E0F0E0F0937C
:10341000E218E093E1181092E4181092E31808C043
:10342000033DE1E01E0724F41092E2181092E11827
:10343000CC32A2E0DA070CF0A0C2C73CA1E0DA0768
:103440000CF4A4C28C3D9105E1F51BC06E317105F1
:10345000C1F50833E2E01E075CF085E090E0909350
:10346000E2188093E1181092E4181092E3181FC03C
:10347000033D61E01607DCF41092E2181092E118A7
:1034800016C06E317105E9F4C73CA1E0DA072CF4EF
:103490001092E2181092E11890C2CC32E2E0DE07FE
:1034A0000CF48BC21092E4181092E31886C2CC324E
:1034B000E2E0DE070CF061C2C73C81E0D8070CF403
:1034C00065C28091E7189091E818E091E518F091B5
:1034D000E6188E36910549F5EE31F10531F5C73C18
:1034E00081E0D8072CF41092E2181092E11808C07D
:1034F000CC32A2E0DA0724F01092E4181092E3181C
:10350000083382E018070CF46DC28EE690E09093C9
:10351000E8188093E71885E090E09093E218809394
:10352000E1181092E4181092E3188091E718909136
:10353000E8188238910541F5EE31F10529F5CC32D4
:1035400082E0D8072CF01092E2181092E11807C020
:10355000C73CD14024F41092E4181092E3180833C9
:10356000A2E01A070CF448C282E890E09093E818B1
:103570008093E71885E090E09093E2188093E1183B
:103580001092E4181092E3186091E7187091E8180F
:103590008091E3189091E418860F971F9093E81894
:1035A0008093E7186091E1187091E2186E0F7F1F09
:1035B0007093E6186093E5181092E4181092E318DF
:1035C0001092E2181092E1188417950719F4621707
:1035D000730711F00E9488056AE070E080E090E0D7
:1035E000DF91CF911F910F910C94D62A033DA1E05A
:1035F0001A0714F00C94120F8BEF9FEF9093E218C0
:103600008093E1180C94120F0833A2E01A0714F407
:103610000C94830F86E990E09093E8188093E71864
:103620001092E4181092E31885E090E09093E2186D
:103630008093E1180C94830F033D81E0180714F088
:103640000C9427101092E2181092E1180C94271095
:10365000033DA1E01A0714F00C945F101092E218D9
:103660001092E1180C945F100833E2E01E0714F486
:103670000C9495101092E2181092E1180C94951089
:10368000083382E0180714F40C94CB101092E2185F
:103690001092E1180C94CB100833A2E01A0714F42E
:1036A0000C9400111092E2181092E1180C94001181
:1036B0000833E2E01E0714F40C9436111092E2185D
:1036C0001092E1180C9436110833A2E01A0714F492
:1036D0000C94E7111092E2181092E1180C94E71183
:1036E0000833A2E01A0714F40C941E121092E21888
:1036F0001092E1180C941E12033DA1E01A0714F079
:103700000C9454121092E2181092E1180C94541276
:10371000033DA1E01A0714F00C948B121092E218EA
:103720001092E1180C948B120833A2E01A0714F4DB
:103730000C94C0121092E2181092E1180C94C0126E
:103740000833A2E01A0714F40C94F5121092E21850
:103750001092E1180C94F512033DA1E01A0714F041
:103760000C942C131092E2181092E1180C942C1364
:10377000033DA1E01A0714F00C9463131092E218B1
:103780001092E1180C94631385E090E00C949C1364
:1037900065E070E00DC8033DA1E01A070CF08AC98E
:1037A0006CE370E07093E8186093E7181092E418E7
:1037B0001092E3186BEF7FEF7093E2186093E118BB
:1037C00079C9033DA1E01A070CF0A8C964EB70E0C9
:1037D0007093E8186093E7181092E4181092E318B9
:1037E0006BEF7FEF7093E2186093E11897C908338D
:1037F000A2E01A070CF4A4CA1092E2181092E11881
:103800009FCA0833E2E01E070CF4C3CA1092E21804
:103810001092E118BECA033DE1E01E070CF0E9CAB0
:103820001092E2181092E118E4CA033DE1E01E078D
:103830000CF00FCB1092E2181092E1180ACB08336B
:10384000E2E01E070CF435CB1092E2181092E1185A
:1038500030CB0833E2E01E070CF45BCB1092E21889
:103860001092E11856CB0833E2E01E070CF481CB2E
:103870001092E2181092E1187CCB0833E2E01E07A8
:103880000CF4A7CB1092E2181092E118A2CBC73C1F
:10389000E1E0DE070CF085CC86E490E09093E6183A
:1038A0008093E5188BEF9FEFA8CCC73CE1E0DE07E3
:1038B0000CF0ABCC86E490E09093E6188093E5188A
:1038C0008BEF9FEFCECCC73CE1E0DE070CF0D1CC14
:1038D00086E490E09093E6188093E5188BEF9FEFD5
:1038E000F8CCC73CE1E0DE070CF0FBCC86E490E0CE
:1038F0009093E6188093E5188BEF9FEF23CDCC32A1
:10390000E2E0DE072CF4C73CE1E0DE0754F022CD14
:1039100086E490E09093E6188093E51885E090E0C7
:1039200008C086E490E09093E6188093E5188BEF4A
:103930009FEF9093E4188093E31805C0033D81E066
:1039400018070CF04CCD1092E2181092E11847CDF8
:10395000083382E0180794F384E190E09093E8182C
:103960008093E71885E090E09093E2188093E11847
:103970001092E4181092E31832CD8EE190E090930B
:10398000E6188093E51885E090E008C08EE190E0AD
:103990009093E6188093E5188BEF9FEF9093E418CF
:1039A0008093E31805C0033D61E016070CF089CD54
:1039B0001092E2181092E11884CD083362E01607E5
:1039C00094F38CED90E09093E8188093E71885E0ED
:1039D00090E09093E2188093E1181092E41810920E
:1039E000E3186FCD033D61E016070CF09ECD1092F9
:1039F000E2181092E11899CD033D11400CF0C4CDAE
:103A00001092E2181092E118BFCDCC32E2E0DE074E
:103A100024F01092E4181092E318083362E01607BD
:103A20003CF085E090E09093E2188093E11808C0A4
:103A3000033D81E0180724F41092E2181092E11877
:103A4000C73CA1E0DA0714F00C94240F8EE091E05B
:103A50009093E6188093E5188BEF9FEF9093E4180E
:103A60008093E3181092E2181092E1180C94240F3E
:103A7000033DA1E01A0714F00C943E0F8BEF9FEF6B
:103A80009093E2188093E1180C943E0FCC32E2E060
:103A9000DE073CF01092E2181092E11885E090E009
:103AA0000AC0C73C61E0D60754F41092E2181092A5
:103AB000E1188BEF9FEF9093E4188093E31808339D
:103AC00082E0180714F40C94830F8AE590E0A4CDEB
:103AD000DF91CF911F910F910895CF92DF92EF92D6
:103AE000FF920F931F93CF93DF9368EE73E080E014
:103AF00090E00E94D62A81E090E09093C0188093D5
:103B0000BF18C6E0D2E063E070E080E090E00E9481
:103B1000E9326993799382E0CE32D807A1F7C6E003
:103B2000D2E0699179914AE050E082EA99E10E94FD
:103B3000BD2DA2E0CE32DA07A1F782EA99E10E9418
:103B4000E52C61E08DE00E94112C61E08CE00E9488
:103B5000112C61E08BE00E94112C68EE73E080E094
:103B600090E00E94D62A60E08DE00E94112C60E077
:103B70008CE00E94112C60E08BE00E94112C60ED23
:103B800077E080E090E00E94D62A01E010E086E035
:103B9000E82E82E0F82EC0E0D0E0C017D10734F55F
:103BA0006701D701ED91FD917D01EE0FFF1FE658F2
:103BB000FC4F61E080810E94112C6CEB72E080E090
:103BC00090E00E94D62AD601ED91FC91EE0FFF1FE6
:103BD000E658FC4F60E080810E94112C64EF71E098
:103BE00080E090E00E94D62A2196D7CFC0E0D0E0B6
:103BF000C017D10709F58E010F5F1F4F6091BF18E5
:103C00007091C018072E000C880B990B0E949744E6
:103C100020E030E040E05FE30E94F3430E945F4415
:103C20007093C0186093BF186CE271E080E090E080
:103C30000E94D62AF12C02C0FF24F39488E00E944F
:103C4000412C892B51F4FE01EE0FFF1FEA5FFD4F5F
:103C500080819181892B09F460C087E00E94412C0A
:103C6000892B51F4FE01EE0FFF1FEA5FFD4F8081AB
:103C70009181019709F468C083E00E94412C892B4F
:103C800051F4FE01EE0FFF1FEA5FFD4F808191812D
:103C9000029709F470C088E00E94412C892B51F4EE
:103CA000FE01EE0FFF1FEA5FFD4F80819181892B9E
:103CB00009F078C087E00E94412C892B51F4FE0165
:103CC000EE0FFF1FEA5FFD4F80819181019709F0A0
:103CD00069C083E00E94412C892B51F4FE01EE0F54
:103CE000FF1FEA5FFD4F80819181029709F05AC062
:103CF000F1107ECFC0E062E972E082EA99E10E94B1
:103D00000B2DCC2309F443CFDF91CF911F910F915D
:103D1000FF90EF90DF90CF90089561E08DE00E94DA
:103D2000112C21964AE050E0B80182EA99E10E9404
:103D3000C42D6CE271E080E090E00E94D62A60E041
:103D40008DE00E94112C89CF61E08CE00E94112C43
:103D500021964AE050E0B80182EA99E10E94C42D20
:103D60006CE271E080E090E00E94D62A60E08CE096
:103D70000E94112C81CF61E08BE00E94112C2196D2
:103D80004AE050E0B80182EA99E10E94C42D6CE259
:103D900071E080E090E00E94D62A60E08BE00E9413
:103DA000112C79CF61E08DE00E94112C61E08CE054
:103DB0000E94112C61E08BE00E94112C68EE73E0F0
:103DC00080E090E00E94D62A61E08DE00E94112CF4
:103DD00061E08CE00E94112C60E08BE00E94112CCD
:103DE00068EE73E080E090E00E94D62A61E08DE00A
:103DF0000E94112C60E08CE00E94112C60E08BE0AE
:103E00000E94112C68EE73E080E090E00E94D62AB8
:103E100060E08DE00E94112C60E08CE00E94112C8B
:103E200060E08BE00E94112C68EE73E080E090E08F
:103E30000E94D62A61E08DE00E94112C61E08CE0A6
:103E40000E94112C61E08BE00E94112C64EF71E064
:103E500080E090E00E94D62A60E08DE00E94112C64
:103E600060E08CE00E94112C60E08BE00E94112C3D
:103E700064EF71E080E090E00E94D62A61E08DE07E
:103E80000E94112C61E08CE00E94112C61E08BE01B
:103E90000E94112C64EF71E080E090E00E94D62A2D
:103EA00060E08DE00E94112C60E08CE00E94112CFB
:103EB00060E08BE00E94112C67E972E082EA99E1F0
:103EC0000E940B2D6CE271E080E090E00E94D62A07
:103ED000C1E011CFEF92FF920F93CF93DF932FEFBB
:103EE00049E06AE080E099E10E943A3B8CE2E82EEA
:103EF000FF24F39405E029E348E364E08CEE98E1C5
:103F00000E941F40C9EFD3E061E573E0CE010E943B
:103F10004F2E299687E0CD37D807B1F7C4EED3E00E
:103F200061E573E0CE010E944F2E279683E0C93FE2
:103F3000D807B1F7DF91CF910F91FF90EF900895DF
:103F4000CF93DF9382EF93E00E94E12D8BEE93E01D
:103F50000E94E12D84EE93E00E94E12DCDE7D7E0B1
:103F60002997CE010E94E12D83E0C93FD807C1F710
:103F7000DF91CF910895EF92FF920F931F93EE245C
:103F8000EA94FE2C00EF10E024EB30E040EF50E02C
:103F90006CE370E080E099E10E94DF340EE011E014
:103FA0002CE330E040EF50E06CE370E080E099E11A
:103FB0000E94DF3424EB30E040EF50E064EB70E02F
:103FC00080E099E10E94DF3424E130E04EE051E0EE
:103FD0006CE370E080E099E10E94DF342CED30E08A
:103FE0004EE051E064EB70E080E099E10E94DF3444
:103FF0000CE211E024E130E04EE051E064E170E0D9
:1040000080E099E10E94DF342CED30E04EE051E099
:104010006CED70E080E099E10E94DF342CED30E03F
:104020004CE251E064E170E080E099E10E94DF340D
:104030000EE011E02AE530E040EF50E06AE570E084
:1040400080E099E10E94DF3426E930E040EF50E063
:1040500066E970E080E099E10E94DF342EE630E00E
:104060004EE051E06AE570E080E099E10E94DF34C3
:1040700022E830E04EE051E066E970E080E099E14E
:104080000E94DF340CE211E02EE630E04EE051E019
:104090006EE670E080E099E10E94DF3422E830E0D3
:1040A0004EE051E062E870E080E099E10E94DF3488
:1040B00002ED10E02EE630E040EF50E06EE670E0FA
:1040C00080E099E10E94DF3422E830E040EF50E0E8
:1040D00062E870E080E099E10E94DF3424E130E0A2
:1040E00042ED50E06EE670E080E099E10E94DF343E
:1040F0002CED30E042ED50E062E870E080E099E1C4
:104100000E94DF3400EF10E024E130E042ED50E0A7
:1041100064E170E080E099E10E94DF342CED30E052
:1041200042ED50E06CED70E080E099E10E94DF34F8
:1041300028E230E040EF50E064E170E080E099E197
:104140000E94DF3428EC30E040EF50E06CED70E08E
:1041500080E099E10E94DF340EE011E028E230E0D7
:1041600040EF50E068E270E080E099E10E94DF34C7
:1041700028EC30E040EF50E068EC70E080E099E13E
:104180000E94DF340EE110E02CE330E040EF50E01D
:104190006CE370E080E099E10E94DF3424EB30E0D2
:1041A00040EF50E064EB70E080E099E10E94DF3482
:1041B0002EE630E04EE150E064E170E080E099E10D
:1041C0000E94DF342CED30E04EE150E062E870E018
:1041D00080E099E10E94DF3406E410E02EE630E052
:1041E0004EE150E06EE670E080E099E10E94DF343D
:1041F00022E830E04EE150E062E870E080E099E1D2
:104200000E94DF340EE610E024E130E04EE150E0A1
:1042100064E170E080E099E10E94DF342CED30E051
:104220004EE150E06CED70E080E099E10E94DF34F7
:1042300006E410E02CED30E046E450E064E170E08C
:1042400080E099E10E94DF340EE610E02CE330E0DC
:104250004EE650E064E170E080E099E10E94DF34D6
:104260002CED30E04EE650E064EB70E080E099E148
:104270000E94DF342AE530E046E450E06AE570E071
:1042800080E099E10E94DF3426E930E046E450E026
:1042900066E970E080E099E10E94DF342EE630E0CC
:1042A0004EE650E06AE570E080E099E10E94DF347C
:1042B00026E930E04EE650E062E870E080E099E107
:1042C0000E94DF3490EEE92EFF24FA9400EA10E019
:1042D0002AE530E040EA50E060E070E080E099E1FB
:1042E0000E94DF3420EF30E040EA50E066E970E001
:1042F00080E099E10E94DF3402ED10E02AE530E031
:1043000042E850E06AE570E080E099E10E94DF3425
:1043100026E930E042E850E066E970E080E099E1AB
:104320000E94DF3402E810E026E930E042E850E085
:104330006AE570E080E099E10E94DF342EE630E02B
:104340004EE650E06EE670E080E099E10E94DF34D6
:1043500022E830E04EE650E062E870E080E099E16B
:104360000E94DF340AEB10E026E930E04AEB50E02F
:104370006AE570E080E099E10E94DF341F910F91BF
:10438000FF90EF90089580912E0281110E94950771
:104390000E94BB1F6AE070E080E090E00C94D62A97
:1043A0000E94FC2A40E855E260E070E082EA99E170
:1043B0000E948F3182EA99E10E94602F62E082E0E0
:1043C0000E94D52B40E050E0BA0180E099E10E94C4
:1043D000FB3B61E08DE00E94D52B61E08CE00E9408
:1043E000D52B61E08BE00E94D52B60E088E00E9435
:1043F000D52B61E088E00E94112C60E087E00E94EC
:10440000D52B61E087E00E94112C60E083E00E94E0
:10441000D52B61E083E00E94112C60E08DE00E94CA
:10442000112C60E08CE00E94112C60E08BE00C9479
:10443000112C82E00E94412C892B69F465E972E01D
:1044400082EA99E10E940B2D82EA99E10E94602F95
:1044500081E08093E9180895CF92DF92EF92FF9266
:104460000F931F93CF93DF9360E070E080E099E1BA
:104470000E94C1346EE972E082EA99E10E940B2D3C
:1044800040E060E070E080E090E00E94470410E0CF
:1044900000E0C0E0D0E086E30E945E2B7C0182E079
:1044A0000E94412C6C0180E4E81682E0F8063CF0A2
:1044B0002196C330D10564F0C0E0D0E009C081ECA2
:1044C000E81681E0F80664F4219710F4C2E0D0E029
:1044D00040E0612F702FCE010E9447041C2F0D2F4A
:1044E000CD2831F4CE010E94EE04FF24F39401C0E4
:1044F000F12C64E670E080E090E00E94D62AFF2074
:1045000051F2DF91CF911F910F91FF90EF90DF90CB
:10451000CF9008950F931F93CF93DF93EC018B01FE
:1045200060E070E080E099E10E94C1344AE0B801A7
:10453000CE010E949D2E40E550E06AE070E080E0F0
:1045400099E10E94F23962E080E099E10E94F83935
:104550004FEF5FEF60E070E080E099E10E94FE398C
:1045600067EA72E080E099E10E94DC2CBE0180E005
:1045700099E10E94F92CCE01DF91CF911F910F910B
:104580000895AF92BF92CF92DF92EF92FF920F9376
:104590001F93CF93DF93CDB7DEB72E970FB6F89466
:1045A000DEBF0FBECDBF5C0160E070E080E099E14E
:1045B0000E94C13440E050E060E070E080E099E1AA
:1045C0000E94F23961E080E099E10E94F83940E010
:1045D00050E06FEF7FEF80E099E10E94FE3964EBDD
:1045E00072E080E099E10E94DC2C40E050E062E360
:1045F00070E080E099E10E94F23961E080E099E1A9
:104600000E94F83969EB72E080E099E10E94DC2CAD
:1046100040E050E064EB70E080E099E10E94F23904
:1046200061E080E099E10E94F83962EC72E080E09C
:1046300099E10E94DC2C89EFE82E83E0F82E08E057
:1046400010E0C12CD12C81E0A81AB108CA14DB04F7
:104650000CF06EC0EFEFCE1ADE0A4AE0B601CE01D2
:1046600008960E949D2EA80160E070E080E099E12C
:104670000E94F23961E080E099E10E94F839BE01C0
:10468000685F7F4F80E099E10E94A72CA80162E358
:1046900070E080E099E10E94F23961E080E099E108
:1046A0000E94F839B70180E099E10E94A72CA80187
:1046B00064EB70E080E099E10E94F23961E080E013
:1046C00099E10E94F839F701678170854AE0CE01CF
:1046D00001960E94CA2EBE016F5F7F4F80E099E174
:1046E0000E94F92C68EC72E082EA99E10E94DC2CCD
:1046F000B70182EA99E10E94A72C6BEA72E082EA94
:1047000099E10E94DC2CBE016F5F7F4F82EA99E144
:104710000E94F92CCE0101960E94E12DCE0108964F
:104720000E94E12D085F1F4FF9E0EF0EF11C8ECFC4
:104730002E960FB6F894DEBF0FBECDBFDF91CF919E
:104740001F910F91FF90EF90DF90CF90BF90AF90AF
:104750000895EF92FF920F931F9360E070E080E066
:1047600099E10E94C13440E550E06AE070E080E0E9
:1047700099E10E94F23964E080E099E10E94F83901
:1047800040EE5FEF60E070E080E099E10E94FE396A
:104790006FEC72E080E099E10E940B2DE12C88EF34
:1047A000F82E02E110E023E130E047EC50E06CE34A
:1047B00070E080E099E10E94E33A0EE010E021E130
:1047C00030E046EC50E06DE370E080E099E10E945B
:1047D000E33AEE24EA94FE2C07E010E026E030E015
:1047E00047EC50E06FE370E080E099E10E94E33A2B
:1047F00026E030E047EC50E065E470E080E099E1CD
:104800000E94E33AE12CF12C04E010E024E030E0D7
:1048100048EC50E061E470E080E099E10E94E33A06
:1048200024E030E048EC50E067E470E080E099E19B
:104830000E94E33AEE24EA9427E0F22E02E110E02F
:1048400023E130E047EC50E06AE570E080E099E178
:104850000E94E33A0EE010E021E130E046EC50E047
:104860006BE570E080E099E10E94E33AEE24EA947F
:10487000FE2C07E010E026E030E047EC50E06DE56C
:1048800070E080E099E10E94E33A26E030E047ECF6
:1048900050E063E670E080E099E10E94E33AE12CA9
:1048A000F12C04E010E024E030E048EC50E06FE54B
:1048B00070E080E099E10E94E33A24E030E048ECC7
:1048C00050E065E670E080E099E10E94E33A4FE154
:1048D000E42E48EFF42E02E110E023E130E047EC53
:1048E00050E068E770E080E099E10E94E33A0EE072
:1048F00010E021E130E046EC50E069E770E080E054
:1049000099E10E94E33AEE24EA94FE2C07E010E0DD
:1049100026E030E047EC50E06BE770E080E099E1A2
:104920000E94E33A26E030E047EC50E061E870E0B6
:1049300080E099E10E94E33AE12CF12C04E010E0E0
:1049400024E030E048EC50E06DE770E080E099E171
:104950000E94E33A24E030E048EC50E063E870E085
:1049600080E099E10E94E33A60E2E62E6DEFF62ED8
:1049700002E110E023E130E047EC50E066E970E04E
:1049800080E099E10E94E33A0EE010E021E130E09E
:1049900046EC50E067E970E080E099E10E94E33A7C
:1049A000EE24EA94FE2C07E010E026E030E047EC2D
:1049B00050E069E970E080E099E10E94E33A26E086
:1049C00030E047EC50E06FE970E080E099E10E9450
:1049D000E33AE12CF12C04E010E024E030E048EC74
:1049E00050E06BE970E080E099E10E94E33A24E056
:1049F00030E048EC50E061EA70E080E099E10E942C
:104A0000E33A00EE1FEF29E030E04FEC50E060ECBD
:104A100070E080E099E10E94BF3648E151E068E231
:104A200070E080E099E10E94F23961E080E099E174
:104A30000E94F83940E050E060EE7FEF80E099E1BD
:104A40000E94FE3969ED72E080E099E10E940B2D31
:104A500065EF72E082EA99E10E940B2D82E00E94EC
:104A6000412C892BD9F766E073E082EA99E11F9126
:104A70000F91FF90EF900C940B2DEF92FF920F93FC
:104A80001F93CF93DF9360E070E080E099E10E9494
:104A9000C134C8E7D0E0D093E818C093E71880EF9E
:104AA00090E09093E6188093E51800EE1FEF27E062
:104AB00030E040EF50E068E770E080E099E10E946C
:104AC000BF368FE1E82EF12C04E010E020EF30E05B
:104AD00046E351E060E070E080E099E10E94E33A53
:104AE00020EF30E04AE050E060E070E080E099E1E3
:104AF0000E94E33A0E94BB1F61E080E099E10E94BE
:104B0000F83960E080E099E10E94043A80912E0239
:104B1000882309F47CC080EA90E09093D4188093B5
:104B2000D31828EC30E03093D2182093D118D093CA
:104B3000D018C093CF183093CE182093CD1824E608
:104B400030E03093CC182093CB1846E450E05093DB
:104B5000CA184093C9189093C8188093C718309307
:104B6000C6182093C5181092C4181092C3189093B9
:104B7000C2188093C11800E018EF27E030E048EC3D
:104B800050E060EA70E080E099E10E94BF36409119
:104B9000CD185091CE186091CF187091D0180FE1B8
:104BA00018EF27E030E080E099E10E94BF364091A5
:104BB000C9185091CA186091CB187091CC180FEF9A
:104BC00017E027E030E080E099E10E94BF36409195
:104BD000C5185091C6186091C7187091C81800E2A6
:104BE0001DEF27E030E080E099E10E94BF36409160
:104BF000C1185091C2186091C3187091C4180FEF7A
:104C00001FEF27E030E080E099E10E94BF36DF919E
:104C1000CF911F910F91FF90EF9008952F923F92A7
:104C20004F925F926F927F928F929F92AF92BF92BC
:104C3000CF92DF92EF92FF920F931F93CF93DF9368
:104C4000CDB7DEB7A2970FB6F894DEBF0FBECDBFCB
:104C500082E00E94412C8C0186E30E945E2B87E358
:104C60000E945E2B8091DB189091DC18019709F06F
:104C70005FC080917D0790917E07883C91050CF084
:104C800057C061E08CE00E94112C80917D079091CB
:104C90007E0726E1289FF001299FF00D1124E1589D
:104CA000F84F2091E7183091E81831832083209144
:104CB000E5183091E618338322832091D318309180
:104CC000D418358324832091D1183091D21837839A
:104CD00026832091CF183091D018318720872091DA
:104CE000CD183091CE18338722872091CB18309180
:104CF000CC18358724872091C9183091CA18378776
:104D000026872091C7183091C818318B208B2091AD
:104D1000C5183091C618338B228B2091C31830915F
:104D2000C418358B248B019690937E0780937D0762
:104D30008091DB189091DC18009779F4012B89F4AD
:104D400065E173E082EA99E10E940B2D81E090E039
:104D50009093DC188093DB18CBC1019711F4012BE1
:104D600041F080917D0790917E078336910509F08F
:104D7000DDC16FE173E082EA99E10E940B2D109290
:104D8000DC181092DB1803E010E061E08DE00330E6
:104D9000110541F40E94112C61E08CE00E94112C5D
:104DA00061E00EC00230110521F40E94112C61E077
:104DB00003C00E94112C60E08CE00E94112C60E086
:104DC0008BE00E94112C6EE273E082EA99E10E946E
:104DD000DC2C4AE050E0B80182EA99E10E94BD2D46
:104DE00062E473E082EA99E10E940B2D01501109FF
:104DF00068EE73E080E090E00E94D62A011511056C
:104E000021F660E08DE00E94112C60E08CE00E94B1
:104E1000112C60E08BE00E94112CE0907D07F09057
:104E20007E0786E18E9D80018F9D100D1124C801A3
:104E30008158984F9AA389A3F7FCBCC0E9A1FAA1B5
:104E400000811181828193819C838B8394819D87D2
:104E5000E581EE87E9A1FAA1F681FF87E9A1FAA130
:104E6000F781F88BE9A1FAA1F085F98BE9A1FAA104
:104E7000F185FA8BE9A1FAA1F285FB8BE9A1FAA1F0
:104E8000F385FC8BE9A1FAA1F485FD8BE9A1FAA1D8
:104E9000F585FE8BE9A1FAA1F685FF8BE9A1FAA1C0
:104EA000F785F88FE9A1FAA1F089F98FE9A1FAA1B4
:104EB000F189FA8FE9A1FAA1F289FB8FE9A1FAA1A0
:104EC000F389FC8FE9A1FAA1F489FD8FE9A1FAA188
:104ED000F589FE8F89819A810817190729F4EB81DA
:104EE000FC81EC15FD05A9F1960149815A816B8180
:104EF0007C81C8010E9488059201A3016F85788991
:104F00008D859E850E94AB059401A5016B897C89E6
:104F100089899A890E94CE052F8138854D815E81CD
:104F20006F89788D8D899E890E94F1052B853C853E
:104F300049855A856B8D7C8D898D9A8D0E941406CA
:104F400020EA30E0A10160EA70E08D8D9E8D0E9424
:104F500037060E94BB1F6CE370E080E090E00E9487
:104F6000D62AF1E0EF1AF10889A19AA146979AA3EF
:104F700089A32F8E38A22D8C3E8C9B8D9B87EC8D28
:104F8000EC87F98DF9878A8D8A879F899F83E88DC1
:104F9000E887FD89FD838E898E838B889C88A9880C
:104FA000BA884F8458886D847E84CB80DC801A83D5
:104FB000098342CF10927E0710927D0780917F0770
:104FC000909180079093E8188093E718809181076B
:104FD000909182079093E6188093E518809183075B
:104FE000909184079093D4188093D318809185076B
:104FF000909186079093D2188093D118809187075B
:10500000909188079093D0188093CF18809189074A
:1050100090918A079093CE188093CD1880918B073A
:1050200090918C079093CC188093CB1880918D072A
:1050300090918E079093CA188093C91880918F071A
:10504000909190079093C8188093C718809191070A
:10505000909192079093C6188093C51880919307FA
:10506000909194079093C4188093C318E12CF12C6D
:1050700002E211E020EF30E044E150E060E070E057
:1050800080E099E10E94E33A960149815A81B60194
:10509000CA010E9488059201A301B201C3010E94C6
:1050A000AB059401A501B401C5010E94CE052F8175
:1050B00038854D815E81B901CA010E94F1052B85B9
:1050C0003C8549855A85B901CA010E94140620EA27
:1050D00030E04F8D58A160EA70E0C1010E943706B0
:1050E0000E94BB1F62E972E082EA99E10E940B2DE7
:1050F00064EF71E080E090E0A2960FB6F894DEBF16
:105100000FBECDBFDF91CF911F910F91FF90EF9018
:10511000DF90CF90BF90AF909F908F907F906F90D7
:105120005F904F903F902F900C94D62AA2960FB686
:10513000F894DEBF0FBECDBFDF91CF911F910F91CD
:10514000FF90EF90DF90CF90BF90AF909F908F90A7
:105150007F906F905F904F903F902F900895CF92E7
:10516000DF92EF92FF920F931F93CF93DF93CDB710
:10517000DEB7C250D2400FB6F894DEBF0FBECDBF2F
:105180008E010F5F1F4F68017601E01AF10A82EA73
:1051900099E10E94142F892BD1F382EA99E10E94B0
:1051A000402FF60181936F018A3071F7F801EE0DFF
:1051B000FF1D108263EF72E0C8010E946743FC018B
:1051C00080818E3479F563EF72E080E090E00E9498
:1051D0006743BC01CE018B509E4F0E944F2ECE01E3
:1051E0008B509E4F0E94082F70930502609304021B
:1051F00082EA99E10E94602F6FE473E082EA99E10C
:105200000E94DC2C48EE53E060E070E082EA99E115
:105210000E94DB2D82EA99E10E94602FCE018B5023
:105220009E4F67C0873509F067C063EF72E080E08A
:1052300090E00E946743BC01CE0184509E4F0E94C3
:105240004F2E63EF72E080E090E00E946743BC0164
:10525000CE018B509E4F0E944F2ECE018B509E4F01
:105260000E94082F6B017C012091E2033091E3033F
:1052700019E0129FC001139F900D1124BE016450CC
:105280007E4F87509C4F0E94652E8091E203909143
:10529000E303189FF001199FF00D1124E750FC4F14
:1052A000D086C78282EA99E10E94602F6FE473E0A2
:1052B00082EA99E10E94DC2C48EE53E060E070E065
:1052C00082EA99E10E94DB2D82EA99E10E94602F37
:1052D0008091E2039091E30301969093E30380931E
:1052E000E203CE018B509E4F0E94E12DCE018450EF
:1052F0009E4F0E94E12D05C0853419F481E0809312
:10530000EA18CE5FDD4F0FB6F894DEBF0FBECDBFFB
:10531000DF91CF911F910F91FF90EF90DF90CF9091
:105320000895CF93DF933091EB182091EA18311153
:105330001CC0211120C0EC0162EC72E082EA99E10C
:105340000E94DC2C63EF72E082EA99E10E94DC2C7F
:10535000BE0182EA99E10E94F92C82EA99E10E9459
:10536000602F81E08093EB1806C0211104C0DF910B
:10537000CF910C94AF28DF91CF910895CF93DF9315
:10538000CDB7DEB72E970FB6F894DEBF0FBECDBFF8
:1053900088EE882E83E0982EA12CB12C1092E9186B
:1053A0001092EA181092EB181092E3031092E203A5
:1053B0000E94D0210E94A9230E9435040E942C2221
:1053C0000E94A52A2B013C010E943D250E94DE0976
:1053D0000E94C3210E944B050E940E268091D9187D
:1053E0009091DA18892B91F70E94A52A6B017C0114
:1053F000C418D508E608F70862E573E082EA99E187
:105400000E940B2DC701B601A50194010E943345EE
:105410002093DD183093DE184093DF185093E01886
:105420000E946D1D8091BF189091C0182091DD18C9
:105430003091DE18289FB001299F700D389F700DA4
:105440001124CE0108960E948A226BE573E082EA5D
:1054500099E10E940B2D8091EA18811110C0BE01C4
:10546000685F7F4FCE0101960E947C2ECE0101968F
:105470000E949129CE0101960E94E12DECCF69E6B0
:1054800073E082EA99E10E940B2D809104029091D1
:1054900005020E94C1228091E918811103C00E9477
:1054A0001922F9CF82EA99E10E94602FCE01089675
:1054B0000E94E12D73CF1F920F920FB60F9211240D
:1054C0002F933F938F939F93AF93BF938091341902
:1054D00090913519A0913619B0913719309133193F
:1054E00023E0230F2D3720F40196A11DB11D05C027
:1054F00026E8230F0296A11DB11D20933319809336
:10550000341990933519A0933619B09337198091B7
:10551000381990913919A0913A19B0913B19019617
:10552000A11DB11D8093381990933919A0933A1990
:10553000B0933B19BF91AF919F918F913F912F9164
:105540000F900FBE0F901F9018952FB7F894609191
:1055500034197091351980913619909137192FBFF0
:1055600008953FB7F8948091381990913919A09116
:105570003A19B0913B1926B5A89B05C02F3F19F0E9
:105580000196A11DB11D3FBFBA2FA92F982F8827C3
:10559000820F911DA11DB11DBC01CD0142E0660F1E
:1055A000771F881F991F4A95D1F70895CF92DF92F0
:1055B000EF92FF92CF93DF936B017C010E94B12A9F
:1055C000EB01C114D104E104F10479F00E94B12A85
:1055D0006C1B7D0B683E7340A0F381E0C81AD108B4
:1055E000E108F108C851DC4FECCFDF91CF91FF907B
:1055F000EF90DF90CF900895789484B5826084BD59
:1056000084B5816084BD85B5826085BD85B58160C6
:1056100085BDEEE6F0E0808181608083E1E8F0E026
:105620001082808182608083808181608083E0E855
:10563000F0E0808181608083E1EBF0E08081846034
:105640008083E0EBF0E0808181608083E1E9F0E03D
:10565000808182608083808181608083E0E9F0E0E6
:10566000808181608083E1EAF0E0808182608083D4
:10567000808181608083E0EAF0E0808181608083C6
:10568000E1E2F1E0808182608083808181608083BB
:10569000E0E2F1E0808181608083EAE7F0E08081F0
:1056A0008460808380818260808380818160808348
:1056B0008081806880831092C1000895863308F04D
:1056C000865390917B00282F2870977F922B909380
:1056D0007B00877020912F0290E4299F9001112474
:1056E000822B80937C0080917A00806480937A0082
:1056F00080917A0086FDFCCF80917800209179001E
:1057000090E0922B089590E0FC013197E131F10592
:1057100008F04AC08827EE58FF4F8F4F0C9474450D
:10572000809180008F7703C0809180008F7D80936F
:105730008000089584B58F7702C084B58F7D84BDC5
:1057400008958091B0008F7703C08091B0008F7D65
:105750008093B0000895809190008F7707C080916A
:1057600090008F7D03C080919000877F8093900090
:1057700008958091A0008F7707C08091A0008F7D51
:1057800003C08091A000877F8093A000089580913E
:1057900020018F7707C0809120018F7D03C0809109
:1057A0002001877F809320010895CF93DF9390E0BD
:1057B000FC01EC5DFD4F2491FC01E659FD4F849105
:1057C000882361F190E0880F991FFC01EC51FD4F97
:1057D000C591D491FC01E653FD4FA591B49161119F
:1057E00009C09FB7F8948881209582238883EC9123
:1057F0002E230BC0623061F49FB7F8943881822F5A
:10580000809583238883EC912E2B2C939FBF06C019
:105810008FB7F894E8812E2B28838FBFDF91CF912B
:1058200008951F93CF93DF93282F30E0F901E252C0
:10583000FE4F8491F901EC5DFD4FD491F901E659D9
:10584000FD4FC491CC23C9F0162F81110E94832BE8
:10585000EC2FF0E0EE0FFF1FE653FD4FA591B49142
:105860008FB7F894111105C09C91ED2FE095E923B5
:1058700002C0EC91ED2BEC938FBFDF91CF911F9184
:105880000895CF93DF93282F30E0F901E252FE4FC5
:105890008491F901EC5DFD4FD491F901E659FD4F7A
:1058A000C491CC2391F081110E94832BEC2FF0E066
:1058B000EE0FFF1FE055FD4FA591B491EC91ED2344
:1058C00081E090E021F480E002C080E090E0DF9190
:1058D000CF910895CF92DF92EF92FF920F931F9393
:1058E000CF93DF936C01EB017B01E40EF51E00E02A
:1058F00010E0CE15DF0561F06991D601ED91FC91C4
:105900000190F081E02DC6011995080F191FF1CF04
:10591000C801DF91CF911F910F91FF90EF90DF9021
:10592000CF9008956115710579F0FB010190002079
:10593000E9F73197AF01461B570BDC01ED91FC9164
:105940000280F381E02D199480E090E00895AF92F9
:10595000BF92CF92DF92EF92FF920F931F93CF935C
:10596000DF936C017B01C0E0D0E000E010E0D701E4
:1059700014968D919C911597C817D90788F4D60174
:10598000ED91FC91A080B180BE01C7010E94F72E6D
:10599000682FC601F5011995080F191F2196E7CF49
:1059A000C801DF91CF911F910F91FF90EF90DF9091
:1059B000CF90BF90AF9008950C94922CDC01ED91A4
:1059C000FC910190F081E02D19940F931F93CF93D8
:1059D000DF93EC016DE00E94DE2C8C016AE0CE01C9
:1059E0000E94DE2C800F911FDF91CF911F910F91AC
:1059F00008950F931F93CF93DF93EC010E94A72C80
:105A00008C01CE010E94E52C800F911FDF91CF9178
:105A10001F910F9108950F931F93CF93DF93EC0184
:105A20000E94922C8C01CE010E94E52C800F911FC8
:105A3000DF91CF911F910F9108958F929F92AF9216
:105A4000BF92CF92DF92EF92FF920F931F93CF936B
:105A5000DF93CDB7DEB7A1970FB6F894DEBF0FBEC8
:105A6000CDBF6C01142FE52FCB01022F19A22230DC
:105A700008F40AE07E0121E2E20EF11C802E912C56
:105A8000A12CB12C612F7E2FA50194010E943345DA
:105A9000029F1019112481E0E81AF1081A3014F459
:105AA000105D01C0195CF7011083122FE32FCA01AA
:105AB000232B242B252B31F7B701C6010E94922CF2
:105AC000A1960FB6F894DEBF0FBECDBFDF91CF9188
:105AD0001F910F91FF90EF90DF90CF90BF90AF900C
