:100000000C9402040C9433040C9433040C943304C5
:100010000C9433040C9433040C9433040C94330484
:100020000C9433040C9433040C9433040C94330474
:100030000C9433040C9433040C9433040C94330464
:100040000C9433040C9433040C9433040C94330454
:100050000C9433040C9433040C9433040C94B6279E
:100060000C9433040C940B2D0C94D72D0C94330466
:100070000C9433040C9433040C9433040C94330424
:100080000C9433040C9433040C9433040C94330414
:100090000C943E2D0C94162E0C9433040C943304C3
:1000A0000C9433040C9433040C9433040C943304F4
:1000B0000C9433040C9433040C9433040C943304E4
:1000C0000C9433040C9433040C9433040C94712D6D
:1000D0000C94552E0C9433040C94A42D0C94942E53
:1000E0000C943304F528F828EB28EF282F29FC2856
:1000F000002906290A290E29142918291C292F2923
:10010000222926292A290C94F6300C9490310C943B
:100110008F370C942F290C9432370C94582C0C9454
:10012000D03C0C942D300C94D7300C940A290C94AC
:10013000D4320C94FC280C9406290C9426290C9497
:10014000682C0C940E290C945B2F0C9406310C94A3
:1001500022290C9446370C94AF2C0C94842C0C94CC
:1001600027370C94EB280C94EA300C941C290C943F
:10017000C9370C94A31D0C94553C0C943C360C943C
:1001800018290C94113B0C94EF280C9475320C94A4
:100190004C310C946D1D0C9459370C94DE300C943A
:1001A000D5320C9441380C94A42C0C94FF310C944F
:1001B00000290C94E1310C94F5280C942A290C9414
:1001C0005D3B0C94572C0C9403380C94C5290C946B
:1001D00014290C9407310C94F8280C94D6300000A4
:1001E000090A02080B0C0D070603040100000000B9
:1001F00000000000000000000000000000000000FF
:100200000000000000000000000011100F000000BE
:1002100000000000000000000000000000000000DE
:1002200000000000010210202008081020401020CB
:1002300040800201020108040201010204081020AA
:1002400040808040201008040201800402018040A8
:100250002010080402010804020101020408102011
:1002600040800102040810204080050505050705AF
:1002700008080808020202020A0A08080404040422
:10028000010101010101010103030303030303034E
:10029000040707070C0C0C0C0C0C0C0C02020202DD
:1002A00006060606060606060B0B0B0B0B0B0B0BC6
:1002B000000020002300260029002C002F0032001F
:1002C00000010000030106010901000022002500D1
:1002D00028002B002E00310034000201000005012F
:1002E00008010B0100002100240027002A002D0036
:1002F0003000330001010000040107010A01000081
:100300000000003E5B4F5B3E3E6B4F6B3E1C3E7CF5
:100310003E1C183C7E3C181C577D571C1C5E7F5EA3
:100320001C00183C1800FFE7C3E7FF001824180062
:10033000FFE7DBE7FF30483A060E262979292640F9
:100340007F050507407F05253F5A3CE73C5A7F3E25
:100350001C1C08081C1C3E7F14227F22145F5F00B7
:100360005F5F06097F017F006689956A6060606053
:100370006094A2FFA29408047E040810207E20103E
:1003800008082A1C08081C2A08081E101010100C47
:100390001E0C1E0C30383E3830060E3E0E06000095
:1003A00000000000005F00000007000700147F1439
:1003B0007F14242A7F2A12231308646236495620A8
:1003C000500008070300001C2241000041221C00CD
:1003D0002A1C7F1C2A08083E08080080703000088C
:1003E00008080808000060600020100804023E5160
:1003F00049453E00427F40007249494946214149F2
:100400004D331814127F1027454545393C4A494958
:100410003141211109073649494936464949291EC2
:1004200000001400000040340000000814224114B1
:1004300014141414004122140802015909063E4103
:100440005D594E7C1211127C7F494949363E41412B
:1004500041227F4141413E7F494949417F09090984
:10046000013E414151737F0808087F00417F4100F0
:100470002040413F017F081422417F404040407F9F
:10048000021C027F7F0408107F3E4141413E7F09EC
:100490000909063E4151215E7F091929462649492D
:1004A000493203017F01033F4040403F1F2040206D
:1004B0001F3F4038403F631408146303047804036B
:1004C0006159494D43007F41414102040810200019
:1004D0004141417F0402010204404040404000038A
:1004E00007080020545478407F2844443838444456
:1004F0004428384444287F385454541800087E094E
:100500000218A4A49C787F0804047800447D40006D
:100510002040403D007F1028440000417F40007C87
:10052000047804787C080404783844444438FC187F
:1005300024241818242418FC7C0804040848545463
:10054000542404043F44243C4040207C1C20402090
:100550001C3C4030403C44281028444C9090907CF7
:100560004464544C44000836410000007700000009
:100570004136080002010204023C2623263C1EA14B
:10058000A161123A4040207A3854545559215555AA
:100590007941225454784221555478402054557959
:1005A000400C1E52721239555555593954545459EC
:1005B00039555454580000457C410002457D4200A5
:1005C00001457C407D1211127DF0282528F07C54D5
:1005D0005545002054547C547C0A097F49324949CE
:1005E00049323A4444443A324A4848303A41412137
:1005F0007A3A42402078009DA0A07D3D4242423D93
:100600003D4040403D3C24FF2424487E4943662B26
:100610002FFC2F2BFF0929F620C0887E09032054C8
:100620005479410000447D413048484A32384040C6
:10063000227A007A0A0A727D0D19317D2629292F26
:1006400028262929292630484D402038080808083E
:1006500008080808382F10C8ACBA2F102834FA0040
:10066000007B000008142A142222142A14085500C2
:10067000550055AA55AA55AAFF55FF55FF00000081
:10068000FF00101010FF00141414FF001010FF00E2
:10069000FF1010F010F0141414FC001414F700FFF5
:1006A0000000FF00FF1414F404FC141417101F10B2
:1006B000101F101F1414141F00101010F000000061
:1006C000001F101010101F10101010F0100000006C
:1006D000FF101010101010101010FF10000000FF7D
:1006E000140000FF00FF00001F10170000FC04F4BE
:1006F00014141710171414F404F40000FF00F71476
:10070000141414141414F700F714141417141010FC
:100710001F101F141414F4141010F010F000001F18
:10072000101F0000001F14000000FC140000F01057
:10073000F01010FF10FF141414FF141010101F00FD
:10074000000000F010FFFFFFFFFFF0F0F0F0F0FFFF
:10075000FFFF0000000000FFFF0F0F0F0F0F3844D6
:10076000443844FC4A4A4A347E02020606027E02AB
:100770007E0263554941633844443C04407E201E58
:100780002006027E020299A5E7A5991C2A492A1C87
:100790004C7201724C304A4D4D303048784830BC74
:1007A000625A463D3E494949007E0101017E2A2A9E
:1007B0002A2A2A44445F444440514A444040444A1F
:1007C00051400000FF0103E080FF000008086B6B50
:1007D000083612362436060F090F060000181800D6
:1007E00000001010003040FF0101001F01011E0039
:1007F000191D1712003C3C3C3C00000000006D1D20
:100800005B2FA31D11241FBECFEFD1E2DEBFCDBFF2
:1008100000E00CBF13E0A0E0B2E0E4E4F2E800E0A6
:100820000BBF02C007900D92AE3BB107D9F723E191
:10083000AEEBB3E001C01D92AC32B207E1F713E0BA
:10084000C1E0D4E000E006C021970109802FFE013D
:100850000E94EA40CF3FD10780E00807A9F70E9435
:1008600029270C942A400C9400006AE072E082EC84
:1008700093E00E94CA2B61E172E089EC93E00E9450
:10088000CA2B6AE172E080ED93E00C94CA2BDF92F0
:10089000EF92FF920F931F93CF93DF937C018B0115
:1008A000C42F61E272E086EE90E10E94662A48E27F
:1008B00050E062E070E084E490E10E94123762E070
:1008C00084E490E10E94183740E050E06FEF7FEF42
:1008D00084E490E10E941E376EE272E084E490E1CD
:1008E0000E94662A44E650E060E070E084E490E113
:1008F000CC2309F445C00E94123763E084E490E100
:100900000E9418370E151F0509F460C0C0E0D0E042
:1009100087E0D82ECE15DF0571F44FEF5FEF60E072
:1009200070E084E490E10E941E37DC9EB001DD9E01
:10093000700D112411C040E050E06FEF7FEF84E4B0
:1009400090E1C017D10779F40E941E37DC9EC001E8
:10095000DD9E900D1124BC016E537C4F84E490E128
:100960000E94542A08C00E941E3764E373E084E4A6
:1009700090E10E94662A2196C330D10559F626C01F
:100980000E94123763E084E490E10E94183702EC81
:1009900013E0C0E0D0E0CE15DF0529F44FEF5FEFA4
:1009A00060E070E004C040E050E06FEF7FEF84E46F
:1009B00090E10E941E37B80184E490E10E94542A1D
:1009C0002196095F1F4FC330D10529F7DF91CF91E1
:1009D0001F910F91FF90EF90DF900895009779F4A9
:1009E00087E090E090931E1080931D1081E090E0CE
:1009F00090931C1080931B1082E090E01FC0813008
:100A0000910569F485E090E090931E1080931D108D
:100A100082E090E090931C1080931B100FC08230F6
:100A2000910589F423E030E030931E1020931D10CF
:100A300090931C1080931B1085E090E090931A1007
:100A400080931910089562E472E086EE90E10C94B0
:100A5000662A841B950B06960D97E0F4621B730BB8
:100A60006A5F7F4F6D307105A8F480911D109091E1
:100A70001E10019790931E1080931D1068E572E080
:100A800086EE90E10E94662A68EC70E080E090E0DB
:100A90000C9431280895CF93DF93CDB7DEB7279715
:100AA0000FB6F894DEBF0FBECDBF60911D107091E0
:100AB0001E104AE0CE0101960E94E12B40E050E07A
:100AC00060E070E084E490E10E94123761E084E429
:100AD00090E10E9418376CE572E084E490E10E9496
:100AE000372A60911D1070911E104AE050E084E496
:100AF00090E10E94182BCE0101960E94252B27968B
:100B00000FB6F894DEBF0FBECDBFDF91CF91089531
:100B1000EF92FF920F931F93CF93DF93EC017B0132
:100B2000BA01A90100E010E027E030E084E490E1A0
:100B30000E94DF3300EE1FEF27E030E0A701BE0187
:100B400084E490E10E94DF33DF91CF911F910F91F8
:100B5000FF90EF900895EF92FF920F931F93CF9322
:100B6000DF93EC017B01BA01A90100E010E027E06E
:100B700030E084E490E10E94DF3300E018EF27E0EA
:100B800030E0A701BE0184E490E10E94DF33DF91F1
:100B9000CF911F910F91FF90EF900895EF92FF92E8
:100BA0000F931F93CF93DF93EC017B01BA01A9014F
:100BB00000E010E027E030E084E490E10E94DF33C1
:100BC0000FE118EF27E030E0A701BE0184E490E1D7
:100BD0000E94DF33DF91CF911F910F91FF90EF9033
:100BE0000895EF92FF920F931F93CF93DF93EC0141
:100BF0007B01BA01A90100E010E027E030E084E4C5
:100C000090E10E94DF330FEF17E027E030E0A7010B
:100C1000BE0184E490E10E94DF33DF91CF911F9108
:100C20000F91FF90EF900895EF92FF920F931F9313
:100C3000CF93DF93EC017B01BA01A90100E010E042
:100C400027E030E084E490E10E94DF3300E21DEF12
:100C500027E030E0A701BE0184E490E10E94DF3389
:100C6000DF91CF911F910F91FF90EF900895EF9238
:100C7000FF920F931F93CF93DF93EC017B01BA0197
:100C8000A90100E010E027E030E084E490E10E9458
:100C9000DF330FEF1FEF27E030E0A701BE0184E450
:100CA00090E10E94DF33DF91CF911F910F91FF9070
:100CB000EF900895841B950B97FF08C080911B103F
:100CC00090911C1091958195910906C0892B41F056
:100CD00080911B1090911C1090930410809303102E
:100CE000621B730B77FF08C080911B1090911C1042
:100CF00091958195910906C0672B41F080911B1059
:100D000090911C1090930210809301102091171065
:100D1000309118108091031090910410820F931F4E
:100D20009093181080931710209115103091161081
:100D30008091011090910210820F931F90931610D2
:100D4000809315100895841B950B97FF08C0809120
:100D50001B1090911C1091958195910906C0892BCB
:100D600041F080911B1090911C1090930010809383
:100D7000FF0F621B730B77FF08C080911B109091CF
:100D80001C1091958195910906C0672B41F08091C7
:100D90001B1090911C109093FE0F8093FD0F2091DB
:100DA0001310309114108091FF0F90910010820F5A
:100DB000931F909314108093131020911110309171
:100DC00012108091FD0F9091FE0F820F931F909350
:100DD0001210809311100895841B950B97FF08C083
:100DE00080911B1090911C1091958195910906C0DE
:100DF000892B41F080911B1090911C109093FC0F57
:100E00008093FB0F621B730B77FF08C080911B1050
:100E100090911C1091958195910906C0672B41F026
:100E200080911B1090911C109093FA0F8093F90FF2
:100E300020910F10309110108091FB0F9091FC0FBA
:100E4000820F931F9093101080930F1020910D101C
:100E500030910E108091F90F9091FA0F820F931F2D
:100E600090930E1080930D100895841B950B97FF9F
:100E700008C080911B1090911C109195819591094B
:100E800006C0892B41F080911B1090911C1090930B
:100E9000F80F8093F70F621B730B77FF08C08091E8
:100EA0001B1090911C1091958195910906C0672B9C
:100EB00041F080911B1090911C109093F60F80933D
:100EC000F50F20910B1030910C108091F70F90913D
:100ED000F80F820F931F90930C1080930B102091AA
:100EE000091030910A108091F50F9091F60F820F42
:100EF000931F90930A108093091008952091071072
:100F0000309108108091191090911A10820F931F40
:100F1000813F91052CF49093081080930710089559
:100F2000109208101092071008952F923F924F923E
:100F30005F926F927F928F929F92AF92BF92CF9269
:100F4000DF92EF92FF920F931F93CF93DF9300D026
:100F50001F92CDB7DEB780911710909118109C8327
:100F60008B830091151010911610A0901310B09063
:100F700014108090111090901210E0900F10F090CB
:100F80001010C0900D10D0900E1040900B1050908B
:100F90000C106090091070900A10E0910710F09109
:100FA0000810FA83E98320900510309006106091B4
:100FB000291070912A109801AC0180912B1090910A
:100FC0002C100E945A06609115107091161098010D
:100FD0004B815C8180911710909118100E94AB0595
:100FE0002091151030911610409117105091181043
:100FF0006091291070912A1080912B1090912C10E3
:101000000E94290520911110309112104091131067
:10101000509114106091291070912A1080912B101A
:1010200090912C100E94A3066091111070911210E3
:101030009401A50180911310909114100E94CE0587
:1010400020911110309112104091131050911410F2
:101050006091291070912A1080912B1090912C1082
:101060000E94290520910D1030910E1040910F1013
:10107000509110106091291070912A1080912B10BE
:1010800090912C100E94EC0660910D1070910E1042
:101090009601A70180910F10909110100E94F10508
:1010A00020910D1030910E1040910F1050911010A2
:1010B0006091291070912A1080912B1090912C1022
:1010C0000E9429052091091030910A1040910B10BF
:1010D00050910C106091291070912A1080912B1062
:1010E00090912C100E9435076091091070910A10A0
:1010F0009301A20180910B1090910C100E94140694
:101100002091091030910A1040910B1050910C1051
:101110006091291070912A1080912B1090912C10C1
:101120000E9429050E947E076091051070910610AB
:10113000910149815A8180910710909108100E9475
:1011400037062091051030910610409107105091FC
:1011500008106091291070912A1080912B109091A5
:101160002C100E9429056091131070911410809129
:10117000171090911810861B970B06960D9708F57F
:1011800040911110509112108091151090911610ED
:10119000841B950B06960D97A0F400E010E027E065
:1011A00030E084E490E10E94DF3384E190E09093AA
:1011B0001410809313108EE190E09093121080939E
:1011C000111060910F107091101080911710909174
:1011D0001810861B970B06960D9708F540910D1079
:1011E00050910E108091151090911610841B950B44
:1011F00006960D97A0F400E010E027E030E084E4CC
:1012000090E10E94DF338CED90E09093101080937A
:101210000F108EE190E090930E1080930D1060916E
:101220000B1070910C108091171090911810861B64
:10123000970B06960D9708F54091091050910A10EA
:101240008091151090911610841B950B06960D97A2
:10125000A0F400E010E027E030E084E490E10E9498
:10126000DF3384E190E090930C1080930B108CE2BC
:1012700091E090930A108093091060910F10709183
:1012800010108091131090911410861B970B0696E6
:101290000D9708F540910D1050910E10809111108E
:1012A00090911210841B950B06960D97A0F400E008
:1012B00010E027E030E084E490E10E94DF338CED21
:1012C00090E09093101080930F108EE190E0909337
:1012D0000E1080930D1060910B1070910C10809186
:1012E000131090911410861B970B06960D9708F516
:1012F0004091091050910A10809111109091121094
:10130000841B950B06960D97A0F400E010E027E0F3
:1013100030E084E490E10E94DF3384E190E0909338
:101320000C1080930B108CE291E090930A10809344
:10133000091060910B1070910C1080910F1090911A
:101340001010861B970B06960D9708F54091091013
:1013500050910A1080910D1090910E10841B950BE6
:1013600006960D97A0F400E010E027E030E084E45A
:1013700090E10E94DF3384E190E090930C10809321
:101380000B108CE291E090930A10809309100F905B
:101390000F900F900F90DF91CF911F910F91FF90C1
:1013A000EF90DF90CF90BF90AF909F908F907F9005
:1013B0006F905F904F903F902F9008950F931F93E1
:1013C000CF93DF9386E30E94B9288C0187E30E94C4
:1013D000B928EC0182E00E949C2940912B10509189
:1013E0002C102091291030912A10CE01885C914058
:1013F0008336910550F4073362E0160734F4043D58
:1014000081E018074CF00C94681D0833A2E01A071D
:101410001CF085E090E006C0033DE1E01E073CF4CF
:101420008BEF9FEF909326108093251004C01092AD
:10143000261010922510CC3262E0D6071CF085E011
:1014400090E006C0C73C81E0D8073CF48BEF9FEFEB
:10145000909328108093271004C0109228101092A7
:101460002710CA01CD9787379105B0F4203F310589
:1014700099F430932A10209329101092261010927C
:101480002510942F852F453B510514F094EB80E0F7
:1014900090932B1080932C1080912B1090912C10F6
:1014A000FC0175976091291070912A10B79788F404
:1014B0006E30A1E07A0769F4109226101092251080
:1014C0008D33910514F08CE390E090932C10809371
:1014D0002B1080912B1090912C10FC01E55BF109F1
:1014E000B79790F46E30E1E07E0771F41092261009
:1014F000109225108F30A1E09A0714F08EE091E051
:1015000090932C1080932B1080912B1090912C1085
:10151000FC01EB55F109739788F46E30E1E07E072A
:1015200069F410922610109225108F36910514F050
:101530008EE690E090932C1080932B1080912B10CE
:1015400090912C10FC01E358F109739788F46E30E8
:10155000A1E07A0769F410922610109225108739BD
:10156000910514F086E990E090932C1080932B1055
:1015700080912B1090912C10FC017597E731F14070
:1015800090F46C32E1E07E0771F410922610109214
:1015900025108D32A1E09A0714F08CE291E090932F
:1015A0002C1080932B10603F710561F580912B10FA
:1015B00090912C10FC017597739770F4109226107F
:1015C0001092251070932A1060932910893291058A
:1015D000ACF088E290E012C0FC01E95CF109B79739
:1015E00088F4109226101092251070932A106093A0
:1015F0002910813F910514F080EF90E090932C101A
:1016000080932B10E0912910F0912A1080912B10DB
:1016100090912C10E23DF10509F5BC01655171096D
:101620006935710550F410922610109225108F36EE
:10163000910534F18EE690E023C0BC016358710936
:101640006935710508F04EC01092261010922510D1
:101650008D3D9105ACF08CED90E012C0EA3BF105B8
:10166000A1F4BC016B5571096B337105D8F510926B
:101670002610109225108739910514F086E990E024
:1016800090932C1080932B102DC0E03AF10551F56A
:10169000BC01615071096935710570F41092261012
:1016A000109225108B35910514F08AE590E0909307
:1016B0002C1080932B1075C0BC01675971096935D6
:1016C000710508F06EC01092261010922510BC0112
:1016D000813F910514F060EF70E070932C106093DF
:1016E0002B105FC080912B1090912C10E238F105E7
:1016F000A9F4BC016B5571096B33710508F05FC02B
:1017000010922610109225108739910514F086E961
:1017100090E090932C1080932B1051C0EE36F10581
:1017200009F03FC0BC016B5571096331710508F4C4
:1017300053C0BC01635871096331710558F41092AC
:10174000261010922510873991050CF45EC086E9A9
:1017500090E05BC0BC01655171096732710558F4B6
:1017600010922610109225108D3391050CF44DC067
:101770008CE390E04AC0BC01655B7109673271057A
:1017800008F047C01092261010922510BC018D3D24
:10179000910514F06CED70E070932C1060932B1099
:1017A00038C0E634F10559F480912B1090912C103B
:1017B000BC0165517109673C710558F51DC0EE31DA
:1017C000F10539F580912B1090912C10BC016551D9
:1017D00071096935710550F4109226101092251088
:1017E0008F36910594F08EE690E00FC0BC016358EF
:1017F00071096935710568F4109226101092251050
:101800008D3D910514F08CED90E090932C10809319
:101810002B1060912B1070912C10CF014F978F3EA1
:101820009105F0F46C33710551F410922810109268
:101830002710CF018F30E1E09E0774F00BC0643BAE
:10184000710571F41092281010922710CF01EF301B
:10185000F14014F08EE091E090932A1080932910CB
:101860008091291090912A10FC01EF50F1407D9752
:10187000E8F46431710549F4109228101092271091
:101880008D32E1E09E0774F00BC06C3D710571F480
:1018900010922810109227108D32A1E09A0714F0B0
:1018A0008CE291E090932A10809329108091291066
:1018B00090912A10FC01E15FF1097D97E8F46A3507
:1018C000710549F410922810109227108F30E1E032
:1018D0009E0774F00BC06639710571F410922810E0
:1018E000109227108F30A1E09A0714F08EE091E05B
:1018F00090932A10809329108091291090912A109A
:10190000FC01EF50F1407D97E8F46E36710549F423
:1019100010922810109227108D32E1E09E0774F08B
:101920000BC06238710571F41092281010922710C4
:101930008D32A1E09A0714F08CE291E090932A1086
:10194000809329108091291090912A10FC01E15F69
:10195000F1097D97E8F46832710549F41092281076
:10196000109227108F30E1E09E0774F00BC0683CA6
:10197000710571F410922810109227108F30A1E099
:101980009A0714F08EE091E090932A10809329102A
:101990008091291090912A10FC01E35DF1097D9757
:1019A000C8F46431710549F06C3D710531F06E3653
:1019B000710519F06238710569F4109228101092BF
:1019C0002710813F910514F080EF90E090932A104A
:1019D000809329108091291090912A10FC01EB5BD3
:1019E000F1097797B8F46A35710519F06639710510
:1019F00089F4109228101092271070932C10609385
:101A00002B10833D910514F082ED90E090932A1005
:101A1000809329108091291090912A10BC01615A5D
:101A200071096931710500F560912B1070912C10CE
:101A30006A35710529F410922810109227100BC0F6
:101A40006639710589F4109228101092271070934E
:101A50002C1060932B108B3B910514F08AEB90E0D7
:101A600090932A10809329108091291090912A1028
:101A7000BC01635871096D31710500F560912B103F
:101A800070912C106A35710529F41092281010926B
:101A900027100BC06639710589F410922810109236
:101AA000271070932C1060932B10813A910514F03D
:101AB00080EA90E090932A10809329108091291059
:101AC00090912A10BC016F5671096331710500F5C0
:101AD00060912B1070912C106E36710529F41092C4
:101AE0002810109227100BC06238710589F41092EB
:101AF00028101092271070932C1060932B108338AD
:101B0000910514F082E890E090932A1080932910B8
:101B10008091291090912A10BC016F5171096F3486
:101B2000710530F560912B1070912C1064317105A6
:101B300029F4109228101092271011C06C337105EF
:101B400031F0643B710519F06C3D710589F4109218
:101B500028101092271070932C1060932B108F3642
:101B6000910514F08EE690E090932A10809329104E
:101B70008091291090912A10BC016F517109673230
:101B8000710500F560912B1070912C106E36710567
:101B900029F410922810109227100BC0623871059A
:101BA00089F4109228101092271070932C106093D3
:101BB0002B108734910514F086E490E090932A105E
:101BC000809329108091291090912A10BC016754AC
:101BD00071096732710500F560912B1070912C101E
:101BE0006A35710529F410922810109227100BC045
:101BF0006639710589F4109228101092271070939D
:101C00002C1060932B108F36910514F08EE690E027
:101C100090932A108093291060912B1070912C10B2
:101C20008091291090912A106C33710549F5803FFD
:101C3000910531F5CC32E2E0DE0754F065E070E06A
:101C40007093281060932710109226101092251080
:101C5000B801635D71406536710550F06CE370E06A
:101C600070932C1060932B10109228101092271054
:101C7000C73C61E0D60724F4109228101092271078
:101C800060912B1070912C10643B710549F5803FD9
:101C9000910531F5CC32A2E0DA0724F01092281039
:101CA00010922710B801635D71406536710550F0E0
:101CB00064EB70E070932C1060932B10109228103E
:101CC00010922710C73CE1E0DE0754F46BEF7FEF82
:101CD00070932810609327101092261010922510F0
:101CE00060912B1070912C106C337105E1F48E30E3
:101CF000914009F008C1CC3282E0D80724F010925C
:101D00002810109227100833A2E01A0724F010922E
:101D1000261010922510C73CE1E0DE070CF0F3C05E
:101D20008EE091E0B2C0643B710531F58E30914098
:101D300009F0BDC0CC32E2E0DE0754F085E090E06F
:101D4000909328108093271010922610109225103F
:101D5000083382E0180724F0109226101092251004
:101D6000C73CA1E0DA070CF0A2C08EE091E09093AE
:101D70002A10809329105BC06431710509F05CC0A2
:101D80008E30914079F5CC3282E0D80754F085E06E
:101D900090E09093281080932710109226101092B4
:101DA00025100833A2E01A073CF085E090E09093FC
:101DB00026108093251008C0033DE1E01E0724F49F
:101DC0001092261010922510C73C81E0D80754F4D9
:101DD0008EE091E090932A108093291010922810A1
:101DE000109227108091291090912A108C329140E6
:101DF00009F05DC0CC32E2E0DE0754F085E090E00F
:101E0000909328108093271010922610109225107E
:101E1000083382E0180714F40C94F61A1092261076
:101E200010922510C73CE1E0DE070CF040C0109294
:101E30002810109227103BC06C3D7105A9F58E301B
:101E4000914011F40C94051D8091291090912A1055
:101E50008C32914009F057C0CC3262E0D60724F0B2
:101E60001092281010922710083382E0180714F4FB
:101E70000C94381D1092261010922510C73C61E07A
:101E8000D6070CF040C08CE291E090932A1080932A
:101E900029108BEF9FEF90932810809327101092BA
:101EA0002610109225102FC06A35710539F1663958
:101EB000710549F58091291090912A10803F910574
:101EC00011F5CC3282E0D8073CF010922610109227
:101ED000251085E090E00CC0C73CA1E0DA0714F0C3
:101EE0000C94041B10922610109225108BEF9FEF7C
:101EF00090932810809327100C94041B803F910529
:101F000011F40C94461D80912B1090912C1060912F
:101F1000291070912A108A359105C9F56E30E1E0DB
:101F20007E0709F094C0CC3282E0D8075CF01092B2
:101F300026101092251085E090E090932810809351
:101F400027100CC0C73CA1E0DA0744F41092261019
:101F50001092251010922810109227100833E2E0FA
:101F60001E072CF010922610109225100BC0033D76
:101F700081E018070CF06BC08BEF9FEF9093261059
:101F800080932510109228101092271060C0863977
:101F9000910549F56E30A1E07A0709F058C0C73CB9
:101FA000E1E0DE075CF410922610109225108BEF12
:101FB0009FEF90932810809327100CC0CC3282E0C2
:101FC000D80744F010922610109225101092281075
:101FD000109227100833A2E01A0724F6033DE1E02F
:101FE0001E0754F234C08E36910589F56E3081E0BB
:101FF000780769F5C73CA1E0DA073CF48BEF9FEF67
:10200000909328108093271008C0CC32E2E0DE07BE
:1020100044F010922810109227101092261010925F
:1020200025100833E2E01E0714F40C941C1B8EE606
:1020300090E090932C1080932B1010922810109207
:10204000271085E090E090932610809325108091D2
:102050002B1090912C108238910589F56E30A1E0FB
:102060007A0769F5CC32E2E0DE073CF085E090E0EB
:10207000909328108093271008C0C73C81E0D807B0
:1020800044F41092281010922710109226101092EB
:102090002510083382E0180714F40C94281B82E8FA
:1020A00090E090932C1080932B1010922810109297
:1020B000271085E090E09093261080932510809162
:1020C0002B1090912C108E36910579F56C32E1E051
:1020D0007E0759F5CC3282E0D8071CF085E090E00D
:1020E00006C0C73CA1E0DA0754F48BEF9FEF909352
:1020F0002810809327101092261010922510033D6F
:10210000A1E01A0714F00C94341B8EE690E0909333
:102110002C1080932B1010922810109227108BEF08
:102120009FEF909326108093251080912B10909113
:102130002C108238910579F56C3281E0780759F5D9
:10214000CC32A2E0DA071CF085E090E006C0C73C84
:10215000E1E0DE0754F48BEF9FEF9093281080931B
:1021600027101092261010922510033DE1E01E0763
:1021700014F00C94401B82E890E090932C10809314
:102180002B1010922810109227108BEF9FEF909336
:1021900026108093251080912B1090912C108897F9
:1021A00079F56E30A1E07A0759F5CC32E2E0DE072E
:1021B0001CF085E090E006C0C73C81E0D80754F4ED
:1021C0008BEF9FEF9093281080932710109226108A
:1021D00010922510033D81E0180714F00C944C1B5D
:1021E00088E290E090932C1080932B10109228108E
:1021F000109227108BEF9FEF90932610809325105D
:1022000080912B1090912C10883C910579F56E30BF
:10221000E1E07E0759F5CC3282E0D8071CF085E07A
:1022200090E006C0C73CA1E0DA0754F48BEF9FEFC3
:10223000909328108093271010922610109225104A
:10224000033DA1E01A0714F00C94581B88EC90E0B1
:1022500090932C1080932B1010922810109227101E
:102260008BEF9FEF909326108093251080912B1079
:1022700090912C108897B9F5603F7105A1F5CC328B
:1022800082E0D8072CF010922810109227100AC074
:10229000C73CA1E0DA0754F48BEF9FEF909328102E
:1022A000809327101092261010922510033DE1E034
:1022B0001E072CF4109226101092251014C008331B
:1022C00082E0180784F088E290E090932C108093CD
:1022D0002B10109228101092271085E090E0909318
:1022E00026108093251080912B1090912C10883C03
:1022F0009105B9F5603F7105A1F5CC32A2E0DA078E
:102300003CF085E090E0909328108093271008C05F
:10231000C73CE1E0DE0744F4109228101092271029
:102320001092261010922510033D81E018072CF41E
:10233000109226101092251014C00833A2E01A073C
:1023400084F088EC90E090932C1080932B101092E6
:1023500028101092271085E090E09093261080932B
:10236000251080912B1090912C10449781F5603F9F
:10237000710569F5CC32E2E0DE073CF085E090E0E3
:10238000909328108093271008C0C73C81E0D8079D
:1023900044F41092281010922710109226101092D8
:1023A0002510033DE1E01E0714F00C94641B84E14A
:1023B00090E090932C1080932B108BEF9FEF9093D5
:1023C00026108093251010922810109227108091CB
:1023D0002B1090912C108C3D910581F5603F71057B
:1023E00069F5C73CE1E0DE073CF48BEF9FEF90938B
:1023F00028108093271008C0CC3282E0D80744F020
:10240000109228101092271010922610109225106A
:10241000033D81E0180714F00C94701B8CED90E0E4
:1024200090932C1080932B108BEF9FEF909326109E
:1024300080932510109228101092271080912B1055
:1024400090912C10449781F5623D710569F5CC326D
:10245000E2E0DE073CF085E090E090932810809366
:10246000271008C0C73C81E0D80744F41092281018
:102470001092271010922610109225100833A2E017
:102480001A0714F40C947C1B84E190E090932C10B8
:1024900080932B1085E090E0909326108093251078
:1024A000109228101092271080912B1090912C10D0
:1024B0008C3D910581F5623D710569F5C73CE1E010
:1024C000DE073CF48BEF9FEF90932810809327104A
:1024D00008C0CC3282E0D80744F010922810109245
:1024E000271010922610109225100833E2E01E07E4
:1024F00014F40C94881B8CED90E090932C10809336
:102500002B1085E090E09093261080932510109278
:1025100028101092271080912B1090912C108E363D
:10252000910571F5603F710559F5C73CE1E0DE07A3
:102530001CF48BEF9FEF06C0CC3282E0D80754F03A
:1025400085E090E090932810809327101092261039
:1025500010922510033D81E0180714F00C94941B91
:102560008EE690E090932C1080932B108BEF9FEFD2
:102570009093261080932510109228101092271007
:1025800080912B1090912C108238910571F5603F4D
:10259000710559F5C73CE1E0DE071CF48BEF9FEFB6
:1025A00006C0CC3282E0D80754F085E090E09093EA
:1025B0002810809327101092261010922510033DAA
:1025C000A1E01A0714F00C94A01B82E890E090930D
:1025D0002C1080932B108BEF9FEF909326108093FD
:1025E0002510109228101092271080912B10909196
:1025F0002C108E36910581F5623D710569F5C73C59
:10260000E1E0DE073CF48BEF9FEF9093281080937E
:10261000271008C0CC3282E0D80744F0109228106E
:102620001092271010922610109225100833E2E025
:102630001E0714F40C94AC1B8EE690E090932C10C3
:1026400080932B1085E090E09093261080932510C6
:10265000109228101092271080912B1090912C101E
:102660008238910581F5623D710569F5CC32E2E071
:10267000DE073CF085E090E09093281080932710CF
:1026800008C0C73C81E0D80744F41092281010928B
:1026900027101092261010922510083382E0180798
:1026A00014F40C94B81B82E890E090932C10809363
:1026B0002B1085E090E090932610809325101092C7
:1026C00028101092271080912B1090912C10CC97ED
:1026D00009F040C0615D710963307105D8F5CC32F5
:1026E000E2E0DE074CF082ED90E090932A108093B8
:1026F000291085E090E00CC0C73C61E0D60784F467
:1027000082ED90E090932A10809329108BEF9FEF39
:102710009093281080932710109226101092251065
:102720000833A2E01A0714F00C94C41B033D81E0A7
:10273000180784F48BEF9FEF909326108093251059
:1027400010922810109227108CE390E090932C1098
:1027500080932B1060912B1070912C108091291078
:1027600090912A10643B710589F5823D910571F5C0
:10277000CC32A2E0DA071CF065E070E006C0C73C8E
:10278000E1E0DE0754F46BEF7FEF70932810609365
:10279000271010922610109225100833E2E01E0731
:1027A0000CF0F6C7033D61E0160784F46BEF7FEF92
:1027B0007093261060932510109228101092271005
:1027C00064EB70E070932C1060932B1060912B10D1
:1027D00070912C106A357105C9F5823D9105B1F5EE
:1027E000CC32A2E0DA071CF065E070E006C0C73C1E
:1027F000E1E0DE0754F46BEF7FEF709328106093F5
:1028000027101092261010922510083362E0160748
:102810004CF0109226101092251010922810109251
:10282000271014C0033DA1E01A0784F46AE570E0A4
:1028300070932C1060932B10109228101092271078
:102840006BEF7FEF709326106093251060912B1033
:1028500070912C1066397105A9F5823D910591F5AD
:10286000CC32E2E0DE071CF065E070E006C0C73C59
:1028700061E0D60754F46BEF7FEF709328106093FC
:10288000271010922610109225100833A2E01A0784
:102890002CF0109228101092271014C0033DE1E094
:1028A0001E0784F466E970E070932C1060932B107F
:1028B00010922810109227106BEF7FEF7093261064
:1028C0006093251060912B1070912C106A35710562
:1028D00051F58A3B910539F5CC3262E0D6075CF0C0
:1028E00065E070E070932810609327101092261016
:1028F0001092251008C0C73CA1E0DA0724F410921A
:10290000281010922710B801635D7140653671057B
:1029100050F06AE570E070932C1060932B101092C9
:1029200028101092271060912B1070912C1066398E
:10293000710551F58A3B910539F5C73CE1E0DE07A9
:102940005CF46BEF7FEF7093281060932710109268
:1029500026101092251008C0CC3262E0D60724F071
:102960001092281010922710B801635D71406536EF
:10297000710550F066E970E070932C1060932B1095
:10298000109228101092271060912B1070912C102B
:102990006A35710551F5803A910539F5C73CA1E0DA
:1029A000DA075CF46BEF7FEF7093281060932710C9
:1029B000109226101092251008C0CC32E2E0DE07FB
:1029C00024F01092281010922710B801635D714016
:1029D0006536710550F06AE570E070932C106093D5
:1029E0002B10109228101092271060912B107091CC
:1029F0002C106639710551F5803A910539F5CC32C4
:102A000062E0D6075CF065E070E070932810609398
:102A10002710109226101092251008C0C73CA1E084
:102A2000DA0724F41092281010922710B801635D81
:102A300071406536710550F066E970E070932C10B6
:102A400060932B10109228101092271060912B1079
:102A500070912C106C33710569F5803A910551F530
:102A6000CC32E2E0DE071CF065E070E006C0C73C57
:102A700061E0D60754F46BEF7FEF709328106093FA
:102A800027101092261010922510083362E01607C6
:102A90000CF481C66CE370E070932C1060932B10E3
:102AA00065E070E070932610609325101092281056
:102AB0001092271060912B1070912C10643B7105BF
:102AC00069F5803A910551F5CC32E2E0DE071CF061
:102AD00065E070E006C0C73C61E0D60754F46BEFD8
:102AE0007FEF709328106093271010922610109299
:102AF00025100833A2E01A070CF463C664EB70E0FB
:102B000070932C1060932B1065E070E0709326108A
:102B100060932510109228101092271060912B10AE
:102B200070912C10672BC9F5803A9105B1F5CC3224
:102B3000E2E0DE073CF065E070E0709328106093FF
:102B400027100EC0C73C61E0D60774F4109228101D
:102B50001092271060EF70E070932C1060932B1090
:102B600010922610109225100833A2E01A074CF09C
:102B700010922610109225101092281010922710F3
:102B80000CC0033DE1E01E0744F41092281010929F
:102B90002710109226101092251060912B10709122
:102BA0002C10603F7105B9F5803A9105A1F5CC3242
:102BB00062E0D6074CF010922C1010922B1010925D
:102BC0002810109227100AC0C73CA1E0DA0754F47D
:102BD0006BEF7FEF709328106093271010922610F0
:102BE000109225100833E2E01E074CF010922610D8
:102BF0001092251010922810109227100CC0033D3F
:102C000061E0160744F410922810109227101092D9
:102C100026101092251060912B1070912C106A359F
:102C2000710579F58238910561F5CC32A2E0DA07B9
:102C300054F065E070E070932810609327101092B4
:102C40002610109225100833E2E01E0754F06AE5C2
:102C500070E070932C1060932B101092281010923B
:102C60002710C73CE1E0DE0724F4109228101092F0
:102C70002710033D61E0160724F4109226101092ED
:102C8000251060912B1070912C106639710579F523
:102C90008238910561F5C73CA1E0DA0754F46BEF87
:102CA0007FEF7093281060932710109226101092D7
:102CB0002510083362E0160754F066E970E070935F
:102CC0002C1060932B101092281010922710CC32E9
:102CD000E2E0DE0724F01092281010922710033D46
:102CE00061E0160724F410922610109225106091CE
:102CF0002B1070912C106E36710511F582389105EC
:102D0000F9F4BE01675C71406536710520F01092E0
:102D1000261010922510033DA1E01A070CF067C59C
:102D20006EE670E070932C1060932B106BEF7FEFCA
:102D3000709326106093251010922810109227107F
:102D400060912B1070912C106238710511F582384A
:102D50009105F9F4BE01675C71406536710520F09C
:102D60001092261010922510033DE1E01E070CF092
:102D700048C562E870E070932C1060932B106BEFE5
:102D80007FEF7093261060932510109228101092F8
:102D9000271060912B1070912C106E36710549F53B
:102DA0008E36910531F5C73C61E0D6072CF41092C0
:102DB00026101092251008C0CC32A2E0DA0724F0C9
:102DC0001092281010922710083362E016070CF4B6
:102DD00022C56EE670E070932C1060932B1065E0B6
:102DE00070E07093261060932510109228101092B6
:102DF000271060912B1070912C106238710549F5E5
:102E00008E36910531F5CC3262E0D6072CF0109267
:102E100026101092251008C0C73CA1E0DA0724F460
:102E200010922810109227100833A2E01A070CF411
:102E3000FCC462E870E070932C1060932B1065E086
:102E400070E0709326106093251010922810109255
:102E5000271060912B1070912C106A35710549F57F
:102E60008E36910531F5CC3262E0D6072CF0109207
:102E700026101092251008C0C73CA1E0DA0724F400
:102E80001092281010922710033DE1E01E070CF06D
:102E9000D6C46AE570E070932C1060932B106BEF32
:102EA0007FEF7093261060932510109228101092D7
:102EB000271060912B1070912C106639710549F51F
:102EC0008E36910531F5C73C61E0D6072CF410929F
:102ED00026101092251008C0CC32A2E0DA0724F0A8
:102EE0001092281010922710033D61E016070CF095
:102EF000B0C466E970E070932C1060932B106BEFF8
:102F00007FEF709326106093251010922810109276
:102F1000271060912B1070912C106431710549F5C8
:102F20008E36910531F5CC3262E0D6072CF0109246
:102F300026101092251008C0C73CA1E0DA0724F43F
:102F40001092281010922710033DA1E01A070CF0F0
:102F50008AC464E170E070932C1060932B106BEFC7
:102F60007FEF709326106093251010922810109216
:102F7000271060912B1070912C106C3D710549F554
:102F80008E36910531F5C73C61E0D6072CF41092DE
:102F900026101092251008C0CC32A2E0DA0724F0E7
:102FA0001092281010922710033DE1E01E070CF04C
:102FB00064C46CED70E070932C1060932B106BEF79
:102FC0007FEF7093261060932510109228101092B6
:102FD000271060912B1070912C106C33710551F5F6
:102FE0008E36910539F5C73C61E0D6075CF46BEF8E
:102FF0007FEF709328106093271010922610109284
:10300000251008C0CC32A2E0DA0724F01092281074
:1030100010922710B801635D71406536710550F05C
:103020006CE370E070932C1060932B1010922810BA
:103030001092271060912B1070912C10643B710539
:1030400051F58E36910539F5CC32E2E0DE075CF0C1
:1030500065E070E07093281060932710109226109E
:103060001092251008C0C73C61E0D60724F41092E6
:10307000281010922710B801635D71406536710504
:1030800050F064EB70E070932C1060932B10109252
:1030900028101092271060912B1070912C10643121
:1030A000710551F58634910539F5CC32A2E0DA0785
:1030B0005CF065E070E07093281060932710109228
:1030C00026101092251008C0C73CE1E0DE0724F46A
:1030D0001092281010922710B801635D7140653678
:1030E000710550F064E170E070932C1060932B1028
:1030F000109228101092271060912B1070912C10B4
:103100006C3D710551F58634910539F5C73C61E098
:10311000D6075CF46BEF7FEF709328106093271055
:10312000109226101092251008C0CC32A2E0DA07C7
:1031300024F01092281010922710B801635D71409E
:103140006536710550F06CED70E070932C10609353
:103150002B10109228101092271060912B10709154
:103160002C106C33710521F06A357105D1F41DC046
:1031700086349105B1F40833E2E01E071CF0E5E067
:10318000F0E006C0033DA1E01A0754F5EBEFFFEFB6
:10319000F0932610E093251010922810109227101B
:1031A0001FC06E36710589F534C08634910569F506
:1031B000083382E018075CF085E090E090932610D9
:1031C0008093251010922810109227103DC0033DC7
:1031D000A1E01A07CCF5109226101092251034C0E9
:1031E000CC32A2E0DA070CF452C386E490E090936C
:1031F0002A108093291085E090E090932810809306
:10320000271010922610109225106238710589F54A
:1032100034C08634910569F5033D81E018075CF4FC
:103220008BEF9FEF9093261080932510109228101B
:103230001092271041C00833A2E01A07ECF1109257
:1032400026101092251038C0CC32E2E0DE070CF4D4
:103250002CC386E490E090932A108093291085E097
:1032600090E09093281080932710109226101092CF
:10327000251066397105A9F538C080912910909103
:103280002A108634910569F5033D81E018075CF446
:103290008BEF9FEF909326108093251010922810AB
:1032A0001092271042C00833A2E01A07F4F11092DE
:1032B00026101092251039C0CC3282E0D8070CF4C9
:1032C00002C386E490E090932A108093291085E051
:1032D00090E090932810809327101092261010925F
:1032E0002510643B7105B1F53AC080912910909189
:1032F0002A108634910571F5083382E018075CF0D6
:1033000085E090E09093261080932510109228106D
:1033100010922710F4C2033DA1E01A070CF0EFC28F
:103320001092261010922510EAC2CC32A2E0DA07E1
:103330000CF4D7C286E490E090932A108093291071
:1033400085E090E09093281080932710109226102B
:10335000109225106431710509F041C01DC08091A3
:10336000291090912A1086349105C9F5083362E03E
:1033700016071CF085E090E006C0033D81E01807C9
:1033800024F58BEF9FEF90932610809325101092D9
:1033900028101092271019C08091291090912A109E
:1033A0004E97E9F4CC32E2E0DE072CF010922610C2
:1033B00010922510CDC2C73C61E0D6070CF0C8C200
:1033C0001092281010922710C3C2CC3262E0D607A8
:1033D0000CF09EC2C73CA1E0DA070CF4A2C28091B7
:1033E0002B1090912C106091291070912A108C3321
:1033F000910521F0843B910529F528C06E317105B6
:1034000009F50833A2E01A075CF0E5E0F0E0F0937C
:103410002610E0932510109228101092271008C053
:10342000033DE1E01E0724F41092261010922510AF
:10343000CC32A2E0DA070CF0A0C2C73CA1E0DA0768
:103440000CF4A4C28C3D9105E1F51BC06E317105F1
:10345000C1F50833E2E01E075CF085E090E0909350
:1034600026108093251010922810109227101FC04C
:10347000033D61E01607DCF410922610109225102F
:1034800016C06E317105E9F4C73CA1E0DA072CF4EF
:10349000109226101092251090C2CC32E2E0DE0786
:1034A0000CF48BC2109228101092271086C2CC32D6
:1034B000E2E0DE070CF061C2C73C81E0D8070CF403
:1034C00065C280912B1090912C10E0912910F09101
:1034D0002A108E36910549F5EE31F10531F5C73CDC
:1034E00081E0D8072CF4109226101092251008C005
:1034F000CC32A2E0DA0724F01092281010922710A4
:10350000083382E018070CF46DC28EE690E09093C9
:103510002C1080932B1085E090E0909326108093E0
:103520002510109228101092271080912B10909146
:103530002C108238910541F5EE31F10529F5CC3298
:1035400082E0D8072CF0109226101092251007C0A8
:10355000C73CD14024F41092281010922710083351
:10356000A2E01A070CF448C282E890E090932C1075
:1035700080932B1085E090E0909326108093251087
:10358000109228101092271060912B1070912C101F
:103590008091271090912810860F971F90932C10E0
:1035A00080932B1060912510709126106E0F7F1F55
:1035B00070932A10609329101092281010922710EF
:1035C00010922610109225108417950719F462178F
:1035D000730711F00E9488056AE070E080E090E0D7
:1035E000DF91CF911F910F910C943128033DA1E001
:1035F0001A0714F00C94120F8BEF9FEF9093261084
:10360000809325100C94120F0833A2E01A0714F4CB
:103610000C94830F86E990E090932C1080932B10EC
:10362000109228101092271085E090E090932610B9
:10363000809325100C94830F033D81E0180714F04C
:103640000C94271010922610109225100C9427101D
:10365000033DA1E01A0714F00C945F10109226109D
:10366000109225100C945F100833E2E01E0714F44A
:103670000C94951010922610109225100C94951011
:10368000083382E0180714F40C94CB101092261023
:10369000109225100C94CB100833A2E01A0714F4F2
:1036A0000C94001110922610109225100C94001109
:1036B0000833E2E01E0714F40C9436111092261021
:1036C000109225100C9436110833A2E01A0714F456
:1036D0000C94E71110922610109225100C94E7110B
:1036E0000833A2E01A0714F40C941E12109226104C
:1036F000109225100C941E12033DA1E01A0714F03D
:103700000C94541210922610109225100C945412FE
:10371000033DA1E01A0714F00C948B1210922610AE
:10372000109225100C948B120833A2E01A0714F49F
:103730000C94C01210922610109225100C94C012F6
:103740000833A2E01A0714F40C94F5121092261014
:10375000109225100C94F512033DA1E01A0714F005
:103760000C942C1310922610109225100C942C13EC
:10377000033DA1E01A0714F00C9463131092261075
:10378000109225100C94631385E090E00C949C1328
:1037900065E070E00DC8033DA1E01A070CF08AC98E
:1037A0006CE370E070932C1060932B101092281033
:1037B000109227106BEF7FEF709326106093251007
:1037C00079C9033DA1E01A070CF0A8C964EB70E0C9
:1037D00070932C1060932B101092281010922710C9
:1037E0006BEF7FEF709326106093251097C9083315
:1037F000A2E01A070CF4A4CA109226101092251009
:103800009FCA0833E2E01E070CF4C3CA10922610C8
:1038100010922510BECA033DE1E01E070CF0E9CA74
:103820001092261010922510E4CA033DE1E01E0715
:103830000CF00FCB10922610109225100ACB0833F3
:10384000E2E01E070CF435CB1092261010922510E2
:1038500030CB0833E2E01E070CF45BCB109226104D
:103860001092251056CB0833E2E01E070CF481CBF2
:1038700010922610109225107CCB0833E2E01E0730
:103880000CF4A7CB1092261010922510A2CBC73CA7
:10389000E1E0DE070CF085CC86E490E090932A10FE
:1038A000809329108BEF9FEFA8CCC73CE1E0DE07A7
:1038B0000CF0ABCC86E490E090932A108093291012
:1038C0008BEF9FEFCECCC73CE1E0DE070CF0D1CC14
:1038D00086E490E090932A10809329108BEF9FEF5D
:1038E000F8CCC73CE1E0DE070CF0FBCC86E490E0CE
:1038F00090932A10809329108BEF9FEF23CDCC3229
:10390000E2E0DE072CF4C73CE1E0DE0754F022CD14
:1039100086E490E090932A108093291085E090E04F
:1039200008C086E490E090932A10809329108BEFD2
:103930009FEF909328108093271005C0033D81E0EE
:1039400018070CF04CCD109226101092251047CD80
:10395000083382E0180794F384E190E090932C10F0
:1039600080932B1085E090E0909326108093251093
:10397000109228101092271032CD8EE190E0909393
:103980002A108093291085E090E008C08EE190E035
:1039900090932A10809329108BEF9FEF909328101B
:1039A0008093271005C0033D61E016070CF089CD18
:1039B000109226101092251084CD083362E016076D
:1039C00094F38CED90E090932C1080932B1085E075
:1039D00090E090932610809325101092281010925A
:1039E00027106FCD033D61E016070CF09ECD1092BD
:1039F00026101092251099CD033D11400CF0C4CD36
:103A00001092261010922510BFCDCC32E2E0DE07D6
:103A100024F01092281010922710083362E0160745
:103A20003CF085E090E0909326108093251008C02C
:103A3000033D81E0180724F41092261010922510FF
:103A4000C73CA1E0DA0714F00C94240F8EE091E05B
:103A500090932A10809329108BEF9FEF909328105A
:103A60008093271010922610109225100C94240F8A
:103A7000033DA1E01A0714F00C943E0F8BEF9FEF6B
:103A800090932610809325100C943E0FCC32E2E0E8
:103A9000DE073CF0109226101092251085E090E091
:103AA0000AC0C73C61E0D60754F410922610109269
:103AB00025108BEF9FEF90932810809327100833E9
:103AC00082E0180714F40C94830F8AE590E0A4CDEB
:103AD000DF91CF911F910F910895EF92FF920F9375
:103AE000CF93DF932FEF49E06AE084E490E10E94F6
:103AF0005A388CE2E82EFF24F39405E029E348E3EA
:103B000064E080E390E10E943F3DC7EDD3E064E3D1
:103B100073E0CE010E94932B299687E0CB35D8071E
:103B2000B1F7C2ECD3E064E373E0CE010E94932BC3
:103B3000279683E0C73DD807B1F7DF91CF910F916A
:103B4000FF90EF900895CF93DF9380ED93E00E9474
:103B5000252B89EC93E00E94252B82EC93E00E94B8
:103B6000252BCBE5D7E02997CE010E94252B83E0BA
:103B7000C73DD807C1F7DF91CF910895EF92FF922B
:103B80000F931F93EE24EA94FE2C00EF10E024EB39
:103B900030E040EF50E06CE370E084E490E10E949C
:103BA000FF310EE011E02CE330E040EF50E06CE339
:103BB00070E084E490E10E94FF3124EB30E040EFBC
:103BC00050E064EB70E084E490E10E94FF3124E176
:103BD00030E04EE051E06CE370E084E490E10E945C
:103BE000FF312CED30E04EE051E064EB70E084E416
:103BF00090E10E94FF310CE211E024E130E04EE060
:103C000051E064E170E084E490E10E94FF312CED2A
:103C100030E04EE051E06CED70E084E490E10E9411
:103C2000FF312CED30E04CE251E064E170E084E4DF
:103C300090E10E94FF310EE011E02AE530E040EF14
:103C400050E06AE570E084E490E10E94FF3126E9EB
:103C500030E040EF50E066E970E084E490E10E94DB
:103C6000FF312EE630E04EE051E06AE570E084E49A
:103C700090E10E94FF3122E830E04EE051E066E939
:103C800070E084E490E10E94FF310CE211E02EE646
:103C900030E04EE051E06EE670E084E490E10E9496
:103CA000FF3122E830E04EE051E062E870E084E469
:103CB00090E10E94FF3102ED10E02EE630E040EF8F
:103CC00050E06EE670E084E490E10E94FF3122E86B
:103CD00030E040EF50E062E870E084E490E10E9460
:103CE000FF3124E130E042ED50E06EE670E084E424
:103CF00090E10E94FF312CED30E042ED50E062E8AF
:103D000070E084E490E10E94FF3100EF10E024E1D4
:103D100030E042ED50E064E170E084E490E10E9424
:103D2000FF312CED30E042ED50E06CED70E084E4CA
:103D300090E10E94FF3128E230E040EF50E064E182
:103D400070E084E490E10E94FF3128EC30E040EF25
:103D500050E06CED70E084E490E10E94FF310EE0F1
:103D600011E028E230E040EF50E068E270E084E4E7
:103D700090E10E94FF3128EC30E040EF50E068EC29
:103D800070E084E490E10E94FF310EE110E02CE34A
:103D900030E040EF50E06CE370E084E490E10E949A
:103DA000FF3124EB30E040EF50E064EB70E084E45E
:103DB00090E10E94FF312EE630E04EE150E064E1F8
:103DC00070E084E490E10E94FF312CED30E04EE1A0
:103DD00050E062E870E084E490E10E94FF3106E484
:103DE00010E02EE630E04EE150E06EE670E084E454
:103DF00090E10E94FF3122E830E04EE150E062E8BD
:103E000070E084E490E10E94FF310EE610E024E1CE
:103E100030E04EE150E064E170E084E490E10E9423
:103E2000FF312CED30E04EE150E06CED70E084E4C9
:103E300090E10E94FF3106E410E02CED30E046E412
:103E400050E064E170E084E490E10E94FF310EE60E
:103E500010E02CE330E04EE650E064E170E084E4F2
:103E600090E10E94FF312CED30E04EE650E064EB33
:103E700070E084E490E10E94FF312AE530E046E4FE
:103E800050E06AE570E084E490E10E94FF3126E9A9
:103E900030E046E450E066E970E084E490E10E949E
:103EA000FF312EE630E04EE650E06AE570E084E453
:103EB00090E10E94FF3126E930E04EE650E062E8F2
:103EC00070E084E490E10E94FF3190EEE92EFF243F
:103ED000FA9400EA10E02AE530E040EA50E060E0C1
:103EE00070E084E490E10E94FF3120EF30E040EA8E
:103EF00050E066E970E084E490E10E94FF3102ED59
:103F000010E02AE530E042E850E06AE570E084E441
:103F100090E10E94FF3126E930E042E850E066E996
:103F200070E084E490E10E94FF3102E810E026E9AD
:103F300030E042E850E06AE570E084E490E10E94FD
:103F4000FF312EE630E04EE650E06EE670E084E4AD
:103F500090E10E94FF3122E830E04EE650E062E856
:103F600070E084E490E10E94FF310AEB10E026E962
:103F700030E04AEB50E06AE570E084E490E10E94B2
:103F8000FF311F910F91FF90EF90089580910202F1
:103F900081110E9495070E94BE1D6AE070E080E0DA
:103FA00090E00C9431282F923F924F925F926F9243
:103FB0007F928F929F92AF92BF92CF92DF92EF92B9
:103FC000FF920F931F93CF93DF93CDB7DEB7A097E8
:103FD0000FB6F894DEBF0FBECDBF82E00E949C29D1
:103FE0008C0186E30E94B9287C0187E30E94B928EE
:103FF00020911F10309120102130310509F06FC041
:1040000020915B0730915C07283C31050CF067C0BC
:10401000875C91408536910548F483EDE81A81E08C
:10402000F80A95E6E916F10408F459C066E672E06C
:1040300086EE90E10E94372A80915B0790915C07A1
:1040400026E1289FF001299FF00D1124E35AF84F33
:1040500020912B1030912C10318320832091291036
:1040600030912A1033832283209117103091181039
:1040700035832483209115103091161037832683C1
:104080002091131030911410318720872091111046
:10409000309112103387228720910F103091101029
:1040A0003587248720910D1030910E103787268791
:1040B00020910B1030910C10318B208B2091091026
:1040C00030910A10338B228B209107103091081009
:1040D000358B248B019690935C0780935B078091CE
:1040E0001F1090912010009779F4012B89F460E75C
:1040F00072E086EE90E10E94662A81E090E0909363
:10410000201080931F1051C1019711F4012B41F031
:1041100080915B0790915C078336910509F063C13C
:104120006AE772E086EE90E10E94662A1092201003
:1041300010921F1003E010E069E872E086EE90E153
:104140000E94372A4AE050E0B80186EE90E10E94D2
:10415000182B6DE972E086EE90E10E94662A01500C
:10416000110968EE73E080E090E00E9431280115AB
:10417000110511F7E0905B07F0905C0786E18E9DDA
:1041800090018F9D300D1124F901E35AF84FF8A3E7
:10419000EF8FF7FCA8C0EF8DF8A1A080B1808280DE
:1041A00093806480758026803780F085F983EF8D59
:1041B000F8A1F185FA83EF8DF8A1F285FB83EF8DED
:1041C000F8A1F385FC83EF8DF8A1F485FD83EF8DD5
:1041D000F8A1F585FE83EF8DF8A1F685FF83EF8DBD
:1041E000F8A1F785F887EF8DF8A1F089F987EF8DB1
:1041F000F8A1F189FA87EF8DF8A1F289FB87EF8D9D
:10420000F8A1F389FC87EF8DF8A104891589A4141E
:10421000B50419F48C149D04A9F19601A201B4010E
:10422000C5010E9488052F8538894D855E85B101BD
:10423000C3010E94AB052B893C8949895A896B814E
:104240007C8189819A810E94CE052F89388D4D8984
:104250005E896F8178858D819E810E94F1052B8D0D
:104260003C8D498D5A8D6B857C8589859A850E9408
:10427000140620EA30E04D8D5E8D60EA70E0C801E2
:104280000E9437060E94BE1D6CE370E080E090E063
:104290000E943128F1E0EF1AF1088F8D98A146971E
:1042A00098A38F8F0D8F1E8F9B859B8FEC85EC8F36
:1042B000F985F98F8A858A8F9F819F8BE885E88FA2
:1042C000FD81FD8B8E818E8B9B819B8BEC81EC8B9A
:1042D000F981F98B8A818A8B2F86388A6D867E8652
:1042E0006401250156CF10925C0710925B07809104
:1042F0005D0790915E0790932C1080932B10809116
:104300005F079091600790932A1080932910809105
:104310006107909162079093181080931710809115
:104320006307909164079093161080931510809105
:1043300065079091660790931410809313108091F5
:1043400067079091680790931210809311108091E5
:10435000690790916A079093101080930F108091D5
:104360006B0790916C0790930E1080930D108091C5
:104370006D0790916E0790930C1080930B108091B5
:104380006F079091700790930A10809309108091A5
:1043900071079091720790930810809307106AEA52
:1043A00072E086EE90E10E94662A64EF71E080E0A0
:1043B00090E0A0960FB6F894DEBF0FBECDBFDF91A0
:1043C000CF911F910F91FF90EF90DF90CF90BF9012
:1043D000AF909F908F907F906F905F904F903F90A5
:1043E0002F900C943128A0960FB6F894DEBF0FBE24
:1043F000CDBFDF91CF911F910F91FF90EF90DF9094
:10440000CF90BF90AF909F908F907F906F905F9074
:104410004F903F902F9008950E94572840E855E212
:1044200060E070E086EE90E10E94D32E86EE90E18F
:104430000E94A42C62E082E00E94302940E050E01B
:10444000BA0184E490E10C941B3982E00E949C291B
:10445000892B69F46DEA72E086EE90E10E94662A8B
:1044600086EE90E10E94A42C81E080932D100895A7
:10447000CF92DF92EF92FF920F931F93CF93DF9330
:1044800060E070E084E490E10E94E1316FEA72E064
:1044900086EE90E10E94662A40E060E070E080E0F5
:1044A00090E00E94470410E000E0C0E0D0E086E326
:1044B0000E94B9287C0182E00E949C296C0180E462
:1044C000E81682E0F8063CF02196C330D10564F08E
:1044D000C0E0D0E009C081ECE81681E0F80664F4A1
:1044E000219710F4C2E0D0E040E0612F702FCE01A0
:1044F0000E9447041C2F0D2FCD2831F4CE010E94BD
:10450000EE04FF24F39401C0F12C64E670E080E037
:1045100090E00E943128FF2051F2DF91CF911F914E
:104520000F91FF90EF90DF90CF9008950F931F931E
:10453000CF93DF93EC018B0160E070E084E490E1C5
:104540000E94E1314AE0B801CE010E94E12B40E532
:1045500050E06AE070E084E490E10E94123762E08B
:1045600084E490E10E9418374FEF5FEF60E070E065
:1045700084E490E10E941E3768EB72E084E490E1ED
:104580000E94372ABE0184E490E10E94542ACE01A1
:10459000DF91CF911F910F910895AF92BF92CF926B
:1045A000DF92EF92FF920F931F93CF93DF93CDB7DC
:1045B000DEB72E970FB6F894DEBF0FBECDBF5C01FD
:1045C00060E070E084E490E10E94E13140E050E07E
:1045D00060E070E084E490E10E94123761E084E4DE
:1045E00090E10E94183740E050E06FEF7FEF84E4E5
:1045F00090E10E941E3768EC72E084E490E10E9432
:10460000372A40E050E062E370E084E490E10E94E9
:10461000123761E084E490E10E9418376DEC72E09B
:1046200084E490E10E94372A40E050E064EB70E0BF
:1046300084E490E10E94123761E084E490E10E94FA
:10464000183766ED72E084E490E10E94372A87ED26
:10465000E82E83E0F82E08E010E0C12CD12C81E098
:10466000A81AB108CA14DB040CF06EC0EFEFCE1A22
:10467000DE0A4AE0B601CE0108960E94E12BA801AD
:1046800060E070E084E490E10E94123761E084E42D
:1046900090E10E941837BE01685F7F4F84E490E18B
:1046A0000E94022AA80162E370E084E490E10E9483
:1046B000123761E084E490E10E941837B70184E486
:1046C00090E10E94022AA80164EB70E084E490E18A
:1046D0000E94123761E084E490E10E941837F701EC
:1046E000678170854AE0CE0101960E940E2CBE01C2
:1046F0006F5F7F4F84E490E10E94542A6CED72E07A
:1047000086EE90E10E94372AB70186EE90E10E9482
:10471000022A63EE72E086EE90E10E94372ABE0123
:104720006F5F7F4F86EE90E10E94542ACE01019682
:104730000E94252BCE0108960E94252B085F1F4F53
:10474000F9E0EF0EF11C8ECF2E960FB6F894DEBF77
:104750000FBECDBFDF91CF911F910F91FF90EF90D2
:10476000DF90CF90BF90AF900895EF92FF920F939C
:104770001F9360E070E084E490E10E94E13140E545
:1047800050E06AE070E084E490E10E94123764E057
:1047900084E490E10E94183740EE5FEF60E070E043
:1047A00084E490E10E941E376CEE72E084E490E1B4
:1047B0000E94662AE12C88EFF82E02E110E023E146
:1047C00030E047EC50E06CE370E084E490E10E945C
:1047D00003380EE010E021E130E046EC50E06DE3FC
:1047E00070E084E490E10E940338EE24EA94FE2C09
:1047F00007E010E026E030E047EC50E06FE370E0C7
:1048000084E490E10E94033826E030E047EC50E079
:1048100065E470E084E490E10E940338E12CF12C1F
:1048200004E010E024E030E048EC50E061E470E0A7
:1048300084E490E10E94033824E030E048EC50E04A
:1048400067E470E084E490E10E940338EE24EA9487
:1048500027E0F22E02E110E023E130E047EC50E0E7
:104860006AE570E084E490E10E9403380EE010E015
:1048700021E130E046EC50E06BE570E084E490E14B
:104880000E940338EE24EA94FE2C07E010E026E0B4
:1048900030E047EC50E06DE570E084E490E10E9488
:1048A000033826E030E047EC50E063E670E084E453
:1048B00090E10E940338E12CF12C04E010E024E0A8
:1048C00030E048EC50E06FE570E084E490E10E9455
:1048D000033824E030E048EC50E065E670E084E422
:1048E00090E10E9403384FE1E42E48EFF42E02E1FC
:1048F00010E023E130E047EC50E068E770E084E44A
:1049000090E10E9403380EE010E021E130E046EC37
:1049100050E069E770E084E490E10E940338EE24FF
:10492000EA94FE2C07E010E026E030E047EC50E08F
:104930006BE770E084E490E10E94033826E030E009
:1049400047EC50E061E870E084E490E10E940338B5
:10495000E12CF12C04E010E024E030E048EC50E0E1
:104960006DE770E084E490E10E94033824E030E0D9
:1049700048EC50E063E870E084E490E10E94033882
:1049800060E2E62E6DEFF62E02E110E023E130E06A
:1049900047EC50E066E970E084E490E10E9403385F
:1049A0000EE010E021E130E046EC50E067E970E015
:1049B00084E490E10E940338EE24EA94FE2C07E0A0
:1049C00010E026E030E047EC50E069E970E084E474
:1049D00090E10E94033826E030E047EC50E06FE9B8
:1049E00070E084E490E10E940338E12CF12C04E0B3
:1049F00010E024E030E048EC50E06BE970E084E443
:104A000090E10E94033824E030E048EC50E061EA95
:104A100070E084E490E10E94033800EE1FEF29E08B
:104A200030E04FEC50E060EC70E084E490E10E94F4
:104A3000DF3348E151E068E270E084E490E10E94F5
:104A4000123761E084E490E10E94183740E050E0C2
:104A500060EE7FEF84E490E10E941E3766EF72E023
:104A600084E490E10E94662A62E173E086EE90E1C0
:104A70000E94662A82E00E949C29892BD9F763E272
:104A800073E086EE90E11F910F91FF90EF900C94F0
:104A9000662AEF92FF920F931F93CF93DF9360E00C
:104AA00070E084E490E10E94E131C8E7D0E0D09367
:104AB0002C10C0932B1080EF90E090932A108093DD
:104AC000291000EE1FEF27E030E040EF50E068E7EC
:104AD00070E084E490E10E94DF338FE1E82EF12C56
:104AE00004E010E020EF30E046E351E060E070E0E9
:104AF00084E490E10E94033820EF30E04AE050E087
:104B000060E070E084E490E10E9403380E94BE1DE2
:104B100061E084E490E10E94183760E084E490E171
:104B20000E94243780910202882309F47CC080EA25
:104B300090E0909318108093171028EC30E0309399
:104B4000161020931510D0931410C09313103093A7
:104B500012102093111024E630E0309310102093AF
:104B60000F1046E450E050930E1040930D109093B8
:104B70000C1080930B1030930A10209309101092A0
:104B8000081010920710909306108093051000E013
:104B900018EF27E030E048EC50E060EA70E084E491
:104BA00090E10E94DF3340911110509112106091FA
:104BB0001310709114100FE118EF27E030E084E437
:104BC00090E10E94DF3340910D1050910E106091E2
:104BD0000F10709110100FEF17E027E030E084E421
:104BE00090E10E94DF334091091050910A106091CA
:104BF0000B1070910C1000E21DEF27E030E084E410
:104C000090E10E94DF3340910510509106106091B1
:104C10000710709108100FEF1FEF27E030E084E4D9
:104C200090E10E94DF33DF91CF911F910F91FF90B0
:104C3000EF900895CF92DF92EF92FF920F931F9320
:104C4000CF93DF93CDB7DEB7C250D2400FB6F89402
:104C5000DEBF0FBECDBF8E010F5F1F4F6801760113
:104C6000E01AF10A86EE90E10E94582C892BD1F3CC
:104C700086EE90E10E94842CF60181936F018A30C8
:104C800071F7F801EE0DFF1D108260E173E0C801BD
:104C90000E942D40FC0180818E3479F560E173E043
:104CA00080E090E00E942D40BC01CE018B509E4FD1
:104CB0000E94932BCE018B509E4F0E944C2C7093E0
:104CC00001026093000286EE90E10E94A42C62E350
:104CD00073E086EE90E10E94372A48EE53E060E0F0
:104CE00070E086EE90E10E941F2B86EE90E10E941C
:104CF000A42CCE018B509E4F67C0873509F067C04A
:104D000060E173E080E090E00E942D40BC01CE01A4
:104D100084509E4F0E94932B60E173E080E090E00E
:104D20000E942D40BC01CE018B509E4F0E94932BC0
:104D3000CE018B509E4F0E944C2C6B017C01209128
:104D4000C0033091C10319E0129FC001139F900D61
:104D50001124BE0164507E4F89529C4F0E94A92BA2
:104D60008091C0039091C103189FF001199FF00D2D
:104D70001124E952FC4FD086C78286EE90E10E9452
:104D8000A42C62E373E086EE90E10E94372A48EE9D
:104D900053E060E070E086EE90E10E941F2B86EE0B
:104DA00090E10E94A42C8091C0039091C1030196D0
:104DB0009093C1038093C003CE018B509E4F0E94FD
:104DC000252BCE0184509E4F0E94252B05C0853493
:104DD00019F481E080932E10CE5FDD4F0FB6F8946A
:104DE000DEBF0FBECDBFDF91CF911F910F91FF901E
:104DF000EF90DF90CF900895CF93DF9330912F10F5
:104E000020912E1031111CC0211120C0EC0166ED43
:104E100072E086EE90E10E94372A60E173E086EE50
:104E200090E10E94372ABE0186EE90E10E94542A4A
:104E300086EE90E10E94A42C81E080932F1006C0A2
:104E4000211104C0DF91CF910C941A26DF91CF91EC
:104E50000895CF93DF93CDB7DEB72E970FB6F894B2
:104E6000DEBF0FBECDBF88EE882E83E0982EA12C2A
:104E7000B12C10922D1010922E1010922F10109213
:104E8000C1031092C0030E940C220E94B5230E940D
:104E900035040E9438220E9400282B013C010E9408
:104EA00049250E94DE090E94C61F0E944B050E94F0
:104EB000D31F80911D1090911E10892B91F70E9495
:104EC00000286B017C01C418D508E608F70865E3E3
:104ED00073E086EE90E10E94662AC701B601A50143
:104EE00094010E94C84020932110309322104093D7
:104EF000231050932410B901CE0108960E949622E7
:104F00006EE373E086EE90E10E94662A80912E1097
:104F1000811110C0BE01685F7F4FCE0101960E94D3
:104F2000C02BCE0101960E94FC26CE0101960E9464
:104F3000252BECCF6CE473E086EE90E10E94662AAC
:104F400080910002909101020E94CD2280912D104B
:104F5000811103C00E942522F9CF86EE90E10E94C4
:104F6000A42CCE0108960E94252B83CF1F920F926E
:104F70000FB60F9211242F933F938F939F93AF936C
:104F8000BF938091781090917910A0917A10B09190
:104F90007B103091771023E0230F2D3720F40196FA
:104FA000A11DB11D05C026E8230F0296A11DB11D4C
:104FB000209377108093781090937910A0937A10B3
:104FC000B0937B1080917C1090917D10A0917E1009
:104FD000B0917F100196A11DB11D80937C1090931C
:104FE0007D10A0937E10B0937F10BF91AF919F91E1
:104FF0008F913F912F910F900FBE0F901F9018959A
:105000002FB7F894609178107091791080917A1090
:1050100090917B102FBF08953FB7F89480917C103A
:1050200090917D10A0917E10B0917F1026B5A89B25
:1050300005C02F3F19F00196A11DB11D3FBFBA2F2A
:10504000A92F982F8827820F911DA11DB11DBC018A
:10505000CD0142E0660F771F881F991F4A95D1F74F
:105060000895CF92DF92EF92FF92CF93DF936B017F
:105070007C010E940C28EB01C114D104E104F1046D
:1050800079F00E940C286C1B7D0B683E7340A0F3E6
:1050900081E0C81AD108E108F108C851DC4FECCF13
:1050A000DF91CF91FF90EF90DF90CF9008957894AB
:1050B00084B5826084BD84B5816084BD85B582601D
:1050C00085BD85B5816085BDEEE6F0E080818160BB
:1050D0008083E1E8F0E010828081826080838081BB
:1050E00081608083E0E8F0E0808181608083E1EB93
:1050F000F0E0808184608083E0EBF0E0808181607B
:105100008083E1E9F0E0808182608083808181603A
:105110008083E0E9F0E0808181608083E1EAF0E073
:10512000808182608083808181608083E0EAF0E01A
:10513000808181608083E1E2F1E080818260808310
:10514000808181608083E0E2F1E080818160808302
:10515000EAE7F0E0808184608083808182608083E0
:105160008081816080838081806880831092C1000B
:105170000895863308F0865390917B00282F28707D
:10518000977F922B90937B0087702091030290E48D
:10519000299F90011124822B80937C0080917A00BA
:1051A000806480937A0080917A0086FDFCCF8091A4
:1051B00078002091790090E0922B089590E0FC0116
:1051C0003197E131F10508F04AC08827EE58FF4FCA
:1051D0008F4F0C94EA40809180008F7703C08091BC
:1051E00080008F7D80938000089584B58F7702C002
:1051F00084B58F7D84BD08958091B0008F7703C002
:105200008091B0008F7D8093B000089580919000D0
:105210008F7707C0809190008F7D03C080919000B0
:10522000877F8093900008958091A0008F7707C0BA
:105230008091A0008F7D03C08091A000877F809324
:10524000A0000895809120018F7707C080912001F0
:105250008F7D03C080912001877F80932001089576
:10526000CF93DF9390E0FC01EC5DFD4F2491FC01B6
:10527000E659FD4F8491882361F190E0880F991FD2
:10528000FC01EC51FD4FC591D491FC01E653FD4F5B
:10529000A591B491611109C09FB7F89488812095B8
:1052A00082238883EC912E230BC0623061F49FB778
:1052B000F8943881822F809583238883EC912E2B5C
:1052C0002C939FBF06C08FB7F894E8812E2B2883BC
:1052D0008FBFDF91CF9108951F93CF93DF93282F36
:1052E00030E0F901E252FE4F8491F901EC5DFD4F8F
:1052F000D491F901E659FD4FC491CC23C9F0162F82
:1053000081110E94DE28EC2FF0E0EE0FFF1FE65324
:10531000FD4FA591B4918FB7F894111105C09C91E0
:10532000ED2FE095E92302C0EC91ED2BEC938FBFBC
:10533000DF91CF911F910895CF93DF93282F30E015
:10534000F901E252FE4F8491F901EC5DFD4FD491D9
:10535000F901E659FD4FC491CC2391F081110E94CF
:10536000DE28EC2FF0E0EE0FFF1FE055FD4FA5917A
:10537000B491EC91ED2381E090E021F480E002C053
:1053800080E090E0DF91CF910895CF92DF92EF928D
:10539000FF920F931F93CF93DF936C01EB017B017F
:1053A000E40EF51E00E010E0CE15DF0561F0699116
:1053B000D601ED91FC910190F081E02DC601199587
:1053C000080F191FF1CFC801DF91CF911F910F91E5
:1053D000FF90EF90DF90CF9008956115710579F0FF
:1053E000FB0101900020E9F73197AF01461B570BF5
:1053F000DC01ED91FC910280F381E02D199480E0B5
:1054000090E00895AF92BF92CF92DF92EF92FF9219
:105410000F931F93CF93DF936C017B01C0E0D0E02B
:1054200000E010E0D70114968D919C911597C81754
:10543000D90788F4D601ED91FC91A080B180BE011E
:10544000C7010E943B2C682FC601F5011995080F72
:10545000191F2196E7CFC801DF91CF911F910F91BE
:10546000FF90EF90DF90CF90BF90AF9008950C9495
:10547000ED29DC01ED91FC910190F081E02D199472
:105480000F931F93CF93DF93EC016DE00E94392AB5
:105490008C016AE0CE010E94392A800F911FDF91B2
:1054A000CF911F910F9108950F931F93CF93DF9387
:1054B000EC010E94022A8C01CE010E94402A800F3A
:1054C000911FDF91CF911F910F9108950F931F931B
:1054D000CF93DF93EC010E94ED298C01CE010E9455
:1054E000402A800F911FDF91CF911F910F91089556
:1054F0008F929F92AF92BF92CF92DF92EF92FF92E4
:105500000F931F93CF93DF93CDB7DEB7A1970FB65D
:10551000F894DEBF0FBECDBF6C01142FE52FCB0179
:10552000022F19A2223008F40AE07E0121E2E20EE5
:10553000F11C802E912CA12CB12C612F7E2FA50166
:1055400094010E94C840029F1019112481E0E81ABA
:10555000F1081A3014F4105D01C0195CF7011083D2
:10556000122FE32FCA01232B242B252B31F7B70150
:10557000C6010E94ED29A1960FB6F894DEBF0FBEBA
:10558000CDBFDF91CF911F910F91FF90EF90DF90F2
:10559000CF90BF90AF909F908F900895CF92DF9261
:1055A000EF92FF920F931F93CF93DF93EC016A0169
:1055B0007B012115310579F4E881F9810190F081B1
:1055C000E02D642FDF91CF911F910F91FF90EF900D
:1055D000DF90CF9019942A303105E9F477FF1AC093
:1055E0006DE20E94392A8C0144275527BA014C19D3
:1055F0005D096E097F092AE0CE010E94782A800F9A
:10560000911FDF91CF911F910F91FF90EF90DF904D
:10561000CF9008952AE0B701A601CE01DF91CF9186
:105620001F910F91FF90EF90DF90CF900C94782A0C
:105630009A01AB01770F660B770B0C94CE2AFC0115
:1056400044835583668377830895FC01808191812B
:105650000C94383FCF93DF93EC01888199810097B8
:1056600011F00E94383F198218821D821C821B8211
:105670001A82DF91CF9108950F931F93CF93DF93F9
:10568000EC018B016F5F7F4F888199810E94BA3D49
:10569000009731F0998388831B830A8381E001C0DE
:1056A00080E0DF91CF911F910F910895CF93DF9309
:1056B000EC0188819981892B29F08A819B81861749
:1056C000970760F4CE010E943C2B882341F08C8127
:1056D0009D81892B19F4E881F981108281E0DF91A5
:1056E000CF910895EF92FF920F931F93CF93DF9383
:1056F000EC017B018A01BA010E94562B811104C082
:10570000CE010E942A2B07C01D830C83B70188811C
:1057100099810E943A40CE01DF91CF911F910F9164
:10572000FF90EF900895FC01118210821382128283
:105730001582148216826115710551F0FB010190EA
:105740000020E9F73197AF01461B570B0C94722BE1
:105750000895CF93DF93EC01FB018617970761F063
:10576000608171816115710529F0448155810E9424
:10577000722B02C00E942A2BCE01DF91CF91089597
:10578000FC01118210821382128215821482168209
:105790000C94A92BCF93DF93EC016115710559F09F
:1057A000FB0101900020E9F73197AF01461B570B31
:1057B0000E94722B02C00E942A2BCE01DF91CF9152
:1057C00008950F931F93CF93DF93CDB7DEB7629702
:1057D0000FB6F894DEBF0FBECDBF8C01CB01F80130
:1057E000118210821382128215821482168250E076
:1057F000BE016F5F7F4F0E946840BE016F5F7F4FA9
:10580000C8010E94CA2B62960FB6F894DEBF0FBE85
:10581000CDBFDF91CF911F910F9108950F931F93EB
:10582000CF93DF93CDB7DEB761970FB6F894DEBFA5
:105830000FBECDBF8C01CB01F80111821082138203
:10584000128215821482168250E0BE016F5F7F4F74
:105850000E949340BE016F5F7F4FC8010E94CA2B18
:1058600061960FB6F894DEBF0FBECDBFDF91CF912A
:105870001F910F910895FC012481358162177307F0
:1058800048F480819181009729F0FC01E60FF71F11
:105890008081089580E00895FC01808191810097C6
:1058A00011F00C94034060E070E0CB01089508957E
:1058B000FC0124853585F901E05CFF4F80819181F1
:1058C000329620813181821B930B8F739927089523
:1058D000DC011C96ED91FC911D97DF01A05CBF4F90
:1058E0002D913C91119712968D919C9111972817AB
:1058F000390739F08D919C91E80FF91F808190E074
:1059000008958FEF9FEF0895FC01A485B585FD01F3
:10591000E05CFF4F20813181329680819181281790
:10592000390779F080819181A80FB91F8C9120816E
:1059300031812F5F3F4F2F7333273183208390E0D6
:1059400008958FEF9FEF0895FC0181A1882329F02E
:10595000A489B5898C9186FFFBCF11A208950F937E
:105960001F93CF93DF93FC01A685B7858D01005C63
:105970001F4FE8018881998101968F739927AD01A6
:105980004E5B5F4FEA012881398182179307D1F37B
:10599000E80128813981A20FB31F6C93A685B785D2
:1059A000A05CBF4F11969C938E93A689B7892C91CA
:1059B00081E090E0078C02C0880F991F0A94E2F7FB
:1059C000822B8C9381E081A30488F589E02D80816E
:1059D0008064808381E090E0DF91CF911F910F91EF
:1059E0000895FB01E05CFF4F208131812F5F3F4F25
:1059F0002F733327DB01AE5BBF4F4D915C912417B2
:105A0000350741F040815181DB01A40FB51F8C9314
:105A10003183208308951F920F920FB60F921124A5
:105A20000BB60F922F933F934F935F936F937F9398
:105A30008F939F93AF93BF93EF93FF938091C00099
:105A400082FD07C08091C60064EE72E10E94F12CD5
:105A500002C08091C600FF91EF91BF91AF919F91DD
:105A60008F917F916F915F914F913F912F910F9007
:105A70000BBE0F900FBE0F901F9018951F920F92A4
:105A80000FB60F9211240BB60F922F933F934F93A3
:105A90005F936F937F938F939F93AF93BF93EF9396
:105AA000FF938091C80082FD07C08091CE006CE515
:105AB00072E10E94F12C02C08091CE00FF91EF9123
:105AC000BF91AF919F918F917F916F915F914F9116
:105AD0003F912F910F900BBE0F900FBE0F901F9014
