:100000000C94FF030C9430040C9430040C943004D2
:100010000C9430040C9430040C9430040C94300490
:100020000C9430040C9430040C9430040C94300480
:100030000C9430040C9430040C9430040C94300470
:100040000C9430040C9430040C9430040C94300460
:100050000C9430040C9430040C9430040C94511F14
:100060000C9430040C9432230C94FE230C94300432
:100070000C9430040C9430040C9430040C94300430
:100080000C9430040C9430040C9430040C94300420
:100090000C9465230C943D240C9430040C9430048F
:1000A0000C9430040C9430040C9430040C94300400
:1000B0000C9430040C9430040C9430040C943004F0
:1000C0000C9430040C9430040C9430040C94982359
:1000D0000C947C240C9430040C94CB230C94BB24FF
:1000E0000C943004842087207A207E20BE208B2030
:1000F0008F20952099209D20A320A720AB20BE20F3
:10010000B120B520B9200C94482D0C948F220C946A
:1001100054210C94D6220C947A200C94B5200C9483
:100120002E270C947A2D0C9454260C94672D0C9445
:10013000EA2D0C94622E0C949D200C94FD260C94B8
:100140007E220C94B1200C9495200C948B200C945E
:10015000BE200C9411270C94B9200C94FE260C940C
:10016000FB280C94A7200C941D270C9408280C94B1
:10017000532D0C94FC280C94AB220C942D270C943A
:10018000242E0C94AB200C94B7270C9499200C943B
:10019000CB220C9405270C9432310C948F200C94B4
:1001A00073270C94F1320C947E310C9494070C94C8
:1001B00026280C9476320C94632C0C9482250C9493
:1001C00087200C9484200C947E200C94A3200C9403
:1001D0009C280C94B02D0C947F220000090A020880
:1001E0000B0C0D07060304010000000000000000D6
:1001F00000000000000000000000000000000000FF
:1002000000000000000011100F00000000000000BE
:1002100000000000000000000000000000000000DE
:100220000102102020080810204010204080020108
:1002300002010804020101020408102040808040ED
:1002400020100804020180040201804020100804EC
:10025000020108040201010204081020408001028A
:100260000408102040800505050507050808080852
:10027000020202020A0A080804040404010101013E
:100280000101010103030303030303030407070739
:100290000C0C0C0C0C0C0C0C0202020206060606DE
:1002A000060606060B0B0B0B0B0B0B0B00002000BE
:1002B0002300260029002C002F003200000100003E
:1002C00003010601090100002200250028002B007F
:1002D0002E003100340002010000050108010B016D
:1002E00000002100240027002A002D0030003300E8
:1002F00001010000040107010A0100000000003EA6
:100300005B4F5B3E3E6B4F6B3E1C3E7C3E1C183C85
:100310007E3C181C577D571C1C5E7F5E1C00183CE1
:100320001800FFE7C3E7FF0018241800FFE7DBE72A
:10033000FF30483A060E2629792926407F05050711
:10034000407F05253F5A3CE73C5A7F3E1C1C08086D
:100350001C1C3E7F14227F22145F5F005F5F060932
:100360007F017F006689956A606060606094A2FF8B
:10037000A29408047E040810207E201008082A1C7D
:1003800008081C2A08081E101010100C1E0C1E0C49
:1003900030383E3830060E3E0E06000000000000E9
:1003A000005F00000007000700147F147F14242A58
:1003B0007F2A12231308646236495620500008072A
:1003C0000300001C2241000041221C002A1C7F1C4B
:1003D0002A08083E0808008070300008080808084D
:1003E000000060600020100804023E5149453E00B4
:1003F000427F400072494949462141494D33181412
:10040000127F1027454545393C4A49493141211160
:1004100009073649494936464949291E0000140052
:100420000000403400000008142241141414141475
:10043000004122140802015909063E415D594E7CD3
:100440001211127C7F494949363E414141227F4188
:1004500041413E7F494949417F090909013E4141E6
:1004600051737F0808087F00417F41002040413FD1
:10047000017F081422417F404040407F021C027FE0
:100480007F0408107F3E4141413E7F090909063E35
:100490004151215E7F091929462649494932030104
:1004A0007F01033F4040403F1F2040201F3F403816
:1004B000403F631408146303047804036159494DF1
:1004C00043007F4141410204081020004141417F27
:1004D000040201020440404040400003070800209D
:1004E000545478407F28444438384444442838449D
:1004F00044287F385454541800087E090218A4A4D4
:100500009C787F0804047800447D40002040403DF2
:10051000007F1028440000417F40007C047804786C
:100520007C080404783844444438FC1824241818FF
:10053000242418FC7C08040408485454542404045B
:100540003F44243C4040207C1C2040201C3C403048
:10055000403C44281028444C9090907C4464544C77
:1005600044000836410000007700000041360800D2
:1005700002010204023C2623263C1EA1A161123A7C
:100580004040207A385454555921555579412254C8
:10059000547842215554784020545579400C1E52CD
:1005A0007212395555555939545454593955545472
:1005B000580000457C410002457D420001457C40D9
:1005C0007D1211127DF0282528F07C54554500201D
:1005D00054547C547C0A097F4932494949323A448F
:1005E00044443A324A4848303A4141217A3A4240FA
:1005F0002078009DA0A07D3D4242423D3D404040CC
:100600003D3C24FF2424487E4943662B2FFC2F2B9E
:10061000FF0929F620C0887E09032054547941003F
:1006200000447D413048484A32384040227A007ABE
:100630000A0A727D0D19317D2629292F282629299C
:10064000292630484D4020380808080808080808BE
:10065000382F10C8ACBA2F102834FA00007B0000E5
:1006600008142A142222142A14085500550055AAE9
:1006700055AA55AAFF55FF55FF000000FF001010B6
:1006800010FF00141414FF001010FF00FF1010F0F2
:1006900010F0141414FC001414F700FF0000FF0005
:1006A000FF1414F404FC141417101F10101F101F53
:1006B0001414141F00101010F0000000001F101080
:1006C00010101F10101010F010000000FF1010107C
:1006D000101010101010FF10000000FF140000FF99
:1006E00000FF00001F10170000FC04F41414171082
:1006F000171414F404F40000FF00F7141414141475
:100700001414F700F7141414171410101F101F14EA
:100710001414F4141010F010F000001F101F00004B
:10072000001F14000000FC140000F010F01010FF77
:1007300010FF141414FF141010101F00000000F01C
:1007400010FFFFFFFFFFF0F0F0F0F0FFFFFF0000F1
:10075000000000FFFF0F0F0F0F0F3844443844FC18
:100760004A4A4A347E02020606027E027E0263552F
:100770004941633844443C04407E201E2006027EEA
:10078000020299A5E7A5991C2A492A1C4C720172FC
:100790004C304A4D4D303048784830BC625A463D66
:1007A0003E494949007E0101017E2A2A2A2A2A441B
:1007B000445F444440514A444040444A5140000050
:1007C000FF0103E080FF000008086B6B083612365B
:1007D0002436060F090F060000181800000010103C
:1007E000003040FF0101001F01011E00191D1712FA
:1007F000003C3C3C3C000000000094078225112492
:100800001FBECFEFD1E2DEBFCDBF00E00CBF13E0D3
:10081000A0E0B2E0E6EBF8E600E00BBF02C0079014
:100820000D92A435B107D9F72EE0A4E5B3E001C0DD
:100830001D92AA34B207E1F713E0CFEFD3E000E056
:1008400006C021970109802FFE010E943334CD3F5D
:10085000D10780E00807A9F70E94461F0C940E34C8
:100860000C940000EF92FF920F931F93CF93DF93AE
:10087000EC017B01BA01A90100E010E027E030E0C3
:1008800086E69BE00E94062A00EE1FEF27E030E09C
:10089000A701BE0186E69BE00E94062ADF91CF9168
:1008A0001F910F91FF90EF900895EF92FF920F9399
:1008B0001F93CF93DF93EC017B01BA01A90100E004
:1008C00010E027E030E086E69BE00E94062A00E088
:1008D00018EF27E030E0A701BE0186E69BE00E940A
:1008E000062ADF91CF911F910F91FF90EF9008950D
:1008F000EF92FF920F931F93CF93DF93EC017B0155
:10090000BA01A90100E010E027E030E086E69BE0B4
:100910000E94062A0FE118EF27E030E0A701BE0190
:1009200086E69BE00E94062ADF91CF911F910F91EE
:10093000FF90EF900895EF92FF920F931F93CF9344
:10094000DF93EC017B01BA01A90100E010E027E090
:1009500030E086E69BE00E94062A0FEF17E027E0D2
:1009600030E0A701BE0186E69BE00E94062ADF91E7
:10097000CF911F910F91FF90EF900895EF92FF920A
:100980000F931F93CF93DF93EC017B01BA01A90171
:1009900000E010E027E030E086E69BE00E94062AB7
:1009A00000E21DEF27E030E0A701BE0186E69BE0F4
:1009B0000E94062ADF91CF911F910F91FF90EF9037
:1009C0000895841B950B97FF03C08FEF9FEF04C022
:1009D000892B31F081E090E09093350B8093340BBC
:1009E000621B730B77FF03C08FEF9FEF04C0672B71
:1009F00031F081E090E09093330B8093320B2091A3
:100A0000440B3091450B8091340B9091350B820F44
:100A1000931F9093450B8093440B2091420B309190
:100A2000430B8091320B9091330B820F931F909365
:100A3000430B8093420B0895841B950B97FF03C0D3
:100A40008FEF9FEF04C0892B31F081E090E090930D
:100A5000310B8093300B621B730B77FF03C08FEF5A
:100A60009FEF04C0672B31F081E090E090932F0B53
:100A700080932E0B2091400B3091410B8091300BD5
:100A80009091310B820F931F9093410B8093400BF9
:100A900020913E0B30913F0B80912E0B90912F0BAC
:100AA000820F931F90933F0B80933E0B0895841BFE
:100AB000950B97FF03C08FEF9FEF04C0892B31F098
:100AC00081E090E090932D0B80932C0B621B730BB5
:100AD00077FF03C08FEF9FEF04C0672B31F081E0F9
:100AE00090E090932B0B80932A0B20913C0B30913C
:100AF0003D0B80912C0B90912D0B820F931F9093A7
:100B00003D0B80933C0B20913A0B30913B0B809135
:100B10002A0B90912B0B820F931F90933B0B80938A
:100B20003A0B0895841B950B97FF03C08FEF9FEF3F
:100B300004C0892B31F081E090E09093290B8093E1
:100B4000280B621B730B77FF03C08FEF9FEF04C06E
:100B5000672B31F081E090E09093270B8093260B78
:100B60002091380B3091390B8091280B9091290BF3
:100B7000820F931F9093390B8093380B2091360B83
:100B80003091370B8091260B9091270B820F931F8A
:100B90009093370B8093360B08954F925F926F922C
:100BA0007F928F929F92AF92BF92CF92DF92EF92FD
:100BB000FF920F931F93CF93DF93C091440BD0917B
:100BC000450B0091420B1091430BA090400BB0904D
:100BD000410B80903E0B90903F0BE0903C0BF090CF
:100BE0003D0BC0903A0BD0903B0B4090380B50908F
:100BF000390B6090360B7090370B60914E0B7091F3
:100C00004F0B9801AE018091500B9091510B0E94B7
:100C1000E1046091420B7091430B9801AE01809109
:100C2000440B9091450B0E94550420913E0B30914E
:100C30003F0B4091400B5091410B60914E0B7091D6
:100C40004F0B8091500B9091510B0E941C056091AD
:100C50003E0B70913F0B9401A5018091400B909148
:100C6000410B0E94780420913A0B30913B0B40914C
:100C70003C0B50913D0B60914E0B70914F0B80914E
:100C8000500B9091510B0E94570560913A0B709157
:100C90003B0B9601A70180913C0B90913D0B0E946C
:100CA0009B042091360B3091370B4091380B5091BB
:100CB000390B60914E0B70914F0B8091500B9091BE
:100CC000510B0E9492056091360B7091370B930186
:100CD000A2018091380B9091390B0E94BE04609163
:100CE000400B7091410B8091440B9091450B861BFA
:100CF000970B06960D9708F540913E0B50913F0BD0
:100D00008091420B9091430B841B950B06960D9797
:100D1000A0F400E010E027E030E086E69BE00E94CF
:100D2000062A84E190E09093410B8093400B8EE182
:100D300090E090933F0B80933E0B60913C0B709141
:100D40003D0B8091440B9091450B861B970B0696AB
:100D50000D9708F540913A0B50913B0B8091420B57
:100D60009091430B841B950B06960D97A0F400E021
:100D700010E027E030E086E69BE00E94062A8CED3A
:100D800090E090933D0B80933C0B8EE190E090932C
:100D90003B0B80933A0B6091380B7091390B80912B
:100DA000440B9091450B861B970B06960D9708F503
:100DB0004091360B5091370B8091420B9091430B31
:100DC000841B950B06960D97A0F400E010E027E039
:100DD00030E086E69BE00E94062A84E190E0909352
:100DE000390B8093380B8CE291E09093370B809312
:100DF000360B60913C0B70913D0B8091400B9091B4
:100E0000410B861B970B06960D9708F540913A0B00
:100E100050913B0B80913E0B90913F0B841B950BA7
:100E200006960D97A0F400E010E027E030E086E69B
:100E30009BE00E94062A8CED90E090933D0B8093FE
:100E40003C0B8EE190E090933B0B80933A0B6091CA
:100E5000380B7091390B8091400B9091410B861BA0
:100E6000970B06960D9708F54091360B5091370B6E
:100E700080913E0B90913F0B841B950B06960D972E
:100E8000A0F400E010E027E030E086E69BE00E945E
:100E9000062A84E190E09093390B8093380B8CE222
:100EA00091E09093370B8093360B6091380B7091E3
:100EB000390B80913C0B90913D0B861B970B06964E
:100EC0000D9708F54091360B5091370B80913A0BF6
:100ED00090913B0B841B950B06960D97A0F400E0B8
:100EE00010E027E030E086E69BE00E94062A84E1DD
:100EF00090E09093390B8093380B8CE291E09093C3
:100F0000370B8093360BDF91CF911F910F91FF909C
:100F1000EF90DF90CF90BF90AF909F908F907F9099
:100F20006F905F904F900895EF92FF920F932FEF85
:100F300049E06AE086E69BE00E947B2E8CE2E82E88
:100F4000FF24F39405E029E348E364E082E59BE0B5
:100F50000E9460330F91FF90EF900895EF92FF92FF
:100F60000F931F93EE24EA94FE2C00EF10E024EB85
:100F700030E040EF50E06CE370E086E69BE00E94DA
:100F800026280EE011E02CE330E040EF50E06CE367
:100F900070E086E69BE00E94262824EB30E040EFDC
:100FA00050E064EB70E086E69BE00E94262824E196
:100FB00030E04EE051E06CE370E086E69BE00E949A
:100FC00026282CED30E04EE051E064EB70E086E640
:100FD0009BE00E9426280CE211E024E130E04EE084
:100FE00051E064E170E086E69BE00E9426282CED4B
:100FF00030E04EE051E06CED70E086E69BE00E9450
:1010000026282CED30E04CE251E064E170E086E609
:101010009BE00E9426280EE011E02AE530E040EF38
:1010200050E06AE570E086E69BE00E94262826E90B
:1010300030E040EF50E066E970E086E69BE00E9419
:1010400026282EE630E04EE051E06AE570E086E6C4
:101050009BE00E94262822E830E04EE051E066E95D
:1010600070E086E69BE00E9426280CE211E02EE666
:1010700030E04EE051E06EE670E086E69BE00E94D4
:10108000262822E830E04EE051E062E870E086E693
:101090009BE00E94262802ED10E02EE630E040EFB3
:1010A00050E06EE670E086E69BE00E94262822E88B
:1010B00030E040EF50E062E870E086E69BE00E949E
:1010C000262824E130E042ED50E06EE670E086E64E
:1010D0009BE00E9426282CED30E042ED50E062E8D3
:1010E00070E086E69BE00E94262800EF10E024E1F5
:1010F00030E042ED50E064E170E086E69BE00E9463
:1011000026282CED30E042ED50E06CED70E086E6F4
:101110009BE00E94262828E230E040EF50E064E1A6
:1011200070E086E69BE00E94262828EC30E040EF45
:1011300050E06CED70E086E69BE00E9426280EE011
:1011400011E028E230E040EF50E068E270E086E62F
:101150009BE00E94262828EC30E040EF50E068EC4D
:1011600070E086E69BE00E9426280EE110E02CE36A
:1011700030E040EF50E06CE370E086E69BE00E94D8
:10118000262824EB30E040EF50E064EB70E086E688
:101190009BE00E9426282EE630E04EE150E064E11C
:1011A00070E086E69BE00E9426282CED30E04EE1C0
:1011B00050E062E870E086E69BE00E94262806E4A4
:1011C00010E02EE630E04EE150E06EE670E086E69C
:1011D0009BE00E94262822E830E04EE150E062E8E1
:1011E00070E086E69BE00E9426280EE610E024E1EF
:1011F00030E04EE150E064E170E086E69BE00E9462
:1012000026282CED30E04EE150E06CED70E086E6F3
:101210009BE00E94262806E410E02CED30E046E436
:1012200050E064E170E086E69BE00E9426280EE62E
:1012300010E02CE330E04EE650E064E170E086E63A
:101240009BE00E9426282CED30E04EE650E064EB57
:1012500070E086E69BE00E9426282AE530E046E41E
:1012600050E06AE570E086E69BE00E94262826E9C9
:1012700030E046E450E066E970E086E69BE00E94DC
:1012800026282EE630E04EE650E06AE570E086E67D
:101290009BE00E94262826E930E04EE650E062E816
:1012A00070E086E69BE00E94262890EEE92EFF245F
:1012B000FA9400EA10E02AE530E040EA50E060E00D
:1012C00070E086E69BE00E94262820EF30E040EAAE
:1012D00050E066E970E086E69BE00E94262802ED79
:1012E00010E02AE530E042E850E06AE570E086E68A
:1012F0009BE00E94262826E930E042E850E066E9BB
:1013000070E086E69BE00E94262802E810E026E9CD
:1013100030E042E850E06AE570E086E69BE00E943B
:1013200026282EE630E04EE650E06EE670E086E6D7
:101330009BE00E94262822E830E04EE650E062E87A
:1013400070E086E69BE00E9426280AEB10E026E982
:1013500030E04AEB50E06AE570E086E69BE00E94F0
:1013600026281F910F91FF90EF9008950F931F93E0
:10137000CF93DF9386E30E9448208C0187E30E948D
:101380004820EC0182E00E942B214091500B5091AB
:10139000510B20914E0B30914F0BCE01885C914048
:1013A0008336910550F4073362E0160734F4043DA8
:1013B00081E018074CF00C94481D0833A2E01A078E
:1013C0001CF082E090E006C0033DE1E01E073CF423
:1013D0008EEF9FEF90934B0B80934A0B04C01092BB
:1013E0004B0B10924A0BCC3262E0D6071CF082E025
:1013F00090E006C0C73C81E0D8073CF48EEF9FEF39
:1014000090934D0B80934C0B04C010924D0B109297
:101410004C0BCA01CD9787379105B0F4203F3105B9
:1014200099F430934F0B20934E0B10924B0B10926C
:101430004A0B942F852F453B510514F094EB80E027
:101440009093500B8093510B8091500B9091510BC6
:10145000FC01759760914E0B70914F0BB79788F414
:101460006E30A1E07A0769F410924B0B10924A0B90
:101470008D33910514F08CE390E09093510B8093A1
:10148000500B8091500B9091510BFC01E55BF109E1
:10149000B79790F46E30E1E07E0771F410924B0B39
:1014A00010924A0B8F30A1E09A0714F08EE091E081
:1014B0009093510B8093500B8091500B9091510B56
:1014C000FC01EB55F109739788F46E30E1E07E077B
:1014D00069F410924B0B10924A0B8F36910514F061
:1014E0008EE690E09093510B8093500B8091500BBF
:1014F0009091510BFC01E358F109739788F46E3019
:10150000A1E07A0769F410924B0B10924A0B8739CD
:10151000910514F086E990E09093510B8093500B65
:101520008091500B9091510BFC017597E731F14080
:1015300090F46C32E1E07E0771F410924B0B109244
:101540004A0B8D32A1E09A0714F08CE291E090935F
:10155000510B8093500B603F710561F58091500BEA
:101560009091510BFC017597739770F410924B0B8F
:1015700010924A0B70934F0B60934E0B893291057A
:10158000ACF088E290E012C0FC01E95CF109B79789
:1015900088F410924B0B10924A0B70934F0B609390
:1015A0004E0B813F910514F080EF90E09093510B2A
:1015B0008093500BE0914E0BF0914F0B8091500BAC
:1015C0009091510BE23DF10509F5BC01655171099E
:1015D0006935710550F410924B0B10924A0B8F36FF
:1015E000910534F18EE690E023C0BC016358710987
:1015F0006935710508F04EC010924B0B10924A0BE2
:101600008D3D9105ACF08CED90E012C0EA3BF10508
:10161000A1F4BC016B5571096B337105D8F51092BB
:101620004B0B10924A0B8739910514F086E990E034
:101630009093510B8093500B2DC0E03AF10551F57A
:10164000BC01615071096935710570F410924B0B42
:1016500010924A0B8B35910514F08AE590E0909337
:10166000510B8093500B75C0BC01675971096935E6
:10167000710508F06EC010924B0B10924A0BBC0122
:10168000813F910514F060EF70E07093510B60930F
:10169000500B5FC08091500B9091510BE238F105D7
:1016A000A9F4BC016B5571096B33710508F05FC07B
:1016B00010924B0B10924A0B8739910514F086E972
:1016C00090E09093510B8093500B51C0EE36F10592
:1016D00009F03FC0BC016B5571096331710508F415
:1016E00053C0BC01635871096331710558F41092FD
:1016F0004B0B10924A0B873991050CF45EC086E9BA
:1017000090E05BC0BC01655171096732710558F406
:1017100010924B0B10924A0B8D3391050CF44DC077
:101720008CE390E04AC0BC01655B710967327105CA
:1017300008F047C010924B0B10924A0BBC018D3D34
:10174000910514F06CED70E07093510B6093500BA9
:1017500038C0E634F10559F48091500B9091510B4B
:10176000BC0165517109673C710558F51DC0EE312A
:10177000F10539F58091500B9091510BBC016551E9
:1017800071096935710550F410924B0B10924A0B98
:101790008F36910594F08EE690E00FC0BC0163583F
:1017A00071096935710568F410924B0B10924A0B60
:1017B0008D3D910514F08CED90E09093510B80934A
:1017C000500B6091500B7091510BCF014F978F3E92
:1017D0009105F0F46C33710551F410924D0B109299
:1017E0004C0BCF018F30E1E09E0774F00BC0643BDF
:1017F000710571F410924D0B10924C0BCF01EF302C
:10180000F14014F08EE091E090934F0B80934E0BDB
:1018100080914E0B90914F0BFC01EF50F1407D9762
:10182000E8F46431710549F410924D0B10924C0BA1
:101830008D32E1E09E0774F00BC06C3D710571F4D0
:1018400010924D0B10924C0B8D32A1E09A0714F0C0
:101850008CE291E090934F0B80934E0B80914E0B56
:1018600090914F0BFC01E15FF1097D97E8F46A3537
:10187000710549F410924D0B10924C0B8F30E1E042
:101880009E0774F00BC06639710571F410924D0B10
:1018900010924C0B8F30A1E09A0714F08EE091E08B
:1018A00090934F0B80934E0B80914E0B90914F0B6A
:1018B000FC01EF50F1407D97E8F46E36710549F474
:1018C00010924D0B10924C0B8D32E1E09E0774F09C
:1018D0000BC06238710571F410924D0B10924C0BD5
:1018E0008D32A1E09A0714F08CE291E090934F0BB7
:1018F00080934E0B80914E0B90914F0BFC01E15F5A
:10190000F1097D97E8F46832710549F410924D0BA6
:1019100010924C0B8F30E1E09E0774F00BC0683CD6
:10192000710571F410924D0B10924C0B8F30A1E0A9
:101930009A0714F08EE091E090934F0B80934E0B3A
:1019400080914E0B90914F0BFC01E35DF1097D9767
:10195000C8F46431710549F06C3D710531F06E36A3
:10196000710519F06238710569F410924D0B1092EF
:101970004C0B813F910514F080EF90E090934F0B5A
:1019800080934E0B80914E0B90914F0BFC01EB5BC3
:10199000F1097797B8F46A35710519F06639710560
:1019A00089F410924D0B10924C0B7093510B609375
:1019B000500B833D910514F082ED90E090934F0B16
:1019C00080934E0B80914E0B90914F0BBC01615A4E
:1019D00071096931710500F56091500B7091510BDF
:1019E0006A35710529F410924D0B10924C0B0BC007
:1019F0006639710589F410924D0B10924C0B70935F
:101A0000510B6093500B8B3B910514F08AEB90E0E7
:101A100090934F0B80934E0B80914E0B90914F0BF8
:101A2000BC01635871096D31710500F56091500B6F
:101A30007091510B6A35710529F410924D0B10927B
:101A40004C0B0BC06639710589F410924D0B109246
:101A50004C0B7093510B6093500B813A910514F02D
:101A600080EA90E090934F0B80934E0B80914E0B49
:101A700090914F0BBC016F5671096331710500F5F0
:101A80006091500B7091510B6E36710529F41092D4
:101A90004D0B10924C0B0BC06238710589F41092FB
:101AA0004D0B10924C0B7093510B6093500B83387D
:101AB000910514F082E890E090934F0B80934E0BC9
:101AC00080914E0B90914F0BBC016F5171096F3497
:101AD000710530F56091500B7091510B64317105B7
:101AE00029F410924D0B10924C0B11C06C33710500
:101AF00031F0643B710519F06C3D710589F4109269
:101B00004D0B10924C0B7093510B6093500B8F3612
:101B1000910514F08EE690E090934F0B80934E0B5E
:101B200080914E0B90914F0BBC016F517109673240
:101B3000710500F56091500B7091510B6E36710577
:101B400029F410924D0B10924C0B0BC062387105AA
:101B500089F410924D0B10924C0B7093510B6093C3
:101B6000500B8734910514F086E490E090934F0B6E
:101B700080934E0B80914E0B90914F0BBC0167549C
:101B800071096732710500F56091500B7091510B2E
:101B90006A35710529F410924D0B10924C0B0BC055
:101BA0006639710589F410924D0B10924C0B7093AD
:101BB000510B6093500B8F36910514F08EE690E038
:101BC00090934F0B80934E0B6091500B7091510B83
:101BD00080914E0B90914F0B6C33710549F5803F0E
:101BE000910531F5CC32E2E0DE0754F062E070E0BE
:101BF00070934D0B60934C0B10924B0B10924A0B51
:101C0000B801635D71406536710550F06CE370E0BA
:101C10007093510B6093500B10924D0B10924C0B24
:101C2000C73C61E0D60724F410924D0B10924C0B88
:101C30006091500B7091510B643B710549F5803FE9
:101C4000910531F5CC32A2E0DA0724F010924D0B69
:101C500010924C0BB801635D71406536710550F010
:101C600064EB70E07093510B6093500B10924D0B2E
:101C700010924C0BC73CE1E0DE0754F46EEF7FEFAF
:101C800070934D0B60934C0B10924B0B10924A0BC0
:101C90006091500B7091510B6C337105E1F48E30F3
:101CA000914009F008C1CC3282E0D80724F01092AC
:101CB0004D0B10924C0B0833A2E01A0724F010923F
:101CC0004B0B10924A0BC73CE1E0DE070CF0F3C06F
:101CD0008EE091E0B2C0643B710531F58E309140E9
:101CE00009F0BDC0CC32E2E0DE0754F082E090E0C3
:101CF00090934D0B80934C0B10924B0B10924A0B10
:101D0000083382E0180724F010924B0B10924A0B14
:101D1000C73CA1E0DA070CF0A2C08EE091E09093FE
:101D20004F0B80934E0B5BC06431710509F05CC0B2
:101D30008E30914079F5CC3282E0D80754F082E0C1
:101D400090E090934D0B80934C0B10924B0B1092A4
:101D50004A0B0833A2E01A073CF082E090E090932F
:101D60004B0B80934A0B08C0033DE1E01E0724F4AF
:101D700010924B0B10924A0BC73C81E0D80754F4E9
:101D80008EE091E090934F0B80934E0B10924D0B91
:101D900010924C0B80914E0B90914F0B8C329140D6
:101DA00009F05DC0CC32E2E0DE0754F082E090E062
:101DB00090934D0B80934C0B10924B0B10924A0B4F
:101DC000083382E0180714F40C94D61A10924B0BC7
:101DD00010924A0BC73CE1E0DE070CF040C01092C5
:101DE0004D0B10924C0B3BC06C3D7105A9F58E302C
:101DF000914011F40C94E51C80914E0B90914F0B87
:101E00008C32914009F057C0CC3262E0D60724F002
:101E100010924D0B10924C0B083382E0180714F40B
:101E20000C94181D10924B0B10924A0BC73C61E0AA
:101E3000D6070CF040C08CE291E090934F0B80935A
:101E40004E0B8EEF9FEF90934D0B80934C0B1092A7
:101E50004B0B10924A0B2FC06A35710539F1663968
:101E6000710549F580914E0B90914F0B803F910584
:101E700011F5CC3282E0D8073CF010924B0B109257
:101E80004A0B82E090E00CC0C73CA1E0DA0714F0F6
:101E90000C94E41A10924B0B10924A0B8EEF9FEFAA
:101EA00090934D0B80934C0B0C94E41A803F91055A
:101EB00011F40C94261D8091500B9091510B609160
:101EC0004E0B70914F0B8A359105C9F56E30E1E0EC
:101ED0007E0709F094C0CC3282E0D8075CF0109203
:101EE0004B0B10924A0B82E090E090934D0B809345
:101EF0004C0B0CC0C73CA1E0DA0744F410924B0B2A
:101F000010924A0B10924D0B10924C0B0833E2E0EA
:101F10001E072CF010924B0B10924A0B0BC0033D86
:101F200081E018070CF06BC08EEF9FEF90934B0B86
:101F300080934A0B10924D0B10924C0B60C0863967
:101F4000910549F56E30A1E07A0709F058C0C73C09
:101F5000E1E0DE075CF410924B0B10924A0B8EEF1F
:101F60009FEF90934D0B80934C0B0CC0CC3282E0D2
:101F7000D80744F010924B0B10924A0B10924D0B65
:101F800010924C0B0833A2E01A0724F6033DE1E05F
:101F90001E0754F234C08E36910589F56E3081E00B
:101FA000780769F5C73CA1E0DA073CF48EEF9FEFB4
:101FB00090934D0B80934C0B08C0CC32E2E0DE07CF
:101FC00044F010924D0B10924C0B10924B0B109250
:101FD0004A0B0833E2E01E0714F40C94FC1A8EE658
:101FE00090E09093510B8093500B10924D0B1092F8
:101FF0004C0B82E090E090934B0B80934A0B8091C6
:10200000500B9091510B8238910589F56E30A1E00B
:102010007A0769F5CC32E2E0DE073CF082E090E03E
:1020200090934D0B80934C0B08C0C73C81E0D807C0
:1020300044F410924D0B10924C0B10924B0B1092DB
:102040004A0B083382E0180714F40C94081B82E84A
:1020500090E09093510B8093500B10924D0B109287
:102060004C0B82E090E090934B0B80934A0B809155
:10207000500B9091510B8E36910579F56C32E1E061
:102080007E0759F5CC3282E0D8071CF082E090E060
:1020900006C0C73CA1E0DA0754F48EEF9FEF90939F
:1020A0004D0B80934C0B10924B0B10924A0B033D3F
:1020B000A1E01A0714F00C94141B8EE690E09093A4
:1020C000510B8093500B10924D0B10924C0B8EEFD6
:1020D0009FEF90934B0B80934A0B8091500B909104
:1020E000510B8238910579F56C3281E0780759F50A
:1020F000CC32A2E0DA071CF082E090E006C0C73CD8
:10210000E1E0DE0754F48EEF9FEF90934D0B809348
:102110004C0B10924B0B10924A0B033DE1E01E0753
:1021200014F00C94201B82E890E09093510B809364
:10213000500B10924D0B10924C0B8EEF9FEF909323
:102140004B0B80934A0B8091500B9091510B8897C9
:1021500079F56E30A1E07A0759F5CC32E2E0DE077E
:102160001CF082E090E006C0C73C81E0D80754F440
:102170008EEF9FEF90934D0B80934C0B10924B0B77
:1021800010924A0B033D81E0180714F00C942C1BAD
:1021900088E290E09093510B8093500B10924D0B7E
:1021A00010924C0B8EEF9FEF90934B0B80934A0B4A
:1021B0008091500B9091510B883C910579F56E30D0
:1021C000E1E07E0759F5CC3282E0D8071CF082E0CE
:1021D00090E006C0C73CA1E0DA0754F48EEF9FEF11
:1021E00090934D0B80934C0B10924B0B10924A0B1B
:1021F000033DA1E01A0714F00C94381B88EC90E022
:102200009093510B8093500B10924D0B10924C0BEE
:102210008EEF9FEF90934B0B80934A0B8091500B66
:102220009091510B8897B9F5603F7105A1F5CC32BB
:1022300082E0D8072CF010924D0B10924C0B0AC084
:10224000C73CA1E0DA0754F48EEF9FEF90934D0B5B
:1022500080934C0B10924B0B10924A0B033DE1E024
:102260001E072CF410924B0B10924A0B14C008332B
:1022700082E0180784F088E290E09093510B8093FD
:10228000500B10924D0B10924C0B82E090E090930B
:102290004B0B80934A0B8091500B9091510B883CD3
:1022A0009105B9F5603F7105A1F5CC32A2E0DA07DE
:1022B0003CF082E090E090934D0B80934C0B08C073
:1022C000C73CE1E0DE0744F410924D0B10924C0B3A
:1022D00010924B0B10924A0B033D81E018072CF42F
:1022E00010924B0B10924A0B14C00833A2E01A074D
:1022F00084F088EC90E09093510B8093500B1092F7
:102300004D0B10924C0B82E090E090934B0B80931E
:102310004A0B8091500B9091510B449781F5603F8F
:10232000710569F5CC32E2E0DE073CF082E090E036
:1023300090934D0B80934C0B08C0C73C81E0D807AD
:1023400044F410924D0B10924C0B10924B0B1092C8
:102350004A0B033DE1E01E0714F00C94441B84E19A
:1023600090E09093510B8093500B8EEF9FEF9093E2
:102370004B0B80934A0B10924D0B10924C0B80919B
:10238000500B9091510B8C3D910581F5603F71058B
:1023900069F5C73CE1E0DE073CF48EEF9FEF9093D8
:1023A0004D0B80934C0B08C0CC3282E0D80744F030
:1023B00010924D0B10924C0B10924B0B10924A0B3B
:1023C000033D81E0180714F00C94501B8CED90E055
:1023D0009093510B8093500B8EEF9FEF90934B0B8C
:1023E00080934A0B10924D0B10924C0B8091500B26
:1023F0009091510B449781F5623D710569F5CC329E
:10240000E2E0DE073CF082E090E090934D0B809399
:102410004C0B08C0C73C81E0D80744F410924D0B28
:1024200010924C0B10924B0B10924A0B0833A2E007
:102430001A0714F40C945C1B84E190E09093510B08
:102440008093500B82E090E090934B0B80934A0B6B
:1024500010924D0B10924C0B8091500B9091510BA0
:102460008C3D910581F5623D710569F5C73CE1E060
:10247000DE073CF48EEF9FEF90934D0B80934C0B57
:1024800008C0CC3282E0D80744F010924D0B109275
:102490004C0B10924B0B10924A0B0833E2E01E07D4
:1024A00014F40C94681B8CED90E09093510B809386
:1024B000500B82E090E090934B0B80934A0B10926C
:1024C0004D0B10924C0B8091500B9091510B8E360E
:1024D000910571F5603F710559F5C73CE1E0DE07F4
:1024E0001CF48EEF9FEF06C0CC3282E0D80754F088
:1024F00082E090E090934D0B80934C0B10924B0B2D
:1025000010924A0B033D81E0180714F00C94741BE1
:102510008EE690E09093510B8093500B8EEF9FEFDF
:1025200090934B0B80934A0B10924D0B10924C0BD7
:102530008091500B9091510B8238910571F5603F5D
:10254000710559F5C73CE1E0DE071CF48EEF9FEF03
:1025500006C0CC3282E0D80754F082E090E090933D
:102560004D0B80934C0B10924B0B10924A0B033D7A
:10257000A1E01A0714F00C94801B82E890E090937D
:10258000510B8093500B8EEF9FEF90934B0B8093EA
:102590004A0B10924D0B10924C0B8091500B909166
:1025A000510B8E36910581F5623D710569F5C73C89
:1025B000E1E0DE073CF48EEF9FEF90934D0B8093AC
:1025C0004C0B08C0CC3282E0D80744F010924D0B7F
:1025D00010924C0B10924B0B10924A0B0833E2E016
:1025E0001E0714F40C948C1B8EE690E09093510B14
:1025F0008093500B82E090E090934B0B80934A0BBA
:1026000010924D0B10924C0B8091500B9091510BEE
:102610008238910581F5623D710569F5CC32E2E0C1
:10262000DE073CF082E090E090934D0B80934C0BE2
:1026300008C0C73C81E0D80744F410924D0B1092BB
:102640004C0B10924B0B10924A0B083382E0180788
:1026500014F40C94981B82E890E09093510B8093B3
:10266000500B82E090E090934B0B80934A0B1092BA
:102670004D0B10924C0B8091500B9091510BCC97BD
:1026800009F040C0615D710963307105D8F5CC3245
:10269000E2E0DE074CF082ED90E090934F0B8093E8
:1026A0004E0B82E090E00CC0C73C61E0D60784F49A
:1026B00082ED90E090934F0B80934E0B8EEF9FEF47
:1026C00090934D0B80934C0B10924B0B10924A0B36
:1026D0000833A2E01A0714F00C94A41B033D81E018
:1026E000180784F48EEF9FEF90934B0B80934A0B67
:1026F00010924D0B10924C0B8CE390E09093510B89
:102700008093500B6091500B7091510B80914E0B48
:1027100090914F0B643B710591F5823D910579F5E0
:10272000CC32A2E0DA071CF062E070E006C0C73CE1
:10273000E1E0DE0754F46EEF7FEF70934D0B609392
:102740004C0B10924B0B10924A0B0833E2E01E0721
:1027500014F00C94A81B033D61E0160784F46EEF9F
:102760007FEF70934B0B60934A0B10924D0B1092BE
:102770004C0B64EB70E07093510B6093500B6091C5
:10278000500B7091510B6A357105C9F5823D910569
:10279000B1F5CC32A2E0DA071CF062E070E006C0CE
:1027A000C73CE1E0DE0754F46EEF7FEF70934D0B12
:1027B00060934C0B10924B0B10924A0B083362E063
:1027C00016074CF010924B0B10924A0B10924D0BC7
:1027D00010924C0B14C0033DA1E01A0784F46AE583
:1027E00070E07093510B6093500B10924D0B109250
:1027F0004C0B6EEF7FEF70934B0B60934A0B609125
:10280000500B7091510B66397105A9F5823D910508
:1028100091F5CC32E2E0DE071CF062E070E006C029
:10282000C73C61E0D60754F46EEF7FEF70934D0B19
:1028300060934C0B10924B0B10924A0B0833A2E0A2
:102840001A072CF010924D0B10924C0B14C0033D44
:10285000E1E01E0784F466E970E07093510B609329
:10286000500B10924D0B10924C0B6EEF7FEF70934C
:102870004B0B60934A0B6091500B7091510B6A3572
:10288000710551F58A3B910539F5CC3262E0D607E6
:102890005CF062E070E070934D0B60934C0B109213
:1028A0004B0B10924A0B08C0C73CA1E0DA0724F496
:1028B00010924D0B10924C0BB801635D7140653660
:1028C000710550F06AE570E07093510B6093500B06
:1028D00010924D0B10924C0B6091500B7091510B5C
:1028E0006639710551F58A3B910539F5C73CE1E040
:1028F000DE075CF46EEF7FEF70934D0B60934C0B33
:1029000010924B0B10924A0B08C0CC3262E0D607F3
:1029100024F010924D0B10924C0BB801635D714086
:102920006536710550F066E970E07093510B609365
:10293000500B10924D0B10924C0B6091500B7091FC
:10294000510B6A35710551F5803A910539F5C73C4F
:10295000A1E0DA075CF46EEF7FEF70934D0B6093AC
:102960004C0B10924B0B10924A0B08C0CC32E2E099
:10297000DE0724F010924D0B10924C0BB801635DF2
:1029800071406536710550F06AE570E07093510B47
:102990006093500B10924D0B10924C0B6091500BAA
:1029A0007091510B6639710551F5803A910539F5F1
:1029B000CC3262E0D6075CF062E070E070934D0BC1
:1029C00060934C0B10924B0B10924A0B08C0C73C03
:1029D000A1E0DA0724F410924D0B10924C0BB801D1
:1029E000635D71406536710550F066E970E0709383
:1029F000510B6093500B10924D0B10924C0B609149
:102A0000500B7091510B6C33710569F5803A91054B
:102A100051F5CC32E2E0DE071CF062E070E006C067
:102A2000C73C61E0D60754F46EEF7FEF70934D0B17
:102A300060934C0B10924B0B10924A0B083362E0E0
:102A400016070CF488C66CE370E07093510B60932A
:102A5000500B62E070E070934B0B60934A0B109246
:102A60004D0B10924C0B6091500B7091510B643BCD
:102A7000710569F5803A910551F5CC32E2E0DE0747
:102A80001CF062E070E006C0C73C61E0D60754F479
:102A90006EEF7FEF70934D0B60934C0B10924B0BCE
:102AA00010924A0B0833A2E01A070CF46AC664EBD2
:102AB00070E07093510B6093500B62E070E0709384
:102AC0004B0B60934A0B10924D0B10924C0B609184
:102AD000500B7091510B672BC9F5803A9105B1F5F8
:102AE000CC32E2E0DE073CF062E070E070934D0B28
:102AF00060934C0B0EC0C73C61E0D60774F4109293
:102B00004D0B10924C0B60EF70E07093510B609383
:102B1000500B10924B0B10924A0B0833A2E01A078D
:102B20004CF010924B0B10924A0B10924D0B1092DE
:102B30004C0B0CC0033DE1E01E0744F410924D0B1A
:102B400010924C0B10924B0B10924A0B6091500B51
:102B50007091510B603F7105B9F5803A9105A1F56F
:102B6000CC3262E0D6074CF01092510B1092500B11
:102B700010924D0B10924C0B0AC0C73CA1E0DA0733
:102B800054F46EEF7FEF70934D0B60934C0B1092EB
:102B90004B0B10924A0B0833E2E01E074CF01092E8
:102BA0004B0B10924A0B10924D0B10924C0B0CC019
:102BB000033D61E0160744F410924D0B10924C0B4C
:102BC00010924B0B10924A0B6091500B7091510B6D
:102BD0006A35710579F58238910561F5CC32A2E04C
:102BE000DA0754F062E070E070934D0B60934C0B89
:102BF00010924B0B10924A0B0833E2E01E0754F080
:102C00006AE570E07093510B6093500B10924D0B7E
:102C100010924C0BC73CE1E0DE0724F410924D0B00
:102C200010924C0B033D61E0160724F410924B0BFD
:102C300010924A0B6091500B7091510B66397105DF
:102C400079F58238910561F5C73CA1E0DA0754F4C3
:102C50006EEF7FEF70934D0B60934C0B10924B0B0C
:102C600010924A0B083362E0160754F066E970E0F0
:102C70007093510B6093500B10924D0B10924C0BB4
:102C8000CC32E2E0DE0724F010924D0B10924C0B98
:102C9000033D61E0160724F410924B0B10924A0B8F
:102CA0006091500B7091510B6E36710511F58238A1
:102CB0009105F9F4BE01675C71406536710520F03D
:102CC00010924B0B10924A0B033DA1E01A070CF037
:102CD0006EC56EE670E07093510B6093500B6EEF13
:102CE0007FEF70934B0B60934A0B10924D0B109239
:102CF0004C0B6091500B7091510B6238710511F5BE
:102D000082389105F9F4BE01675C71406536710542
:102D100020F010924B0B10924A0B033DE1E01E078E
:102D20000CF04FC562E870E07093510B6093500B4C
:102D30006EEF7FEF70934B0B60934A0B10924D0B2D
:102D400010924C0B6091500B7091510B6E367105C7
:102D500049F58E36910531F5C73C61E0D6072CF474
:102D600010924B0B10924A0B08C0CC32A2E0DA074B
:102D700024F010924D0B10924C0B083362E01607B2
:102D80000CF429C56EE670E07093510B6093500B04
:102D900062E070E070934B0B60934A0B10924D0B06
:102DA00010924C0B6091500B7091510B6238710571
:102DB00049F58E36910531F5CC3262E0D6072CF01C
:102DC00010924B0B10924A0B08C0C73CA1E0DA07E7
:102DD00024F410924D0B10924C0B0833A2E01A070A
:102DE0000CF403C562E870E07093510B6093500BD4
:102DF00062E070E070934B0B60934A0B10924D0BA6
:102E000010924C0B6091500B7091510B6A3571050B
:102E100049F58E36910531F5CC3262E0D6072CF0BB
:102E200010924B0B10924A0B08C0C73CA1E0DA0786
:102E300024F410924D0B10924C0B033DE1E01E0761
:102E40000CF0DDC46AE570E07093510B6093500B99
:102E50006EEF7FEF70934B0B60934A0B10924D0B0C
:102E600010924C0B6091500B7091510B66397105AB
:102E700049F58E36910531F5C73C61E0D6072CF453
:102E800010924B0B10924A0B08C0CC32A2E0DA072A
:102E900024F010924D0B10924C0B033D61E016078D
:102EA0000CF0B7C466E970E07093510B6093500B5F
:102EB0006EEF7FEF70934B0B60934A0B10924D0BAC
:102EC00010924C0B6091500B7091510B6431710555
:102ED00049F58E36910531F5CC3262E0D6072CF0FB
:102EE00010924B0B10924A0B08C0C73CA1E0DA07C6
:102EF00024F410924D0B10924C0B033DA1E01A07E5
:102F00000CF091C464E170E07093510B6093500B2E
:102F10006EEF7FEF70934B0B60934A0B10924D0B4B
:102F200010924C0B6091500B7091510B6C3D7105E0
:102F300049F58E36910531F5C73C61E0D6072CF492
:102F400010924B0B10924A0B08C0CC32A2E0DA0769
:102F500024F010924D0B10924C0B033DE1E01E0744
:102F60000CF06BC46CED70E07093510B6093500BE0
:102F70006EEF7FEF70934B0B60934A0B10924D0BEB
:102F800010924C0B6091500B7091510B6C3371058A
:102F900051F58E36910539F5C73C61E0D6075CF4F2
:102FA0006EEF7FEF70934D0B60934C0B10924B0BB9
:102FB00010924A0B08C0CC32A2E0DA0724F010923B
:102FC0004D0B10924C0BB801635D71406536710575
:102FD00050F06CE370E07093510B6093500B1092C3
:102FE0004D0B10924C0B6091500B7091510B643B48
:102FF000710551F58E36910539F5CC32E2E0DE07E8
:103000005CF062E070E070934D0B60934C0B10929B
:103010004B0B10924A0B08C0C73C61E0D60724F462
:1030200010924D0B10924C0BB801635D71406536E8
:10303000710550F064EB70E07093510B6093500B8E
:1030400010924D0B10924C0B6091500B7091510BE4
:103050006431710551F58634910539F5CC32A2E021
:10306000DA075CF062E070E070934D0B60934C0BFC
:1030700010924B0B10924A0B08C0C73CE1E0DE07F0
:1030800024F410924D0B10924C0BB801635D71400B
:103090006536710550F064E170E07093510B6093F8
:1030A000500B10924D0B10924C0B6091500B709185
:1030B000510B6C3D710551F58634910539F5C73CCE
:1030C00061E0D6075CF46EEF7FEF70934D0B609379
:1030D0004C0B10924B0B10924A0B08C0CC32A2E062
:1030E000DA0724F010924D0B10924C0BB801635D7F
:1030F00071406536710550F06CED70E07093510BC6
:103100006093500B10924D0B10924C0B6091500B32
:103110007091510B6C33710521F06A357105D1F452
:103120001DC086349105B1F40833E2E01E071CF09F
:10313000E2E0F0E006C0033DA1E01A0754F5EEEF2F
:10314000FFEFF0934B0BE0934A0B10924D0B109254
:103150004C0B1FC06E36710589F534C0863491055D
:1031600069F5083382E018075CF082E090E0909304
:103170004B0B80934A0B10924D0B10924C0B3DC0A1
:10318000033DA1E01A07CCF510924B0B10924A0BAD
:1031900034C0CC32A2E0DA070CF459C386E490E0E4
:1031A00090934F0B80934E0B82E090E090934D0BE9
:1031B00080934C0B10924B0B10924A0B62387105A6
:1031C00089F534C08634910569F5033D81E018071F
:1031D0005CF48EEF9FEF90934B0B80934A0B109211
:1031E0004D0B10924C0B41C00833A2E01A07ECF1D2
:1031F00010924B0B10924A0B38C0CC32E2E0DE0743
:103200000CF433C386E490E090934F0B80934E0B05
:1032100082E090E090934D0B80934C0B10924B0BFF
:1032200010924A0B66397105A9F538C080914E0B92
:1032300090914F0B8634910569F5033D81E01807A5
:103240005CF48EEF9FEF90934B0B80934A0B1092A0
:103250004D0B10924C0B42C00833A2E01A07F4F158
:1032600010924B0B10924A0B39C0CC3282E0D80737
:103270000CF409C386E490E090934F0B80934E0BBF
:1032800082E090E090934D0B80934C0B10924B0B8F
:1032900010924A0B643B7105B1F53AC080914E0B18
:1032A00090914F0B8634910571F5083382E0180731
:1032B0005CF082E090E090934B0B80934A0B10926D
:1032C0004D0B10924C0BFBC2033DA1E01A070CF012
:1032D000F6C210924B0B10924A0BF1C2CC32A2E014
:1032E000DA070CF4DEC286E490E090934F0B8093F3
:1032F0004E0B82E090E090934D0B80934C0B10921C
:103300004B0B10924A0B6431710509F041C01DC08E
:1033100080914E0B90914F0B86349105C9F508337F
:1033200062E016071CF082E090E006C0033D81E0F9
:10333000180724F58EEF9FEF90934B0B80934A0B69
:1033400010924D0B10924C0B19C080914E0B909126
:103350004F0B4E97E9F4CC32E2E0DE072CF01092EE
:103360004B0B10924A0BD4C2C73C61E0D6070CF05D
:10337000CFC210924D0B10924C0BCAC2CC3262E0FD
:10338000D6070CF0A5C2C73CA1E0DA070CF4A9C22D
:103390008091500B9091510B60914E0B70914F0B9F
:1033A0008C33910521F0843B910529F528C06E31BD
:1033B000710509F50833A2E01A075CF0E2E0F0E0DD
:1033C000F0934B0BE0934A0B10924D0B10924C0B69
:1033D00008C0033DE1E01E0724F410924B0B10924D
:1033E0004A0BCC32A2E0DA070CF0A7C2C73CA1E03E
:1033F000DA070CF4ABC28C3D9105E1F51BC06E31D0
:103400007105C1F50833E2E01E075CF082E090E050
:1034100090934B0B80934A0B10924D0B10924C0BD8
:103420001FC0033D61E01607DCF410924B0B1092B5
:103430004A0B16C06E317105E9F4C73CA1E0DA070A
:103440002CF410924B0B10924A0B97C2CC32E2E054
:10345000DE070CF492C210924D0B10924C0B8DC2F1
:10346000CC32E2E0DE070CF068C2C73C81E0D8074E
:103470000CF46CC28091500B9091510BE0914E0B6B
:10348000F0914F0B8E36910549F5EE31F10531F58E
:10349000C73C81E0D8072CF410924B0B10924A0BDA
:1034A00008C0CC32A2E0DA0724F010924D0B109243
:1034B0004C0B083382E018070CF474C28EE690E0DF
:1034C0009093510B8093500B82E090E090934B0BC4
:1034D00080934A0B10924D0B10924C0B8091500B25
:1034E0009091510B8238910541F5EE31F10529F5A6
:1034F000CC3282E0D8072CF010924B0B10924A0B82
:1035000007C0C73CD14024F410924D0B10924C0BD5
:103510000833A2E01A070CF44FC282E890E09093BF
:10352000510B8093500B82E090E090934B0B809373
:103530004A0B10924D0B10924C0B6091500B7091F6
:10354000510B80914C0B90914D0B860F971F9093D0
:10355000510B8093500B60914A0B70914B0B6E0F87
:103560007F1F70934F0B60934E0B10924D0B109278
:103570004C0B10924B0B10924A0B8417950719F4C1
:103580006217730711F00E943204809100028111CA
:103590000E94CD050E94AE076AE070E080E090E0F6
:1035A000DF91CF911F910F910C94C01F033DA1E0BB
:1035B0001A0714F00C94EA0E8EEF9FEF90934B0BCA
:1035C00080934A0B0C94EA0E0833A2E01A0714F415
:1035D0000C945B0F86E990E09093510B8093500B15
:1035E00010924D0B10924C0B82E090E090934B0B9D
:1035F00080934A0B0C945B0F033D81E0180714F095
:103600000C94FF0F10924B0B10924A0B0C94FF0F6F
:10361000033DA1E01A0714F00C94371010924B0BE5
:1036200010924A0B0C9437100833E2E01E0714F492
:103630000C946D1010924B0B10924A0B0C946D1061
:10364000083382E0180714F40C94A31010924B0B6B
:1036500010924A0B0C94A3100833A2E01A0714F43A
:103660000C94D81010924B0B10924A0B0C94D8105B
:103670000833E2E01E0714F40C940E1110924B0B69
:1036800010924A0B0C940E110833A2E01A0714F49E
:103690000C94BF1110924B0B10924A0B0C94BF115B
:1036A0000833A2E01A0714F40C94F61110924B0B95
:1036B00010924A0B0C94F611033DA1E01A0714F086
:1036C0000C942C1210924B0B10924A0B0C942C124F
:1036D000033DA1E01A0714F00C94631210924B0BF7
:1036E00010924A0B0C9463120833A2E01A0714F4E8
:1036F0000C94981210924B0B10924A0B0C94981247
:103700000833A2E01A0714F40C94CD1210924B0B5C
:1037100010924A0B0C94CD12033DA1E01A0714F04D
:103720000C94041310924B0B10924A0B0C9404133C
:10373000033DA1E01A0714F00C943B1310924B0BBD
:1037400010924A0B0C943B1382E090E00C9474139B
:1037500062E070E006C8033DA1E01A070CF083C9DF
:103760006CE370E07093510B6093500B10924D0B13
:1037700010924C0B6EEF7FEF70934B0B60934A0BE4
:1037800072C9033DA1E01A070CF0A1C964EB70E017
:103790007093510B6093500B10924D0B10924C0B89
:1037A0006EEF7FEF70934B0B60934A0B90C9083319
:1037B000A2E01A070CF49DCA10924B0B10924A0B10
:1037C00098CA0833E2E01E070CF4BCCA10924B0BF7
:1037D00010924A0BB7CA033DE1E01E070CF0E2CAA3
:1037E00010924B0B10924A0BDDCA033DE1E01E071D
:1037F0000CF008CB10924B0B10924A0B03CB083302
:10380000E2E01E070CF42ECB10924B0B10924A0BE9
:1038100029CB0833E2E01E070CF454CB10924B0B7B
:1038200010924A0B4FCB0833E2E01E070CF47ACB20
:1038300010924B0B10924A0B75CB0833E2E01E0737
:103840000CF4A0CB10924B0B10924A0B9BCBC73CB5
:10385000E1E0DE070CF07ECC86E490E090934F0B25
:1038600080934E0B8EEF9FEFA1CCC73CE1E0DE07CB
:103870000CF0A4CC86E490E090934F0B80934E0B19
:103880008EEF9FEFC7CCC73CE1E0DE070CF0CACC5F
:1038900086E490E090934F0B80934E0B8EEF9FEF5A
:1038A000F1CCC73CE1E0DE070CF0F4CC86E490E01C
:1038B00090934F0B80934E0B8EEF9FEF1CCDCC322D
:1038C000E2E0DE072CF4C73CE1E0DE0754F01BCD5C
:1038D00086E490E090934F0B80934E0B82E090E053
:1038E00008C086E490E090934F0B80934E0B8EEFD0
:1038F0009FEF90934D0B80934C0B05C0033D81E0EF
:1039000018070CF045CD10924B0B10924A0B40CD8E
:10391000083382E0180794F384E190E09093510B10
:103920008093500B82E090E090934B0B80934A0B76
:1039300010924D0B10924C0B2BCD8EE190E090939A
:103940004F0B80934E0B82E090E008C08EE190E038
:1039500090934F0B80934E0B8EEF9FEF90934D0BF8
:1039600080934C0B05C0033D61E016070CF082CD3F
:1039700010924B0B10924A0B7DCD083362E0160774
:1039800094F38CED90E09093510B8093500B82E078
:1039900090E090934B0B80934A0B10924D0B10923A
:1039A0004C0B68CD033D61E016070CF097CD1092EB
:1039B0004B0B10924A0B92CD033D11400CF0BDCD44
:1039C00010924B0B10924A0BB8CDCC32E2E0DE07DE
:1039D00024F010924D0B10924C0B083362E0160746
:1039E0003CF082E090E090934B0B80934A0B08C030
:1039F000033D81E0180724F410924B0B10924A0B00
:103A0000C73CA1E0DA0714F00C94FC0E8EE091E0C4
:103A100090934F0B80934E0B8EEF9FEF90934D0B37
:103A200080934C0B10924B0B10924A0B0C94FC0E93
:103A3000033DA1E01A0714F00C94160F8EEF9FEFD0
:103A400090934B0B80934A0B0C94160FCC32E2E010
:103A5000DE073CF010924B0B10924A0B82E090E094
:103A60000AC0C73C61E0D60754F410924B0B109289
:103A70004A0B8EEF9FEF90934D0B80934C0B0833C6
:103A800082E0180714F40C945B0F8AE590E0A4CD53
:103A9000DF91CF911F910F9108958F929F92AF92D6
:103AA000BF92CF92DF92EF92FF920F931F93CF932B
:103AB000DF9382E00E942B21EC018091480B9091D2
:103AC000490B019751F58091540390915503843F20
:103AD00091401CF562E072E088E09CE00E94912138
:103AE0006091540370915503FB01EE0FFF1FEE0F21
:103AF000FF1FEA5AFC4F8091500B9091510B91831C
:103B0000808380914E0B90914F0B938382836F5FE4
:103B10007F4F70935503609354038091480B9091AD
:103B2000490B009779F4CD2B89F46FE072E088E0BF
:103B30009CE00E94AE2181E090E09093490B80933D
:103B4000480B8FC0019711F4CD2B41F080915403A5
:103B500090915503833F914009F095C069E172E06F
:103B600088E09CE00E94AE211092490B1092480B15
:103B700081E090E09093470B8093460BC5E0D0E046
:103B800068E272E088E09CE00E9491214AE050E007
:103B9000BE0188E09CE00E9460226CE372E088E055
:103BA0009CE00E94AE21219768EE73E080E090E0F7
:103BB0000E94C01F209721F70091540310915503D4
:103BC000E801CC0FDD1FCC0FDD1FCA5ADC4F17FDFB
:103BD0002EC0688179814AE050E088E09CE00E9434
:103BE00060226A817B814AE050E088E09CE00E948C
:103BF0006722A880B9808A809B80AE14BF0419F424
:103C00008C149D0431F09601A701B401C5010E94F6
:103C100032040E94AE0762E370E080E090E00E9410
:103C2000C01F01501109249764017501D0CF109273
:103C3000550310925403809156039091570390932B
:103C4000510B8093500B809158039091590390939E
:103C50004F0B80934E0B69E472E088E09CE00E9479
:103C6000AE2164EF71E080E090E0DF91CF911F9191
:103C70000F91FF90EF90DF90CF90BF90AF909F900B
:103C80008F900C94C01FDF91CF911F910F91FF90E7
:103C9000EF90DF90CF90BF90AF909F908F9008955E
:103CA0000E94E61F40E855E260E070E088E09CE09A
:103CB0000E94FA2488E09CE00E94CB2262E082E02D
:103CC0000E94BF2040E050E0BA0186E69BE00C94E1
:103CD0003C2FEF92FF920F931F93CF93DF9360E0FF
:103CE00070E086E69BE00E940828C8E7D0E0D09309
:103CF000510BC093500B80EF90E090934F0B80934B
:103D00004E0B00EE1FEF27E030E040EF50E068E799
:103D100070E086E69BE00E94062A8FE1E82EF12CF7
:103D200004E010E020EF30E046E351E060E070E0B6
:103D300086E69BE00E94242E20EF30E04AE050E02F
:103D400060E070E086E69BE00E94242E0EE110E029
:103D500023E030E04AE050E060E070E086E69BE07F
:103D60000E94242E0E94AE0761E086E69BE00E943E
:103D70003F2D60E086E69BE00E94452D8091000289
:103D8000882309F464C020EA30E03093450B209387
:103D9000440B88EC90E09093430B8093420BD093BC
:103DA000410BC093400B90933F0B80933E0B84E6F6
:103DB00090E090933D0B80933C0B46E450E0509391
:103DC0003B0B40933A0B3093390B2093380B909375
:103DD000370B8093360B00E018EF27E030E048EC1B
:103DE00050E060EA70E086E69BE00E94062A40917F
:103DF0003E0B50913F0B6091400B7091410B0FE1D6
:103E000018EF27E030E086E69BE00E94062A40910A
:103E10003A0B50913B0B60913C0B70913D0B0FEFB7
:103E200017E027E030E086E69BE00E94062A4091FA
:103E3000360B5091370B6091380B7091390B00E2C3
:103E40001DEF27E030E086E69BE00E94062A40E076
:103E500050E060E070E086E69BE00E94392D61E072
:103E600086E69BE00E943F2D62EA72E086E69BE0D8
:103E70000E94AE2161E872E086E69BE0DF91CF917F
:103E80001F910F91FF90EF900C94AE2110920002C1
:103E90000E94501E0E94691E0E94B6090E944D1D7C
:103EA000FBCF1F920F920FB60F9211242F933F93C7
:103EB0008F939F93AF93BF9380919A0B90919B0B9D
:103EC000A0919C0BB0919D0B3091990B23E0230F97
:103ED0002D3720F40196A11DB11D05C026E8230F42
:103EE0000296A11DB11D2093990B80939A0B90937C
:103EF0009B0BA0939C0BB0939D0B80919E0B90917C
:103F00009F0BA091A00BB091A10B0196A11DB11D1B
:103F100080939E0B90939F0BA093A00BB093A10B4B
:103F2000BF91AF919F918F913F912F910F900FBEB5
:103F30000F901F9018953FB7F89480919E0B909129
:103F40009F0BA091A00BB091A10B26B5A89B05C01B
:103F50002F3F19F00196A11DB11D3FBFBA2FA92F08
:103F6000982F8827820F911DA11DB11DBC01CD0185
:103F700042E0660F771F881F991F4A95D1F7089571
:103F8000CF92DF92EF92FF92CF93DF936B017C0190
:103F90000E949B1FEB01C114D104E104F10479F0EC
:103FA0000E949B1F6C1B7D0B683E7340A0F381E059
:103FB000C81AD108E108F108C851DC4FECCFDF91F5
:103FC000CF91FF90EF90DF90CF900895789484B5D3
:103FD000826084BD84B5816084BD85B5826085BD05
:103FE00085B5816085BDEEE6F0E0808181608083EB
:103FF000E1E8F0E0108280818260808380818160CE
:104000008083E0E8F0E0808181608083E1EBF0E094
:10401000808184608083E0EBF0E080818160808338
:10402000E1E9F0E08081826080838081816080832B
:10403000E0E9F0E0808181608083E1EAF0E0808166
:1040400082608083808181608083E0EAF0E080810B
:1040500081608083E1E2F1E0808182608083808101
:1040600081608083E0E2F1E0808181608083EAE723
:10407000F0E08081846080838081826080838081A1
:10408000816080838081806880831092C100089560
:10409000863308F0865390917B00282F2870977FF5
:1040A000922B90937B0087702091010290E4299FCE
:1040B00090011124822B80937C0080917A0080648F
:1040C00080937A0080917A0086FDFCCF8091780001
:1040D0002091790090E0922B089590E0FC013197B7
:1040E000E131F10508F04AC08827EE58FF4F8F4FA5
:1040F0000C943334809180008F7703C080918000CE
:104100008F7D80938000089584B58F7702C084B539
:104110008F7D84BD08958091B0008F7703C080911A
:10412000B0008F7D8093B0000895809190008F77CC
:1041300007C0809190008F7D03C080919000877FA1
:104140008093900008958091A0008F7707C08091A0
:10415000A0008F7D03C08091A000877F8093A00086
:104160000895809120018F7707C0809120018F7D75
:1041700003C080912001877F809320010895CF9311
:10418000DF9390E0FC01E05EFD4F2491FC01EA59D1
:10419000FD4F8491882361F190E0880F991FFC0105
:1041A000E052FD4FC591D491FC01EA53FD4FA5911A
:1041B000B491611109C09FB7F8948881209582233A
:1041C0008883EC912E230BC0623061F49FB7F89482
:1041D0003881822F809583238883EC912E2B2C931A
:1041E0009FBF06C08FB7F894E8812E2B28838FBF1E
:1041F000DF91CF9108951F93CF93DF93282F30E065
:10420000F901E652FE4F8491F901E05EFD4FD49131
:10421000F901EA59FD4FC491CC23C9F0162F811141
:104220000E946D20EC2FF0E0EE0FFF1FEA53FD4FD0
:10423000A591B4918FB7F894111105C09C91ED2F01
:10424000E095E92302C0EC91ED2BEC938FBFDF9159
:10425000CF911F910895CF93DF93282F30E0F9017C
:10426000E652FE4F8491F901E05EFD4FD491F901D1
:10427000EA59FD4FC491CC2391F081110E946D2029
:10428000EC2FF0E0EE0FFF1FE455FD4FA591B49128
:10429000EC91ED2381E090E021F480E002C080E029
:1042A00090E0DF91CF910895CF92DF92EF92FF924D
:1042B0000F931F93CF93DF936C01EB017B01E40E0F
:1042C000F51E00E010E0CE15DF0561F06991D60122
:1042D000ED91FC910190F081E02DC6011995080F38
:1042E000191FF1CFC801DF91CF911F910F91FF905E
:1042F000EF90DF90CF9008956115710579F0FB0183
:1043000001900020E9F73197AF01461B570BDC0104
:10431000ED91FC910280F381E02D199480E090E012
:1043200008950C947C21DC01ED91FC910190F081C9
:10433000E02D19940F931F93CF93DF93EC016DE061
:104340000E9493218C016AE0CE010E949321800F8C
:10435000911FDF91CF911F910F9108950F931F939C
:10436000CF93DF93EC010E947C218C01CE010E944F
:104370009A21800F911FDF91CF911F910F91089586
:104380008F929F92AF92BF92CF92DF92EF92FF9265
:104390000F931F93CF93DF93CDB7DEB7A1970FB6DF
:1043A000F894DEBF0FBECDBF6C01142FE52FCB01FB
:1043B000022F19A2223008F40AE07E0121E2E20E67
:1043C000F11C802E912CA12CB12C612F7E2FA501E8
:1043D00094010E941134029F1019112481E0E81AFF
:1043E000F1081A3014F4105D01C0195CF701108354
:1043F000122FE32FCA01232B242B252B31F7B701D2
:10440000C6010E947C21A1960FB6F894DEBF0FBEB4
:10441000CDBFDF91CF911F910F91FF90EF90DF9073
:10442000CF90BF90AF909F908F900895CF92DF92E2
:10443000EF92FF920F931F93CF93DF93EC016A01EA
:104440007B012115310579F4E881F9810190F08132
:10445000E02D642FDF91CF911F910F91FF90EF908E
:10446000DF90CF9019942A303105E9F477FF1AC014
:104470006DE20E9493218C0144275527BA014C1903
:104480005D096E097F092AE0CE010E94C021800FDC
:10449000911FDF91CF911F910F91FF90EF90DF90CF
:1044A000CF9008952AE0B701A601CE01DF91CF9108
:1044B0001F910F91FF90EF90DF90CF900C94C0214F
:1044C0009A01AB01770F660B770B0C9416220F93B2
:1044D0001F93CF93DF93EC019A01AB01770F660B2B
:1044E000770B0E9416228C01CE010E949A21800F28
:1044F000911FDF91CF911F910F9108950895FC01B5
:1045000024853585F901E05CFF4F808191813296E9
:1045100020813181821B930B8F7399270895DC01D1
:104520001C96ED91FC911D97DF01A05CBF4F2D9172
:104530003C91119712968D919C91119728173907EC
:1045400039F08D919C91E80FF91F808190E00895DA
:104550008FEF9FEF0895FC01A485B585FD01E05C18
:10456000FF4F208131813296808191812817390750
:1045700079F080819181A80FB91F8C9120813181C0
:104580002F5F3F4F2F7333273183208390E00895AF
:104590008FEF9FEF0895FC0181A1882329F0A48962
:1045A000B5898C9186FFFBCF11A208950F931F93BD
:1045B000CF93DF93FC01A685B7858D01005C1F4F6B
:1045C000E8018881998101968F739927AD014E5B2F
:1045D0005F4FEA012881398182179307D1F3E801FF
:1045E00028813981A20FB31F6C93A685B785A05C83
:1045F000BF4F11969C938E93A689B7892C9181E029
:1046000090E0078C02C0880F991F0A94E2F7822B72
:104610008C9381E081A30488F589E02D80818064FA
:10462000808381E090E0DF91CF911F910F910895F9
:10463000FB01E05CFF4F208131812F5F3F4F2F73E3
:104640003327DB01AE5BBF4F4D915C9124173507DB
:1046500041F040815181DB01A40FB51F8C93318360
:10466000208308951F920F920FB60F9211240BB65C
:104670000F922F933F934F935F936F937F938F93FB
:104680009F93AF93BF93EF93FF938091C00082FD00
:1046900007C08091C60066E07EE00E94182302C039
:1046A0008091C600FF91EF91BF91AF919F918F9143
:1046B0007F916F915F914F913F912F910F900BBE22
:1046C0000F900FBE0F901F9018951F920F920FB66C
:1046D0000F9211240BB60F922F933F934F935F933A
:1046E0006F937F938F939F93AF93BF93EF93FF93BA
:1046F0008091C80082FD07C08091CE006EE77DE00A
:104700000E94182302C08091CE00FF91EF91BF91CB
:10471000AF919F918F917F916F915F914F913F9159
:104720002F910F900BBE0F900FBE0F901F901895FA
:104730001F920F920FB60F9211240BB60F922F9368
:104740003F934F935F936F937F938F939F93AF9319
:10475000BF93EF93FF938091D00082FD07C08091BB
:10476000D60066EF7CE00E94182302C08091D6003C
:10477000FF91EF91BF91AF919F918F917F916F9139
:104780005F914F913F912F910F900BBE0F900FBEF5
:104790000F901F9018951F920F920FB60F92112431
:1047A0000BB60F922F933F934F935F936F937F932B
:1047B0008F939F93AF93BF93EF93FF9380913001BB
:1047C00082FD07C0809136016EE67CE00E941823CE
:1047D00002C080913601FF91EF91BF91AF919F91FF
:1047E0008F917F916F915F914F913F912F910F909A
:1047F0000BBE0F900FBE0F901F9018951F920F9237
:104800000FB60F9211240BB60F922F933F938F93F5
:104810009F93EF93FF932091020E3091030E8091AE
:10482000040E9091050E2817390731F48091C100CC
:104830008F7D8093C10014C0E091040EF091050EAD
:10484000EE53F24F20818091040E9091050E019657
:104850008F7399279093050E8093040E2093C600C2
:10486000FF91EF919F918F913F912F910F900BBEF0
:104870000F900FBE0F901F9018951F920F920FB6BA
:104880000F9211240BB60F922F933F938F939F9308
:10489000EF93FF9320917A0D30917B0D80917C0DE9
:1048A00090917D0D2817390731F48091C9008F7DD3
:1048B0008093C90014C0E0917C0DF0917D0DE65C01
:1048C000F24F208180917C0D90917D0D01968F7328
:1048D000992790937D0D80937C0D2093CE00FF91BE
:1048E000EF919F918F913F912F910F900BBE0F9061
:1048F0000FBE0F901F9018951F920F920FB60F9238
:1049000011240BB60F922F933F938F939F93EF93A6
:10491000FF932091F20C3091F30C8091F40C909164
:10492000F50C2817390731F48091D1008F7D8093E1
:10493000D10014C0E091F40CF091F50CEE54F34F5B
:1049400020818091F40C9091F50C01968F7399273A
:104950009093F50C8093F40C2093D600FF91EF9187
:104960009F918F913F912F910F900BBE0F900FBE93
:104970000F901F9018951F920F920FB60F9211244F
:104980000BB60F922F933F938F939F93EF93FF93C9
:1049900020916A0C30916B0C80916C0C90916D0C95
:1049A0002817390731F4809131018F7D80933101CF
:1049B00014C0E0916C0CF0916D0CE65DF34F20811A
:1049C00080916C0C90916D0C01968F739927909348
:1049D0006D0C80936C0C20933601FF91EF919F91A9
:1049E0008F913F912F910F900BBE0F900FBE0F90A4
:1049F0001F901895CF92DF92EF92FF920F931F9323
:104A0000CF93DF93EC016A017B014115514E6105A3
:104A1000710509F1EC89FD8981E090E008A002C0F0
:104A2000880F991F0A94E2F7808360E079E08DE3B4
:104A300090E0A70196010E94113489019A0101506A
:104A40001109210931093695279517950795980180
:104A500001151041A8F0EC89FD89108260E874E826
:104A60008EE190E0A70196010E941134DA01C9019C
:104A70000197A109B109B695A795979587959C01CE
:104A8000E889F9893083EA89FB89208319A2EE89B4
:104A9000FF89408181E090E09C010C8C02C0220FD4
:104AA000331F0A94E2F7242B2083EE89FF8940818B
:104AB0009C010D8C02C0220F331F0A94E2F7242BB5
:104AC0002083EE89FF8940819C010E8C02C0220F59
:104AD000331F0A94E2F7242B2083EE89FF8920817B
:104AE0000F8C02C0880F991F0A94E2F780958223E9
:104AF0008083DF91CF911F910F91FF90EF90DF9016
:104B0000CF900895CF92DF92EF92FF92E8E0FCE021
:104B10001382128288EEC82E83E0D82EE12CF12C6D
:104B2000C482D582E682F78267EF72E07183608388
:104B300086E09EE09587848782EC9DE09787868754
:104B400085EC90E0918B808B84EC90E0938B828B52
:104B500080EC90E0958B848B81EC90E0978B868B3A
:104B600082EC90E0918F808F86EC90E0938F828F23
:104B700044E0448F33E0358F27E0268F95E0978F10
:104B800081E080A3E6EEFBE013821282C482D5822C
:104B9000E682F78271836083AEE7BDE0B587A487C4
:104BA000AAE3BDE0B787A687ADECB0E0B18BA08BE0
:104BB000ACECB0E0B38BA28BA8ECB0E0B58BA48BCF
:104BC000A9ECB0E0B78BA68BAAECB0E0B18FA08FB8
:104BD000AEECB0E0B38FA28F448F358F268F978FC6
:104BE00080A3E4ECFBE013821282C482D582E682C9
:104BF000F78271836083A6EFBCE0B587A487A2EB40
:104C0000BCE0B787A687A5EDB0E0B18BA08BA4ED83
:104C1000B0E0B38BA28BA0EDB0E0B58BA48BA1ED7F
:104C2000B0E0B78BA68BA2EDB0E0B18FA08FA6ED60
:104C3000B0E0B38FA28F448F358F268F978F80A3DC
:104C4000E2EAFBE013821282C482D582E682F78216
:104C5000718360836EE67CE0758764876AE27CE03E
:104C60007787668765E371E0718B608B64E371E041
:104C7000738B628B60E371E0758B648B61E371E031
:104C8000778B668B62E371E0718F608F66E371E012
:104C9000738F628F448F358F268F978F80A3FF90FD
:104CA000EF90DF90CF9008952F923F924F925F92B6
:104CB0006F927F928F929F92AF92BF92CF92DF922C
:104CC000EF92FF920F931F93CF93DF9300D0CDB756
:104CD000DEB74C017B836A836A0159011701980191
:104CE000241B350B37FF03C0319521953109C501D0
:104CF0004A815B81841B950B97FF03C09195819539
:104D0000910951E059838217930714F019820BC05F
:104D10009A2D8B2D5801092F182F9A818B81DB82B8
:104D2000CA82C92ED82E8A819B81A816B9065CF446
:104D30009C2D8D2D6801092F182F9A818B81BB82A4
:104D4000AA82A92EB82E2501AA81BB814A1A5B0A24
:104D500038016C187D0877FE03C071946194710866
:104D6000720157FE03C0BFEFEB1AFB0AF594E794FC
:104D7000C016D1061CF00FEF1FEF1FC001E010E0BE
:104D80001CC0D401ED91FC91B9810084F185E02D26
:104D90009101BB23C1F04A815B81B601C401199521
:104DA000E618F708F7FE04C0C00ED11EE40CF51C8F
:104DB000EA81FB813196FB83EA834A815B81A416F9
:104DC000B506FCF604C0A6016A817B81E7CF0F908F
:104DD0000F900F90DF91CF911F910F91FF90EF9067
:104DE000DF90CF90BF90AF909F908F907F906F900B
:104DF0005F904F903F902F9008950895DC01ED91C2
:104E0000FC910480F581E02D19940F931F93DC0130
:104E1000ED91FC91008CF18DE02D19951F910F9172
:104E200008950F931F93DC01ED91FC91028CF38D9B
:104E3000E02D19951F910F910895EF92FF920F9316
:104E40001F93DC01ED91FC91048CF58DE02D1995FB
:104E50001F910F91FF90EF9008950895AF92BF9228
:104E6000CF92DF92EF92FF920F931F93CF93DF9336
:104E700000D01F92CDB7DEB75C016901DC01ED9176
:104E8000FC910680F781E02D4B835C8369837A83F4
:104E90001995D501ED91FC914B815C81C40ED51E15
:104EA000B1E0CB1AD1080088F189E02D78018601A4
:104EB00069817A819B01C5011995D501ED91FC911C
:104EC0000288F389E02DC5010F900F900F900F908D
:104ED000DF91CF911F910F91FF90EF90DF90CF90D6
:104EE000BF90AF901994AF92BF92CF92DF92EF92A2
:104EF000FF920F931F93CF93DF9300D01F92CDB7F4
:104F0000DEB75C016901DC01ED91FC910680F7815F
:104F1000E02D4B835C8369837A831995D501ED91EC
:104F2000FC9169817A819B012C0D3D1D2150310935
:104F30000088F189E02D78014B815C818A01C501EF
:104F40001995D501ED91FC910288F389E02DC501F9
:104F50000F900F900F900F90DF91CF911F910F91B5
:104F6000FF90EF90DF90CF90BF90AF9019944F9249
:104F70005F926F927F928F929F92AF92BF92CF92E9
:104F8000DF92EF92FF920F931F93CF93DF931F92C5
:104F90001F92CDB7DEB76C015A0139014801DC011F
:104FA000ED91FC910680F781E02D69837A83199554
:104FB0006981462E7A81572E640C751CD601ED91BD
:104FC000FC91461457046CF40484F585E02D8701A8
:104FD0009401A501B201C6011995BFEF4B1A5B0AF6
:104FE000EDCF0288F389E02DC6010F900F90DF917D
:104FF000CF911F910F91FF90EF90DF90CF90BF90D6
:10500000AF909F908F907F906F905F904F9019948A
:10501000EF92FF920F931F93DC01ED91FC9111979A
:105020001A960D911C911B9718962D913C911997EA
:10503000048CF58DE02D7B0140E050E060E070E0F5
:1050400019951F910F91FF90EF900895CF92DF92E5
:10505000EF92FF920F931F93CF93DF9300D000D076
:10506000CDB7DEB76C01DC01ED91FC9162177307DF
:1050700089F4041715072CF4942F852FA801092F04
:10508000182F041B150B98012F5F3F4F008CF18DDB
:10509000E02D12C04017510709F5261737072CF4E9
:1050A000962F872FB901292F382F261B370B2F5FFB
:1050B0003F4F028CF38DE02D8701C601199526968E
:1050C0000FB6F894DEBF0FBECDBFDF91CF911F9119
:1050D0000F91FF90EF90DF90CF9008950680F781B9
:1050E000E02D2D833E834B835C8369837A831995FE
:1050F000D601ED91FC910088F189E02D2D813E8152
:105100004B815C8169817A81C6011995D601ED9147
:10511000FC910288F389E02DC60126960FB6F8941B
:10512000DEBF0FBECDBFDF91CF911F910F91FF90DA
:10513000EF90DF90CF9019946F927F928F929F9211
:10514000AF92BF92CF92DF92EF92FF920F931F9395
:10515000CF93DF93EC014B015A0169013801E881DB
:10516000F9810680F781E02D1995E881F98106849F
:10517000F785E02D87019601A501B401CE011995AF
:10518000E881F981A501460D571D4150510906845A
:10519000F785E02D9601B401CE011995E881F981DA
:1051A0000484F585E02D9301A501B401CE01199584
:1051B000E881F981C80CD91CB601615071090484D9
:1051C000F585E02D9301A501CE011995E881F981BE
:1051D0000288F389E02DCE01DF91CF911F910F91CD
:1051E000FF90EF90DF90CF90BF90AF909F908F9007
:1051F0007F906F9019940895FC016370658B848192
:10520000958126813781613039F0633029F09187AB
:105210008087338722870895318720879387828705
:105220000895FC011382128287E093E091838083CA
:10523000758364835783468371876087538742876A
:10524000158A158614861786168681E0848B2FEFC3
:105250003FEF338B228B318B208B868B178A118EFD
:10526000108E08952F923F924F925F926F927F928D
:105270008F929F92AF92BF92CF92DF92EF92FF9266
:105280000F931F93CF93DF93CDB7DEB728970FB659
:10529000F894DEBF0FBECDBF5C013B014A013887E9
:1052A0002F83FC82EB8281E090E02C01421A530AAA
:1052B000C9019195819591099C01220F331F3A8371
:1052C0002983170133E0230E311CEE24E394F12CE3
:1052D000802F81708D8302700E83C7010197EF814B
:1052E000F8858E179F070CF078C057FC0CC0AF8173
:1052F000B8851197B887AF83E981FA813296FA832E
:10530000E9834E0E5F1EC701880F991F0196480E54
:10531000591EFD81FF2359F1D501ED91FC912F819B
:105320003885220F331F2F5F3F4F8B819C81280FC1
:10533000391F0484F585E02D8601A401AF81B8856D
:105340004A1B5B0BB701660D771DC5011995D50189
:10535000ED91FC910484F585E02D9101A4014E1995
:105360005F096F817885660D771DC5011995BE812E
:10537000BB2361F1D501ED91FC912F813885220F7E
:10538000331F2F5F3F4F8B819C81280F391F04846F
:10539000F585E02D8601A401AF81B8854A1B5B0B22
:1053A000B3016E197F09C5011995D501ED91FC91E5
:1053B0000484F585E02D9101A4014E195F09B30124
:1053C0008F819885681B790BC50119959FEFE91AA4
:1053D000F90AA2E02A0E311C80CF28960FB6F89465
:1053E000DEBF0FBECDBFDF91CF911F910F91FF9018
:1053F000EF90DF90CF90BF90AF909F908F907F9075
:105400006F905F904F903F902F9008956F927F9292
:105410008F929F92AF92BF92CF92DF92EF92FF92C4
:105420000F931F93CF93DF93EC014B013A01590186
:105430006801E881F9810680F781E02D1995E881FE
:10544000F9819501220F331F2F5F3F4FA3014A19A6
:105450005B090484F585E02DB401CE011995E12C9A
:10546000F12C03E09501A301B401CE010E94322981
:10547000E881F9810288F389E02DCE01DF91CF9197
:105480001F910F91FF90EF90DF90CF90BF90AF9062
:105490009F908F907F906F9019942F923F924F9290
:1054A0005F926F927F928F929F92AF92BF92CF92B4
:1054B000DF92EF92FF920F931F93CF93DF93CDB7BD
:1054C000DEB76C970FB6F894DEBF0FBECDBF9C8FD2
:1054D0008B8F5B011A011F830E833701C982DC01A8
:1054E00058964D915C9159974115510509F0E5C0C9
:1054F00018968D919C911997681779070CF0CAC17D
:105500001A968D919C911B97281639060CF0C2C1F2
:105510008C2C912CFB0136E0C39EE00DF11D112473
:10552000FB87EA871E161F060CF0B4C1C40133E0E6
:10553000880F991F3A95E1F79D878C87820D931DFF
:10554000181619060CF0A6C157968C91811103C04C
:10555000203B08F02F5FAB8DBC8DED91FC91119736
:105560000680F781E02DCD012A8F19952A8DB5E0AF
:105570002B9F90011124F5013596FF87EE872501B9
:10558000BB82AA82A9014A195B09598B488BC101C8
:1055900008969B8B8A8BE889F989E40DF51DE65006
:1055A000FD4F949198873D822C826101A885A0FFD0
:1055B00013C0AB8DBC8DED91FC91B981B13031F44C
:1055C0000084F185E02D2E813F8116C00284F38591
:1055D000E02DEE80FF801AC0EE81FF816E167F06FF
:1055E000F1F0AB8DBC8DED91FC91B981B13051F4EE
:1055F0000084F185E02D9301A601B2018B8D9C8D75
:1056000019950DC00284F385E02D73018401940186
:105610004C815D816A817B818B8D9C8D1995E8859C
:10562000E695E8872C813D81280D391D3D832C832B
:105630003FEFC31AD30A4A895B89C416D50609F01D
:10564000B5CF8A819B81880D991D9B838A839FEFAB
:10565000491A590AAE85BF854A165B0609F09BCFE9
:10566000EE81FF816E167F0609F4F2C0EB8DFC8D92
:10567000A081B181F981F13079F4B5016B5F7F4F81
:105680001C96ED91FC911D97830128E030E0A1016B
:105690008B8D9C8D1995DCC06A857B85681979098D
:1056A0001A96ED91FC911B9773010C851D85940151
:1056B000A1018B8D9C8D1995CBC0FA0134969491E4
:1056C000329765917491291BCB01B7E02B9F800D18
:1056D000911D1124FA01259134913B8B2A8BFC01F9
:1056E000459154915B834A83FC013296C490319674
:1056F00054915C87329614913196D490898182308E
:1057000058F0612E012E000C7708AD2D0D2C000CE9
:10571000BB0BB987A88704C019861886612C712C29
:10572000AB8DBC8DED91FC9111970680F781E02D3A
:10573000CD011995B9818B2E912C689CC001699C73
:10574000900D789C900D1124FC01EA0DFB1DF98B46
:10575000E88B1C82712C612CE12F110FFF0B95013E
:105760002E0F3F1F3B872A87AC0CB11CA5014E0FA3
:105770005F1F5F8B4E8BC1018D0D911DD7FC9A95DC
:10578000998F888F4C85641608F062C0862D90E052
:1057900048855985480F591F489D9001499D300DF6
:1057A000589D300D1124D901A20DB31DBF87AE87BE
:1057B000AA84BB8448885988DC80BA85DB1AE88DC6
:1057C000F98DE80FF91FFD8BEC8B8D2D8A0D2E893D
:1057D0003F89A216B306B9F1877061F48A819B8173
:1057E0000196EA89FB89AA81BB81EA0FFB1F7490AD
:1057F0009B838A8377FE20C0AB8DBC8DED91FC919D
:10580000B981B13061F40084F185E02D2E813F81B2
:105810004C895D89B5018B8D9C8D19950DC00284D5
:10582000F385E02DEE80FF80840194014E855F8535
:10583000B2018B8D9C8D1995770C480C591CEFEF9C
:10584000AE1ABE0AC2CF3C813C0D3C8363949ACF12
:10585000AB8DBC8DED91FC9111970288F389E02D01
:10586000CD016C960FB6F894DEBF0FBECDBFDF91B1
:10587000CF911F910F91FF90EF90DF90CF90BF904D
:10588000AF909F908F907F906F905F904F903F90E0
:105890002F9019946C960FB6F894DEBF0FBECDBF53
:1058A000DF91CF911F910F91FF90EF90DF90CF90FC
:1058B000BF90AF909F908F907F906F905F904F9030
:1058C0003F902F900895AF92BF92CF92EF92FF92A8
:1058D0000F931F93CF93DF93EC01262F888D998D23
:1058E000009709F040C06A3059F41D861C862C8947
:1058F0008E859F8538E0239F800D911D112441C026
:105900006D3009F4AAC08E898823C1F03C898C854A
:105910009D8546E0349F800D911D11244885598551
:10592000481759075CF41D861C868E859F8548E0C4
:10593000349F800D911D11249F878E87EA88FB88F4
:10594000088919894E855F856C857D85CC88CE0157
:105950000E944D2A2C898C859D8536E0239F800DE1
:10596000911D112442C06A3079F41D861C862C8951
:10597000FC013696E4918E859F852E9F800D911DAA
:1059800011249F878E8769C06D3009F466C0FC01C1
:1059900034963491631708F460C03196E491E617A9
:1059A00008F45BC0FC013296A590B490462F50E0FD
:1059B000431B510937E0349FB001359F700D11240E
:1059C000A60EB71EF501329634913196E491332339
:1059D00011F0E1110DC0F5013496E4912C898C850C
:1059E0009D85E29F800D911D11249D878C8735C078
:1059F000F501359644915E89552311F16C89E32FA9
:105A0000F0E0E40FF11D47FDFA956E9FD0016F9F06
:105A1000B00D11244C855D854A0F5B1FE885F98523
:105A2000E417F5076CF41D861C86FC013696E4919C
:105A30008E859F856E9F800D911D11249F878E8777
:105A4000EA88FB88088919894E855F856C857D8584
:105A5000CC88CE010E944D2ABECF81E090E0DF913C
:105A6000CF911F910F91FF90EF90CF90BF90AF908B
:105A70000895FC01758764875787468708956111EB
:105A800001C061E0FC01648B0895FC01668B089500
:105A9000DC019C96ED91FC919D979081D1968C9123
:105AA000892B80830895EF92FF920F931F93DC015F
:105AB000ED91FC910284F385E02D7801890121E0CC
:105AC00030E019951F910F91FF90EF900895EF929C
:105AD000FF920F931F93DC01ED91FC910284F385FB
