:100000000C94FF030C9430040C9430040C943004D2
:100010000C9430040C9430040C9430040C94300490
:100020000C9430040C9430040C9430040C94300480
:100030000C9430040C9430040C9430040C94300470
:100040000C9430040C9430040C9430040C94300460
:100050000C9430040C9430040C9430040C94632001
:100060000C9430040C942D240C94F9240C9430043A
:100070000C9430040C9430040C9430040C94300430
:100080000C9430040C9430040C9430040C94300420
:100090000C9460240C9438250C9430040C94300497
:1000A0000C9430040C9430040C9430040C94300400
:1000B0000C9430040C9430040C9430040C943004F0
:1000C0000C9430040C9430040C9430040C9493245D
:1000D0000C9477250C9430040C94C6240C94B6250B
:1000E0000C943004962199218C219021D0219D21BE
:1000F000A121A721AB21AF21B521B921BD21D0215B
:10010000C321C721CB210C94432E0C948A230C9439
:1001100066220C94D1230C948C210C94C7210C944E
:1001200029280C94752E0C944F270C94622E0C9455
:10013000E52E0C945D2F0C94AF210C94F8270C94B1
:1001400079230C94C3210C94A7210C949D210C9429
:10015000D0210C940C280C94CB210C94F9270C94EE
:10016000F6290C94B9210C9418280C9403290C94AA
:100170004E2E0C94F7290C94A6230C9428280C944A
:100180001F2F0C94BD210C94B2280C94AB210C941D
:10019000C6230C9400280C942D320C94A1210C94AD
:1001A0006E280C94EC330C9479320C9494070C94D4
:1001B00021290C9471330C945E2D0C947D260C94A3
:1001C00099210C9496210C9490210C94B5210C94B7
:1001D00097290C94AB2E0C947A230000090A02088C
:1001E0000B0C0D07060304010000000000000000D6
:1001F00000000000000000000000000000000000FF
:1002000000000000000011100F00000000000000BE
:1002100000000000000000000000000000000000DE
:100220000102102020080810204010204080020108
:1002300002010804020101020408102040808040ED
:1002400020100804020180040201804020100804EC
:10025000020108040201010204081020408001028A
:100260000408102040800505050507050808080852
:10027000020202020A0A080804040404010101013E
:100280000101010103030303030303030407070739
:100290000C0C0C0C0C0C0C0C0202020206060606DE
:1002A000060606060B0B0B0B0B0B0B0B00002000BE
:1002B0002300260029002C002F003200000100003E
:1002C00003010601090100002200250028002B007F
:1002D0002E003100340002010000050108010B016D
:1002E00000002100240027002A002D0030003300E8
:1002F00001010000040107010A0100000000003EA6
:100300005B4F5B3E3E6B4F6B3E1C3E7C3E1C183C85
:100310007E3C181C577D571C1C5E7F5E1C00183CE1
:100320001800FFE7C3E7FF0018241800FFE7DBE72A
:10033000FF30483A060E2629792926407F05050711
:10034000407F05253F5A3CE73C5A7F3E1C1C08086D
:100350001C1C3E7F14227F22145F5F005F5F060932
:100360007F017F006689956A606060606094A2FF8B
:10037000A29408047E040810207E201008082A1C7D
:1003800008081C2A08081E101010100C1E0C1E0C49
:1003900030383E3830060E3E0E06000000000000E9
:1003A000005F00000007000700147F147F14242A58
:1003B0007F2A12231308646236495620500008072A
:1003C0000300001C2241000041221C002A1C7F1C4B
:1003D0002A08083E0808008070300008080808084D
:1003E000000060600020100804023E5149453E00B4
:1003F000427F400072494949462141494D33181412
:10040000127F1027454545393C4A49493141211160
:1004100009073649494936464949291E0000140052
:100420000000403400000008142241141414141475
:10043000004122140802015909063E415D594E7CD3
:100440001211127C7F494949363E414141227F4188
:1004500041413E7F494949417F090909013E4141E6
:1004600051737F0808087F00417F41002040413FD1
:10047000017F081422417F404040407F021C027FE0
:100480007F0408107F3E4141413E7F090909063E35
:100490004151215E7F091929462649494932030104
:1004A0007F01033F4040403F1F2040201F3F403816
:1004B000403F631408146303047804036159494DF1
:1004C00043007F4141410204081020004141417F27
:1004D000040201020440404040400003070800209D
:1004E000545478407F28444438384444442838449D
:1004F00044287F385454541800087E090218A4A4D4
:100500009C787F0804047800447D40002040403DF2
:10051000007F1028440000417F40007C047804786C
:100520007C080404783844444438FC1824241818FF
:10053000242418FC7C08040408485454542404045B
:100540003F44243C4040207C1C2040201C3C403048
:10055000403C44281028444C9090907C4464544C77
:1005600044000836410000007700000041360800D2
:1005700002010204023C2623263C1EA1A161123A7C
:100580004040207A385454555921555579412254C8
:10059000547842215554784020545579400C1E52CD
:1005A0007212395555555939545454593955545472
:1005B000580000457C410002457D420001457C40D9
:1005C0007D1211127DF0282528F07C54554500201D
:1005D00054547C547C0A097F4932494949323A448F
:1005E00044443A324A4848303A4141217A3A4240FA
:1005F0002078009DA0A07D3D4242423D3D404040CC
:100600003D3C24FF2424487E4943662B2FFC2F2B9E
:10061000FF0929F620C0887E09032054547941003F
:1006200000447D413048484A32384040227A007ABE
:100630000A0A727D0D19317D2629292F282629299C
:10064000292630484D4020380808080808080808BE
:10065000382F10C8ACBA2F102834FA00007B0000E5
:1006600008142A142222142A14085500550055AAE9
:1006700055AA55AAFF55FF55FF000000FF001010B6
:1006800010FF00141414FF001010FF00FF1010F0F2
:1006900010F0141414FC001414F700FF0000FF0005
:1006A000FF1414F404FC141417101F10101F101F53
:1006B0001414141F00101010F0000000001F101080
:1006C00010101F10101010F010000000FF1010107C
:1006D000101010101010FF10000000FF140000FF99
:1006E00000FF00001F10170000FC04F41414171082
:1006F000171414F404F40000FF00F7141414141475
:100700001414F700F7141414171410101F101F14EA
:100710001414F4141010F010F000001F101F00004B
:10072000001F14000000FC140000F010F01010FF77
:1007300010FF141414FF141010101F00000000F01C
:1007400010FFFFFFFFFFF0F0F0F0F0FFFFFF0000F1
:10075000000000FFFF0F0F0F0F0F3844443844FC18
:100760004A4A4A347E02020606027E027E0263552F
:100770004941633844443C04407E201E2006027EEA
:10078000020299A5E7A5991C2A492A1C4C720172FC
:100790004C304A4D4D303048784830BC625A463D66
:1007A0003E494949007E0101017E2A2A2A2A2A441B
:1007B000445F444440514A444040444A5140000050
:1007C000FF0103E080FF000008086B6B083612365B
:1007D0002436060F090F060000181800000010103C
:1007E000003040FF0101001F01011E00191D1712FA
:1007F000003C3C3C3C000000000094077D26112496
:100800001FBECFEFD1E2DEBFCDBF00E00CBF13E0D3
:10081000A0E0B2E0ECEAFAE600E00BBF02C007900D
:100820000D92A035B107D9F726E1A0E5B3E001C0EC
:100830001D92A431B207E1F713E0CFEFD3E000E05F
:1008400006C021970109802FFE010E942E35CD3F61
:10085000D10780E00807A9F70E945A200C940935B7
:100860000C940000EF92FF920F931F93CF93DF93AE
:10087000EC017B01BA01A90100E010E028E030E0C2
:1008800080E393E10E94012B00EE1FEF27E030E0B0
:10089000A701BE0180E393E10E94012BDF91CF917C
:1008A0001F910F91FF90EF900895EF92FF920F9399
:1008B0001F93CF93DF93EC017B01BA01A90100E004
:1008C00010E028E030E080E393E10E94012B00E09B
:1008D00018EF27E030E0A701BE0180E393E10E941A
:1008E000012BDF91CF911F910F91FF90EF90089511
:1008F000EF92FF920F931F93CF93DF93EC017B0155
:10090000BA01A90100E010E028E030E080E393E1C3
:100910000E94012B0FE118EF27E030E0A701BE0194
:1009200080E393E10E94012BDF91CF911F910F9102
:10093000FF90EF900895EF92FF920F931F93CF9344
:10094000DF93EC017B01BA01A90100E010E028E08F
:1009500030E080E393E10E94012B0FEF17E027E0E6
:1009600030E0A701BE0180E393E10E94012BDF91FB
:10097000CF911F910F91FF90EF900895EF92FF920A
:100980000F931F93CF93DF93EC017B01BA01A90171
:1009900000E010E028E030E080E393E10E94012BCA
:1009A00000E21DEF27E030E0A701BE0180E393E104
:1009B0000E94012BDF91CF911F910F91FF90EF903B
:1009C0000895841B950B97FF03C08FEF9FEF04C022
:1009D000892B31F081E090E0909301138093001314
:1009E000621B730B77FF03C08FEF9FEF04C0672B71
:1009F00031F081E090E09093FF128093FE122091FD
:100A00001013309111138091001390910113820FF4
:100A1000931F909311138093101320910E13309114
:100A20000F138091FE129091FF12820F931F9093EB
:100A30000F1380930E130895841B950B97FF03C02B
:100A40008FEF9FEF04C0892B31F081E090E090930D
:100A5000FD128093FC12621B730B77FF03C08FEFB4
:100A60009FEF04C0672B31F081E090E09093FB1280
:100A70008093FA1220910C1330910D138091FC1287
:100A80009091FD12820F931F90930D1380930C137E
:100A900020910A1330910B138091FA129091FB125E
:100AA000820F931F90930B1380930A130895841B56
:100AB000950B97FF03C08FEF9FEF04C0892B31F098
:100AC00081E090E09093F9128093F812621B730B0F
:100AD00077FF03C08FEF9FEF04C0672B31F081E0F9
:100AE00090E09093F7128093F612209108133091C2
:100AF00009138091F8129091F912820F931F90932D
:100B000009138093081320910613309107138091E5
:100B1000F6129091F712820F931F90930713809310
:100B200006130895841B950B97FF03C08FEF9FEF6B
:100B300004C0892B31F081E090E09093F51280930E
:100B4000F412621B730B77FF03C08FEF9FEF04C09B
:100B5000672B31F081E090E09093F3128093F212D2
:100B600020910413309105138091F4129091F512A5
:100B7000820F931F90930513809304132091021307
:100B8000309103138091F2129091F312820F931F10
:100B9000909303138093021308954F925F926F9284
:100BA0007F928F929F92AF92BF92CF92DF92EF92FD
:100BB000FF920F931F93CF93DF93C0911013D091A7
:100BC000111300910E1310910F13A0900C13B090FD
:100BD0000D1380900A1390900B13E0900813F0907F
:100BE0000913C0900613D09007134090041350903F
:100BF00005136090021370900313609118137091A5
:100C000019139801AE0180911A1390911B130E9441
:100C1000E10460910E1370910F139801AE01809161
:100C20001013909111130E94550420910A133091D2
:100C30000B1340910C1350910D1360911813709188
:100C4000191380911A1390911B130E941C05609137
:100C50000A1370910B139401A50180910C139091CC
:100C60000D130E94780420910613309107134091D0
:100C70000813509109136091181370911913809102
:100C80001A1390911B130E945705609106137091DF
:100C900007139601A70180910813909109130E94F0
:100CA0009B0420910213309103134091041350913F
:100CB0000513609118137091191380911A13909174
:100CC0001B130E949205609102137091031393010C
:100CD000A20180910413909105130E94BE046091BB
:100CE0000C1370910D138091101390911113861BAA
:100CF000970B06960D9708F540910A1350910B1328
:100D000080910E1390910F13841B950B06960D97EF
:100D1000A0F400E010E027E030E080E393E10E94DF
:100D2000012B84E190E090930D1380930C138EE1DE
:100D300090E090930B1380930A13609108137091C5
:100D400009138091101390911113861B970B06962F
:100D50000D9708F5409106135091071380910E13DB
:100D600090910F13841B950B06960D97A0F400E04D
:100D700010E027E030E080E393E10E94012B8CED4E
:100D800090E090930913809308138EE190E0909384
:100D900007138093061360910413709105138091DB
:100DA000101390911113861B970B06960D9708F55B
:100DB000409102135091031380910E1390910F13E1
:100DC000841B950B06960D97A0F400E010E027E039
:100DD00030E080E393E10E94012B84E190E0909366
:100DE0000513809304138CE291E090930313809396
:100DF0000213609108137091091380910C13909164
:100E00000D13861B970B06960D9708F54091061358
:100E10005091071380910A1390910B13841B950B2B
:100E200006960D97A0F400E010E027E030E080E3A4
:100E300093E10E94012B8CED90E090930913809335
:100E400008138EE190E0909307138093061360914E
:100E500004137091051380910C1390910D13861B50
:100E6000970B06960D9708F54091021350910313C6
:100E700080910A1390910B13841B950B06960D9786
:100E8000A0F400E010E027E030E080E393E10E946E
:100E9000012B84E190E090930513809304138CE27E
:100EA00091E0909303138093021360910413709167
:100EB00005138091081390910913861B970B0696D2
:100EC0000D9708F54091021350910313809106137A
:100ED00090910713841B950B06960D97A0F400E0E4
:100EE00010E027E030E080E393E10E94012B84E1F1
:100EF00090E090930513809304138CE291E090931B
:100F0000031380930213DF91CF911F910F91FF90F4
:100F1000EF90DF90CF90BF90AF909F908F907F9099
:100F20006F905F904F900895EF92FF920F932FEF85
:100F300049E06AE080E393E10E94762F8CE2E82E9C
:100F4000FF24F39405E029E348E364E08CE193E1B6
:100F50000E945B340F91FF90EF900895EF92FF9203
:100F60000F931F93EE24EA94FE2C00EF10E024EB85
:100F700030E040EF50E06CE370E080E393E10E94EA
:100F800021290EE011E02CE330E040EF50E06CE36B
:100F900070E080E393E10E94212924EB30E040EFF0
:100FA00050E064EB70E080E393E10E94212924E1AA
:100FB00030E04EE051E06CE370E080E393E10E94AA
:100FC00021292CED30E04EE051E064EB70E080E34D
:100FD00093E10E9421290CE211E024E130E04EE08F
:100FE00051E064E170E080E393E10E9421292CED5F
:100FF00030E04EE051E06CED70E080E393E10E9460
:1010000021292CED30E04CE251E064E170E080E316
:1010100093E10E9421290EE011E02AE530E040EF43
:1010200050E06AE570E080E393E10E94212926E91F
:1010300030E040EF50E066E970E080E393E10E9429
:1010400021292EE630E04EE051E06AE570E080E3D1
:1010500093E10E94212922E830E04EE051E066E968
:1010600070E080E393E10E9421290CE211E02EE67A
:1010700030E04EE051E06EE670E080E393E10E94E4
:10108000212922E830E04EE051E062E870E080E3A0
:1010900093E10E94212902ED10E02EE630E040EFBE
:1010A00050E06EE670E080E393E10E94212922E89F
:1010B00030E040EF50E062E870E080E393E10E94AE
:1010C000212924E130E042ED50E06EE670E080E35B
:1010D00093E10E9421292CED30E042ED50E062E8DE
:1010E00070E080E393E10E94212900EF10E024E109
:1010F00030E042ED50E064E170E080E393E10E9473
:1011000021292CED30E042ED50E06CED70E080E301
:1011100093E10E94212928E230E040EF50E064E1B1
:1011200070E080E393E10E94212928EC30E040EF59
:1011300050E06CED70E080E393E10E9421290EE025
:1011400011E028E230E040EF50E068E270E080E338
:1011500093E10E94212928EC30E040EF50E068EC58
:1011600070E080E393E10E9421290EE110E02CE37E
:1011700030E040EF50E06CE370E080E393E10E94E8
:10118000212924EB30E040EF50E064EB70E080E395
:1011900093E10E9421292EE630E04EE150E064E127
:1011A00070E080E393E10E9421292CED30E04EE1D4
:1011B00050E062E870E080E393E10E94212906E4B8
:1011C00010E02EE630E04EE150E06EE670E080E3A5
:1011D00093E10E94212922E830E04EE150E062E8EC
:1011E00070E080E393E10E9421290EE610E024E103
:1011F00030E04EE150E064E170E080E393E10E9472
:1012000021292CED30E04EE150E06CED70E080E300
:1012100093E10E94212906E410E02CED30E046E441
:1012200050E064E170E080E393E10E9421290EE642
:1012300010E02CE330E04EE650E064E170E080E343
:1012400093E10E9421292CED30E04EE650E064EB62
:1012500070E080E393E10E9421292AE530E046E432
:1012600050E06AE570E080E393E10E94212926E9DD
:1012700030E046E450E066E970E080E393E10E94EC
:1012800021292EE630E04EE650E06AE570E080E38A
:1012900093E10E94212926E930E04EE650E062E821
:1012A00070E080E393E10E94212990EEE92EFF2473
:1012B000FA9400EA10E02AE530E040EA50E060E00D
:1012C00070E080E393E10E94212920EF30E040EAC2
:1012D00050E066E970E080E393E10E94212902ED8D
:1012E00010E02AE530E042E850E06AE570E080E393
:1012F00093E10E94212926E930E042E850E066E9C6
:1013000070E080E393E10E94212902E810E026E9E1
:1013100030E042E850E06AE570E080E393E10E944B
:1013200021292EE630E04EE650E06EE670E080E3E4
:1013300093E10E94212922E830E04EE650E062E885
:1013400070E080E393E10E9421290AEB10E026E996
:1013500030E04AEB50E06AE570E080E393E10E9400
:1013600021291F910F91FF90EF9008950F931F93E4
:10137000CF93DF9386E30E945A218C0187E30E947A
:101380005A21EC0182E00E943D2240911A135091B3
:101390001B132091181330911913CE01885C9140D2
:1013A0008336910550F4073362E0160734F4043DA8
:1013B00081E018074CF00C94481D0833A2E01A078E
:1013C0001CF082E090E006C0033DE1E01E073CF423
:1013D0008EEF9FEF909315138093141304C0109217
:1013E000151310921413CC3262E0D6071CF082E081
:1013F00090E006C0C73C81E0D8073CF48EEF9FEF39
:10140000909317138093161304C010921713109221
:101410001613CA01CD9787379105B0F4203F3105E7
:1014200099F43093191320931813109215131092F6
:101430001413942F852F453B510514F094EB80E055
:1014400090931A1380931B1380911A1390911B137E
:10145000FC0175976091181370911913B79788F470
:101460006E30A1E07A0769F41092151310921413EC
:101470008D33910514F08CE390E090931B138093CF
:101480001A1380911A1390911B13FC01E55BF1096B
:10149000B79790F46E30E1E07E0771F41092151367
:1014A000109214138F30A1E09A0714F08EE091E0AF
:1014B00090931B1380931A1380911A1390911B130E
:1014C000FC01EB55F109739788F46E30E1E07E077B
:1014D00069F410921513109214138F36910514F0BD
:1014E0008EE690E090931B1380931A1380911A1349
:1014F00090911B13FC01E358F109739788F46E3047
:10150000A1E07A0769F41092151310921413873929
:10151000910514F086E990E090931B1380931A13C1
:1015200080911A1390911B13FC017597E731F140DC
:1015300090F46C32E1E07E0771F410921513109272
:1015400014138D32A1E09A0714F08CE291E090938D
:101550001B1380931A13603F710561F580911A1374
:1015600090911B13FC017597739770F410921513EB
:101570001092141370931913609318138932910504
:10158000ACF088E290E012C0FC01E95CF109B79789
:1015900088F410921513109214137093191360931A
:1015A0001813813F910514F080EF90E090931B1386
:1015B00080931A13E0911813F091191380911A1364
:1015C00090911B13E23DF10509F5BC0165517109CC
:1015D0006935710550F410921513109214138F365B
:1015E000910534F18EE690E023C0BC016358710987
:1015F0006935710508F04EC010921513109214133E
:101600008D3D9105ACF08CED90E012C0EA3BF10508
:10161000A1F4BC016B5571096B337105D8F51092BB
:101620001513109214138739910514F086E990E090
:1016300090931B1380931A132DC0E03AF10551F5D6
:10164000BC01615071096935710570F41092151370
:10165000109214138B35910514F08AE590E0909365
:101660001B1380931A1375C0BC0167597109693542
:10167000710508F06EC01092151310921413BC017E
:10168000813F910514F060EF70E070931B1360933D
:101690001A135FC080911A1390911B13E238F10561
:1016A000A9F4BC016B5571096B33710508F05FC07B
:1016B00010921513109214138739910514F086E9CE
:1016C00090E090931B1380931A1351C0EE36F105EE
:1016D00009F03FC0BC016B5571096331710508F415
:1016E00053C0BC01635871096331710558F41092FD
:1016F000151310921413873991050CF45EC086E916
:1017000090E05BC0BC01655171096732710558F406
:1017100010921513109214138D3391050CF44DC0D3
:101720008CE390E04AC0BC01655B710967327105CA
:1017300008F047C01092151310921413BC018D3D90
:10174000910514F06CED70E070931B1360931A1305
:1017500038C0E634F10559F480911A1390911B13A7
:10176000BC0165517109673C710558F51DC0EE312A
:10177000F10539F580911A1390911B13BC01655145
:1017800071096935710550F41092151310921413F4
:101790008F36910594F08EE690E00FC0BC0163583F
:1017A00071096935710568F41092151310921413BC
:1017B0008D3D910514F08CED90E090931B13809378
:1017C0001A1360911A1370911B13CF014F978F3E1C
:1017D0009105F0F46C33710551F4109217131092C7
:1017E0001613CF018F30E1E09E0774F00BC0643B0D
:1017F000710571F41092171310921613CF01EF3088
:10180000F14014F08EE091E0909319138093181337
:101810008091181390911913FC01EF50F1407D97BE
:10182000E8F46431710549F41092171310921613FD
:101830008D32E1E09E0774F00BC06C3D710571F4D0
:1018400010921713109216138D32A1E09A0714F01C
:101850008CE291E0909319138093181380911813E0
:1018600090911913FC01E15FF1097D97E8F46A3565
:10187000710549F410921713109216138F30E1E09E
:101880009E0774F00BC06639710571F4109217133E
:10189000109216138F30A1E09A0714F08EE091E0B9
:1018A0009093191380931813809118139091191322
:1018B000FC01EF50F1407D97E8F46E36710549F474
:1018C00010921713109216138D32E1E09E0774F0F8
:1018D0000BC06238710571F4109217131092161331
:1018E0008D32A1E09A0714F08CE291E090931913E5
:1018F000809318138091181390911913FC01E15FE4
:10190000F1097D97E8F46832710549F410921713D4
:10191000109216138F30E1E09E0774F00BC0683C04
:10192000710571F410921713109216138F30A1E005
:101930009A0714F08EE091E0909319138093181396
:101940008091181390911913FC01E35DF1097D97C3
:10195000C8F46431710549F06C3D710531F06E36A3
:10196000710519F06238710569F41092171310921D
:101970001613813F910514F080EF90E090931913B6
:10198000809318138091181390911913FC01EB5B4D
:10199000F1097797B8F46A35710519F06639710560
:1019A00089F4109217131092161370931B136093FF
:1019B0001A13833D910514F082ED90E09093191372
:1019C000809318138091181390911913BC01615AD8
:1019D00071096931710500F560911A1370911B133B
:1019E0006A35710529F410921713109216130BC063
:1019F0006639710589F410921713109216137093BB
:101A00001B1360931A138B3B910514F08AEB90E043
:101A100090931913809318138091181390911913B0
:101A2000BC01635871096D31710500F560911A139D
:101A300070911B136A35710529F4109217131092D7
:101A400016130BC06639710589F4109217131092A2
:101A5000161370931B1360931A13813A910514F0B7
:101A600080EA90E0909319138093181380911813D3
:101A700090911913BC016F5671096331710500F51E
:101A800060911A1370911B136E36710529F4109230
:101A90001713109216130BC06238710589F4109257
:101AA00017131092161370931B1360931A13833835
:101AB000910514F082E890E0909319138093181325
:101AC0008091181390911913BC016F5171096F34F3
:101AD000710530F560911A1370911B136431710513
:101AE00029F4109217131092161311C06C3371055C
:101AF00031F0643B710519F06C3D710589F4109269
:101B000017131092161370931B1360931A138F36CA
:101B1000910514F08EE690E09093191380931813BA
:101B20008091181390911913BC016F51710967329C
:101B3000710500F560911A1370911B136E367105D3
:101B400029F410921713109216130BC06238710506
:101B500089F4109217131092161370931B1360934D
:101B60001A138734910514F086E490E090931913CA
:101B7000809318138091181390911913BC01675426
:101B800071096732710500F560911A1370911B138A
:101B90006A35710529F410921713109216130BC0B1
:101BA0006639710589F41092171310921613709309
:101BB0001B1360931A138F36910514F08EE690E094
:101BC000909319138093181360911A1370911B133B
:101BD00080911813909119136C33710549F5803F6A
:101BE000910531F5CC32E2E0DE0754F062E070E0BE
:101BF0007093171360931613109215131092141309
:101C0000B801635D71406536710550F06CE370E0BA
:101C100070931B1360931A131092171310921613DC
:101C2000C73C61E0D60724F41092171310921613E4
:101C300060911A1370911B13643B710549F5803F45
:101C4000910531F5CC32A2E0DA0724F01092171397
:101C500010921613B801635D71406536710550F03E
:101C600064EB70E070931B1360931A1310921713B8
:101C700010921613C73CE1E0DE0754F46EEF7FEFDD
:101C80007093171360931613109215131092141378
:101C900060911A1370911B136C337105E1F48E304F
:101CA000914009F008C1CC3282E0D80724F01092AC
:101CB0001713109216130833A2E01A0724F010929B
:101CC000151310921413C73CE1E0DE070CF0F3C0CB
:101CD0008EE091E0B2C0643B710531F58E309140E9
:101CE00009F0BDC0CC32E2E0DE0754F082E090E0C3
:101CF00090931713809316131092151310921413C8
:101D0000083382E0180724F0109215131092141370
:101D1000C73CA1E0DA070CF0A2C08EE091E09093FE
:101D20001913809318135BC06431710509F05CC00E
:101D30008E30914079F5CC3282E0D80754F082E0C1
:101D400090E090931713809316131092151310922E
:101D500014130833A2E01A073CF082E090E090935D
:101D600015138093141308C0033DE1E01E0724F40B
:101D70001092151310921413C73C81E0D80754F445
:101D80008EE091E09093191380931813109217131B
:101D90001092161380911813909119138C32914060
:101DA00009F05DC0CC32E2E0DE0754F082E090E062
:101DB0009093171380931613109215131092141307
:101DC000083382E0180714F40C94D61A10921513F5
:101DD00010921413C73CE1E0DE070CF040C01092F3
:101DE0001713109216133BC06C3D7105A9F58E3088
:101DF000914011F40C94E51C8091181390911913E3
:101E00008C32914009F057C0CC3262E0D60724F002
:101E10001092171310921613083382E0180714F467
:101E20000C94181D1092151310921413C73C61E006
:101E3000D6070CF040C08CE291E090931913809388
:101E400018138EEF9FEF9093171380931613109231
:101E50001513109214132FC06A35710539F16639C4
:101E6000710549F58091181390911913803F9105E0
:101E700011F5CC3282E0D8073CF010921513109285
:101E8000141382E090E00CC0C73CA1E0DA0714F024
:101E90000C94E41A10921513109214138EEF9FEF06
:101EA00090931713809316130C94E41A803F9105B6
:101EB00011F40C94261D80911A1390911B136091BC
:101EC0001813709119138A359105C9F56E30E1E048
:101ED0007E0709F094C0CC3282E0D8075CF0109203
:101EE00015131092141382E090E0909317138093CF
:101EF00016130CC0C73CA1E0DA0744F41092151386
:101F00001092141310921713109216130833E2E074
:101F10001E072CF010921513109214130BC0033DE2
:101F200081E018070CF06BC08EEF9FEF90931513B4
:101F300080931413109217131092161360C08639F1
:101F4000910549F56E30A1E07A0709F058C0C73C09
:101F5000E1E0DE075CF410921513109214138EEF7B
:101F60009FEF90931713809316130CC0CC3282E02E
:101F7000D80744F0109215131092141310921713EF
:101F8000109216130833A2E01A0724F6033DE1E08D
:101F90001E0754F234C08E36910589F56E3081E00B
:101FA000780769F5C73CA1E0DA073CF48EEF9FEFB4
:101FB000909317138093161308C0CC32E2E0DE072B
:101FC00044F01092171310921613109215131092DA
:101FD00014130833E2E01E0714F40C94FC1A8EE686
:101FE00090E090931B1380931A1310921713109282
:101FF000161382E090E09093151380931413809150
:102000001A1390911B138238910589F56E30A1E067
:102010007A0769F5CC32E2E0DE073CF082E090E03E
:10202000909317138093161308C0C73C81E0D8071C
:1020300044F4109217131092161310921513109265
:102040001413083382E0180714F40C94081B82E878
:1020500090E090931B1380931A1310921713109211
:10206000161382E090E090931513809314138091DF
:102070001A1390911B138E36910579F56C32E1E0BD
:102080007E0759F5CC3282E0D8071CF082E090E060
:1020900006C0C73CA1E0DA0754F48EEF9FEF90939F
:1020A0001713809316131092151310921413033DF7
:1020B000A1E01A0714F00C94141B8EE690E09093A4
:1020C0001B1380931A1310921713109216138EEF8E
:1020D0009FEF909315138093141380911A1390918E
:1020E0001B138238910579F56C3281E0780759F538
:1020F000CC32A2E0DA071CF082E090E006C0C73CD8
:10210000E1E0DE0754F48EEF9FEF90931713809376
:1021100016131092151310921413033DE1E01E07DD
:1021200014F00C94201B82E890E090931B13809392
:102130001A1310921713109216138EEF9FEF9093AD
:1021400015138093141380911A1390911B13889781
:1021500079F56E30A1E07A0759F5CC32E2E0DE077E
:102160001CF082E090E006C0C73C81E0D80754F440
:102170008EEF9FEF90931713809316131092151301
:1021800010921413033D81E0180714F00C942C1BDB
:1021900088E290E090931B1380931A131092171308
:1021A000109216138EEF9FEF9093151380931413D4
:1021B00080911A1390911B13883C910579F56E302C
:1021C000E1E07E0759F5CC3282E0D8071CF082E0CE
:1021D00090E006C0C73CA1E0DA0754F48EEF9FEF11
:1021E00090931713809316131092151310921413D3
:1021F000033DA1E01A0714F00C94381B88EC90E022
:1022000090931B1380931A131092171310921613A6
:102210008EEF9FEF909315138093141380911A13F0
:1022200090911B138897B9F5603F7105A1F5CC32E9
:1022300082E0D8072CF010921713109216130AC0E0
:10224000C73CA1E0DA0754F48EEF9FEF9093171389
:10225000809316131092151310921413033DE1E0AE
:102260001E072CF4109215131092141314C0083387
:1022700082E0180784F088E290E090931B1380932B
:102280001A13109217131092161382E090E0909395
:1022900015138093141380911A1390911B13883C8B
:1022A0009105B9F5603F7105A1F5CC32A2E0DA07DE
:1022B0003CF082E090E0909317138093161308C0CF
:1022C000C73CE1E0DE0744F4109217131092161396
:1022D0001092151310921413033D81E018072CF48B
:1022E000109215131092141314C00833A2E01A07A9
:1022F00084F088EC90E090931B1380931A13109253
:1023000017131092161382E090E0909315138093A8
:10231000141380911A1390911B13449781F5603F19
:10232000710569F5CC32E2E0DE073CF082E090E036
:10233000909317138093161308C0C73C81E0D80709
:1023400044F4109217131092161310921513109252
:102350001413033DE1E01E0714F00C94441B84E1C8
:1023600090E090931B1380931A138EEF9FEF90933E
:102370001513809314131092171310921613809153
:102380001A1390911B138C3D910581F5603F7105E7
:1023900069F5C73CE1E0DE073CF48EEF9FEF9093D8
:1023A00017138093161308C0CC3282E0D80744F08C
:1023B00010921713109216131092151310921413F3
:1023C000033D81E0180714F00C94501B8CED90E055
:1023D00090931B1380931A138EEF9FEF9093151316
:1023E00080931413109217131092161380911A13DE
:1023F00090911B13449781F5623D710569F5CC32CC
:10240000E2E0DE073CF082E090E0909317138093C7
:10241000161308C0C73C81E0D80744F41092171384
:102420001092161310921513109214130833A2E091
:102430001A0714F40C945C1B84E190E090931B1336
:1024400080931A1382E090E09093151380931413F5
:10245000109217131092161380911A1390911B1358
:102460008C3D910581F5623D710569F5C73CE1E060
:10247000DE073CF48EEF9FEF9093171380931613B3
:1024800008C0CC3282E0D80744F0109217131092A3
:10249000161310921513109214130833E2E01E075E
:1024A00014F40C94681B8CED90E090931B138093B4
:1024B0001A1382E090E090931513809314131092F6
:1024C00017131092161380911A1390911B138E36C6
:1024D000910571F5603F710559F5C73CE1E0DE07F4
:1024E0001CF48EEF9FEF06C0CC3282E0D80754F088
:1024F00082E090E0909317138093161310921513B7
:1025000010921413033D81E0180714F00C94741B0F
:102510008EE690E090931B1380931A138EEF9FEF3B
:10252000909315138093141310921713109216138F
:1025300080911A1390911B138238910571F5603FB9
:10254000710559F5C73CE1E0DE071CF48EEF9FEF03
:1025500006C0CC3282E0D80754F082E090E090933D
:102560001713809316131092151310921413033D32
:10257000A1E01A0714F00C94801B82E890E090937D
:102580001B1380931A138EEF9FEF90931513809374
:102590001413109217131092161380911A1390911E
:1025A0001B138E36910581F5623D710569F5C73CB7
:1025B000E1E0DE073CF48EEF9FEF909317138093DA
:1025C000161308C0CC3282E0D80744F010921713DB
:1025D0001092161310921513109214130833E2E0A0
:1025E0001E0714F40C948C1B8EE690E090931B1342
:1025F00080931A1382E090E0909315138093141344
:10260000109217131092161380911A1390911B13A6
:102610008238910581F5623D710569F5CC32E2E0C1
:10262000DE073CF082E090E090931713809316133E
:1026300008C0C73C81E0D80744F4109217131092E9
:1026400016131092151310921413083382E0180712
:1026500014F40C94981B82E890E090931B138093E1
:102660001A1382E090E09093151380931413109244
:1026700017131092161380911A1390911B13CC9775
:1026800009F040C0615D710963307105D8F5CC3245
:10269000E2E0DE074CF082ED90E090931913809316
:1026A000181382E090E00CC0C73C61E0D60784F4C8
:1026B00082ED90E090931913809318138EEF9FEFA3
:1026C00090931713809316131092151310921413EE
:1026D0000833A2E01A0714F00C94A41B033D81E018
:1026E000180784F48EEF9FEF9093151380931413C3
:1026F00010921713109216138CE390E090931B1313
:1027000080931A1360911A1370911B138091181300
:1027100090911913643B710591F5823D910579F50E
:10272000CC32A2E0DA071CF062E070E006C0C73CE1
:10273000E1E0DE0754F46EEF7FEF709317136093C0
:10274000161310921513109214130833E2E01E07AB
:1027500014F00C94A81B033D61E0160784F46EEF9F
:102760007FEF709315136093141310921713109248
:10277000161364EB70E070931B1360931A1360914F
:102780001A1370911B136A357105C9F5823D9105C5
:10279000B1F5CC32A2E0DA071CF062E070E006C0CE
:1027A000C73CE1E0DE0754F46EEF7FEF7093171340
:1027B000609316131092151310921413083362E0ED
:1027C00016074CF010921513109214131092171351
:1027D0001092161314C0033DA1E01A0784F46AE5B1
:1027E00070E070931B1360931A13109217131092DA
:1027F00016136EEF7FEF70931513609314136091AF
:102800001A1370911B1366397105A9F5823D910564
:1028100091F5CC32E2E0DE071CF062E070E006C029
:10282000C73C61E0D60754F46EEF7FEF7093171347
:102830006093161310921513109214130833A2E02C
:102840001A072CF0109217131092161314C0033DA0
:10285000E1E01E0784F466E970E070931B13609357
:102860001A1310921713109216136EEF7FEF7093D6
:1028700015136093141360911A1370911B136A352A
:10288000710551F58A3B910539F5CC3262E0D607E6
:102890005CF062E070E0709317136093161310926F
:1028A00015131092141308C0C73CA1E0DA0724F4F2
:1028B0001092171310921613B801635D71406536BC
:1028C000710550F06AE570E070931B1360931A1362
:1028D000109217131092161360911A1370911B1314
:1028E0006639710551F58A3B910539F5C73CE1E040
:1028F000DE075CF46EEF7FEF70931713609316138F
:10290000109215131092141308C0CC3262E0D6074F
:1029100024F01092171310921613B801635D7140E2
:102920006536710550F066E970E070931B13609393
:102930001A13109217131092161360911A137091B4
:102940001B136A35710551F5803A910539F5C73C7D
:10295000A1E0DA075CF46EEF7FEF709317136093DA
:102960001613109215131092141308C0CC32E2E023
:10297000DE0724F01092171310921613B801635D4E
:1029800071406536710550F06AE570E070931B1375
:1029900060931A13109217131092161360911A1362
:1029A00070911B136639710551F5803A910539F51F
:1029B000CC3262E0D6075CF062E070E070931713EF
:1029C00060931613109215131092141308C0C73C8D
:1029D000A1E0DA0724F41092171310921613B8012D
:1029E000635D71406536710550F066E970E0709383
:1029F0001B1360931A131092171310921613609101
:102A00001A1370911B136C33710569F5803A9105A7
:102A100051F5CC32E2E0DE071CF062E070E006C067
:102A2000C73C61E0D60754F46EEF7FEF7093171345
:102A3000609316131092151310921413083362E06A
:102A400016070CF488C66CE370E070931B13609358
:102A50001A1362E070E070931513609314131092D0
:102A600017131092161360911A1370911B13643B85
:102A7000710569F5803A910551F5CC32E2E0DE0747
:102A80001CF062E070E006C0C73C61E0D60754F479
:102A90006EEF7FEF70931713609316131092151358
:102AA000109214130833A2E01A070CF46AC664EB00
:102AB00070E070931B1360931A1362E070E07093E0
:102AC000151360931413109217131092161360913C
:102AD0001A1370911B13672BC9F5803A9105B1F554
:102AE000CC32E2E0DE073CF062E070E07093171356
:102AF000609316130EC0C73C61E0D60774F41092C1
:102B000017131092161360EF70E070931B1360930D
:102B10001A1310921513109214130833A2E01A0717
:102B20004CF0109215131092141310921713109268
:102B300016130CC0033DE1E01E0744F41092171376
:102B400010921613109215131092141360911A1309
:102B500070911B13603F7105B9F5803A9105A1F59D
:102B6000CC3262E0D6074CF010921B1310921A136D
:102B700010921713109216130AC0C73CA1E0DA078F
:102B800054F46EEF7FEF7093171360931613109247
:102B90001513109214130833E2E01E074CF0109244
:102BA00015131092141310921713109216130CC0D1
:102BB000033D61E0160744F41092171310921613A8
:102BC000109215131092141360911A1370911B1325
:102BD0006A35710579F58238910561F5CC32A2E04C
:102BE000DA0754F062E070E07093171360931613E5
:102BF00010921513109214130833E2E01E0754F0DC
:102C00006AE570E070931B1360931A131092171308
:102C100010921613C73CE1E0DE0724F4109217135C
:102C200010921613033D61E0160724F41092151359
:102C30001092141360911A1370911B136639710569
:102C400079F58238910561F5C73CA1E0DA0754F4C3
:102C50006EEF7FEF70931713609316131092151396
:102C600010921413083362E0160754F066E970E01E
:102C700070931B1360931A1310921713109216136C
:102C8000CC32E2E0DE0724F01092171310921613F4
:102C9000033D61E0160724F41092151310921413EB
:102CA00060911A1370911B136E36710511F58238FD
:102CB0009105F9F4BE01675C71406536710520F03D
:102CC0001092151310921413033DA1E01A070CF093
:102CD0006EC56EE670E070931B1360931A136EEF6F
:102CE0007FEF7093151360931413109217131092C3
:102CF000161360911A1370911B136238710511F548
:102D000082389105F9F4BE01675C71406536710542
:102D100020F01092151310921413033DE1E01E07EA
:102D20000CF04FC562E870E070931B1360931A13A8
:102D30006EEF7FEF709315136093141310921713B7
:102D40001092161360911A1370911B136E36710551
:102D500049F58E36910531F5C73C61E0D6072CF474
:102D6000109215131092141308C0CC32A2E0DA07A7
:102D700024F01092171310921613083362E016070E
:102D80000CF429C56EE670E070931B1360931A1360
:102D900062E070E070931513609314131092171390
:102DA0001092161360911A1370911B1362387105FB
:102DB00049F58E36910531F5CC3262E0D6072CF01C
:102DC000109215131092141308C0C73CA1E0DA0743
:102DD00024F410921713109216130833A2E01A0766
:102DE0000CF403C562E870E070931B1360931A1330
:102DF00062E070E070931513609314131092171330
:102E00001092161360911A1370911B136A35710595
:102E100049F58E36910531F5CC3262E0D6072CF0BB
:102E2000109215131092141308C0C73CA1E0DA07E2
:102E300024F41092171310921613033DE1E01E07BD
:102E40000CF0DDC46AE570E070931B1360931A13F5
:102E50006EEF7FEF70931513609314131092171396
:102E60001092161360911A1370911B136639710535
:102E700049F58E36910531F5C73C61E0D6072CF453
:102E8000109215131092141308C0CC32A2E0DA0786
:102E900024F01092171310921613033D61E01607E9
:102EA0000CF0B7C466E970E070931B1360931A13BB
:102EB0006EEF7FEF70931513609314131092171336
:102EC0001092161360911A1370911B1364317105DF
:102ED00049F58E36910531F5CC3262E0D6072CF0FB
:102EE000109215131092141308C0C73CA1E0DA0722
:102EF00024F41092171310921613033DA1E01A0741
:102F00000CF091C464E170E070931B1360931A138A
:102F10006EEF7FEF709315136093141310921713D5
:102F20001092161360911A1370911B136C3D71056A
:102F300049F58E36910531F5C73C61E0D6072CF492
:102F4000109215131092141308C0CC32A2E0DA07C5
:102F500024F01092171310921613033DE1E01E07A0
:102F60000CF06BC46CED70E070931B1360931A133C
:102F70006EEF7FEF70931513609314131092171375
:102F80001092161360911A1370911B136C33710514
:102F900051F58E36910539F5C73C61E0D6075CF4F2
:102FA0006EEF7FEF70931713609316131092151343
:102FB0001092141308C0CC32A2E0DA0724F0109269
:102FC000171310921613B801635D714065367105D1
:102FD00050F06CE370E070931B1360931A1310921F
:102FE00017131092161360911A1370911B13643B00
:102FF000710551F58E36910539F5CC32E2E0DE07E8
:103000005CF062E070E070931713609316131092F7
:1030100015131092141308C0C73C61E0D60724F4BE
:103020001092171310921613B801635D7140653644
:10303000710550F064EB70E070931B1360931A13EA
:10304000109217131092161360911A1370911B139C
:103050006431710551F58634910539F5CC32A2E021
:10306000DA075CF062E070E0709317136093161358
:10307000109215131092141308C0C73CE1E0DE074C
:1030800024F41092171310921613B801635D714067
:103090006536710550F064E170E070931B13609326
:1030A0001A13109217131092161360911A1370913D
:1030B0001B136C3D710551F58634910539F5C73CFC
:1030C00061E0D6075CF46EEF7FEF709317136093A7
:1030D0001613109215131092141308C0CC32A2E0EC
:1030E000DA0724F01092171310921613B801635DDB
:1030F00071406536710550F06CED70E070931B13F4
:1031000060931A13109217131092161360911A13EA
:1031100070911B136C33710521F06A357105D1F480
:103120001DC086349105B1F40833E2E01E071CF09F
:10313000E2E0F0E006C0033DA1E01A0754F5EEEF2F
:10314000FFEFF0931513E0931413109217131092DE
:1031500016131FC06E36710589F534C0863491058B
:1031600069F5083382E018075CF082E090E0909304
:1031700015138093141310921713109216133DC059
:10318000033DA1E01A07CCF5109215131092141309
:1031900034C0CC32A2E0DA070CF459C386E490E0E4
:1031A000909319138093181382E090E09093171373
:1031B0008093161310921513109214136238710530
:1031C00089F534C08634910569F5033D81E018071F
:1031D0005CF48EEF9FEF909315138093141310926D
:1031E00017131092161341C00833A2E01A07ECF12E
:1031F000109215131092141338C0CC32E2E0DE079F
:103200000CF433C386E490E0909319138093181361
:1032100082E090E090931713809316131092151389
:103220001092141366397105A9F538C080911813EE
:10323000909119138634910569F5033D81E01807D3
:103240005CF48EEF9FEF90931513809314131092FC
:1032500017131092161342C00833A2E01A07F4F1B4
:10326000109215131092141339C0CC3282E0D80793
:103270000CF409C386E490E090931913809318131B
:1032800082E090E090931713809316131092151319
:1032900010921413643B7105B1F53AC08091181374
:1032A000909119138634910571F5083382E018075F
:1032B0005CF082E090E090931513809314131092C9
:1032C000171310921613FBC2033DA1E01A070CF06E
:1032D000F6C21092151310921413F1C2CC32A2E070
:1032E000DA070CF4DEC286E490E090931913809321
:1032F000181382E090E090931713809316131092A6
:103300001513109214136431710509F041C01DC0EA
:10331000809118139091191386349105C9F50833DB
:1033200062E016071CF082E090E006C0033D81E0F9
:10333000180724F58EEF9FEF9093151380931413C5
:10334000109217131092161319C0809118139091B0
:1033500019134E97E9F4CC32E2E0DE072CF010921C
:10336000151310921413D4C2C73C61E0D6070CF0B9
:10337000CFC21092171310921613CAC2CC3262E059
:10338000D6070CF0A5C2C73CA1E0DA070CF4A9C22D
:1033900080911A1390911B13609118137091191357
:1033A0008C33910521F0843B910529F528C06E31BD
:1033B000710509F50833A2E01A075CF0E2E0F0E0DD
:1033C000F0931513E0931413109217131092161321
:1033D00008C0033DE1E01E0724F41092151310927B
:1033E0001413CC32A2E0DA070CF0A7C2C73CA1E06C
:1033F000DA070CF4ABC28C3D9105E1F51BC06E31D0
:103400007105C1F50833E2E01E075CF082E090E050
:103410009093151380931413109217131092161390
:103420001FC0033D61E01607DCF4109215131092E3
:10343000141316C06E317105E9F4C73CA1E0DA0738
:103440002CF4109215131092141397C2CC32E2E0B0
:10345000DE070CF492C210921713109216138DC24D
:10346000CC32E2E0DE070CF068C2C73C81E0D8074E
:103470000CF46CC280911A1390911B13E0911813F5
:10348000F09119138E36910549F5EE31F10531F5BC
:10349000C73C81E0D8072CF4109215131092141336
:1034A00008C0CC32A2E0DA0724F010921713109271
:1034B0001613083382E018070CF474C28EE690E00D
:1034C00090931B1380931A1382E090E0909315134E
:1034D00080931413109217131092161380911A13DD
:1034E00090911B138238910541F5EE31F10529F5D4
:1034F000CC3282E0D8072CF01092151310921413DE
:1035000007C0C73CD14024F4109217131092161331
:103510000833A2E01A070CF44FC282E890E09093BF
:103520001B1380931A1382E090E0909315138093FD
:103530001413109217131092161360911A137091AE
:103540001B138091161390911713860F971F90935A
:103550001B1380931A1360911413709115136E0F3F
:103560007F1F709319136093181310921713109202
:10357000161310921513109214138417950719F44B
:103580006217730711F00E943204809100028111CA
:103590000E94CD050E94AE076AE070E080E090E0F6
:1035A000DF91CF911F910F910C94D220033DA1E0A8
:1035B0001A0714F00C94EA0E8EEF9FEF90931513F8
:1035C000809314130C94EA0E0833A2E01A0714F443
:1035D0000C945B0F86E990E090931B1380931A1371
:1035E000109217131092161382E090E09093151327
:1035F000809314130C945B0F033D81E0180714F0C3
:103600000C94FF0F10921513109214130C94FF0FCB
:10361000033DA1E01A0714F00C9437101092151313
:10362000109214130C9437100833E2E01E0714F4C0
:103630000C946D1010921513109214130C946D10BD
:10364000083382E0180714F40C94A3101092151399
:10365000109214130C94A3100833A2E01A0714F468
:103660000C94D81010921513109214130C94D810B7
:103670000833E2E01E0714F40C940E111092151397
:10368000109214130C940E110833A2E01A0714F4CC
:103690000C94BF1110921513109214130C94BF11B7
:1036A0000833A2E01A0714F40C94F61110921513C3
:1036B000109214130C94F611033DA1E01A0714F0B4
:1036C0000C942C1210921513109214130C942C12AB
:1036D000033DA1E01A0714F00C9463121092151325
:1036E000109214130C9463120833A2E01A0714F416
:1036F0000C94981210921513109214130C949812A3
:103700000833A2E01A0714F40C94CD12109215138A
:10371000109214130C94CD12033DA1E01A0714F07B
:103720000C94041310921513109214130C94041398
:10373000033DA1E01A0714F00C943B1310921513EB
:10374000109214130C943B1382E090E00C947413C9
:1037500062E070E006C8033DA1E01A070CF083C9DF
:103760006CE370E070931B1360931A13109217139D
:10377000109216136EEF7FEF70931513609314136E
:1037800072C9033DA1E01A070CF0A1C964EB70E017
:1037900070931B1360931A13109217131092161341
:1037A0006EEF7FEF709315136093141390C9083375
:1037B000A2E01A070CF49DCA10921513109214136C
:1037C00098CA0833E2E01E070CF4BCCA1092151325
:1037D00010921413B7CA033DE1E01E070CF0E2CAD1
:1037E0001092151310921413DDCA033DE1E01E0779
:1037F0000CF008CB109215131092141303CB08335E
:10380000E2E01E070CF42ECB109215131092141345
:1038100029CB0833E2E01E070CF454CB10921513A9
:10382000109214134FCB0833E2E01E070CF47ACB4E
:10383000109215131092141375CB0833E2E01E0793
:103840000CF4A0CB10921513109214139BCBC73C11
:10385000E1E0DE070CF07ECC86E490E09093191353
:10386000809318138EEF9FEFA1CCC73CE1E0DE07F9
:103870000CF0A4CC86E490E0909319138093181375
:103880008EEF9FEFC7CCC73CE1E0DE070CF0CACC5F
:1038900086E490E090931913809318138EEF9FEFB6
:1038A000F1CCC73CE1E0DE070CF0F4CC86E490E01C
:1038B00090931913809318138EEF9FEF1CCDCC3289
:1038C000E2E0DE072CF4C73CE1E0DE0754F01BCD5C
:1038D00086E490E0909319138093181382E090E0AF
:1038E00008C086E490E090931913809318138EEF2C
:1038F0009FEF909317138093161305C0033D81E04B
:1039000018070CF045CD109215131092141340CDEA
:10391000083382E0180794F384E190E090931B133E
:1039200080931A1382E090E0909315138093141300
:1039300010921713109216132BCD8EE190E09093F6
:1039400019138093181382E090E008C08EE190E094
:1039500090931913809318138EEF9FEF9093171382
:103960008093161305C0033D61E016070CF082CD6D
:1039700010921513109214137DCD083362E01607D0
:1039800094F38CED90E090931B1380931A1382E0D4
:1039900090E09093151380931413109217131092C4
:1039A000161368CD033D61E016070CF097CD109219
:1039B00015131092141392CD033D11400CF0BDCDA0
:1039C0001092151310921413B8CDCC32E2E0DE073A
:1039D00024F01092171310921613083362E01607A2
:1039E0003CF082E090E0909315138093141308C08C
:1039F000033D81E0180724F410921513109214135C
:103A0000C73CA1E0DA0714F00C94FC0E8EE091E0C4
:103A100090931913809318138EEF9FEF90931713C1
:103A20008093161310921513109214130C94FC0E1D
:103A3000033DA1E01A0714F00C94160F8EEF9FEFD0
:103A400090931513809314130C94160FCC32E2E06C
:103A5000DE073CF0109215131092141382E090E0F0
:103A60000AC0C73C61E0D60754F4109215131092B7
:103A700014138EEF9FEF9093171380931613083350
:103A800082E0180714F40C945B0F8AE590E0A4CD53
:103A9000DF91CF911F910F9108952F923F924F92F6
:103AA0005F926F927F928F929F92AF92BF92CF92CE
:103AB000DF92EF92FF920F931F93CF93DF93CDB7D7
:103AC000DEB76C970FB6F894DEBF0FBECDBF82E0B5
:103AD0000E943D227C0186E30E945A216C0187E30B
:103AE0000E945A2120911213309113132130310575
:103AF00009F069C02091500330915103283C3105F1
:103B00000CF061C0875C91408536910548F483EDE7
:103B1000C81A81E0D80A95E6C916D10408F453C042
:103B200062E072E082ED93E10E94A3228091500353
:103B30009091510324E1289FF001299FF00D112459
:103B4000EE5AFC4F20911A1330911B1331832083BE
:103B5000209118133091191333832283209110136D
:103B6000309111133583248320910E1330910F135C
:103B70003783268320910C1330910D1331872087D2
:103B800020910A1330910B13338722872091081359
:103B9000309109133587248720910613309107133C
:103BA000378726872091041330910513318B208BA2
:103BB0002091021330910313338B228B0196909343
:103BC0005103809350038091121390911313009727
:103BD00079F4EF2889F46CE072E082ED93E10E94C1
:103BE000C02281E090E0909313138093121335C1AB
:103BF000019711F4EF2841F0809150039091510307
:103C0000873C910509F047C166E172E082ED93E1DE
:103C10000E94C022109213131092121385E0E82E16
:103C2000F12C65E272E082ED93E10E94A3224AE06A
:103C300050E0B70182ED93E10E94722369E372E0E4
:103C400082ED93E10E94C022E1E0EE1AF10868EEF5
:103C500073E080E090E00E94D220E114F10409F7C3
:103C6000C0905003D090510384E18C9D90018D9DB4
:103C7000300D1124C9018E5A9C4F9C8F8B8FD7FC1D
:103C800092C0EB8DFC8D8080918062807380448037
:103C9000558026803780F085F983EB8DFC8DF1858A
:103CA000FA83EB8DFC8DF285FB83EB8DFC8DF38528
:103CB000FC83EB8DFC8DF485FD83EB8DFC8DF58510
:103CC000FE83EB8DFC8DF685FF83EB8DFC8DF785F8
:103CD000F887EB8DFC8DF089F987EB8DFC8DF189F0
:103CE000FA87EB8DFC8DE288F3888016910619F433
:103CF0006A147B0459F19501A801B301C4010E9423
:103D000032042D853E854B855C85B101C2010E9440
:103D1000550429893A894F8558896B817C8189812D
:103D20009A810E9478042D893E894B895C896F8134
:103D300078858D819E810E949B04298D3A8D4F89C3
:103D4000588DB70189859A850E94BE040E94AE07EE
:103D500069E170E080E090E00E94D220F1E0CF1AAB
:103D6000D1088B8D9C8D44979C8F8B8FE98EFA8E1A
:103D700099859F8BEA85E88FFF81FD8B88858E8BE7
:103D80009D819B8BEE81EC8BFB81F98B8C818A8BE7
:103D900099819F87EA81E88B2D863E864B865C86DB
:103DA000530184016CCF1092510310925003809103
:103DB00052039091530390931B1380931A13809195
:103DC0005403909155039093191380931813809185
:103DD0005603909157039093111380931013809181
:103DE00058039091590390930F1380930E13809171
:103DF0005A0390915B0390930D1380930C13809161
:103E00005C0390915D0390930B1380930A13809150
:103E10005E0390915F039093091380930813809140
:103E20006003909161039093071380930613809130
:103E30006203909163039093051380930413809120
:103E4000640390916503909303138093021366E4D7
:103E500072E082ED93E10E94C02264EF71E080E0A5
:103E600090E06C960FB6F894DEBF0FBECDBFDF9129
:103E7000CF911F910F91FF90EF90DF90CF90BF9067
:103E8000AF909F908F907F906F905F904F903F90FA
:103E90002F900C94D2206C960FB6F894DEBF0FBE14
:103EA000CDBFDF91CF911F910F91FF90EF90DF90E9
:103EB000CF90BF90AF909F908F907F906F905F90CA
:103EC0004F903F902F9008950E94F82040E855E2CF
:103ED00060E070E082ED93E10E94F52582ED93E1D0
:103EE0000E94C62362E082E00E94D12140E050E0BF
:103EF000BA0180E393E10C943730EF92FF920F9375
:103F00001F93CF93DF9360E070E080E393E10E9422
:103F10000329C8E7D0E0D0931B13C0931A1380EF96
:103F200090E0909319138093181300EE1FEF27E091
:103F300030E040EF50E068E770E080E393E10E94FA
:103F4000012B8FE1E82EF12C04E010E020EF30E0AF
:103F500046E351E060E070E080E393E10E941F2FB0
:103F600020EF30E04AE050E060E070E080E393E171
:103F70000E941F2F0EE110E023E030E04AE050E005
:103F800060E070E080E393E10E941F2F0E94AE0783
:103F900061E080E393E10E943A2E60E080E393E1E8
:103FA0000E94402E80910002882309F464C020EA18
:103FB00030E0309311132093101388EC90E090932D
:103FC0000F1380930E13D0930D13C0930C13909383
:103FD0000B1380930A1384E690E090930913809367
:103FE000081346E450E050930713409306133093B0
:103FF000051320930413909303138093021300E09E
:1040000018EF27E030E048EC50E060EA70E080E331
:1040100093E10E94012B40910A1350910B13609180
:104020000C1370910D130FE118EF27E030E080E3DF
:1040300093E10E94012B4091061350910713609168
:104040000813709109130FEF17E027E030E080E3C9
:1040500093E10E94012B4091021350910313609150
:1040600004137091051300E21DEF27E030E080E3B8
:1040700093E10E94012B40E050E060E070E080E3BB
:1040800093E10E94342E61E080E393E10E943A2E96
:104090006FE972E080E393E10E94C0226EE772E074
:1040A00080E393E1DF91CF911F910F91FF90EF900B
:1040B0000C94C0220E94641F0E947D1F0E94B609BA
:1040C0000E944D1DFBCF1F920F920FB60F9211242D
:1040D0002F933F938F939F93AF93BF9380916413DC
:1040E00090916513A0916613B0916713309163139B
:1040F00023E0230F2D3720F40196A11DB11D05C02B
:1041000026E8230F0296A11DB11D2093631380930F
:10411000641390936513A0936613B0936713809113
:10412000681390916913A0916A13B0916B13019673
:10413000A11DB11D8093681390936913A0936A1316
:10414000B0936B13BF91AF919F918F913F912F913E
:104150000F900FBE0F901F9018953FB7F894809165
:10416000681390916913A0916A13B0916B1326B5EF
:10417000A89B05C02F3F19F00196A11DB11D3FBF9F
:10418000BA2FA92F982F8827820F911DA11DB11D2D
:10419000BC01CD0142E0660F771F881F991F4A9529
:1041A000D1F70895CF92DF92EF92FF92CF93DF93F2
:1041B0006B017C010E94AD20EB01C114D104E1042C
:1041C000F10479F00E94AD206C1B7D0B683E7340BA
:1041D000A0F381E0C81AD108E108F108C851DC4F0A
:1041E000ECCFDF91CF91FF90EF90DF90CF900895CB
:1041F000789484B5826084BD84B5816084BD85B5C2
:10420000826085BD85B5816085BDEEE6F0E0808188
:1042100081608083E1E8F0E01082808182608083A9
:10422000808181608083E0E8F0E08081816080832C
:10423000E1EBF0E0808184608083E0EBF0E080815E
:1042400081608083E1E9F0E0808182608083808109
:1042500081608083E0E9F0E0808181608083E1EA31
:10426000F0E0808182608083808181608083E0EAE9
:10427000F0E0808181608083E1E2F1E08081826012
:104280008083808181608083E0E2F1E080818160D1
:104290008083EAE7F0E080818460808380818260AF
:1042A0008083808181608083808180688083109298
:1042B000C1000895863308F0865390917B00282F23
:1042C0002870977F922B90937B008770209101023A
:1042D00090E4299F90011124822B80937C0080918F
:1042E0007A00806480937A0080917A0086FDFCCF0A
:1042F000809178002091790090E0922B089590E0D1
:10430000FC013197E131F10508F04AC08827EE58E9
:10431000FF4F8F4F0C942E35809180008F7703C014
:10432000809180008F7D80938000089584B58F7781
:1043300002C084B58F7D84BD08958091B0008F77D1
:1043400003C08091B0008F7D8093B000089580916C
:1043500090008F7707C0809190008F7D03C080917F
:104360009000877F8093900008958091A0008F77C0
:1043700007C08091A0008F7D03C08091A000877F3F
:104380008093A0000895809120018F7707C08091CD
:1043900020018F7D03C080912001877F80932001C1
:1043A0000895CF93DF9390E0FC01E05EFD4F2491F0
:1043B000FC01EA59FD4F8491882361F190E0880F58
:1043C000991FFC01E052FD4FC591D491FC01EA53C5
:1043D000FD4FA591B491611109C09FB7F8948881F0
:1043E000209582238883EC912E230BC0623061F4E8
:1043F0009FB7F8943881822F809583238883EC912E
:104400002E2B2C939FBF06C08FB7F894E8812E2BDC
:1044100028838FBFDF91CF9108951F93CF93DF93B0
:10442000282F30E0F901E652FE4F8491F901E05E59
:10443000FD4FD491F901EA59FD4FC491CC23C9F045
:10444000162F81110E947F21EC2FF0E0EE0FFF1F4D
:10445000EA53FD4FA591B4918FB7F894111105C09F
:104460009C91ED2FE095E92302C0EC91ED2BEC93AC
:104470008FBFDF91CF911F910895CF93DF93282FA6
:1044800030E0F901E652FE4F8491F901E05EFD4F04
:10449000D491F901EA59FD4FC491CC2391F08111D7
:1044A0000E947F21EC2FF0E0EE0FFF1FE455FD4F3F
:1044B000A591B491EC91ED2381E090E021F480E0AE
:1044C00002C080E090E0DF91CF910895CF92DF921B
:1044D000EF92FF920F931F93CF93DF936C01EB0149
:1044E0007B01E40EF51E00E010E0CE15DF0561F063
:1044F0006991D601ED91FC910190F081E02DC6010A
:104500001995080F191FF1CFC801DF91CF911F91A5
:104510000F91FF90EF90DF90CF9008956115710596
:1045200079F0FB0101900020E9F73197AF01461BBC
:10453000570BDC01ED91FC910280F381E02D199481
:1045400080E090E008950C948E22DC01ED91FC91C6
:104550000190F081E02D19940F931F93CF93DF9377
:10456000EC016DE00E94A5228C016AE0CE010E9460
:10457000A522800F911FDF91CF911F910F91089578
:104580000F931F93CF93DF93EC010E948E228C0137
:10459000CE010E94AC22800F911FDF91CF911F911D
:1045A0000F9108958F929F92AF92BF92CF92DF9218
:1045B000EF92FF920F931F93CF93DF93CDB7DEB7A8
:1045C000A1970FB6F894DEBF0FBECDBF6C01142FBC
:1045D000E52FCB01022F19A2223008F40AE07E0158
:1045E00021E2E20EF11C802E912CA12CB12C612F26
:1045F0007E2FA50194010E940C35029F10191124F1
:1046000081E0E81AF1081A3014F4105D01C0195C59
:10461000F7011083122FE32FCA01232B242B252B04
:1046200031F7B701C6010E948E22A1960FB6F89409
:10463000DEBF0FBECDBFDF91CF911F910F91FF90D5
:10464000EF90DF90CF90BF90AF909F908F900895A4
:10465000CF92DF92EF92FF920F931F93CF93DF934E
:10466000EC016A017B012115310579F4E881F981BA
:104670000190F081E02D642FDF91CF911F910F9178
:10468000FF90EF90DF90CF9019942A303105E9F434
:1046900077FF1AC06DE20E94A5228C01442755279E
:1046A000BA014C195D096E097F092AE0CE010E940A
:1046B000D222800F911FDF91CF911F910F91FF9018
:1046C000EF90DF90CF9008952AE0B701A601CE01C8
:1046D000DF91CF911F910F91FF90EF90DF90CF90DE
:1046E0000C94D2229A01AB01770F660B770B0C94D6
:1046F00028230895FC0124853585F901E05CFF4FEE
:1047000080819181329620813181821B930B8F733E
:1047100099270895DC011C96ED91FC911D97DF010E
:10472000A05CBF4F2D913C91119712968D919C9159
:1047300011972817390739F08D919C91E80FF91FCF
:10474000808190E008958FEF9FEF0895FC01A4858C
:10475000B585FD01E05CFF4F20813181329680817B
:1047600091812817390779F080819181A80FB91FAD
:104770008C91208131812F5F3F4F2F7333273183FD
:10478000208390E008958FEF9FEF0895FC0181A1B1
:10479000882329F0A489B5898C9186FFFBCF11A2CB
:1047A00008950F931F93CF93DF93FC01A685B785E0
:1047B0008D01005C1F4FE8018881998101968F73FC
:1047C0009927AD014E5B5F4FEA012881398182173D
:1047D0009307D1F3E80128813981A20FB31F6C93AD
:1047E000A685B785A05CBF4F11969C938E93A68932
:1047F000B7892C9181E090E0078C02C0880F991F47
:104800000A94E2F7822B8C9381E081A30488F589D6
:10481000E02D80818064808381E090E0DF91CF9102
:104820001F910F910895FB01E05CFF4F20813181C2
:104830002F5F3F4F2F733327DB01AE5BBF4F4D918F
:104840005C912417350741F040815181DB01A40FB1
:10485000B51F8C933183208308951F920F920FB65A
:104860000F9211240BB60F922F933F934F935F93A8
:104870006F937F938F939F93AF93BF93EF93FF9328
:104880008091C00082FD07C08091C60060ED75E197
:104890000E94132402C08091C600FF91EF91BF9146
:1048A000AF919F918F917F916F915F914F913F91C8
:1048B0002F910F900BBE0F900FBE0F901F90189569
:1048C0001F920F920FB60F9211240BB60F922F93D7
:1048D0003F934F935F936F937F938F939F93AF9388
:1048E000BF93EF93FF938091C80082FD07C0809132
:1048F000CE0068E475E10E94132402C08091CE00CE
:10490000FF91EF91BF91AF919F918F917F916F91A7
:104910005F914F913F912F910F900BBE0F900FBE63
:104920000F901F9018951F920F920FB60F9211249F
:104930000BB60F922F933F934F935F936F937F9399
:104940008F939F93AF93BF93EF93FF938091D0008A
:1049500082FD07C08091D60060EC74E10E941324B0
:1049600002C08091D600FF91EF91BF91AF919F91CE
:104970008F917F916F915F914F913F912F910F9008
:104980000BBE0F900FBE0F901F9018951F920F92A5
:104990000FB60F9211240BB60F922F933F934F93A4
:1049A0005F936F937F938F939F93AF93BF93EF9397
:1049B000FF938091300182FD07C08091360168E34A
:1049C00074E10E94132402C080913601FF91EF919F
:1049D000BF91AF919F918F917F916F915F914F9117
:1049E0003F912F910F900BBE0F900FBE0F901F9015
:1049F00018951F920F920FB60F9211240BB60F92BB
:104A00002F933F938F939F93EF93FF932091CC1518
:104A10003091CD158091CE159091CF15281739077B
:104A200031F48091C1008F7D8093C10014C0E0916A
:104A3000CE15F091CF15E457FA4E20818091CE1516
:104A40009091CF1501968F7399279093CF158093EE
:104A5000CE152093C600FF91EF919F918F913F91CA
:104A60002F910F900BBE0F900FBE0F901F901895B7
:104A70001F920F920FB60F9211240BB60F922F9325
:104A80003F938F939F93EF93FF9320914415309121
:104A9000451580914615909147152817390731F42F
:104AA0008091C9008F7D8093C90014C0E0914615A4
:104AB000F0914715EC5FFA4E208180914615909158
:104AC000471501968F739927909347158093461544
:104AD0002093CE00FF91EF919F918F913F912F9165
:104AE0000F900BBE0F900FBE0F901F9018951F9246
:104AF0000F920FB60F9211240BB60F922F933F9384
:104B00008F939F93EF93FF932091BC143091BD142A
:104B10008091BE149091BF142817390731F4809109
:104B2000D1008F7D8093D10014C0E091BE14F0912C
:104B3000BF14E458FB4E20818091BE149091BF14A5
:104B400001968F7399279093BF148093BE1420937E
:104B5000D600FF91EF919F918F913F912F910F90F0
:104B60000BBE0F900FBE0F901F9018951F920F92C3
:104B70000FB60F9211240BB60F922F933F938F9382
:104B80009F93EF93FF9320913414309135148091CB
:104B90003614909137142817390731F48091310178
:104BA0008F7D8093310114C0E0913614F091371459
:104BB000EC50FC4E20818091361490913714019670
:104BC0008F7399279093371480933614209336016E
:104BD000FF91EF919F918F913F912F910F900BBE7D
:104BE0000F900FBE0F901F901895CF92DF92EF920B
:104BF000FF920F931F93CF93DF93EC016A017B0128
:104C00004115514E6105710509F1EC89FD8981E07D
:104C100090E008A002C0880F991F0A94E2F78083F1
:104C200060E079E08DE390E0A70196010E940C35E9
:104C300089019A01015011092109310936952795F9
:104C400017950795980101151041A8F0EC89FD8989
:104C5000108260E874E88EE190E0A70196010E945E
:104C60000C35DA01C9010197A109B109B695A795DB
:104C7000979587959C01E889F9893083EA89FB89B2
:104C8000208319A2EE89FF89408181E090E09C0198
:104C90000C8C02C0220F331F0A94E2F7242B2083CE
:104CA000EE89FF8940819C010D8C02C0220F331FC9
:104CB0000A94E2F7242B2083EE89FF8940819C012E
:104CC0000E8C02C0220F331F0A94E2F7242B20839C
:104CD000EE89FF8920810F8C02C0880F991F0A94EA
:104CE000E2F7809582238083DF91CF911F910F910E
:104CF000FF90EF90DF90CF900895CF92DF92EF92E8
:104D0000FF92E2EDF3E11382128288EEC82E83E077
:104D1000D82EE12CF12CC482D582E682F78264EF92
:104D200072E07183608380ED95E1958784878CE8DC
:104D300095E19787868785EC90E0918B808B84EC5A
:104D400090E0938B828B80EC90E0958B848B81EC50
:104D500090E0978B868B82EC90E0918F808F86EC31
:104D600090E0938F828F44E0448F33E0358F27E0CB
:104D7000268F95E0978F81E080A3E0EBF3E113822B
:104D80001282C482D582E682F78271836083A8E4AE
:104D9000B5E1B587A487A4E0B5E1B787A687ADECF8
:104DA000B0E0B18BA08BACECB0E0B38BA28BA8ECE5
:104DB000B0E0B58BA48BA9ECB0E0B78BA68BAAECC6
:104DC000B0E0B18FA08FAEECB0E0B38FA28F448F74
:104DD000358F268F978F80A3EEE8F3E1138212823E
:104DE000C482D582E682F78271836083A0ECB4E14D
:104DF000B587A487ACE7B4E1B787A687A5EDB0E097
:104E0000B18BA08BA4EDB0E0B38BA28BA0EDB0E092
:104E1000B58BA48BA1EDB0E0B78BA68BA2EDB0E073
:104E2000B18FA08FA6EDB0E0B38FA28F448F358FE6
:104E3000268F978F80A3ECE6F3E113821282C4825F
:104E4000D582E682F7827183608368E374E17587B7
:104E5000648764EF73E17787668765E371E0718B40
:104E6000608B64E371E0738B628B60E371E0758B40
:104E7000648B61E371E0778B668B62E371E0718F25
:104E8000608F66E371E0738F628F448F358F268F5A
:104E9000978F80A3FF90EF90DF90CF9008952F928F
:104EA0003F924F925F926F927F928F929F92AF92BA
:104EB000BF92CF92DF92EF92FF920F931F93CF9307
:104EC000DF9300D0CDB7DEB74C017B836A836A01E4
:104ED000590117019801241B350B37FF03C0319589
:104EE00021953109C5014A815B81841B950B97FF90
:104EF00003C091958195910951E0598382179307D9
:104F000014F019820BC09A2D8B2D5801092F182FE0
:104F10009A818B81DB82CA82C92ED82E8A819B819D
:104F2000A816B9065CF49C2D8D2D6801092F182F49
:104F30009A818B81BB82AA82A92EB82E2501AA81D3
:104F4000BB814A1A5B0A38016C187D0877FE03C0E2
:104F5000719461947108720157FE03C0BFEFEB1AA0
:104F6000FB0AF594E794C016D1061CF00FEF1FEF73
:104F70001FC001E010E01CC0D401ED91FC91B9818B
:104F80000084F185E02D9101BB23C1F04A815B8152
:104F9000B601C4011995E618F708F7FE04C0C00E63
:104FA000D11EE40CF51CEA81FB813196FB83EA8378
:104FB0004A815B81A416B506FCF604C0A6016A818D
:104FC0007B81E7CF0F900F900F90DF91CF911F91D2
:104FD0000F91FF90EF90DF90CF90BF90AF909F9098
:104FE0008F907F906F905F904F903F902F9008959B
:104FF0000895DC01ED91FC910480F581E02D199478
:105000000F931F93DC01ED91FC91008CF18DE02D4D
:1050100019951F910F9108950F931F93DC01ED9146
:10502000FC91028CF38DE02D19951F910F9108953D
:10503000EF92FF920F931F93DC01ED91FC91048C92
:10504000F58DE02D19951F910F91FF90EF90089528
:105050000895AF92BF92CF92DF92EF92FF920F939B
:105060001F93CF93DF9300D01F92CDB7DEB75C01C3
:105070006901DC01ED91FC910680F781E02D4B8305
:105080005C8369837A831995D501ED91FC914B81FD
:105090005C81C40ED51EB1E0CB1AD1080088F1891D
:1050A000E02D7801860169817A819B01C5011995FE
:1050B000D501ED91FC910288F389E02DC5010F9097
:1050C0000F900F900F90DF91CF911F910F91FF9054
:1050D000EF90DF90CF90BF90AF901994AF92BF92B6
:1050E000CF92DF92EF92FF920F931F93CF93DF93B4
:1050F00000D01F92CDB7DEB75C016901DC01ED91F4
:10510000FC910680F781E02D4B835C8369837A8371
:105110001995D501ED91FC9169817A819B012C0D46
:105120003D1D215031090088F189E02D78014B8126
:105130005C818A01C5011995D501ED91FC91028828
:10514000F389E02DC5010F900F900F900F90DF9124
:10515000CF911F910F91FF90EF90DF90CF90BF9074
:10516000AF9019944F925F926F927F928F929F921D
:10517000AF92BF92CF92DF92EF92FF920F931F9365
:10518000CF93DF931F921F92CDB7DEB76C015A0108
:1051900039014801DC01ED91FC910680F781E02D99
:1051A00069837A8319956981462E7A81572E640C1A
:1051B000751CD601ED91FC91461457046CF40484DF
:1051C000F585E02D87019401A501B201C60119956D
:1051D000BFEF4B1A5B0AEDCF0288F389E02DC601C1
:1051E0000F900F90DF91CF911F910F91FF90EF9053
:1051F000DF90CF90BF90AF909F908F907F906F90F7
:105200005F904F901994EF92FF920F931F93DC01E0
:10521000ED91FC9111971A960D911C911B97189680
:105220002D913C911997048CF58DE02D7B0140E088
:1052300050E060E070E019951F910F91FF90EF90A2
:105240000895CF92DF92EF92FF920F931F93CF9327
:10525000DF9300D000D0CDB7DEB76C01DC01ED915B
:10526000FC916217730789F4041715072CF4942F27
:10527000852FA801092F182F041B150B98012F5FEC
:105280003F4F008CF18DE02D12C04017510709F5FA
:10529000261737072CF4962F872FB901292F382F7F
:1052A000261B370B2F5F3F4F028CF38DE02D8701BC
:1052B000C601199526960FB6F894DEBF0FBECDBF76
:1052C000DF91CF911F910F91FF90EF90DF90CF90E2
:1052D00008950680F781E02D2D833E834B835C8308
:1052E00069837A831995D601ED91FC910088F18943
:1052F000E02D2D813E814B815C8169817A81C601DF
:105300001995D601ED91FC910288F389E02DC60133
:1053100026960FB6F894DEBF0FBECDBFDF91CF91BA
:105320001F910F91FF90EF90DF90CF9019946F92A3
:105330007F928F929F92AF92BF92CF92DF92EF9225
:10534000FF920F931F93CF93DF93EC014B015A0110
:1053500069013801E881F9810680F781E02D19950E
:10536000E881F9810684F785E02D87019601A50182
:10537000B401CE011995E881F981A501460D571DAB
:10538000415051090684F785E02D9601B401CE0104
:105390001995E881F9810484F585E02D9301A50133
:1053A000B401CE011995E881F981C80CD91CB60168
:1053B000615071090484F585E02D9301A501CE01AA
:1053C0001995E881F9810288F389E02DCE01DF91FA
:1053D000CF911F910F91FF90EF90DF90CF90BF90F2
:1053E000AF909F908F907F906F9019940895FC01DB
:1053F0006370658B8481958126813781613039F0B6
:10540000633029F091878087338722870895318719
:105410002087938782870895FC011382128284E09B
:1054200093E0918380837583648357834683718778
:10543000608753874287158A1586148617861686D5
:1054400081E0848B2FEF3FEF338B228B318B208BCE
:10545000868B178A118E108E08952F923F924F924D
:105460005F926F927F928F929F92AF92BF92CF92F4
:10547000DF92EF92FF920F931F93CF93DF93CDB7FD
:10548000DEB728970FB6F894DEBF0FBECDBF5C0124
:105490003B014A0138872F83FC82EB8281E090E058
:1054A0002C01421A530AC9019195819591099C01D9
:1054B000220F331F3A832983170133E0230E311C57
:1054C000EE24E394F12C802F81708D8302700E8383
:1054D000C7010197EF81F8858E179F070CF078C000
:1054E00057FC0CC0AF81B8851197B887AF83E981AD
:1054F000FA813296FA83E9834E0E5F1EC701880F48
:10550000991F0196480E591EFD81FF2359F1D501BF
:10551000ED91FC912F813885220F331F2F5F3F4F74
:105520008B819C81280F391F0484F585E02D86012D
:10553000A401AF81B8854A1B5B0BB701660D771DCF
:10554000C5011995D501ED91FC910484F585E02DF7
:105550009101A4014E195F096F817885660D771D51
:10556000C5011995BE81BB2361F1D501ED91FC9177
:105570002F813885220F331F2F5F3F4F8B819C81F6
:10558000280F391F0484F585E02D8601A401AF8121
:10559000B8854A1B5B0BB3016E197F09C5011995CC
:1055A000D501ED91FC910484F585E02D9101A401D4
:1055B0004E195F09B3018F819885681B790BC5016E
:1055C00019959FEFE91AF90AA2E02A0E311C80CF43
:1055D00028960FB6F894DEBF0FBECDBFDF91CF91F6
:1055E0001F910F91FF90EF90DF90CF90BF90AF9001
:1055F0009F908F907F906F905F904F903F902F90F3
:1056000008956F927F928F929F92AF92BF92CF92A6
:10561000DF92EF92FF920F931F93CF93DF93EC01F2
:105620004B013A0159016801E881F9810680F7814F
:10563000E02D1995E881F9819501220F331F2F5F25
:105640003F4FA3014A195B090484F585E02DB4019D
:10565000CE011995E12CF12C03E09501A301B401D1
:10566000CE010E942D2AE881F9810288F389E02D7C
:10567000CE01DF91CF911F910F91FF90EF90DF90BE
:10568000CF90BF90AF909F908F907F906F90199424
:105690002F923F924F925F926F927F928F929F9242
:1056A000AF92BF92CF92DF92EF92FF920F931F9330
:1056B000CF93DF93CDB7DEB76C970FB6F894DEBF0C
:1056C0000FBECDBF9C8F8B8F5B011A011F830E8392
:1056D0003701C982DC0158964D915C91599741156B
:1056E000510509F0E5C018968D919C91199768179E
:1056F00079070CF0CAC11A968D919C911B972816B8
:1057000039060CF0C2C18C2C912CFB0136E0C39EF3
:10571000E00DF11D1124FB87EA871E161F060CF011
:10572000B4C1C40133E0880F991F3A95E1F79D8712
:105730008C87820D931D181619060CF0A6C157967A
:105740008C91811103C0203B08F02F5FAB8DBC8D85
:10575000ED91FC9111970680F781E02DCD012A8F04
:1057600019952A8DB5E02B9F90011124F5013596EE
:10577000FF87EE872501BB82AA82A9014A195B092E
:10578000598B488BC10108969B8B8A8BE889F989D4
:10579000E40DF51DE650FD4F949198873D822C82D3
:1057A0006101A885A0FF13C0AB8DBC8DED91FC916C
:1057B000B981B13031F40084F185E02D2E813F8133
:1057C00016C00284F385E02DEE80FF801AC0EE81C2
:1057D000FF816E167F06F1F0AB8DBC8DED91FC91D3
:1057E000B981B13051F40084F185E02D9301A60117
:1057F000B2018B8D9C8D19950DC00284F385E02D2F
:105800007301840194014C815D816A817B818B8D60
:105810009C8D1995E885E695E8872C813D81280DBA
:10582000391D3D832C833FEFC31AD30A4A895B8914
:10583000C416D50609F0B5CF8A819B81880D991DC4
:105840009B838A839FEF491A590AAE85BF854A1602
:105850005B0609F09BCFEE81FF816E167F0609F48F
:10586000F2C0EB8DFC8DA081B181F981F13079F42A
:10587000B5016B5F7F4F1C96ED91FC911D978301E5
:1058800028E030E0A1018B8D9C8D1995DCC06A85E4
:105890007B85681979091A96ED91FC911B97730124
:1058A0000C851D859401A1018B8D9C8D1995CBC014
:1058B000FA0134969491329765917491291BCB012A
:1058C000B7E02B9F800D911D1124FA012591349191
:1058D0003B8B2A8BFC01459154915B834A83FC01ED
:1058E0003296C490319654915C87329614913196D9
:1058F000D4908981823058F0612E012E000C7708F7
:10590000AD2D0D2C000CBB0BB987A88704C01986E0
:105910001886612C712CAB8DBC8DED91FC9111978B
:105920000680F781E02DCD011995B9818B2E912C40
:10593000689CC001699C900D789C900D1124FC011D
:10594000EA0DFB1DF98BE88B1C82712C612CE12F79
:10595000110FFF0B95012E0F3F1F3B872A87AC0CC1
:10596000B11CA5014E0F5F1F5F8B4E8BC1018D0DCA
:10597000911DD7FC9A95998F888F4C85641608F0F5
:1059800062C0862D90E048855985480F591F489D73
:105990009001499D300D589D300D1124D901A20D63
:1059A000B31DBF87AE87AA84BB8448885988DC8032
:1059B000BA85DB1AE88DF98DE80FF91FFD8BEC8BAA
:1059C0008D2D8A0D2E893F89A216B306B9F18770F5
:1059D00061F48A819B810196EA89FB89AA81BB8156
:1059E000EA0FFB1F74909B838A8377FE20C0AB8DE8
:1059F000BC8DED91FC91B981B13061F40084F185E9
:105A0000E02D2E813F814C895D89B5018B8D9C8D68
:105A100019950DC00284F385E02DEE80FF8084018E
:105A200094014E855F85B2018B8D9C8D1995770C05
:105A3000480C591CEFEFAE1ABE0AC2CF3C813C0D98
:105A40003C8363949ACFAB8DBC8DED91FC91119703
:105A50000288F389E02DCD016C960FB6F894DEBF75
:105A60000FBECDBFDF91CF911F910F91FF90EF90AF
:105A7000DF90CF90BF90AF909F908F907F906F906E
:105A80005F904F903F902F9019946C960FB6F894BA
:105A9000DEBF0FBECDBFDF91CF911F910F91FF9061
:105AA000EF90DF90CF90BF90AF909F908F907F90BE
:105AB0006F905F904F903F902F900895AF92BF925C
:105AC000CF92EF92FF920F931F93CF93DF93EC014E
:105AD000262F888D998D009709F040C06A3059F4BF
