:100000000C94FF030C9430040C9430040C943004D2
:100010000C9430040C9430040C9430040C94300490
:100020000C9430040C9430040C9430040C94300480
:100030000C9430040C9430040C9430040C94300470
:100040000C9430040C9430040C9430040C94300460
:100050000C9430040C9430040C9430040C944C1E1A
:100060000C9430040C946D210C9439220C943004BF
:100070000C9430040C9430040C9430040C94300430
:100080000C9430040C9430040C9430040C94300420
:100090000C94A0210C9478220C9430040C9430041D
:1000A0000C9430040C9430040C9430040C94300400
:1000B0000C9430040C9430040C9430040C943004F0
:1000C0000C9430040C9430040C9430040C94D32120
:1000D0000C94B7220C9430040C9406220C94F62253
:1000E0000C9430047F1F821F751F791FB91F861F54
:1000F0008A1F901F941F981F9E1FA21FA61FB91F23
:10010000AC1FB01FB41F0C94252C0C94D7260C9454
:100110007F1F0C949E1F0C94981F0C94941F0C949A
:1001200058250C949D2C0C94BA200C94B92F0C9447
:100130004C250C94832B0C9439250C9468250C9435
:100140006D2F0C94A21F0C94F2250C942C310C945E
:10015000A61F0C9469250C94B91F0C94901F0C9445
:100160008F240C9443260C94BD230C945F2C0C9488
:1001700061260C94B01F0C94E6200C94B41F0C94D0
:100180008A1F0C94B52B0C9411210C9440250C94CF
:100190008E2B0C9437270C94821F0C94AE250C9454
:1001A0004F200C9436270C94AC1F0C9438250C94DB
:1001B000B1300C94B9200C94791F0C94861F0C94C8
:1001C00094070C94CA200C949E2A0C94A22B0C9495
:1001D00006210C94751F0C94EB2B0000090A0208F1
:1001E0000B0C0D07060304010000000000000000D6
:1001F00000000000000000000000000000000000FF
:1002000000000000000011100F00000000000000BE
:1002100000000000000000000000000000000000DE
:100220000102102020080810204010204080020108
:1002300002010804020101020408102040808040ED
:1002400020100804020180040201804020100804EC
:10025000020108040201010204081020408001028A
:100260000408102040800505050507050808080852
:10027000020202020A0A080804040404010101013E
:100280000101010103030303030303030407070739
:100290000C0C0C0C0C0C0C0C0202020206060606DE
:1002A000060606060B0B0B0B0B0B0B0B00002000BE
:1002B0002300260029002C002F003200000100003E
:1002C00003010601090100002200250028002B007F
:1002D0002E003100340002010000050108010B016D
:1002E00000002100240027002A002D0030003300E8
:1002F00001010000040107010A0100000000003EA6
:100300005B4F5B3E3E6B4F6B3E1C3E7C3E1C183C85
:100310007E3C181C577D571C1C5E7F5E1C00183CE1
:100320001800FFE7C3E7FF0018241800FFE7DBE72A
:10033000FF30483A060E2629792926407F05050711
:10034000407F05253F5A3CE73C5A7F3E1C1C08086D
:100350001C1C3E7F14227F22145F5F005F5F060932
:100360007F017F006689956A606060606094A2FF8B
:10037000A29408047E040810207E201008082A1C7D
:1003800008081C2A08081E101010100C1E0C1E0C49
:1003900030383E3830060E3E0E06000000000000E9
:1003A000005F00000007000700147F147F14242A58
:1003B0007F2A12231308646236495620500008072A
:1003C0000300001C2241000041221C002A1C7F1C4B
:1003D0002A08083E0808008070300008080808084D
:1003E000000060600020100804023E5149453E00B4
:1003F000427F400072494949462141494D33181412
:10040000127F1027454545393C4A49493141211160
:1004100009073649494936464949291E0000140052
:100420000000403400000008142241141414141475
:10043000004122140802015909063E415D594E7CD3
:100440001211127C7F494949363E414141227F4188
:1004500041413E7F494949417F090909013E4141E6
:1004600051737F0808087F00417F41002040413FD1
:10047000017F081422417F404040407F021C027FE0
:100480007F0408107F3E4141413E7F090909063E35
:100490004151215E7F091929462649494932030104
:1004A0007F01033F4040403F1F2040201F3F403816
:1004B000403F631408146303047804036159494DF1
:1004C00043007F4141410204081020004141417F27
:1004D000040201020440404040400003070800209D
:1004E000545478407F28444438384444442838449D
:1004F00044287F385454541800087E090218A4A4D4
:100500009C787F0804047800447D40002040403DF2
:10051000007F1028440000417F40007C047804786C
:100520007C080404783844444438FC1824241818FF
:10053000242418FC7C08040408485454542404045B
:100540003F44243C4040207C1C2040201C3C403048
:10055000403C44281028444C9090907C4464544C77
:1005600044000836410000007700000041360800D2
:1005700002010204023C2623263C1EA1A161123A7C
:100580004040207A385454555921555579412254C8
:10059000547842215554784020545579400C1E52CD
:1005A0007212395555555939545454593955545472
:1005B000580000457C410002457D420001457C40D9
:1005C0007D1211127DF0282528F07C54554500201D
:1005D00054547C547C0A097F4932494949323A448F
:1005E00044443A324A4848303A4141217A3A4240FA
:1005F0002078009DA0A07D3D4242423D3D404040CC
:100600003D3C24FF2424487E4943662B2FFC2F2B9E
:10061000FF0929F620C0887E09032054547941003F
:1006200000447D413048484A32384040227A007ABE
:100630000A0A727D0D19317D2629292F282629299C
:10064000292630484D4020380808080808080808BE
:10065000382F10C8ACBA2F102834FA00007B0000E5
:1006600008142A142222142A14085500550055AAE9
:1006700055AA55AAFF55FF55FF000000FF001010B6
:1006800010FF00141414FF001010FF00FF1010F0F2
:1006900010F0141414FC001414F700FF0000FF0005
:1006A000FF1414F404FC141417101F10101F101F53
:1006B0001414141F00101010F0000000001F101080
:1006C00010101F10101010F010000000FF1010107C
:1006D000101010101010FF10000000FF140000FF99
:1006E00000FF00001F10170000FC04F41414171082
:1006F000171414F404F40000FF00F7141414141475
:100700001414F700F7141414171410101F101F14EA
:100710001414F4141010F010F000001F101F00004B
:10072000001F14000000FC140000F010F01010FF77
:1007300010FF141414FF141010101F00000000F01C
:1007400010FFFFFFFFFFF0F0F0F0F0FFFFFF0000F1
:10075000000000FFFF0F0F0F0F0F3844443844FC18
:100760004A4A4A347E02020606027E027E0263552F
:100770004941633844443C04407E201E2006027EEA
:10078000020299A5E7A5991C2A492A1C4C720172FC
:100790004C304A4D4D303048784830BC625A463D66
:1007A0003E494949007E0101017E2A2A2A2A2A441B
:1007B000445F444440514A444040444A5140000050
:1007C000FF0103E080FF000008086B6B083612365B
:1007D0002436060F090F060000181800000010103C
:1007E000003040FF0101001F01011E00191D1712FA
:1007F000003C3C3C3C00000000009407BD23112459
:100800001FBECFEFD1E2DEBFCDBF00E00CBF13E0D3
:10081000A0E0B2E0ECE2F5E600E00BBF02C007901A
:100820000D92A830B107D9F726E0A8E0B3E001C0E7
:100830001D92A832B207E1F713E0CFEFD3E000E05A
:1008400006C021970109802FFE010E946E32CD3F24
:10085000D10780E00807A9F70E94431E0C94493293
:100860000C940000EF92FF920F931F93CF93DF93AE
:10087000EC017B01BA01A90100E010E027E030E0C3
:1008800084E493E00E94412800EE1FEF27E030E06F
:10089000A701BE0184E493E00E944128DF91CF913B
:1008A0001F910F91FF90EF900895EF92FF920F9399
:1008B0001F93CF93DF93EC017B01BA01A90100E004
:1008C00010E027E030E084E493E00E94412800E05B
:1008D00018EF27E030E0A701BE0184E493E00E9416
:1008E0004128DF91CF911F910F91FF90EF900895D4
:1008F000EF92FF920F931F93CF93DF93EC017B0155
:10090000BA01A90100E010E027E030E084E493E0C0
:100910000E9441280FE118EF27E030E0A701BE0157
:1009200084E493E00E944128DF91CF911F910F91C1
:10093000FF90EF900895EF92FF920F931F93CF9344
:10094000DF93EC017B01BA01A90100E010E027E090
:1009500030E084E493E00E9441280FEF17E027E0A5
:1009600030E0A701BE0184E493E00E944128DF91BA
:10097000CF911F910F91FF90EF900895EF92FF920A
:100980000F931F93CF93DF93EC017B01BA01A90171
:1009900000E010E027E030E084E493E00E9441288A
:1009A00000E21DEF27E030E0A701BE0184E493E000
:1009B0000E944128DF91CF911F910F91FF90EF90FE
:1009C0000895841B950B97FF03C08FEF9FEF04C022
:1009D000892B31F081E090E0909317038093160308
:1009E000621B730B77FF03C08FEF9FEF04C0672B71
:1009F00031F081E090E090931503809314032091EF
:100A00002603309127038091160390911703820FDC
:100A1000931F909327038093260320912403309102
:100A200025038091140390911503820F931F9093D7
:100A30002503809324030895841B950B97FF03C01F
:100A40008FEF9FEF04C0892B31F081E090E090930D
:100A5000130380931203621B730B77FF03C08FEFA6
:100A60009FEF04C0672B31F081E090E09093110379
:100A7000809310032091220330912303809112036D
:100A800090911303820F931F90932303809322036B
:100A90002091200330912103809110039091110344
:100AA000820F931F90932103809320030895841B4A
:100AB000950B97FF03C08FEF9FEF04C0892B31F098
:100AC00081E090E090930F0380930E03621B730B01
:100AD00077FF03C08FEF9FEF04C0672B31F081E0F9
:100AE00090E090930D0380930C0320911E033091AE
:100AF0001F0380910E0390910F03820F931F909319
:100B00001F0380931E0320911C0330911D038091CD
:100B10000C0390910D03820F931F90931D038093FC
:100B20001C030895841B950B97FF03C08FEF9FEF65
:100B300004C0892B31F081E090E090930B03809307
:100B40000A03621B730B77FF03C08FEF9FEF04C094
:100B5000672B31F081E090E09093090380930803C4
:100B600020911A0330911B0380910A0390910B038B
:100B7000820F931F90931B0380931A0320911803F5
:100B8000309119038091080390910903820F931FFC
:100B9000909319038093180308954F925F926F9278
:100BA0007F928F929F92AF92BF92CF92DF92EF92FD
:100BB000FF920F931F93CF93DF93C0912603D091A1
:100BC00027030091240310912503A0902203B090E5
:100BD00023038090200390902103E0901E03F09067
:100BE0001F03C0901C03D0901D0340901A03509027
:100BF0001B03609018037090190360912C0370918F
:100C00002D039801AE0180912E0390912F030E9435
:100C1000E10460912403709125039801AE01809155
:100C20002603909127030E945504209120033091C0
:100C30002103409122035091230360912C03709172
:100C40002D0380912E0390912F030E941C0560912B
:100C50002003709121039401A501809122039091BA
:100C600023030E94780420911C0330911D034091BE
:100C70001E0350911F0360912C0370912D038091EE
:100C80002E0390912F030E94570560911C037091D1
:100C90001D039601A70180911E0390911F030E94DE
:100CA0009B04209118033091190340911A0350912D
:100CB0001B0360912C0370912D0380912E03909162
:100CC0002F030E94920560911803709119039301FC
:100CD000A20180911A0390911B030E94BE046091AF
:100CE0002203709123038091260390912703861B92
:100CF000970B06960D9708F540912003509121031C
:100D00008091240390912503841B950B06960D97E3
:100D1000A0F400E010E027E030E084E493E00E94DB
:100D2000412884E190E090932303809322038EE195
:100D300090E0909321038093200360911E037091B3
:100D40001F038091260390912703861B970B06961D
:100D50000D9708F540911C0350911D0380912403C9
:100D600090912503841B950B06960D97A0F400E047
:100D700010E027E030E084E493E00E9441288CED0D
:100D800090E090931F0380931E038EE190E0909378
:100D90001D0380931C0360911A0370911B038091C3
:100DA000260390912703861B970B06960D9708F54F
:100DB00040911803509119038091240390912503C9
:100DC000841B950B06960D97A0F400E010E027E039
:100DD00030E084E493E00E94412884E190E0909325
:100DE0001B0380931A038CE291E090931903809384
:100DF000180360911E0370911F038091220390914C
:100E00002303861B970B06960D9708F540911C034C
:100E100050911D038091200390912103841B950B19
:100E200006960D97A0F400E010E027E030E084E49F
:100E300093E00E9441288CED90E090931F038093F3
:100E40001E038EE190E090931D0380931C0360913C
:100E50001A0370911B038091220390912303861B38
:100E6000970B06960D9708F54091180350911903BA
:100E70008091200390912103841B950B06960D977A
:100E8000A0F400E010E027E030E084E493E00E946A
:100E9000412884E190E090931B0380931A038CE235
:100EA00091E0909319038093180360911A03709155
:100EB0001B0380911E0390911F03861B970B0696C0
:100EC0000D9708F5409118035091190380911C0368
:100ED00090911D03841B950B06960D97A0F400E0DE
:100EE00010E027E030E084E493E00E94412884E1B0
:100EF00090E090931B0380931A038CE291E090930F
:100F0000190380931803DF91CF911F910F91FF90E8
:100F1000EF90DF90CF90BF90AF909F908F907F9099
:100F20006F905F904F900895EF92FF920F932FEF85
:100F300049E06AE084E493E00E94B62C8CE2E82E5B
:100F4000FF24F39405E029E348E364E080E393E0C1
:100F50000E949B310F91FF90EF900895EF92FF92C6
:100F60000F931F93EE24EA94FE2C00EF10E024EB85
:100F700030E040EF50E06CE370E084E493E00E94E6
:100F800061260EE011E02CE330E040EF50E06CE32E
:100F900070E084E493E00E94612624EB30E040EFAF
:100FA00050E064EB70E084E493E00E94612624E169
:100FB00030E04EE051E06CE370E084E493E00E94A6
:100FC00061262CED30E04EE051E064EB70E084E40B
:100FD00093E00E9461260CE211E024E130E04EE053
:100FE00051E064E170E084E493E00E9461262CED1E
:100FF00030E04EE051E06CED70E084E493E00E945C
:1010000061262CED30E04CE251E064E170E084E4D4
:1010100093E00E9461260EE011E02AE530E040EF07
:1010200050E06AE570E084E493E00E94612626E9DE
:1010300030E040EF50E066E970E084E493E00E9425
:1010400061262EE630E04EE051E06AE570E084E48F
:1010500093E00E94612622E830E04EE051E066E92C
:1010600070E084E493E00E9461260CE211E02EE639
:1010700030E04EE051E06EE670E084E493E00E94E0
:10108000612622E830E04EE051E062E870E084E45E
:1010900093E00E94612602ED10E02EE630E040EF82
:1010A00050E06EE670E084E493E00E94612622E85E
:1010B00030E040EF50E062E870E084E493E00E94AA
:1010C000612624E130E042ED50E06EE670E084E419
:1010D00093E00E9461262CED30E042ED50E062E8A2
:1010E00070E084E493E00E94612600EF10E024E1C8
:1010F00030E042ED50E064E170E084E493E00E946F
:1011000061262CED30E042ED50E06CED70E084E4BF
:1011100093E00E94612628E230E040EF50E064E175
:1011200070E084E493E00E94612628EC30E040EF18
:1011300050E06CED70E084E493E00E9461260EE0E4
:1011400011E028E230E040EF50E068E270E084E433
:1011500093E00E94612628EC30E040EF50E068EC1C
:1011600070E084E493E00E9461260EE110E02CE33D
:1011700030E040EF50E06CE370E084E493E00E94E4
:10118000612624EB30E040EF50E064EB70E084E453
:1011900093E00E9461262EE630E04EE150E064E1EB
:1011A00070E084E493E00E9461262CED30E04EE193
:1011B00050E062E870E084E493E00E94612606E477
:1011C00010E02EE630E04EE150E06EE670E084E4A0
:1011D00093E00E94612622E830E04EE150E062E8B0
:1011E00070E084E493E00E9461260EE610E024E1C2
:1011F00030E04EE150E064E170E084E493E00E946E
:1012000061262CED30E04EE150E06CED70E084E4BE
:1012100093E00E94612606E410E02CED30E046E405
:1012200050E064E170E084E493E00E9461260EE601
:1012300010E02CE330E04EE650E064E170E084E43E
:1012400093E00E9461262CED30E04EE650E064EB26
:1012500070E084E493E00E9461262AE530E046E4F1
:1012600050E06AE570E084E493E00E94612626E99C
:1012700030E046E450E066E970E084E493E00E94E8
:1012800061262EE630E04EE650E06AE570E084E448
:1012900093E00E94612626E930E04EE650E062E8E5
:1012A00070E084E493E00E94612690EEE92EFF2432
:1012B000FA9400EA10E02AE530E040EA50E060E00D
:1012C00070E084E493E00E94612620EF30E040EA81
:1012D00050E066E970E084E493E00E94612602ED4C
:1012E00010E02AE530E042E850E06AE570E084E48E
:1012F00093E00E94612626E930E042E850E066E98A
:1013000070E084E493E00E94612602E810E026E9A0
:1013100030E042E850E06AE570E084E493E00E9447
:1013200061262EE630E04EE650E06EE670E084E4A2
:1013300093E00E94612622E830E04EE650E062E849
:1013400070E084E493E00E9461260AEB10E026E955
:1013500030E04AEB50E06AE570E084E493E00E94FC
:1013600061261F910F91FF90EF9008950F931F93A7
:10137000CF93DF9386E30E94431F8C0187E30E9493
:10138000431FEC0182E00E94262040912E035091E1
:101390002F0320912C0330912D03CE01885C9140C6
:1013A0008336910550F4073362E0160734F4043DA8
:1013B00081E018074CF00C94481D0833A2E01A078E
:1013C0001CF082E090E006C0033DE1E01E073CF423
:1013D0008EEF9FEF909329038093280304C010920F
:1013E000290310922803CC3262E0D6071CF082E079
:1013F00090E006C0C73C81E0D8073CF48EEF9FEF39
:1014000090932B0380932A0304C010922B03109215
:101410002A03CA01CD9787379105B0F4203F3105E3
:1014200099F430932D0320932C03109229031092EA
:101430002803942F852F453B510514F094EB80E051
:1014400090932E0380932F0380912E0390912F036E
:10145000FC01759760912C0370912D03B79788F468
:101460006E30A1E07A0769F41092290310922803E4
:101470008D33910514F08CE390E090932F038093CB
:101480002E0380912E0390912F03FC01E55BF1095F
:10149000B79790F46E30E1E07E0771F41092290363
:1014A000109228038F30A1E09A0714F08EE091E0AB
:1014B00090932F0380932E0380912E0390912F03FE
:1014C000FC01EB55F109739788F46E30E1E07E077B
:1014D00069F410922903109228038F36910514F0B5
:1014E0008EE690E090932F0380932E0380912E033D
:1014F00090912F03FC01E358F109739788F46E3043
:10150000A1E07A0769F41092290310922803873921
:10151000910514F086E990E090932F0380932E03B9
:1015200080912E0390912F03FC017597E731F140D4
:1015300090F46C32E1E07E0771F41092290310926E
:1015400028038D32A1E09A0714F08CE291E0909389
:101550002F0380932E03603F710561F580912E0368
:1015600090912F03FC017597739770F410922903E3
:101570001092280370932D0360932C0389329105F8
:10158000ACF088E290E012C0FC01E95CF109B79789
:1015900088F4109229031092280370932D0360930E
:1015A0002C03813F910514F080EF90E090932F037E
:1015B00080932E03E0912C03F0912D0380912E0354
:1015C00090912F03E23DF10509F5BC0165517109C8
:1015D0006935710550F410922903109228038F3653
:1015E000910534F18EE690E023C0BC016358710987
:1015F0006935710508F04EC0109229031092280336
:101600008D3D9105ACF08CED90E012C0EA3BF10508
:10161000A1F4BC016B5571096B337105D8F51092BB
:101620002903109228038739910514F086E990E088
:1016300090932F0380932E032DC0E03AF10551F5CE
:10164000BC01615071096935710570F4109229036C
:10165000109228038B35910514F08AE590E0909361
:101660002F0380932E0375C0BC016759710969353A
:10167000710508F06EC01092290310922803BC0176
:10168000813F910514F060EF70E070932F03609339
:101690002E035FC080912E0390912F03E238F10555
:1016A000A9F4BC016B5571096B33710508F05FC07B
:1016B00010922903109228038739910514F086E9C6
:1016C00090E090932F0380932E0351C0EE36F105E6
:1016D00009F03FC0BC016B5571096331710508F415
:1016E00053C0BC01635871096331710558F41092FD
:1016F000290310922803873991050CF45EC086E90E
:1017000090E05BC0BC01655171096732710558F406
:1017100010922903109228038D3391050CF44DC0CB
:101720008CE390E04AC0BC01655B710967327105CA
:1017300008F047C01092290310922803BC018D3D88
:10174000910514F06CED70E070932F0360932E03FD
:1017500038C0E634F10559F480912E0390912F039F
:10176000BC0165517109673C710558F51DC0EE312A
:10177000F10539F580912E0390912F03BC0165513D
:1017800071096935710550F41092290310922803EC
:101790008F36910594F08EE690E00FC0BC0163583F
:1017A00071096935710568F41092290310922803B4
:1017B0008D3D910514F08CED90E090932F03809374
:1017C0002E0360912E0370912F03CF014F978F3E10
:1017D0009105F0F46C33710551F410922B031092C3
:1017E0002A03CF018F30E1E09E0774F00BC0643B09
:1017F000710571F410922B0310922A03CF01EF3080
:10180000F14014F08EE091E090932D0380932C032F
:1018100080912C0390912D03FC01EF50F1407D97B6
:10182000E8F46431710549F410922B0310922A03F5
:101830008D32E1E09E0774F00BC06C3D710571F4D0
:1018400010922B0310922A038D32A1E09A0714F014
:101850008CE291E090932D0380932C0380912C03D4
:1018600090912D03FC01E15FF1097D97E8F46A3561
:10187000710549F410922B0310922A038F30E1E096
:101880009E0774F00BC06639710571F410922B033A
:1018900010922A038F30A1E09A0714F08EE091E0B5
:1018A00090932D0380932C0380912C0390912D0312
:1018B000FC01EF50F1407D97E8F46E36710549F474
:1018C00010922B0310922A038D32E1E09E0774F0F0
:1018D0000BC06238710571F410922B0310922A0329
:1018E0008D32A1E09A0714F08CE291E090932D03E1
:1018F00080932C0380912C0390912D03FC01E15FD8
:10190000F1097D97E8F46832710549F410922B03D0
:1019100010922A038F30E1E09E0774F00BC0683C00
:10192000710571F410922B0310922A038F30A1E0FD
:101930009A0714F08EE091E090932D0380932C038E
:1019400080912C0390912D03FC01E35DF1097D97BB
:10195000C8F46431710549F06C3D710531F06E36A3
:10196000710519F06238710569F410922B03109219
:101970002A03813F910514F080EF90E090932D03AE
:1019800080932C0380912C0390912D03FC01EB5B41
:10199000F1097797B8F46A35710519F06639710560
:1019A00089F410922B0310922A0370932F036093F3
:1019B0002E03833D910514F082ED90E090932D036A
:1019C00080932C0380912C0390912D03BC01615ACC
:1019D00071096931710500F560912E0370912F0333
:1019E0006A35710529F410922B0310922A030BC05B
:1019F0006639710589F410922B0310922A037093B3
:101A00002F0360932E038B3B910514F08AEB90E03B
:101A100090932D0380932C0380912C0390912D03A0
:101A2000BC01635871096D31710500F560912E0399
:101A300070912F036A35710529F410922B031092CF
:101A40002A030BC06639710589F410922B0310929A
:101A50002A0370932F0360932E03813A910514F0AB
:101A600080EA90E090932D0380932C0380912C03C7
:101A700090912D03BC016F5671096331710500F51A
:101A800060912E0370912F036E36710529F4109228
:101A90002B0310922A030BC06238710589F410924F
:101AA0002B0310922A0370932F0360932E03833825
:101AB000910514F082E890E090932D0380932C031D
:101AC00080912C0390912D03BC016F5171096F34EB
:101AD000710530F560912E0370912F03643171050B
:101AE00029F410922B0310922A0311C06C33710554
:101AF00031F0643B710519F06C3D710589F4109269
:101B00002B0310922A0370932F0360932E038F36BA
:101B1000910514F08EE690E090932D0380932C03B2
:101B200080912C0390912D03BC016F517109673294
:101B3000710500F560912E0370912F036E367105CB
:101B400029F410922B0310922A030BC062387105FE
:101B500089F410922B0310922A0370932F03609341
:101B60002E038734910514F086E490E090932D03C2
:101B700080932C0380912C0390912D03BC0167541A
:101B800071096732710500F560912E0370912F0382
:101B90006A35710529F410922B0310922A030BC0A9
:101BA0006639710589F410922B0310922A03709301
:101BB0002F0360932E038F36910514F08EE690E08C
:101BC00090932D0380932C0360912E0370912F032B
:101BD00080912C0390912D036C33710549F5803F62
:101BE000910531F5CC32E2E0DE0754F062E070E0BE
:101BF00070932B0360932A031092290310922803F9
:101C0000B801635D71406536710550F06CE370E0BA
:101C100070932F0360932E0310922B0310922A03CC
:101C2000C73C61E0D60724F410922B0310922A03DC
:101C300060912E0370912F03643B710549F5803F3D
:101C4000910531F5CC32A2E0DA0724F010922B0393
:101C500010922A03B801635D71406536710550F03A
:101C600064EB70E070932F0360932E0310922B03AC
:101C700010922A03C73CE1E0DE0754F46EEF7FEFD9
:101C800070932B0360932A03109229031092280368
:101C900060912E0370912F036C337105E1F48E3047
:101CA000914009F008C1CC3282E0D80724F01092AC
:101CB0002B0310922A030833A2E01A0724F0109293
:101CC000290310922803C73CE1E0DE070CF0F3C0C3
:101CD0008EE091E0B2C0643B710531F58E309140E9
:101CE00009F0BDC0CC32E2E0DE0754F082E090E0C3
:101CF00090932B0380932A031092290310922803B8
:101D0000083382E0180724F0109229031092280368
:101D1000C73CA1E0DA070CF0A2C08EE091E09093FE
:101D20002D0380932C035BC06431710509F05CC006
:101D30008E30914079F5CC3282E0D80754F082E0C1
:101D400090E090932B0380932A0310922903109222
:101D500028030833A2E01A073CF082E090E0909359
:101D600029038093280308C0033DE1E01E0724F403
:101D70001092290310922803C73C81E0D80754F43D
:101D80008EE091E090932D0380932C0310922B030F
:101D900010922A0380912C0390912D038C32914054
:101DA00009F05DC0CC32E2E0DE0754F082E090E062
:101DB00090932B0380932A031092290310922803F7
:101DC000083382E0180714F40C94D61A10922903F1
:101DD00010922803C73CE1E0DE070CF040C01092EF
:101DE0002B0310922A033BC06C3D7105A9F58E3080
:101DF000914011F40C94E51C80912C0390912D03DB
:101E00008C32914009F057C0CC3262E0D60724F002
:101E100010922B0310922A03083382E0180714F45F
:101E20000C94181D1092290310922803C73C61E0FE
:101E3000D6070CF040C08CE291E090932D03809384
:101E40002C038EEF9FEF90932B0380932A03109225
:101E50002903109228032FC06A35710539F16639BC
:101E6000710549F580912C0390912D03803F9105D8
:101E700011F5CC3282E0D8073CF010922903109281
:101E8000280382E090E00CC0C73CA1E0DA0714F020
:101E90000C94E41A10922903109228038EEF9FEFFE
:101EA00090932B0380932A030C94E41A803F9105AE
:101EB00011F40C94261D80912E0390912F036091B4
:101EC0002C0370912D038A359105C9F56E30E1E040
:101ED0007E0709F094C0CC3282E0D8075CF0109203
:101EE00029031092280382E090E090932B038093C3
:101EF0002A030CC0C73CA1E0DA0744F4109229037E
:101F00001092280310922B0310922A030833E2E068
:101F10001E072CF010922903109228030BC0033DDA
:101F200081E018070CF06BC08EEF9FEF90932903B0
:101F30008093280310922B0310922A0360C08639E5
:101F4000910549F56E30A1E07A0709F058C0C73C09
:101F5000E1E0DE075CF410922903109228038EEF73
:101F60009FEF90932B0380932A030CC0CC3282E026
:101F7000D80744F0109229031092280310922B03E3
:101F800010922A030833A2E01A0724F6033DE1E089
:101F90001E0754F234C08E36910589F56E3081E00B
:101FA000780769F5C73CA1E0DA073CF48EEF9FEFB4
:101FB00090932B0380932A0308C0CC32E2E0DE0723
:101FC00044F010922B0310922A03109229031092CE
:101FD00028030833E2E01E0714F40C94FC1A8EE682
:101FE00090E090932F0380932E0310922B03109276
:101FF0002A0382E090E09093290380932803809144
:102000002E0390912F038238910589F56E30A1E05F
:102010007A0769F5CC32E2E0DE073CF082E090E03E
:1020200090932B0380932A0308C0C73C81E0D80714
:1020300044F410922B0310922A0310922903109259
:102040002803083382E0180714F40C94081B82E874
:1020500090E090932F0380932E0310922B03109205
:102060002A0382E090E090932903809328038091D3
:102070002E0390912F038E36910579F56C32E1E0B5
:102080007E0759F5CC3282E0D8071CF082E090E060
:1020900006C0C73CA1E0DA0754F48EEF9FEF90939F
:1020A0002B0380932A031092290310922803033DE7
:1020B000A1E01A0714F00C94141B8EE690E09093A4
:1020C0002F0380932E0310922B0310922A038EEF7E
:1020D0009FEF909329038093280380912E03909182
:1020E0002F038238910579F56C3281E0780759F534
:1020F000CC32A2E0DA071CF082E090E006C0C73CD8
:10210000E1E0DE0754F48EEF9FEF90932B03809372
:102110002A031092290310922803033DE1E01E07D1
:1021200014F00C94201B82E890E090932F0380938E
:102130002E0310922B0310922A038EEF9FEF9093A1
:1021400029038093280380912E0390912F03889771
:1021500079F56E30A1E07A0759F5CC32E2E0DE077E
:102160001CF082E090E006C0C73C81E0D80754F440
:102170008EEF9FEF90932B0380932A0310922903F5
:1021800010922803033D81E0180714F00C942C1BD7
:1021900088E290E090932F0380932E0310922B03FC
:1021A00010922A038EEF9FEF9093290380932803C8
:1021B00080912E0390912F03883C910579F56E3024
:1021C000E1E07E0759F5CC3282E0D8071CF082E0CE
:1021D00090E006C0C73CA1E0DA0754F48EEF9FEF11
:1021E00090932B0380932A031092290310922803C3
:1021F000033DA1E01A0714F00C94381B88EC90E022
:1022000090932F0380932E0310922B0310922A0396
:102210008EEF9FEF909329038093280380912E03E4
:1022200090912F038897B9F5603F7105A1F5CC32E5
:1022300082E0D8072CF010922B0310922A030AC0D8
:10224000C73CA1E0DA0754F48EEF9FEF90932B0385
:1022500080932A031092290310922803033DE1E0A2
:102260001E072CF4109229031092280314C008337F
:1022700082E0180784F088E290E090932F03809327
:102280002E0310922B0310922A0382E090E0909389
:1022900029038093280380912E0390912F03883C7B
:1022A0009105B9F5603F7105A1F5CC32A2E0DA07DE
:1022B0003CF082E090E090932B0380932A0308C0C7
:1022C000C73CE1E0DE0744F410922B0310922A038E
:1022D0001092290310922803033D81E018072CF483
:1022E000109229031092280314C00833A2E01A07A1
:1022F00084F088EC90E090932F0380932E0310924B
:102300002B0310922A0382E090E09093290380939C
:10231000280380912E0390912F03449781F5603F0D
:10232000710569F5CC32E2E0DE073CF082E090E036
:1023300090932B0380932A0308C0C73C81E0D80701
:1023400044F410922B0310922A0310922903109246
:102350002803033DE1E01E0714F00C94441B84E1C4
:1023600090E090932F0380932E038EEF9FEF909336
:1023700029038093280310922B0310922A03809143
:102380002E0390912F038C3D910581F5603F7105DF
:1023900069F5C73CE1E0DE073CF48EEF9FEF9093D8
:1023A0002B0380932A0308C0CC3282E0D80744F084
:1023B00010922B0310922A031092290310922803E3
:1023C000033D81E0180714F00C94501B8CED90E055
:1023D00090932F0380932E038EEF9FEF909329030A
:1023E0008093280310922B0310922A0380912E03CE
:1023F00090912F03449781F5623D710569F5CC32C8
:10240000E2E0DE073CF082E090E090932B038093C3
:102410002A0308C0C73C81E0D80744F410922B037C
:1024200010922A0310922903109228030833A2E085
:102430001A0714F40C945C1B84E190E090932F0332
:1024400080932E0382E090E09093290380932803E9
:1024500010922B0310922A0380912E0390912F0348
:102460008C3D910581F5623D710569F5C73CE1E060
:10247000DE073CF48EEF9FEF90932B0380932A03AB
:1024800008C0CC3282E0D80744F010922B0310929F
:102490002A0310922903109228030833E2E01E0752
:1024A00014F40C94681B8CED90E090932F038093B0
:1024B0002E0382E090E090932903809328031092EA
:1024C0002B0310922A0380912E0390912F038E36B6
:1024D000910571F5603F710559F5C73CE1E0DE07F4
:1024E0001CF48EEF9FEF06C0CC3282E0D80754F088
:1024F00082E090E090932B0380932A0310922903AB
:1025000010922803033D81E0180714F00C94741B0B
:102510008EE690E090932F0380932E038EEF9FEF33
:10252000909329038093280310922B0310922A037F
:1025300080912E0390912F038238910571F5603FB1
:10254000710559F5C73CE1E0DE071CF48EEF9FEF03
:1025500006C0CC3282E0D80754F082E090E090933D
:102560002B0380932A031092290310922803033D22
:10257000A1E01A0714F00C94801B82E890E090937D
:102580002F0380932E038EEF9FEF90932903809368
:10259000280310922B0310922A0380912E0390910E
:1025A0002F038E36910581F5623D710569F5C73CB3
:1025B000E1E0DE073CF48EEF9FEF90932B038093D6
:1025C0002A0308C0CC3282E0D80744F010922B03D3
:1025D00010922A0310922903109228030833E2E094
:1025E0001E0714F40C948C1B8EE690E090932F033E
:1025F00080932E0382E090E0909329038093280338
:1026000010922B0310922A0380912E0390912F0396
:102610008238910581F5623D710569F5CC32E2E0C1
:10262000DE073CF082E090E090932B0380932A0336
:1026300008C0C73C81E0D80744F410922B031092E5
:102640002A031092290310922803083382E0180706
:1026500014F40C94981B82E890E090932F038093DD
:102660002E0382E090E09093290380932803109238
:102670002B0310922A0380912E0390912F03CC9765
:1026800009F040C0615D710963307105D8F5CC3245
:10269000E2E0DE074CF082ED90E090932D03809312
:1026A0002C0382E090E00CC0C73C61E0D60784F4C4
:1026B00082ED90E090932D0380932C038EEF9FEF9B
:1026C00090932B0380932A031092290310922803DE
:1026D0000833A2E01A0714F00C94A41B033D81E018
:1026E000180784F48EEF9FEF9093290380932803BB
:1026F00010922B0310922A038CE390E090932F0307
:1027000080932E0360912E0370912F0380912C03F0
:1027100090912D03643B710591F5823D910579F50A
:10272000CC32A2E0DA071CF062E070E006C0C73CE1
:10273000E1E0DE0754F46EEF7FEF70932B036093BC
:102740002A0310922903109228030833E2E01E079F
:1027500014F00C94A81B033D61E0160784F46EEF9F
:102760007FEF709329036093280310922B0310923C
:102770002A0364EB70E070932F0360932E03609143
:102780002E0370912F036A357105C9F5823D9105BD
:10279000B1F5CC32A2E0DA071CF062E070E006C0CE
:1027A000C73CE1E0DE0754F46EEF7FEF70932B033C
:1027B00060932A031092290310922803083362E0E1
:1027C00016074CF0109229031092280310922B0345
:1027D00010922A0314C0033DA1E01A0784F46AE5AD
:1027E00070E070932F0360932E0310922B031092CE
:1027F0002A036EEF7FEF70932903609328036091A3
:102800002E0370912F0366397105A9F5823D91055C
:1028100091F5CC32E2E0DE071CF062E070E006C029
:10282000C73C61E0D60754F46EEF7FEF70932B0343
:1028300060932A0310922903109228030833A2E020
:102840001A072CF010922B0310922A0314C0033D98
:10285000E1E01E0784F466E970E070932F03609353
:102860002E0310922B0310922A036EEF7FEF7093CA
:1028700029036093280360912E0370912F036A351A
:10288000710551F58A3B910539F5CC3262E0D607E6
:102890005CF062E070E070932B0360932A03109267
:1028A00029031092280308C0C73CA1E0DA0724F4EA
:1028B00010922B0310922A03B801635D71406536B4
:1028C000710550F06AE570E070932F0360932E035A
:1028D00010922B0310922A0360912E0370912F0304
:1028E0006639710551F58A3B910539F5C73CE1E040
:1028F000DE075CF46EEF7FEF70932B0360932A0387
:10290000109229031092280308C0CC3262E0D60747
:1029100024F010922B0310922A03B801635D7140DA
:102920006536710550F066E970E070932F0360938F
:102930002E0310922B0310922A0360912E037091A4
:102940002F036A35710551F5803A910539F5C73C79
:10295000A1E0DA075CF46EEF7FEF70932B036093D6
:102960002A03109229031092280308C0CC32E2E017
:10297000DE0724F010922B0310922A03B801635D46
:1029800071406536710550F06AE570E070932F0371
:1029900060932E0310922B0310922A0360912E0352
:1029A00070912F036639710551F5803A910539F51B
:1029B000CC3262E0D6075CF062E070E070932B03EB
:1029C00060932A03109229031092280308C0C73C81
:1029D000A1E0DA0724F410922B0310922A03B80125
:1029E000635D71406536710550F066E970E0709383
:1029F0002F0360932E0310922B0310922A036091F1
:102A00002E0370912F036C33710569F5803A91059F
:102A100051F5CC32E2E0DE071CF062E070E006C067
:102A2000C73C61E0D60754F46EEF7FEF70932B0341
:102A300060932A031092290310922803083362E05E
:102A400016070CF488C66CE370E070932F03609354
:102A50002E0362E070E070932903609328031092C4
:102A60002B0310922A0360912E0370912F03643B75
:102A7000710569F5803A910551F5CC32E2E0DE0747
:102A80001CF062E070E006C0C73C61E0D60754F479
:102A90006EEF7FEF70932B0360932A03109229034C
:102AA000109228030833A2E01A070CF46AC664EBFC
:102AB00070E070932F0360932E0362E070E07093D8
:102AC00029036093280310922B0310922A0360912C
:102AD0002E0370912F03672BC9F5803A9105B1F54C
:102AE000CC32E2E0DE073CF062E070E070932B0352
:102AF00060932A030EC0C73C61E0D60774F41092BD
:102B00002B0310922A0360EF70E070932F03609301
:102B10002E0310922903109228030833A2E01A070B
:102B20004CF0109229031092280310922B0310925C
:102B30002A030CC0033DE1E01E0744F410922B036E
:102B400010922A03109229031092280360912E03F9
:102B500070912F03603F7105B9F5803A9105A1F599
:102B6000CC3262E0D6074CF010922F0310922E0365
:102B700010922B0310922A030AC0C73CA1E0DA0787
:102B800054F46EEF7FEF70932B0360932A0310923F
:102B90002903109228030833E2E01E074CF010923C
:102BA00029031092280310922B0310922A030CC0C1
:102BB000033D61E0160744F410922B0310922A03A0
:102BC000109229031092280360912E0370912F0315
:102BD0006A35710579F58238910561F5CC32A2E04C
:102BE000DA0754F062E070E070932B0360932A03DD
:102BF00010922903109228030833E2E01E0754F0D4
:102C00006AE570E070932F0360932E0310922B03FC
:102C100010922A03C73CE1E0DE0724F410922B0354
:102C200010922A03033D61E0160724F41092290351
:102C30001092280360912E0370912F03663971055D
:102C400079F58238910561F5C73CA1E0DA0754F4C3
:102C50006EEF7FEF70932B0360932A03109229038A
:102C600010922803083362E0160754F066E970E01A
:102C700070932F0360932E0310922B0310922A035C
:102C8000CC32E2E0DE0724F010922B0310922A03EC
:102C9000033D61E0160724F41092290310922803E3
:102CA00060912E0370912F036E36710511F58238F5
:102CB0009105F9F4BE01675C71406536710520F03D
:102CC0001092290310922803033DA1E01A070CF08B
:102CD0006EC56EE670E070932F0360932E036EEF67
:102CE0007FEF709329036093280310922B031092B7
:102CF0002A0360912E0370912F036238710511F53C
:102D000082389105F9F4BE01675C71406536710542
:102D100020F01092290310922803033DE1E01E07E2
:102D20000CF04FC562E870E070932F0360932E03A0
:102D30006EEF7FEF709329036093280310922B03AB
:102D400010922A0360912E0370912F036E36710545
:102D500049F58E36910531F5C73C61E0D6072CF474
:102D6000109229031092280308C0CC32A2E0DA079F
:102D700024F010922B0310922A03083362E0160706
:102D80000CF429C56EE670E070932F0360932E0358
:102D900062E070E0709329036093280310922B0384
:102DA00010922A0360912E0370912F0362387105EF
:102DB00049F58E36910531F5CC3262E0D6072CF01C
:102DC000109229031092280308C0C73CA1E0DA073B
:102DD00024F410922B0310922A030833A2E01A075E
:102DE0000CF403C562E870E070932F0360932E0328
:102DF00062E070E0709329036093280310922B0324
:102E000010922A0360912E0370912F036A35710589
:102E100049F58E36910531F5CC3262E0D6072CF0BB
:102E2000109229031092280308C0C73CA1E0DA07DA
:102E300024F410922B0310922A03033DE1E01E07B5
:102E40000CF0DDC46AE570E070932F0360932E03ED
:102E50006EEF7FEF709329036093280310922B038A
:102E600010922A0360912E0370912F036639710529
:102E700049F58E36910531F5C73C61E0D6072CF453
:102E8000109229031092280308C0CC32A2E0DA077E
:102E900024F010922B0310922A03033D61E01607E1
:102EA0000CF0B7C466E970E070932F0360932E03B3
:102EB0006EEF7FEF709329036093280310922B032A
:102EC00010922A0360912E0370912F0364317105D3
:102ED00049F58E36910531F5CC3262E0D6072CF0FB
:102EE000109229031092280308C0C73CA1E0DA071A
:102EF00024F410922B0310922A03033DA1E01A0739
:102F00000CF091C464E170E070932F0360932E0382
:102F10006EEF7FEF709329036093280310922B03C9
:102F200010922A0360912E0370912F036C3D71055E
:102F300049F58E36910531F5C73C61E0D6072CF492
:102F4000109229031092280308C0CC32A2E0DA07BD
:102F500024F010922B0310922A03033DE1E01E0798
:102F60000CF06BC46CED70E070932F0360932E0334
:102F70006EEF7FEF709329036093280310922B0369
:102F800010922A0360912E0370912F036C33710508
:102F900051F58E36910539F5C73C61E0D6075CF4F2
:102FA0006EEF7FEF70932B0360932A031092290337
:102FB0001092280308C0CC32A2E0DA0724F0109265
:102FC0002B0310922A03B801635D714065367105C9
:102FD00050F06CE370E070932F0360932E03109217
:102FE0002B0310922A0360912E0370912F03643BF0
:102FF000710551F58E36910539F5CC32E2E0DE07E8
:103000005CF062E070E070932B0360932A031092EF
:1030100029031092280308C0C73C61E0D60724F4B6
:1030200010922B0310922A03B801635D714065363C
:10303000710550F064EB70E070932F0360932E03E2
:1030400010922B0310922A0360912E0370912F038C
:103050006431710551F58634910539F5CC32A2E021
:10306000DA075CF062E070E070932B0360932A0350
:10307000109229031092280308C0C73CE1E0DE0744
:1030800024F410922B0310922A03B801635D71405F
:103090006536710550F064E170E070932F03609322
:1030A0002E0310922B0310922A0360912E0370912D
:1030B0002F036C3D710551F58634910539F5C73CF8
:1030C00061E0D6075CF46EEF7FEF70932B036093A3
:1030D0002A03109229031092280308C0CC32A2E0E0
:1030E000DA0724F010922B0310922A03B801635DD3
:1030F00071406536710550F06CED70E070932F03F0
:1031000060932E0310922B0310922A0360912E03DA
:1031100070912F036C33710521F06A357105D1F47C
:103120001DC086349105B1F40833E2E01E071CF09F
:10313000E2E0F0E006C0033DA1E01A0754F5EEEF2F
:10314000FFEFF0932903E093280310922B031092D2
:103150002A031FC06E36710589F534C08634910587
:1031600069F5083382E018075CF082E090E0909304
:1031700029038093280310922B0310922A033DC049
:10318000033DA1E01A07CCF5109229031092280301
:1031900034C0CC32A2E0DA070CF459C386E490E0E4
:1031A00090932D0380932C0382E090E090932B0367
:1031B00080932A0310922903109228036238710524
:1031C00089F534C08634910569F5033D81E018071F
:1031D0005CF48EEF9FEF9093290380932803109265
:1031E0002B0310922A0341C00833A2E01A07ECF126
:1031F000109229031092280338C0CC32E2E0DE0797
:103200000CF433C386E490E090932D0380932C0359
:1032100082E090E090932B0380932A03109229037D
:103220001092280366397105A9F538C080912C03E6
:1032300090912D038634910569F5033D81E01807CF
:103240005CF48EEF9FEF90932903809328031092F4
:103250002B0310922A0342C00833A2E01A07F4F1AC
:10326000109229031092280339C0CC3282E0D8078B
:103270000CF409C386E490E090932D0380932C0313
:1032800082E090E090932B0380932A03109229030D
:1032900010922803643B7105B1F53AC080912C036C
:1032A00090912D038634910571F5083382E018075B
:1032B0005CF082E090E090932903809328031092C1
:1032C0002B0310922A03FBC2033DA1E01A070CF066
:1032D000F6C21092290310922803F1C2CC32A2E068
:1032E000DA070CF4DEC286E490E090932D0380931D
:1032F0002C0382E090E090932B0380932A0310929A
:103300002903109228036431710509F041C01DC0E2
:1033100080912C0390912D0386349105C9F50833D3
:1033200062E016071CF082E090E006C0033D81E0F9
:10333000180724F58EEF9FEF9093290380932803BD
:1033400010922B0310922A0319C080912C039091A4
:103350002D034E97E9F4CC32E2E0DE072CF0109218
:10336000290310922803D4C2C73C61E0D6070CF0B1
:10337000CFC210922B0310922A03CAC2CC3262E051
:10338000D6070CF0A5C2C73CA1E0DA070CF4A9C22D
:1033900080912E0390912F0360912C0370912D0347
:1033A0008C33910521F0843B910529F528C06E31BD
:1033B000710509F50833A2E01A075CF0E2E0F0E0DD
:1033C000F0932903E093280310922B0310922A0311
:1033D00008C0033DE1E01E0724F410922903109277
:1033E0002803CC32A2E0DA070CF0A7C2C73CA1E068
:1033F000DA070CF4ABC28C3D9105E1F51BC06E31D0
:103400007105C1F50833E2E01E075CF082E090E050
:10341000909329038093280310922B0310922A0380
:103420001FC0033D61E01607DCF4109229031092DF
:10343000280316C06E317105E9F4C73CA1E0DA0734
:103440002CF4109229031092280397C2CC32E2E0A8
:10345000DE070CF492C210922B0310922A038DC245
:10346000CC32E2E0DE070CF068C2C73C81E0D8074E
:103470000CF46CC280912E0390912F03E0912C03E9
:10348000F0912D038E36910549F5EE31F10531F5B8
:10349000C73C81E0D8072CF410922903109228032E
:1034A00008C0CC32A2E0DA0724F010922B0310926D
:1034B0002A03083382E018070CF474C28EE690E009
:1034C00090932F0380932E0382E090E09093290342
:1034D0008093280310922B0310922A0380912E03CD
:1034E00090912F038238910541F5EE31F10529F5D0
:1034F000CC3282E0D8072CF01092290310922803D6
:1035000007C0C73CD14024F410922B0310922A0329
:103510000833A2E01A070CF44FC282E890E09093BF
:103520002F0380932E0382E090E0909329038093F1
:10353000280310922B0310922A0360912E0370919E
:103540002F0380912A0390912B03860F971F90934E
:103550002F0380932E0360912803709129036E0F2F
:103560007F1F70932D0360932C0310922B031092F6
:103570002A0310922903109228038417950719F43F
:103580006217730711F00E943204809100028111CA
:103590000E94CD050E94AE076AE070E080E090E0F6
:1035A000DF91CF911F910F910C94BB1E033DA1E0C1
:1035B0001A0714F00C94EA0E8EEF9FEF90932903F4
:1035C000809328030C94EA0E0833A2E01A0714F43F
:1035D0000C945B0F86E990E090932F0380932E0369
:1035E00010922B0310922A0382E090E0909329031B
:1035F000809328030C945B0F033D81E0180714F0BF
:103600000C94FF0F10922903109228030C94FF0FC3
:10361000033DA1E01A0714F00C943710109229030F
:10362000109228030C9437100833E2E01E0714F4BC
:103630000C946D1010922903109228030C946D10B5
:10364000083382E0180714F40C94A3101092290395
:10365000109228030C94A3100833A2E01A0714F464
:103660000C94D81010922903109228030C94D810AF
:103670000833E2E01E0714F40C940E111092290393
:10368000109228030C940E110833A2E01A0714F4C8
:103690000C94BF1110922903109228030C94BF11AF
:1036A0000833A2E01A0714F40C94F61110922903BF
:1036B000109228030C94F611033DA1E01A0714F0B0
:1036C0000C942C1210922903109228030C942C12A3
:1036D000033DA1E01A0714F00C9463121092290321
:1036E000109228030C9463120833A2E01A0714F412
:1036F0000C94981210922903109228030C9498129B
:103700000833A2E01A0714F40C94CD121092290386
:10371000109228030C94CD12033DA1E01A0714F077
:103720000C94041310922903109228030C94041390
:10373000033DA1E01A0714F00C943B1310922903E7
:10374000109228030C943B1382E090E00C947413C5
:1037500062E070E006C8033DA1E01A070CF083C9DF
:103760006CE370E070932F0360932E0310922B0391
:1037700010922A036EEF7FEF709329036093280362
:1037800072C9033DA1E01A070CF0A1C964EB70E017
:1037900070932F0360932E0310922B0310922A0331
:1037A0006EEF7FEF709329036093280390C908336D
:1037B000A2E01A070CF49DCA109229031092280364
:1037C00098CA0833E2E01E070CF4BCCA1092290321
:1037D00010922803B7CA033DE1E01E070CF0E2CACD
:1037E0001092290310922803DDCA033DE1E01E0771
:1037F0000CF008CB109229031092280303CB083356
:10380000E2E01E070CF42ECB10922903109228033D
:1038100029CB0833E2E01E070CF454CB10922903A5
:10382000109228034FCB0833E2E01E070CF47ACB4A
:10383000109229031092280375CB0833E2E01E078B
:103840000CF4A0CB10922903109228039BCBC73C09
:10385000E1E0DE070CF07ECC86E490E090932D034F
:1038600080932C038EEF9FEFA1CCC73CE1E0DE07F5
:103870000CF0A4CC86E490E090932D0380932C036D
:103880008EEF9FEFC7CCC73CE1E0DE070CF0CACC5F
:1038900086E490E090932D0380932C038EEF9FEFAE
:1038A000F1CCC73CE1E0DE070CF0F4CC86E490E01C
:1038B00090932D0380932C038EEF9FEF1CCDCC3281
:1038C000E2E0DE072CF4C73CE1E0DE0754F01BCD5C
:1038D00086E490E090932D0380932C0382E090E0A7
:1038E00008C086E490E090932D0380932C038EEF24
:1038F0009FEF90932B0380932A0305C0033D81E043
:1039000018070CF045CD109229031092280340CDE2
:10391000083382E0180794F384E190E090932F033A
:1039200080932E0382E090E09093290380932803F4
:1039300010922B0310922A032BCD8EE190E09093EE
:103940002D0380932C0382E090E008C08EE190E08C
:1039500090932D0380932C038EEF9FEF90932B0376
:1039600080932A0305C0033D61E016070CF082CD69
:1039700010922903109228037DCD083362E01607C8
:1039800094F38CED90E090932F0380932E0382E0CC
:1039900090E0909329038093280310922B031092B8
:1039A0002A0368CD033D61E016070CF097CD109215
:1039B00029031092280392CD033D11400CF0BDCD98
:1039C0001092290310922803B8CDCC32E2E0DE0732
:1039D00024F010922B0310922A03083362E016079A
:1039E0003CF082E090E0909329038093280308C084
:1039F000033D81E0180724F4109229031092280354
:103A0000C73CA1E0DA0714F00C94FC0E8EE091E0C4
:103A100090932D0380932C038EEF9FEF90932B03B5
:103A200080932A0310922903109228030C94FC0E11
:103A3000033DA1E01A0714F00C94160F8EEF9FEFD0
:103A400090932903809328030C94160FCC32E2E064
:103A5000DE073CF0109229031092280382E090E0E8
:103A60000AC0C73C61E0D60754F4109229031092B3
:103A700028038EEF9FEF90932B0380932A03083344
:103A800082E0180714F40C945B0F8AE590E0A4CD53
:103A9000DF91CF911F910F9108950E94E11E40E8A0
:103AA00055E260E070E086EE93E00E94352386EEFA
:103AB00093E00E94062162E082E00E94BA1F40E08B
:103AC00050E0BA0184E493E00C94772DEF92FF92DA
:103AD0000F931F93CF93DF9360E070E084E493E053
:103AE0000E944326C8E7D0E0D0932F03C0932E0353
:103AF00080EF90E090932D0380932C0300EE1FEF56
:103B000027E030E040EF50E068E770E084E493E0C5
:103B10000E9441288FE1E82EF12C04E010E020EF14
:103B200030E046E351E060E070E084E493E00E941E
:103B30005F2C20EF30E04AE050E060E070E084E489
:103B400093E00E945F2C0EE110E023E030E04AE0B9
:103B500050E060E070E084E493E00E945F2C0E94FB
:103B6000AE0761E084E493E00E947A2B60E084E495
:103B700093E00E94802B80910002882309F464C0A6
:103B800020EA30E0309327032093260388EC90E06E
:103B90009093250380932403D0932303C09322039F
:103BA000909321038093200384E690E090931F0379
:103BB00080931E0346E450E050931D0340931C0382
:103BC00030931B0320931A039093190380931803D7
:103BD00000E018EF27E030E048EC50E060EA70E0E9
:103BE00084E493E00E9441284091200350912103F6
:103BF00060912203709123030FE118EF27E030E07A
:103C000084E493E00E94412840911C0350911D03DD
:103C100060911E0370911F030FEF17E027E030E063
:103C200084E493E00E9441284091180350911903C5
:103C300060911A0370911B0300E21DEF27E030E052
:103C400084E493E00E94412840E050E060E070E0AE
:103C500084E493E00E94742B61E084E493E00E948A
:103C60007A2B66E572E084E493E00E94A72065E386
:103C700072E084E493E0DF91CF911F910F91FF9068
:103C8000EF900C94A720109200020E944D1D0E94FC
:103C9000661D0E94B609FDCF1F920F920FB60F92BC
:103CA00011242F933F938F939F93AF93BF93809152
:103CB000780390917903A0917A03B0917B033091BE
:103CC000770323E0230F2D3720F40196A11DB11DAA
:103CD00005C026E8230F0296A11DB11D209377038E
:103CE0008093780390937903A0937A03B0937B0336
:103CF00080917C0390917D03A0917E03B0917F031E
:103D00000196A11DB11D80937C0390937D03A09328
:103D10007E03B0937F03BF91AF919F918F913F91AD
:103D20002F910F900FBE0F901F9018953FB7F894EA
:103D300080917C0390917D03A0917E03B0917F03DD
:103D400026B5A89B05C02F3F19F00196A11DB11DF6
:103D50003FBFBA2FA92F982F8827820F911DA11D31
:103D6000B11DBC01CD0142E0660F771F881F991F6E
:103D70004A95D1F70895CF92DF92EF92FF92CF93B9
:103D8000DF936B017C010E94961EEB01C114D104EC
:103D9000E104F10479F00E94961E6C1B7D0B683ED5
:103DA0007340A0F381E0C81AD108E108F108C851B6
:103DB000DC4FECCFDF91CF91FF90EF90DF90CF9071
:103DC0000895789484B5826084BD84B5816084BD93
:103DD00085B5826085BD85B5816085BDEEE6F0E084
:103DE000808181608083E1E8F0E0108280818260E0
:103DF0008083808181608083E0E8F0E08081816061
:103E00008083E1EBF0E0808184608083E0EBF0E090
:103E1000808181608083E1E9F0E08081826080833D
:103E2000808181608083E0E9F0E08081816080832F
:103E3000E1EAF0E08081826080838081816080831C
:103E4000E0EAF0E0808181608083E1E2F1E080815E
:103E500082608083808181608083E0E2F1E0808104
:103E600081608083EAE7F0E08081846080838081E4
:103E7000826080838081816080838081806880838C
:103E80001092C1000895863308F0865390917B000C
:103E9000282F2870977F922B90937B00877020911A
:103EA000010290E4299F90011124822B80937C00D1
:103EB00080917A00806480937A0080917A0086FDF8
:103EC000FCCF809178002091790090E0922B0895AA
:103ED00090E0FC013197E131F10508F04AC08827F4
:103EE000EE58FF4F8F4F0C946E32809180008F7789
:103EF00003C0809180008F7D80938000089584B5F9
:103F00008F7702C084B58F7D84BD08958091B00005
:103F10008F7703C08091B0008F7D8093B0000895AB
:103F2000809190008F7707C0809190008F7D03C0B3
:103F300080919000877F8093900008958091A000E9
:103F40008F7707C08091A0008F7D03C08091A00073
:103F5000877F8093A0000895809120018F7707C00C
:103F6000809120018F7D03C080912001877F809305
:103F700020010895CF93DF9390E0FC01E05EFD4FB8
:103F80002491FC01EA59FD4F8491882361F190E06E
:103F9000880F991FFC01E052FD4FC591D491FC019F
:103FA000EA53FD4FA591B491611109C09FB7F894F0
:103FB0008881209582238883EC912E230BC0623068
:103FC00061F49FB7F8943881822F8095832388838A
:103FD000EC912E2B2C939FBF06C08FB7F894E881ED
:103FE0002E2B28838FBFDF91CF9108951F93CF93FE
:103FF000DF93282F30E0F901E652FE4F8491F9015A
:10400000E05EFD4FD491F901EA59FD4FC491CC23F4
:10401000C9F0162F81110E94681FEC2FF0E0EE0FFF
:10402000FF1FEA53FD4FA591B4918FB7F89411117A
:1040300005C09C91ED2FE095E92302C0EC91ED2B9A
:10404000EC938FBFDF91CF911F910895CF93DF93B2
:10405000282F30E0F901E652FE4F8491F901E05E2D
:10406000FD4FD491F901EA59FD4FC491CC2391F051
:1040700081110E94681FEC2FF0E0EE0FFF1FE45546
:10408000FD4FA591B491EC91ED2381E090E021F4F6
:1040900080E002C080E090E0DF91CF910895CF9260
:1040A000DF92EF92FF920F931F93CF93DF936C01F8
:1040B000EB017B01E40EF51E00E010E0CE15DF05FC
:1040C00061F06991D601ED91FC910190F081E02DB4
:1040D000C6011995080F191FF1CFC801DF91CF91C3
:1040E0001F910F91FF90EF90DF90CF900895611591
:1040F000710579F0FB0101900020E9F73197AF01DC
:10410000461B570BDC01ED91FC910280F381E02D01
:10411000199480E090E00895DC01ED91FC9101900C
:10412000F081E02D19940F931F93CF93DF93EC014F
:104130006DE00E948C208C016AE0CE010E948C20F0
:10414000800F911FDF91CF911F910F9108950F93D1
:104150001F93CF93DF93EC010E9477208C01CE0157
:104160000E949320800F911FDF91CF911F910F919B
:1041700008950895FC0124853585F901E05CFF4F21
:1041800080819181329620813181821B930B8F73C4
:1041900099270895DC011C96ED91FC911D97DF0194
:1041A000A05CBF4F2D913C91119712968D919C91DF
:1041B00011972817390739F08D919C91E80FF91F55
:1041C000808190E008958FEF9FEF0895FC01A48512
:1041D000B585FD01E05CFF4F208131813296808101
:1041E00091812817390779F080819181A80FB91F33
:1041F0008C91208131812F5F3F4F2F733327318383
:10420000208390E008958FEF9FEF0895FC0181A136
:10421000882329F0A489B5898C9186FFFBCF11A250
:1042200008950F931F93CF93DF93FC01A685B78565
:104230008D01005C1F4FE8018881998101968F7381
:104240009927AD014E5B5F4FEA01288139818217C2
:104250009307D1F3E80128813981A20FB31F6C9332
:10426000A685B785A05CBF4F11969C938E93A689B7
:10427000B7892C9181E090E0078C02C0880F991FCC
:104280000A94E2F7822B8C9381E081A30488F5895C
:10429000E02D80818064808381E090E0DF91CF9188
:1042A0001F910F910895FB01E05CFF4F2081318148
:1042B0002F5F3F4F2F733327DB01AE5BBF4F4D9115
:1042C0005C912417350741F040815181DB01A40F37
:1042D000B51F8C933183208308951F920F920FB6E0
:1042E0000F9211240BB60F922F933F934F935F932E
:1042F0006F937F938F939F93AF93BF93EF93FF93AE
:104300008091C00082FD07C08091C60064EE75E018
:104310000E94532102C08091C600FF91EF91BF918E
:10432000AF919F918F917F916F915F914F913F914D
:104330002F910F900BBE0F900FBE0F901F901895EE
:104340001F920F920FB60F9211240BB60F922F935C
:104350003F934F935F936F937F938F939F93AF930D
:10436000BF93EF93FF938091C80082FD07C08091B7
:10437000CE006CE575E00E94532102C08091CE0012
:10438000FF91EF91BF91AF919F918F917F916F912D
:104390005F914F913F912F910F900BBE0F900FBEE9
:1043A0000F901F9018951F920F920FB60F92112425
:1043B0000BB60F922F933F934F935F936F937F931F
:1043C0008F939F93AF93BF93EF93FF938091D00010
:1043D00082FD07C08091D60064ED74E00E945321F5
:1043E00002C08091D600FF91EF91BF91AF919F9154
:1043F0008F917F916F915F914F913F912F910F908E
:104400000BBE0F900FBE0F901F9018951F920F922A
:104410000FB60F9211240BB60F922F933F934F9329
:104420005F936F937F938F939F93AF93BF93EF931C
:10443000FF938091300182FD07C0809136016CE4CA
:1044400074E00E94532102C080913601FF91EF91E8
:10445000BF91AF919F918F917F916F915F914F919C
:104460003F912F910F900BBE0F900FBE0F901F909A
:1044700018951F920F920FB60F9211240BB60F9240
:104480002F933F938F939F93EF93FF932091E0059A
:104490003091E1058091E2059091E30528173907F5
:1044A00031F48091C1008F7D8093C10014C0E091F0
:1044B000E205F091E305E056FA4F20818091E20594
:1044C0009091E30501968F7399279093E30580936C
:1044D000E2052093C600FF91EF919F918F913F914C
:1044E0002F910F900BBE0F900FBE0F901F9018953D
:1044F0001F920F920FB60F9211240BB60F922F93AB
:104500003F938F939F93EF93FF93209158053091A2
:10451000590580915A0590915B052817390731F4A8
:104520008091C9008F7D8093C90014C0E0915A0525
:10453000F0915B05E85EFA4F208180915A059091D9
:104540005B0501968F73992790935B0580935A05BD
:104550002093CE00FF91EF919F918F913F912F91EA
:104560000F900BBE0F900FBE0F901F9018951F92CB
:104570000F920FB60F9211240BB60F922F933F9309
:104580008F939F93EF93FF932091D0043091D104A8
:104590008091D2049091D3042817390731F4809187
:1045A000D1008F7D8093D10014C0E091D204F091AE
:1045B000D304E057FB4F20818091D2049091D30423
:1045C00001968F7399279093D3048093D2042093FC
:1045D000D600FF91EF919F918F913F912F910F9076
:1045E0000BBE0F900FBE0F901F9018951F920F9249
:1045F0000FB60F9211240BB60F922F933F938F9308
:104600009F93EF93FF932091480430914904809148
:104610004A0490914B042817390731F480913101F5
:104620008F7D8093310114C0E0914A04F0914B04D6
:10463000E85FFB4F208180914A0490914B040196E2
:104640008F73992790934B0480934A0420933601EB
:10465000FF91EF919F918F913F912F910F900BBE02
:104660000F900FBE0F901F901895CF92DF92EF9290
:10467000FF920F931F93CF93DF93EC016A017B01AD
:104680004115514E6105710509F1EC89FD8981E003
:1046900090E008A002C0880F991F0A94E2F7808377
:1046A00060E079E08DE390E0A70196010E944C3232
:1046B00089019A010150110921093109369527957F
:1046C00017950795980101151041A8F0EC89FD890F
:1046D000108260E874E88EE190E0A70196010E94E4
:1046E0004C32DA01C9010197A109B109B695A79524
:1046F000979587959C01E889F9893083EA89FB8938
:10470000208319A2EE89FF89408181E090E09C011D
:104710000C8C02C0220F331F0A94E2F7242B208353
:10472000EE89FF8940819C010D8C02C0220F331F4E
:104730000A94E2F7242B2083EE89FF8940819C01B3
:104740000E8C02C0220F331F0A94E2F7242B208321
:10475000EE89FF8920810F8C02C0880F991F0A946F
:10476000E2F7809582238083DF91CF911F910F9193
:10477000FF90EF90DF90CF900895CF92DF92EF926D
:10478000FF92E6EEF3E01382128288EEC82E83E0F9
:10479000D82EE12CF12CC482D582E682F7826BEA16
:1047A00072E07183608384EE95E09587848780EA68
:1047B00095E09787868785EC90E0918B808B84ECE1
:1047C00090E0938B828B80EC90E0958B848B81ECD6
:1047D00090E0978B868B82EC90E0918F808F86ECB7
:1047E00090E0938F828F44E0448F33E0358F27E051
:1047F000268F95E0978F81E080A3E4ECF3E01382AD
:104800001282C482D582E682F78271836083ACE52E
:10481000B5E0B587A487A8E1B5E0B787A687ADEC7A
:10482000B0E0B18BA08BACECB0E0B38BA28BA8EC6A
:10483000B0E0B58BA48BA9ECB0E0B78BA68BAAEC4B
:10484000B0E0B18FA08FAEECB0E0B38FA28F448FF9
:10485000358F268F978F80A3E2EAF3E013821282CE
:10486000C482D582E682F78271836083A4EDB4E0CE
:10487000B587A487A0E9B4E0B787A687A5EDB0E027
:10488000B18BA08BA4EDB0E0B38BA28BA0EDB0E018
:10489000B58BA48BA1EDB0E0B78BA68BA2EDB0E0F9
:1048A000B18FA08FA6EDB0E0B38FA28F448F358F6C
:1048B000268F978F80A3E0E8F3E013821282C482F0
:1048C000D582E682F782718360836CE474E0758739
:1048D000648768E074E07787668765E371E0718BD1
:1048E000608B64E371E0738B628B60E371E0758BC6
:1048F000648B61E371E0778B668B62E371E0718FAB
:10490000608F66E371E0738F628F448F358F268FDF
:10491000978F80A3FF90EF90DF90CF9008952F9214
:104920003F924F925F926F927F928F929F92AF923F
:10493000BF92CF92DF92EF92FF920F931F93CF938C
:10494000DF9300D0CDB7DEB74C017B836A836A0169
:10495000590117019801241B350B37FF03C031950E
:1049600021953109C5014A815B81841B950B97FF15
:1049700003C091958195910951E05983821793075E
:1049800014F019820BC09A2D8B2D5801092F182F66
:104990009A818B81DB82CA82C92ED82E8A819B8123
:1049A000A816B9065CF49C2D8D2D6801092F182FCF
:1049B0009A818B81BB82AA82A92EB82E2501AA8159
:1049C000BB814A1A5B0A38016C187D0877FE03C068
:1049D000719461947108720157FE03C0BFEFEB1A26
:1049E000FB0AF594E794C016D1061CF00FEF1FEFF9
:1049F0001FC001E010E01CC0D401ED91FC91B98111
:104A00000084F185E02D9101BB23C1F04A815B81D7
:104A1000B601C4011995E618F708F7FE04C0C00EE8
:104A2000D11EE40CF51CEA81FB813196FB83EA83FD
:104A30004A815B81A416B506FCF604C0A6016A8112
:104A40007B81E7CF0F900F900F90DF91CF911F9157
:104A50000F91FF90EF90DF90CF90BF90AF909F901D
:104A60008F907F906F905F904F903F902F90089520
:104A70000895DC01ED91FC910480F581E02D1994FD
:104A80000F931F93DC01ED91FC91008CF18DE02DD3
:104A900019951F910F9108950F931F93DC01ED91CC
:104AA000FC91028CF38DE02D19951F910F910895C3
:104AB000EF92FF920F931F93DC01ED91FC91048C18
:104AC000F58DE02D19951F910F91FF90EF900895AE
:104AD0000895AF92BF92CF92DF92EF92FF920F9321
:104AE0001F93CF93DF9300D01F92CDB7DEB75C0149
:104AF0006901DC01ED91FC910680F781E02D4B838B
:104B00005C8369837A831995D501ED91FC914B8182
:104B10005C81C40ED51EB1E0CB1AD1080088F189A2
:104B2000E02D7801860169817A819B01C501199583
:104B3000D501ED91FC910288F389E02DC5010F901C
:104B40000F900F900F90DF91CF911F910F91FF90D9
:104B5000EF90DF90CF90BF90AF901994AF92BF923B
:104B6000CF92DF92EF92FF920F931F93CF93DF9339
:104B700000D01F92CDB7DEB75C016901DC01ED9179
:104B8000FC910680F781E02D4B835C8369837A83F7
:104B90001995D501ED91FC9169817A819B012C0DCC
:104BA0003D1D215031090088F189E02D78014B81AC
:104BB0005C818A01C5011995D501ED91FC910288AE
:104BC000F389E02DC5010F900F900F900F90DF91AA
:104BD000CF911F910F91FF90EF90DF90CF90BF90FA
:104BE000AF9019944F925F926F927F928F929F92A3
:104BF000AF92BF92CF92DF92EF92FF920F931F93EB
:104C0000CF93DF931F921F92CDB7DEB76C015A018D
:104C100039014801DC01ED91FC910680F781E02D1E
:104C200069837A8319956981462E7A81572E640C9F
:104C3000751CD601ED91FC91461457046CF4048464
:104C4000F585E02D87019401A501B201C6011995F2
:104C5000BFEF4B1A5B0AEDCF0288F389E02DC60146
:104C60000F900F90DF91CF911F910F91FF90EF90D8
:104C7000DF90CF90BF90AF909F908F907F906F907C
:104C80005F904F901994EF92FF920F931F93DC0166
:104C9000ED91FC9111971A960D911C911B97189606
:104CA0002D913C911997048CF58DE02D7B0140E00E
:104CB00050E060E070E019951F910F91FF90EF9028
:104CC0000895CF92DF92EF92FF920F931F93CF93AD
:104CD000DF9300D000D0CDB7DEB76C01DC01ED91E1
:104CE000FC916217730789F4041715072CF4942FAD
:104CF000852FA801092F182F041B150B98012F5F72
:104D00003F4F008CF18DE02D12C04017510709F57F
:104D1000261737072CF4962F872FB901292F382F04
:104D2000261B370B2F5F3F4F028CF38DE02D870141
:104D3000C601199526960FB6F894DEBF0FBECDBFFB
:104D4000DF91CF911F910F91FF90EF90DF90CF9067
:104D500008950680F781E02D2D833E834B835C838D
:104D600069837A831995D601ED91FC910088F189C8
:104D7000E02D2D813E814B815C8169817A81C60164
:104D80001995D601ED91FC910288F389E02DC601B9
:104D900026960FB6F894DEBF0FBECDBFDF91CF9140
:104DA0001F910F91FF90EF90DF90CF9019946F9229
:104DB0007F928F929F92AF92BF92CF92DF92EF92AB
:104DC000FF920F931F93CF93DF93EC014B015A0196
:104DD00069013801E881F9810680F781E02D199594
:104DE000E881F9810684F785E02D87019601A50108
:104DF000B401CE011995E881F981A501460D571D31
:104E0000415051090684F785E02D9601B401CE0189
:104E10001995E881F9810484F585E02D9301A501B8
:104E2000B401CE011995E881F981C80CD91CB601ED
:104E3000615071090484F585E02D9301A501CE012F
:104E40001995E881F9810288F389E02DCE01DF917F
:104E5000CF911F910F91FF90EF90DF90CF90BF9077
:104E6000AF909F908F907F906F9019940895FC0160
:104E70006370658B8481958126813781613039F03B
:104E8000633029F09187808733872287089531879F
:104E90002087938782870895FC01138212828BEB0F
:104EA00092E09183808375836483578346837187FF
:104EB000608753874287158A15861486178616865B
:104EC00081E0848B2FEF3FEF338B228B318B208B54
:104ED000868B178A118E108E08952F923F924F92D3
:104EE0005F926F927F928F929F92AF92BF92CF927A
:104EF000DF92EF92FF920F931F93CF93DF93CDB783
:104F0000DEB728970FB6F894DEBF0FBECDBF5C01A9
:104F10003B014A0138872F83FC82EB8281E090E0DD
:104F20002C01421A530AC9019195819591099C015E
:104F3000220F331F3A832983170133E0230E311CDC
:104F4000EE24E394F12C802F81708D8302700E8308
:104F5000C7010197EF81F8858E179F070CF078C085
:104F600057FC0CC0AF81B8851197B887AF83E98132
:104F7000FA813296FA83E9834E0E5F1EC701880FCD
:104F8000991F0196480E591EFD81FF2359F1D50145
:104F9000ED91FC912F813885220F331F2F5F3F4FFA
:104FA0008B819C81280F391F0484F585E02D8601B3
:104FB000A401AF81B8854A1B5B0BB701660D771D55
:104FC000C5011995D501ED91FC910484F585E02D7D
:104FD0009101A4014E195F096F817885660D771DD7
:104FE000C5011995BE81BB2361F1D501ED91FC91FD
:104FF0002F813885220F331F2F5F3F4F8B819C817C
:10500000280F391F0484F585E02D8601A401AF81A6
:10501000B8854A1B5B0BB3016E197F09C501199551
:10502000D501ED91FC910484F585E02D9101A40159
:105030004E195F09B3018F819885681B790BC501F3
:1050400019959FEFE91AF90AA2E02A0E311C80CFC8
:1050500028960FB6F894DEBF0FBECDBFDF91CF917B
:105060001F910F91FF90EF90DF90CF90BF90AF9086
:105070009F908F907F906F905F904F903F902F9078
:1050800008956F927F928F929F92AF92BF92CF922C
:10509000DF92EF92FF920F931F93CF93DF93EC0178
:1050A0004B013A0159016801E881F9810680F781D5
:1050B000E02D1995E881F9819501220F331F2F5FAB
:1050C0003F4FA3014A195B090484F585E02DB40123
:1050D000CE011995E12CF12C03E09501A301B40157
:1050E000CE010E946D27E881F9810288F389E02DC5
:1050F000CE01DF91CF911F910F91FF90EF90DF9044
:10510000CF90BF90AF909F908F907F906F901994A9
:105110002F923F924F925F926F927F928F929F92C7
:10512000AF92BF92CF92DF92EF92FF920F931F93B5
:10513000CF93DF93CDB7DEB76C970FB6F894DEBF91
:105140000FBECDBF9C8F8B8F5B011A011F830E8317
:105150003701C982DC0158964D915C9159974115F0
:10516000510509F0E5C018968D919C911997681723
:1051700079070CF0CAC11A968D919C911B9728163D
:1051800039060CF0C2C18C2C912CFB0136E0C39E79
:10519000E00DF11D1124FB87EA871E161F060CF097
:1051A000B4C1C40133E0880F991F3A95E1F79D8798
:1051B0008C87820D931D181619060CF0A6C1579600
:1051C0008C91811103C0203B08F02F5FAB8DBC8D0B
:1051D000ED91FC9111970680F781E02DCD012A8F8A
:1051E00019952A8DB5E02B9F90011124F501359674
:1051F000FF87EE872501BB82AA82A9014A195B09B4
:10520000598B488BC10108969B8B8A8BE889F98959
:10521000E40DF51DE650FD4F949198873D822C8258
:105220006101A885A0FF13C0AB8DBC8DED91FC91F1
:10523000B981B13031F40084F185E02D2E813F81B8
:1052400016C00284F385E02DEE80FF801AC0EE8147
:10525000FF816E167F06F1F0AB8DBC8DED91FC9158
:10526000B981B13051F40084F185E02D9301A6019C
:10527000B2018B8D9C8D19950DC00284F385E02DB4
:105280007301840194014C815D816A817B818B8DE6
:105290009C8D1995E885E695E8872C813D81280D40
:1052A000391D3D832C833FEFC31AD30A4A895B899A
:1052B000C416D50609F0B5CF8A819B81880D991D4A
:1052C0009B838A839FEF491A590AAE85BF854A1688
:1052D0005B0609F09BCFEE81FF816E167F0609F415
:1052E000F2C0EB8DFC8DA081B181F981F13079F4B0
:1052F000B5016B5F7F4F1C96ED91FC911D9783016B
:1053000028E030E0A1018B8D9C8D1995DCC06A8569
:105310007B85681979091A96ED91FC911B977301A9
:105320000C851D859401A1018B8D9C8D1995CBC099
:10533000FA0134969491329765917491291BCB01AF
:10534000B7E02B9F800D911D1124FA012591349116
:105350003B8B2A8BFC01459154915B834A83FC0172
:105360003296C490319654915C873296149131965E
:10537000D4908981823058F0612E012E000C77087C
:10538000AD2D0D2C000CBB0BB987A88704C0198666
:105390001886612C712CAB8DBC8DED91FC91119711
:1053A0000680F781E02DCD011995B9818B2E912CC6
:1053B000689CC001699C900D789C900D1124FC01A3
:1053C000EA0DFB1DF98BE88B1C82712C612CE12FFF
:1053D000110FFF0B95012E0F3F1F3B872A87AC0C47
:1053E000B11CA5014E0F5F1F5F8B4E8BC1018D0D50
:1053F000911DD7FC9A95998F888F4C85641608F07B
:1054000062C0862D90E048855985480F591F489DF8
:105410009001499D300D589D300D1124D901A20DE8
:10542000B31DBF87AE87AA84BB8448885988DC80B7
:10543000BA85DB1AE88DF98DE80FF91FFD8BEC8B2F
:105440008D2D8A0D2E893F89A216B306B9F187707A
:1054500061F48A819B810196EA89FB89AA81BB81DB
:10546000EA0FFB1F74909B838A8377FE20C0AB8D6D
:10547000BC8DED91FC91B981B13061F40084F1856E
:10548000E02D2E813F814C895D89B5018B8D9C8DEE
:1054900019950DC00284F385E02DEE80FF80840114
:1054A00094014E855F85B2018B8D9C8D1995770C8B
:1054B000480C591CEFEFAE1ABE0AC2CF3C813C0D1E
:1054C0003C8363949ACFAB8DBC8DED91FC91119789
:1054D0000288F389E02DCD016C960FB6F894DEBFFB
:1054E0000FBECDBFDF91CF911F910F91FF90EF9035
:1054F000DF90CF90BF90AF909F908F907F906F90F4
:105500005F904F903F902F9019946C960FB6F8943F
:10551000DEBF0FBECDBFDF91CF911F910F91FF90E6
:10552000EF90DF90CF90BF90AF909F908F907F9043
:105530006F905F904F903F902F900895AF92BF92E1
:10554000CF92EF92FF920F931F93CF93DF93EC01D3
:10555000262F888D998D009709F040C06A3059F444
:105560001D861C862C898E859F8538E0239F800DA3
:10557000911D112441C06D3009F4AAC08E89882381
:10558000C1F03C898C859D8546E0349F800D911D3E
:10559000112448855985481759075CF41D861C86D7
:1055A0008E859F8548E0349F800D911D11249F8733
:1055B0008E87EA88FB88088919894E855F856C8506
:1055C0007D85CC88CE010E9488282C898C859D857C
:1055D00036E0239F800D911D112442C06A3079F47A
:1055E0001D861C862C89FC013696E4918E859F854C
:1055F0002E9F800D911D11249F878E8769C06D306D
:1056000009F466C0FC0134963491631708F460C055
:105610003196E491E61708F45BC0FC013296A59040
:10562000B490462F50E0431B510937E0349FB0013E
:10563000359F700D1124A60EB71EF50132963491D8
:105640003196E491332311F0E1110DC0F501349648
:10565000E4912C898C859D85E29F800D911D1124FC
:105660009D878C8735C0F501359644915E89552319
:1056700011F16C89E32FF0E0E40FF11D47FDFA957D
:105680006E9FD0016F9FB00D11244C855D854A0F30
:105690005B1FE885F985E417F5076CF41D861C8609
:1056A000FC013696E4918E859F856E9F800D911D3D
:1056B00011249F878E87EA88FB88088919894E857F
:1056C0005F856C857D85CC88CE010E948828BECF01
:1056D00081E090E0DF91CF911F910F91FF90EF90CB
:1056E000CF90BF90AF900895FC017587648757876E
:1056F00046870895611101C061E0FC01648B089543
:10570000FC01668B0895DC019C96ED91FC919D97C0
:105710009081D1968C91892B80830895EF92FF928E
:105720000F931F93DC01ED91FC910284F385E02D32
:105730007801890121E030E019951F910F91FF90C8
:10574000EF900895EF92FF920F931F93DC01ED917C
:10575000FC910284F385E02D780101E010E01995B9
:105760001F910F91FF90EF9008950F931F93CF9388
:10577000DF9300D000D0CDB7DEB78C01DC01ED9116
:10578000FC910680F781E02D2D833E834B835C8363
:1057900069837A831995D801ED91FC910084F18594
:1057A000E02D2D813E814B815C8169817A81C80128
:1057B0001995D801ED91FC910288F389E02DC8017B
:1057C00026960FB6F894DEBF0FBECDBFDF91CF9106
:1057D0001F910F911994EF92FF920F931F93CF9304
:1057E000DF9300D000D0CDB7DEB77C01DC01ED91B6
:1057F000FC910680F781E02D2D833E834B835C83F3
:1058000069837A831995D701ED91FC910484F5851C
:10581000E02D2D813E814B815C8169817A81C701B8
:105820001995D701ED91FC910288F389E02DC7010C
:1058300026960FB6F894DEBF0FBECDBFDF91CF9195
:105840001F910F91FF90EF901994EF92FF920F9399
:105850001F93CF93DF9300D000D0CDB7DEB77C018C
:10586000DC01ED91FC910680F781E02D2D833E83D4
:105870004B835C8369837A831995D701ED91FC9101
:105880000684F785E02D2D813E814B815C81698105
:105890007A81C7011995D701ED91FC910288F389AE
:1058A000E02DC70126960FB6F894DEBF0FBECDBF20
:1058B000DF91CF911F910F91FF90EF901994CF92AC
:1058C000DF92EF92FF920F931F93CF93DF9300D05D
:1058D00000D0CDB7DEB76C01DC01ED91FC91068004
:1058E000F781E02D2D833E834B835C8369837A832C
:1058F0001995D601ED91FC910284F385E02D2D815F
:105900003E814B815C8169817A81C6011995D601FE
:10591000ED91FC910288F389E02DC60126960FB621
:10592000F894DEBF0FBECDBFDF91CF911F910F91D5
:10593000FF90EF90DF90CF901994CF93DF93EC011D
:1059400089A187FF09C084E00E943A3281E00E9469
:105950002C3280E00E943532ECA5FDA5908189A90A
:10596000809589238083DF91CF910895EF92FF92F4
:105970000F931F93CF93DF931F92CDB7DEB77C01B8
:10598000062F142F40E451E060EF70E029830E945D
:105990004C2783EE92E0D70111969C938E935E96EE
:1059A0000C935E975F961C935F97298190962C933A
:1059B00090978FEF91968C93919792968C93929764
:1059C00093968C939397F701128E138E148E158EE7
:1059D000602F000F770BFB01EA59FD4F8491E82FF0
:1059E000F0E0EE0FFF1FEA53FD4F859194919D96D5
:1059F0009C938E939C97FB01E05EFD4FE491D196C2
:105A0000EC93D197412F110F550BFA01EA59FD4F35
:105A1000E491F0E0EE0FFF1FEA53FD4F8591949162
:105A2000F70193A782A7FA01E05EFD4FE491D296B9
:105A3000EC93D29799961C921E929897D0961C92AE
:105A4000D09795961C921E9294979E961C929E9724
:105A500097961C921E9296979F961C920F90DF919C
:105A6000CF911F910F91FF90EF900895FC0181A1BC
:105A700087FF05C06EBD0DB407FEFDCF089528E079
:105A800030E090E8A4A1B5A186A5492F462319F0DE
:105A90004C91842B03C04C91809584238C93A0A5BA
:105AA000B1A54C9180A9809584238C93A0A5B1A524
:105AB0004C9180A9842B8C9396952150310911F734
:105AC0000895CF93DF93EC01EAA5FBA590818AA905
:105AD000809589238083CE010E94362DEAA5FBA5FF
