:100000000C9402040C9433040C9433040C943304C5
:100010000C9433040C9433040C9433040C94330484
:100020000C9433040C9433040C9433040C94330474
:100030000C9433040C9433040C9433040C94330464
:100040000C9433040C9433040C9433040C94330454
:100050000C9433040C9433040C9433040C94972ABA
:100060000C9433040C9403300C94CF300C94330470
:100070000C9433040C9433040C9433040C94330424
:100080000C9433040C9433040C9433040C94330414
:100090000C9436300C940E310C9433040C943304CD
:1000A0000C9433040C9433040C9433040C943304F4
:1000B0000C9433040C9433040C9433040C943304E4
:1000C0000C9433040C9433040C9433040C94693072
:1000D0000C944D310C9433040C949C300C948C3162
:1000E0000C943304D62BD92BCC2BD02B102CDD2BFE
:1000F000E12BE72BEB2BEF2BF52BF92BFD2B102C0A
:10010000032C072C0B2C0C941F3B0C94EF2B0C9402
:10011000EC3F0C947C2F0C94FD340C94F3330C9432
:10012000AC340C944F2F0C94FD2B0C94032C0C949A
:100130001B350C94F52B0C94A62C0C94E12B0C94F1
:10014000AB3A0C94072C0C9423340C94E72B0C94AE
:1001500091350C94502F0C9458390C94E53A0C942A
:10016000602F0C94F1350C94D02B0C94102C0C9423
:100170005D3B0C94A72F0C94CC2B0C94C51F0C94B6
:1001800049330C9422340C9468340C94F2330C945C
:100190004E3A0C94D62B0C94623A0C9412340C9474
:1001A000EB2B0C94FA330C94F0350C948F1F0C94B9
:1001B0009C2F0C94713F0C9406340C94433A0C948D
:1001C00053320C94F92B0C94753A0C94D92B0C9453
:1001D0000B2C0C942D3E0C94793E0C94DD2B0000DE
:1001E000090A02080B0C0D070603040100000000B9
:1001F00000000000000000000000000000000000FF
:100200000000000000000000000011100F000000BE
:1002100000000000000000000000000000000000DE
:1002200000000000010210202008081020401020CB
:1002300040800201020108040201010204081020AA
:1002400040808040201008040201800402018040A8
:100250002010080402010804020101020408102011
:1002600040800102040810204080050505050705AF
:1002700008080808020202020A0A08080404040422
:10028000010101010101010103030303030303034E
:10029000040707070C0C0C0C0C0C0C0C02020202DD
:1002A00006060606060606060B0B0B0B0B0B0B0BC6
:1002B000000020002300260029002C002F0032001F
:1002C00000010000030106010901000022002500D1
:1002D00028002B002E00310034000201000005012F
:1002E00008010B0100002100240027002A002D0036
:1002F0003000330001010000040107010A01000081
:100300000000003E5B4F5B3E3E6B4F6B3E1C3E7CF5
:100310003E1C183C7E3C181C577D571C1C5E7F5EA3
:100320001C00183C1800FFE7C3E7FF001824180062
:10033000FFE7DBE7FF30483A060E262979292640F9
:100340007F050507407F05253F5A3CE73C5A7F3E25
:100350001C1C08081C1C3E7F14227F22145F5F00B7
:100360005F5F06097F017F006689956A6060606053
:100370006094A2FFA29408047E040810207E20103E
:1003800008082A1C08081C2A08081E101010100C47
:100390001E0C1E0C30383E3830060E3E0E06000095
:1003A00000000000005F00000007000700147F1439
:1003B0007F14242A7F2A12231308646236495620A8
:1003C000500008070300001C2241000041221C00CD
:1003D0002A1C7F1C2A08083E08080080703000088C
:1003E00008080808000060600020100804023E5160
:1003F00049453E00427F40007249494946214149F2
:100400004D331814127F1027454545393C4A494958
:100410003141211109073649494936464949291EC2
:1004200000001400000040340000000814224114B1
:1004300014141414004122140802015909063E4103
:100440005D594E7C1211127C7F494949363E41412B
:1004500041227F4141413E7F494949417F09090984
:10046000013E414151737F0808087F00417F4100F0
:100470002040413F017F081422417F404040407F9F
:10048000021C027F7F0408107F3E4141413E7F09EC
:100490000909063E4151215E7F091929462649492D
:1004A000493203017F01033F4040403F1F2040206D
:1004B0001F3F4038403F631408146303047804036B
:1004C0006159494D43007F41414102040810200019
:1004D0004141417F0402010204404040404000038A
:1004E00007080020545478407F2844443838444456
:1004F0004428384444287F385454541800087E094E
:100500000218A4A49C787F0804047800447D40006D
:100510002040403D007F1028440000417F40007C87
:10052000047804787C080404783844444438FC187F
:1005300024241818242418FC7C0804040848545463
:10054000542404043F44243C4040207C1C20402090
:100550001C3C4030403C44281028444C9090907CF7
:100560004464544C44000836410000007700000009
:100570004136080002010204023C2623263C1EA14B
:10058000A161123A4040207A3854545559215555AA
:100590007941225454784221555478402054557959
:1005A000400C1E52721239555555593954545459EC
:1005B00039555454580000457C410002457D4200A5
:1005C00001457C407D1211127DF0282528F07C54D5
:1005D0005545002054547C547C0A097F49324949CE
:1005E00049323A4444443A324A4848303A41412137
:1005F0007A3A42402078009DA0A07D3D4242423D93
:100600003D4040403D3C24FF2424487E4943662B26
:100610002FFC2F2BFF0929F620C0887E09032054C8
:100620005479410000447D413048484A32384040C6
:10063000227A007A0A0A727D0D19317D2629292F26
:1006400028262929292630484D402038080808083E
:1006500008080808382F10C8ACBA2F102834FA0040
:10066000007B000008142A142222142A14085500C2
:10067000550055AA55AA55AAFF55FF55FF00000081
:10068000FF00101010FF00141414FF001010FF00E2
:10069000FF1010F010F0141414FC001414F700FFF5
:1006A0000000FF00FF1414F404FC141417101F10B2
:1006B000101F101F1414141F00101010F000000061
:1006C000001F101010101F10101010F0100000006C
:1006D000FF101010101010101010FF10000000FF7D
:1006E000140000FF00FF00001F10170000FC04F4BE
:1006F00014141710171414F404F40000FF00F71476
:10070000141414141414F700F714141417141010FC
:100710001F101F141414F4141010F010F000001F18
:10072000101F0000001F14000000FC140000F01057
:10073000F01010FF10FF141414FF141010101F00FD
:10074000000000F010FFFFFFFFFFF0F0F0F0F0FFFF
:10075000FFFF0000000000FFFF0F0F0F0F0F3844D6
:10076000443844FC4A4A4A347E02020606027E02AB
:100770007E0263554941633844443C04407E201E58
:100780002006027E020299A5E7A5991C2A492A1C87
:100790004C7201724C304A4D4D303048784830BC74
:1007A000625A463D3E494949007E0101017E2A2A9E
:1007B0002A2A2A44445F444440514A444040444A1F
:1007C00051400000FF0103E080FF000008086B6B50
:1007D000083612362436060F090F060000181800D6
:1007E00000001010003040FF0101001F01011E0039
:1007F000191D1712003C3C3C3C00000000008F1FFC
:100800005332C51F11241FBECFEFD1E2DEBFCDBFD3
:1008100000E00CBF13E0A0E0B2E0E8E0FCE800E09C
:100820000BBF02C007900D92AC3BB107D9F72AE18C
:10083000ACEBB3E001C01D92AA33B207E1F713E0BD
:10084000C1E0D4E000E006C021970109802FFE013D
:100850000E94B945CF3FD10780E00807A9F70E9461
:10086000EB290C94A0430C94000066E372E080EC4A
:1008700093E00E94C22E6DE372E087EC93E00E9449
:10088000C22E66E472E08EEC93E00C94C22EDF92EE
:10089000EF92FF920F931F93CF93DF937C018B0115
:1008A000442309F44BC044E650E060E070E082E588
:1008B00097E10E942E3A63E082E597E10E94343A84
:1008C0000E151F0509F481C0C0E0D0E087E0D82EE6
:1008D000CE15DF0571F44FEF5FEF60E070E082E569
:1008E00097E10E943A3ADC9EB001DD9E700D112422
:1008F00011C040E050E06FEF7FEF82E597E1C01755
:10090000D10779F40E943A3ADC9EC001DD9E900D39
:100910001124BC0160547C4F82E597E10E94352D83
:1009200008C00E943A3A6DE273E082E597E10E94C6
:10093000472D2196C330D10559F647C048E250E013
:1009400062E070E082E597E10E942E3A62E082E583
:1009500097E10E94343A40E050E06FEF7FEF82E58C
:1009600097E10E943A3A6DE472E082E597E10E94D5
:10097000472D44E650E060E070E082E597E10E9498
:100980002E3A63E082E597E10E94343A00EC13E0EE
:10099000C0E0D0E0CE15DF0529F44FEF5FEF60E057
:1009A00070E004C040E050E06FEF7FEF82E597E138
:1009B0000E943A3AB80182E597E10E94352D2196CE
:1009C000095F1F4FC330D10529F7DF91CF911F91E8
:1009D0000F91FF90EF90DF9008950097B9F487E0B2
:1009E00090E0909324178093231781E090E09093F8
:1009F00022178093211782E090E090932017809334
:100A00001F1782E090E0A0E0B0E02FC08130910598
:100A1000A9F485E090E0909324178093231782E057
:100A200090E0909322178093211790932017809342
:100A30001F1785E090E0A0E0B0E017C0823091057C
:100A4000E9F423E030E030932417209323179093A8
:100A500022178093211785E090E0909320178093D0
:100A60001F178AE090E0A0E0B0E080932B179093EE
:100A70002C17A0932D17B0932E17089561E672E0FE
:100A800084EF97E10C94472D841B950B06960D97E8
:100A9000E0F4621B730B6A5F7F4F6D307105A8F441
:100AA0008091231790912417019790932417809396
:100AB000231767E772E084EF97E10E94472D68EC07
:100AC00070E080E090E00C94122B0895CF93DF93B8
:100AD000CDB7DEB727970FB6F894DEBF0FBECDBFF8
:100AE00060912317709124174AE0CE0101960E946D
:100AF000D92E40E050E060E070E082E597E10E948E
:100B00002E3A61E082E597E10E94343A6BE772E0A9
:100B100082E597E10E94182D6091231770912417A8
:100B20004AE050E082E597E10E94F92DCE0101965E
:100B30000E941D2E27960FB6F894DEBF0FBECDBFC4
:100B4000DF91CF910895EF92FF920F931F93CF9370
:100B5000DF93EC017B01BA01A90100E010E027E07E
:100B600030E082E597E10E94FB3600EE1FEF27E0C0
:100B700030E0A701BE0182E597E10E94FB36DF91DC
:100B8000CF911F910F91FF90EF900895EF92FF92F8
:100B90000F931F93CF93DF93EC017B01BA01A9015F
:100BA00000E010E027E030E082E597E10E94FB36AC
:100BB00000E018EF27E030E0A701BE0182E597E1F1
:100BC0000E94FB36DF91CF911F910F91FF90EF9024
:100BD0000895EF92FF920F931F93CF93DF93EC0151
:100BE0007B01BA01A90100E010E027E030E082E5D6
:100BF00097E10E94FB360FE118EF27E030E0A701F4
:100C0000BE0182E597E10E94FB36DF91CF911F91F3
:100C10000F91FF90EF900895EF92FF920F931F9323
:100C2000CF93DF93EC017B01BA01A90100E010E052
:100C300027E030E082E597E10E94FB360FEF17E0F6
:100C400027E030E0A701BE0182E597E10E94FB3674
:100C5000DF91CF911F910F91FF90EF900895EF9248
:100C6000FF920F931F93CF93DF93EC017B01BA01A7
:100C7000A90100E010E027E030E082E597E10E9462
:100C8000FB3600E21DEF27E030E0A701BE0182E560
:100C900097E10E94FB36DF91CF911F910F91FF905A
:100CA000EF900895EF92FF920F931F93CF93DF93EE
:100CB000EC017B01BA01A90100E010E027E030E07F
:100CC00082E597E10E94FB360FEF1FEF27E030E04F
:100CD000A701BE0182E597E10E94FB36DF91CF912B
:100CE0001F910F91FF90EF900895841B950B97FF34
:100CF00008C08091211790912217919581959109B3
:100D000006C0892B41F08091211790912217909372
:100D10000A1780930917621B730B77FF08C0809135
:100D200021179091221791958195910906C0672B03
:100D300041F080912117909122179093081780938A
:100D4000071720911D1730911E1780910917909158
:100D50000A17820F931F90931E1780931D172091DF
:100D60001B1730911C178091071790910817820F5D
:100D7000931F90931C1780931B170895841B950B4A
:100D800097FF08C080912117909122179195819526
:100D9000910906C0892B41F080912117909122176B
:100DA0009093061780930517621B730B77FF08C09B
:100DB000809121179091221791958195910906C0F4
:100DC000672B41F08091211790912217909304177F
:100DD000809303172091191730911A1780910517E6
:100DE00090910617820F931F90931A1780931917EB
:100DF00020911717309118178091031790910417BD
:100E0000820F931F90931817809317170895841BD0
:100E1000950B97FF08C0809121179091221791950B
:100E20008195910906C0892B41F0809121179091FD
:100E300022179093021780930117621B730B77FFA1
:100E400008C0809121179091221791958195910961
:100E500006C0672B41F08091211790912217909343
:100E600000178093FF162091151730911617809167
:100E7000011790910217820F931F9093161780937A
:100E8000151720911317309114178091FF16909128
:100E90000017820F931F90931417809313170895D0
:100EA000841B950B97FF08C0809121179091221702
:100EB00091958195910906C0892B41F08091211768
:100EC000909122179093FE168093FD16621B730B70
:100ED00077FF08C0809121179091221791958195F5
:100EE000910906C0672B41F080912117909122173C
:100EF0009093FC168093FB162091111730911217D6
:100F00008091FD169091FE16820F931F90931217F9
:100F10008093111720910F17309110178091FB16B5
:100F20009091FC16820F931F9093101780930F17C8
:100F3000089520910D1730910E1780911F179091F1
:100F40002017820F931F813F91052CF490930E1769
:100F500080930D17089510920E1710920D17089593
:100F60002F923F924F925F926F927F928F929F92B9
:100F7000AF92BF92CF92DF92EF92FF920F931F93A7
:100F8000CF93DF9300D01F92CDB7DEB780911D17AE
:100F900090911E179C838B8300911B1710911C1737
:100FA000A0901917B0901A178090171790901817E3
:100FB000E0901517F0901617C0901317D0901417E3
:100FC000409011175090121760900F1770901017E3
:100FD000E0910D17F0910E17FA83E98320900B171B
:100FE00030900C1760913717709138179801AC0149
:100FF0008091391790913A170E94750660911B17DE
:1010000070911C1798014B815C8180911D17909104
:101010001E170E94C60520911B1730911C17409186
:101020001D1750911E1760913717709138178091D6
:10103000391790913A170E94440520911717309163
:1010400018174091191750911A176091371770911E
:1010500038178091391790913A170E94BE06609117
:101060001717709118179401A50180911917909185
:101070001A170E94E905209117173091181740910F
:10108000191750911A17609137177091381780917E
:10109000391790913A170E94440520911317309107
:1010A00014174091151750911617609137177091CA
:1010B00038178091391790913A170E94070760916D
:1010C0001317709114179601A7018091151790912D
:1010D00016170E940C062091131730911417409197
:1010E0001517509116176091371770913817809126
:1010F000391790913A170E94440520910F173091AB
:101100001017409111175091121760913717709175
:1011100038178091391790913A170E9450076091C3
:101120000F17709110179301A201809111179091E0
:1011300012170E942F0620910F173091101740911F
:1011400011175091121760913717709138178091CD
:10115000391790913A170E9444050E9499076091AF
:101160000B1770910C17910149815A8180910D17CD
:1011700090910E170E94520620910B1730910C1778
:1011800040910D1750910E176091371770913817D5
:101190008091391790913A170E9444056091191770
:1011A00070911A1780911D1790911E17861B970B2F
:1011B00006960D9708F540911717509118178091D2
:1011C0001B1790911C17841B950B06960D97A0F486
:1011D00000E010E027E030E082E597E10E94FB3676
:1011E00084E190E090931A17809319178EE190E0B4
:1011F0009093181780931717609115177091161711
:1012000080911D1790911E17861B970B06960D97C0
:1012100008F5409113175091141780911B17909166
:101220001C17841B950B06960D97A0F400E010E0A8
:1012300027E030E082E597E10E94FB368CED90E0FC
:1012400090931617809315178EE190E090931417E2
:1012500080931317609111177091121780911D17C9
:1012600090911E17861B970B06960D9708F54091D7
:101270000F175091101780911B1790911C17841B0A
:10128000950B06960D97A0F400E010E027E030E003
:1012900082E597E10E94FB3684E190E0909312177B
:1012A000809311178CE291E09093101780930F17A1
:1012B00060911517709116178091191790911A1750
:1012C000861B970B06960D9708F5409113175091C2
:1012D00014178091171790911817841B950B069679
:1012E0000D97A0F400E010E027E030E082E597E100
:1012F0000E94FB368CED90E09093161780931517A3
:101300008EE190E09093141780931317609111175A
:10131000709112178091191790911A17861B970BCD
:1013200006960D9708F540910F1750911017809170
:10133000171790911817841B950B06960D97A0F41C
:1013400000E010E027E030E082E597E10E94FB3604
:1013500084E190E090931217809311178CE291E052
:101360009093101780930F176091111770911217B7
:101370008091151790911617861B970B06960D975F
:1013800008F540910F175091101780911317909105
:101390001417841B950B06960D97A0F400E010E03F
:1013A00027E030E082E597E10E94FB3684E190E09F
:1013B00090931217809311178CE291E0909310177D
:1013C00080930F170F900F900F900F90DF91CF9198
:1013D0001F910F91FF90EF90DF90CF90BF90AF9053
:1013E0009F908F907F906F905F904F903F902F9045
:1013F00008950F931F93CF93DF9386E30E949A2B58
:101400008C0187E30E949A2BEC0182E00E947D2CE4
:101410004091391750913A1720913717309138176A
:10142000CE01885C91408336910550F4073362E029
:10143000160734F4043D81E018074CF00C94831D2A
:101440000833A2E01A071CF085E090E006C0033DD7
:10145000E1E01E073CF48BEF9FEF909334178093ED
:10146000331704C01092341710923317CC3262E055
:10147000D6071CF085E090E006C0C73C81E0D807A5
:101480003CF48BEF9FEF909336178093351704C091
:101490001092361710923517CA01CD9787379105EC
:1014A000B0F4203F310599F4309338172093371763
:1014B0001092341710923317942F852F453B510506
:1014C00014F094EB80E09093391780933A17809151
:1014D000391790913A17FC01759760913717709101
:1014E0003817B79788F46E30A1E07A0769F4109244
:1014F0003417109233178D33910514F08CE390E07C
:1015000090933A17809339178091391790913A1731
:10151000FC01E55BF109B79790F46E30E1E07E07DE
:1015200071F410923417109233178F30A1E09A079C
:1015300014F08EE091E090933A17809339178091E0
:10154000391790913A17FC01EB55F109739788F41C
:101550006E30E1E07E0769F4109234171092331771
:101560008F36910514F08EE690E090933A178093B1
:1015700039178091391790913A17FC01E358F10916
:10158000739788F46E30A1E07A0769F410923417EB
:10159000109233178739910514F086E990E0909303
:1015A0003A17809339178091391790913A17FC01B7
:1015B0007597E731F14090F46C32E1E07E0771F409
:1015C00010923417109233178D32A1E09A0714F05D
:1015D0008CE291E090933A1780933917603F710540
:1015E00061F58091391790913A17FC0175977397BF
:1015F00070F4109234171092331770933817609369
:10160000371789329105ACF088E290E012C0FC01F6
:10161000E95CF109B79788F41092341710923317E8
:101620007093381760933717813F910514F080EF5E
:1016300090E090933A1780933917E0913717F09123
:1016400038178091391790913A17E23DF10509F565
:10165000BC01655171096935710550F41092341758
:10166000109233178F36910534F18EE690E023C047
:10167000BC01635871096935710508F04EC01092BC
:101680003417109233178D3D9105ACF08CED90E03E
:1016900012C0EA3BF105A1F4BC016B5571096B3333
:1016A0007105D8F5109234171092331787399105C8
:1016B00014F086E990E090933A17809339172DC083
:1016C000E03AF10551F5BC016150710969357105C8
:1016D00070F410923417109233178B35910514F073
:1016E0008AE590E090933A178093391775C0BC0152
:1016F000675971096935710508F06EC01092341789
:1017000010923317BC01813F910514F060EF70E037
:1017100070933A17609339175FC080913917909191
:101720003A17E238F105A9F4BC016B5571096B3326
:10173000710508F05FC01092341710923317873983
:10174000910514F086E990E090933A178093391749
:1017500051C0EE36F10509F03FC0BC016B5571096F
:101760006331710508F453C0BC01635871096331DA
:10177000710558F410923417109233178739910578
:101780000CF45EC086E990E05BC0BC016551710954
:101790006732710558F410923417109233178D3355
:1017A00091050CF44DC08CE390E04AC0BC01655B30
:1017B00071096732710508F047C010923417109212
:1017C0003317BC018D3D910514F06CED70E0709302
:1017D0003A176093391738C0E634F10559F480910F
:1017E000391790913A17BC0165517109673C710531
:1017F00058F51DC0EE31F10539F5809139179091FA
:101800003A17BC01655171096935710550F41092A0
:101810003417109233178F36910594F08EE690E0CE
:101820000FC0BC01635871096935710568F41092E5
:101830003417109233178D3D910514F08CED90E024
:1018400090933A17809339176091391770913A172E
:10185000CF014F978F3E9105F0F46C33710551F431
:101860001092361710923517CF018F30E1E09E07A6
:1018700074F00BC0643B710571F41092361710922E
:101880003517CF01EF30F14014F08EE091E09093E6
:101890003817809337178091371790913817FC01CC
:1018A000EF50F1407D97E8F46431710549F41092EE
:1018B0003617109235178D32E1E09E0774F00BC099
:1018C0006C3D710571F410923617109235178D32F8
:1018D000A1E09A0714F08CE291E09093381780937E
:1018E00037178091371790913817FC01E15FF109A4
:1018F0007D97E8F46A35710549F410923617109215
:1019000035178F30E1E09E0774F00BC06639710522
:1019100071F410923617109235178F30A1E09A07A4
:1019200014F08EE091E090933817809337178091F0
:10193000371790913817FC01EF50F1407D97E8F48C
:101940006E36710549F410923617109235178D32A4
:10195000E1E09E0774F00BC06238710571F41092DB
:101960003617109235178D32A1E09A0714F08CE2E9
:1019700091E09093381780933717809137179091A3
:101980003817FC01E15FF1097D97E8F468327105D1
:1019900049F410923617109235178F30E1E09E0708
:1019A00074F00BC0683C710571F4109236171092F8
:1019B00035178F30A1E09A0714F08EE091E09093F4
:1019C0003817809337178091371790913817FC019B
:1019D000E35DF1097D97C8F46431710549F06C3D10
:1019E000710531F06E36710519F06238710569F4D0
:1019F0001092361710923517813F910514F080EF41
:101A000090E0909338178093371780913717909113
:101A10003817FC01EB5BF1097797B8F46A3571056B
:101A200019F06639710589F410923617109235173E
:101A300070933A1760933917833D910514F082ED46
:101A400090E09093381780933717809137179091D3
:101A50003817BC01615A71096931710500F560914F
:101A6000391770913A176A35710529F410923617B3
:101A7000109235170BC06639710589F4109236172C
:101A80001092351770933A17609339178B3B910575
:101A900014F08AEB90E09093381780933717809179
:101AA000371790913817BC01635871096D31710572
:101AB00000F56091391770913A176A35710529F46C
:101AC00010923617109235170BC06639710589F4DC
:101AD000109236171092351770933A176093391792
:101AE000813A910514F080EA90E090933817809342
:101AF00037178091371790913817BC016F567109CD
:101B00006331710500F56091391770913A176E369F
:101B1000710529F410923617109235170BC06238F0
:101B2000710589F4109236171092351770933A1791
:101B3000609339178338910514F082E890E0909310
:101B40003817809337178091371790913817BC0159
:101B50006F5171096F34710530F5609139177091CB
:101B60003A176431710529F410923617109235171F
:101B700011C06C33710531F0643B710519F06C3D97
:101B8000710589F4109236171092351770933A1731
:101B9000609339178F36910514F08EE690E090939C
:101BA0003817809337178091371790913817BC01F9
:101BB0006F5171096732710500F5609139177091A5
:101BC0003A176E36710529F41092361710923517B0
:101BD0000BC06238710589F41092361710923517D0
:101BE00070933A17609339178734910514F086E49F
:101BF00090E0909338178093371780913717909122
:101C00003817BC01675471096732710500F560919E
:101C1000391770913A176A35710529F41092361701
:101C2000109235170BC06639710589F4109236177A
:101C30001092351770933A17609339178F369105C4
:101C400014F08EE690E090933817809337176091E8
:101C5000391770913A1780913717909138176C3374
:101C6000710549F5803F910531F5CC32E2E0DE07A0
:101C700054F065E070E0709336176093351710925A
:101C8000341710923317B801635D714065367105E2
:101C900050F06CE370E070933A176093391710922C
:101CA000361710923517C73C61E0D60724F410921E
:101CB0003617109235176091391770913A17643BB7
:101CC000710549F5803F910531F5CC32A2E0DA0784
:101CD00024F01092361710923517B801635D7140E9
:101CE0006536710550F064EB70E070933A176093BD
:101CF00039171092361710923517C73CE1E0DE070E
:101D000054F46BEF7FEF7093361760933517109292
:101D10003417109233176091391770913A176C335A
:101D20007105E1F48E30914009F008C1CC3282E0B7
:101D3000D80724F010923617109235170833A2E016
:101D40001A0724F01092341710923317C73CE1E0C1
:101D5000DE070CF0F3C08EE091E0B2C0643B710589
:101D600031F58E30914009F0BDC0CC32E2E0DE07A3
:101D700054F085E090E090933617809335171092D9
:101D8000341710923317083382E0180724F01092AA
:101D9000341710923317C73CA1E0DA070CF0A2C049
:101DA0008EE091E090933817809337175BC06431D1
:101DB000710509F05CC08E30914079F5CC3282E03B
:101DC000D80754F085E090E090933617809335174C
:101DD00010923417109233170833A2E01A073CF020
:101DE00085E090E0909334178093331708C0033D4B
:101DF000E1E01E0724F41092341710923317C73C09
:101E000081E0D80754F48EE091E0909338178093E6
:101E10003717109236171092351780913717909117
:101E200038178C32914009F05DC0CC32E2E0DE0719
:101E300054F085E090E09093361780933517109218
:101E4000341710923317083382E0180714F40C94F7
:101E5000111B1092341710923317C73CE1E0DE07D4
:101E60000CF040C010923617109235173BC06C3DF5
:101E70007105A9F58E30914011F40C94201D8091CC
:101E80003717909138178C32914009F057C0CC32F7
:101E900062E0D60724F010923617109235170833F7
:101EA00082E0180714F40C94531D1092341710920A
:101EB0003317C73C61E0D6070CF040C08CE291E0DC
:101EC00090933817809337178BEF9FEF90933617C7
:101ED0008093351710923417109233172FC06A353C
:101EE000710539F16639710549F58091371790917F
:101EF0003817803F910511F5CC3282E0D8073CF0CD
:101F0000109234171092331785E090E00CC0C73C54
:101F1000A1E0DA0714F00C941F1B109234171092F2
:101F200033178BEF9FEF90933617809335170C94F0
:101F30001F1B803F910511F40C94611D809139178E
:101F400090913A1760913717709138178A3591053B
:101F5000C9F56E30E1E07E0709F094C0CC3282E032
:101F6000D8075CF0109234171092331785E090E098
:101F700090933617809335170CC0C73CA1E0DA0761
:101F800044F41092341710923317109236171092AF
:101F900035170833E2E01E072CF010923417109228
:101FA00033170BC0033D81E018070CF06BC08BEFBB
:101FB0009FEF909334178093331710923617109237
:101FC000351760C08639910549F56E30A1E07A0772
:101FD00009F058C0C73CE1E0DE075CF4109234170A
:101FE000109233178BEF9FEF90933617809335172E
:101FF0000CC0CC3282E0D80744F010923417109213
:10200000331710923617109235170833A2E01A07CB
:1020100024F6033DE1E01E0754F234C08E369105EC
:1020200089F56E3081E0780769F5C73CA1E0DA07F1
:102030003CF48BEF9FEF909336178093351708C0D1
:10204000CC32E2E0DE0744F01092361710923517DA
:1020500010923417109233170833E2E01E0714F47D
:102060000C94371B8EE690E090933A1780933917C3
:10207000109236171092351785E090E09093341740
:10208000809333178091391790913A1782389105D0
:1020900089F56E30A1E07A0769F5CC32E2E0DE071F
:1020A0003CF085E090E0909336178093351708C098
:1020B000C73C81E0D80744F41092361710923517C8
:1020C0001092341710923317083382E0180714F473
:1020D0000C94431B82E890E090933A178093391751
:1020E000109236171092351785E090E090933417D0
:1020F000809333178091391790913A178E36910556
:1021000079F56C32E1E07E0759F5CC3282E0D807F0
:102110001CF085E090E006C0C73CA1E0DA0754F46B
:102120008BEF9FEF909336178093351710923417EB
:1021300010923317033DA1E01A0714F00C944F1BC3
:102140008EE690E090933A178093391710923617E5
:10215000109235178BEF9FEF9093341780933317BE
:102160008091391790913A178238910579F56C3240
:1021700081E0780759F5CC32A2E0DA071CF085E05F
:1021800090E006C0C73CE1E0DE0754F48BEF9FEF20
:102190009093361780933517109234171092331797
:1021A000033DE1E01E0714F00C945B1B82E890E015
:1021B00090933A178093391710923617109235176B
:1021C0008BEF9FEF909334178093331780913917DB
:1021D00090913A17889779F56E30A1E07A0759F512
:1021E000CC32E2E0DE071CF085E090E006C0C73CA0
:1021F00081E0D80754F48BEF9FEF909336178093CC
:1022000035171092341710923317033D81E01807E9
:1022100014F00C94671B88E290E090933A17809337
:10222000391710923617109235178BEF9FEF909356
:102230003417809333178091391790913A17883C5F
:10224000910579F56E30E1E07E0759F5CC3282E0F8
:10225000D8071CF085E090E006C0C73CA1E0DA0793
:1022600054F48BEF9FEF90933617809335171092AD
:10227000341710923317033DA1E01A0714F00C94A1
:10228000731B88EC90E090933A1780933917109263
:102290003617109235178BEF9FEF9093341780937A
:1022A00033178091391790913A178897B9F5603FA5
:1022B0007105A1F5CC3282E0D8072CF010923617C8
:1022C000109235170AC0C73CA1E0DA0754F48BEF2F
:1022D0009FEF909336178093351710923417109212
:1022E0003317033DE1E01E072CF4109234171092CF
:1022F000331714C0083382E0180784F088E290E0B6
:1023000090933A1780933917109236171092351719
:1023100085E090E0909334178093331780913917BC
:1023200090913A17883C9105B9F5603F7105A1F588
:10233000CC32A2E0DA073CF085E090E090933617CB
:102340008093351708C0C73CE1E0DE0744F41092E3
:102350003617109235171092341710923317033D29
:1023600081E018072CF4109234171092331714C020
:102370000833A2E01A0784F088EC90E090933A17B3
:1023800080933917109236171092351785E090E038
:1023900090933417809333178091391790913A179F
:1023A000449781F5603F710569F5CC32E2E0DE07C4
:1023B0003CF085E090E0909336178093351708C085
:1023C000C73C81E0D80744F41092361710923517B5
:1023D0001092341710923317033DE1E01E0714F0FA
:1023E0000C947F1B84E190E090933A178093391707
:1023F0008BEF9FEF9093341780933317109236171B
:10240000109235178091391790913A178C3D9105AC
:1024100081F5603F710569F5C73CE1E0DE073CF4FA
:102420008BEF9FEF909336178093351708C0CC320F
:1024300082E0D80744F010923617109235171092A8
:10244000341710923317033D81E0180714F00C94F1
:102450008B1B8CED90E090933A17809339178BEF9C
:102460009FEF909334178093331710923617109282
:1024700035178091391790913A17449781F5623D4D
:10248000710569F5CC32E2E0DE073CF085E090E0D2
:10249000909336178093351708C0C73C81E0D80762
:1024A00044F4109236171092351710923417109288
:1024B00033170833A2E01A0714F40C94971B84E135
:1024C00090E090933A178093391785E090E09093CD
:1024D0003417809333171092361710923517809166
:1024E000391790913A178C3D910581F5623D710540
:1024F00069F5C73CE1E0DE073CF48BEF9FEF90937A
:1025000036178093351708C0CC3282E0D80744F0E4
:102510001092361710923517109234171092331705
:102520000833E2E01E0714F40C94A31B8CED90E03A
:1025300090933A178093391785E090E09093341781
:1025400080933317109236171092351780913917F0
:1025500090913A178E36910571F5603F710559F5E6
:10256000C73CE1E0DE071CF48BEF9FEF06C0CC32E6
:1025700082E0D80754F085E090E09093361780937E
:1025800035171092341710923317033D81E0180766
:1025900014F00C94AF1B8EE690E090933A17809362
:1025A00039178BEF9FEF9093341780933317109266
:1025B0003617109235178091391790913A17823853
:1025C000910571F5603F710559F5C73CE1E0DE0703
:1025D0001CF48BEF9FEF06C0CC3282E0D80754F09A
:1025E00085E090E09093361780933517109234175A
:1025F00010923317033DA1E01A0714F00C94BB1B93
:1026000082E890E090933A17809339178BEF9FEF11
:102610009093341780933317109236171092351712
:102620008091391790913A178E36910581F5623D68
:10263000710569F5C73CE1E0DE073CF48BEF9FEFE5
:10264000909336178093351708C0CC3282E0D807B4
:1026500044F01092361710923517109234171092DA
:1026600033170833E2E01E0714F40C94C71B8EE600
:1026700090E090933A178093391785E090E090931B
:1026800034178093331710923617109235178091B4
:10269000391790913A178238910581F5623D71059D
:1026A00069F5CC32E2E0DE073CF085E090E0909303
:1026B00036178093351708C0C73C81E0D80744F42B
:1026C0001092361710923517109234171092331754
:1026D000083382E0180714F40C94D31B82E890E0CE
:1026E00090933A178093391785E090E090933417D0
:1026F000809333171092361710923517809139173F
:1027000090913A17CC9709F040C0615D7109633030
:102710007105D8F5CC32E2E0DE074CF082ED90E0B6
:10272000909338178093371785E090E00CC0C73C32
:1027300061E0D60784F482ED90E09093381780939F
:1027400037178BEF9FEF90933617809335171092C2
:102750003417109233170833A2E01A0714F00C94C0
:10276000DF1B033D81E0180784F48BEF9FEF90930C
:1027700034178093331710923617109235178CE365
:1027800090E090933A1780933917609139177091C0
:102790003A178091371790913817643B710589F586
:1027A000823D910571F5CC32A2E0DA071CF065E0BC
:1027B00070E006C0C73CE1E0DE0754F46BEF7FEF4A
:1027C00070933617609335171092341710923317A1
:1027D0000833E2E01E070CF0F6C7033D61E0160780
:1027E00084F46BEF7FEF709334176093331710927C
:1027F00036171092351764EB70E070933A176093B8
:1028000039176091391770913A176A357105C9F512
:10281000823D9105B1F5CC32A2E0DA071CF065E00B
:1028200070E006C0C73CE1E0DE0754F46BEF7FEFD9
:102830007093361760933517109234171092331730
:10284000083362E016074CF01092341710923317D9
:10285000109236171092351714C0033DA1E01A07E5
:1028600084F46AE570E070933A1760933917109218
:102870003617109235176BEF7FEF70933417609314
:1028800033176091391770913A1766397105A9F5B8
:10289000823D910591F5CC32E2E0DE071CF065E067
:1028A00070E006C0C73C61E0D60754F46BEF7FEFE1
:1028B00070933617609335171092341710923317B0
:1028C0000833A2E01A072CF0109236171092351731
:1028D00014C0033DE1E01E0784F466E970E07093E4
:1028E0003A176093391710923617109235176BEF1D
:1028F0007FEF70933417609333176091391770919D
:102900003A176A35710551F58A3B910539F5CC3294
:1029100062E0D6075CF065E070E070933617609374
:102920003517109234171092331708C0C73CA1E036
:10293000DA0724F41092361710923517B801635D48
:1029400071406536710550F06AE570E070933A1792
:102950006093391710923617109235176091391716
:1029600070913A176639710551F58A3B910539F531
:10297000C73CE1E0DE075CF46BEF7FEF7093361746
:1029800060933517109234171092331708C0CC3269
:1029900062E0D60724F01092361710923517B8016E
:1029A000635D71406536710550F066E970E07093C3
:1029B0003A176093391710923617109235176091B5
:1029C000391770913A176A35710551F5803A9105BA
:1029D00039F5C73CA1E0DA075CF46BEF7FEF709349
:1029E000361760933517109234171092331708C0BA
:1029F000CC32E2E0DE0724F0109236171092351741
:102A0000B801635D71406536710550F06AE570E0AC
:102A100070933A1760933917109236171092351742
:102A20006091391770913A176639710551F5803AFE
:102A3000910539F5CC3262E0D6075CF065E070E0D4
:102A4000709336176093351710923417109233171E
:102A500008C0C73CA1E0DA0724F4109236171092A0
:102A60003517B801635D71406536710550F066E950
:102A700070E070933A1760933917109236171092DE
:102A800035176091391770913A176C33710569F5F4
:102A9000803A910551F5CC32E2E0DE071CF065E0AA
:102AA00070E006C0C73C61E0D60754F46BEF7FEFDF
:102AB00070933617609335171092341710923317AE
:102AC000083362E016070CF481C66CE370E0709383
:102AD0003A176093391765E070E07093341760938C
:102AE000331710923617109235176091391770917D
:102AF0003A17643B710569F5803A910551F5CC327E
:102B0000E2E0DE071CF065E070E006C0C73C61E073
:102B1000D60754F46BEF7FEF709336176093351739
:102B200010923417109233170833A2E01A070CF4EE
:102B300063C664EB70E070933A176093391765E0F1
:102B400070E0709334176093331710923617109219
:102B500035176091391770913A17672BC9F5803A8C
:102B60009105B1F5CC32E2E0DE073CF065E070E0C3
:102B700070933617609335170EC0C73C61E0D607D7
:102B800074F4109236171092351760EF70E070935E
:102B90003A1760933917109234171092331708338D
:102BA000A2E01A074CF010923417109233171092CB
:102BB0003617109235170CC0033DE1E01E0744F4B0
:102BC000109236171092351710923417109233174F
:102BD0006091391770913A17603F7105B9F5803AE5
:102BE0009105A1F5CC3262E0D6074CF010923A176D
:102BF0001092391710923617109235170AC0C73C39
:102C0000A1E0DA0754F46BEF7FEF7093361760930F
:102C1000351710923417109233170833E2E01E076D
:102C20004CF01092341710923317109236171092FE
:102C300035170CC0033D61E0160744F410923617B7
:102C4000109235171092341710923317609139177C
:102C500070913A176A35710579F58238910561F5F9
:102C6000CC32A2E0DA0754F065E070E070933617DA
:102C70006093351710923417109233170833E2E03F
:102C80001E0754F06AE570E070933A1760933917A5
:102C90001092361710923517C73CE1E0DE0724F496
:102CA0001092361710923517033D61E0160724F491
:102CB00010923417109233176091391770913A17A8
:102CC0006639710579F58238910561F5C73CA1E057
:102CD000DA0754F46BEF7FEF709336176093351774
:102CE0001092341710923317083362E0160754F02D
:102CF00066E970E070933A176093391710923617AF
:102D000010923517CC32E2E0DE0724F0109236172D
:102D100010923517033D61E0160724F41092341722
:102D2000109233176091391770913A176E3671050A
:102D300011F582389105F9F4BE01675C7140653682
:102D4000710520F01092341710923317033DA1E063
:102D50001A070CF067C56EE670E070933A1760933F
:102D600039176BEF7FEF709334176093331710921E
:102D70003617109235176091391770913A176238EB
:102D8000710511F582389105F9F4BE01675C714057
:102D90006536710520F01092341710923317033DF9
:102DA000E1E01E070CF048C562E870E070933A1746
:102DB000609339176BEF7FEF70933417609333177D
:102DC00010923617109235176091391770913A1793
:102DD0006E36710549F58E36910531F5C73C61E0D7
:102DE000D6072CF4109234171092331708C0CC3247
:102DF000A2E0DA0724F01092361710923517083344
:102E000062E016070CF422C56EE670E070933A1784
:102E10006093391765E070E070933417609333174F
:102E200010923617109235176091391770913A1732
:102E30006238710549F58E36910531F5CC3262E084
:102E4000D6072CF0109234171092331708C0C73CE5
:102E5000A1E0DA0724F410923617109235170833E0
:102E6000A2E01A070CF4FCC462E870E070933A1711
:102E70006093391765E070E07093341760933317EF
:102E800010923617109235176091391770913A17D2
:102E90006A35710549F58E36910531F5CC3262E01F
:102EA000D6072CF0109234171092331708C0C73C85
:102EB000A1E0DA0724F41092361710923517033D7B
:102EC000E1E01E070CF0D6C46AE570E070933A1793
:102ED000609339176BEF7FEF70933417609333175C
:102EE00010923617109235176091391770913A1772
:102EF0006639710549F58E36910531F5C73C61E0BB
:102F0000D6072CF4109234171092331708C0CC3225
:102F1000A2E0DA0724F01092361710923517033D1D
:102F200061E016070CF0B0C466E970E070933A17E0
:102F3000609339176BEF7FEF7093341760933317FB
:102F400010923617109235176091391770913A1711
:102F50006431710549F58E36910531F5CC3262E068
:102F6000D6072CF0109234171092331708C0C73CC4
:102F7000A1E0DA0724F41092361710923517033DBA
:102F8000A1E01A070CF08AC464E170E070933A176C
:102F9000609339176BEF7FEF70933417609333179B
:102FA00010923617109235176091391770913A17B1
:102FB0006C3D710549F58E36910531F5C73C61E0F0
:102FC000D6072CF4109234171092331708C0CC3265
:102FD000A2E0DA0724F01092361710923517033D5D
:102FE000E1E01E070CF064C46CED70E070933A17DA
:102FF000609339176BEF7FEF70933417609333173B
:1030000010923617109235176091391770913A1750
:103010006C33710551F58E36910539F5C73C61E089
:10302000D6075CF46BEF7FEF70933617609335171C
:10303000109234171092331708C0CC32A2E0DA078E
:1030400024F01092361710923517B801635D714065
:103050006536710550F06CE370E070933A17609339
:1030600039171092361710923517609139177091F1
:103070003A17643B710551F58E36910539F5CC321E
:10308000E2E0DE075CF065E070E070933617609375
:103090003517109234171092331708C0C73C61E0FF
:1030A000D60724F41092361710923517B801635DD5
:1030B00071406536710550F064EB70E070933A171B
:1030C000609339171092361710923517609139179F
:1030D00070913A176431710551F58634910539F5CF
:1030E000CC32A2E0DA075CF065E070E0709336174E
:1030F00060933517109234171092331708C0C73CED
:10310000E1E0DE0724F41092361710923517B8016B
:10311000635D71406536710550F064E170E0709355
:103120003A1760933917109236171092351760913D
:10313000391770913A176C3D710551F58634910538
:1031400039F5C73C61E0D6075CF46BEF7FEF709315
:10315000361760933517109234171092331708C042
:10316000CC32A2E0DA0724F010923617109235170D
:10317000B801635D71406536710550F06CED70E02B
:1031800070933A17609339171092361710923517CB
:103190006091391770913A176C33710521F06A35D7
:1031A0007105D1F41DC086349105B1F40833E2E015
:1031B0001E071CF0E5E0F0E006C0033DA1E01A07A1
:1031C00054F5EBEFFFEFF0933417E09333171092C1
:1031D0003617109235171FC06E36710589F534C049
:1031E0008634910569F5083382E018075CF085E0C4
:1031F00090E0909334178093331710923617109203
:1032000035173DC0033DA1E01A07CCF510923417E5
:103210001092331734C0CC32A2E0DA070CF452C358
:1032200086E490E0909338178093371785E090E01C
:1032300090933617809335171092341710923317E6
:103240006238710589F534C08634910569F5033D0E
:1032500081E018075CF48BEF9FEF90933417809315
:103260003317109236171092351741C00833A2E079
:103270001A07ECF1109234171092331738C0CC3281
:10328000E2E0DE070CF42CC386E490E0909338175C
:103290008093371785E090E0909336178093351729
:1032A000109234171092331766397105A9F538C09A
:1032B00080913717909138178634910569F5033D51
:1032C00081E018075CF48BEF9FEF909334178093A5
:1032D0003317109236171092351742C00833A2E008
:1032E0001A07F4F1109234171092331739C0CC3208
:1032F00082E0D8070CF402C386E490E0909338177C
:103300008093371785E090E09093361780933517B8
:103310001092341710923317643B7105B1F53AC01F
:1033200080913717909138178634910571F50833DD
:1033300082E018075CF085E090E09093341780936A
:1033400033171092361710923517F4C2033DA1E0DF
:103350001A070CF0EFC21092341710923317EAC21A
:10336000CC32A2E0DA070CF4D7C286E490E0909366
:1033700038178093371785E090E090933617809345
:10338000351710923417109233176431710509F014
:1033900041C01DC080913717909138178634910530
:1033A000C9F5083362E016071CF085E090E006C01E
:1033B000033D81E0180724F58BEF9FEF90933417BE
:1033C00080933317109236171092351719C08091D9
:1033D0003717909138174E97E9F4CC32E2E0DE07C8
:1033E0002CF01092341710923317CDC2C73C61E015
:1033F000D6070CF0C8C21092361710923517C3C208
:10340000CC3262E0D6070CF09EC2C73CA1E0DA07DE
:103410000CF4A2C28091391790913A176091371736
:10342000709138178C33910521F0843B910529F573
:1034300028C06E31710509F50833A2E01A075CF067
:10344000E5E0F0E0F0933417E0933317109236176D
:103450001092351708C0033DE1E01E0724F41092D6
:10346000341710923317CC32A2E0DA070CF0A0C266
:10347000C73CA1E0DA070CF4A4C28C3D9105E1F54C
:103480001BC06E317105C1F50833E2E01E075CF028
:1034900085E090E09093341780933317109236179D
:1034A000109235171FC0033D61E01607DCF410923F
:1034B00034171092331716C06E317105E9F4C73C0A
:1034C000A1E0DA072CF4109234171092331790C24F
:1034D000CC32E2E0DE070CF48BC210923617109269
:1034E000351786C2CC32E2E0DE070CF061C2C73C81
:1034F00081E0D8070CF465C28091391790913A1792
:10350000E0913717F09138178E36910549F5EE3175
:10351000F10531F5C73C81E0D8072CF4109234173F
:103520001092331708C0CC32A2E0DA0724F01092D0
:10353000361710923517083382E018070CF46DC265
:103540008EE690E090933A178093391785E090E0EB
:1035500090933417809333171092361710923517C3
:103560008091391790913A178238910541F5EE31E3
:10357000F10529F5CC3282E0D8072CF010923417EF
:103580001092331707C0C73CD14024F4109236176D
:10359000109235170833A2E01A070CF448C282E8EB
:1035A00090E090933A178093391785E090E09093DC
:1035B0003417809333171092361710923517609195
:1035C000391770913A178091351790913617860FF9
:1035D000971F90933A178093391760913317709122
:1035E00034176E0F7F1F7093381760933717109240
:1035F000361710923517109234171092331784171C
:10360000950719F46217730711F00E94A3056AE089
:1036100070E080E090E0DF91CF911F910F910C94CA
:10362000122B033DA1E01A0714F00C942D0F8BEF21
:103630009FEF90933417809333170C942D0F08331A
:10364000A2E01A0714F40C949E0F86E990E0909380
:103650003A1780933917109236171092351785E074
:1036600090E090933417809333170C949E0F033D92
:1036700081E0180714F00C94421010923417109245
:1036800033170C944210033DA1E01A0714F00C9478
:103690007A1010923417109233170C947A10083362
:1036A000E2E01E0714F40C94B0101092341710923C
:1036B00033170C94B010083382E0180714F40C94FC
:1036C000E61010923417109233170C94E61008335A
:1036D000A2E01A0714F40C941B11109234171092E4
:1036E00033170C941B110833E2E01E0714F40C94FA
:1036F000511110923417109233170C945111083352
:10370000A2E01A0714F40C940212109234171092CB
:1037100033170C9402120833A2E01A0714F40C9425
:10372000391210923417109233170C943912033D4A
:10373000A1E01A0714F00C946F1210923417109233
:1037400033170C946F12033DA1E01A0714F00C9488
:10375000A61210923417109233170C94A612083345
:10376000A2E01A0714F40C94DB1210923417109292
:1037700033170C94DB120833A2E01A0714F40C94EC
:10378000101310923417109233170C941013033D3A
:10379000A1E01A0714F00C944713109234171092FA
:1037A00033170C944713033DA1E01A0714F00C944F
:1037B0007E1310923417109233170C947E1385E009
:1037C00090E00C94B71365E070E00DC8033DA1E0F4
:1037D0001A070CF08AC96CE370E070933A17609393
:1037E000391710923617109235176BEF7FEF7093E1
:1037F00034176093331779C9033DA1E01A070CF021
:10380000A8C964EB70E070933A176093391710926F
:103810003617109235176BEF7FEF70933417609364
:10382000331797C90833A2E01A070CF4A4CA109200
:103830003417109233179FCA0833E2E01E070CF4C6
:10384000C3CA1092341710923317BECA033DE1E089
:103850001E070CF0E9CA1092341710923317E4CA0D
:10386000033DE1E01E070CF00FCB109234171092CD
:1038700033170ACB0833E2E01E070CF435CB109265
:1038800034171092331730CB0833E2E01E070CF4E4
:103890005BCB109234171092331756CB0833E2E00B
:1038A0001E070CF481CB10923417109233177CCB87
:1038B0000833E2E01E070CF4A7CB109234171092E5
:1038C0003317A2CBC73CE1E0DE070CF085CC86E4E1
:1038D00090E090933817809337178BEF9FEFA8CC29
:1038E000C73CE1E0DE070CF0ABCC86E490E09093BF
:1038F0003817809337178BEF9FEFCECCC73CE1E0B2
:10390000DE070CF0D1CC86E490E0909338178093DA
:1039100037178BEF9FEFF8CCC73CE1E0DE070CF0E8
:10392000FBCC86E490E090933817809337178BEFA9
:103930009FEF23CDCC32E2E0DE072CF4C73CE1E080
:10394000DE0754F022CD86E490E090933817809300
:10395000371785E090E008C086E490E09093381730
:10396000809337178BEF9FEF90933617809335171F
:1039700005C0033D81E018070CF04CCD10923417C0
:103980001092331747CD083382E0180794F384E18F
:1039900090E090933A178093391785E090E09093E8
:1039A000341780933317109236171092351732CD93
:1039B0008EE190E0909338178093371785E090E080
:1039C00008C08EE190E090933817809337178BEF03
:1039D0009FEF909336178093351705C0033D61E044
:1039E00016070CF089CD109234171092331784CD3E
:1039F000083362E0160794F38CED90E090933A1749
:103A00008093391785E090E09093341780933317B3
:103A100010923617109235176FCD033D61E01607EF
:103A20000CF09ECD109234171092331799CD033DB0
:103A300011400CF0C4CD1092341710923317BFCD43
:103A4000CC32E2E0DE0724F01092361710923517E0
:103A5000083362E016073CF085E090E0909334175D
:103A60008093331708C0033D81E0180724F41092B7
:103A7000341710923317C73CA1E0DA0714F00C9406
:103A80003F0F8EE091E090933817809337178BEFBC
:103A90009FEF90933617809335171092341710923A
:103AA00033170C943F0F033DA1E01A0714F00C9458
:103AB000590F8BEF9FEF90933417809333170C942B
:103AC000590FCC32E2E0DE073CF01092341710922E
:103AD000331785E090E00AC0C73C61E0D60754F494
:103AE00010923417109233178BEF9FEF9093361785
:103AF00080933517083382E0180714F40C949E0F56
:103B00008AE590E0A4CDDF91CF911F910F910895A8
:103B1000CF92DF92EF92FF920F931F93CF93DF9399
:103B200068EE73E080E090E00E94122B81E090E06C
:103B3000A0E0B0E08093271790932817A09329174F
:103B4000B0932A17C6E0D2E063E070E080E090E036
:103B50000E9425336993799382E0CE32D807A1F78A
:103B6000C6E0D2E0699179914AE050E084EF97E1B4
:103B70000E94F92DA2E0CE32DA07A1F784EF97E197
:103B80000E94212D61E08DE00E944D2C61E08CE0CF
:103B90000E944D2C61E08BE00E944D2C68EE73E09A
:103BA00080E090E00E94122B60E08DE00E944D2C9E
:103BB00060E08CE00E944D2C60E08BE00E944D2C78
:103BC00060ED77E080E090E00E94122B01E010E0D1
:103BD00086E0E82E82E0F82EC0E0D0E0C017D107E2
:103BE00034F56701D701ED91FD917D01EE0FFF1FC7
:103BF000EA5AFC4F61E080810E944D2C6CEB72E030
:103C000080E090E00E94122BD601ED91FC91EE0F26
:103C1000FF1FEA5AFC4F60E080810E944D2C64EF48
:103C200071E080E090E00E94122B2196D7CFC0E097
:103C3000D0E0C017D10729F58E010F5F1F4F6091AB
:103C40002717709128178091291790912A170E94A1
:103C5000CA4420E030E040E05FE30E942F440E942D
:103C60009B4460932717709328178093291790938C
:103C70002A176CE271E080E090E00E94122BF12C98
:103C800002C0FF24F39488E00E947D2C892B51F41C
:103C9000FE01EE0FFF1FEA5FFD4F80819181892BAE
:103CA00009F460C087E00E947D2C892B51F4FE014D
:103CB000EE0FFF1FEA5FFD4F80819181019709F4AC
:103CC00068C083E00E947D2C892B51F4FE01EE0F29
:103CD000FF1FEA5FFD4F80819181029709F470C058
:103CE00088E00E947D2C892B51F4FE01EE0FFF1F0E
:103CF000EA5FFD4F80819181892B09F078C087E0D0
:103D00000E947D2C892B51F4FE01EE0FFF1FEA5F0C
:103D1000FD4F80819181019709F069C083E00E9485
:103D20007D2C892B51F4FE01EE0FFF1FEA5FFD4F42
:103D300080819181029709F05AC0F1107ACFC0E0DA
:103D400065E872E084EF97E10E94472DCC2309F4E7
:103D50003FCFDF91CF911F910F91FF90EF90DF90B8
:103D6000CF90089561E08DE00E944D2C21964AE0AD
:103D700050E0B80184EF97E10E94002E6CE271E000
:103D800080E090E00E94122B60E08DE00E944D2CBC
:103D900089CF61E08CE00E944D2C21964AE050E0F2
:103DA000B80184EF97E10E94002E6CE271E080E0A0
:103DB00090E00E94122B60E08CE00E944D2C81CF9D
:103DC00061E08BE00E944D2C21964AE050E0B80162
:103DD00084EF97E10E94002E6CE271E080E090E0B9
:103DE0000E94122B60E08BE00E944D2C79CF61E0A5
:103DF0008DE00E944D2C61E08CE00E944D2C61E032
:103E00008BE00E944D2C68EE73E080E090E00E9411
:103E1000122B61E08DE00E944D2C61E08CE00E944D
:103E20004D2C60E08BE00E944D2C68EE73E080E04A
:103E300090E00E94122B61E08DE00E944D2C60E02A
:103E40008CE00E944D2C60E08BE00E944D2C68EECF
:103E500073E080E090E00E94122B60E08DE00E9411
:103E60004D2C60E08CE00E944D2C60E08BE00E94C5
:103E70004D2C68EE73E080E090E00E94122B61E030
:103E80008DE00E944D2C61E08CE00E944D2C61E0A1
:103E90008BE00E944D2C64EF71E080E090E00E9486
:103EA000122B60E08DE00E944D2C60E08CE00E94BF
:103EB0004D2C60E08BE00E944D2C64EF71E080E0BF
:103EC00090E00E94122B61E08DE00E944D2C61E099
:103ED0008CE00E944D2C61E08BE00E944D2C64EF41
:103EE00071E080E090E00E94122B60E08DE00E9483
:103EF0004D2C60E08CE00E944D2C60E08BE00E9435
:103F00004D2C6AE872E084EF97E10E94472D6CE245
:103F100071E080E090E00E94122BC1E011CFEF929F
:103F2000FF920F93CF93DF932FEF49E06AE082E592
:103F300097E10E94763B8CE2E82EFF24F39405E0A3
:103F400029E348E364E08EE397E10E945B40C5ED1E
:103F5000D3E06DE273E0CE010E948B2E299687E0BC
:103F6000C935D807B1F7C0ECD3E06DE273E0CE01FC
:103F70000E948B2E279683E0C53DD807B1F7DF91CD
:103F8000CF910F91FF90EF900895CF93DF938EEC38
:103F900093E00E941D2E87EC93E00E941D2E80EC82
:103FA00093E00E941D2EC9E5D7E02997CE010E941B
:103FB0001D2E83E0C53DD807C1F7DF91CF9108954D
:103FC000EF92FF920F931F93EE24EA94FE2C00EFE2
:103FD00010E024EB30E040EF50E06CE370E082E56D
:103FE00097E10E941B350EE011E02CE330E040EF3A
:103FF00050E06CE370E082E597E10E941B3524EB12
:1040000030E040EF50E064EB70E082E597E10E9421
:104010001B3524E130E04EE051E06CE370E082E5D6
:1040200097E10E941B352CED30E04EE051E064EB4F
:1040300070E082E597E10E941B350CE211E024E17B
:1040400030E04EE051E064E170E082E597E10E94EB
:104050001B352CED30E04EE051E06CED70E082E578
:1040600097E10E941B352CED30E04CE251E064E119
:1040700070E082E597E10E941B350EE011E02AE531
:1040800030E040EF50E06AE570E082E597E10E94A1
:104090001B3526E930E040EF50E066E970E082E54C
:1040A00097E10E941B352EE630E04EE051E06AE5D4
:1040B00070E082E597E10E941B3522E830E04EE097
:1040C00051E066E970E082E597E10E941B350CE261
:1040D00011E02EE630E04EE051E06EE670E082E561
:1040E00097E10E941B3522E830E04EE051E062E8A3
:1040F00070E082E597E10E941B3502ED10E02EE6AC
:1041000030E040EF50E06EE670E082E597E10E941B
:104110001B3522E830E040EF50E062E870E082E5D5
:1041200097E10E941B3524E130E042ED50E06EE65D
:1041300070E082E597E10E941B352CED30E042ED06
:1041400050E062E870E082E597E10E941B3500EFE5
:1041500010E024E130E042ED50E064E170E082E5FF
:1041600097E10E941B352CED30E042ED50E06CED04
:1041700070E082E597E10E941B3528E230E040EFD5
:1041800050E064E170E082E597E10E941B3528EC85
:1041900030E040EF50E06CED70E082E597E10E9486
:1041A0001B350EE011E028E230E040EF50E068E21D
:1041B00070E082E597E10E941B3528EC30E040EF8B
:1041C00050E068EC70E082E597E10E941B350EE15B
:1041D00010E02CE330E040EF50E06CE370E082E56B
:1041E00097E10E941B3524EB30E040EF50E064EB98
:1041F00070E082E597E10E941B352EE630E04EE14B
:1042000050E064E170E082E597E10E941B352CEDFF
:1042100030E04EE150E062E870E082E597E10E9414
:104220001B3506E410E02EE630E04EE150E06EE68D
:1042300070E082E597E10E941B3522E830E04EE114
:1042400050E062E870E082E597E10E941B350EE6DF
:1042500010E024E130E04EE150E064E170E082E5FE
:1042600097E10E941B352CED30E04EE150E06CED03
:1042700070E082E597E10E941B3506E410E02CED2A
:1042800030E046E450E064E170E082E597E10E94AE
:104290001B350EE610E02CE330E04EE650E064E122
:1042A00070E082E597E10E941B352CED30E04EE690
:1042B00050E064EB70E082E597E10E941B352AE54F
:1042C00030E046E450E06AE570E082E597E10E9464
:1042D0001B3526E930E046E450E066E970E082E50F
:1042E00097E10E941B352EE630E04EE650E06AE58D
:1042F00070E082E597E10E941B3526E930E04EE64A
:1043000050E062E870E082E597E10E941B3590EE94
:10431000E92EFF24FA9400EA10E02AE530E040EAB2
:1043200050E060E070E082E597E10E941B3520EFED
:1043300030E040EA50E066E970E082E597E10E94F3
:104340001B3502ED10E02AE530E042E850E06AE576
:1043500070E082E597E10E941B3526E930E042E8F3
:1043600050E066E970E082E597E10E941B3502E8C3
:1043700010E026E930E042E850E06AE570E082E5CE
:1043800097E10E941B352EE630E04EE650E06EE6E7
:1043900070E082E597E10E941B3522E830E04EE6AE
:1043A00050E062E870E082E597E10E941B350AEB7D
:1043B00010E026E930E04AEB50E06AE570E082E583
:1043C00097E10E941B351F910F91FF90EF90089588
:1043D00080912E0281110E94B0070E94E01F6AE0C6
:1043E00070E080E090E00C94122B0E94382B40E8A3
:1043F00055E260E070E084EF97E10E94CB3184EFFA
:1044000097E10E949C2F62E082E00E94112C40E024
:1044100050E0BA0182E597E10E94373C61E08DE00F
:104420000E94112C61E08CE00E94112C61E08BE075
:104430000E94112C60E088E00E94112C61E088E06D
:104440000E944D2C60E087E00E94112C61E087E023
:104450000E944D2C60E083E00E94112C61E083E01B
:104460000E944D2C60E08DE00E944D2C60E08CE0BD
:104470000E944D2C60E08BE00C944D2C82E00E9459
:104480007D2C892B69F468E872E084EF97E10E9443
:10449000472D84EF97E10E949C2F81E080933B178A
:1044A0000895CF92DF92EF92FF920F931F93CF93D5
:1044B000DF9360E070E082E597E10E94FD3461E9FE
:1044C00072E084EF97E10E94472D40E060E070E0E9
:1044D00080E090E00E94470410E000E0C0E0D0E0FF
:1044E00086E30E949A2B7C0182E00E947D2C6C0165
:1044F00080E4E81682E0F8063CF02196C330D1054E
:1045000064F0C0E0D0E009C081ECE81681E0F80674
:1045100064F4219710F4C2E0D0E040E0612F702FE6
:10452000CE010E9447041C2F0D2FCD2831F4CE015F
:104530000E94ED04FF24F39401C0F12C64E670E0C6
:1045400080E090E00E94122BFF2051F2DF91CF918A
:104550001F910F91FF90EF90DF90CF9008950F93F0
:104560001F93CF93DF93EC018B0160E070E082E555
:1045700097E10E94FD344AE0B801CE010E94D92E95
:1045800040E550E06AE070E082E597E10E942E3A53
:1045900062E082E597E10E94343A4FEF5FEF60E01E
:1045A00070E082E597E10E943A3A6AE972E082E5BA
:1045B00097E10E94182DBE0182E597E10E94352DFA
:1045C000CE01DF91CF911F910F910895AF92BF92CD
:1045D000CF92DF92EF92FF920F931F93CF93DF93CF
:1045E000CDB7DEB72E970FB6F894DEBF0FBECDBFA6
:1045F0005C0160E070E082E597E10E94FD3440E0FC
:1046000050E060E070E082E597E10E942E3A61E0C0
:1046100082E597E10E94343A40E050E06FEF7FEF8F
:1046200082E597E10E943A3A67EA72E082E597E113
:104630000E94182D40E050E062E370E082E597E1CF
:104640000E942E3A61E082E597E10E94343A6CEADA
:1046500072E082E597E10E94182D40E050E064EBA3
:1046600070E082E597E10E942E3A61E082E597E1F1
:104670000E94343A65EB72E082E597E10E94182DC2
:1046800085EDE82E83E0F82E08E010E0C12CD12C57
:1046900081E0A81AB108CA14DB040CF06EC0EFEF79
:1046A000CE1ADE0A4AE0B601CE0108960E94D92E43
:1046B000A80160E070E082E597E10E942E3A61E097
:1046C00082E597E10E94343ABE01685F7F4F82E540
:1046D00097E10E94E32CA80162E370E082E597E194
:1046E0000E942E3A61E082E597E10E94343AB701D8
:1046F00082E597E10E94E32CA80164EB70E082E57B
:1047000097E10E942E3A61E082E597E10E94343AF7
:10471000F701678170854AE0CE0101960E94062F5D
:10472000BE016F5F7F4F82E597E10E94352D6BEBF5
:1047300072E084EF97E10E94182DB70184EF97E1B2
:104740000E94E32C62EC72E084EF97E10E94182D46
:10475000BE016F5F7F4F84EF97E10E94352DCE0140
:1047600001960E941D2ECE0108960E941D2E085F04
:104770001F4FF9E0EF0EF11C8ECF2E960FB6F89476
:10478000DEBF0FBECDBFDF91CF911F910F91FF9084
:10479000EF90DF90CF90BF90AF900895EF92FF928F
:1047A0000F931F9360E070E082E597E10E94FD3473
:1047B00040E550E06AE070E082E597E10E942E3A21
:1047C00064E082E597E10E94343A40EE5FEF60E0FA
:1047D00070E082E597E10E943A3A6BEC72E082E584
:1047E00097E10E94472DE12C88EFF82E02E110E0BE
:1047F00023E130E047EC50E06CE370E082E597E1C4
:104800000E941F3B0EE010E021E130E046EC50E05A
:104810006DE370E082E597E10E941F3BEE24EA948D
:10482000FE2C07E010E026E030E047EC50E06FE3BC
:1048300070E082E597E10E941F3B26E030E047EC04
:1048400050E065E470E082E597E10E941F3BE12CB7
:10485000F12C04E010E024E030E048EC50E061E4AA
:1048600070E082E597E10E941F3B24E030E048ECD5
:1048700050E067E470E082E597E10E941F3BEE2480
:10488000EA9427E0F22E02E110E023E130E047EC69
:1048900050E06AE570E082E597E10E941F3B0EE080
:1048A00010E021E130E046EC50E06BE570E082E59D
:1048B00097E10E941F3BEE24EA94FE2C07E010E0F3
:1048C00026E030E047EC50E06DE570E082E597E1EE
:1048D0000E941F3B26E030E047EC50E063E670E0CA
:1048E00082E597E10E941F3BE12CF12C04E010E0EF
:1048F00024E030E048EC50E06FE570E082E597E1BD
:104900000E941F3B24E030E048EC50E065E670E098
:1049100082E597E10E941F3B4FE1E42E48EFF42E21
:1049200002E110E023E130E047EC50E068E770E09E
:1049300082E597E10E941F3B0EE010E021E130E0AC
:1049400046EC50E069E770E082E597E10E941F3B8A
:10495000EE24EA94FE2C07E010E026E030E047EC7D
:1049600050E06BE770E082E597E10E941F3B26E094
:1049700030E047EC50E061E870E082E597E10E94AA
:104980001F3BE12CF12C04E010E024E030E048EC87
:1049900050E06DE770E082E597E10E941F3B24E064
:1049A00030E048EC50E063E870E082E597E10E9477
:1049B0001F3B60E2E62E6DEFF62E02E110E023E1F0
:1049C00030E047EC50E066E970E082E597E10E9454
:1049D0001F3B0EE010E021E130E046EC50E067E9DB
:1049E00070E082E597E10E941F3BEE24EA94FE2CE2
:1049F00007E010E026E030E047EC50E069E970E0C5
:104A000082E597E10E941F3B26E030E047EC50E052
:104A10006FE970E082E597E10E941F3BE12CF12CE9
:104A200004E010E024E030E048EC50E06BE970E096
:104A300082E597E10E941F3B24E030E048EC50E023
:104A400061EA70E082E597E10E941F3B00EE1FEFF4
:104A500029E030E04FEC50E060EC70E082E597E157
:104A60000E94FB3648E151E068E270E082E597E1A0
:104A70000E942E3A61E082E597E10E94343A40E0DC
:104A800050E060EE7FEF82E597E10E943A3A65EDF3
:104A900072E082E597E10E94472D82E00E947D2C22
:104AA000892BD9F71F910F91FF90EF900895EF9206
:104AB000FF920F931F93CF93DF9360E070E082E546
:104AC00097E10E94FD34C8E7D0E0D0933A17C09335
:104AD000391780EF90E0909338178093371700EEE6
:104AE0001FEF27E030E040EF50E068E770E082E53C
:104AF00097E10E94FB368FE1E82EF12C04E010E0F4
:104B000020EF30E046E351E060E070E082E597E1BD
:104B10000E941F3B20EF30E04AE050E060E070E090
:104B200082E597E10E941F3B0EE110E023E030E0B8
:104B30004AE050E060E070E082E597E10E941F3BB0
:104B40000E94E01F61E082E597E10E94343A60E054
:104B500082E597E10E94403A80912E02882309F471
:104B60007CC080EA90E090931E1780931D1728EC7C
:104B700030E030931C1720931B17D0931A17C09363
:104B80001917309318172093171724E630E0309345
:104B900016172093151746E450E0509314174093CE
:104BA00013179093121780931117309310172093B7
:104BB0000F1710920E1710920D1790930C178093E9
:104BC0000B1700E018EF27E030E048EC50E060EA17
:104BD00070E082E597E10E94FB36409117175091F3
:104BE00018176091191770911A170FE118EF27E045
:104BF00030E082E597E10E94FB3640911317509117
:104C0000141760911517709116170FEF17E027E032
:104C100030E082E597E10E94FB3640910F175091FA
:104C20001017609111177091121700E21DEF27E025
:104C300030E082E597E10E94FB3640910B175091DE
:104C40000C1760910D1770910E170FEF1FEF27E0F3
:104C500030E082E597E10E94FB36DF91CF911F9112
:104C60000F91FF90EF9008952F923F924F925F9295
:104C70006F927F928F929F92AF92BF92CF92DF926C
:104C8000EF92FF920F931F93CF93DF93CDB7DEB7D1
:104C9000A2970FB6F894DEBF0FBECDBF82E00E9490
:104CA0007D2C8C0186E30E949A2B87E30E949A2B2D
:104CB0008091251790912617019709F066C0809181
:104CC000590790915A07883C91050CF05EC061E04D
:104CD0008CE00E944D2C8091590790915A0724E155
:104CE000289FF001299FF00D1124E55AF84F4091BB
:104CF000391750913A17518340834091371750919B
:104D000038175383428340911D1750911E175583C6
:104D1000448340911B1750911C1757834683409141
:104D2000191750911A1751874087409117175091C2
:104D300018175387428740911517509116175587BA
:104D40004487409113175091141757874687409115
:104D5000111750911217518B408B40910F175091A2
:104D60001017538B428B0196289FF001299FF00D5D
:104D70001124E55AF84F20910D1730910E17318309
:104D8000208390935A07809359078091251790911B
:104D90002617009779F4012B89F461EF72E084EF14
:104DA00097E10E94472D81E090E090932617809331
:104DB0002517CBC1019711F4012B41F080915907C0
:104DC00090915A078336910509F0DDC16BEF72E0CF
:104DD00084EF97E10E94472D109226171092251715
:104DE00003E010E061E08DE00330110541F40E9422
:104DF0004D2C61E08CE00E944D2C61E00EC0023031
:104E0000110521F40E944D2C61E003C00E944D2C3D
:104E100060E08CE00E944D2C60E08BE00E944D2C05
:104E20006AE073E084EF97E10E94182D4AE050E0B9
:104E3000B80184EF97E10E94F92D6EE173E084EFF1
:104E400097E10E94472D0150110968EE73E080E060
:104E500090E00E94122B0115110521F660E08DE013
:104E60000E944D2C60E08CE00E944D2C60E08BE0B5
:104E70000E944D2CE0905907F0905A0784E18E9DD6
:104E800080018F9D100D1124C801855A984F9AA357
:104E900089A3F7FCBCC0E9A1FAA10081118182813C
:104EA00093819C838B8394819D87E581EE87E9A123
:104EB000FAA1F681FF87E9A1FAA1F781F88BE9A1B0
:104EC000FAA1F085F98BE9A1FAA1F185FA8BE9A1A4
:104ED000FAA1F285FB8BE9A1FAA1F385FC8BE9A18C
:104EE000FAA1F485FD8BE9A1FAA1F585FE8BE9A174
:104EF000FAA1F685FF8BE9A1FAA1F785F88FE9A160
:104F0000FAA1F089F98FE9A1FAA1F189FA8FE9A153
:104F1000FAA1F289FB8FE9A1FAA1F389FC8FE9A13B
:104F2000FAA1F489FD8FE9A1FAA1F589FE8F8981A3
:104F30009A810817190729F4EB81FC81EC15FD050E
:104F4000A9F1960149815A816B817C81C8010E9437
:104F5000A3059201A3016F8578898D859E850E94A6
:104F6000C6059401A5016B897C8989899A890E946B
:104F7000E9052F8138854D815E816F89788D8D8916
:104F80009E890E940C062B853C8549855A856B8D30
:104F90007C8D898D9A8D0E942F0620EA30E0A10138
:104FA00060EA70E08D8D9E8D0E9452060E94E01F87
:104FB0006CE370E080E090E00E94122BF1E0EF1AC9
:104FC000F10889A19AA144979AA389A32F8E38A2A8
:104FD0002D8C3E8C9B8D9B87EC8DEC87F98DF98712
:104FE0008A8D8A879F899F83E88DE887FD89FD8365
:104FF0008E898E838B889C88A988BA884F8458882C
:105000006D847E84CB80DC801A83098342CF10922A
:105010005A071092590780915B0790915C07909313
:105020003A178093391780915D0790915E079093AE
:1050300038178093371780915F079091600790939E
:105040001E1780931D1780916107909162079093BE
:105050001C1780931B1780916307909164079093AE
:105060001A1780931917809165079091660790939E
:10507000181780931717809167079091680790938E
:105080001617809315178091690790916A0790937E
:1050900014178093131780916B0790916C0790936E
:1050A00012178093111780916D0790916E0790935E
:1050B000101780930F1780916F079091700790934E
:1050C0000E1780930D17E12CF12C02E211E020EF76
:1050D00030E044E150E060E070E082E597E10E945A
:1050E0001F3B960149815A81B601CA010E94A3055E
:1050F0009201A301B201C3010E94C6059401A5015A
:10510000B401C5010E94E9052F8138854D815E817A
:10511000B901CA010E940C062B853C8549855A8538
:10512000B901CA010E942F0620EA30E04F8D58A134
:1051300060EA70E0C1010E9452060E94E01F65E82B
:1051400072E084EF97E10E94472D64EF71E080E008
:1051500090E0A2960FB6F894DEBF0FBECDBFDF91F0
:10516000CF911F910F91FF90EF90DF90CF90BF9064
:10517000AF909F908F907F906F905F904F903F90F7
:105180002F900C94122BA2960FB6F894DEBF0FBE90
:10519000CDBFDF91CF911F910F91FF90EF90DF90E6
:1051A000CF90BF90AF909F908F907F906F905F90C7
:1051B0004F903F902F900895CF92DF92EF92FF9201
:1051C0000F931F93CF93DF93CDB7DEB7C250D2407A
:1051D0000FB6F894DEBF0FBECDBF8E010F5F1F4F1D
:1051E00068017601E01AF10A84EF97E10E94502FDE
:1051F000892BD1F384EF97E10E947C2FF6018193F4
:105200006F018A3071F7F801EE0DFF1D10826FEE0D
:1052100072E0C8010E94A343FC0180818E3479F5BD
:105220006FEE72E080E090E00E94A343BC01CE01EB
:105230008B509E4F0E948B2ECE018B509E4F0E9412
:10524000442F709305026093040284EF97E10E945B
:105250009C2F6BE273E084EF97E10E94182D48EEDB
:1052600053E060E070E084EF97E10E94172E84EF36
:1052700097E10E949C2FCE018B509E4F67C08735CF
:1052800009F067C06FEE72E080E090E00E94A343F7
:10529000BC01CE0184509E4F0E948B2E6FEE72E0B7
:1052A00080E090E00E94A343BC01CE018B509E4F52
:1052B0000E948B2ECE018B509E4F0E94442F6B017B
:1052C0007C012091BE033091BF0319E0129FC00101
:1052D000139F900D1124BE0164507E4F8B529C4F42
:1052E0000E94A12E8091BE039091BF03189FF001F0
:1052F000199FF00D1124EB52FC4FD086C78284EF2A
:1053000097E10E949C2F6BE273E084EF97E10E948B
:10531000182D48EE53E060E070E084EF97E10E94C2
:10532000172E84EF97E10E949C2F8091BE039091ED
:10533000BF0301969093BF038093BE03CE018B50B1
:105340009E4F0E941D2ECE0184509E4F0E941D2E06
:1053500005C0853419F481E080933C17CE5FDD4FA2
:105360000FB6F894DEBF0FBECDBFDF91CF911F9176
:105370000F91FF90EF90DF90CF900895CF93DF9340
:1053800030913D1720913C1731111CC0211120C0D4
:10539000EC0165EB72E084EF97E10E94182D6FEE4F
:1053A00072E084EF97E10E94182DBE0184EF97E12F
:1053B0000E94352D84EF97E10E949C2F81E080931D
:1053C0003D1706C0211104C0DF91CF910C94DC2859
:1053D000DF91CF910895CF93DF93CDB7DEB72E97AE
:1053E0000FB6F894DEBF0FBECDBF88EE882E83E0E7
:1053F000982EA12CB12C10923B1710923C171092B2
:105400003D171092BF031092BE030E94F5210E9427
:10541000CE230E9435040E9451220E94E12A2B01D2
:105420003C010E9457250E94F9090E94E8210E9430
:1054300066050E9434268091231790912417892BAA
:1054400091F70E94E12A6B017C01C418D508E60897
:10545000F7086EE273E084EF97E10E94472DC701E1
:10546000B601A50194010E94784520932F1730932F
:10547000301740933117509332170E94881D2091A6
:105480002717309128174091291750912A176091BA
:105490002F177091301780913117909132170E9419
:1054A00068459B01AC0160912B1770912C1780917E
:1054B0002D1790912E170E946845CE0108960E94E4
:1054C000AF2267E373E084EF97E10E94472D80915C
:1054D0003C17811110C0BE01685F7F4FCE0101965D
:1054E0000E94B82ECE0101960E94BE29CE010196DF
:1054F0000E941D2EECCF65E473E084EF97E10E94DB
:10550000472D80910402909105020E94E62280912D
:105510003B17811103C00E943E22F9CF84EF97E12F
:105520000E949C2FCE0108960E941D2E64CF1F92D0
:105530000F920FB60F9211242F933F938F939F9347
:10554000AF93BF938091861790918717A09188178A
:10555000B09189173091851723E0230F2D3720F460
:105560000196A11DB11D05C026E8230F0296A11DBD
:10557000B11D209385178093861790938717A0936A
:105580008817B093891780918A1790918B17A091F3
:105590008C17B0918D170196A11DB11D80938A17AC
:1055A00090938B17A0938C17B0938D17BF91AF91E9
:1055B0009F918F913F912F910F900FBE0F901F9051
:1055C00018952FB7F894609186177091871780917E
:1055D0008817909189172FBF08953FB7F89480914D
:1055E0008A1790918B17A0918C17B0918D1726B5C3
:1055F000A89B05C02F3F19F00196A11DB11D3FBF0B
:10560000BA2FA92F982F8827820F911DA11DB11D98
:10561000BC01CD0142E0660F771F881F991F4A9594
:10562000D1F70895CF92DF92EF92FF92CF93DF935D
:105630006B017C010E94ED2AEB01C114D104E1044D
:10564000F10479F00E94ED2A6C1B7D0B683E7340DB
:10565000A0F381E0C81AD108E108F108C851DC4F75
:10566000ECCFDF91CF91FF90EF90DF90CF90089536
:10567000789484B5826084BD84B5816084BD85B52D
:10568000826085BD85B5816085BDEEE6F0E08081F4
:1056900081608083E1E8F0E0108280818260808315
:1056A000808181608083E0E8F0E080818160808398
:1056B000E1EBF0E0808184608083E0EBF0E08081CA
:1056C00081608083E1E9F0E0808182608083808175
:1056D00081608083E0E9F0E0808181608083E1EA9D
:1056E000F0E0808182608083808181608083E0EA55
:1056F000F0E0808181608083E1E2F1E0808182607E
:105700008083808181608083E0E2F1E0808181603C
:105710008083EAE7F0E0808184608083808182601A
:105720008083808181608083808180688083109203
:10573000C1000895863308F0865390917B00282F8E
:105740002870977F922B90937B00877020912F0277
:1057500090E4299F90011124822B80937C008091FA
:105760007A00806480937A0080917A0086FDFCCF75
:10577000809178002091790090E0922B089590E03C
:10578000FC013197E131F10508F04AC08827EE5855
:10579000FF4F8F4F0C94B945809180008F7703C0E5
:1057A000809180008F7D80938000089584B58F77ED
:1057B00002C084B58F7D84BD08958091B0008F773D
:1057C00003C08091B0008F7D8093B00008958091D8
:1057D00090008F7707C0809190008F7D03C08091EB
:1057E0009000877F8093900008958091A0008F772C
:1057F00007C08091A0008F7D03C08091A000877FAB
:105800008093A0000895809120018F7707C0809138
:1058100020018F7D03C080912001877F809320012C
:105820000895CF93DF9390E0FC01EC5DFD4F249150
:10583000FC01E659FD4F8491882361F190E0880FC7
:10584000991FFC01EC51FD4FC591D491FC01E65329
:10585000FD4FA591B491611109C09FB7F89488815B
:10586000209582238883EC912E230BC0623061F453
:105870009FB7F8943881822F809583238883EC9199
:105880002E2B2C939FBF06C08FB7F894E8812E2B48
:1058900028838FBFDF91CF9108951F93CF93DF931C
:1058A000282F30E0F901E252FE4F8491F901EC5DBE
:1058B000FD4FD491F901E659FD4FC491CC23C9F0B5
:1058C000162F81110E94BF2BEC2FF0E0EE0FFF1F6F
:1058D000E653FD4FA591B4918FB7F894111105C00F
:1058E0009C91ED2FE095E92302C0EC91ED2BEC9318
:1058F0008FBFDF91CF911F910895CF93DF93282F12
:1059000030E0F901E252FE4F8491F901EC5DFD4F68
:10591000D491F901E659FD4FC491CC2391F0811146
:105920000E94BF2BEC2FF0E0EE0FFF1FE055FD4F64
:10593000A591B491EC91ED2381E090E021F480E019
:1059400002C080E090E0DF91CF910895CF92DF9286
:10595000EF92FF920F931F93CF93DF936C01EB01B4
:105960007B01E40EF51E00E010E0CE15DF0561F0CE
:105970006991D601ED91FC910190F081E02DC60175
:105980001995080F191FF1CFC801DF91CF911F9111
:105990000F91FF90EF90DF90CF9008956115710502
:1059A00079F0FB0101900020E9F73197AF01461B28
:1059B000570BDC01ED91FC910280F381E02D1994ED
:1059C00080E090E00895AF92BF92CF92DF92EF9285
:1059D000FF920F931F93CF93DF936C017B01C0E085
:1059E000D0E000E010E0D70114968D919C911597BE
:1059F000C817D90788F4D601ED91FC91A080B18039
:105A0000BE01C7010E94332F682FC601F501199509
:105A1000080F191F2196E7CFC801DF91CF911F9181
:105A20000F91FF90EF90DF90CF90BF90AF900895CF
:105A30000C94CE2CDC01ED91FC910190F081E02DD5
:105A400019940F931F93CF93DF93EC016DE00E94A5
:105A50001A2D8C016AE0CE010E941A2D800F911F31
:105A6000DF91CF911F910F9108950F931F93CF93C3
:105A7000DF93EC010E94E32C8C01CE010E94212DCA
:105A8000800F911FDF91CF911F910F9108950F9378
:105A90001F93CF93DF93EC010E94CE2C8C01CE019B
:105AA0000E94212D800F911FDF91CF911F910F91A7
:105AB00008958F929F92AF92BF92CF92DF92EF9212
:105AC000FF920F931F93CF93DF93CDB7DEB7A197CC
:105AD0000FB6F894DEBF0FBECDBF6C01142FE52FBB
