:100000000C94FF030C9430040C9430040C943004D2
:100010000C9430040C9430040C9430040C94300490
:100020000C9430040C9430040C9430040C94300480
:100030000C9430040C9430040C9430040C94300470
:100040000C9430040C9430040C9430040C94300460
:100050000C9430040C9430040C9430040C94E81686
:100060000C9430040C94091A0C94D51A0C94300496
:100070000C9430040C9430040C9430040C94300430
:100080000C9430040C9430040C9430040C94300420
:100090000C943C1A0C94141B0C9430040C943004F3
:1000A0000C9430040C9430040C9430040C94300400
:1000B0000C9430040C9430040C9430040C943004F0
:1000C0000C9430040C9430040C9430040C946F1A8B
:1000D0000C94531B0C9430040C94A21A0C94921B95
:1000E0000C9430041B181E181118151855182218D6
:1000F00026182C18301834183A183E18421855187B
:1001000048184C1850180C94C1240C94731F0C946C
:100110001B180C943A180C9434180C9430180C9446
:10012000F41D0C9439250C9456190C9455280C94F4
:10013000E81D0C941F240C94D51D0C94041E0C94E3
:1001400009280C943E180C948E1E0C94C8290C940B
:1001500042180C94051E0C9455180C942C180C94F1
:100160002B1D0C94DF1E0C94591C0C94FB240C9436
:10017000FD1E0C944C180C9482190C9450180C947D
:1001800026180C9451240C94AD190C94DC1D0C947D
:100190002A240C94D31F0C941E180C944A1E0C9401
:1001A000EB180C94D21F0C9448180C94D41D0C948A
:1001B0004D290C9455190C9415180C9422180C9474
:1001C00094070C9466190C943A230C943E240C94D6
:1001D000A2190C9411180C9487240000090A020833
:1001E0000B0C0D07060304010000000000000000D6
:1001F00000000000000000000000000000000000FF
:1002000000000000000011100F00000000000000BE
:1002100000000000000000000000000000000000DE
:100220000102102020080810204010204080020108
:1002300002010804020101020408102040808040ED
:1002400020100804020180040201804020100804EC
:10025000020108040201010204081020408001028A
:100260000408102040800505050507050808080852
:10027000020202020A0A080804040404010101013E
:100280000101010103030303030303030407070739
:100290000C0C0C0C0C0C0C0C0202020206060606DE
:1002A000060606060B0B0B0B0B0B0B0B00002000BE
:1002B0002300260029002C002F003200000100003E
:1002C00003010601090100002200250028002B007F
:1002D0002E003100340002010000050108010B016D
:1002E00000002100240027002A002D0030003300E8
:1002F00001010000040107010A0100000000003EA6
:100300005B4F5B3E3E6B4F6B3E1C3E7C3E1C183C85
:100310007E3C181C577D571C1C5E7F5E1C00183CE1
:100320001800FFE7C3E7FF0018241800FFE7DBE72A
:10033000FF30483A060E2629792926407F05050711
:10034000407F05253F5A3CE73C5A7F3E1C1C08086D
:100350001C1C3E7F14227F22145F5F005F5F060932
:100360007F017F006689956A606060606094A2FF8B
:10037000A29408047E040810207E201008082A1C7D
:1003800008081C2A08081E101010100C1E0C1E0C49
:1003900030383E3830060E3E0E06000000000000E9
:1003A000005F00000007000700147F147F14242A58
:1003B0007F2A12231308646236495620500008072A
:1003C0000300001C2241000041221C002A1C7F1C4B
:1003D0002A08083E0808008070300008080808084D
:1003E000000060600020100804023E5149453E00B4
:1003F000427F400072494949462141494D33181412
:10040000127F1027454545393C4A49493141211160
:1004100009073649494936464949291E0000140052
:100420000000403400000008142241141414141475
:10043000004122140802015909063E415D594E7CD3
:100440001211127C7F494949363E414141227F4188
:1004500041413E7F494949417F090909013E4141E6
:1004600051737F0808087F00417F41002040413FD1
:10047000017F081422417F404040407F021C027FE0
:100480007F0408107F3E4141413E7F090909063E35
:100490004151215E7F091929462649494932030104
:1004A0007F01033F4040403F1F2040201F3F403816
:1004B000403F631408146303047804036159494DF1
:1004C00043007F4141410204081020004141417F27
:1004D000040201020440404040400003070800209D
:1004E000545478407F28444438384444442838449D
:1004F00044287F385454541800087E090218A4A4D4
:100500009C787F0804047800447D40002040403DF2
:10051000007F1028440000417F40007C047804786C
:100520007C080404783844444438FC1824241818FF
:10053000242418FC7C08040408485454542404045B
:100540003F44243C4040207C1C2040201C3C403048
:10055000403C44281028444C9090907C4464544C77
:1005600044000836410000007700000041360800D2
:1005700002010204023C2623263C1EA1A161123A7C
:100580004040207A385454555921555579412254C8
:10059000547842215554784020545579400C1E52CD
:1005A0007212395555555939545454593955545472
:1005B000580000457C410002457D420001457C40D9
:1005C0007D1211127DF0282528F07C54554500201D
:1005D00054547C547C0A097F4932494949323A448F
:1005E00044443A324A4848303A4141217A3A4240FA
:1005F0002078009DA0A07D3D4242423D3D404040CC
:100600003D3C24FF2424487E4943662B2FFC2F2B9E
:10061000FF0929F620C0887E09032054547941003F
:1006200000447D413048484A32384040227A007ABE
:100630000A0A727D0D19317D2629292F282629299C
:10064000292630484D4020380808080808080808BE
:10065000382F10C8ACBA2F102834FA00007B0000E5
:1006600008142A142222142A14085500550055AAE9
:1006700055AA55AAFF55FF55FF000000FF001010B6
:1006800010FF00141414FF001010FF00FF1010F0F2
:1006900010F0141414FC001414F700FF0000FF0005
:1006A000FF1414F404FC141417101F10101F101F53
:1006B0001414141F00101010F0000000001F101080
:1006C00010101F10101010F010000000FF1010107C
:1006D000101010101010FF10000000FF140000FF99
:1006E00000FF00001F10170000FC04F41414171082
:1006F000171414F404F40000FF00F7141414141475
:100700001414F700F7141414171410101F101F14EA
:100710001414F4141010F010F000001F101F00004B
:10072000001F14000000FC140000F010F01010FF77
:1007300010FF141414FF141010101F00000000F01C
:1007400010FFFFFFFFFFF0F0F0F0F0FFFFFF0000F1
:10075000000000FFFF0F0F0F0F0F3844443844FC18
:100760004A4A4A347E02020606027E027E0263552F
:100770004941633844443C04407E201E2006027EEA
:10078000020299A5E7A5991C2A492A1C4C720172FC
:100790004C304A4D4D303048784830BC625A463D66
:1007A0003E494949007E0101017E2A2A2A2A2A441B
:1007B000445F444440514A444040444A5140000050
:1007C000FF0103E080FF000008086B6B083612365B
:1007D0002436060F090F060000181800000010103C
:1007E000003040FF0101001F01011E00191D1712FA
:1007F000003C3C3C3C00000000009407591C1124C4
:100800001FBECFEFD1E2DEBFCDBF00E00CBF13E0D3
:10081000A0E0B2E0E4E6F6E500E00BBF02C007901E
:100820000D92A630B107D9F726E0A6E0B3E001C0EB
:100830001D92A732B207E1F713E0CFEFD3E000E05B
:1008400006C021970109802FFE010E940A2BCD3F8F
:10085000D10780E00807A9F70E94DF160C94E52A6B
:100860000C940000EF92FF920F931F93CF93DF93AE
:10087000EC017B01BA01A90100E010E027E030E0C3
:1008800083E493E00E94DD2000EE1FEF27E030E0DC
:10089000A701BE0183E493E00E94DD20DF91CF91A8
:1008A0001F910F91FF90EF900895EF92FF920F9399
:1008B0001F93CF93DF93EC017B01BA01A90100E004
:1008C00010E027E030E083E493E00E94DD2000E0C8
:1008D00018EF27E030E0A701BE0183E493E00E9417
:1008E000DD20DF91CF911F910F91FF90EF90089540
:1008F000EF92FF920F931F93CF93DF93EC017B0155
:10090000BA01A90100E010E027E030E083E493E0C1
:100910000E94DD200FE118EF27E030E0A701BE01C3
:1009200083E493E00E94DD20DF91CF911F910F912E
:10093000FF90EF900895EF92FF920F931F93CF9344
:10094000DF93EC017B01BA01A90100E010E027E090
:1009500030E083E493E00E94DD200FEF17E027E012
:1009600030E0A701BE0183E493E00E94DD20DF9127
:10097000CF911F910F91FF90EF900895EF92FF920A
:100980000F931F93CF93DF93EC017B01BA01A90171
:1009900000E010E027E030E083E493E00E94DD20F7
:1009A00000E21DEF27E030E0A701BE0183E493E001
:1009B0000E94DD20DF91CF911F910F91FF90EF906A
:1009C0000895841B950B97FF03C08FEF9FEF04C022
:1009D000892B31F081E090E090931603809315030A
:1009E000621B730B77FF03C08FEF9FEF04C0672B71
:1009F00031F081E090E090931403809313032091F1
:100A00002503309126038091150390911603820FE0
:100A1000931F909326038093250320912303309105
:100A200024038091130390911403820F931F9093DA
:100A30002403809323030895841B950B97FF03C021
:100A40008FEF9FEF04C0892B31F081E090E090930D
:100A5000120380931103621B730B77FF03C08FEFA8
:100A60009FEF04C0672B31F081E090E0909310037A
:100A700080930F0320912103309122038091110371
:100A800090911203820F931F90932203809321036E
:100A900020911F033091200380910F039091100348
:100AA000820F931F9093200380931F030895841B4C
:100AB000950B97FF03C08FEF9FEF04C0892B31F098
:100AC00081E090E090930E0380930D03621B730B03
:100AD00077FF03C08FEF9FEF04C0672B31F081E0F9
:100AE00090E090930C0380930B0320911D033091B1
:100AF0001E0380910D0390910E03820F931F90931C
:100B00001E0380931D0320911B0330911C038091D1
:100B10000B0390910C03820F931F90931C038093FF
:100B20001B030895841B950B97FF03C08FEF9FEF66
:100B300004C0892B31F081E090E090930A03809308
:100B40000903621B730B77FF03C08FEF9FEF04C095
:100B5000672B31F081E090E09093080380930703C6
:100B60002091190330911A038091090390910A038F
:100B7000820F931F90931A038093190320911703F8
:100B8000309118038091070390910803820F931FFF
:100B9000909318038093170308954F925F926F927A
:100BA0007F928F929F92AF92BF92CF92DF92EF92FD
:100BB000FF920F931F93CF93DF93C0912503D091A2
:100BC00026030091230310912403A0902103B090E9
:100BD000220380901F0390902003E0901D03F0906B
:100BE0001E03C0901B03D0901C034090190350902B
:100BF0001A03609017037090180360912B03709193
:100C00002C039801AE0180912D0390912E030E9438
:100C1000E10460912303709124039801AE01809157
:100C20002503909126030E94550420911F033091C3
:100C30002003409121035091220360912B03709176
:100C40002C0380912D0390912E030E941C0560912E
:100C50001F03709120039401A501809121039091BD
:100C600022030E94780420911B0330911C034091C1
:100C70001D0350911E0360912B0370912C038091F2
:100C80002D0390912E030E94570560911B037091D4
:100C90001C039601A70180911D0390911E030E94E1
:100CA0009B04209117033091180340911903509130
:100CB0001A0360912B0370912C0380912D03909166
:100CC0002E030E94920560911703709118039301FF
:100CD000A2018091190390911A030E94BE046091B1
:100CE0002103709122038091250390912603861B96
:100CF000970B06960D9708F540911F03509120031E
:100D00008091230390912403841B950B06960D97E5
:100D1000A0F400E010E027E030E083E493E00E94DC
:100D2000DD2084E190E090932203809321038EE103
:100D300090E09093200380931F0360911D037091B6
:100D40001E038091250390912603861B970B069620
:100D50000D9708F540911B0350911C0380912303CC
:100D600090912403841B950B06960D97A0F400E048
:100D700010E027E030E083E493E00E94DD208CED7A
:100D800090E090931E0380931D038EE190E090937A
:100D90001C0380931B036091190370911A038091C7
:100DA000250390912603861B970B06960D9708F551
:100DB00040911703509118038091230390912403CD
:100DC000841B950B06960D97A0F400E010E027E039
:100DD00030E083E493E00E94DD2084E190E0909392
:100DE0001A03809319038CE291E090931803809387
:100DF000170360911D0370911E0380912103909150
:100E00002203861B970B06960D9708F540911B034E
:100E100050911C0380911F0390912003841B950B1C
:100E200006960D97A0F400E010E027E030E083E4A0
:100E300093E00E94DD208CED90E090931E03809360
:100E40001D038EE190E090931C0380931B0360913F
:100E5000190370911A038091210390912203861B3C
:100E6000970B06960D9708F54091170350911803BC
:100E700080911F0390912003841B950B06960D977C
:100E8000A0F400E010E027E030E083E493E00E946B
:100E9000DD2084E190E090931A03809319038CE2A3
:100EA00091E0909318038093170360911903709158
:100EB0001A0380911D0390911E03861B970B0696C3
:100EC0000D9708F5409117035091180380911B036B
:100ED00090911C03841B950B06960D97A0F400E0DF
:100EE00010E027E030E083E493E00E94DD2084E11D
:100EF00090E090931A03809319038CE291E0909311
:100F0000180380931703DF91CF911F910F91FF90EA
:100F1000EF90DF90CF90BF90AF909F908F907F9099
:100F20006F905F904F900895EF92FF920F932FEF85
:100F300049E06AE083E493E00E9452258CE2E82EC7
:100F4000FF24F39405E029E348E364E08FE293E0B3
:100F50000E94372A0F91FF90EF900895EF92FF9231
:100F60000F931F93EE24EA94FE2C00EF10E024EB85
:100F700030E040EF50E06CE370E083E493E00E94E7
:100F8000FD1E0EE011E02CE330E040EF50E06CE39A
:100F900070E083E493E00E94FD1E24EB30E040EF1C
:100FA00050E064EB70E083E493E00E94FD1E24E1D6
:100FB00030E04EE051E06CE370E083E493E00E94A7
:100FC000FD1E2CED30E04EE051E064EB70E083E478
:100FD00093E00E94FD1E0CE211E024E130E04EE0BF
:100FE00051E064E170E083E493E00E94FD1E2CED8B
:100FF00030E04EE051E06CED70E083E493E00E945D
:10100000FD1E2CED30E04CE251E064E170E083E441
:1010100093E00E94FD1E0EE011E02AE530E040EF73
:1010200050E06AE570E083E493E00E94FD1E26E94B
:1010300030E040EF50E066E970E083E493E00E9426
:10104000FD1E2EE630E04EE051E06AE570E083E4FC
:1010500093E00E94FD1E22E830E04EE051E066E998
:1010600070E083E493E00E94FD1E0CE211E02EE6A6
:1010700030E04EE051E06EE670E083E493E00E94E1
:10108000FD1E22E830E04EE051E062E870E083E4CB
:1010900093E00E94FD1E02ED10E02EE630E040EFEE
:1010A00050E06EE670E083E493E00E94FD1E22E8CB
:1010B00030E040EF50E062E870E083E493E00E94AB
:1010C000FD1E24E130E042ED50E06EE670E083E486
:1010D00093E00E94FD1E2CED30E042ED50E062E80E
:1010E00070E083E493E00E94FD1E00EF10E024E135
:1010F00030E042ED50E064E170E083E493E00E9470
:10110000FD1E2CED30E042ED50E06CED70E083E42C
:1011100093E00E94FD1E28E230E040EF50E064E1E1
:1011200070E083E493E00E94FD1E28EC30E040EF85
:1011300050E06CED70E083E493E00E94FD1E0EE051
:1011400011E028E230E040EF50E068E270E083E434
:1011500093E00E94FD1E28EC30E040EF50E068EC88
:1011600070E083E493E00E94FD1E0EE110E02CE3AA
:1011700030E040EF50E06CE370E083E493E00E94E5
:10118000FD1E24EB30E040EF50E064EB70E083E4C0
:1011900093E00E94FD1E2EE630E04EE150E064E157
:1011A00070E083E493E00E94FD1E2CED30E04EE100
:1011B00050E062E870E083E493E00E94FD1E06E4E4
:1011C00010E02EE630E04EE150E06EE670E083E4A1
:1011D00093E00E94FD1E22E830E04EE150E062E81C
:1011E00070E083E493E00E94FD1E0EE610E024E12F
:1011F00030E04EE150E064E170E083E493E00E946F
:10120000FD1E2CED30E04EE150E06CED70E083E42B
:1012100093E00E94FD1E06E410E02CED30E046E471
:1012200050E064E170E083E493E00E94FD1E0EE66E
:1012300010E02CE330E04EE650E064E170E083E43F
:1012400093E00E94FD1E2CED30E04EE650E064EB92
:1012500070E083E493E00E94FD1E2AE530E046E45E
:1012600050E06AE570E083E493E00E94FD1E26E909
:1012700030E046E450E066E970E083E493E00E94E9
:10128000FD1E2EE630E04EE650E06AE570E083E4B5
:1012900093E00E94FD1E26E930E04EE650E062E851
:1012A00070E083E493E00E94FD1E90EEE92EFF249F
:1012B000FA9400EA10E02AE530E040EA50E060E00D
:1012C00070E083E493E00E94FD1E20EF30E040EAEE
:1012D00050E066E970E083E493E00E94FD1E02EDB9
:1012E00010E02AE530E042E850E06AE570E083E48F
:1012F00093E00E94FD1E26E930E042E850E066E9F6
:1013000070E083E493E00E94FD1E02E810E026E90D
:1013100030E042E850E06AE570E083E493E00E9448
:10132000FD1E2EE630E04EE650E06EE670E083E40F
:1013300093E00E94FD1E22E830E04EE650E062E8B5
:1013400070E083E493E00E94FD1E0AEB10E026E9C2
:1013500030E04AEB50E06AE570E083E493E00E94FD
:10136000FD1E1F910F91FF90EF9008950F931F9313
:10137000CF93DF9386E30E94DF178C0187E30E94FF
:10138000DF17EC0182E00E94C21840912D035091BA
:101390002E0320912B0330912C03CE01885C9140C9
:1013A0008336910550F4073362E0160734F4043DA8
:1013B00081E018074CF00C94E4150833A2E01A07FA
:1013C0001CF082E090E006C0033DE1E01E073CF423
:1013D0008EEF9FEF909328038093270304C0109211
:1013E000280310922703CC3262E0D6071CF082E07B
:1013F00090E006C0C73C81E0D8073CF48EEF9FEF39
:1014000090932A038093290304C010922A03109218
:101410002903CA01CD9787379105B0F4203F3105E4
:1014200099F430932C0320932B03109228031092ED
:101430002703942F852F453B510514F094EB80E052
:1014400090932D0380932E0380912D0390912E0372
:10145000FC01759760912B0370912C03B79788F46A
:101460006E30A1E07A0769F41092280310922703E6
:101470008D33910514F08CE390E090932E038093CC
:101480002D0380912D0390912E03FC01E55BF10962
:10149000B79790F46E30E1E07E0771F41092280364
:1014A000109227038F30A1E09A0714F08EE091E0AC
:1014B00090932E0380932D0380912D0390912E0302
:1014C000FC01EB55F109739788F46E30E1E07E077B
:1014D00069F410922803109227038F36910514F0B7
:1014E0008EE690E090932E0380932D0380912D0340
:1014F00090912E03FC01E358F109739788F46E3044
:10150000A1E07A0769F41092280310922703873923
:10151000910514F086E990E090932E0380932D03BB
:1015200080912D0390912E03FC017597E731F140D6
:1015300090F46C32E1E07E0771F41092280310926F
:1015400027038D32A1E09A0714F08CE291E090938A
:101550002E0380932D03603F710561F580912D036B
:1015600090912E03FC017597739770F410922803E5
:101570001092270370932C0360932B0389329105FB
:10158000ACF088E290E012C0FC01E95CF109B79789
:1015900088F4109228031092270370932C03609311
:1015A0002B03813F910514F080EF90E090932E0380
:1015B00080932D03A0912B03B0912C0380912D03D8
:1015C00090912E03A23DB10511F5BC016551710941
:1015D0006935710558F410922803109227038F364D
:1015E00091050CF44EC08EE690E04BC0BC016358F0
:1015F00071096935710508F048C0109228031092EE
:1016000027038D3D9105ECF18CED90E03AC0AA3BAB
:10161000B10581F4BC016B5571096B337105A8F5F7
:1016200010922803109227038739910554F186E917
:1016300090E027C0A03AB10541F5BC0161507109A5
:101640006935710578F41092280310922703BC01C4
:101650008B35910514F06AE570E070932E0360936A
:101660002D0313C0BC01675971096935710568F410
:101670001092280310922703813F910514F080EF08
:1016800090E090932E0380932D0360912D03709131
:101690002E03FD017F97EF3EF105F0F46C337105E9
:1016A00049F410922A0310922903CD01AF30B140C2
:1016B0007CF00CC0643B710579F410922A031092FF
:1016C0002903CD018F30A1E09A0714F08EE091E05C
:1016D00090932C0380932B0380912B0390912C03E8
:1016E000FC01EF50F1407D97E8F46431710549F455
:1016F00010922A03109229038D32E1E09E0774F0C4
:101700000BC06C3D710571F410922A0310922903ED
:101710008D32A1E09A0714F08CE291E090932C03B3
:1017200080932B0380912B0390912C03FC01E15FAC
:10173000F1097D97E8F46A35710549F410922A039E
:10174000109229038F30E1E09E0774F00BC06639D8
:10175000710571F410922A03109229038F30A1E0D1
:101760009A0714F08EE091E090932C0380932B0362
:1017700080912B0390912C03FC01EF50F1407D9759
:10178000E8F46E36710549F410922A031092290389
:101790008D32E1E09E0774F00BC06238710571F480
:1017A00010922A03109229038D32A1E09A0714F0B7
:1017B0008CE291E090932C0380932B0380912B0378
:1017C00090912C03FC01E15FF1097D97E8F4683208
:1017D000710549F410922A03109229038F30E1E039
:1017E0009E0774F00BC0683C710571F410922A03D7
:1017F000109229038F30A1E09A0714F08EE091E057
:1018000090932C0380932B0380912B0390912C03B6
:10181000FC01E35DF1097D97C8F46431710549F07D
:101820006C3D710531F06E36710519F06238710545
:1018300069F410922A0310922903813F910514F054
:1018400080EF90E090932C0380932B0380912B03E7
:1018500090912C03FC01EB5BF1097797B8F46A35A2
:10186000710519F06639710589F410922A031092F6
:10187000290370932E0360932D03833D910514F08B
:1018800082ED90E090932C0380932B0380912B03A7
:1018900090912C03BC01615A71096931710500F501
:1018A00060912D0370912E036A35710529F4109211
:1018B0002A03109229030BC06639710589F410922E
:1018C0002A031092290370932E0360932D038B3B00
:1018D000910514F08AEB90E090932C0380932B03F6
:1018E00080912B0390912C03BC01635871096D31D9
:1018F000710500F560912D0370912E036A35710515
:1019000029F410922A03109229030BC0663971053D
:1019100089F410922A031092290370932E03609386
:101920002D03813A910514F080EA90E090932C0306
:1019300080932B0360912D0370912E0380912B03D4
:1019400090912C036C33710549F5803F910531F579
:10195000CC32E2E0DE0754F062E070E070932A03DC
:10196000609329031092280310922703B801635D46
:1019700071406536710550F06CE370E070932E0392
:1019800060932D0310922A0310922903C73C61E053
:10199000D60724F410922A031092290360912D0394
:1019A00070912E03643B710549F5803F910531F537
:1019B000CC32A2E0DA0724F010922A031092290315
:1019C000B801635D71406536710550F064EB70E0FD
:1019D00070932E0360932D0310922A031092290313
:1019E000C73CE1E0DE0754F46EEF7FEF70932A030B
:1019F00060932903109228031092270360912D030E
:101A000070912E036C337105E1F48E30914009F032
:101A100000C1CC3282E0D80724F010922A03109241
:101A200029030833A2E01A0724F010922803109229
:101A30002703C73CE1E0DE070CF0EBC08EE091E04D
:101A4000ADC0643B710531F58E30914009F0B8C0EE
:101A5000CC32E2E0DE0754F082E090E090932A037B
:101A6000809329031092280310922703083382E001
:101A7000180724F01092280310922703C73CA1E016
:101A8000DA070CF09DC08EE091E090932C038093D8
:101A90002B0359C06431710509F05AC08E30914052
:101AA00079F5CC3282E0D80754F082E090E0909350
:101AB0002A038093290310922803109227030833E6
:101AC000A2E01A073CF082E090E090932803809314
:101AD000270308C0033DE1E01E0724F41092280309
:101AE00010922703C73C81E0D80754F48EE091E0C0
:101AF00090932C0380932B0310922A0310922903B6
:101B000080912B0390912C038C32914009F058C0A6
:101B1000CC32E2E0DE0754F082E090E090932A03BA
:101B2000809329031092280310922703083382E040
:101B300018070CF40AC71092280310922703C73C19
:101B4000E1E0DE07ECF510922A031092290338C079
:101B50006C3D710591F58E30914009F4D6C78091A6
:101B60002B0390912C038C32914009F052C0CC325F
:101B700062E0D60724F010922A031092290308335A
:101B800082E018070CF4F3C7109228031092270381
:101B9000C73C81E0D807ECF58CE291E090932C03F0
:101BA00080932B038EEF9FEF90932A03809329035A
:101BB00010922803109227032CC06A35710529F171
:101BC0006639710531F580912B0390912C03803F8C
:101BD0009105F9F4CC3282E0D8073CF0109228034A
:101BE0001092270382E090E00BC0C73CA1E0DA0727
:101BF0000CF0B7C610922803109227038EEF9FEFC8
:101C000090932A0380932903ACC6803F910509F481
:101C1000BAC780912D0390912E0360912B03709190
:101C20002C038A359105C9F56E30E1E07E0709F095
:101C300093C0CC3282E0D8075CF010922803109257
:101C4000270382E090E090932A03809329030CC03D
:101C5000C73CA1E0DA0744F410922803109227034E
:101C600010922A03109229030833E2E01E072CF099
:101C700010922803109227030BC0033D81E0180740
:101C80000CF06AC08EEF9FEF909328038093270398
:101C900010922A03109229035FC08639910549F5F5
:101CA0006E30A1E07A0709F057C0C73CE1E0DE07DB
:101CB0005CF410922803109227038EEF9FEF90930D
:101CC0002A03809329030CC0CC3282E0D80744F069
:101CD000109228031092270310922A0310922903CE
:101CE0000833A2E01A0724F6033DE1E01E0754F290
:101CF00033C08E36910581F56E3081E0780761F54D
:101D0000C73CA1E0DA073CF48EEF9FEF90932A03E3
:101D10008093290308C0CC32E2E0DE0744F0109241
:101D20002A031092290310922803109227030833E4
:101D300082E018070CF42BC68EE690E090932E03F9
:101D400080932D0310922A031092290382E090E0E1
:101D5000909328038093270380912D0390912E0365
:101D60008238910581F56E30A1E07A0761F5CC32B9
:101D7000E2E0DE073CF082E090E090932A0380935B
:101D8000290308C0C73C81E0D80744F410922A0315
:101D90001092290310922803109227030833A2E01F
:101DA0001A070CF4FEC582E890E090932E0380930E
:101DB0002D0310922A031092290382E090E0909361
:101DC00028038093270380912D0390912E038E3654
:101DD000910571F56C32E1E07E0751F5CC3282E07D
:101DE000D8071CF082E090E006C0C73CA1E0DA070B
:101DF00054F48EEF9FEF90932A038093290310925F
:101E0000280310922703033DE1E01E070CF0D3C521
:101E10008EE690E090932E0380932D0310922A0378
:101E2000109229038EEF9FEF90932803809327034E
:101E300080912D0390912E038238910571F56C32BB
:101E400081E0780751F5CC32A2E0DA071CF082E09D
:101E500090E006C0C73CE1E0DE0754F48EEF9FEF50
:101E600090932A038093290310922803109227034A
:101E7000033D81E018070CF0A8C582E890E090933C
:101E80002E0380932D0310922A03109229038EEFC4
:101E90009FEF909328038093270380912D039091C7
:101EA0002E03889771F56E30A1E07A0751F5CC3298
:101EB000E2E0DE071CF082E090E006C0C73C81E073
:101EC000D80754F48EEF9FEF90932A038093290351
:101ED0001092280310922703033DA1E01A070CF08B
:101EE0007EC588E290E090932E0380932D0310929C
:101EF0002A03109229038EEF9FEF9093280380937B
:101F0000270380912D0390912E03883C910571F554
:101F10006E30E1E07E0751F5CC3282E0D8071CF04C
:101F200082E090E006C0C73CA1E0DA0754F48EEFEF
:101F30009FEF90932A038093290310922803109215
:101F40002703033DE1E01E070CF053C588EC90E049
:101F500090932E0380932D0310922A03109229034D
:101F60008EEF9FEF909328038093270380912D039A
:101F700090912E038897B9F5603F7105A1F5CC3299
:101F800082E0D8072CF010922A03109229030AC08D
:101F9000C73CA1E0DA0754F48EEF9FEF90932A0339
:101FA000809329031092280310922703033DE1E058
:101FB0001E072CF4109228031092270314C0083334
:101FC00082E0180784F088E290E090932E038093DB
:101FD0002D0310922A031092290382E090E090933F
:101FE00028038093270380912D0390912E03883C32
:101FF0009105B9F5603F7105A1F5CC32A2E0DA0791
:102000003CF082E090E090932A038093290308C07B
:10201000C73CE1E0DE0744F410922A031092290342
:102020001092280310922703033D81E018072CF437
:10203000109228031092270314C00833A2E01A0755
:1020400084F088EC90E090932E0380932D031092FF
:102050002A031092290382E090E090932803809352
:10206000270380912D0390912E03449779F5603FCB
:10207000710561F5CC32E2E0DE073CF082E090E0F1
:1020800090932A038093290308C0C73C81E0D807B6
:1020900044F410922A0310922903109228031092FC
:1020A0002703033D81E018070CF0ADC484E190E004
:1020B00090932E0380932D038EEF9FEF9093280330
:1020C0008093270310922A031092290380912D03F5
:1020D00090912E038C3D910579F5603F710561F576
:1020E000C73CE1E0DE073CF48EEF9FEF90932A03BC
:1020F0008093290308C0CC3282E0D80744F01092C4
:102100002A03109229031092280310922703033DFB
:10211000A1E01A070CF081C48CED90E090932E039F
:1021200080932D038EEF9FEF9093280380932703D6
:1021300010922A031092290380912D0390912E036F
:10214000449779F5623D710561F5CC32E2E0DE0736
:102150003CF082E090E090932A038093290308C02A
:10216000C73C81E0D80744F410922A031092290357
:1021700010922803109227030833E2E01E070CF4A4
:1021800056C484E190E090932E0380932D0382E067
:1021900090E0909328038093270310922A031092D3
:1021A000290380912D0390912E038C3D910579F5A3
:1021B000623D710561F5C73CE1E0DE073CF48EEF5E
:1021C0009FEF90932A038093290308C0CC3282E0CA
:1021D000D80744F010922A03109229031092280382
:1021E00010922703083382E018070CF42AC48CED00
:1021F00090E090932E0380932D0382E090E09093E3
:1022000028038093270310922A03109229038091B8
:102210002D0390912E038E36910569F5603F71056F
:1022200051F5C73CE1E0DE071CF48EEF9FEF06C0DE
:10223000CC3282E0D80754F082E090E090932A03F9
:10224000809329031092280310922703033DA1E0F5
:102250001A070CF000C48EE690E090932E03809352
:102260002D038EEF9FEF9093280380932703109206
:102270002A031092290380912D0390912E03823816
:10228000910569F5603F710551F5C73CE1E0DE0756
:102290001CF48EEF9FEF06C0CC3282E0D80754F0DA
:1022A00082E090E090932A03809329031092280300
:1022B00010922703033DE1E01E070CF0D6C382E82D
:1022C00090E090932E0380932D038EEF9FEF9093D9
:1022D00028038093270310922A03109229038091E8
:1022E0002D0390912E038E36910579F5623D71058F
:1022F00061F5C73CE1E0DE073CF48EEF9FEF909381
:102300002A038093290308C0CC3282E0D80744F026
:1023100010922A0310922903109228031092270387
:10232000083382E018070CF4AAC38EE690E090937D
:102330002E0380932D0382E090E0909328038093F6
:10234000270310922A031092290380912D03909164
:102350002E038238910579F5623D710561F5CC3225
:10236000E2E0DE073CF082E090E090932A03809365
:10237000290308C0C73C81E0D80744F410922A031F
:102380001092290310922803109227030833A2E029
:102390001A070CF47EC382E890E090932E0380939A
:1023A0002D0382E090E090932803809327031092FE
:1023B0002A031092290380912D0390912E03CC972C
:1023C00089F5623D710571F5CC32E2E0DE071CF063
:1023D00082E090E006C0C73C81E0D80754F48EEF5D
:1023E0009FEF90932A038093290310922803109261
:1023F00027030833E2E01E070CF055C3033DA1E0BC
:102400001A0784F48EEF9FEF90932803809327039D
:1024100010922A03109229038CE390E090932E03EC
:1024200080932D0380912D0390912E03843B910581
:1024300089F5623D710571F5CC32E2E0DE071CF0F2
:1024400082E090E006C0C73C81E0D80754F48EEFEC
:102450009FEF90932A0380932903109228031092F0
:102460002703083382E018070CF020C3033DA1E0E6
:102470001A0784F48EEF9FEF90932803809327032D
:1024800010922A031092290384EB90E090932E037C
:1024900080932D0380912D0390912E038A35910511
:1024A000C9F5623D7105B1F5CC32E2E0DE071CF002
:1024B00082E090E006C0C73C81E0D80754F48EEF7C
:1024C0009FEF90932A038093290310922803109280
:1024D00027030833A2E01A074CF010922803109249
:1024E000270310922A031092290314C0033DE1E050
:1024F0001E0784F48AE590E090932E0380932D03C9
:1025000010922A03109229038EEF9FEF90932803D5
:102510008093270380912D0390912E038639910596
:10252000A9F5623D710591F5CC3282E0D8071CF027
:1025300082E090E006C0C73CA1E0DA0754F48EEFD9
:102540009FEF90932A0380932903109228031092FF
:1025500027030833E2E01E072CF010922A031092A2
:10256000290314C0033D81E0180784F486E990E054
:1025700090932E0380932D0310922A031092290327
:102580008EEF9FEF909328038093270380912D0374
:1025900090912E038A35910551F56A3B710539F505
:1025A000CC32A2E0DA075CF082E090E090932A035C
:1025B00080932903109228031092270308C0C73C78
:1025C000E1E0DE0724F410922A0310922903C801E7
:1025D000835D91408536910550F08AE590E09093B7
:1025E0002E0380932D0310922A03109229038091C9
:1025F0002D0390912E038639910551F56A3B7105A3
:1026000039F5C73C81E0D8075CF48EEF9FEF9093DB
:102610002A0380932903109228031092270308C0ED
:10262000CC32A2E0DA0724F010922A031092290398
:10263000C801835D91408536910550F086E990E0B0
:1026400090932E0380932D0310922A031092290356
:1026500080912D0390912E038A35910551F5603AB2
:10266000710539F5C73CE1E0DE075CF48EEF9FEFC2
:1026700090932A0380932903109228031092270332
:1026800008C0CC3282E0D80724F010922A031092BE
:102690002903C801835D91408536910550F08AE594
:1026A00090E090932E0380932D0310922A031092B2
:1026B000290380912D0390912E038639910551F5C0
:1026C000603A710539F5CC32A2E0DA075CF082E0BD
:1026D00090E090932A03809329031092280310928C
:1026E000270308C0C73CE1E0DE0724F410922A0368
:1026F00010922903C801835D91408536910550F001
:1027000086E990E090932E0380932D0310922A0384
:102710001092290380912D0390912E03CC9769F597
:10272000603A710551F5CC3282E0D8071CF082E0A6
:1027300090E006C0C73CA1E0DA0754F48EEF9FEFAB
:1027400090932A0380932903109228031092270361
:102750000833A2E01A070CF4ACC18CE390E090932C
:102760002E0380932D0382E090E0909328038093C2
:10277000270310922A031092290380912D03909130
:102780002E03843B910569F5603A710551F5CC3211
:1027900082E0D8071CF082E090E006C0C73CA1E0D0
:1027A000DA0754F48EEF9FEF90932A038093290366
:1027B00010922803109227030833E2E01E070CF45E
:1027C0008EC184EB90E090932E0380932D0382E0E2
:1027D00090E0909328038093270310922A0310928D
:1027E000290380912D0390912E03892BC9F5603A1E
:1027F0007105B1F5CC3282E0D8073CF082E090E080
:1028000090932A03809329030EC0C73CA1E0DA0706
:1028100074F410922A031092290380EF90E09093B1
:102820002E0380932D031092280310922703083360
:10283000E2E01E074CF0109228031092270310923A
:102840002A03109229030CC0033D81E0180744F4C9
:1028500010922A0310922903109228031092270342
:1028600080912D0390912E03803F9105A9F5603A48
:10287000710591F5CC32A2E0DA074CF010922E03EC
:1028800010922D0310922A031092290309C0C73C0D
:10289000D14054F48EEF9FEF90932A038093290345
:1028A0001092280310922703083382E018074CF097
:1028B000109228031092270310922A0310922903E2
:1028C0000BC0033D114044F410922A0310922903D7
:1028D0001092280310922703E0912D03F0912E030C
:1028E0008091290390912A038E0F9F1F90932E03AE
:1028F00080932D03E0912703F09128036E0F7F1F33
:1029000070932C0360932B0310922A0310922903D7
:1029100010922803109227038417950719F4621761
:10292000730711F00E9432048091060381110E9406
:10293000CD050E94AE076AE070E080E090E0DF9194
:10294000CF911F910F910C945717033DA1E01A07E7
:102950000CF0F5C88EEF9FEF909328038093270328
:10296000EEC80833E2E01E070CF453C986E990E094
:1029700090932E0380932D0310922A031092290323
:1029800082E090E0909328038093270342C9033D9F
:1029900081E018070CF0E0C9109228031092270379
:1029A000DBC9033DA1E01A070CF00DCA1092280301
:1029B0001092270308CA0833E2E01E070CF438CA55
:1029C000109228031092270333CA083382E01807B5
:1029D0000CF463CA10922803109227035ECA0833CE
:1029E000A2E01A070CF48DCA109228031092270354
:1029F00088CA0833E2E01E070CF4B8CA1092280314
:102A000010922703B3CA0833A2E01A070CF45ECB76
:102A1000109228031092270359CB0833A2E01A071B
:102A20000CF48ACB109228031092270385CB033D28
:102A3000A1E01A070CF0B5CB1092280310922703DF
:102A4000B0CB033DA1E01A070CF0E1CB10922803B4
:102A500010922703DCCB0833A2E01A070CF40BCC4E
:102A6000109228031092270306CC0833A2E01A071D
:102A70000CF435CC109228031092270330CC033D80
:102A8000A1E01A070CF061CC1092280310922703E2
:102A90005CCC033DA1E01A070CF08DCC109228030A
:102AA0001092270388CC82E090E0AECC82E090E0E8
:102AB000E3CC033DE1E01E070CF05FCE8CE390E039
:102AC00090932E0380932D0310922A0310922903D2
:102AD0008EEF9FEF90932803809327034ECE033D04
:102AE000E1E01E070CF07DCE84EB90E090932E0386
:102AF00080932D0310922A03109229038EEF9FEFEB
:102B000090932803809327036CCECC32E2E0DE075B
:102B100024F010922A0310922903083362E016076A
:102B20003CF082E090E0909328038093270308C054
:102B3000033D81E0180724F4109228031092270324
:102B4000C73CA1E0DA070CF00AC88EE091E0909350
:102B50002C0380932B038EEF9FEF90932A03809397
:102B6000290310922803109227030C94AF0D033D04
:102B7000A1E01A070CF00CC88EEF9FEF909328038A
:102B80008093270305C8CC32E2E0DE073CF01092C8
:102B900028031092270382E090E00AC0C73C61E05E
:102BA000D60754F410922803109227038EEF9FEF5C
:102BB00090932A03809329030833A2E01A070CF4A8
:102BC00028C88AE590E0D4CEDF91CF911F910F9174
:102BD00008950E947D1740E855E260E070E085EEC0
:102BE00093E00E94D11B85EE93E00E94A21962E05F
:102BF00082E00E94561840E050E0BA0183E493E07E
:102C00000C941326EF92FF920F931F93CF93DF93B1
:102C100060E070E083E493E00E94DF1EC8E7D0E04C
:102C2000D0932E03C0932D0380EF90E090932C035C
:102C300080932B0300EE1FEF27E030E040EF50E0E1
:102C400068E770E083E493E00E94DD208FE1E82EE6
:102C5000F12C04E010E020EF30E046E351E060E0CA
:102C600070E083E493E00E94FB2420EF30E04AE030
:102C700050E060E070E083E493E00E94FB240EE10A
:102C800010E023E030E04AE050E060E070E083E4F0
:102C900093E00E94FB240E94AE0761E083E493E08E
:102CA0000E94162460E083E493E00E941C2480913B
:102CB0000603882309F464C020EA30E03093260339
:102CC0002093250388EC90E09093240380932303C2
:102CD000D0932203C09321039093200380931F037A
:102CE00084E690E090931E0380931D0346E450E039
:102CF00050931C0340931B0330931A032093190332
:102D0000909318038093170300E018EF27E030E05A
:102D100048EC50E060EA70E083E493E00E94DD203C
:102D200040911F0350912003609121037091220371
:102D30000FE118EF27E030E083E493E00E94DD200C
:102D400040911B0350911C0360911D0370911E0361
:102D50000FEF17E027E030E083E493E00E94DD20EE
:102D600040911703509118036091190370911A0351
:102D700000E21DEF27E030E083E493E00E94DD20D5
:102D800040E050E060E070E083E493E00E941024B3
:102D900061E083E493E00E94162465E572E083E439
:102DA00093E00E94431964E372E083E493E0DF91CF
:102DB000CF911F910F91FF90EF900C9443191092B7
:102DC00006030E94E9150E9402160E94B609FDCF73
:102DD0001F920F920FB60F9211242F933F938F9350
:102DE0009F93AF93BF938091770390917803A091C5
:102DF0007903B0917A033091760323E0230F2D37C6
:102E000020F40196A11DB11D05C026E8230F0296EE
:102E1000A11DB11D209376038093770390937803CF
:102E2000A0937903B0937A0380917B0390917C0304
:102E3000A0917D03B0917E030196A11DB11D8093E9
:102E40007B0390937C03A0937D03B0937E03BF919B
:102E5000AF919F918F913F912F910F900FBE0F9047
:102E60001F9018953FB7F89480917B0390917C0355
:102E7000A0917D03B0917E0326B5A89B05C02F3F8E
:102E800019F00196A11DB11D3FBFBA2FA92F982F90
:102E90008827820F911DA11DB11DBC01CD0142E00B
:102EA000660F771F881F991F4A95D1F70895CF9213
:102EB000DF92EF92FF92CF93DF936B017C010E9430
:102EC0003217EB01C114D104E104F10479F00E943E
:102ED00032176C1B7D0B683E7340A0F381E0C81A6B
:102EE000D108E108F108C851DC4FECCFDF91CF9158
:102EF000FF90EF90DF90CF900895789484B5826032
:102F000084BD84B5816084BD85B5826085BD85B58D
:102F1000816085BDEEE6F0E0808181608083E1E83C
:102F2000F0E0108280818260808380818160808374
:102F3000E0E8F0E0808181608083E1EBF0E0808177
:102F400084608083E0EBF0E0808181608083E1E950
:102F5000F0E0808182608083808181608083E0E90D
:102F6000F0E0808181608083E1EAF0E0808182602E
:102F70008083808181608083E0EAF0E080818160ED
:102F80008083E1E2F1E080818260808380818160E2
:102F90008083E0E2F1E0808181608083EAE7F0E015
:102FA0008081846080838081826080838081816071
:102FB00080838081806880831092C1000895863369
:102FC00008F0865390917B00282F2870977F922BD2
:102FD00090937B0087702091000290E4299F9001DC
:102FE0001124822B80937C0080917A0080648093EE
:102FF0007A0080917A0086FDFCCF80917800209144
:10300000790090E0922B089590E0FC013197E13136
:10301000F10508F04AC08827EE58FF4F8F4F0C94F7
:103020000A2B809180008F7703C0809180008F7D74
:1030300080938000089584B58F7702C084B58F7D1A
:1030400084BD08958091B0008F7703C08091B00057
:103050008F7D8093B0000895809190008F7707C096
:10306000809190008F7D03C080919000877F809336
:10307000900008958091A0008F7707C08091A000F4
:103080008F7D03C08091A000877F8093A00008956A
:10309000809120018F7707C0809120018F7D03C030
:1030A00080912001877F809320010895CF93DF9343
:1030B00090E0FC01E05EFD4F2491FC01EA59FD4FD8
:1030C0008491882361F190E0880F991FFC01E05200
:1030D000FD4FC591D491FC01EA53FD4FA591B491E8
:1030E000611109C09FB7F894888120958223888355
:1030F000EC912E230BC0623061F49FB7F8943881B5
:10310000822F809583238883EC912E2B2C939FBF55
:1031100006C08FB7F894E8812E2B28838FBFDF91EC
:10312000CF9108951F93CF93DF93282F30E0F901BB
:10313000E652FE4F8491F901E05EFD4FD491F90112
:10314000EA59FD4FC491CC23C9F0162F81110E947A
:103150000418EC2FF0E0EE0FFF1FEA53FD4FA5918E
:10316000B4918FB7F894111105C09C91ED2FE095A3
:10317000E92302C0EC91ED2BEC938FBFDF91CF914F
:103180001F910895CF93DF93282F30E0F901E65285
:10319000FE4F8491F901E05EFD4FD491F901EA59A7
:1031A000FD4FC491CC2391F081110E940418EC2FA3
:1031B000F0E0EE0FFF1FE455FD4FA591B491EC91A7
:1031C000ED2381E090E021F480E002C080E090E017
:1031D000DF91CF910895CF92DF92EF92FF920F93FC
:1031E0001F93CF93DF936C01EB017B01E40EF51E7F
:1031F00000E010E0CE15DF0561F06991D601ED9198
:10320000FC910190F081E02DC6011995080F191F5E
:10321000F1CFC801DF91CF911F910F91FF90EF90F7
:10322000DF90CF9008956115710579F0FB01019051
:103230000020E9F73197AF01461B570BDC01ED91F8
:10324000FC910280F381E02D199480E090E00895D4
:10325000DC01ED91FC910190F081E02D19940F9328
:103260001F93CF93DF93EC016DE00E9428198C012E
:103270006AE0CE010E942819800F911FDF91CF9143
:103280001F910F9108950F931F93CF93DF93EC013C
:103290000E9413198C01CE010E942F19800F911FDB
:1032A000DF91CF911F910F9108950895FC0124851E
:1032B0003585F901E05CFF4F808191813296208154
:1032C0003181821B930B8F7399270895DC011C9623
:1032D000ED91FC911D97DF01A05CBF4F2D913C91BA
:1032E000119712968D919C9111972817390739F0F3
:1032F0008D919C91E80FF91F808190E008958FEFE8
:103300009FEF0895FC01A485B585FD01E05CFF4FAA
:10331000208131813296808191812817390779F097
:1033200080819181A80FB91F8C91208131812F5FFD
:103330003F4F2F7333273183208390E008958FEF21
:103340009FEF0895FC0181A1882329F0A489B58904
:103350008C9186FFFBCF11A208950F931F93CF93FB
:10336000DF93FC01A685B7858D01005C1F4FE80146
:103370008881998101968F739927AD014E5B5F4FCC
:10338000EA012881398182179307D1F3E801288166
:103390003981A20FB31F6C93A685B785A05CBF4F80
:1033A00011969C938E93A689B7892C9181E090E029
:1033B000078C02C0880F991F0A94E2F7822B8C9326
:1033C00081E081A30488F589E02D80818064808379
:1033D00081E090E0DF91CF911F910F910895FB0163
:1033E000E05CFF4F208131812F5F3F4F2F733327E8
:1033F000DB01AE5BBF4F4D915C912417350741F067
:1034000040815181DB01A40FB51F8C933183208350
:1034100008951F920F920FB60F9211240BB60F92C0
:103420002F933F934F935F936F937F938F939F93CC
:10343000AF93BF93EF93FF938091C00082FD07C0CD
:103440008091C60063EE75E00E94EF1902C0809182
:10345000C600FF91EF91BF91AF919F918F917F91A6
:103460006F915F914F913F912F910F900BBE0F90F5
:103470000FBE0F901F9018951F920F920FB60F92CC
:1034800011240BB60F922F933F934F935F936F933B
:103490007F938F939F93AF93BF93EF93FF9380910D
:1034A000C80082FD07C08091CE006BE575E00E94E8
:1034B000EF1902C08091CE00FF91EF91BF91AF91C3
:1034C0009F918F917F916F915F914F913F912F913C
:1034D0000F900BBE0F900FBE0F901F9018951F926C
:1034E0000F920FB60F9211240BB60F922F933F93AA
:1034F0004F935F936F937F938F939F93AF93BF93FC
:10350000EF93FF938091D00082FD07C08091D60099
:1035100063ED74E00E94EF1902C08091D600FF9124
:10352000EF91BF91AF919F918F917F916F915F913B
:103530004F913F912F910F900BBE0F900FBE0F90A8
:103540001F9018951F920F920FB60F9211240BB671
:103550000F922F933F934F935F936F937F938F932C
:103560009F93AF93BF93EF93FF938091300182FDC0
:1035700007C0809136016BE474E00E94EF1902C02D
:1035800080913601FF91EF91BF91AF919F918F9103
:103590007F916F915F914F913F912F910F900BBE53
:1035A0000F900FBE0F901F9018951F920F920FB69D
:1035B0000F9211240BB60F922F933F938F939F93EB
:1035C000EF93FF932091DF053091E0058091E105B5
:1035D0009091E2052817390731F48091C1008F7D61
:1035E0008093C10014C0E091E105F091E205E1563D
:1035F000FA4F20818091E1059091E20501968F7349
:1036000099279093E2058093E1052093C600FF91EE
:10361000EF919F918F913F912F910F900BBE0F9043
:103620000FBE0F901F9018951F920F920FB60F921A
:1036300011240BB60F922F933F938F939F93EF9389
:10364000FF9320915705309158058091590590912D
:103650005A052817390731F48091C9008F7D80936E
:10366000C90014C0E0915905F0915A05E95EFA4F7E
:1036700020818091590590915A0501968F73992761
:1036800090935A05809359052093CE00FF91EF91B6
:103690009F918F913F912F910F900BBE0F900FBE76
:1036A0000F901F9018951F920F920FB60F92112432
:1036B0000BB60F922F933F938F939F93EF93FF93AC
:1036C0002091CF043091D0048091D1049091D20404
:1036D0002817390731F48091D1008F7D8093D10074
:1036E00014C0E091D104F091D204E157FB4F208146
:1036F0008091D1049091D20401968F739927909371
:10370000D2048093D1042093D600FF91EF919F9132
:103710008F913F912F910F900BBE0F900FBE0F9086
:103720001F9018951F920F920FB60F9211240BB68F
:103730000F922F933F938F939F93EF93FF9320913B
:103740004704309148048091490490914A04281715
:10375000390731F4809131018F7D8093310114C09C
:10376000E0914904F0914A04E95FFB4F2081809188
:10377000490490914A0401968F73992790934A04C3
:103780008093490420933601FF91EF919F918F918F
:103790003F912F910F900BBE0F900FBE0F901F9077
:1037A0001895CF92DF92EF92FF920F931F93CF93D2
:1037B000DF93EC016A017B014115514E61057105F2
:1037C00009F1EC89FD8981E090E008A002C0880F32
:1037D000991F0A94E2F7808360E079E08DE390E03E
:1037E000A70196010E94E82A89019A010150110956
:1037F00021093109369527951795079598010115E7
:103800001041A8F0EC89FD89108260E874E88EE12F
:1038100090E0A70196010E94E82ADA01C901019708
:10382000A109B109B695A795979587959C01E88957
:10383000F9893083EA89FB89208319A2EE89FF89FF
:10384000408181E090E09C010C8C02C0220F331F6C
:103850000A94E2F7242B2083EE89FF8940819C01A2
:103860000D8C02C0220F331F0A94E2F7242B208311
:10387000EE89FF8940819C010E8C02C0220F331F0C
:103880000A94E2F7242B2083EE89FF8920810F8C94
:1038900002C0880F991F0A94E2F7809582238083E3
:1038A000DF91CF911F910F91FF90EF90DF90CF901C
:1038B0000895CF92DF92EF92FF92E5EEF3E013824C
:1038C000128288EEC82E83E0D82EE12CF12CC4821F
:1038D000D582E682F7826AEA72E07183608383EEC2
:1038E00095E0958784878FE995E09787868785ECB3
:1038F00090E0918B808B84EC90E0938B828B80ECBA
:1039000090E0958B848B81EC90E0978B868B82EC9A
:1039100090E0918F808F86EC90E0938F828F44E0CF
:10392000448F33E0358F27E0268F95E0978F81E035
:1039300080A3E3ECF3E013821282C482D582E68294
:10394000F78271836083ABE5B5E0B587A487A7E113
:10395000B5E0B787A687ADECB0E0B18BA08BACEC3F
:10396000B0E0B38BA28BA8ECB0E0B58BA48BA9EC34
:10397000B0E0B78BA68BAAECB0E0B18FA08FAEEC15
:10398000B0E0B38FA28F448F358F268F978F80A39F
:10399000E1EAF3E013821282C482D582E682F782E2
:1039A00071836083A3EDB4E0B587A487AFE8B4E08A
:1039B000B787A687A5EDB0E0B18BA08BA4EDB0E0F2
:1039C000B38BA28BA0EDB0E0B58BA48BA1EDB0E0E2
:1039D000B78BA68BA2EDB0E0B18FA08FA6EDB0E0C3
:1039E000B38FA28F448F358F268F978F80A3EFE7F9
:1039F000F3E013821282C482D582E682F782718359
:103A000060836BE474E07587648767E074E07787B0
:103A1000668765E371E0718B608B64E371E0738BA3
:103A2000628B60E371E0758B648B61E371E0778B8F
:103A3000668B62E371E0718F608F66E371E0738F74
:103A4000628F448F358F268F978F80A3FF90EF90E2
:103A5000DF90CF9008952F923F924F925F926F9296
:103A60007F928F929F92AF92BF92CF92DF92EF920E
:103A7000FF920F931F93CF93DF9300D0CDB7DEB7A4
:103A80004C017B836A836A01590117019801241B49
:103A9000350B37FF03C0319521953109C5014A81A6
:103AA0005B81841B950B97FF03C0919581959109CC
:103AB00051E059838217930714F019820BC09A2D95
:103AC0008B2D5801092F182F9A818B81DB82CA8296
:103AD000C92ED82E8A819B81A816B9065CF49C2D2C
:103AE0008D2D6801092F182F9A818B81BB82AA82A4
:103AF000A92EB82E2501AA81BB814A1A5B0A38017A
:103B00006C187D0877FE03C071946194710872018E
:103B100057FE03C0BFEFEB1AFB0AF594E794C016FB
:103B2000D1061CF00FEF1FEF1FC001E010E01CC01A
:103B3000D401ED91FC91B9810084F185E02D9101D2
:103B4000BB23C1F04A815B81B601C4011995E61817
:103B5000F708F7FE04C0C00ED11EE40CF51CEA8184
:103B6000FB813196FB83EA834A815B81A416B5060B
:103B7000FCF604C0A6016A817B81E7CF0F900F900D
:103B80000F90DF91CF911F910F91FF90EF90DF90F9
:103B9000CF90BF90AF909F908F907F906F905F90ED
:103BA0004F903F902F9008950895DC01ED91FC9186
:103BB0000480F581E02D19940F931F93DC01ED91A2
:103BC000FC91008CF18DE02D19951F910F910895B6
:103BD0000F931F93DC01ED91FC91028CF38DE02D8E
:103BE00019951F910F910895EF92FF920F931F93D4
:103BF000DC01ED91FC91048CF58DE02D19951F9160
:103C00000F91FF90EF9008950895AF92BF92CF92D9
:103C1000DF92EF92FF920F931F93CF93DF9300D029
:103C20001F92CDB7DEB75C016901DC01ED91FC911B
:103C30000680F781E02D4B835C8369837A83199535
:103C4000D501ED91FC914B815C81C40ED51EB1E094
:103C5000CB1AD1080088F189E02D780186016981AD
:103C60007A819B01C5011995D501ED91FC910288DE
:103C7000F389E02DC5010F900F900F900F90DF9109
:103C8000CF911F910F91FF90EF90DF90CF90BF9059
:103C9000AF901994AF92BF92CF92DF92EF92FF92C2
:103CA0000F931F93CF93DF9300D01F92CDB7DEB752
:103CB0005C016901DC01ED91FC910680F781E02D4A
:103CC0004B835C8369837A831995D501ED91FC91CF
:103CD00069817A819B012C0D3D1D2150310900889D
:103CE000F189E02D78014B815C818A01C50119952C
:103CF000D501ED91FC910288F389E02DC5010F906B
:103D00000F900F900F90DF91CF911F910F91FF9027
:103D1000EF90DF90CF90BF90AF9019944F925F9249
:103D20006F927F928F929F92AF92BF92CF92DF92CB
:103D3000EF92FF920F931F93CF93DF931F921F92E7
:103D4000CDB7DEB76C015A0139014801DC01ED91B4
:103D5000FC910680F781E02D69837A83199569814A
:103D6000462E7A81572E640C751CD601ED91FC917C
:103D7000461457046CF40484F585E02D8701940102
:103D8000A501B201C6011995BFEF4B1A5B0AEDCF31
:103D90000288F389E02DC6010F900F90DF91CF913B
:103DA0001F910F91FF90EF90DF90CF90BF90AF9059
:103DB0009F908F907F906F905F904F901994EF92AB
:103DC000FF920F931F93DC01ED91FC9111971A96CE
:103DD0000D911C911B9718962D913C911997048C6D
:103DE000F58DE02D7B0140E050E060E070E019953A
:103DF0001F910F91FF90EF900895CF92DF92EF9275
:103E0000FF920F931F93CF93DF9300D000D0CDB7D5
:103E1000DEB76C01DC01ED91FC916217730789F448
:103E2000041715072CF4942F852FA801092F182F9C
:103E3000041B150B98012F5F3F4F008CF18DE02D77
:103E400012C04017510709F5261737072CF4962F93
:103E5000872FB901292F382F261B370B2F5F3F4F94
:103E6000028CF38DE02D8701C601199526960FB6B9
:103E7000F894DEBF0FBECDBFDF91CF911F910F91A0
:103E8000FF90EF90DF90CF9008950680F781E02DAE
:103E90002D833E834B835C8369837A831995D60196
:103EA000ED91FC910088F189E02D2D813E814B81BF
:103EB0005C8169817A81C6011995D601ED91FC91E9
:103EC0000288F389E02DC60126960FB6F894DEBF6E
:103ED0000FBECDBFDF91CF911F910F91FF90EF905B
:103EE000DF90CF9019946F927F928F929F92AF92B2
:103EF000BF92CF92DF92EF92FF920F931F93CF93D7
:103F0000DF93EC014B015A0169013801E881F98125
:103F10000680F781E02D1995E881F9810684F785FF
:103F2000E02D87019601A501B401CE011995E88124
:103F3000F981A501460D571D415051090684F785A9
:103F4000E02D9601B401CE011995E881F981048430
:103F5000F585E02D9301A501B401CE011995E88105
:103F6000F981C80CD91CB601615071090484F5852A
:103F7000E02D9301A501CE011995E881F981028810
:103F8000F389E02DCE01DF91CF911F910F91FF902A
:103F9000EF90DF90CF90BF90AF909F908F907F90E9
:103FA0006F9019940895FC016370658B84819581ED
:103FB00026813781613039F0633029F0918780871D
:103FC00033872287089531872087938782870895D2
:103FD000FC01138212828AEB92E0918380837583C5
:103FE0006483578346837187608753874287158A26
:103FF000158614861786168681E0848B2FEF3FEF97
:10400000338B228B318B208B868B178A118E108EEF
:1040100008952F923F924F925F926F927F928F926C
:104020009F92AF92BF92CF92DF92EF92FF920F9347
:104030001F93CF93DF93CDB7DEB728970FB6F894D1
:10404000DEBF0FBECDBF5C013B014A0138872F8325
:10405000FC82EB8281E090E02C01421A530AC901F4
:104060009195819591099C01220F331F3A832983F1
:10407000170133E0230E311CEE24E394F12C802F42
:1040800081708D8302700E83C7010197EF81F885DF
:104090008E179F070CF078C057FC0CC0AF81B88515
:1040A0001197B887AF83E981FA813296FA83E98361
:1040B0004E0E5F1EC701880F991F0196480E591EAC
:1040C000FD81FF2359F1D501ED91FC912F813885B8
:1040D000220F331F2F5F3F4F8B819C81280F391F89
:1040E0000484F585E02D8601A401AF81B8854A1BC3
:1040F0005B0BB701660D771DC5011995D501ED91D3
:10410000FC910484F585E02D9101A4014E195F090D
:104110006F817885660D771DC5011995BE81BB231A
:1041200061F1D501ED91FC912F813885220F331F6C
:104130002F5F3F4F8B819C81280F391F0484F585A9
:10414000E02D8601A401AF81B8854A1B5B0BB3014A
:104150006E197F09C5011995D501ED91FC91048473
:10416000F585E02D9101A4014E195F09B3018F81FE
:104170009885681B790BC50119959FEFE91AF90A13
:10418000A2E02A0E311C80CF28960FB6F894DEBF2D
:104190000FBECDBFDF91CF911F910F91FF90EF9098
:1041A000DF90CF90BF90AF909F908F907F906F9057
:1041B0005F904F903F902F9008956F927F928F92D3
:1041C0009F92AF92BF92CF92DF92EF92FF920F93A6
:1041D0001F93CF93DF93EC014B013A015901680122
:1041E000E881F9810680F781E02D1995E881F98150
:1041F0009501220F331F2F5F3F4FA3014A195B091F
:104200000484F585E02DB401CE011995E12CF12C43
:1042100003E09501A301B401CE010E940920E881C9
:10422000F9810288F389E02DCE01DF91CF911F91B2
:104230000F91FF90EF90DF90CF90BF90AF909F9045
:104240008F907F906F9019942F923F924F925F9230
:104250006F927F928F929F92AF92BF92CF92DF9296
:10426000EF92FF920F931F93CF93DF93CDB7DEB7FB
:104270006C970FB6F894DEBF0FBECDBF9C8F8B8FAF
:104280005B011A011F830E833701C982DC01589636
:104290004D915C9159974115510509F0E5C018966B
:1042A0008D919C911997681779070CF0CAC11A96DD
:1042B0008D919C911B97281639060CF0C2C18C2C4D
:1042C000912CFB0136E0C39EE00DF11D1124FB870C
:1042D000EA871E161F060CF0B4C1C40133E0880F34
:1042E000991F3A95E1F79D878C87820D931D1816CB
:1042F00019060CF0A6C157968C91811103C0203B82
:1043000008F02F5FAB8DBC8DED91FC91119706806D
:10431000F781E02DCD012A8F19952A8DB5E02B9FCD
:1043200090011124F5013596FF87EE872501BB82A8
:10433000AA82A9014A195B09598B488BC1010896C9
:104340009B8B8A8BE889F989E40DF51DE650FD4FBA
:10435000949198873D822C826101A885A0FF13C0AB
:10436000AB8DBC8DED91FC91B981B13031F40084FD
:10437000F185E02D2E813F8116C00284F385E02D6A
:10438000EE80FF801AC0EE81FF816E167F06F1F08D
:10439000AB8DBC8DED91FC91B981B13051F40084AD
:1043A000F185E02D9301A601B2018B8D9C8D1995AD
:1043B0000DC00284F385E02D7301840194014C81CA
:1043C0005D816A817B818B8D9C8D1995E885E69551
:1043D000E8872C813D81280D391D3D832C833FEFDB
:1043E000C31AD30A4A895B89C416D50609F0B5CF2A
:1043F0008A819B81880D991D9B838A839FEF491A2F
:10440000590AAE85BF854A165B0609F09BCFEE813F
:10441000FF816E167F0609F4F2C0EB8DFC8DA08142
:10442000B181F981F13079F4B5016B5F7F4F1C9652
:10443000ED91FC911D97830128E030E0A1018B8D67
:104440009C8D1995DCC06A857B85681979091A9657
:10445000ED91FC911B9773010C851D859401A101C1
:104460008B8D9C8D1995CBC0FA013496949132971F
:1044700065917491291BCB01B7E02B9F800D911D95
:104480001124FA01259134913B8B2A8BFC01459133
:1044900054915B834A83FC013296C49031965491C7
:1044A0005C87329614913196D4908981823058F08D
:1044B000612E012E000C7708AD2D0D2C000CBB0BCE
:1044C000B987A88704C019861886612C712CAB8D1A
:1044D000BC8DED91FC9111970680F781E02DCD0107
:1044E0001995B9818B2E912C689CC001699C900D07
:1044F000789C900D1124FC01EA0DFB1DF98BE88BD3
:104500001C82712C612CE12F110FFF0B95012E0FD6
:104510003F1F3B872A87AC0CB11CA5014E0F5F1FC4
:104520005F8B4E8BC1018D0D911DD7FC9A95998F94
:10453000888F4C85641608F062C0862D90E048850F
:104540005985480F591F489D9001499D300D589D30
:10455000300D1124D901A20DB31DBF87AE87AA84E7
:10456000BB8448885988DC80BA85DB1AE88DF98DD0
:10457000E80FF91FFD8BEC8B8D2D8A0D2E893F895D
:10458000A216B306B9F1877061F48A819B81019606
:10459000EA89FB89AA81BB81EA0FFB1F74909B8388
:1045A0008A8377FE20C0AB8DBC8DED91FC91B981E3
:1045B000B13061F40084F185E02D2E813F814C897A
:1045C0005D89B5018B8D9C8D19950DC00284F38595
:1045D000E02DEE80FF80840194014E855F85B2015D
:1045E0008B8D9C8D1995770C480C591CEFEFAE1AEA
:1045F000BE0AC2CF3C813C0D3C8363949ACFAB8D05
:10460000BC8DED91FC9111970288F389E02DCD01CD
:104610006C960FB6F894DEBF0FBECDBFDF91CF9181
:104620001F910F91FF90EF90DF90CF90BF90AF90D0
:104630009F908F907F906F905F904F903F902F90C2
:1046400019946C960FB6F894DEBF0FBECDBFDF9104
:10465000CF911F910F91FF90EF90DF90CF90BF907F
:10466000AF909F908F907F906F905F904F903F9012
:104670002F900895AF92BF92CF92EF92FF920F9337
:104680001F93CF93DF93EC01262F888D998D009790
:1046900009F040C06A3059F41D861C862C898E852D
:1046A0009F8538E0239F800D911D112441C06D30FE
:1046B00009F4AAC08E898823C1F03C898C859D8528
:1046C00046E0349F800D911D112448855985481777
:1046D00059075CF41D861C868E859F8548E0349FB3
:1046E000800D911D11249F878E87EA88FB88088999
:1046F00019894E855F856C857D85CC88CE010E94A9
:1047000024212C898C859D8536E0239F800D911D69
:10471000112442C06A3079F41D861C862C89FC0164
:104720003696E4918E859F852E9F800D911D1124D4
:104730009F878E8769C06D3009F466C0FC0134968E
:104740003491631708F460C03196E491E61708F4D9
:104750005BC0FC013296A590B490462F50E0431BFD
:10476000510937E0349FB001359F700D1124A60E1A
:10477000B71EF501329634913196E491332311F04E
:10478000E1110DC0F5013496E4912C898C859D854D
:10479000E29F800D911D11249D878C8735C0F50106
:1047A000359644915E89552311F16C89E32FF0E031
:1047B000E40FF11D47FDFA956E9FD0016F9FB00D7C
:1047C00011244C855D854A0F5B1FE885F985E41748
:1047D000F5076CF41D861C86FC013696E4918E85E7
:1047E0009F856E9F800D911D11249F878E87EA887B
:1047F000FB88088919894E855F856C857D85CC8805
:10480000CE010E942421BECF81E090E0DF91CF91C4
:104810001F910F91FF90EF90CF90BF90AF900895B0
:10482000FC0175876487578746870895611101C029
:1048300061E0FC01648B0895FC01668B0895DC0146
:104840009C96ED91FC919D979081D1968C91892BAE
:1048500080830895EF92FF920F931F93DC01ED91F7
:10486000FC910284F385E02D7801890121E030E09C
:1048700019951F910F91FF90EF900895EF92FF927D
:104880000F931F93DC01ED91FC910284F385E02DE1
:10489000780101E010E019951F910F91FF90EF90C2
:1048A00008950F931F93CF93DF9300D000D0CDB71F
:1048B000DEB78C01DC01ED91FC910680F781E02DE3
:1048C0002D833E834B835C8369837A831995D8015A
:1048D000ED91FC910084F185E02D2D813E814B818D
:1048E0005C8169817A81C8011995D801ED91FC91AB
:1048F0000288F389E02DC80126960FB6F894DEBF32
:104900000FBECDBFDF91CF911F910F911994EF9200
:10491000FF920F931F93CF93DF9300D000D0CDB7BA
:10492000DEB77C01DC01ED91FC910680F781E02D82
:104930002D833E834B835C8369837A831995D701EA
:10494000ED91FC910484F585E02D2D813E814B8114
:104950005C8169817A81C7011995D701ED91FC913C
:104960000288F389E02DC70126960FB6F894DEBFC2
:104970000FBECDBFDF91CF911F910F91FF90EF90B0
:104980001994EF92FF920F931F93CF93DF9300D070
:1049900000D0CDB7DEB77C01DC01ED91FC91068043
:1049A000F781E02D2D833E834B835C8369837A837B
:1049B0001995D701ED91FC910684F785E02D2D81A5
:1049C0003E814B815C8169817A81C7011995D7014C
:1049D000ED91FC910288F389E02DC70126960FB670
:1049E000F894DEBF0FBECDBFDF91CF911F910F9125
:1049F000FF90EF901994CF92DF92EF92FF920F9376
:104A00001F93CF93DF9300D000D0CDB7DEB76C01FA
:104A1000DC01ED91FC910680F781E02D2D833E8332
:104A20004B835C8369837A831995D601ED91FC9160
:104A30000284F385E02D2D813E814B815C8169816B
:104A40007A81C6011995D601ED91FC910288F3890E
:104A5000E02DC60126960FB6F894DEBF0FBECDBF7F
:104A6000DF91CF911F910F91FF90EF90DF90CF904A
:104A70001994CF93DF93EC0189A187FF09C084E0EB
:104A80000E94D62A81E00E94C82A80E00E94D12A92
:104A9000ECA5FDA5908189A9809589238083DF916C
:104AA000CF910895EF92FF920F931F93CF93DF93CF
:104AB0001F92CDB7DEB77C01062F142F40E451E0E2
:104AC00060EF70E029830E94E81F82EE92E0D70138
:104AD00011969C938E935E960C935E975F961C93B3
:104AE0005F97298190962C9390978FEF91968C9356
:104AF000919792968C93929793968C939397F701B4
:104B0000128E138E148E158E602F000F770BFB0103
:104B1000EA59FD4F8491E82FF0E0EE0FFF1FEA53B2
:104B2000FD4F859194919D969C938E939C97FB014C
:104B3000E05EFD4FE491D196EC93D197412F110F98
:104B4000550BFA01EA59FD4FE491F0E0EE0FFF1F1B
:104B5000EA53FD4F85919491F70193A782A7FA013B
:104B6000E05EFD4FE491D296EC93D29799961C9219
:104B70001E929897D0961C92D09795961C921E9252
:104B800094979E961C929E9797961C921E9296972B
:104B90009F961C920F90DF91CF911F910F91FF90E4
:104BA000EF900895FC0181A187FF05C06EBD0DB493
:104BB00007FEFDCF089528E030E090E8A4A1B5A15C
:104BC00086A5492F462319F04C91842B03C04C91A4
:104BD000809584238C93A0A5B1A54C9180A9809544
:104BE00084238C93A0A5B1A54C9180A9842B8C9390
:104BF00096952150310911F70895CF93DF93EC0179
:104C0000EAA5FBA590818AA9809589238083CE019E
:104C10000E94D225EAA5FBA590818AA9892B8083D1
:104C2000DF91CF910895CF93DF93EC0141155105AA
:104C30006105710521F440E052E16AE770E04A8FB6
:104C40005B8F6C8F7D8F61E08F8D0E94561860E0C6
:104C50008F8D0E94921861E08E8D0E94561861E03F
:104C60008E8D0E94921889A187FD16C061E08AA1ED
:104C70000E94561860E08AA10E94921861E089A102
:104C80000E94561861E089A10E9492188BA187FDAD
:104C900003C060E00E94561889A187FD0E94B22AD5
:104CA00088A187FD21C061E00E94561861E088A1BB
:104CB0000E94921864E670E080E090E00E9457172E
:104CC00060E088A10E94921864E670E080E090E0C5
:104CD0000E94571761E088A10E94921868EC70E06A
:104CE00080E090E00E945717E881F9810680F78103
:104CF000E02DCE0119956FEECE010E94FD2563E0F7
:104D0000CE010E94D22560E8CE010E94D22562E049
:104D1000CE010E94D2256FECCE010E94FD2560E0FD
:104D2000CE010E94D22561ECCE010E94D22560E323
:104D3000CE010E94D2256DEECE010E94FD2564E6D3
:104D4000CE010E94D22563E0CE010E94D22562E10D
:104D5000CE010E94D22561E8CE010E94D22568EEE4
:104D6000CE010E94FD2565E8CE010E94D22560E0BB
:104D7000CE010E94D22568E7CE010E94D2256BECBD
:104D8000CE010E94FD2569E3CE010E94D2256CE28E
:104D9000CE010E94D22560E0CE010E94D22564E3BC
:104DA000CE010E94D22562E0CE010E94D22567EF9B
:104DB000CE010E94FD2560E2CE010E94D2256AEE5E
:104DC000CE010E94FD2560E0CE010E94D22560E068
:104DD000CE010E94D22560ECCE010E94FD2563E247
:104DE000CE010E94D22561ECCE010E94FD2560E13A
:104DF000CE010E94D22565ECCE010E94FD256EE316
:104E0000CE010E94D22568E2CE010E94D22567EC35
:104E1000CE010E94FD2566E8CE010E94D22566E300
:104E2000CE010E94FD2568E4CE010E94D22567E3F1
:104E3000CE010E94FD2589A187FF09C01EBC0DB4CB
:104E400007FEFDCF1EBC0DB407FEFDCF08C060E01D
:104E5000CE010E94D22560E0CE010E94D2256AE3F5
:104E6000CE010E94FD2565E5CE010E94D22561EBB1
:104E7000CE010E94FD2560E0CE010E94D22568E1AE
:104E8000CE010E94D22566EBCE010E94FD2568E08E
:104E9000CE010E94D22562E8CE010E94D22567E2AF
:104EA000CE010E94D22562EFCE010E94FD2560E076
:104EB000CE010E94D22566E2CE010E94FD2561E06E
:104EC000CE010E94D22560EECE010E94FD256FE04A
:104ED000CE010E94D22561E3CE010E94D2256BE271
:104EE000CE010E94D2256CE0CE010E94D2256EE058
:104EF000CE010E94D22568E0CE010E94D2256EE448
:104F0000CE010E94D22561EFCE010E94D22567E337
:104F1000CE010E94D22567E0CE010E94D22560E139
:104F2000CE010E94D22563E0CE010E94D2256EE020
:104F3000CE010E94D22569E0CE010E94D22560E018
:104F4000CE010E94D22561EECE010E94FD2560E0D7
:104F5000CE010E94D2256EE0CE010E94D22564E1EE
:104F6000CE010E94D22563E0CE010E94D22561E1EC
:104F7000CE010E94D22567E0CE010E94D22561E3D6
:104F8000CE010E94D22561ECCE010E94D22568E4B8
:104F9000CE010E94D22568E0CE010E94D2256FE0AA
:104FA000CE010E94D2256CE0CE010E94D22561E3A1
:104FB000CE010E94D22566E3CE010E94D2256FE089
:104FC000CE010E94D22561E1CE010E94FD2568E755
:104FD00070E080E090E00E94571769E2CE010E94E5
:104FE000FD2568E770E080E090E00E945717E881B7
:104FF000F9810288F389E02DCE01199580EF90E0C8
:105000009987888780E491E09B878A87DF91CF9199
:1050100008951F93CF93DF93EC0163706D8B623023
:10502000C1F0633001F1613051F080EF90E0998779
:10503000888780E491E09B878A8718E41DC080E41C
:1050400091E09987888780EF90E09B878A8718E2B4
:1050500013C080EF90E09987888780E491E09B8778
:105060008A8718E809C080E491E09987888780EFF3
:1050700090E09B878A8718EEE881F9810680F781A6
:10508000E02DCE01199566E3CE010E94FD25612F2A
:10509000CE010E94D225E881F9810288F389E02DB2
:1050A000CE01DF91CF911F9119940F931F93CF934E
:1050B000DF931F92CDB7DEB78C01DC01ED91FC913F
:1050C0000680F781E02D698319956981611102C01D
:1050D00060E201C061E2C8010E94FD25D801ED91A6
:1050E000FC910288F389E02DC8010F90DF91CF91E8
:1050F0001F910F9119948F929F92AF92BF92CF926E
:10510000DF92EF92FF920F931F93CF93DF93EC0107
:10511000490181E0881A9108860E971EC401A0E01B
:10512000B0E04B01A12CB12C540199248824882A89
:10513000992AAA2ABB2A680181E0C81AD108C40E9C
:10514000D51EC601A0E0B0E06A01E12CF12C760189
:10515000DD24CC24C82AD92AEA2AFB2A6AE2CE0115
:105160000E94FD2529A16B2D77278827992727FFE6
:1051700018C06EBD0DB407FEFDCFC501AA27BB2721
:105180008EBD0DB407FEFDCFBB27AB2D9A2D892D0B
:105190008EBD0DB407FEFDCF8EBC0DB407FEFDCF56
:1051A00014C0CE010E94D225B50188279927CE01CF
:1051B0000E94D22599278B2D7A2D692DCE010E9430
:1051C000D225682DCE010E94D2256BE2CE010E942D
:1051D000FD2529A16F2D77278827992727FF18C03C
:1051E0006EBD0DB407FEFDCFC701AA27BB278EBD3C
:1051F0000DB407FEFDCFBB27AF2D9E2D8D2D8EBD8F
:105200000DB407FEFDCFCEBC0DB407FEFDCF14C01C
:10521000CE010E94D225B70188279927CE010E948E
:10522000D22599278F2D7E2D6D2DCE010E94D2255E
:105230006C2DCE010E94D2256CE2CE01DF91CF9180
:105240001F910F91FF90EF90DF90CF90BF90AF90A4
:105250009F908F900C94FD251F93CF93DF93262F63
:10526000FC0131A137FF09C07EBD0DB407FEFDCFA3
:105270002EBD0DB407FEFDCF0CC0672F122FEC0121
:105280000E94D225612FCE01DF91CF911F910C9406
:10529000D225DF91CF911F910895EF92FF920F9346
:1052A0001F93CF93DF9377FD23C0DC011896ED9118
:1052B000FC9119976E177F07DCF457FD19C01A96F9
:1052C000ED91FC911B974E175F0794F47901EC0167
:1052D00001E010E021E030E00E947B28B701CE0120
:1052E000DF91CF911F910F91FF90EF900C942C299B
:1052F000DF91CF911F910F91FF90EF900895EF9262
:10530000FF921F93CF93DF9300D01F921F92CDB7D0
:10531000DEB77C01162FFC0181A187FF12C0211589
:1053200031054105510549F17EBD0DB407FEFDCFA4
:105330001EBD0DB407FEFDCF2150310941095109B1
:10534000EECF2115310541055105B9F0672FC70191
:1053500029833A834B835C837D830E94D225612F0E
:10536000C7010E94D22529813A814B815C8121505D
:105370003109410951097D81E4CF0F900F900F90C1
:105380000F900F90DF91CF911F91FF90EF900895B4
:105390008F929F92AF92BF92CF92DF92EF92FF9245
:1053A0000F931F93CF93DF935C01FB01E90147014A
:1053B000DC0118962D913C911997621773070CF038
:1053C00049C01A968D919C911B97481759070CF06C
:1053D00041C06B01CC0EDD1ED60111977A01E00EA3
:1053E000F11EB70161507109B7FD34C077FD32C0BD
:1053F000F7FF03C0E601E0E0F0E057FF03C08701DC
:1054000040E050E0A217B3071CF0E901CE1BDF0B10
:10541000681779071CF08C01041B150B9E01D8013D
:105420000E94122B6B017C01BF01C5010E947B28E9
:10543000A7019601B401C501DF91CF911F910F9192
:10544000FF90EF90DF90CF90BF90AF909F908F90A4
:105450000C947F29DF91CF911F910F91FF90EF90D6
:10546000DF90CF90BF90AF909F908F900895EF9274
:10547000FF920F931F93DC0112964C931297149690
:105480002C93149713960C93139715966C9315976A
:105490001796FC92EE92169770E0FB01EA59FD4FC9
:1054A000E491F0E0EE0FFF1FEA53FD4F85919491D8
:1054B00019969C938E93189750E0FA01EA59FD4F84
:1054C000E491F0E0EE0FFF1FEA53FD4F85919491B8
:1054D0001B969C938E931A9730E0F901EA59FD4F81
:1054E000E491F0E0EE0FFF1FEA53FD4F8591949198
:1054F0001D969C938E931C9710E0F801EA59FD4F7E
:10550000849190E0880F991F8A539D4FFC018591EB
:1055100094911F969C938E931E97FB01E05EFD4F26
:10552000649150966C935097FA01E05EFD4F449160
:1055300052964C935297F901E05EFD4F249151969B
:105540002C935197F801E05EFD4F049153960C9314
:1055500053978AE090E08D939C931F910F91FF9059
:10556000EF90089561E085E30E94921861E085E381
:105570000E9456188CB580618CBD8CB580648CBD42
:1055800061E084E30E94561861E083E30C945618AE
:10559000811103C08CB5806202C08CB58F7D8CBD3B
:1055A00008959CB5937F892B8CBD08959CB5282FB9
:1055B00023709C7F922B9CBD2DB582FB992790F97F
:1055C000822F8E7F892B8DBD0895F8940C94302BFB
:1055D000A1E21A2EAA1BBB1BFD010DC0AA1FBB1FF7
:1055E000EE1FFF1FA217B307E407F50720F0A21B69
:1055F000B30BE40BF50B661F771F881F991F1A94D6
:1056000069F760957095809590959B01AC01BD01FF
:10561000CF010895EE0FFF1F881F8BBF0790F691F3
:10562000E02D19940E941A2B332312F48A1B9B0B32
:105630000C942B2BA29FB001B39FC001A39F700DB0
:10564000811D1124911DB29F700D811D1124911D8A
:1056500008950E941A2BB7FF0895821B930B08959B
:04566000F894FFCFEC
:105664000120796F752073636F7265643A2000209E
:105674005041432D4D414E2000205052455353205C
:105684004A4F59535449434B20544F205354415289
:10569400542021200020616C6D6F7374206174208C
:1056A4007768696C6500627574746F6E20707265DA
:1056B400737365640053697A653A203100507265EA
:1056C40073732074686520456E746572206B657908
:1056D40020616674657220696E707574696E6720E6
:1056E4006E616D653A00205459504520594F55520A
:1056F400204E414D452000596F7572204E616D65F5
:105704002069733A200000000000AD19EB18561907
:1057140082196619A219000000003A23EB185519E2
:10572400D41DD51DF41DDC1DE81D2B1D041ED31F27
:10573400D21F051E4A1E8E1EDF1EFD1E731F000093
:1057440000003A23EB18512439254D29C8292A246D
:105754003E242B1D1F24092855288724C124FB24FB
:06576400DF1EFD1E731F95
:00000001FF
