:100000000C9442010C9473010C9473010C947301D1
:100010000C9473010C9473010C9473010C94730190
:100020000C9473010C9473010C9473010C94730180
:100030000C9473010C9473010C9473010C94730170
:100040000C9473010C9473010C9473010C94730160
:100050000C9473010C9473010C9473010C949C0325
:100060000C9473010C9455070C9421080C947301A3
:100070000C9473010C9473010C9473010C94730130
:100080000C9473010C9473010C9473010C94730120
:100090000C9488070C9460080C9473010C94730101
:1000A0000C9473010C9473010C9473010C94730100
:1000B0000C9473010C9473010C9473010C947301F0
:1000C0000C9473010C9473010C9473010C94BB0792
:1000D0000C949F080C9473010C94EE070C94DE08AA
:1000E0000C947301AA04AD04A004A404E404B104B4
:1000F000B504BB04BF04C304C904CD04D104E404A3
:10010000D704DB04DF040C94DB040C94AA040C94E5
:10011000A4040C94E4040C94CE060C94D1040C9426
:10012000B2060C94BF040C94A2060C94DF040C9449
:10013000C9040C94CD040C94EE060C94B5040C94F4
:10014000B1040C94D7040C94A5090C947A050C9472
:10015000F9060C94BB040C94A0040C94AD040C940C
:10016000C3040000090A02080B0C0D070603040172
:10017000000000000000000000000000000000007F
:10018000000000000000000000000000000011104E
:100190000F00000000000000000000000000000050
:1001A00000000000000000000102102020080810DC
:1001B00020401020408002010201080402010102D7
:1001C00004081020408080402010080402018004B0
:1001D000020180402010080402010804020101020B
:1001E000040810204080010204081020408005050A
:1001F0000505070508080808020202020A0A08089D
:1002000004040404010101010101010103030303CA
:1002100003030303040707070C0C0C0C0C0C0C0C59
:100220000202020206060606060606060B0B0B0B6A
:100230000B0B0B0B000020002300260029002C00D4
:100240002F00320000010000030106010901000037
:100250002200250028002B002E003100340002016E
:100260000000050108010B01000021002400270007
:100270002A002D00300033000101000004010701B5
:100280000A01A50911241FBECFEFD1E2DEBFCDBF09
:1002900000E00CBF12E0A0E0B2E0E2EDF6E100E029
:1002A0000BBF02C007900D92AE34B107D9F724E01E
:1002B000AEE4B2E001C01D92AF3FB207E1F711E03A
:1002C000C2E4D1E000E006C021970109802FFE01C1
:1002D0000E94290BC134D10780E00807A9F70E94CA
:1002E00091030C94D10A0C9400000E94310440E860
:1002F00055E260E070E08DEB92E00E941D0961E044
:100300008DE00E94E50461E08CE00E94E50461E07C
:100310008BE00E94E50460E088E00E94E50461E073
:1003200088E00E94210560E087E00E94E50461E02A
:1003300087E00E94210560E083E00E94E50461E01F
:1003400083E00E94210560E08DE00E94210560E0CD
:100350008CE00E94210560E08BE00C942105CF9297
:10036000DF92EF92FF920F931F93CF93DF9368EE8C
:1003700073E080E090E00E940B04C4E0D2E003E070
:1003800010E00E94C20AB8010E94D40A899399938E
:1003900082E0CC32D807A9F7C4E0D2E06991799124
:1003A0004AE050E08DEB92E00E948406A2E0CC325D
:1003B000DA07A1F78DEB92E00E94BE0561E08DE0C7
:1003C0000E94210561E08CE00E94210561E08BE044
:1003D0000E94210568EE73E080E090E00E940B042B
:1003E00060E08DE00E94210560E08CE00E94210524
:1003F00060E08BE00E94210568EE73E080E090E011
:100400000E940B0401E010E084E0E82E82E0F82E68
:10041000C0E0D0E0C017D10734F56701D701ED91F6
:10042000FD917D01EE0FFF1FE85CFD4F61E08081D3
:100430000E94210564E873E080E090E00E940B04D4
:10044000D601ED91FC91EE0FFF1FE85CFD4F60E0DF
:1004500080810E94210564EF71E080E090E00E94BD
:100460000B042196D7CFC0E0D0E0C017D10759F4D4
:100470008E010F5F1F4F6CE271E080E090E00E9400
:100480000B04F12C02C0FF24F39488E00E94510574
:10049000892B51F4FE01EE0FFF1FEC5FFD4F8081B1
:1004A0009181892B09F460C087E00E945105892B56
:1004B00051F4FE01EE0FFF1FEC5FFD4F8081918133
:1004C000019709F468C083E00E945105892B51F41B
:1004D000FE01EE0FFF1FEC5FFD4F808191810297BF
:1004E00009F470C088E00E945105892B51F4FE0187
:1004F000EE0FFF1FEC5FFD4F80819181892B09F08A
:1005000078C087E00E945105892B51F4FE01EE0F5F
:10051000FF1FEC5FFD4F80819181019709F069C059
:1005200083E00E945105892B51F4FE01EE0FFF1F5D
:10053000EC5FFD4F80819181029709F05AC0F11064
:1005400094CFC0E06CE272E08DEB92E00E94D205A5
:10055000CC2309F459CFDF91CF911F910F91FF90D8
:10056000EF90DF90CF90089561E08DE00E9421052B
:1005700021964AE050E0B8018DEB92E00E948B0694
:100580006CE271E080E090E00E940B0460E08DE09E
:100590000E94210589CF61E08CE00E94210521960F
:1005A0004AE050E0B8018DEB92E00E948B066CE2CD
:1005B00071E080E090E00E940B0460E08CE00E941B
:1005C000210581CF61E08BE00E94210521964AE060
:1005D00050E0B8018DEB92E00E948B066CE271E076
:1005E00080E090E00E940B0460E08BE00E94210517
:1005F00079CF61E08DE00E94210561E08CE00E94EE
:10060000210561E08BE00E94210568EE73E080E047
:1006100090E00E940B0461E08DE00E94210561E002
:100620008CE00E94210560E08BE00E94210568EECD
:1006300073E080E090E00E940B0461E08DE00E9496
:10064000210560E08CE00E94210560E08BE00E94C3
:10065000210568EE73E080E090E00E940B0460E00A
:100660008DE00E94210560E08CE00E94210560E0A1
:100670008BE00E94210568EE73E080E090E00E942C
:100680000B0461E08DE00E94210561E08CE00E9496
:10069000210561E08BE00E94210564EF71E080E0BC
:1006A00090E00E940B0460E08DE00E94210560E074
:1006B0008CE00E94210560E08BE00E94210564EF40
:1006C00071E080E090E00E940B0461E08DE00E9408
:1006D000210561E08CE00E94210561E08BE00E9431
:1006E000210564EF71E080E090E00E940B0460E07F
:1006F0008DE00E94210560E08CE00E94210560E011
:100700008BE00E94210561E372E08DEB92E00E9494
:10071000D2056CE271E080E090E00E940B04C1E041
:1007200011CF0E9475010E94AF018DEB92E00E94F3
:10073000EE0680E090E008951F920F920FB60F92A0
:1007400011242F933F938F939F93AF93BF938091E7
:100750004F0290915002A0915102B09152023091FB
:100760004E0223E0230F2D3720F40196A11DB11D69
:1007700005C026E8230F0296A11DB11D20934E024D
:1007800080934F0290935002A0935102B093520273
:100790008091530290915402A0915502B09156025B
:1007A0000196A11DB11D8093530290935402A09312
:1007B0005502B0935602BF91AF919F918F913F9197
:1007C0002F910F900FBE0F901F9018953FB7F89480
:1007D0008091530290915402A0915502B09156021B
:1007E00026B5A89B05C02F3F19F00196A11DB11D8C
:1007F0003FBFBA2FA92F982F8827820F911DA11DC7
:10080000B11DBC01CD0142E0660F771F881F991F03
:100810004A95D1F70895CF92DF92EF92FF92CF934E
:10082000DF936B017C010E94E603EB01C114D1044C
:10083000E104F10479F00E94E6036C1B7D0B683E35
:100840007340A0F381E0C81AD108E108F108C8514B
:10085000DC4FECCFDF91CF91FF90EF90DF90CF9006
:100860000895789484B5826084BD84B5816084BD28
:1008700085B5826085BD85B5816085BDEEE6F0E019
:10088000808181608083E1E8F0E010828081826075
:100890008083808181608083E0E8F0E080818160F6
:1008A0008083E1EBF0E0808184608083E0EBF0E026
:1008B000808181608083E1E9F0E0808182608083D3
:1008C000808181608083E0E9F0E0808181608083C5
:1008D000E1EAF0E0808182608083808181608083B2
:1008E000E0EAF0E0808181608083E1E2F1E08081F4
:1008F00082608083808181608083E0E2F1E080819A
:1009000081608083EAE7F0E0808184608083808179
:100910008260808380818160808380818068808321
:100920001092C100089590E0FC013197E131F1058A
:1009300008F04AC08827EE58FF4F8F4F0C94290BC0
:10094000809180008F7703C0809180008F7D80939D
:100950008000089584B58F7702C084B58F7D84BDF3
:1009600008958091B0008F7703C08091B0008F7D93
:100970008093B0000895809190008F7707C0809198
:1009800090008F7D03C080919000877F80939000BE
:1009900008958091A0008F7707C08091A0008F7D7F
:1009A00003C08091A000877F8093A000089580916C
:1009B00020018F7707C0809120018F7D03C0809137
:1009C0002001877F809320010895CF93DF9390E0EB
:1009D000FC01E855FE4F2491FC01E251FE4F849149
:1009E000882361F190E0880F991FFC01E859FD4FC1
:1009F000C591D491FC01E25BFD4FA591B4916111C9
:100A000009C09FB7F8948881209582238883EC9150
:100A10002E230BC0623061F49FB7F8943881822F87
:100A2000809583238883EC912E2B2C939FBF06C047
:100A30008FB7F894E8812E2B28838FBFDF91CF9159
:100A400008951F93CF93DF93282F30E0F901EE59DB
:100A5000FE4F8491F901E855FE4FD491F901E2511E
:100A6000FE4FC491CC23C9F0162F81110E9493042C
:100A7000EC2FF0E0EE0FFF1FE25BFD4FA591B4916C
:100A80008FB7F894111105C09C91ED2FE095E923E3
:100A900002C0EC91ED2BEC938FBFDF91CF911F91B2
:100AA0000895CF93DF93282F30E0F901EE59FE4FE0
:100AB0008491F901E855FE4FD491F901E251FE4FBE
:100AC000C491CC2391F081110E949304EC2FF0E0AB
:100AD000EE0FFF1FEC5CFD4FA591B491EC91ED235F
:100AE00081E090E021F480E002C080E090E0DF91BE
:100AF000CF910895CF92DF92EF92FF920F931F93C1
:100B0000CF93DF936C01EB017B01E40EF51E00E057
:100B100010E0CE15DF0561F06991D601ED91FC91F1
:100B20000190F081E02DC6011995080F191FF1CF32
:100B3000C801DF91CF911F910F91FF90EF90DF904F
:100B4000CF9008956115710579F0FB0101900020A7
:100B5000E9F73197AF01461B570BDC01ED91FC9192
:100B60000280F381E02D199480E090E00895DC018B
:100B7000ED91FC910190F081E02D19940F931F935A
:100B8000CF93DF93EC016DE00E94B7058C016AE022
:100B9000CE010E94B705800F911FDF91CF911F9169
:100BA0000F9108950F931F93CF93DF93EC010E9451
:100BB000A2058C01CE010E94BE05800F911FDF911E
:100BC000CF911F910F9108958F929F92AF92BF92F4
:100BD000CF92DF92EF92FF920F931F93CF93DF9309
:100BE000CDB7DEB7A1970FB6F894DEBF0FBECDBF6D
:100BF0006C01142FE52FCB01022F19A2223008F42B
:100C00000AE07E0121E2E20EF11C802E912CA12C43
:100C1000B12C612F7E2FA50194010E94E80A029F4A
:100C20001019112481E0E81AF1081A3014F4105D4B
:100C300001C0195CF7011083122FE32FCA01232B87
:100C4000242B252B31F7B701C6010E94A205A196DE
:100C50000FB6F894DEBF0FBECDBFDF91CF911F91CD
:100C60000F91FF90EF90DF90CF90BF90AF909F904B
:100C70008F900895CF92DF92EF92FF920F931F9380
:100C8000CF93DF93EC016A017B012115310579F4E3
:100C9000E881F9810190F081E02D642FDF91CF91FF
:100CA0001F910F91FF90EF90DF90CF9019942A3011
:100CB0003105E9F477FF1AC06DE20E94B7058C0197
:100CC00044275527BA014C195D096E097F092AE0AE
:100CD000CE010E94E405800F911FDF91CF911F91FB
:100CE0000F91FF90EF90DF90CF9008952AE0B70129
:100CF000A601CE01DF91CF911F910F91FF90EF9050
:100D0000DF90CF900C94E4059A01AB01770F660B4E
:100D1000770B0C943A060F931F93CF93DF93EC015C
:100D20009A01AB01770F660B770B0E943A068C0194
:100D3000CE010E94BE05800F911FDF91CF911F91C0
:100D40000F910895FC0124853585F901E05CFF4F82
:100D500080819181329620813181821B930B8F7328
:100D600099270895DC011C96ED91FC911D97DF01F8
:100D7000A05CBF4F2D913C91119712968D919C9143
:100D800011972817390739F08D919C91E80FF91FB9
:100D9000808190E008958FEF9FEF0895FC01A48576
:100DA000B585FD01E05CFF4F208131813296808165
:100DB00091812817390779F080819181A80FB91F97
:100DC0008C91208131812F5F3F4F2F7333273183E7
:100DD000208390E008958FEF9FEF0895FC0181A19B
:100DE000882329F0A489B5898C9186FFFBCF11A2B5
:100DF00008950F931F93CF93DF93FC01A685B785CA
:100E00008D01005C1F4FE8018881998101968F73E5
:100E10009927AD014E5B5F4FEA0128813981821726
:100E20009307D1F3E80128813981A20FB31F6C9396
:100E3000A685B785A05CBF4F11969C938E93A6891B
:100E4000B7892C9181E090E0078C02C0880F991F30
:100E50000A94E2F7822B8C9381E081A30488F589C0
:100E6000E02D80818064808381E090E0DF91CF91EC
:100E70001F910F910895FB01E05CFF4F20813181AC
:100E80002F5F3F4F2F733327DB01AE5BBF4F4D9179
:100E90005C912417350741F040815181DB01A40F9B
:100EA000B51F8C933183208308951F920F920FB644
:100EB0000F9211240BB60F922F933F934F935F9392
:100EC0006F937F938F939F93AF93BF93EF93FF9312
:100ED0008091C00082FD07C08091C6006BEB74E07A
:100EE0000E943B0702C08091C600FF91EF91BF9125
:100EF000AF919F918F917F916F915F914F913F91B2
:100F00002F910F900BBE0F900FBE0F901F90189552
:100F10001F920F920FB60F9211240BB60F922F93C0
:100F20003F934F935F936F937F938F939F93AF9371
:100F3000BF93EF93FF938091C80082FD07C080911B
:100F4000CE0063E374E00E943B0702C08091CE00B4
:100F5000FF91EF91BF91AF919F918F917F916F9191
:100F60005F914F913F912F910F900BBE0F900FBE4D
:100F70000F901F9018951F920F920FB60F92112489
:100F80000BB60F922F933F934F935F936F937F9383
:100F90008F939F93AF93BF93EF93FF938091D00074
:100FA00082FD07C08091D6006BEA73E00E943B0788
:100FB00002C08091D600FF91EF91BF91AF919F91B8
:100FC0008F917F916F915F914F913F912F910F90F2
:100FD0000BBE0F900FBE0F901F9018951F920F928F
:100FE0000FB60F9211240BB60F922F933F934F938E
:100FF0005F936F937F938F939F93AF93BF93EF9381
:10100000FF938091300182FD07C08091360163E239
:1010100073E00E943B0702C080913601FF91EF917F
:10102000BF91AF919F918F917F916F915F914F9100
:101030003F912F910F900BBE0F900FBE0F901F90FE
:1010400018951F920F920FB60F9211240BB60F92A4
:101050002F933F938F939F93EF93FF932091B70428
:101060003091B8048091B9049091BA0428173907D7
:1010700031F48091C1008F7D8093C10014C0E09154
:10108000B904F091BA04E958FB4F20818091B9046A
:101090009091BA0401968F7399279093BA04809324
:1010A000B9042093C600FF91EF919F918F913F91DA
:1010B0002F910F900BBE0F900FBE0F901F901895A1
:1010C0001F920F920FB60F9211240BB60F922F930F
:1010D0003F938F939F93EF93FF9320912F04309131
:1010E000300480913104909132042817390731F48B
:1010F0008091C9008F7D8093C90014C0E0913104B4
:10110000F0913204E151FC4F2081809131049091A3
:10111000320401968F73992790933204809331049F
:101120002093CE00FF91EF919F918F913F912F914E
:101130000F900BBE0F900FBE0F901F9018951F922F
:101140000F920FB60F9211240BB60F922F933F936D
:101150008F939F93EF93FF932091A7033091A80360
:101160008091A9039091AA032817390731F480913F
:10117000D1008F7D8093D10014C0E091A903F0913C
:10118000AA03E959FC4F20818091A9039091AA03F9
:1011900001968F7399279093AA038093A9032093B4
:1011A000D600FF91EF919F918F913F912F910F90DA
:1011B0000BBE0F900FBE0F901F9018951F920F92AD
:1011C0000FB60F9211240BB60F922F933F938F936C
:1011D0009F93EF93FF9320911F0330912003809101
:1011E0002103909122032817390731F480913101AE
:1011F0008F7D8093310114C0E0912103F09122038F
:10120000E152FD4F208180912103909122030196AC
:101210008F739927909322038093210320933601A3
:10122000FF91EF919F918F913F912F910F900BBE66
:101230000F900FBE0F901F901895CF92DF92EF92F4
:10124000FF920F931F93CF93DF93EC016A017B0111
:101250004115514E6105710509F1EC89FD8981E067
:1012600090E008A002C0880F991F0A94E2F78083DB
:1012700060E079E08DE390E0A70196010E94E80A22
:1012800089019A01015011092109310936952795E3
:1012900017950795980101151041A8F0EC89FD8973
:1012A000108260E874E88EE190E0A70196010E9448
:1012B000E80ADA01C9010197A109B109B695A79514
:1012C000979587959C01E889F9893083EA89FB899C
:1012D000208319A2EE89FF89408181E090E09C0182
:1012E0000C8C02C0220F331F0A94E2F7242B2083B8
:1012F000EE89FF8940819C010D8C02C0220F331FB3
:101300000A94E2F7242B2083EE89FF8940819C0117
:101310000E8C02C0220F331F0A94E2F7242B208385
:10132000EE89FF8920810F8C02C0880F991F0A94D3
:10133000E2F7809582238083DF91CF911F910F91F7
:10134000FF90EF90DF90CF900895CF92DF92EF92D1
:10135000FF92EDEBF2E01382128288EEC82E83E05A
:10136000D82EE12CF12CC482D582E682F78262E489
:1013700072E0718360838BEB94E09587848787E7C5
:1013800094E09787868785EC90E0918B808B84EC46
:1013900090E0938B828B80EC90E0958B848B81EC3A
:1013A00090E0978B868B82EC90E0918F808F86EC1B
:1013B00090E0938F828F44E0448F33E0358F27E0B5
:1013C000268F95E0978F81E080A3EBE9F2E013820E
:1013D0001282C482D582E682F78271836083A3E39E
:1013E000B4E0B587A487AFEEB3E0B787A687ADECCE
:1013F000B0E0B18BA08BACECB0E0B38BA28BA8ECCF
:10140000B0E0B58BA48BA9ECB0E0B78BA68BAAECAF
:10141000B0E0B18FA08FAEECB0E0B38FA28F448F5D
:10142000358F268F978F80A3E9E7F2E0138212822F
:10143000C482D582E682F78271836083ABEAB3E02F
:10144000B587A487A7E6B3E0B787A687A5EDB0E088
:10145000B18BA08BA4EDB0E0B38BA28BA0EDB0E07C
:10146000B58BA48BA1EDB0E0B78BA68BA2EDB0E05D
:10147000B18FA08FA6EDB0E0B38FA28F448F358FD0
:10148000268F978F80A3E7E5F2E013821282C48251
:10149000D582E682F7827183608363E273E07587A9
:1014A00064876FED72E07787668765E371E0718B23
:1014B000608B64E371E0738B628B60E371E0758B2A
:1014C000648B61E371E0778B668B62E371E0718F0F
:1014D000608F66E371E0738F628F448F358F268F44
:1014E000978F80A3FF90EF90DF90CF9008958F9219
:1014F0009F92AF92BF92CF92DF92EF92FF92CF93E3
:10150000DF93EC01688179818A819B816115710586
:101510008105910521F464E279ED8BE597E02DE1F9
:1015200033EF41E050E00E940A0B49015A019B0150
:10153000AC01A7EAB1E40E94310B6B017C01ACEE77
:10154000B4EFA50194010E943F0BDC01CB018C0D8F
:101550009D1DAE1DBF1DB7FF03C00197A109B04877
:1015600088839983AA83BB839F77DF91CF91FF9074
:10157000EF90DF90CF90BF90AF909F908F900895A5
:101580000C94770A80E092E00C94770AA0E0B0E037
:101590008093000290930102A0930202B093030291
:1015A0000895F8940C94670B97FB072E16F400949B
:1015B00007D077FD09D00E94440B07FC05D03EF40C
:1015C000909581959F4F0895709561957F4F0895EF
:1015D000A1E21A2EAA1BBB1BFD010DC0AA1FBB1F37
:1015E000EE1FFF1FA217B307E407F50720F0A21BA9
:1015F000B30BE40BF50B661F771F881F991F1A9416
:1016000069F760957095809590959B01AC01BD013F
:10161000CF010895052E97FB1EF400940E94210B24
:1016200057FD07D00E94E80A07FC03D04EF40C9443
:10163000210B50954095309521953F4F4F4F5F4F6F
:10164000089590958095709561957F4F8F4F9F4F2E
:101650000895EE0FFF1F881F8BBF0790F691E02DB6
:1016600019940E94580BA59F900DB49F900DA49FB4
:10167000800D911D11240895B7FF0C94310B0E9429
:10168000310B821B930B0895AA1BBB1B51E107C0B2
:10169000AA1FBB1FA617B70710F0A61BB70B881F02
:1016A000991F5A95A9F780959095BC01CD01089591
:1016B000A29FB001B39FC001A39F700D811D112493
:1016C000911DB29F700D811D1124911D0895F894F4
:0216D000FFCF4A
:1016D200010000000A0000000000000000000000FD
:1016E20000000000000000000000000000000000F8
:1016F200000000000000000000000000444F4E45C2
:10170200004661696C6564000D000C000B0000006E
:0E1712000000F9067A05A206CE06B206EE0623
:00000001FF
