:100000000C9402040C9433040C9433040C943304C5
:100010000C9433040C9433040C9433040C94330484
:100020000C9433040C9433040C9433040C94330474
:100030000C9433040C9433040C9433040C94330464
:100040000C9433040C9433040C9433040C94330454
:100050000C9433040C9433040C9433040C947A2AD7
:100060000C9433040C94E62F0C94B2300C943304AB
:100070000C9433040C9433040C9433040C94330424
:100080000C9433040C9433040C9433040C94330414
:100090000C9419300C94F1300C9433040C94330408
:1000A0000C9433040C9433040C9433040C943304F4
:1000B0000C9433040C9433040C9433040C943304E4
:1000C0000C9433040C9433040C9433040C944C308F
:1000D0000C9430310C9433040C947F300C946F31B9
:1000E0000C943304B92BBC2BAF2BB32BF32BC02BAD
:1000F000C42BCA2BCE2BD22BD82BDC2BE02BF32BF3
:10010000E62BEA2BEE2B0C94023B0C94D22B0C9496
:10011000CF3F0C945F2F0C94E0340C94D6330C94A6
:100120008F340C94322F0C94E02B0C94E62B0C940F
:10013000FE340C94D82B0C94892C0C94C42B0C9466
:100140008E3A0C94EA2B0C9406340C94CA2B0C9423
:1001500074350C94332F0C943B390C94C83A0C949E
:10016000432F0C94D4350C94B32B0C94F32B0C9498
:10017000403B0C948A2F0C94AF2B0C94DC1F0C94F6
:100180002C330C9405340C944B340C94D5330C94D0
:10019000313A0C94B92B0C94453A0C94F5330C94E9
:1001A000CE2B0C94DD330C94D3350C94A61F0C94F9
:1001B0007F2F0C94543F0C94E9330C94263A0C9402
:1001C00036320C94DC2B0C94583A0C94BC2B0C94C7
:1001D000EE2B0C94103E0C945C3E0C94C02B000053
:1001E000090A02080B0C0D070603040100000000B9
:1001F00000000000000000000000000000000000FF
:100200000000000000000000000011100F000000BE
:1002100000000000000000000000000000000000DE
:1002200000000000010210202008081020401020CB
:1002300040800201020108040201010204081020AA
:1002400040808040201008040201800402018040A8
:100250002010080402010804020101020408102011
:1002600040800102040810204080050505050705AF
:1002700008080808020202020A0A08080404040422
:10028000010101010101010103030303030303034E
:10029000040707070C0C0C0C0C0C0C0C02020202DD
:1002A00006060606060606060B0B0B0B0B0B0B0BC6
:1002B000000020002300260029002C002F0032001F
:1002C00000010000030106010901000022002500D1
:1002D00028002B002E00310034000201000005012F
:1002E00008010B0100002100240027002A002D0036
:1002F0003000330001010000040107010A01000081
:100300000000003E5B4F5B3E3E6B4F6B3E1C3E7CF5
:100310003E1C183C7E3C181C577D571C1C5E7F5EA3
:100320001C00183C1800FFE7C3E7FF001824180062
:10033000FFE7DBE7FF30483A060E262979292640F9
:100340007F050507407F05253F5A3CE73C5A7F3E25
:100350001C1C08081C1C3E7F14227F22145F5F00B7
:100360005F5F06097F017F006689956A6060606053
:100370006094A2FFA29408047E040810207E20103E
:1003800008082A1C08081C2A08081E101010100C47
:100390001E0C1E0C30383E3830060E3E0E06000095
:1003A00000000000005F00000007000700147F1439
:1003B0007F14242A7F2A12231308646236495620A8
:1003C000500008070300001C2241000041221C00CD
:1003D0002A1C7F1C2A08083E08080080703000088C
:1003E00008080808000060600020100804023E5160
:1003F00049453E00427F40007249494946214149F2
:100400004D331814127F1027454545393C4A494958
:100410003141211109073649494936464949291EC2
:1004200000001400000040340000000814224114B1
:1004300014141414004122140802015909063E4103
:100440005D594E7C1211127C7F494949363E41412B
:1004500041227F4141413E7F494949417F09090984
:10046000013E414151737F0808087F00417F4100F0
:100470002040413F017F081422417F404040407F9F
:10048000021C027F7F0408107F3E4141413E7F09EC
:100490000909063E4151215E7F091929462649492D
:1004A000493203017F01033F4040403F1F2040206D
:1004B0001F3F4038403F631408146303047804036B
:1004C0006159494D43007F41414102040810200019
:1004D0004141417F0402010204404040404000038A
:1004E00007080020545478407F2844443838444456
:1004F0004428384444287F385454541800087E094E
:100500000218A4A49C787F0804047800447D40006D
:100510002040403D007F1028440000417F40007C87
:10052000047804787C080404783844444438FC187F
:1005300024241818242418FC7C0804040848545463
:10054000542404043F44243C4040207C1C20402090
:100550001C3C4030403C44281028444C9090907CF7
:100560004464544C44000836410000007700000009
:100570004136080002010204023C2623263C1EA14B
:10058000A161123A4040207A3854545559215555AA
:100590007941225454784221555478402054557959
:1005A000400C1E52721239555555593954545459EC
:1005B00039555454580000457C410002457D4200A5
:1005C00001457C407D1211127DF0282528F07C54D5
:1005D0005545002054547C547C0A097F49324949CE
:1005E00049323A4444443A324A4848303A41412137
:1005F0007A3A42402078009DA0A07D3D4242423D93
:100600003D4040403D3C24FF2424487E4943662B26
:100610002FFC2F2BFF0929F620C0887E09032054C8
:100620005479410000447D413048484A32384040C6
:10063000227A007A0A0A727D0D19317D2629292F26
:1006400028262929292630484D402038080808083E
:1006500008080808382F10C8ACBA2F102834FA0040
:10066000007B000008142A142222142A14085500C2
:10067000550055AA55AA55AAFF55FF55FF00000081
:10068000FF00101010FF00141414FF001010FF00E2
:10069000FF1010F010F0141414FC001414F700FFF5
:1006A0000000FF00FF1414F404FC141417101F10B2
:1006B000101F101F1414141F00101010F000000061
:1006C000001F101010101F10101010F0100000006C
:1006D000FF101010101010101010FF10000000FF7D
:1006E000140000FF00FF00001F10170000FC04F4BE
:1006F00014141710171414F404F40000FF00F71476
:10070000141414141414F700F714141417141010FC
:100710001F101F141414F4141010F010F000001F18
:10072000101F0000001F14000000FC140000F01057
:10073000F01010FF10FF141414FF141010101F00FD
:10074000000000F010FFFFFFFFFFF0F0F0F0F0FFFF
:10075000FFFF0000000000FFFF0F0F0F0F0F3844D6
:10076000443844FC4A4A4A347E02020606027E02AB
:100770007E0263554941633844443C04407E201E58
:100780002006027E020299A5E7A5991C2A492A1C87
:100790004C7201724C304A4D4D303048784830BC74
:1007A000625A463D3E494949007E0101017E2A2A9E
:1007B0002A2A2A44445F444440514A444040444A1F
:1007C00051400000FF0103E080FF000008086B6B50
:1007D000083612362436060F090F060000181800D6
:1007E00000001010003040FF0101001F01011E0039
:1007F000191D1712003C3C3C3C0000000000A61FE5
:100800003632DC1F11241FBECFEFD1E2DEBFCDBFD9
:1008100000E00CBF13E0A0E0B2E0EEECFBE800E08B
:100820000BBF02C007900D92A03BB107D9F72AE198
:10083000A0EBB3E001C01D92AE32B207E1F713E0C6
:10084000C1E0D4E000E006C021970109802FFE013D
:100850000E949C45CF3FD10780E00807A9F70E947E
:10086000E4290C9483430C94000066E372E084EB6B
:1008700093E00E94A52E6DE372E08BEB93E00E9463
:10088000A52E66E472E082EC93E00C94A52EDF9234
:10089000EF92FF920F931F93CF93DF937C018B0115
:1008A000442309F44BC044E650E060E070E086E485
:1008B00097E10E94113A63E086E497E10E94173ABB
:1008C0000E151F0509F481C0C0E0D0E087E0D82EE6
:1008D000CE15DF0571F44FEF5FEF60E070E086E466
:1008E00097E10E941D3ADC9EB001DD9E700D11243F
:1008F00011C040E050E06FEF7FEF86E497E1C01752
:10090000D10779F40E941D3ADC9EC001DD9E900D56
:100910001124BC016C547C4F86E497E10E94182D91
:1009200008C00E941D3A68E473E086E497E10E94E3
:100930002A2D2196C330D10559F647C048E250E030
:1009400062E070E086E497E10E94113A62E086E49A
:1009500097E10E94173A40E050E06FEF7FEF86E4A6
:1009600097E10E941D3A6DE472E086E497E10E94EF
:100970002A2D44E650E060E070E086E497E10E94B2
:10098000113A63E086E497E10E94173A04EB13E022
:10099000C0E0D0E0CE15DF0529F44FEF5FEF60E057
:1009A00070E004C040E050E06FEF7FEF86E497E135
:1009B0000E941D3AB80186E497E10E94182D219605
:1009C000095F1F4FC330D10529F7DF91CF911F91E8
:1009D0000F91FF90EF90DF9008950097B9F487E0B2
:1009E00090E0909318178093171781E090E0909310
:1009F00016178093151782E090E090931417809358
:100A0000131782E090E0A0E0B0E02FC081309105A4
:100A1000A9F485E090E0909318178093171782E06F
:100A200090E0909316178093151790931417809366
:100A3000131785E090E0A0E0B0E017C08230910588
:100A4000E9F423E030E030931817209317179093C0
:100A500016178093151785E090E0909314178093F4
:100A600013178AE090E0A0E0B0E080931F17909306
:100A70002017A0932117B0932217089561E672E022
:100A800088EE97E10C942A2D841B950B06960D9702
:100A9000B0F4621B730B6A5F7F4F6D30710578F4A1
:100AA00080911717909118170197909318178093BA
:100AB000171768EC70E080E090E00C94F52A089538
:100AC000CF93DF93CDB7DEB727970FB6F894DEBF8D
:100AD0000FBECDBF60911717709118174AE0CE0175
:100AE00001960E94BC2E40E050E060E070E086E499
:100AF00097E10E94113A61E086E497E10E94173A7B
:100B000067E772E086E497E10E94FB2C609117177B
:100B1000709118174AE050E086E497E10E94DC2DBE
:100B2000CE0101960E94002E27960FB6F894DEBFE4
:100B30000FBECDBFDF91CF910895EF92FF920F933B
:100B40001F93CF93DF93EC017B01BA01A90100E071
:100B500010E027E030E086E497E10E94DE3600EE08
:100B60001FEF27E030E0A701BE0186E497E10E9475
:100B7000DE36DF91CF911F910F91FF90EF90089596
:100B8000EF92FF920F931F93CF93DF93EC017B01C2
:100B9000BA01A90100E010E027E030E086E497E127
:100BA0000E94DE3600E018EF27E030E0A701BE012A
:100BB00086E497E10E94DE36DF91CF911F910F917D
:100BC000FF90EF900895EF92FF920F931F93CF93B2
:100BD000DF93EC017B01BA01A90100E010E027E0FE
:100BE00030E086E497E10E94DE360FE118EF27E05F
:100BF00030E0A701BE0186E497E10E94DE36DF9176
:100C0000CF911F910F91FF90EF900895EF92FF9277
:100C10000F931F93CF93DF93EC017B01BA01A901DE
:100C200000E010E027E030E086E497E10E94DE3645
:100C30000FEF17E027E030E0A701BE0186E497E15F
:100C40000E94DE36DF91CF911F910F91FF90EF90C0
:100C50000895EF92FF920F931F93CF93DF93EC01D0
:100C60007B01BA01A90100E010E027E030E086E452
:100C700097E10E94DE3600E21DEF27E030E0A70199
:100C8000BE0186E497E10E94DE36DF91CF911F918D
:100C90000F91FF90EF900895EF92FF920F931F93A3
:100CA000CF93DF93EC017B01BA01A90100E010E0D2
:100CB00027E030E086E497E10E94DE360FEF1FEF79
:100CC00027E030E0A701BE0186E497E10E94DE360E
:100CD000DF91CF911F910F91FF90EF900895841BAA
:100CE000950B97FF08C08091151790911617919555
:100CF0008195910906C0892B41F08091151790913B
:100D000016179093FE168093FD16621B730B77FFE8
:100D100008C08091151790911617919581959109AA
:100D200006C0672B41F0809115179091161790938C
:100D3000FC168093FB1620911117309112178091A9
:100D4000FD169091FE16820F931F909312178093B9
:100D5000111720910F17309110178091FB16909169
:100D6000FC16820F931F9093101780930F1708950E
:100D7000841B950B97FF08C080911517909116174B
:100D800091958195910906C0892B41F080911517A5
:100D9000909116179093FA168093F916621B730BB5
:100DA00077FF08C08091151790911617919581953E
:100DB000910906C0672B41F0809115179091161785
:100DC0009093F8168093F71620910D1730910E1717
:100DD0008091F9169091FA16820F931F90930E1737
:100DE00080930D1720910B1730910C178091F716F7
:100DF0009091F816820F931F90930C1780930B1706
:100E00000895841B950B97FF08C08091151790914A
:100E1000161791958195910906C0892B41F0809113
:100E20001517909116179093F6168093F516621B7E
:100E3000730B77FF08C08091151790911617919545
:100E40008195910906C0672B41F08091151790910B
:100E500016179093F4168093F3162091091730918A
:100E60000A178091F5169091F616820F931F9093B2
:100E70000A1780930917209107173091081780915E
:100E8000F3169091F416820F931F90930817809396
:100E900007170895841B950B97FF08C080911517BD
:100EA0009091161791958195910906C0892B41F073
:100EB00080911517909116179093F2168093F11662
:100EC000621B730B77FF08C080911517909116175E
:100ED00091958195910906C0672B41F08091151776
:100EE000909116179093F0168093EF1620910517A6
:100EF000309106178091F1169091F216820F931F90
:100F000090930617809305172091031730910417CB
:100F10008091EF169091F016820F931F9093041713
:100F20008093031708952091011730910217809143
:100F3000131790911417820F931F813F91052CF482
:100F40009093021780930117089510920217109240
:100F5000011708952F923F924F925F926F927F9266
:100F60008F929F92AF92BF92CF92DF92EF92FF92B9
:100F70000F931F93CF93DF9300D01F92CDB7DEB7AF
:100F800080911117909112179C838B8300910F17FA
:100F900010911017A0900D17B0900E1780900B179E
:100FA00090900C17E0900917F0900A17C09007175F
:100FB000D0900817409005175090061760900317BF
:100FC00070900417E0910117F0910217FA83E983FA
:100FD0002090FF163090001760912B1770912C17FE
:100FE0009801AC0180912D1790912E170E946F06E9
:100FF00060910F177091101798014B815C8180915F
:101000001117909112170E94C00520910F1730916F
:101010001017409111175091121760912B17709172
:101020002C1780912D1790912E170E944405209126
:101030000B1730910C1740910D1750910E176091BE
:101040002B1770912C1780912D1790912E170E94BD
:10105000B80660910B1770910C179401A50180914F
:101060000D1790910E170E94E30520910B173091F8
:101070000C1740910D1750910E1760912B1770911E
:101080002C1780912D1790912E170E9444052091C6
:101090000717309108174091091750910A1760916E
:1010A0002B1770912C1780912D1790912E170E945D
:1010B000010760910717709108179601A7018091A9
:1010C000091790910A170E94060620910717309180
:1010D00008174091091750910A1760912B177091CA
:1010E0002C1780912D1790912E170E944405209166
:1010F000031730910417409105175091061760911E
:101100002B1770912C1780912D1790912E170E94FC
:101110004A0760910317709104179301A20180910F
:101120000517909106170E94290620910317309108
:101130000417409105175091061760912B17709175
:101140002C1780912D1790912E170E9444050E9414
:1011500093076091FF1670910017910149815A81A0
:1011600080910117909102170E944C062091FF1662
:1011700030910017409101175091021760912B1781
:1011800070912C1780912D1790912E170E94440575
:1011900060910D1770910E17809111179091121791
:1011A000861B970B06960D9708F540910B175091EB
:1011B0000C1780910F1790911017841B950B0696B2
:1011C0000D97A0F400E010E027E030E086E497E11E
:1011D0000E94DE3684E190E090930E1780930D1705
:1011E0008EE190E090930C1780930B176091091794
:1011F00070910A178091111790911217861B970B07
:1012000006960D9708F540910717509108178091A1
:101210000F1790911017841B950B06960D97A0F44D
:1012200000E010E027E030E086E497E10E94DE363F
:101230008CED90E090930A17809309178EE190E06F
:101240009093081780930717609105177091061700
:101250008091111790911217861B970B06960D9788
:1012600008F5409103175091041780910F17909142
:101270001017841B950B06960D97A0F400E010E064
:1012800027E030E086E497E10E94DE3684E190E0DA
:1012900090930617809305178CE291E090930417C2
:1012A000809303176091091770910A1780910D17A9
:1012B00090910E17861B970B06960D9708F5409197
:1012C00007175091081780910B1790910C17841BEA
:1012D000950B06960D97A0F400E010E027E030E0B3
:1012E00086E497E10E94DE368CED90E090930A1739
:1012F000809309178EE190E0909308178093071769
:10130000609105177091061780910D1790910E1737
:10131000861B970B06960D9708F540910317509181
:10132000041780910B1790910C17841B950B069650
:101330000D97A0F400E010E027E030E086E497E1AC
:101340000E94DE3684E190E09093061780930517A3
:101350008CE291E090930417809303176091051736
:10136000709106178091091790910A17861B970BA9
:1013700006960D9708F54091031750910417809138
:10138000071790910817841B950B06960D97A0F4EC
:1013900000E010E027E030E086E497E10E94DE36CE
:1013A00084E190E090930617809305178CE291E01A
:1013B00090930417809303170F900F900F900F9046
:1013C000DF91CF911F910F91FF90EF90DF90CF9021
:1013D000BF90AF909F908F907F906F905F904F9055
:1013E0003F902F9008950F931F93CF93DF9386E341
:1013F0000E947D2B8C0187E30E947D2BEC0182E013
:101400000E94602C40912D1750912E1720912B1780
:1014100030912C17CE01885C91408336910550F4B1
:10142000073362E0160734F4043D81E018074CF0FE
:101430000C94731D0833A2E01A071CF085E090E0BD
:1014400006C0033DE1E01E073CF48BEF9FEF909355
:1014500028178093271704C0109228171092271777
:10146000CC3262E0D6071CF085E090E006C0C73CB5
:1014700081E0D8073CF48BEF9FEF90932A1780937D
:10148000291704C010922A1710922917CA01CD9764
:1014900087379105B0F4203F310599F430932C172C
:1014A00020932B171092281710922717942F852F0F
:1014B000453B510514F094EB80E090932D178093F9
:1014C0002E1780912D1790912E17FC017597609122
:1014D0002B1770912C17B79788F46E30A1E07A071C
:1014E00069F410922817109227178D33910514F084
:1014F0008CE390E090932E1780932D1780912D17F9
:1015000090912E17FC01E55BF109B79790F46E30CE
:10151000E1E07E0771F410922817109227178F30A0
:10152000A1E09A0714F08EE091E090932E1780933B
:101530002D1780912D1790912E17FC01EB55F10975
:10154000739788F46E30E1E07E0769F410922817F3
:10155000109227178F36910514F08EE690E0909345
:101560002E1780932D1780912D1790912E17FC0127
:10157000E358F109739788F46E30A1E07A0769F4B3
:1015800010922817109227178739910514F086E9D1
:1015900090E090932E1780932D1780912D179091A6
:1015A0002E17FC017597E731F14090F46C32E1E0C1
:1015B0007E0771F410922817109227178D32A1E040
:1015C0009A0714F08CE291E090932E1780932D17D8
:1015D000603F710561F580912D1790912E17FC01E8
:1015E0007597739770F410922817109227177093BD
:1015F0002C1760932B1789329105ACF088E290E0AC
:1016000012C0FC01E95CF109B79788F41092281721
:101610001092271770932C1760932B17813F910519
:1016200014F080EF90E090932E1780932D17E091A7
:101630002B17F0912C1780912D1790912E17E23DCA
:10164000F10509F5BC01655171096935710550F461
:1016500010922817109227178F36910534F18EE6D5
:1016600090E023C0BC01635871096935710508F029
:101670004EC010922817109227178D3D9105ACF09F
:101680008CED90E012C0EA3BF105A1F4BC016B5572
:1016900071096B337105D8F510922817109227172E
:1016A0008739910514F086E990E090932E17809386
:1016B0002D172DC0E03AF10551F5BC0161507109BB
:1016C0006935710570F410922817109227178B3521
:1016D000910514F08AE590E090932E1780932D17D2
:1016E00075C0BC01675971096935710508F06EC094
:1016F0001092281710922717BC01813F910514F012
:1017000060EF70E070932E1760932D175FC080918B
:101710002D1790912E17E238F105A9F4BC016B55F5
:1017200071096B33710508F05FC010922817109291
:1017300027178739910514F086E990E090932E17CA
:1017400080932D1751C0EE36F10509F03FC0BC0162
:101750006B5571096331710508F453C0BC016358BE
:1017600071096331710558F41092281710922717E8
:10177000873991050CF45EC086E990E05BC0BC013E
:10178000655171096732710558F41092281710924B
:1017900027178D3391050CF44DC08CE390E04AC0BF
:1017A000BC01655B71096732710508F047C0109292
:1017B000281710922717BC018D3D910514F06CED90
:1017C00070E070932E1760932D1738C0E634F10542
:1017D00059F480912D1790912E17BC016551710914
:1017E000673C710558F51DC0EE31F10539F5809162
:1017F0002D1790912E17BC0165517109693571053E
:1018000050F410922817109227178F36910594F0F4
:101810008EE690E00FC0BC0163587109693571050F
:1018200068F410922817109227178D3D910514F037
:101830008CED90E090932E1780932D1760912D17CB
:1018400070912E17CF014F978F3E9105F0F46C33B6
:10185000710551F410922A1710922917CF018F3079
:10186000E1E09E0774F00BC0643B710571F41092C7
:101870002A1710922917CF01EF30F14014F08EE0B3
:1018800091E090932C1780932B1780912B179091B8
:101890002C17FC01EF50F1407D97E8F4643171059D
:1018A00049F410922A17109229178D32E1E09E0711
:1018B00074F00BC06C3D710571F410922A171092F0
:1018C00029178D32A1E09A0714F08CE291E09093F1
:1018D0002C1780932B1780912B1790912C17FC01BC
:1018E000E15FF1097D97E8F46A35710549F41092DA
:1018F0002A17109229178F30E1E09E0774F00BC071
:101900006639710571F410922A17109229178F30D9
:10191000A1E09A0714F08EE091E090932C17809349
:101920002B1780912B1790912C17FC01EF50F14051
:101930007D97E8F46E36710549F410922A171092DB
:1019400029178D32E1E09E0774F00BC062387105F3
:1019500071F410922A17109229178D32A1E09A077C
:1019600014F08CE291E090932C1780932B178091C8
:101970002B1790912C17FC01E15FF1097D97E8F49A
:101980006832710549F410922A17109229178F3086
:10199000E1E09E0774F00BC0683C710571F4109291
:1019A0002A17109229178F30A1E09A0714F08EE0C1
:1019B00091E090932C1780932B1780912B17909187
:1019C0002C17FC01E35DF1097D97C8F464317105C2
:1019D00049F06C3D710531F06E36710519F06238D1
:1019E000710569F410922A1710922917813F910509
:1019F00014F080EF90E090932C1780932B17809138
:101A00002B1790912C17FC01EB5BF1097797B8F439
:101A10006A35710519F06639710589F410922A1733
:101A20001092291770932E1760932D17833D9105FF
:101A300014F082ED90E090932C1780932B178091F7
:101A40002B1790912C17BC01615A710969317105EE
:101A500000F560912D1770912E176A35710529F4E4
:101A600010922A17109229170BC06639710589F454
:101A700010922A171092291770932E1760932D1722
:101A80008B3B910514F08AEB90E090932C17809398
:101A90002B1780912B1790912C17BC01635871095B
:101AA0006D31710500F560912D1770912E176A3513
:101AB000710529F410922A17109229170BC0663964
:101AC000710589F410922A171092291770932E1716
:101AD00060932D17813A910514F080EA90E090937D
:101AE0002C1780932B1780912B1790912C17BC01EA
:101AF0006F5671096331710500F560912D17709172
:101B00002E176E36710529F410922A171092291794
:101B10000BC06238710589F410922A1710922917A8
:101B200070932E1760932D178338910514F082E877
:101B300090E090932C1780932B1780912B17909106
:101B40002C17BC016F5171096F34710530F560912C
:101B50002D1770912E176431710529F410922A17F0
:101B60001092291711C06C33710531F0643B710577
:101B700019F06C3D710589F410922A1710922917FB
:101B800070932E1760932D178F36910514F08EE603
:101B900090E090932C1780932B1780912B179091A6
:101BA0002C17BC016F5171096732710500F5609106
:101BB0002D1770912E176E36710529F410922A1781
:101BC000109229170BC06238710589F410922A17F8
:101BD0001092291770932E1760932D178734910553
:101BE00014F086E490E090932C1780932B1780914B
:101BF0002B1790912C17BC0167547109673271053E
:101C000000F560912D1770912E176A35710529F432
:101C100010922A17109229170BC06639710589F4A2
:101C200010922A171092291770932E1760932D1770
:101C30008F36910514F08EE690E090932C178093E8
:101C40002B1760912D1770912E1780912B17909163
:101C50002C176C33710549F5803F910531F5CC3275
:101C6000E2E0DE0754F065E070E070932A176093BD
:101C700029171092281710922717B801635D714039
:101C80006536710550F06CE370E070932E17609329
:101C90002D1710922A1710922917C73C61E0D6071A
:101CA00024F410922A171092291760912D17709121
:101CB0002E17643B710549F5803F910531F5CC3213
:101CC000A2E0DA0724F010922A1710922917B8011F
:101CD000635D71406536710550F064EB70E07093A0
:101CE0002E1760932D1710922A1710922917C73CB0
:101CF000E1E0DE0754F46BEF7FEF70932A176093F7
:101D00002917109228171092271760912D1770919C
:101D10002E176C337105E1F48E30914009F008C143
:101D2000CC3282E0D80724F010922A17109229179B
:101D30000833A2E01A0724F01092281710922717F0
:101D4000C73CE1E0DE070CF0F3C08EE091E0B2C0EA
:101D5000643B710531F58E30914009F0BDC0CC3245
:101D6000E2E0DE0754F085E090E090932A1780933C
:101D700029171092281710922717083382E01807A6
:101D800024F01092281710922717C73CA1E0DA0719
:101D90000CF0A2C08EE091E090932C1780932B174B
:101DA0005BC06431710509F05CC08E30914079F5FB
:101DB000CC3282E0D80754F085E090E090932A1767
:101DC0008093291710922817109227170833A2E042
:101DD0001A073CF085E090E090932817809327172E
:101DE00008C0033DE1E01E0724F41092281710926A
:101DF0002717C73C81E0D80754F48EE091E0909318
:101E00002C1780932B1710922A1710922917809164
:101E10002B1790912C178C32914009F05DC0CC3279
:101E2000E2E0DE0754F085E090E090932A1780937B
:101E300029171092281710922717083382E01807E5
:101E400014F40C94011B1092281710922717C73C0A
:101E5000E1E0DE070CF040C010922A17109229171B
:101E60003BC06C3D7105A9F58E30914011F40C9486
:101E7000101D80912B1790912C178C32914009F0F6
:101E800057C0CC3262E0D60724F010922A17109285
:101E90002917083382E0180714F40C94431D10929C
:101EA000281710922717C73C61E0D6070CF040C0F6
:101EB0008CE291E090932C1780932B178BEF9FEF80
:101EC00090932A178093291710922817109227179A
:101ED0002FC06A35710539F16639710549F5809170
:101EE0002B1790912C17803F910511F5CC3282E091
:101EF000D8073CF0109228171092271785E090E041
:101F00000CC0C73CA1E0DA0714F00C940F1B109230
:101F10002817109227178BEF9FEF90932A17809323
:101F200029170C940F1B803F910511F40C94511D3F
:101F300060912D1770912E1780912B1790912C176F
:101F40006A357105C9F58E30E1E09E0709F094C04D
:101F5000CC3262E0D6075CF0109228171092271757
:101F600065E070E070932A17609329170CC0C73C96
:101F7000A1E0DA0744F41092281710922717109264
:101F80002A17109229170833E2E01E072CF010924E
:101F90002817109227170BC0033D61E016070CF0BD
:101FA0006BC06BEF7FEF7093281760932717109229
:101FB0002A171092291760C06639710549F58E30CD
:101FC000A1E09A0709F058C0C73CE1E0DE075CF4E5
:101FD00010922817109227176BEF7FEF70932A1734
:101FE000609329170CC0CC3262E0D60744F01092FF
:101FF00028171092271710922A17109229170833C2
:10200000A2E01A0724F6033DE1E01E0754F234C0B3
:102010006E36710589F58E3061E0960769F5C73C2B
:10202000A1E0DA073CF46BEF7FEF70932A1760931F
:10203000291708C0CC32E2E0DE0744F010922A17DC
:102040001092291710922817109227170833E2E0F0
:102050001E0714F40C94271B6EE670E070932E1785
:1020600060932D1710922A171092291765E070E0DF
:10207000709328176093271760912D1770912E1772
:102080006238710589F58E30A1E09A0769F5CC3286
:10209000E2E0DE073CF065E070E070932A176093A1
:1020A000291708C0C73C61E0D60744F410922A17EC
:1020B000109229171092281710922717083362E000
:1020C000160714F40C94331B62E870E070932E171B
:1020D00060932D1710922A171092291765E070E06F
:1020E000709328176093271760912D1770912E1702
:1020F0006E36710579F58C32E1E09E0759F5CC32E8
:1021000062E0D6071CF065E070E006C0C73CA1E0C5
:10211000DA0754F46BEF7FEF70932A176093291757
:102120001092281710922717033DA1E01A0714F008
:102130000C943F1B6EE670E070932E1760932D1782
:1021400010922A17109229176BEF7FEF70932817C0
:102150006093271760912D1770912E1762387105C3
:1021600079F58C3261E0960759F5CC32A2E0DA07B6
:102170001CF065E070E006C0C73CE1E0DE0754F407
:102180006BEF7FEF70932A1760932917109228172F
:1021900010922717033DE1E01E0714F00C944B1B2F
:1021A00062E870E070932E1760932D1710922A1733
:1021B000109229176BEF7FEF709328176093271702
:1021C00060912D1770912E176832710579F58E3058
:1021D000A1E09A0759F5CC32E2E0DE071CF065E099
:1021E00070E006C0C73C61E0D60754F46BEF7FEFA8
:1021F00070932A17609329171092281710922717A7
:10220000033D61E0160714F00C94571B68E270E080
:1022100070932E1760932D1710922A17109229177A
:102220006BEF7FEF709328176093271760912D173E
:1022300070912E17683C710579F58E30E1E09E07AC
:1022400059F5CC3262E0D6071CF065E070E006C0BC
:10225000C73CA1E0DA0754F46BEF7FEF70932A17C5
:10226000609329171092281710922717033DA1E0B9
:102270001A0714F00C94631B68EC70E070932E172F
:1022800060932D1710922A17109229176BEF7FEF8A
:10229000709328176093271760912D1770912E1750
:1022A00068327105B9F5803F9105A1F5CC3262E045
:1022B000D6072CF010922A17109229170AC0C73C93
:1022C000A1E0DA0754F46BEF7FEF70932A17609365
:1022D00029171092281710922717033DE1E01E07D7
:1022E0002CF4109228171092271714C0083362E0BC
:1022F000160784F068E270E070932E1760932D1734
:1023000010922A171092291765E070E07093281731
:102310006093271760912D1770912E17683C7105F7
:10232000B9F5803F9105A1F5CC32A2E0DA073CF087
:1023300065E070E070932A176093291708C0C73CC6
:10234000E1E0DE0744F410922A1710922917109248
:10235000281710922717033D61E016072CF41092FE
:1023600028171092271714C00833A2E01A0784F028
:1023700068EC70E070932E1760932D1710922A1757
:102380001092291765E070E0709328176093271763
:1023900060912D1770912E176431710581F5803F82
:1023A000910569F5CC32E2E0DE073CF065E070E0D3
:1023B00070932A176093291708C0C73C61E0D607BD
:1023C00044F410922A17109229171092281710928D
:1023D0002717033DE1E01E0714F00C946F1B64E126
:1023E00070E070932E1760932D176BEF7FEF709353
:1023F00028176093271710922A17109229176091B7
:102400002D1770912E176C3D710581F5803F910558
:1024100069F5C73CE1E0DE073CF46BEF7FEF7093BA
:102420002A176093291708C0CC3262E0D60744F01F
:1024300010922A1710922917109228171092271716
:10244000033D61E0160714F00C947B1B6CED70E00B
:1024500070932E1760932D176BEF7FEF70932817F3
:102460006093271710922A171092291760912D1741
:1024700070912E176431710581F5823D910569F5E2
:10248000CC32E2E0DE073CF065E070E070932A17A2
:102490006093291708C0C73C61E0D60744F4109246
:1024A0002A1710922917109228171092271708330D
:1024B000A2E01A0714F40C94871B64E170E0709397
:1024C0002E1760932D1765E070E0709328176093C6
:1024D000271710922A171092291760912D177091C3
:1024E0002E176C3D710581F5823D910569F5C73C5C
:1024F000E1E0DE073CF46BEF7FEF70932A17609307
:10250000291708C0CC3262E0D60744F010922A178F
:102510001092291710922817109227170833E2E01B
:102520001E0714F40C94931B6CED70E070932E173F
:1025300060932D1765E070E070932817609327175C
:1025400010922A171092291760912D1770912E174B
:102550006E36710571F5803F910559F5C73CE1E094
:10256000DE071CF46BEF7FEF06C0CC3262E0D607CB
:1025700054F065E070E070932A1760932917109269
:10258000281710922717033D61E0160714F00C94EA
:102590009F1B6EE670E070932E1760932D176BEF04
:1025A0007FEF709328176093271710922A171092C5
:1025B000291760912D1770912E176238710571F5EA
:1025C000803F910559F5C73CE1E0DE071CF46BEF55
:1025D0007FEF06C0CC3262E0D60754F065E070E0D1
:1025E00070932A17609329171092281710922717B3
:1025F000033DA1E01A0714F00C94AB1B62E870E0F5
:1026000070932E1760932D176BEF7FEF7093281741
:102610006093271710922A171092291760912D178F
:1026200070912E176E36710581F5823D910569F521
:10263000C73CE1E0DE073CF46BEF7FEF70932A17B5
:102640006093291708C0CC3262E0D60744F010929C
:102650002A1710922917109228171092271708335B
:10266000E2E01E0714F40C94B71B6EE670E0709362
:102670002E1760932D1765E070E070932817609314
:10268000271710922A171092291760912D17709111
:102690002E176238710581F5823D910569F5CC32BE
:1026A000E2E0DE073CF065E070E070932A1760938B
:1026B000291708C0C73C61E0D60744F410922A17D6
:1026C000109229171092281710922717083362E0EA
:1026D000160714F40C94C31B62E870E070932E1775
:1026E00060932D1765E070E07093281760932717AB
:1026F00010922A171092291760912D1770912E179A
:102700006C33710591F5823D910579F5CC32E2E0AB
:10271000DE071CF065E070E006C0C73C61E0D6074C
:1027200054F46BEF7FEF70932A1760932917109280
:102730002817109227170833A2E01A0714F00C94F8
:10274000CF1B033DA1E01A0784F46BEF7FEF70937A
:1027500028176093271710922A17109229176CE3F5
:1027600070E070932E1760932D1760912D17709164
:102770002E17643B710589F5823D910571F5CC32C8
:10278000E2E0DE071CF065E070E006C0C73C61E0F7
:10279000D60754F46BEF7FEF70932A1760932917D5
:1027A00010922817109227170833E2E01E070CF04A
:1027B000FAC7033DA1E01A0784F46BEF7FEF709333
:1027C00028176093271710922A171092291764EB85
:1027D00070E070932E1760932D1760912D177091F4
:1027E0002E176A357105C9F5823D9105B1F5CC32D8
:1027F000E2E0DE071CF065E070E006C0C73C61E087
:10280000D60754F46BEF7FEF70932A176093291764
:1028100010922817109227170833A2E01A074CF0DD
:10282000109228171092271710922A171092291722
:1028300014C0033DE1E01E0784F46AE570E0709384
:102840002E1760932D1710922A17109229176BEFED
:102850007FEF709328176093271760912D17709161
:102860002E1766397105A9F5823D910591F5CC3297
:1028700062E0D6071CF065E070E006C0C73CA1E04E
:10288000DA0754F46BEF7FEF70932A1760932917E0
:1028900010922817109227170833E2E01E072CF039
:1028A00010922A171092291714C0033D61E01607F1
:1028B00084F466E970E070932E1760932D171092E0
:1028C0002A17109229176BEF7FEF709328176093E8
:1028D000271760912D1770912E176A35710551F5E4
:1028E0008A3B910539F5CC32A2E0DA075CF065E06D
:1028F00070E070932A17609329171092281710928E
:10290000271708C0C73CE1E0DE0724F410922A171D
:1029100010922917B801635D71406536710550F05A
:102920006AE570E070932E1760932D1710922A17A6
:102930001092291760912D1770912E176639710525
:1029400051F58A3B910539F5C73C61E0D6075CF447
:102950006BEF7FEF70932A17609329171092281757
:102960001092271708C0CC32A2E0DA0724F01092A8
:102970002A1710922917B801635D714065367105F9
:1029800050F066E970E070932E1760932D17109247
:102990002A171092291760912D1770912E176A35FA
:1029A000710551F5803A910539F5C73CE1E0DE0744
:1029B0005CF46BEF7FEF70932A17609329171092E6
:1029C00028171092271708C0CC3262E0D60724F0EF
:1029D00010922A1710922917B801635D714065366D
:1029E000710550F06AE570E070932E1760932D1713
:1029F00010922A171092291760912D1770912E1797
:102A00006639710551F5803A910539F5CC32A2E06D
:102A1000DA075CF065E070E070932A17609329177D
:102A2000109228171092271708C0C73CE1E0DE0774
:102A300024F410922A1710922917B801635D71408F
:102A40006536710550F066E970E070932E1760935B
:102A50002D1710922A171092291760912D17709137
:102A60002E176C33710569F5803A910551F5CC321A
:102A700062E0D6071CF065E070E006C0C73CA1E04C
:102A8000DA0754F46BEF7FEF70932A1760932917DE
:102A90001092281710922717083362E016070CF4DB
:102AA00085C66CE370E070932E1760932D1765E078
:102AB00070E0709328176093271710922A171092CE
:102AC000291760912D1770912E17643B710569F5D8
:102AD000803A910551F5CC3262E0D6071CF065E0F2
:102AE00070E006C0C73CA1E0DA0754F46BEF7FEF5B
:102AF00070932A176093291710922817109227179E
:102B00000833A2E01A070CF467C664EB70E0709318
:102B10002E1760932D1765E070E07093281760936F
:102B2000271710922A171092291760912D1770916C
:102B30002E17672BC9F5803A9105B1F5CC3262E0CA
:102B4000D6073CF065E070E070932A176093291770
:102B50000EC0C73CA1E0DA0774F410922A17109255
:102B6000291760EF70E070932E1760932D17109265
:102B70002817109227170833E2E01E074CF0109236
:102B800028171092271710922A17109229170CC095
:102B9000033D61E0160744F410922A17109229179A
:102BA000109228171092271760912D1770912E17E9
:102BB000603F7105B9F5803A9105A1F5CC32A2E0EC
:102BC000DA074CF010922E1710922D1710922A1738
:102BD000109229170AC0C73CE1E0DE0754F46BEFFE
:102BE0007FEF70932A17609329171092281710927D
:102BF0002717083362E016074CF01092281710923E
:102C0000271710922A17109229170CC0033DA1E034
:102C10001A0744F410922A171092291710922817B5
:102C20001092271760912D1770912E176A35710534
:102C300079F58238910561F5CC32E2E0DE0754F097
:102C400065E070E070932A17609329171092281797
:102C5000109227170833E2E01E0754F06AE570E08F
:102C600070932E1760932D1710922A171092291720
:102C7000C73C61E0D60724F410922A171092291756
:102C8000033DA1E01A0724F4109228171092271789
:102C900060912D1770912E176639710579F582387C
:102CA000910561F5C73CE1E0DE0754F48BEF9FEF3F
:102CB00090932A178093291710922817109227179C
:102CC000083362E0160754F086E990E090932E17DF
:102CD00080932D1710922A1710922917CC3262E098
:102CE000D60724F010922A1710922917033D81E08D
:102CF000180724F4109228171092271760912D17A7
:102D000070912E1780912B1790912C176E367105AC
:102D100011F582389105F9F4BE01675C71406536A2
:102D2000710520F01092281710922717033DA1E09B
:102D30001A070CF067C56EE670E070932E1760936B
:102D40002D176BEF7FEF7093281760932717109262
:102D50002A171092291760912D1770912E1762383B
:102D6000710511F582389105F9F4BE01675C714077
:102D70006536710520F01092281710922717033D31
:102D8000E1E01E070CF048C562E870E070932E1772
:102D900060932D176BEF7FEF7093281760932717C1
:102DA00010922A171092291760912D1770912E17E3
:102DB0006E36710549F58E36910531F5C73C61E0F7
:102DC000D6072CF4109228171092271708C0CC327F
:102DD000A2E0DA0724F010922A171092291708337C
:102DE00062E016070CF422C56EE670E070932E17B1
:102DF00060932D1765E070E0709328176093271794
:102E000010922A171092291760912D1770912E1782
:102E10006238710549F58E36910531F5CC3262E0A4
:102E2000D6072CF0109228171092271708C0C73C1D
:102E3000A1E0DA0724F410922A1710922917083318
:102E4000A2E01A070CF4FCC462E870E070932E173D
:102E500060932D1765E070E0709328176093271733
:102E600010922A171092291760912D1770912E1722
:102E70006A35710549F58E36910531F5CC3262E03F
:102E8000D6072CF0109228171092271708C0C73CBD
:102E9000A1E0DA0724F410922A1710922917033DB3
:102EA000E1E01E070CF0D6C46AE570E070932E17BF
:102EB00060932D176BEF7FEF7093281760932717A0
:102EC00010922A171092291760912D1770912E17C2
:102ED0006639710549F58E36910531F5C73C61E0DB
:102EE000D6072CF4109228171092271708C0CC325E
:102EF000A2E0DA0724F010922A1710922917033D56
:102F000061E016070CF0B0C466E970E070932E170C
:102F100060932D176BEF7FEF70932817609327173F
:102F200010922A171092291760912D1770912E1761
:102F30006431710549F58E36910531F5CC3262E088
:102F4000D6072CF0109228171092271708C0C73CFC
:102F5000A1E0DA0724F410922A1710922917033DF2
:102F6000A1E01A070CF08AC464E170E070932E1798
:102F700060932D176BEF7FEF7093281760932717DF
:102F800010922A171092291760912D1770912E1701
:102F90006C3D710549F58E36910531F5C73C61E010
:102FA000D6072CF4109228171092271708C0CC329D
:102FB000A2E0DA0724F010922A1710922917033D95
:102FC000E1E01E070CF064C46CED70E070932E1706
:102FD00060932D176BEF7FEF70932817609327177F
:102FE00010922A171092291760912D1770912E17A1
:102FF0006C33710551F58E36910539F5C73C61E0AA
:10300000D6075CF46BEF7FEF70932A176093291754
:10301000109228171092271708C0CC32A2E0DA07C6
:1030200024F010922A1710922917B801635D71409D
:103030006536710550F06CE370E070932E17609365
:103040002D1710922A171092291760912D17709141
:103050002E17643B710551F58E36910539F5CC324A
:10306000E2E0DE075CF065E070E070932A176093A1
:103070002917109228171092271708C0C73C61E043
:10308000D60724F410922A1710922917B801635D0D
:1030900071406536710550F064EB70E070932E1747
:1030A00060932D1710922A171092291760912D17EF
:1030B00070912E176431710551F58634910539F5FB
:1030C000CC32A2E0DA075CF065E070E070932A177A
:1030D00060932917109228171092271708C0C73C31
:1030E000E1E0DE0724F410922A1710922917B801A4
:1030F000635D71406536710550F064E170E0709376
:103100002E1760932D1710922A171092291760918D
:103110002D1770912E176C3D710551F58634910570
:1031200039F5C73C61E0D6075CF46BEF7FEF709335
:103130002A1760932917109228171092271708C092
:10314000CC32A2E0DA0724F010922A171092291745
:10315000B801635D71406536710550F06CED70E04B
:1031600070932E1760932D1710922A17109229171B
:1031700060912D1770912E176C33710521F06A350F
:103180007105D1F41DC086349105B1F40833E2E035
:103190001E071CF0E5E0F0E006C0033DA1E01A07C1
:1031A00054F5EBEFFFEFF0932817E09327171092F9
:1031B0002A17109229171FC06E36710589F534C081
:1031C0008634910569F5083382E018075CF085E0E4
:1031D00090E0909328178093271710922A17109247
:1031E00029173DC0033DA1E01A07CCF5109228171E
:1031F0001092271734C0CC32A2E0DA070CF452C385
:1032000086E490E090932C1780932B1785E090E054
:1032100090932A1780932917109228171092271736
:103220006238710589F534C08634910569F5033D2E
:1032300081E018075CF48BEF9FEF90932817809341
:10324000271710922A171092291741C00833A2E0BD
:103250001A07ECF1109228171092271738C0CC32B9
:10326000E2E0DE070CF42CC386E490E090932C1788
:1032700080932B1785E090E090932A17809329176D
:10328000109228171092271766397105A9F538C0D2
:1032900080912B1790912C178634910569F5033D89
:1032A00081E018075CF48BEF9FEF909328178093D1
:1032B000271710922A171092291742C00833A2E04C
:1032C0001A07F4F1109228171092271739C0CC3240
:1032D00082E0D8070CF402C386E490E090932C17A8
:1032E00080932B1785E090E090932A1780932917FD
:1032F0001092281710922717643B7105B1F53AC058
:1033000080912B1790912C178634910571F5083315
:1033100082E018075CF085E090E090932817809396
:10332000271710922A1710922917F4C2033DA1E023
:103330001A070CF0EFC21092281710922717EAC252
:10334000CC32A2E0DA070CF4D7C286E490E0909386
:103350002C1780932B1785E090E090932A17809389
:10336000291710922817109227176431710509F058
:1033700041C01DC080912B1790912C178634910568
:10338000C9F5083362E016071CF085E090E006C03E
:10339000033D81E0180724F58BEF9FEF90932817EA
:1033A0008093271710922A171092291719C080911D
:1033B0002B1790912C174E97E9F4CC32E2E0DE0700
:1033C0002CF01092281710922717CDC2C73C61E04D
:1033D000D6070CF0C8C210922A1710922917C3C240
:1033E000CC3262E0D6070CF09EC2C73CA1E0DA07FF
:1033F0000CF4A2C280912D1790912E1760912B177B
:1034000070912C178C33910521F0843B910529F59F
:1034100028C06E31710509F50833A2E01A075CF087
:10342000E5E0F0E0F0932817E093271710922A17B1
:103430001092291708C0033DE1E01E0724F4109202
:10344000281710922717CC32A2E0DA070CF0A0C29E
:10345000C73CA1E0DA070CF4A4C28C3D9105E1F56C
:103460001BC06E317105C1F50833E2E01E075CF048
:1034700085E090E0909328178093271710922A17E1
:10348000109229171FC0033D61E01607DCF410926B
:1034900028171092271716C06E317105E9F4C73C42
:1034A000A1E0DA072CF4109228171092271790C287
:1034B000CC32E2E0DE070CF48BC210922A17109295
:1034C000291786C2CC32E2E0DE070CF061C2C73CAD
:1034D00081E0D8070CF465C280912D1790912E17CA
:1034E000E0912B17F0912C178E36910549F5EE31AE
:1034F000F10531F5C73C81E0D8072CF4109228176C
:103500001092271708C0CC32A2E0DA0724F01092FC
:103510002A1710922917083382E018070CF46DC29D
:103520008EE690E090932E1780932D1785E090E023
:10353000909328178093271710922A171092291713
:1035400080912D1790912E178238910541F5EE311B
:10355000F10529F5CC3282E0D8072CF0109228171B
:103560001092271707C0C73CD14024F410922A17A5
:10357000109229170833A2E01A070CF448C282E817
:1035800090E090932E1780932D1785E090E0909314
:1035900028178093271710922A17109229176091E5
:1035A0002D1770912E178091291790912A17860F49
:1035B000971F90932E1780932D1760912717709166
:1035C00028176E0F7F1F70932C1760932B17109284
:1035D0002A1710922917109228171092271784176C
:1035E000950719F46217730711F00E949D056AE0B0
:1035F00070E080E090E0DF91CF911F910F910C94EB
:10360000F52A033DA1E01A0714F00C94270F8BEF65
:103610009FEF90932817809327170C94270F083358
:10362000A2E01A0714F40C94980F86E990E09093A6
:103630002E1780932D1710922A171092291785E0C4
:1036400090E090932817809327170C94980F033DD0
:1036500061E0160714F00C943C1010922817109299
:1036600027170C943C10033DA1E01A0714F00C94AA
:10367000741010922817109227170C9474100833A6
:10368000E2E01E0714F40C94AA101092281710926E
:1036900027170C94AA10083362E0160714F40C9450
:1036A000E01010922817109227170C94E01008339E
:1036B000A2E01A0714F40C94161110922817109215
:1036C00027170C9416110833E2E01E0714F40C942B
:1036D0004C1110922817109227170C944C11083394
:1036E000A2E01A0714F40C94FF11109228171092FC
:1036F00027170C94FF110833A2E01A0714F40C9456
:10370000361210922817109227170C943612033D88
:10371000A1E01A0714F00C946D1210922817109261
:1037200027170C946D12033DA1E01A0714F00C94B6
:10373000A41210922817109227170C94A412083381
:10374000A2E01A0714F40C94D912109228171092C0
:1037500027170C94D9120833A2E01A0714F40C941A
:103760000E1310922817109227170C940E13033D76
:10377000A1E01A0714F00C94451310922817109228
:1037800027170C944513033DA1E01A0714F00C947D
:103790007C1310922817109227170C947C1365E065
:1037A00070E00C94A71365E070E009C8033DE1E008
:1037B0001E070CF086C96CE370E070932E176093BF
:1037C0002D1710922A17109229176BEF7FEF709325
:1037D00028176093271775C9033DE1E01E070CF019
:1037E000A4C964EB70E070932E1760932D171092AC
:1037F0002A17109229176BEF7FEF709328176093A9
:10380000271793C90833A2E01A070CF4A4CA109230
:103810002817109227179FCA0833E2E01E070CF4FE
:10382000C3CA1092281710922717BECA033DE1E0C1
:103830001E070CF0E9CA1092281710922717E4CA45
:10384000033DE1E01E070CF00FCB109228171092F9
:1038500027170ACB0833E2E01E070CF435CB109291
:1038600028171092271730CB0833E2E01E070CF41C
:103870005BCB109228171092271756CB0833E2E043
:103880001E070CF481CB10922817109227177CCBBF
:103890000833E2E01E070CF4A7CB10922817109211
:1038A0002717A2CBC73CE1E0DE070CF085CC86E40D
:1038B00090E090932C1780932B178BEF9FEFA8CC61
:1038C000C73CE1E0DE070CF0ABCC86E490E09093DF
:1038D0002C1780932B178BEF9FEFCECCC73CE1E0EA
:1038E000DE070CF0D1CC86E490E090932C17809307
:1038F0002B178BEF9FEFF8CCC73CE1E0DE070CF015
:10390000FBCC86E490E090932C1780932B178BEFE1
:103910009FEF23CDCC32E2E0DE072CF4C73CE1E0A0
:10392000DE0754F022CD86E490E090932C1780932C
:103930002B1785E090E008C086E490E090932C1768
:1039400080932B178BEF9FEF90932A178093291763
:1039500005C0033D81E018070CF04CCD10922817EC
:103960001092271747CD083382E0180794F384E1BB
:1039700090E090932E1780932D1785E090E0909320
:1039800028178093271710922A171092291732CDE3
:103990008EE190E090932C1780932B1785E090E0B8
:1039A00008C08EE190E090932C1780932B178BEF3B
:1039B0009FEF90932A178093291705C0033D61E07C
:1039C00016070CF089CD109228171092271784CD76
:1039D000083362E0160794F38CED90E090932E1775
:1039E00080932D1785E090E09093281780932717F8
:1039F00010922A17109229176FCD033D61E0160728
:103A00000CF09ECD109228171092271799CD033DE8
:103A100011400CF0C4CD1092281710922717BFCD7B
:103A2000CC32E2E0DE0724F010922A171092291718
:103A3000083362E016073CF085E090E09093281789
:103A40008093271708C0033D81E0180724F41092E3
:103A5000281710922717C73CA1E0DA0714F00C943E
:103A6000390F8EE091E090932C1780932B178BEFFA
:103A70009FEF90932A17809329171092281710927E
:103A800027170C94390F033DA1E01A0714F00C948A
:103A9000530F8BEF9FEF90932817809327170C9469
:103AA000530FCC32E2E0DE073CF010922817109260
:103AB000271785E090E00AC0C73C61E0D60754F4C0
:103AC00010922817109227178BEF9FEF90932A17C9
:103AD00080932917083382E0180714F40C94980F88
:103AE0008AE590E0A4CDDF91CF911F910F910895C9
:103AF000CF92DF92EF92FF920F931F93CF93DF93BA
:103B000068EE73E080E090E00E94F52A81E090E0AA
:103B1000A0E0B0E080931B1790931C17A0931D1793
:103B2000B0931E17C6E0D2E063E070E080E090E062
:103B30000E9408336993799382E0CE32D807A1F7C7
:103B4000C6E0D2E0699179914AE050E088EE97E1D1
:103B50000E94DC2DA2E0CE32DA07A1F788EE97E1D1
:103B60000E94042D61E08DE00E94302C61E08CE029
:103B70000E94302C61E08BE00E94302C68EE73E0F4
:103B800080E090E00E94F52A60E08DE00E94302CF9
:103B900060E08CE00E94302C60E08BE00E94302CD2
:103BA00060ED77E080E090E00E94F52A01E010E00F
:103BB00086E0E82E82E0F82EC0E0D0E0C017D10702
:103BC00034F56701D701ED91FD917D01EE0FFF1FE7
:103BD000E75BFC4F61E080810E94302C6CEB72E06F
:103BE00080E090E00E94F52AD601ED91FC91EE0F65
:103BF000FF1FE75BFC4F60E080810E94302C64EF88
:103C000071E080E090E00E94F52A2196D7CFC0E0D5
:103C1000D0E0F12CC017D10709F04AC0C431D1055A
:103C200011F560911B1770911C1780911D179091D1
:103C30001E170E94AD4420E030E040E05FE30E94A8
:103C400012440E947E4460931B1770931C1780934C
:103C50001D1790931E1761E872E088EE97E10E94AD
:103C60002A2DFF24F3948E010F5F1F4F60911B17C5
:103C700070911C1780911D1790911E170E94AD44E2
:103C800020E030E040E05FE30E9412440E947E4466
:103C900060931B1770931C1780931D1790931E172A
:103CA0006CE271E080E090E00E94F52AE12C02C015
:103CB000EE24E39488E00E94602C892B51F4FE01ED
:103CC000EE0FFF1FEA5FFD4F80819181892B09F480
:103CD0005FC087E00E94602C892B51F4FE01EE0F3B
:103CE000FF1FEA5FFD4F80819181019709F467C052
:103CF00083E00E94602C892B51F4FE01EE0FFF1F20
:103D0000EA5FFD4F80819181029709F46FC088E0DE
:103D10000E94602C892B51F4FE01EE0FFF1FEA5F19
:103D2000FD4F80819181892B09F077C087E00E9447
:103D3000602C892B51F4FE01EE0FFF1FEA5FFD4F4F
:103D400080819181019709F068C083E00E94602C16
:103D5000892B51F4FE01EE0FFF1FEA5FFD4F8081BA
:103D60009181029709F059C0E11054CF69EB72E0DC
:103D700088EE97E10E942A2DFF2009F419CFDF91E8
:103D8000CF911F910F91FF90EF90DF90CF9008950A
:103D900061E08DE00E94302C21964AE050E0B801AD
:103DA00088EE97E10E94E32D6CE271E080E090E004
:103DB0000E94F52A60E08DE00E94302C8ACF61E0FD
:103DC0008CE00E94302C21964AE050E0B80188EE49
:103DD00097E10E94E32D6CE271E080E090E00E94A8
:103DE000F52A60E08CE00E94302C82CF61E08BE00D
:103DF0000E94302C21964AE050E0B80188EE97E10D
:103E00000E94E32D6CE271E080E090E00E94F52AD0
:103E100060E08BE00E94302C7ACF61E08DE00E9460
:103E2000302C61E08CE00E94302C61E08BE00E943D
:103E3000302C68EE73E080E090E00E94F52A61E0AB
:103E40008DE00E94302C61E08CE00E94302C60E01C
:103E50008BE00E94302C68EE73E080E090E00E94DE
:103E6000F52A61E08DE00E94302C60E08CE00E9439
:103E7000302C60E08BE00E94302C68EE73E080E034
:103E800090E00E94F52A60E08DE00E94302C60E016
:103E90008CE00E94302C60E08BE00E94302C68EEB9
:103EA00073E080E090E00E94F52A61E08DE00E94DE
:103EB000302C61E08CE00E94302C61E08BE00E94AD
:103EC000302C64EF71E080E090E00E94F52A60E021
:103ED0008DE00E94302C60E08CE00E94302C60E08D
:103EE0008BE00E94302C64EF71E080E090E00E9453
:103EF000F52A61E08DE00E94302C61E08CE00E94A8
:103F0000302C61E08BE00E94302C64EF71E080E0A7
:103F100090E00E94F52A60E08DE00E94302C60E085
:103F20008CE00E94302C60E08BE00E94302C6EEB25
:103F300072E088EE97E10E942A2D6CE271E080E049
:103F400090E00E94F52AFF24F39410CFEF92FF92A5
:103F50000F93CF93DF932FEF49E06AE086E497E178
:103F60000E94593B8CE2E82EFF24F39405E029E3FC
:103F700048E364E082E397E10E943E40C9ECD3E06D
:103F800068E473E0CE010E946E2E299687E0CD345E
:103F9000D807B1F7C4EBD3E068E473E0CE010E9428
:103FA0006E2E279683E0C93CD807B1F7DF91CF91F9
:103FB0000F91FF90EF900895CF93DF9382EC93E001
:103FC0000E94002E8BEB93E00E94002E84EB93E086
:103FD0000E94002ECDE4D7E02997CE010E94002E4A
:103FE00083E0C93CD807C1F7DF91CF910895EF92E4
:103FF000FF920F931F93EE24EA94FE2C00EF10E043
:1040000024EB30E040EF50E06CE370E086E497E1B1
:104010000E94FE340EE011E02CE330E040EF50E06F
:104020006CE370E086E497E10E94FE3424EB30E01C
:1040300040EF50E064EB70E086E497E10E94FE34CC
:1040400024E130E04EE051E06CE370E086E497E17B
:104050000E94FE342CED30E04EE051E064EB70E065
:1040600086E497E10E94FE340CE211E024E130E0A6
:104070004EE051E064E170E086E497E10E94FE3496
:104080002CED30E04EE051E06CED70E086E497E11D
:104090000E94FE342CED30E04CE251E064E170E02F
:1040A00086E497E10E94FE340EE011E02AE530E05C
:1040B00040EF50E06AE570E086E497E10E94FE344C
:1040C00026E930E040EF50E066E970E086E497E1F1
:1040D0000E94FE342EE630E04EE051E06AE570E0EA
:1040E00086E497E10E94FE3422E830E04EE051E0A1
:1040F00066E970E086E497E10E94FE340CE211E08C
:104100002EE630E04EE051E06EE670E086E497E1A6
:104110000E94FE3422E830E04EE051E062E870E0B8
:1041200086E497E10E94FE3402ED10E02EE630E0D6
:1041300040EF50E06EE670E086E497E10E94FE34C6
:1041400022E830E040EF50E062E870E086E497E17A
:104150000E94FE3424E130E042ED50E06EE670E073
:1041600086E497E10E94FE342CED30E042ED50E011
:1041700062E870E086E497E10E94FE3400EF10E010
:1041800024E130E042ED50E064E170E086E497E144
:104190000E94FE342CED30E042ED50E06CED70E01A
:1041A00086E497E10E94FE3428E230E040EF50E0E0
:1041B00064E170E086E497E10E94FE3428EC30E090
:1041C00040EF50E06CED70E086E497E10E94FE3431
:1041D0000EE011E028E230E040EF50E068E270E0ED
:1041E00086E497E10E94FE3428EC30E040EF50E096
:1041F00068EC70E086E497E10E94FE340EE110E086
:104200002CE330E040EF50E06CE370E086E497E1AF
:104210000E94FE3424EB30E040EF50E064EB70E0AD
:1042200086E497E10E94FE342EE630E04EE150E055
:1042300064E170E086E497E10E94FE342CED30E00A
:104240004EE150E062E870E086E497E10E94FE34BF
:1042500006E410E02EE630E04EE150E06EE670E05D
:1042600086E497E10E94FE3422E830E04EE150E01F
:1042700062E870E086E497E10E94FE340EE610E00A
:1042800024E130E04EE150E064E170E086E497E143
:104290000E94FE342CED30E04EE150E06CED70E019
:1042A00086E497E10E94FE3406E410E02CED30E055
:1042B00046E450E064E170E086E497E10E94FE3459
:1042C0000EE610E02CE330E04EE650E064E170E0F2
:1042D00086E497E10E94FE342CED30E04EE650E09B
:1042E00064EB70E086E497E10E94FE342AE530E05A
:1042F00046E450E06AE570E086E497E10E94FE340F
:1043000026E930E046E450E066E970E086E497E1B3
:104310000E94FE342EE630E04EE650E06AE570E0A2
:1043200086E497E10E94FE3426E930E04EE650E054
:1043300062E870E086E497E10E94FE3490EEE92E98
:10434000FF24FA9400EA10E02AE530E040EA50E069
:1043500060E070E086E497E10E94FE3420EF30E0F8
:1043600040EA50E066E970E086E497E10E94FE349E
:1043700002ED10E02AE530E042E850E06AE570E046
:1043800086E497E10E94FE3426E930E042E850E0FE
:1043900066E970E086E497E10E94FE3402E810E0EE
:1043A00026E930E042E850E06AE570E086E497E113
:1043B0000E94FE342EE630E04EE650E06EE670E0FD
:1043C00086E497E10E94FE3422E830E04EE650E0B9
:1043D00062E870E086E497E10E94FE340AEB10E0A8
:1043E00026E930E04AEB50E06AE570E086E497E1C8
:1043F0000E94FE341F910F91FF90EF9008958091DD
:104400002E0281110E94AA070E94F71F6AE070E045
:1044100080E090E00C94F52A0E941B2B40E855E2C6
:1044200060E070E088EE97E10E94AE3188EE97E19F
:104430000E947F2F62E082E00E94F42B40E050E077
:10444000BA0186E497E10E941A3C61E08DE00E9487
:10445000F42B61E08CE00E94F42B61E08BE00E9481
:10446000F42B60E088E00E94F42B61E088E00E9479
:10447000302C60E087E00E94F42B61E087E00E942E
:10448000302C60E083E00E94F42B61E083E00E9426
:10449000302C60E08DE00E94302C60E08CE00E94C7
:1044A000302C60E08BE00C94302C82E00E94602C79
:1044B000892B69F46CEB72E088EE97E10E942A2D5B
:1044C00088EE97E10E947F2F81E080932F17089557
:1044D000CF92DF92EF92FF920F931F93CF93DF93D0
:1044E00060E070E086E497E10E94E03440E060E044
:1044F00070E080E090E00E94470410E000E0C0E03F
:10450000D0E086E30E947D2B7C0182E00E94602C3B
:104510006C0180E4E81682E0F8063CF02196C33096
:10452000D10564F0C0E0D0E009C081ECE81681E07C
:10453000F80664F4219710F4C2E0D0E040E0612F67
:10454000702FCE010E9447041C2F0D2FCD2831F46F
:10455000CE010E94ED04FF24F39401C0F12C64E627
:1045600070E080E090E00E94F52AFF2051F2DF9198
:10457000CF911F910F91FF90EF90DF90CF90089512
:104580000F931F93CF93DF93EC018B0160E070E0FA
:1045900086E497E10E94E0344AE0B801CE010E942F
:1045A000BC2E40E550E06AE070E086E497E10E94AE
:1045B000113A62E086E497E10E94173A4FEF5FEF0D
:1045C00060E070E086E497E10E941D3A65EC72E0DD
:1045D00086E497E10E94FB2CBE0186E497E10E94ED
:1045E000182DCE01DF91CF911F910F910895AF92B9
:1045F000BF92CF92DF92EF92FF920F931F93CF93D0
:10460000DF93CDB7DEB72E970FB6F894DEBF0FBE9F
:10461000CDBF5C0160E070E086E497E10E94E03489
:1046200040E050E060E070E086E497E10E94113ADB
:1046300061E086E497E10E94173A40E050E06FEFB6
:104640007FEF86E497E10E941D3A62ED72E086E416
:1046500097E10E94FB2C40E050E062E370E086E4CA
:1046600097E10E94113A61E086E497E10E94173ACF
:1046700067ED72E086E497E10E94FB2C40E050E099
:1046800064EB70E086E497E10E94113A61E086E411
:1046900097E10E94173A60EE72E086E497E10E948B
:1046A000FB2C89ECC82E83E0D82E08E010E0E12C2A
:1046B000F12C81E0A81AB108EA14FB040CF056C0F2
:1046C000EFEFEE1AFE0A4AE0B701CE0108960E940B
:1046D000BC2EA80160E070E086E497E10E94113AE8
:1046E00061E086E497E10E94173ABE01685F7F4F60
:1046F00086E497E10E94C62CA80162E370E086E49C
:1047000097E10E94113A61E086E497E10E94173A2E
:10471000B60186E497E10E94C62CA80164EB70E024
:1047200086E497E10E94113A61E086E497E10E94F5
:10473000173AF601678170854AE0CE0101960E9422
:10474000E92EBE016F5F7F4F86E497E10E94182D2E
:10475000CE0101960E94002ECE0108960E94002EE6
:10476000085F1F4FF9E0CF0ED11CA6CF2E960FB6D3
:10477000F894DEBF0FBECDBFDF91CF911F910F9197
:10478000FF90EF90DF90CF90BF90AF900895EF92A1
:10479000FF920F931F9360E070E086E497E10E9420
:1047A000E03440E550E06AE070E086E497E10E9482
:1047B000113A64E086E497E10E94173A40EE5FEF19
:1047C00060E070E086E497E10E941D3A66EE72E0D8
:1047D00086E497E10E942A2DE12C88EFF82E02E171
:1047E00010E023E130E047EC50E06CE370E086E459
:1047F00097E10E94023B0EE010E021E130E046EC40
:1048000050E06DE370E086E497E10E94023BEE2405
:10481000EA94FE2C07E010E026E030E047EC50E0A0
:104820006FE370E086E497E10E94023B26E030E00F
:1048300047EC50E065E470E086E497E10E94023BBB
:10484000E12CF12C04E010E024E030E048EC50E0F2
:1048500061E470E086E497E10E94023B24E030E0EE
:1048600048EC50E067E470E086E497E10E94023B88
:10487000EE24EA9427E0F22E02E110E023E130E09A
:1048800047EC50E06AE570E086E497E10E94023B65
:104890000EE010E021E130E046EC50E06BE570E026
:1048A00086E497E10E94023BEE24EA94FE2C07E0A6
:1048B00010E026E030E047EC50E06DE570E086E483
:1048C00097E10E94023B26E030E047EC50E063E6CF
:1048D00070E086E497E10E94023BE12CF12C04E0B9
:1048E00010E024E030E048EC50E06FE570E086E452
:1048F00097E10E94023B24E030E048EC50E065E69E
:1049000070E086E497E10E94023B4FE1E42E48EF1D
:10491000F42E02E110E023E130E047EC50E068E7DC
:1049200070E086E497E10E94023B0EE010E021E196
:1049300030E046EC50E069E770E086E497E10E94E1
:10494000023BEE24EA94FE2C07E010E026E030E083
:1049500047EC50E06BE770E086E497E10E94023B91
:1049600026E030E047EC50E061E870E086E497E153
:104970000E94023BE12CF12C04E010E024E030E046
:1049800048EC50E06DE770E086E497E10E94023B5E
:1049900024E030E048EC50E063E870E086E497E122
:1049A0000E94023B60E2E62E6DEFF62E02E110E07F
:1049B00023E130E047EC50E066E970E086E497E1FF
:1049C0000E94023B0EE010E021E130E046EC50E0B6
:1049D00067E970E086E497E10E94023BEE24EA94E6
:1049E000FE2C07E010E026E030E047EC50E069E9FB
:1049F00070E086E497E10E94023B26E030E047EC5D
:104A000050E06FE970E086E497E10E94023BE12C00
:104A1000F12C04E010E024E030E048EC50E06BE9D9
:104A200070E086E497E10E94023B24E030E048EC2D
:104A300050E061EA70E086E497E10E94023B00EEFC
:104A40001FEF29E030E04FEC50E060EC70E086E4CE
:104A500097E10E94DE3648E151E068E270E086E4CA
:104A600097E10E94113A61E086E497E10E94173ACB
:104A700040E050E060EE7FEF86E497E10E941D3A4F
:104A800060EF72E086E497E10E942A2D82E00E94A6
:104A9000602C892BD9F71F910F91FF90EF9008950B
:104AA000EF92FF920F931F93CF93DF9360E070E03C
:104AB00086E497E10E94E034C8E7D0E0D0932E1757
:104AC000C0932D1780EF90E090932C1780932B17B5
:104AD00000EE1FEF27E030E040EF50E068E770E0C5
:104AE00086E497E10E94DE368FE1E82EF12C04E0A7
:104AF00010E020EF30E046E351E060E070E086E453
:104B000097E10E94023B20EF30E04AE050E060E095
:104B100070E086E497E10E94023B0EE110E023E0A2
:104B200030E04AE050E060E070E086E497E10E9407
:104B3000023B0E94F71F61E086E497E10E94173A6A
:104B400060E086E497E10E94233A80912E02882358
:104B500009F47CC080EA90E09093121780931117BB
:104B600028EC30E03093101720930F17D0930E17D6
:104B7000C0930D1730930C1720930B1724E630E0E9
:104B800030930A172093091746E450E05093081712
:104B900040930717909306178093051730930417D7
:104BA0002093031710920217109201179093001789
:104BB0008093FF1600E018EF27E030E048EC50E06B
:104BC00060EA70E086E497E10E94DE3640910B17C0
:104BD00050910C1760910D1770910E170FE118EF9F
:104BE00027E030E086E497E10E94DE364091071727
:104BF000509108176091091770910A170FEF17E08D
:104C000027E030E086E497E10E94DE36409103170A
:104C100050910417609105177091061700E21DEF7F
:104C200027E030E086E497E10E94DE364091FF16EF
:104C30005091001760910117709102170FEF1FEF4D
:104C400027E030E086E497E10E94DE36DF91CF91E5
:104C50001F910F91FF90EF9008952F923F924F92E6
:104C60005F926F927F928F929F92AF92BF92CF92FC
:104C7000DF92EF92FF920F931F93CF93DF93CDB705
:104C8000DEB7A2970FB6F894DEBF0FBECDBF82E0AD
:104C90000E94602C8C0186E30E947D2B87E30E949A
:104CA0007D2B8091191790911A17019709F066C012
:104CB00080914D0790914E07883C91050CF05EC0A5
:104CC00061E08CE00E94302C80914D0790914E075E
:104CD00024E1289FF001299FF00D1124E15BF84F9A
:104CE00040912D1750912E175183408340912B17DF
:104CF00050912C17538342834091111750911217F2
:104D00005583448340910F17509110175783468362
:104D100040910D1750910E175187408740910B1706
:104D200050910C17538742874091091750910A17E9
:104D30005587448740910717509108175787468732
:104D40004091051750910617518B408B40910317E6
:104D500050910417538B428B0196289FF001299F95
:104D6000F00D1124E15BF84F2091011730910217EB
:104D70003183208390934E0780934D0780911917BC
:104D800090911A17009779F4012B89F46CE073E085
:104D900088EE97E10E942A2D81E090E090931A1707
:104DA00080931917CBC1019711F4012B41F0809129
:104DB0004D0790914E078336910509F0DDC166E1FC
:104DC00073E088EE97E10E942A2D10921A17109234
:104DD000191703E010E061E08DE00330110541F4A4
:104DE0000E94302C61E08CE00E94302C61E00EC00B
:104DF0000230110521F40E94302C61E003C00E94B2
:104E0000302C60E08CE00E94302C60E08BE00E944F
:104E1000302C65E273E088EE97E10E94FB2C4AE0BB
:104E200050E0B80188EE97E10E94DC2D69E373E061
:104E300088EE97E10E942A2D0150110968EE73E077
:104E400080E090E00E94F52A0115110521F660E04E
:104E50008DE00E94302C60E08CE00E94302C60E0FD
:104E60008BE00E94302CE0904D07F0904E0784E1DB
:104E70008E9D80018F9D100D1124C801815B984F7C
:104E80009AA389A3F7FCBCC0E9A1FAA10081118112
:104E9000828193819C838B8394819D87E581EE87BA
:104EA000E9A1FAA1F681FF87E9A1FAA1F781F88BC0
:104EB000E9A1FAA1F085F98BE9A1FAA1F185FA8BB4
:104EC000E9A1FAA1F285FB8BE9A1FAA1F385FC8B9C
:104ED000E9A1FAA1F485FD8BE9A1FAA1F585FE8B84
:104EE000E9A1FAA1F685FF8BE9A1FAA1F785F88F70
:104EF000E9A1FAA1F089F98FE9A1FAA1F189FA8F64
:104F0000E9A1FAA1F289FB8FE9A1FAA1F389FC8F4B
:104F1000E9A1FAA1F489FD8FE9A1FAA1F589FE8F33
:104F200089819A810817190729F4EB81FC81EC1516
:104F3000FD05A9F1960149815A816B817C81C801E7
:104F40000E949D059201A3016F8578898D859E85BC
:104F50000E94C0059401A5016B897C8989899A8981
:104F60000E94E3052F8138854D815E816F89788DA0
:104F70008D899E890E9406062B853C8549855A8528
:104F80006B8D7C8D898D9A8D0E94290620EA30E0F8
:104F9000A10160EA70E08D8D9E8D0E944C060E94FA
:104FA000F71F6CE370E080E090E00E94F52AF1E0EA
:104FB000EF1AF10889A19AA144979AA389A32F8E89
:104FC00038A22D8C3E8C9B8D9B87EC8DEC87F98DC8
:104FD000F9878A8D8A879F899F83E88DE887FD8975
:104FE000FD838E898E838B889C88A988BA884F849C
:104FF00058886D847E84CB80DC801A83098342CFFD
:1050000010924E0710924D0780914F0790915007D4
:1050100090932E1780932D178091510790915207EE
:1050200090932C1780932B178091530790915407DE
:1050300090931217809311178091550790915607FE
:105040009093101780930F178091570790915807EE
:1050500090930E1780930D178091590790915A07DE
:1050600090930C1780930B1780915B0790915C07CE
:1050700090930A178093091780915D0790915E07BE
:10508000909308178093071780915F0790916007AE
:10509000909306178093051780916107909162079E
:1050A000909304178093031780916307909164078E
:1050B0009093021780930117E12CF12C02E211E08A
:1050C00020EF30E044E150E060E070E086E497E1FA
:1050D0000E94023B960149815A81B601CA010E9491
:1050E0009D059201A301B201C3010E94C005940174
:1050F000A501B401C5010E94E3052F8138854D81CA
:105100005E81B901CA010E9406062B853C8549854E
:105110005A85B901CA010E94290620EA30E04F8D64
:1051200058A160EA70E0C1010E944C060E94F71F7E
:1051300069EB72E088EE97E10E942A2D64EF71E03E
:1051400080E090E0A2960FB6F894DEBF0FBECDBF10
:10515000DF91CF911F910F91FF90EF90DF90CF9053
:10516000BF90AF909F908F907F906F905F904F9087
:105170003F902F900C94F52AA2960FB6F894DEBFBC
:105180000FBECDBFDF91CF911F910F91FF90EF9098
:10519000DF90CF90BF90AF909F908F907F906F9057
:1051A0005F904F903F902F900895CF92DF92EF92B3
:1051B000FF920F931F93CF93DF93CDB7DEB7C2500B
:1051C000D2400FB6F894DEBF0FBECDBF8E010F5F89
:1051D0001F4F68017601E01AF10A88EE97E10E94FC
:1051E000332F892BD1F388EE97E10E945F2FF601D0
:1051F00081936F018A3071F7F801EE0DFF1D108267
:105200006AE073E0C8010E948643FC0180818E340D
:1052100079F56AE073E080E090E00E948643BC018B
:10522000CE018B509E4F0E946E2ECE018B509E4F12
:105230000E94272F709305026093040288EE97E185
:105240000E947F2F66E473E088EE97E10E94FB2CBA
:1052500048EE53E060E070E088EE97E10E94FA2D9E
:1052600088EE97E10E947F2FCE018B509E4F67C042
:10527000873509F067C06AE073E080E090E00E9443
:105280008643BC01CE0184509E4F0E946E2E6AE080
:1052900073E080E090E00E948643BC01CE018B5019
:1052A0009E4F0E946E2ECE018B509E4F0E94272F44
:1052B0006B017C012091B2033091B30319E0129F7E
:1052C000C001139F900D1124BE0164507E4F87537F
:1052D0009C4F0E94842E8091B2039091B303189F3B
:1052E000F001199FF00D1124E753FC4FD086C782BF
:1052F00088EE97E10E947F2F66E473E088EE97E1E5
:105300000E94FB2C48EE53E060E070E088EE97E1ED
:105310000E94FA2D88EE97E10E947F2F8091B203C0
:105320009091B30301969093B3038093B203CE019F
:105330008B509E4F0E94002ECE0184509E4F0E94A3
:10534000002E05C0853419F481E080933017CE5FBC
:10535000DD4F0FB6F894DEBF0FBECDBFDF91CF910A
:105360001F910F91FF90EF90DF90CF900895CF9312
:10537000DF93309131172091301731111CC021116A
:1053800020C0EC0160EE72E088EE97E10E94FB2CF9
:105390006AE073E088EE97E10E94FB2CBE0188EE84
:1053A00097E10E94182D88EE97E10E947F2F81E0FF
:1053B0008093311706C0211104C0DF91CF910C9466
:1053C000D528DF91CF910895CF93DF93CDB7DEB786
:1053D0002E970FB6F894DEBF0FBECDBF88EEC82E55
:1053E00083E0D82EE12CF12C10922F171092301759
:1053F000109231171092B3031092B2030E940C2244
:105400000E94C7230E9435040E9468220E94C42A79
:105410004B015C010E9450250E94F3090E94FF216C
:105420000E9460050E942D268091171790911817F1
:10543000892B91F70E94C42A681979098A099B0966
:10544000A70196010E945B452093231730932417F0
:1054500040932517509326170E94781D20911B1703
:1054600030911C1740911D1750911E176091231702
:105470007091241780912517909126170E944B4513
:105480009B01AC0160911F1770912017809121172B
:10549000909122170E944B45CE0108960E94C0228F
:1054A00080913017811110C0BE01685F7F4FCE011F
:1054B00001960E949B2ECE0101960E94B729CE0133
:1054C00001960E94002EECCF80910402909105027B
:1054D0000E94F72280912F17811103C00E9455224C
:1054E000F9CF88EE97E10E947F2FCE0108960E94A7
:1054F000002E7ACF1F920F920FB60F9211242F9386
:105500003F938F939F93AF93BF9380917A1790911E
:105510007B17A0917C17B0917D173091791723E00C
:10552000230F2D3720F40196A11DB11D05C026E8DB
:10553000230F0296A11DB11D2093791780937A172E
:1055400090937B17A0937C17B0937D1780917E1763
:1055500090917F17A0918017B09181170196A11D9E
:10556000B11D80937E1790937F17A0938017B093FF
:105570008117BF91AF919F918F913F912F910F9084
:105580000FBE0F901F9018952FB7F89460917A175F
:1055900070917B1780917C1790917D172FBF089594
:1055A0003FB7F89480917E1790917F17A091801754
:1055B000B091811726B5A89B05C02F3F19F0019621
:1055C000A11DB11D3FBFBA2FA92F982F8827820F89
:1055D000911DA11DB11DBC01CD0142E0660F771FD9
:1055E000881F991F4A95D1F70895CF92DF92EF92C5
:1055F000FF92CF93DF936B017C010E94D02AEB01D5
:10560000C114D104E104F10479F00E94D02A6C1B8A
:105610007D0B683E7340A0F381E0C81AD108E10811
:10562000F108C851DC4FECCFDF91CF91FF90EF90A4
:10563000DF90CF900895789484B5826084BD84B55E
:10564000816084BD85B5826085BD85B5816085BD7D
:10565000EEE6F0E0808181608083E1E8F0E0108296
:10566000808182608083808181608083E0E8F0E0D7
:10567000808181608083E1EBF0E0808184608083C1
:10568000E0EBF0E0808181608083E1E9F0E08081FF
:1056900082608083808181608083E0E9F0E08081A6
:1056A00081608083E1EAF0E0808182608083808194
:1056B00081608083E0EAF0E0808181608083E1E2C4
:1056C000F1E0808182608083808181608083E0E27C
:1056D000F1E0808181608083EAE7F0E0808184608E
:1056E00080838081826080838081816080838081EB
:1056F000806880831092C1000895863308F0865335
:1057000090917B00282F2870977F922B90937B009D
:10571000877020912F0290E4299F90011124822B01
:1057200080937C0080917A00806480937A008091DD
:105730007A0086FDFCCF809178002091790090E07E
:10574000922B089590E0FC013197E131F10508F0CA
:105750004AC08827EE58FF4F8F4F0C949C4580918C
:1057600080008F7703C0809180008F7D80938000C0
:10577000089584B58F7702C084B58F7D84BD089568
:105780008091B0008F7703C08091B0008F7D8093AF
:10579000B0000895809190008F7707C080919000AD
:1057A0008F7D03C080919000877F80939000089543
:1057B0008091A0008F7707C08091A0008F7D03C0EB
:1057C0008091A000877F8093A000089580912001A0
:1057D0008F7707C0809120018F7D03C080912001C9
:1057E000877F809320010895CF93DF9390E0FC01A1
:1057F000EC5DFD4F2491FC01E659FD4F8491882317
:1058000061F190E0880F991FFC01EC51FD4FC591AB
:10581000D491FC01E653FD4FA591B491611109C0EB
:105820009FB7F8948881209582238883EC912E235A
:105830000BC0623061F49FB7F8943881822F809555
:1058400083238883EC912E2B2C939FBF06C08FB7A8
:10585000F894E8812E2B28838FBFDF91CF91089594
:105860001F93CF93DF93282F30E0F901E252FE4FD0
:105870008491F901EC5DFD4FD491F901E659FD4F9A
:10588000C491CC23C9F0162F81110E94A22BEC2FBA
:10589000F0E0EE0FFF1FE653FD4FA591B4918FB7D7
:1058A000F894111105C09C91ED2FE095E92302C0F9
:1058B000EC91ED2BEC938FBFDF91CF911F91089569
:1058C000CF93DF93282F30E0F901E252FE4F84910D
:1058D000F901EC5DFD4FD491F901E659FD4FC491FA
:1058E000CC2391F081110E94A22BEC2FF0E0EE0F5F
:1058F000FF1FE055FD4FA591B491EC91ED2381E0A0
:1059000090E021F480E002C080E090E0DF91CF9150
:105910000895CF92DF92EF92FF920F931F93CF9350
:10592000DF936C01EB017B01E40EF51E00E010E05B
:10593000CE15DF0561F06991D601ED91FC910190E2
:10594000F081E02DC6011995080F191FF1CFC8018C
:10595000DF91CF911F910F91FF90EF90DF90CF904B
:1059600008956115710579F0FB0101900020E9F7B8
:105970003197AF01461B570BDC01ED91FC91028082
:10598000F381E02D199480E090E00895AF92BF92EA
:10599000CF92DF92EF92FF920F931F93CF93DF93FB
:1059A0006C017B01C0E0D0E000E010E0D70114966C
:1059B0008D919C911597C817D90788F4D601ED9160
:1059C000FC91A080B180BE01C7010E94162F682FF4
:1059D000C601F5011995080F191F2196E7CFC801D7
:1059E000DF91CF911F910F91FF90EF90DF90CF90BB
:1059F000BF90AF9008950C94B12CDC01ED91FC9117
:105A00000190F081E02D19940F931F93CF93DF93B2
:105A1000EC016DE00E94FD2C8C016AE0CE010E9439
:105A2000FD2C800F911FDF91CF911F910F91089551
:105A30000F931F93CF93DF93EC010E94C62C8C0130
:105A4000CE010E94042D800F911FDF91CF911F91F5
:105A50000F9108950F931F93CF93DF93EC010E9452
:105A6000B12C8C01CE010E94042D800F911FDF917B
:105A7000CF911F910F9108958F929F92AF92BF92F5
:105A8000CF92DF92EF92FF920F931F93CF93DF930A
:105A9000CDB7DEB7A1970FB6F894DEBF0FBECDBF6E
:105AA0006C01142FE52FCB01022F19A2223008F42C
:105AB0000AE07E0121E2E20EF11C802E912CA12C45
:105AC000B12C612F7E2FA50194010E945B45029F9E
:105AD0001019112481E0E81AF1081A3014F4105D4D
