:100000000C9402040C9433040C9433040C943304C5
:100010000C9433040C9433040C9433040C94330484
:100020000C9433040C9433040C9433040C94330474
:100030000C9433040C9433040C9433040C94330464
:100040000C9433040C9433040C9433040C94330454
:100050000C9433040C9433040C9433040C945D2AF4
:100060000C9433040C94C92F0C9495300C943304E5
:100070000C9433040C9433040C9433040C94330424
:100080000C9433040C9433040C9433040C94330414
:100090000C94FC2F0C94D4300C9433040C94330443
:1000A0000C9433040C9433040C9433040C943304F4
:1000B0000C9433040C9433040C9433040C943304E4
:1000C0000C9433040C9433040C9433040C942F30AC
:1000D0000C9413310C9433040C9462300C94523110
:1000E0000C9433049C2B9F2B922B962BD62BA32B5B
:1000F000A72BAD2BB12BB52BBB2BBF2BC32BD62BDB
:10010000C92BCD2BD12B0C94E53A0C94B52B0C9428
:10011000B23F0C94422F0C94C3340C94B9330C941A
:1001200072340C94152F0C94C32B0C94C92B0C9483
:10013000E1340C94BB2B0C946C2C0C94A72B0C94DA
:10014000713A0C94CD2B0C94E9330C94AD2B0C9498
:1001500057350C94162F0C941E390C94AB3A0C9412
:10016000262F0C94B7350C94962B0C94D62B0C940C
:10017000233B0C946D2F0C94922B0C94BF1F0C946A
:100180000F330C94E8330C942E340C94B8330C9445
:10019000143A0C949C2B0C94283A0C94D8330C945D
:1001A000B12B0C94C0330C94B6350C94891F0C946D
:1001B000622F0C94373F0C94CC330C94093A0C9476
:1001C00019320C94BF2B0C943B3A0C949F2B0C943B
:1001D000D12B0C94F33D0C943F3E0C94A32B0000C8
:1001E000090A02080B0C0D070603040100000000B9
:1001F00000000000000000000000000000000000FF
:100200000000000000000000000011100F000000BE
:1002100000000000000000000000000000000000DE
:1002200000000000010210202008081020401020CB
:1002300040800201020108040201010204081020AA
:1002400040808040201008040201800402018040A8
:100250002010080402010804020101020408102011
:1002600040800102040810204080050505050705AF
:1002700008080808020202020A0A08080404040422
:10028000010101010101010103030303030303034E
:10029000040707070C0C0C0C0C0C0C0C02020202DD
:1002A00006060606060606060B0B0B0B0B0B0B0BC6
:1002B000000020002300260029002C002F0032001F
:1002C00000010000030106010901000022002500D1
:1002D00028002B002E00310034000201000005012F
:1002E00008010B0100002100240027002A002D0036
:1002F0003000330001010000040107010A01000081
:100300000000003E5B4F5B3E3E6B4F6B3E1C3E7CF5
:100310003E1C183C7E3C181C577D571C1C5E7F5EA3
:100320001C00183C1800FFE7C3E7FF001824180062
:10033000FFE7DBE7FF30483A060E262979292640F9
:100340007F050507407F05253F5A3CE73C5A7F3E25
:100350001C1C08081C1C3E7F14227F22145F5F00B7
:100360005F5F06097F017F006689956A6060606053
:100370006094A2FFA29408047E040810207E20103E
:1003800008082A1C08081C2A08081E101010100C47
:100390001E0C1E0C30383E3830060E3E0E06000095
:1003A00000000000005F00000007000700147F1439
:1003B0007F14242A7F2A12231308646236495620A8
:1003C000500008070300001C2241000041221C00CD
:1003D0002A1C7F1C2A08083E08080080703000088C
:1003E00008080808000060600020100804023E5160
:1003F00049453E00427F40007249494946214149F2
:100400004D331814127F1027454545393C4A494958
:100410003141211109073649494936464949291EC2
:1004200000001400000040340000000814224114B1
:1004300014141414004122140802015909063E4103
:100440005D594E7C1211127C7F494949363E41412B
:1004500041227F4141413E7F494949417F09090984
:10046000013E414151737F0808087F00417F4100F0
:100470002040413F017F081422417F404040407F9F
:10048000021C027F7F0408107F3E4141413E7F09EC
:100490000909063E4151215E7F091929462649492D
:1004A000493203017F01033F4040403F1F2040206D
:1004B0001F3F4038403F631408146303047804036B
:1004C0006159494D43007F41414102040810200019
:1004D0004141417F0402010204404040404000038A
:1004E00007080020545478407F2844443838444456
:1004F0004428384444287F385454541800087E094E
:100500000218A4A49C787F0804047800447D40006D
:100510002040403D007F1028440000417F40007C87
:10052000047804787C080404783844444438FC187F
:1005300024241818242418FC7C0804040848545463
:10054000542404043F44243C4040207C1C20402090
:100550001C3C4030403C44281028444C9090907CF7
:100560004464544C44000836410000007700000009
:100570004136080002010204023C2623263C1EA14B
:10058000A161123A4040207A3854545559215555AA
:100590007941225454784221555478402054557959
:1005A000400C1E52721239555555593954545459EC
:1005B00039555454580000457C410002457D4200A5
:1005C00001457C407D1211127DF0282528F07C54D5
:1005D0005545002054547C547C0A097F49324949CE
:1005E00049323A4444443A324A4848303A41412137
:1005F0007A3A42402078009DA0A07D3D4242423D93
:100600003D4040403D3C24FF2424487E4943662B26
:100610002FFC2F2BFF0929F620C0887E09032054C8
:100620005479410000447D413048484A32384040C6
:10063000227A007A0A0A727D0D19317D2629292F26
:1006400028262929292630484D402038080808083E
:1006500008080808382F10C8ACBA2F102834FA0040
:10066000007B000008142A142222142A14085500C2
:10067000550055AA55AA55AAFF55FF55FF00000081
:10068000FF00101010FF00141414FF001010FF00E2
:10069000FF1010F010F0141414FC001414F700FFF5
:1006A0000000FF00FF1414F404FC141417101F10B2
:1006B000101F101F1414141F00101010F000000061
:1006C000001F101010101F10101010F0100000006C
:1006D000FF101010101010101010FF10000000FF7D
:1006E000140000FF00FF00001F10170000FC04F4BE
:1006F00014141710171414F404F40000FF00F71476
:10070000141414141414F700F714141417141010FC
:100710001F101F141414F4141010F010F000001F18
:10072000101F0000001F14000000FC140000F01057
:10073000F01010FF10FF141414FF141010101F00FD
:10074000000000F010FFFFFFFFFFF0F0F0F0F0FFFF
:10075000FFFF0000000000FFFF0F0F0F0F0F3844D6
:10076000443844FC4A4A4A347E02020606027E02AB
:100770007E0263554941633844443C04407E201E58
:100780002006027E020299A5E7A5991C2A492A1C87
:100790004C7201724C304A4D4D303048784830BC74
:1007A000625A463D3E494949007E0101017E2A2A9E
:1007B0002A2A2A44445F444440514A444040444A1F
:1007C00051400000FF0103E080FF000008086B6B50
:1007D000083612362436060F090F060000181800D6
:1007E00000001010003040FF0101001F01011E0039
:1007F000191D1712003C3C3C3C0000000000891F02
:100800001932BF1F11241FBECFEFD1E2DEBFCDBF13
:1008100000E00CBF13E0A0E0B2E0E4E9FBE800E098
:100820000BBF02C007900D92A837B107D9F729E195
:10083000A8E7B3E001C01D92A63FB207E1F713E0BD
:10084000C1E0D4E000E006C021970109802FFE013D
:100850000E947F45CF3FD10780E00807A9F70E949B
:10086000C7290C9466430C94000066E372E08CE7A1
:1008700093E00E94882E6DE372E083E893E00E948B
:10088000882E66E472E08AE893E00C94882EDF926A
:10089000EF92FF920F931F93CF93DF937C018B0115
:1008A000442309F44BC044E650E060E070E08EE081
:1008B00097E10E94F43963E08EE097E10E94FA39F3
:1008C0000E151F0509F481C0C0E0D0E087E0D82EE6
:1008D000CE15DF0571F44FEF5FEF60E070E08EE062
:1008E00097E10E94003ADC9EB001DD9E700D11245C
:1008F00011C040E050E06FEF7FEF8EE097E1C0174E
:10090000D10779F40E94003ADC9EC001DD9E900D73
:100910001124BC0164587C4F8EE097E10E94FB2CAF
:1009200008C00E94003A60E173E08EE097E10E9407
:100930000D2D2196C330D10559F647C048E250E04D
:1009400062E070E08EE097E10E94F43962E08EE0B0
:1009500097E10E94FA3940E050E06FEF7FEF8EE0C0
:1009600097E10E94003A6DE472E08EE097E10E9408
:100970000D2D44E650E060E070E08EE097E10E94CB
:10098000F43963E08EE097E10E94FA390CE713E056
:10099000C0E0D0E0CE15DF0529F44FEF5FEF60E057
:1009A00070E004C040E050E06FEF7FEF8EE097E131
:1009B0000E94003AB8018EE097E10E94FB2C21963C
:1009C000095F1F4FC330D10529F7DF91CF911F91E8
:1009D0000F91FF90EF90DF9008950097B9F487E0B2
:1009E00090E09093E0168093DF1681E090E0909382
:1009F000DE168093DD1682E090E09093DC16809303
:100A0000DB1682E090E0A0E0B0E02FC081309105DD
:100A1000A9F485E090E09093E0168093DF1682E0E1
:100A200090E09093DE168093DD169093DC16809311
:100A3000DB1685E090E0A0E0B0E017C082309105C1
:100A4000E9F423E030E03093E0162093DF16909332
:100A5000DE168093DD1685E090E09093DC1680939F
:100A6000DB168AE090E0A0E0B0E08093E716909378
:100A7000E816A093E916B093EA16089561E672E0CD
:100A800080EB97E10C940D2D841B950B06960D972A
:100A9000B0F4621B730B6A5F7F4F6D30710578F4A1
:100AA0008091DF169091E01601979093E016809365
:100AB000DF1668EC70E080E090E00C94D82A08958E
:100AC000CF93DF93CDB7DEB727970FB6F894DEBF8D
:100AD0000FBECDBF6091DF167091E0164AE0CE01E7
:100AE00001960E949F2E40E050E060E070E08EE0B2
:100AF00097E10E94F43961E08EE097E10E94FA39B3
:100B000067E772E08EE097E10E94DE2C6091DF16CD
:100B10007091E0164AE050E08EE097E10E94BF2D10
:100B2000CE0101960E94E32D27960FB6F894DEBF02
:100B30000FBECDBFDF91CF910895EF92FF920F933B
:100B40001F93CF93DF93EC017B01BA01A90100E071
:100B500010E027E030E08EE097E10E94C13600EE21
:100B60001FEF27E030E0A701BE018EE097E10E9471
:100B7000C136DF91CF911F910F91FF90EF900895B3
:100B8000EF92FF920F931F93CF93DF93EC017B01C2
:100B9000BA01A90100E010E027E030E08EE097E123
:100BA0000E94C13600E018EF27E030E0A701BE0147
:100BB0008EE097E10E94C136DF91CF911F910F9196
:100BC000FF90EF900895EF92FF920F931F93CF93B2
:100BD000DF93EC017B01BA01A90100E010E027E0FE
:100BE00030E08EE097E10E94C1360FE118EF27E078
:100BF00030E0A701BE018EE097E10E94C136DF918F
:100C0000CF911F910F91FF90EF900895EF92FF9277
:100C10000F931F93CF93DF93EC017B01BA01A901DE
:100C200000E010E027E030E08EE097E10E94C1365E
:100C30000FEF17E027E030E0A701BE018EE097E15B
:100C40000E94C136DF91CF911F910F91FF90EF90DD
:100C50000895EF92FF920F931F93CF93DF93EC01D0
:100C60007B01BA01A90100E010E027E030E08EE04E
:100C700097E10E94C13600E21DEF27E030E0A701B6
:100C8000BE018EE097E10E94C136DF91CF911F91A6
:100C90000F91FF90EF900895EF92FF920F931F93A3
:100CA000CF93DF93EC017B01BA01A90100E010E0D2
:100CB00027E030E08EE097E10E94C1360FEF1FEF92
:100CC00027E030E0A701BE018EE097E10E94C13627
:100CD000DF91CF911F910F91FF90EF900895841BAA
:100CE000950B97FF08C08091DD169091DE169195C7
:100CF0008195910906C0892B41F08091DD16909174
:100D0000DE169093C6168093C516621B730B77FF91
:100D100008C08091DD169091DE169195819591091C
:100D200006C0672B41F08091DD169091DE169093FE
:100D3000C4168093C3162091D9163091DA1680918B
:100D4000C5169091C616820F931F9093DA16809362
:100D5000D9162091D7163091D8168091C31690914C
:100D6000C416820F931F9093D8168093D7160895B8
:100D7000841B950B97FF08C08091DD169091DE16BD
:100D800091958195910906C0892B41F08091DD16DE
:100D90009091DE169093C2168093C116621B730B5E
:100DA00077FF08C08091DD169091DE1691958195B0
:100DB000910906C0672B41F08091DD169091DE16F7
:100DC0009093C0168093BF162091D5163091D616F9
:100DD0008091C1169091C216820F931F9093D616E0
:100DE0008093D5162091D3163091D4168091BF16DA
:100DF0009091C016820F931F9093D4168093D316B0
:100E00000895841B950B97FF08C08091DD16909183
:100E1000DE1691958195910906C0892B41F080914C
:100E2000DD169091DE169093BE168093BD16621B60
:100E3000730B77FF08C08091DD169091DE169195B7
:100E40008195910906C0672B41F08091DD16909144
:100E5000DE169093BC168093BB162091D11630916C
:100E6000D2168091BD169091BE16820F931F90935B
:100E7000D2168093D1162091CF163091D016809142
:100E8000BB169091BC16820F931F9093D01680933F
:100E9000CF160895841B950B97FF08C08091DD162F
:100EA0009091DE1691958195910906C0892B41F0AC
:100EB0008091DD169091DE169093BA168093B91644
:100EC000621B730B77FF08C08091DD169091DE16D0
:100ED00091958195910906C0672B41F08091DD16AF
:100EE0009091DE169093B8168093B7162091CD1688
:100EF0003091CE168091B9169091BA16820F931F39
:100F00009093CE168093CD162091CB163091CC16AF
:100F10008091B7169091B816820F931F9093CC16BC
:100F20008093CB1608952091C9163091CA168091EE
:100F3000DB169091DC16820F931F813F91052CF4F4
:100F40009093CA168093C91608951092CA161092EB
:100F5000C91608952F923F924F925F926F927F929F
:100F60008F929F92AF92BF92CF92DF92EF92FF92B9
:100F70000F931F93CF93DF9300D01F92CDB7DEB7AF
:100F80008091D9169091DA169C838B830091D716A5
:100F90001091D816A090D516B090D6168090D31682
:100FA0009090D416E090D116F090D216C090CF1643
:100FB000D090D0164090CD165090CE166090CB16A3
:100FC0007090CC16E091C916F091CA16FA83E983A5
:100FD0002090C7163090C8166091F3167091F416E1
:100FE0009801AC018091F5169091F6160E946F065B
:100FF0006091D7167091D81698014B815C818091D1
:10100000D9169091DA160E94C0052091D71630911A
:10101000D8164091D9165091DA166091F316709156
:10102000F4168091F5169091F6160E9444052091D1
:10103000D3163091D4164091D5165091D6166091A2
:10104000F3167091F4168091F5169091F6160E94A1
:10105000B8066091D3167091D4169401A5018091C1
:10106000D5169091D6160E94E3052091D3163091A3
:10107000D4164091D5165091D6166091F316709102
:10108000F4168091F5169091F6160E944405209171
:10109000CF163091D0164091D1165091D216609152
:1010A000F3167091F4168091F5169091F6160E9441
:1010B00001076091CF167091D0169601A70180911B
:1010C000D1169091D2160E9406062091CF1630912B
:1010D000D0164091D1165091D2166091F3167091AE
:1010E000F4168091F5169091F6160E944405209111
:1010F000CB163091CC164091CD165091CE16609102
:10110000F3167091F4168091F5169091F6160E94E0
:101110004A076091CB167091CC169301A201809181
:10112000CD169091CE160E9429062091CB163091B3
:10113000CC164091CD165091CE166091F316709159
:10114000F4168091F5169091F6160E9444050E94BF
:1011500093076091C7167091C816910149815A8111
:101160008091C9169091CA160E944C062091C7160C
:101170003091C8164091C9165091CA166091F31665
:101180007091F4168091F5169091F6160E94440520
:101190006091D5167091D6168091D9169091DA1675
:1011A000861B970B06960D9708F54091D316509124
:1011B000D4168091D7169091D816841B950B06965D
:1011C0000D97A0F400E010E027E030E08EE097E11A
:1011D0000E94C13684E190E09093D6168093D51694
:1011E0008EE190E09093D4168093D3166091D1163F
:1011F0007091D2168091D9169091DA16861B970BB2
:1012000006960D9708F54091CF165091D016809113
:10121000D7169091D816841B950B06960D97A0F4BF
:1012200000E010E027E030E08EE097E10E94C13658
:101230008CED90E09093D2168093D1168EE190E0E1
:101240009093D0168093CF166091CD167091CE16E4
:101250008091D9169091DA16861B970B06960D97FA
:1012600008F54091CB165091CC168091D7169091ED
:10127000D816841B950B06960D97A0F400E010E09D
:1012800027E030E08EE097E10E94C13684E190E0F3
:101290009093CE168093CD168CE291E09093CC166D
:1012A0008093CB166091D1167091D2168091D5168D
:1012B0009091D616861B970B06960D9708F54091D0
:1012C000CF165091D0168091D3169091D416841BCE
:1012D000950B06960D97A0F400E010E027E030E0B3
:1012E0008EE097E10E94C1368CED90E09093D2168B
:1012F0008093D1168EE190E09093D0168093CF1614
:101300006091CD167091CE168091D5169091D6161B
:10131000861B970B06960D9708F54091CB165091BA
:10132000CC168091D3169091D416841B950B0696FB
:101330000D97A0F400E010E027E030E08EE097E1A8
:101340000E94C13684E190E09093CE168093CD1632
:101350008CE291E09093CC168093CB166091CD16E1
:101360007091CE168091D1169091D216861B970B54
:1013700006960D9708F54091CB165091CC168091AA
:10138000CF169091D016841B950B06960D97A0F45E
:1013900000E010E027E030E08EE097E10E94C136E7
:1013A00084E190E09093CE168093CD168CE291E08C
:1013B0009093CC168093CB160F900F900F900F90B8
:1013C000DF91CF911F910F91FF90EF90DF90CF9021
:1013D000BF90AF909F908F907F906F905F904F9055
:1013E0003F902F9008950F931F93CF93DF9386E341
:1013F0000E94602B8C0187E30E94602BEC0182E04D
:101400000E94432C4091F5165091F6162091F31648
:101410003091F416CE01885C91408336910550F4EA
:10142000073362E0160734F4043D81E018074CF0FE
:101430000C947D1D0833A2E01A071CF085E090E0B3
:1014400006C0033DE1E01E073CF48BEF9FEF909355
:10145000F0168093EF1604C01092F0161092EF165B
:10146000CC3262E0D6071CF085E090E006C0C73CB5
:1014700081E0D8073CF48BEF9FEF9093F2168093B6
:10148000F11604C01092F2161092F116CA01CD970F
:1014900087379105B0F4203F310599F43093F41665
:1014A0002093F3161092F0161092EF16942F852FBA
:1014B000453B510514F094EB80E09093F516809332
:1014C000F6168091F5169091F616FC0175976091CD
:1014D000F3167091F416B79788F46E30A1E07A078E
:1014E00069F41092F0161092EF168D33910514F0F6
:1014F0008CE390E09093F6168093F5168091F516A4
:101500009091F616FC01E55BF109B79790F46E3007
:10151000E1E07E0771F41092F0161092EF168F3012
:10152000A1E09A0714F08EE091E09093F616809374
:10153000F5168091F5169091F616FC01EB55F10920
:10154000739788F46E30E1E07E0769F41092F0162C
:101550001092EF168F36910514F08EE690E090937E
:10156000F6168093F5168091F5169091F616FC010B
:10157000E358F109739788F46E30A1E07A0769F4B3
:101580001092F0161092EF168739910514F086E943
:1015900090E09093F6168093F5168091F516909151
:1015A000F616FC017597E731F14090F46C32E1E0FA
:1015B0007E0771F41092F0161092EF168D32A1E0B2
:1015C0009A0714F08CE291E09093F6168093F5164A
:1015D000603F710561F58091F5169091F616FC015A
:1015E0007597739770F41092F0161092EF1670932F
:1015F000F4166093F31689329105ACF088E290E01E
:1016000012C0FC01E95CF109B79788F41092F0165A
:101610001092EF167093F4166093F316813F9105C4
:1016200014F080EF90E09093F6168093F516E09119
:10163000F316F091F4168091F5169091F616E23DAE
:10164000F10509F5BC01655171096935710550F461
:101650001092F0161092EF168F36910534F18EE647
:1016600090E023C0BC01635871096935710508F029
:101670004EC01092F0161092EF168D3D9105ACF011
:101680008CED90E012C0EA3BF105A1F4BC016B5572
:1016900071096B337105D8F51092F0161092EF16A0
:1016A0008739910514F086E990E09093F6168093BF
:1016B000F5162DC0E03AF10551F5BC0161507109F4
:1016C0006935710570F41092F0161092EF168B3593
:1016D000910514F08AE590E09093F6168093F51644
:1016E00075C0BC01675971096935710508F06EC094
:1016F0001092F0161092EF16BC01813F910514F084
:1017000060EF70E07093F6166093F5165FC08091FD
:10171000F5169091F616E238F105A9F4BC016B5567
:1017200071096B33710508F05FC01092F0161092CA
:10173000EF168739910514F086E990E09093F6163C
:101740008093F51651C0EE36F10509F03FC0BC019B
:101750006B5571096331710508F453C0BC016358BE
:1017600071096331710558F41092F0161092EF165A
:10177000873991050CF45EC086E990E05BC0BC013E
:10178000655171096732710558F41092F016109284
:10179000EF168D3391050CF44DC08CE390E04AC0F8
:1017A000BC01655B71096732710508F047C0109292
:1017B000F0161092EF16BC018D3D910514F06CED02
:1017C00070E07093F6166093F51638C0E634F105B4
:1017D00059F48091F5169091F616BC016551710986
:1017E000673C710558F51DC0EE31F10539F5809162
:1017F000F5169091F616BC016551710969357105B0
:1018000050F41092F0161092EF168F36910594F066
:101810008EE690E00FC0BC0163587109693571050F
:1018200068F41092F0161092EF168D3D910514F0A9
:101830008CED90E09093F6168093F5166091F51676
:101840007091F616CF014F978F3E9105F0F46C33EF
:10185000710551F41092F2161092F116CF018F30EB
:10186000E1E09E0774F00BC0643B710571F41092C7
:10187000F2161092F116CF01EF30F14014F08EE025
:1018800091E09093F4168093F3168091F316909163
:10189000F416FC01EF50F1407D97E8F464317105D6
:1018A00049F41092F2161092F1168D32E1E09E0783
:1018B00074F00BC06C3D710571F41092F216109229
:1018C000F1168D32A1E09A0714F08CE291E090932A
:1018D000F4168093F3168091F3169091F416FC01A0
:1018E000E15FF1097D97E8F46A35710549F41092DA
:1018F000F2161092F1168F30E1E09E0774F00BC0E3
:101900006639710571F41092F2161092F1168F304B
:10191000A1E09A0714F08EE091E09093F416809382
:10192000F3168091F3169091F416FC01EF50F140FC
:101930007D97E8F46E36710549F41092F216109214
:10194000F1168D32E1E09E0774F00BC0623871052C
:1019500071F41092F2161092F1168D32A1E09A07EE
:1019600014F08CE291E09093F4168093F31680913A
:10197000F3169091F416FC01E15FF1097D97E8F40C
:101980006832710549F41092F2161092F1168F30F8
:10199000E1E09E0774F00BC0683C710571F4109291
:1019A000F2161092F1168F30A1E09A0714F08EE033
:1019B00091E09093F4168093F3168091F316909132
:1019C000F416FC01E35DF1097D97C8F464317105FB
:1019D00049F06C3D710531F06E36710519F06238D1
:1019E000710569F41092F2161092F116813F91057B
:1019F00014F080EF90E09093F4168093F3168091AA
:101A0000F3169091F416FC01EB5BF1097797B8F4AB
:101A10006A35710519F06639710589F41092F2166C
:101A20001092F1167093F6166093F516833D9105AA
:101A300014F082ED90E09093F4168093F316809169
:101A4000F3169091F416BC01615A71096931710560
:101A500000F56091F5167091F6166A35710529F456
:101A60001092F2161092F1160BC06639710589F4C6
:101A70001092F2161092F1167093F6166093F51606
:101A80008B3B910514F08AEB90E09093F4168093D1
:101A9000F3168091F3169091F416BC016358710906
:101AA0006D31710500F56091F5167091F6166A3585
:101AB000710529F41092F2161092F1160BC06639D6
:101AC000710589F41092F2161092F1167093F616C1
:101AD0006093F516813A910514F080EA90E09093B6
:101AE000F4168093F3168091F3169091F416BC01CE
:101AF0006F5671096331710500F56091F5167091AB
:101B0000F6166E36710529F41092F2161092F1163F
:101B10000BC06238710589F41092F2161092F1161A
:101B20007093F6166093F5168338910514F082E8E9
:101B300090E09093F4168093F3168091F3169091B1
:101B4000F416BC016F5171096F34710530F5609165
:101B5000F5167091F6166431710529F41092F2169B
:101B60001092F11611C06C33710531F0643B7105B0
:101B700019F06C3D710589F41092F2161092F1166D
:101B80007093F6166093F5168F36910514F08EE675
:101B900090E09093F4168093F3168091F316909151
:101BA000F416BC016F5171096732710500F560913F
:101BB000F5167091F6166E36710529F41092F2162C
:101BC0001092F1160BC06238710589F41092F2166A
:101BD0001092F1167093F6166093F51687349105FE
:101BE00014F086E490E09093F4168093F3168091BD
:101BF000F3169091F416BC016754710967327105B0
:101C000000F56091F5167091F6166A35710529F4A4
:101C10001092F2161092F1160BC06639710589F414
:101C20001092F2161092F1167093F6166093F51654
:101C30008F36910514F08EE690E09093F416809321
:101C4000F3166091F5167091F6168091F316909147
:101C5000F4166C33710549F5803F910531F5CC32AE
:101C6000E2E0DE0754F065E070E07093F2166093F6
:101C7000F1161092F0161092EF16B801635D7140E4
:101C80006536710550F06CE370E07093F616609362
:101C9000F5161092F2161092F116C73C61E0D607C5
:101CA00024F41092F2161092F1166091F5167091CC
:101CB000F616643B710549F5803F910531F5CC324C
:101CC000A2E0DA0724F01092F2161092F116B80191
:101CD000635D71406536710550F064EB70E07093A0
:101CE000F6166093F5161092F2161092F116C73C94
:101CF000E1E0DE0754F46BEF7FEF7093F216609330
:101D0000F1161092F0161092EF166091F516709180
:101D1000F6166C337105E1F48E30914009F008C17C
:101D2000CC3282E0D80724F01092F2161092F1160D
:101D30000833A2E01A0724F01092F0161092EF1662
:101D4000C73CE1E0DE070CF0F3C08EE091E0B2C0EA
:101D5000643B710531F58E30914009F0BDC0CC3245
:101D6000E2E0DE0754F085E090E09093F216809375
:101D7000F1161092F0161092EF16083382E0180751
:101D800024F01092F0161092EF16C73CA1E0DA078B
:101D90000CF0A2C08EE091E09093F4168093F316BD
:101DA0005BC06431710509F05CC08E30914079F5FB
:101DB000CC3282E0D80754F085E090E09093F216A0
:101DC0008093F1161092F0161092EF160833A2E0ED
:101DD0001A073CF085E090E09093F0168093EF16A0
:101DE00008C0033DE1E01E0724F41092F0161092A3
:101DF000EF16C73C81E0D80754F48EE091E0909351
:101E0000F4168093F3161092F2161092F116809148
:101E1000F3169091F4168C32914009F05DC0CC32EB
:101E2000E2E0DE0754F085E090E09093F2168093B4
:101E3000F1161092F0161092EF16083382E0180790
:101E400014F40C940B1B1092F0161092EF16C73C72
:101E5000E1E0DE070CF040C01092F2161092F1168D
:101E60003BC06C3D7105A9F58E30914011F40C9486
:101E70001A1D8091F3169091F4168C32914009F05E
:101E800057C0CC3262E0D60724F01092F2161092BE
:101E9000F116083382E0180714F40C944D1D1092CB
:101EA000F0161092EF16C73C61E0D6070CF040C068
:101EB0008CE291E09093F4168093F3168BEF9FEFF2
:101EC0009093F2168093F1161092F0161092EF167E
:101ED0002FC06A35710539F16639710549F5809170
:101EE000F3169091F416803F910511F5CC3282E003
:101EF000D8073CF01092F0161092EF1685E090E0B3
:101F00000CC0C73CA1E0DA0714F00C94191B109226
:101F1000F0161092EF168BEF9FEF9093F2168093CE
:101F2000F1160C94191B803F910511F40C945B1D64
:101F30008091F5169091F6166091F3167091F41653
:101F40008A359105C9F56E30E1E07E0709F094C04D
:101F5000CC3282E0D8075CF01092F0161092EF16A7
:101F600085E090E09093F2168093F1160CC0C73C88
:101F7000A1E0DA0744F41092F0161092EF161092D6
:101F8000F2161092F1160833E2E01E072CF01092C0
:101F9000F0161092EF160BC0033D81E018070CF00D
:101FA0006BC08BEF9FEF9093F0168093EF1610921B
:101FB000F2161092F11660C08639910549F56E301F
:101FC000A1E07A0709F058C0C73CE1E0DE075CF405
:101FD0001092F0161092EF168BEF9FEF9093F2167F
:101FE0008093F1160CC0CC3282E0D80744F01092F6
:101FF000F0161092EF161092F2161092F1160833A6
:10200000A2E01A0724F6033DE1E01E0754F234C0B3
:102010008E36910589F56E3081E0780769F5C73C09
:10202000A1E0DA073CF48BEF9FEF9093F2168093D8
:10203000F11608C0CC32E2E0DE0744F01092F2164E
:102040001092F1161092F0161092EF160833E2E09B
:102050001E0714F40C94311B8EE690E09093F61654
:102060008093F5161092F2161092F11685E090E02A
:102070009093F0168093EF168091F5169091F616D6
:102080008238910589F56E30A1E07A0769F5CC3286
:10209000E2E0DE073CF085E090E09093F21680935A
:1020A000F11608C0C73C81E0D80744F41092F2163C
:1020B0001092F1161092F0161092EF16083382E08B
:1020C000180714F40C943D1B82E890E09093F616E8
:1020D0008093F5161092F2161092F11685E090E0BA
:1020E0009093F0168093EF168091F5169091F61666
:1020F0008E36910579F56C32E1E07E0759F5CC32E8
:1021000082E0D8071CF085E090E006C0C73CA1E063
:10211000DA0754F48BEF9FEF9093F2168093F11649
:102120001092F0161092EF16033DA1E01A0714F07A
:102130000C94491B8EE690E09093F6168093F5166A
:102140001092F2161092F1168BEF9FEF9093F0160B
:102150008093EF168091F5169091F61682389105CE
:1021600079F56C3281E0780759F5CC32A2E0DA07D4
:102170001CF085E090E006C0C73CE1E0DE0754F4C7
:102180008BEF9FEF9093F2168093F1161092F0165A
:102190001092EF16033DE1E01E0714F00C94551B5E
:1021A00082E890E09093F6168093F5161092F2165E
:1021B0001092F1168BEF9FEF9093F0168093EF162D
:1021C0008091F5169091F616889779F56E30A1E01A
:1021D0007A0759F5CC32E2E0DE071CF085E090E0AA
:1021E00006C0C73C81E0D80754F48BEF9FEF909373
:1021F000F2168093F1161092F0161092EF16033D2E
:1022000081E0180714F00C94611B88E290E0909331
:10221000F6168093F5161092F2161092F1168BEFC7
:102220009FEF9093F0168093EF168091F5169091A2
:10223000F616883C910579F56E30E1E07E0759F598
:10224000CC3282E0D8071CF085E090E006C0C73CA5
:10225000A1E0DA0754F48BEF9FEF9093F21680938E
:10226000F1161092F0161092EF16033DA1E01A0736
:1022700014F00C946D1B88EC90E09093F61680930C
:10228000F5161092F2161092F1168BEF9FEF9093C5
:10229000F0168093EF168091F5169091F6168897B8
:1022A000B9F5603F7105A1F5CC3282E0D8072CF07A
:1022B0001092F2161092F1160AC0C73CA1E0DA079C
:1022C00054F48BEF9FEF9093F2168093F1161092D7
:1022D000F0161092EF16033DE1E01E072CF4109269
:1022E000F0161092EF1614C0083382E0180784F03D
:1022F00088E290E09093F6168093F5161092F2160D
:102300001092F11685E090E09093F0168093EF160E
:102310008091F5169091F616883C9105B9F5603FCD
:102320007105A1F5CC32A2E0DA073CF085E090E03F
:102330009093F2168093F11608C0C73CE1E0DE07E7
:1023400044F41092F2161092F1161092F0161092B8
:10235000EF16033D81E018072CF41092F01610924E
:10236000EF1614C00833A2E01A0784F088EC90E05E
:102370009093F6168093F5161092F2161092F116BD
:1023800085E090E09093F0168093EF168091F5161B
:102390009091F616449781F5603F710569F5CC324E
:1023A000E2E0DE073CF085E090E09093F216809347
:1023B000F11608C0C73C81E0D80744F41092F21629
:1023C0001092F1161092F0161092EF16033DE1E014
:1023D0001E0714F00C94791B84E190E09093F6169C
:1023E0008093F5168BEF9FEF9093F0168093EF1686
:1023F0001092F2161092F1168091F5169091F61641
:102400008C3D910581F5603F710569F5C73CE1E0C0
:10241000DE073CF48BEF9FEF9093F2168093F1165A
:1024200008C0CC3282E0D80744F01092F216109225
:10243000F1161092F0161092EF16033D81E0180786
:1024400014F00C94851B8CED90E09093F61680931D
:10245000F5168BEF9FEF9093F0168093EF16109286
:10246000F2161092F1168091F5169091F616449797
:1024700081F5623D710569F5CC32E2E0DE073CF0A2
:1024800085E090E09093F2168093F11608C0C73C67
:1024900081E0D80744F41092F2161092F1161092CF
:1024A000F0161092EF160833A2E01A0714F40C94F9
:1024B000911B84E190E09093F6168093F51685E0E9
:1024C00090E09093F0168093EF161092F21610920F
:1024D000F1168091F5169091F6168C3D910581F5D7
:1024E000623D710569F5C73CE1E0DE073CF48BEF26
:1024F0009FEF9093F2168093F11608C0CC3282E0E1
:10250000D80744F01092F2161092F1161092F016BD
:102510001092EF160833E2E01E0714F40C949D1B92
:102520008CED90E09093F6168093F51685E090E0A0
:102530009093F0168093EF161092F2161092F11607
:102540008091F5169091F6168E36910571F5603FE3
:10255000710559F5C73CE1E0DE071CF48BEF9FEFF6
:1025600006C0CC3282E0D80754F085E090E090932A
:10257000F2168093F1161092F0161092EF16033DAA
:1025800081E0180714F00C94A91B8EE690E090935C
:10259000F6168093F5168BEF9FEF9093F0168093CD
:1025A000EF161092F2161092F1168091F516909196
:1025B000F6168238910571F5603F710559F5C73CF3
:1025C000E1E0DE071CF48BEF9FEF06C0CC3282E027
:1025D000D80754F085E090E09093F2168093F116BE
:1025E0001092F0161092EF16033DA1E01A0714F0B6
:1025F0000C94B51B82E890E09093F6168093F51644
:102600008BEF9FEF9093F0168093EF161092F216D7
:102610001092F1168091F5169091F6168E3691056E
:1026200081F5623D710569F5C73CE1E0DE073CF4E8
:102630008BEF9FEF9093F2168093F11608C0CC3287
:1026400082E0D80744F01092F2161092F116109220
:10265000F0161092EF160833E2E01E0714F40C9403
:10266000C11B8EE690E09093F6168093F51685E0F8
:1026700090E09093F0168093EF161092F21610925D
:10268000F1168091F5169091F6168238910581F534
:10269000623D710569F5CC32E2E0DE073CF085E091
:1026A00090E09093F2168093F11608C0C73C81E049
:1026B000D80744F41092F2161092F1161092F01608
:1026C0001092EF16083382E0180714F40C94CD1B17
:1026D00082E890E09093F6168093F51685E090E0FE
:1026E0009093F0168093EF161092F2161092F11656
:1026F0008091F5169091F616CC9709F040C0615D77
:10270000710963307105D8F5CC32E2E0DE074CF098
:1027100082ED90E09093F4168093F31685E090E0BC
:102720000CC0C73C61E0D60784F482ED90E0909342
:10273000F4168093F3168BEF9FEF9093F21680932D
:10274000F1161092F0161092EF160833A2E01A0755
:1027500014F00C94D91B033D81E0180784F48BEF2F
:102760009FEF9093F0168093EF161092F21610924E
:10277000F1168CE390E09093F6168093F516609135
:10278000F5167091F6168091F3169091F416643B4D
:10279000710589F5823D910571F5CC32A2E0DA0729
:1027A0001CF065E070E006C0C73CE1E0DE0754F4D1
:1027B0006BEF7FEF7093F2166093F1161092F016A4
:1027C0001092EF160833E2E01E070CF0F6C7033D47
:1027D00061E0160784F46BEF7FEF7093F01660935F
:1027E000EF161092F2161092F11664EB70E07093EF
:1027F000F6166093F5166091F5167091F6166A3527
:102800007105C9F5823D9105B1F5CC32A2E0DA0738
:102810001CF065E070E006C0C73CE1E0DE0754F460
:102820006BEF7FEF7093F2166093F1161092F01633
:102830001092EF16083362E016074CF01092F01673
:102840001092EF161092F2161092F11614C0033D7A
:10285000A1E01A0784F46AE570E07093F6166093BD
:10286000F5161092F2161092F1166BEF7FEF70933F
:10287000F0166093EF166091F5167091F6166639B2
:102880007105A9F5823D910591F5CC32E2E0DE07B4
:102890001CF065E070E006C0C73C61E0D60754F468
:1028A0006BEF7FEF7093F2166093F1161092F016B3
:1028B0001092EF160833A2E01A072CF01092F216CD
:1028C0001092F11614C0033DE1E01E0784F466E99E
:1028D00070E07093F6166093F5161092F21610924F
:1028E000F1166BEF7FEF7093F0166093EF16609127
:1028F000F5167091F6166A35710551F58A3B91050A
:1029000039F5CC3262E0D6075CF065E070E0709398
:10291000F2166093F1161092F0161092EF1608C09E
:10292000C73CA1E0DA0724F41092F2161092F116D7
:10293000B801635D71406536710550F06AE570E07D
:102940007093F6166093F5161092F2161092F11627
:102950006091F5167091F6166639710551F58A3B4E
:10296000910539F5C73CE1E0DE075CF46BEF7FEFE2
:102970007093F2166093F1161092F0161092EF1603
:1029800008C0CC3262E0D60724F01092F216109202
:10299000F116B801635D71406536710550F066E966
:1029A00070E07093F6166093F5161092F21610927E
:1029B000F1166091F5167091F6166A35710551F5AC
:1029C000803A910539F5C73CA1E0DA075CF46BEF7A
:1029D0007FEF7093F2166093F1161092F01610923A
:1029E000EF1608C0CC32E2E0DE0724F01092F216B7
:1029F0001092F116B801635D71406536710550F0B3
:102A00006AE570E07093F6166093F5161092F21670
:102A10001092F1166091F5167091F61666397105EF
:102A200051F5803A910539F5CC3262E0D6075CF079
:102A300065E070E07093F2166093F1161092F01654
:102A40001092EF1608C0C73CA1E0DA0724F41092F8
:102A5000F2161092F116B801635D7140653671058A
:102A600050F066E970E07093F6166093F5161092D8
:102A7000F2161092F1166091F5167091F6166C33FD
:102A8000710569F5803A910551F5CC32E2E0DE0737
:102A90001CF065E070E006C0C73C61E0D60754F466
:102AA0006BEF7FEF7093F2166093F1161092F016B1
:102AB0001092EF16083362E016070CF481C66CE33F
:102AC00070E07093F6166093F51665E070E0709311
:102AD000F0166093EF161092F2161092F1166091B4
:102AE000F5167091F616643B710569F5803A91050B
:102AF00051F5CC32E2E0DE071CF065E070E006C084
:102B0000C73C61E0D60754F46BEF7FEF7093F21689
:102B10006093F1161092F0161092EF160833A2E0AF
:102B20001A070CF463C664EB70E07093F6166093BA
:102B3000F51665E070E07093F0166093EF16109252
:102B4000F2161092F1166091F5167091F616672B39
:102B5000C9F5803A9105B1F5CC32E2E0DE073CF0F0
:102B600065E070E07093F2166093F1160EC0C73CFA
:102B700061E0D60774F41092F2161092F11660EF2D
:102B800070E07093F6166093F5161092F01610929E
:102B9000EF160833A2E01A074CF01092F0161092CC
:102BA000EF161092F2161092F1160CC0033DE1E000
:102BB0001E0744F41092F2161092F1161092F016BD
:102BC0001092EF166091F5167091F616603F710540
:102BD000B9F5803A9105A1F5CC3262E0D6074CF008
:102BE0001092F6161092F5161092F2161092F11637
:102BF0000AC0C73CA1E0DA0754F46BEF7FEF709393
:102C0000F2166093F1161092F0161092EF16083338
:102C1000E2E01E074CF01092F0161092EF161092A0
:102C2000F2161092F1160CC0033D61E0160744F451
:102C30001092F2161092F1161092F0161092EF16F2
:102C40006091F5167091F6166A35710579F582383E
:102C5000910561F5CC32A2E0DA0754F065E070E04E
:102C60007093F2166093F1161092F0161092EF1610
:102C70000833E2E01E0754F06AE570E07093F61640
:102C80006093F5161092F2161092F116C73CE1E02F
:102C9000DE0724F41092F2161092F116033D61E063
:102CA000160724F41092F0161092EF166091F516A4
:102CB0007091F6166639710579F58238910561F5DE
:102CC000C73CA1E0DA0754F46BEF7FEF7093F21684
:102CD0006093F1161092F0161092EF16083362E02E
:102CE000160754F066E970E07093F6166093F516D7
:102CF0001092F2161092F116CC32E2E0DE0724F0C8
:102D00001092F2161092F116033D61E0160724F4BA
:102D10001092F0161092EF166091F5167091F6165B
:102D20006E36710511F582389105F9F4BE01675CC4
:102D300071406536710520F01092F0161092EF1672
:102D4000033DA1E01A070CF067C56EE670E07093D2
:102D5000F6166093F5166BEF7FEF7093F0166093A5
:102D6000EF161092F2161092F1166091F51670910E
:102D7000F6166238710511F582389105F9F4BE0135
:102D8000675C71406536710520F01092F016109264
:102D9000EF16033DE1E01E070CF048C562E870E065
:102DA0007093F6166093F5166BEF7FEF7093F01645
:102DB0006093EF161092F2161092F1166091F516CC
:102DC0007091F6166E36710549F58E36910531F51E
:102DD000C73C61E0D6072CF41092F0161092EF1663
:102DE00008C0CC32A2E0DA0724F01092F21610925A
:102DF000F116083362E016070CF422C56EE670E0A7
:102E00007093F6166093F51665E070E07093F01617
:102E10006093EF161092F2161092F1166091F5166B
:102E20007091F6166238710549F58E36910531F5C7
:102E3000CC3262E0D6072CF01092F0161092EF160A
:102E400008C0C73CA1E0DA0724F41092F2161092F1
:102E5000F1160833A2E01A070CF4FCC462E870E033
:102E60007093F6166093F51665E070E07093F016B7
:102E70006093EF161092F2161092F1166091F5160B
:102E80007091F6166A35710549F58E36910531F562
:102E9000CC3262E0D6072CF01092F0161092EF16AA
:102EA00008C0C73CA1E0DA0724F41092F216109291
:102EB000F116033DE1E01E070CF0D6C46AE570E0B0
:102EC0007093F6166093F5166BEF7FEF7093F01624
:102ED0006093EF161092F2161092F1166091F516AB
:102EE0007091F6166639710549F58E36910531F502
:102EF000C73C61E0D6072CF41092F0161092EF1642
:102F000008C0CC32A2E0DA0724F01092F216109238
:102F1000F116033D61E016070CF0B0C466E970E0FD
:102F20007093F6166093F5166BEF7FEF7093F016C3
:102F30006093EF161092F2161092F1166091F5164A
:102F40007091F6166431710549F58E36910531F5AB
:102F5000CC3262E0D6072CF01092F0161092EF16E9
:102F600008C0C73CA1E0DA0724F41092F2161092D0
:102F7000F116033DA1E01A070CF08AC464E170E089
:102F80007093F6166093F5166BEF7FEF7093F01663
:102F90006093EF161092F2161092F1166091F516EA
:102FA0007091F6166C3D710549F58E36910531F537
:102FB000C73C61E0D6072CF41092F0161092EF1681
:102FC00008C0CC32A2E0DA0724F01092F216109278
:102FD000F116033DE1E01E070CF064C46CED70E0F7
:102FE0007093F6166093F5166BEF7FEF7093F01603
:102FF0006093EF161092F2161092F1166091F5168A
:103000007091F6166C33710551F58E36910539F5D0
:10301000C73C61E0D6075CF46BEF7FEF7093F2166C
:103020006093F1161092F0161092EF1608C0CC3291
:10303000A2E0DA0724F01092F2161092F116B8010D
:10304000635D71406536710550F06CE370E070931C
:10305000F6166093F5161092F2161092F116609122
:10306000F5167091F616643B710551F58E36910593
:1030700039F5CC32E2E0DE075CF065E070E0709399
:10308000F2166093F1161092F0161092EF1608C027
:10309000C73C61E0D60724F41092F2161092F116A4
:1030A000B801635D71406536710550F064EB70E006
:1030B0007093F6166093F5161092F2161092F116B0
:1030C0006091F5167091F6166431710551F58634EC
:1030D000910539F5CC32A2E0DA075CF065E070E0EA
:1030E0007093F2166093F1161092F0161092EF168C
:1030F00008C0C73CE1E0DE0724F41092F2161092FB
:10310000F116B801635D71406536710550F064E1F8
:1031100070E07093F6166093F5161092F216109206
:10312000F1166091F5167091F6166C3D710551F52A
:103130008634910539F5C73C61E0D6075CF46BEF46
:103140007FEF7093F2166093F1161092F0161092C2
:10315000EF1608C0CC32A2E0DA0724F01092F21683
:103160001092F116B801635D71406536710550F03B
:103170006CED70E07093F6166093F5161092F216EF
:103180001092F1166091F5167091F6166C33710578
:1031900021F06A357105D1F41DC086349105B1F472
:1031A0000833E2E01E071CF0E5E0F0E006C0033D56
:1031B000A1E01A0754F5EBEFFFEFF093F016E09360
:1031C000EF161092F2161092F1161FC06E367105AE
:1031D00089F534C08634910569F5083382E0180713
:1031E0005CF085E090E09093F0168093EF161092DB
:1031F000F2161092F1163DC0033DA1E01A07CCF57E
:103200001092F0161092EF1634C0CC32A2E0DA071A
:103210000CF452C386E490E09093F4168093F31676
:1032200085E090E09093F2168093F1161092F016DC
:103230001092EF166238710589F534C08634910515
:1032400069F5033D81E018075CF48BEF9FEF9093E5
:10325000F0168093EF161092F2161092F11641C0FC
:103260000833A2E01A07ECF11092F0161092EF1654
:1032700038C0CC32E2E0DE070CF42CC386E490E0E8
:103280009093F4168093F31685E090E09093F216F5
:103290008093F1161092F0161092EF1666397105B0
:1032A000A9F538C08091F3169091F41686349105F3
:1032B00069F5033D81E018075CF48BEF9FEF909375
:1032C000F0168093EF161092F2161092F11642C08B
:1032D0000833A2E01A07F4F11092F0161092EF16DC
:1032E00039C0CC3282E0D8070CF402C386E490E007
:1032F0009093F4168093F31685E090E09093F21685
:103300008093F1161092F0161092EF16643B71053F
:10331000B1F53AC08091F3169091F4168634910578
:1033200071F5083382E018075CF085E090E0909337
:10333000F0168093EF161092F2161092F116F4C266
:10334000033DA1E01A070CF0EFC21092F0161092A4
:10335000EF16EAC2CC32A2E0DA070CF4D7C286E458
:1033600090E09093F4168093F31685E090E09093AC
:10337000F2168093F1161092F0161092EF16643147
:10338000710509F041C01DC08091F3169091F416AB
:1033900086349105C9F5083362E016071CF085E014
:1033A00090E006C0033D81E0180724F58BEF9FEF06
:1033B0009093F0168093EF161092F2161092F11679
:1033C00019C08091F3169091F4164E97E9F4CC321F
:1033D000E2E0DE072CF01092F0161092EF16CDC24C
:1033E000C73C61E0D6070CF0C8C21092F2161092EA
:1033F000F116C3C2CC3262E0D6070CF09EC2C73CC5
:10340000A1E0DA070CF4A2C28091F5169091F616AD
:103410006091F3167091F4168C33910521F0843B82
:10342000910529F528C06E31710509F50833A2E030
:103430001A075CF0E5E0F0E0F093F016E093EF1689
:103440001092F2161092F11608C0033DE1E01E073B
:1034500024F41092F0161092EF16CC32A2E0DA07A4
:103460000CF0A0C2C73CA1E0DA070CF4A4C28C3D6A
:103470009105E1F51BC06E317105C1F50833E2E03D
:103480001E075CF085E090E09093F0168093EF16B5
:103490001092F2161092F1161FC0033D61E016075C
:1034A000DCF41092F0161092EF1616C06E31710512
:1034B000E9F4C73CA1E0DA072CF41092F016109260
:1034C000EF1690C2CC32E2E0DE070CF48BC2109211
:1034D000F2161092F11686C2CC32E2E0DE070CF052
:1034E00061C2C73C81E0D8070CF465C28091F51633
:1034F0009091F616E091F316F091F4168E36910540
:1035000049F5EE31F10531F5C73C81E0D8072CF4DF
:103510001092F0161092EF1608C0CC32A2E0DA0733
:1035200024F01092F2161092F116083382E0180778
:103530000CF46DC28EE690E09093F6168093F5162B
:1035400085E090E09093F0168093EF161092F216BB
:103550001092F1168091F5169091F6168238910529
:1035600041F5EE31F10529F5CC3282E0D8072CF097
:103570001092F0161092EF1607C0C73CD14024F409
:103580001092F2161092F1160833A2E01A070CF40A
:1035900048C282E890E09093F6168093F51685E095
:1035A00090E09093F0168093EF161092F21610921E
:1035B000F1166091F5167091F6168091F1169091C2
:1035C000F216860F971F9093F6168093F51660916A
:1035D000EF167091F0166E0F7F1F7093F4166093C4
:1035E000F3161092F2161092F1161092F016109235
:1035F000EF168417950719F46217730711F00E94EC
:103600009D056AE070E080E090E0DF91CF911F912E
:103610000F910C94D82A033DA1E01A0714F00C94E2
:10362000270F8BEF9FEF9093F0168093EF160C947B
:10363000270F0833A2E01A0714F40C94980F86E9B8
:1036400090E09093F6168093F5161092F216109271
:10365000F11685E090E09093F0168093EF160C94AD
:10366000980F033D81E0180714F00C943C10109261
:10367000F0161092EF160C943C10033DA1E01A07CF
:1036800014F00C9474101092F0161092EF160C9423
:1036900074100833E2E01E0714F40C94AA10109280
:1036A000F0161092EF160C94AA10083382E0180757
:1036B00014F40C94E0101092F0161092EF160C9483
:1036C000E0100833A2E01A0714F40C9415111092BC
:1036D000F0161092EF160C9415110833E2E01E0755
:1036E00014F40C944B111092F0161092EF160C94E7
:1036F0004B110833A2E01A0714F40C94FC11109239
:10370000F0161092EF160C94FC110833A2E01A0781
:1037100014F40C9433121092F0161092EF160C94CD
:103720003312033DA1E01A0714F00C9469121092B1
:10373000F0161092EF160C946912033DA1E01A07DF
:1037400014F00C94A0121092F0161092EF160C9434
:10375000A0120833A2E01A0714F40C94D5121092A8
:10376000F0161092EF160C94D5120833A2E01A0747
:1037700014F40C940A131092F0161092EF160C9495
:103780000A13033DA1E01A0714F00C9441131092A0
:10379000F0161092EF160C944113033DA1E01A07A6
:1037A00014F00C9478131092F0161092EF160C94FB
:1037B000781385E090E00C94B11365E070E00DC8DB
:1037C000033DA1E01A070CF08AC96CE370E0709326
:1037D000F6166093F5161092F2161092F1166BEF32
:1037E0007FEF7093F0166093EF1679C9033DA1E067
:1037F0001A070CF0A8C964EB70E07093F61660939A
:10380000F5161092F2161092F1166BEF7FEF70938F
:10381000F0166093EF1697C90833A2E01A070CF46C
:10382000A4CA1092F0161092EF169FCA0833E2E075
:103830001E070CF4C3CA1092F0161092EF16BECAFF
:10384000033DE1E01E070CF0E9CA1092F016109259
:10385000EF16E4CA033DE1E01E070CF00FCB109217
:10386000F0161092EF160ACB0833E2E01E070CF4B4
:1038700035CB1092F0161092EF1630CB0833E2E001
:103880001E070CF45BCB1092F0161092EF1656CB7D
:103890000833E2E01E070CF481CB1092F016109270
:1038A000EF167CCB0833E2E01E070CF4A7CB109296
:1038B000F0161092EF16A2CBC73CE1E0DE070CF049
:1038C00085CC86E490E09093F4168093F3168BEF0A
:1038D0009FEFA8CCC73CE1E0DE070CF0ABCC86E460
:1038E00090E09093F4168093F3168BEF9FEFCECC7D
:1038F000C73CE1E0DE070CF0D1CC86E490E0909389
:10390000F4168093F3168BEF9FEFF8CCC73CE1E001
:10391000DE070CF0FBCC86E490E09093F4168093E5
:10392000F3168BEF9FEF23CDCC32E2E0DE072CF4D1
:10393000C73CE1E0DE0754F022CD86E490E09093AE
:10394000F4168093F31685E090E008C086E490E0DA
:103950009093F4168093F3168BEF9FEF9093F216EB
:103960008093F11605C0033D81E018070CF04CCDA3
:103970001092F0161092EF1647CD083382E0180728
:1039800094F384E190E09093F6168093F51685E029
:1039900090E09093F0168093EF161092F21610922A
:1039A000F11632CD8EE190E09093F4168093F316E9
:1039B00085E090E008C08EE190E09093F41680934B
:1039C000F3168BEF9FEF9093F2168093F11605C0DC
:1039D000033D61E016070CF089CD1092F0161092AD
:1039E000EF1684CD083362E0160794F38CED90E077
:1039F0009093F6168093F51685E090E09093F0167C
:103A00008093EF161092F2161092F1166FCD033DCF
:103A100061E016070CF09ECD1092F0161092EF1692
:103A200099CD033D11400CF0C4CD1092F0161092C8
:103A3000EF16BFCDCC32E2E0DE0724F01092F21692
:103A40001092F116083362E016073CF085E090E032
:103A50009093F0168093EF1608C0033D81E018079D
:103A600024F41092F0161092EF16C73CA1E0DA078A
:103A700014F00C94390F8EE091E09093F41680933B
:103A8000F3168BEF9FEF9093F2168093F11610923E
:103A9000F0161092EF160C94390F033DA1E01A07AF
:103AA00014F00C94530F8BEF9FEF9093F0168093CC
:103AB000EF160C94530FCC32E2E0DE073CF010928C
:103AC000F0161092EF1685E090E00AC0C73C61E066
:103AD000D60754F41092F0161092EF168BEF9FEF6A
:103AE0009093F2168093F116083382E0180714F4CD
:103AF0000C94980F8AE590E0A4CDDF91CF911F91AF
:103B00000F910895CF92DF92EF92FF920F931F9340
:103B1000CF93DF9368EE73E080E090E00E94D82AB4
:103B200081E090E0A0E0B0E08093E3169093E4168B
:103B3000A093E516B093E616C6E0D2E063E070E02D
:103B400080E090E00E94EB326993799382E0CE327C
:103B5000D807A1F7C6E0D2E0699179914AE050E038
:103B600080EB97E10E94BF2DA2E0CE32DA07A1F7E9
:103B700080EB97E10E94E72C61E08DE00E94132C1E
:103B800061E08CE00E94132C61E08BE00E94132C1A
:103B900068EE73E080E090E00E94D82A60E08DE05B
:103BA0000E94132C60E08CE00E94132C60E08BE0FC
:103BB0000E94132C60ED77E080E090E00E94D82A0C
:103BC00001E010E086E0E82E82E0F82EC0E0D0E0D0
:103BD000C017D10734F56701D701ED91FD917D0143
:103BE000EE0FFF1FEF5EFC4F61E080810E94132CFF
:103BF0006CEB72E080E090E00E94D82AD601ED9153
:103C0000FC91EE0FFF1FEF5EFC4F60E080810E9491
:103C1000132C64EF71E080E090E00E94D82A219696
:103C2000D7CFC0E0D0E0C017D10729F58E010F5FD4
:103C30001F4F6091E3167091E4168091E516909104
:103C4000E6160E94904420E030E040E05FE30E94EE
:103C5000F5430E9461446093E3167093E4168093E9
:103C6000E5169093E6166CE271E080E090E00E9429
:103C7000D82AF12C02C0FF24F39488E00E94432C40
:103C8000892B51F4FE01EE0FFF1FEA5FFD4F80818B
:103C90009181892B09F460C087E00E94432C892B15
:103CA00051F4FE01EE0FFF1FEA5FFD4F808191810D
:103CB000019709F468C083E00E94432C892B51F4DA
:103CC000FE01EE0FFF1FEA5FFD4F80819181029799
:103CD00009F470C088E00E94432C892B51F4FE0146
:103CE000EE0FFF1FEA5FFD4F80819181892B09F064
:103CF00078C087E00E94432C892B51F4FE01EE0F1F
:103D0000FF1FEA5FFD4F80819181019709F069C033
:103D100083E00E94432C892B51F4FE01EE0FFF1F1C
:103D2000EA5FFD4F80819181029709F05AC0F1103E
:103D30007ACFC0E061E872E080EB97E10E940D2D40
:103D4000CC2309F43FCFDF91CF911F910F91FF90CA
:103D5000EF90DF90CF90089561E08DE00E94132CEA
:103D600021964AE050E0B80180EB97E10E94C62D11
:103D70006CE271E080E090E00E94D82A60E08DE083
:103D80000E94132C89CF61E08CE00E94132C2196B5
:103D90004AE050E0B80180EB97E10E94C62D6CE24A
:103DA00071E080E090E00E94D82A60E08CE00E9400
:103DB000132C81CF61E08BE00E94132C21964AE006
:103DC00050E0B80180EB97E10E94C62D6CE271E0F3
:103DD00080E090E00E94D82A60E08BE00E94132CE3
:103DE00079CF61E08DE00E94132C61E08CE00E94AD
:103DF000132C61E08BE00E94132C68EE73E080E0EE
:103E000090E00E94D82A61E08DE00E94132C61E0CE
:103E10008CE00E94132C60E08BE00E94132C68EE73
:103E200073E080E090E00E94D82A61E08DE00E947B
:103E3000132C60E08CE00E94132C60E08BE00E9469
:103E4000132C68EE73E080E090E00E94D82A60E0D6
:103E50008DE00E94132C60E08CE00E94132C60E047
:103E60008BE00E94132C68EE73E080E090E00E94EB
:103E7000D82A61E08DE00E94132C61E08CE00E9462
:103E8000132C61E08BE00E94132C64EF71E080E062
:103E900090E00E94D82A60E08DE00E94132C60E040
:103EA0008CE00E94132C60E08BE00E94132C64EFE6
:103EB00071E080E090E00E94D82A61E08DE00E94ED
:103EC000132C61E08CE00E94132C61E08BE00E94D7
:103ED000132C64EF71E080E090E00E94D82A60E04B
:103EE0008DE00E94132C60E08CE00E94132C60E0B7
:103EF0008BE00E94132C66E872E080EB97E10E9451
:103F00000D2D6CE271E080E090E00E94D82AC1E0C3
:103F100011CFEF92FF920F93CF93DF932FEF49E0F2
:103F20006AE08EE097E10E943C3B8CE2E82EFF24A1
:103F3000F39405E029E348E364E08AEF96E10E9408
:103F40002140C1E9D3E060E173E0CE010E94512E2F
:103F5000299687E0C531D807B1F7CCE7D3E060E117
:103F600073E0CE010E94512E279683E0C139D80715
:103F7000B1F7DF91CF910F91FF90EF900895CF931C
:103F8000DF938AE893E00E94E32D83E893E00E94A8
:103F9000E32D8CE793E00E94E32DC5E1D7E029975C
:103FA000CE010E94E32D83E0C139D807C1F7DF912C
:103FB000CF910895EF92FF920F931F93EE24EA940E
:103FC000FE2C00EF10E024EB30E040EF50E06CE31B
:103FD00070E08EE097E10E94E1340EE011E02CE306
:103FE00030E040EF50E06CE370E08EE097E10E943B
:103FF000E13424EB30E040EF50E064EB70E08EE021
:1040000097E10E94E13424E130E04EE051E06CE3BE
:1040100070E08EE097E10E94E1342CED30E04EE05C
:1040200051E064EB70E08EE097E10E94E1340CE235
:1040300011E024E130E04EE051E064E170E08EE018
:1040400097E10E94E1342CED30E04EE051E06CED60
:1040500070E08EE097E10E94E1342CED30E04CE21C
:1040600051E064E170E08EE097E10E94E1340EE0FF
:1040700011E02AE530E040EF50E06AE570E08EE0C4
:1040800097E10E94E13426E930E040EF50E066E934
:1040900070E08EE097E10E94E1342EE630E04EE0E1
:1040A00051E06AE570E08EE097E10E94E13422E899
:1040B00030E04EE051E066E970E08EE097E10E946A
:1040C000E1340CE211E02EE630E04EE051E06EE625
:1040D00070E08EE097E10E94E13422E830E04EE0AB
:1040E00051E062E870E08EE097E10E94E13402ED79
:1040F00010E02EE630E040EF50E06EE670E08EE03B
:1041000097E10E94E13422E830E040EF50E062E8BD
:1041100070E08EE097E10E94E13424E130E042ED6E
:1041200050E06EE670E08EE097E10E94E1342CED05
:1041300030E042ED50E062E870E08EE097E10E94EE
:10414000E13400EF10E024E130E042ED50E064E1C2
:1041500070E08EE097E10E94E1342CED30E042ED1A
:1041600050E06CED70E08EE097E10E94E13428E2CF
:1041700030E040EF50E064E170E08EE097E10E94B3
:10418000E13428EC30E040EF50E06CED70E08EE080
:1041900097E10E94E1340EE011E028E230E040EFC8
:1041A00050E068E270E08EE097E10E94E13428EC94
:1041B00030E040EF50E068EC70E08EE097E10E9464
:1041C000E1340EE110E02CE330E040EF50E06CE32E
:1041D00070E08EE097E10E94E13424EB30E040EFA4
:1041E00050E064EB70E08EE097E10E94E1342EE64F
:1041F00030E04EE150E064E170E08EE097E10E9433
:10420000E1342CED30E04EE150E062E870E08EE009
:1042100097E10E94E13406E410E02EE630E04EE142
:1042200050E06EE670E08EE097E10E94E13422E813
:1042300030E04EE150E062E870E08EE097E10E94ED
:10424000E1340EE610E024E130E04EE150E064E1BC
:1042500070E08EE097E10E94E1342CED30E04EE119
:1042600050E06CED70E08EE097E10E94E13406E4EE
:1042700010E02CED30E046E450E064E170E08EE0C8
:1042800097E10E94E1340EE610E02CE330E04EE6C8
:1042900050E064E170E08EE097E10E94E1342CEDA3
:1042A00030E04EE650E064EB70E08EE097E10E9473
:1042B000E1342AE530E046E450E06AE570E08EE063
:1042C00097E10E94E13426E930E046E450E066E9F7
:1042D00070E08EE097E10E94E1342EE630E04EE699
:1042E00050E06AE570E08EE097E10E94E13426E953
:1042F00030E04EE650E062E870E08EE097E10E9428
:10430000E13490EEE92EFF24FA9400EA10E02AE569
:1043100030E040EA50E060E070E08EE097E10E941B
:10432000E13420EF30E040EA50E066E970E08EE0F2
:1043300097E10E94E13402ED10E02AE530E042E826
:1043400050E06AE570E08EE097E10E94E13426E9F2
:1043500030E042E850E066E970E08EE097E10E94CC
:10436000E13402E810E026E930E042E850E06AE596
:1043700070E08EE097E10E94E1342EE630E04EE6F8
:1043800050E06EE670E08EE097E10E94E13422E8B2
:1043900030E04EE650E062E870E08EE097E10E9487
:1043A000E1340AEB10E026E930E04AEB50E06AE540
:1043B00070E08EE097E10E94E1341F910F91FF9031
:1043C000EF90089580912E0281110E94AA070E9409
:1043D000DA1F6AE070E080E090E00C94D82A0E9436
:1043E000FE2A40E855E260E070E080EB97E10E9431
:1043F000913180EB97E10E94622F62E082E00E949F
:10440000D72B40E050E0BA018EE097E10E94FD3BDF
:1044100061E08DE00E94D72B61E08CE00E94D72BF9
:1044200061E08BE00E94D72B60E088E00E94D72BF0
:1044300061E088E00E94132C60E087E00E94D72BA7
:1044400061E087E00E94132C60E083E00E94D72B9C
:1044500061E083E00E94132C60E08DE00E94132C49
:1044600060E08CE00E94132C60E08BE00C94132C35
:1044700082E00E94432C892B69F464E872E080EBAF
:1044800097E10E940D2D80EB97E10E94622F81E061
:104490008093F7160895CF92DF92EF92FF920F93D9
:1044A0001F93CF93DF9360E070E08EE097E10E946E
:1044B000C33440E060E070E080E090E00E94470498
:1044C00010E000E0C0E0D0E086E30E94602B7C01B9
:1044D00082E00E94432C6C0180E4E81682E0F8063A
:1044E0003CF02196C330D10564F0C0E0D0E009C0B3
:1044F00081ECE81681E0F80664F4219710F4C2E03C
:10450000D0E040E0612F702FCE010E9447041C2FA5
:104510000D2FCD2831F4CE010E94ED04FF24F39439
:1045200001C0F12C64E670E080E090E00E94D82A9F
:10453000FF2051F2DF91CF911F910F91FF90EF90EB
:10454000DF90CF9008950F931F93CF93DF93EC01EB
:104550008B0160E070E08EE097E10E94C3344AE096
:10456000B801CE010E949F2E40E550E06AE070E065
:104570008EE097E10E94F43962E08EE097E10E94BC
:10458000FA394FEF5FEF60E070E08EE097E10E9454
:10459000003A6DE872E08EE097E10E94DE2CBE01E9
:1045A0008EE097E10E94FB2CCE01DF91CF911F910D
:1045B0000F910895AF92BF92CF92DF92EF92FF9248
:1045C0000F931F93CF93DF93CDB7DEB72E970FB620
:1045D000F894DEBF0FBECDBF5C0160E070E08EE0FE
:1045E00097E10E94C33440E050E060E070E08EE06C
:1045F00097E10E94F43961E08EE097E10E94FA3978
:1046000040E050E06FEF7FEF8EE097E10E94003ACC
:104610006AE972E08EE097E10E94DE2C40E050E013
:1046200062E370E08EE097E10E94F43961E08EE091
:1046300097E10E94FA396FE972E08EE097E10E94FB
:10464000DE2C40E050E064EB70E08EE097E10E94E9
:10465000F43961E08EE097E10E94FA3968EA72E08D
:104660008EE097E10E94DE2C81E9C82E83E0D82EEF
:1046700008E010E0E12CF12C81E0A81AB108EA145E
:10468000FB040CF056C0EFEFEE1AFE0A4AE0B70149
:10469000CE0108960E949F2EA80160E070E08EE097
:1046A00097E10E94F43961E08EE097E10E94FA39C7
:1046B000BE01685F7F4F8EE097E10E94A92CA801A0
:1046C00062E370E08EE097E10E94F43961E08EE0F1
:1046D00097E10E94FA39B6018EE097E10E94A92C79
:1046E000A80164EB70E08EE097E10E94F43961E08C
:1046F0008EE097E10E94FA39F601678170854AE001
:10470000CE0101960E94CC2EBE016F5F7F4F8EE0DE
:1047100097E10E94FB2CCE0101960E94E32DCE0171
:1047200008960E94E32D085F1F4FF9E0CF0ED11CC1
:10473000A6CF2E960FB6F894DEBF0FBECDBFDF9189
:10474000CF911F910F91FF90EF90DF90CF90BF908E
:10475000AF900895EF92FF920F931F9360E070E087
:104760008EE097E10E94C33440E550E06AE070E0DB
:104770008EE097E10E94F43964E08EE097E10E94B8
:10478000FA3940EE5FEF60E070E08EE097E10E9462
:10479000003A6EEA72E08EE097E10E940D2DE12C66
:1047A00088EFF82E02E110E023E130E047EC50E022
:1047B0006CE370E08EE097E10E94E53A0EE010E0D5
:1047C00021E130E046EC50E06DE370E08EE097E1EF
:1047D0000E94E53AEE24EA94FE2C07E010E026E081
:1047E00030E047EC50E06FE370E08EE097E10E942C
:1047F000E53A26E030E047EC50E065E470E08EE01A
:1048000097E10E94E53AE12CF12C04E010E024E06D
:1048100030E048EC50E061E470E08EE097E10E9407
:10482000E53A24E030E048EC50E067E470E08EE0E8
:1048300097E10E94E53AEE24EA9427E0F22E02E1A5
:1048400010E023E130E047EC50E06AE570E08EE0F4
:1048500097E10E94E53A0EE010E021E130E046ECFD
:1048600050E06BE570E08EE097E10E94E53AEE24BF
:10487000EA94FE2C07E010E026E030E047EC50E040
:104880006DE570E08EE097E10E94E53A26E030E0C9
:1048900047EC50E063E670E08EE097E10E94E53A75
:1048A000E12CF12C04E010E024E030E048EC50E092
:1048B0006FE570E08EE097E10E94E53A24E030E099
:1048C00048EC50E065E670E08EE097E10E94E53A42
:1048D0004FE1E42E48EFF42E02E110E023E130E056
:1048E00047EC50E068E770E08EE097E10E94E53A1F
:1048F0000EE010E021E130E046EC50E069E770E0C6
:104900008EE097E10E94E53AEE24EA94FE2C07E05F
:1049100010E026E030E047EC50E06BE770E08EE01E
:1049200097E10E94E53A26E030E047EC50E061E88C
:1049300070E08EE097E10E94E53AE12CF12C04E072
:1049400010E024E030E048EC50E06DE770E08EE0ED
:1049500097E10E94E53A24E030E048EC50E063E85B
:1049600070E08EE097E10E94E53A60E2E62E6DEF9E
:10497000F62E02E110E023E130E047EC50E066E97A
:1049800070E08EE097E10E94E53A0EE010E021E150
:1049900030E046EC50E067E970E08EE097E10E947D
:1049A000E53AEE24EA94FE2C07E010E026E030E041
:1049B00047EC50E069E970E08EE097E10E94E53A4B
:1049C00026E030E047EC50E06FE970E08EE097E1E0
:1049D0000E94E53AE12CF12C04E010E024E030E004
:1049E00048EC50E06BE970E08EE097E10E94E53A18
:1049F00024E030E048EC50E061EA70E08EE097E1BE
:104A00000E94E53A00EE1FEF29E030E04FEC50E065
:104A100060EC70E08EE097E10E94C13648E151E021
:104A200068E270E08EE097E10E94F43961E08EE088
:104A300097E10E94FA3940E050E060EE7FEF8EE0AF
:104A400097E10E94003A68EB72E08EE097E10E94E5
:104A50000D2D82E00E94432C892BD9F71F910F91D5
:104A6000FF90EF900895EF92FF920F931F93CF93D3
:104A7000DF9360E070E08EE097E10E94C334C8E706
:104A8000D0E0D093F616C093F51680EF90E09093A7
:104A9000F4168093F31600EE1FEF27E030E040EFAE
:104AA00050E068E770E08EE097E10E94C1368FE148
:104AB000E82EF12C04E010E020EF30E046E351E076
:104AC00060E070E08EE097E10E94E53A20EF30E090
:104AD0004AE050E060E070E08EE097E10E94E53A45
:104AE0000EE110E023E030E04AE050E060E070E0EA
:104AF0008EE097E10E94E53A0E94DA1F61E08EE0C5
:104B000097E10E94FA3960E08EE097E10E94063A50
:104B100080912E02882309F47CC080EA90E0909373
:104B2000DA168093D91628EC30E03093D81620930B
:104B3000D716D093D616C093D5163093D41620939B
:104B4000D31624E630E03093D2162093D11646E4F3
:104B500050E05093D0164093CF169093CE1680938A
:104B6000CD163093CC162093CB161092CA16109205
:104B7000C9169093C8168093C71600E018EF27E077
:104B800030E048EC50E060EA70E08EE097E10E948F
:104B9000C1364091D3165091D4166091D5167091BC
:104BA000D6160FE118EF27E030E08EE097E10E9483
:104BB000C1364091CF165091D0166091D1167091A8
:104BC000D2160FEF17E027E030E08EE097E10E9469
:104BD000C1364091CB165091CC166091CD16709194
:104BE000CE1600E21DEF27E030E08EE097E10E9454
:104BF000C1364091C7165091C8166091C916709180
:104C0000CA160FEF1FEF27E030E08EE097E10E9419
:104C1000C136DF91CF911F910F91FF90EF900895D2
:104C20002F923F924F925F926F927F928F929F92BC
:104C3000AF92BF92CF92DF92EF92FF920F931F93AA
:104C4000CF93DF93CDB7DEB7A2970FB6F894DEBF50
:104C50000FBECDBF82E00E94432C8C0186E30E94F0
:104C6000602B87E30E94602B8091E1169091E21601
:104C7000019709F066C08091150790911607883C4E
:104C800091050CF05EC061E08CE00E94132C8091D5
:104C900015079091160724E1289FF001299FF00D38
:104CA0001124E95EF84F4091F5165091F6165183A4
:104CB00040834091F3165091F41653834283409100
:104CC000D9165091DA16558344834091D7165091E6
:104CD000D816578346834091D5165091D6165187E2
:104CE00040874091D3165091D41653874287409104
:104CF000D1165091D216558744874091CF165091C6
:104D0000D016578746874091CD165091CE16518BBD
:104D1000408B4091CB165091CC16538B428B019611
:104D2000289FF001299FF00D1124E95EF84F209192
:104D3000C9163091CA163183208390931607809349
:104D400015078091E1169091E216009779F4012BF6
:104D500089F464ED72E080EB97E10E940D2D81E013
:104D600090E09093E2168093E116CBC1019711F485
:104D7000012B41F08091150790911607833691051C
:104D800009F0DDC16EED72E080EB97E10E940D2D20
:104D90001092E2161092E11603E010E061E08DE05F
:104DA0000330110541F40E94132C61E08CE00E9455
:104DB000132C61E00EC00230110521F40E94132C67
:104DC00061E003C00E94132C60E08CE00E94132C71
:104DD00060E08BE00E94132C6DEE72E080EB97E1B7
:104DE0000E94DE2C4AE050E0B80180EB97E10E947F
:104DF000BF2D61E073E080EB97E10E940D2D015023
:104E0000110968EE73E080E090E00E94D82A011555
:104E1000110521F660E08DE00E94132C60E08CE02B
:104E20000E94132C60E08BE00E94132CE090150789
:104E3000F090160784E18E9D80018F9D100D112446
:104E4000C801895E984F9AA389A3F7FCBCC0E9A169
:104E5000FAA100811181828193819C838B8394814B
:104E60009D87E581EE87E9A1FAA1F681FF87E9A197
:104E7000FAA1F781F88BE9A1FAA1F085F98BE9A1F4
:104E8000FAA1F185FA8BE9A1FAA1F285FB8BE9A1E0
:104E9000FAA1F385FC8BE9A1FAA1F485FD8BE9A1C8
:104EA000FAA1F585FE8BE9A1FAA1F685FF8BE9A1B0
:104EB000FAA1F785F88FE9A1FAA1F089F98FE9A1A4
:104EC000FAA1F189FA8FE9A1FAA1F289FB8FE9A190
:104ED000FAA1F389FC8FE9A1FAA1F489FD8FE9A178
:104EE000FAA1F589FE8F89819A810817190729F49B
:104EF000EB81FC81EC15FD05A9F1960149815A81F0
:104F00006B817C81C8010E949D059201A3016F8580
:104F100078898D859E850E94C0059401A5016B89C5
:104F20007C8989899A890E94E3052F8138854D8182
:104F30005E816F89788D8D899E890E9406062B85FA
:104F40003C8549855A856B8D7C8D898D9A8D0E9413
:104F5000290620EA30E0A10160EA70E08D8D9E8D87
:104F60000E944C060E94DA1F6CE370E080E090E043
:104F70000E94D82AF1E0EF1AF10889A19AA144977A
:104F80009AA389A32F8E38A22D8C3E8C9B8D9B8754
:104F9000EC8DEC87F98DF9878A8D8A879F899F83AD
:104FA000E88DE887FD89FD838E898E838B889C88B8
:104FB000A988BA884F8458886D847E84CB80DC8031
:104FC0001A83098342CF1092160710921507809119
:104FD0001707909118079093F6168093F516809115
:104FE000190790911A079093F4168093F316809105
:104FF0001B0790911C079093DA168093D916809125
:105000001D0790911E079093D8168093D716809114
:105010001F07909120079093D6168093D516809104
:105020002107909122079093D4168093D3168091F4
:105030002307909124079093D2168093D1168091E4
:105040002507909126079093D0168093CF168091D4
:105050002707909128079093CE168093CD168091C4
:10506000290790912A079093CC168093CB168091B4
:105070002B0790912C079093CA168093C916E12CA8
:10508000F12C02E211E020EF30E044E150E060E07A
:1050900070E08EE097E10E94E53A960149815A81DD
:1050A000B601CA010E949D059201A301B201C3018C
:1050B0000E94C0059401A501B401C5010E94E30549
:1050C0002F8138854D815E81B901CA010E94060693
:1050D0002B853C8549855A85B901CA010E9429065C
:1050E00020EA30E04F8D58A160EA70E0C1010E94D3
:1050F0004C060E94DA1F61E872E080EB97E10E94A3
:105100000D2D64EF71E080E090E0A2960FB6F89468
:10511000DEBF0FBECDBFDF91CF911F910F91FF90EA
:10512000EF90DF90CF90BF90AF909F908F907F9047
:105130006F905F904F903F902F900C94D82AA2963A
:105140000FB6F894DEBF0FBECDBFDF91CF911F9198
:105150000F91FF90EF90DF90CF90BF90AF909F9016
:105160008F907F906F905F904F903F902F90089519
:10517000CF92DF92EF92FF920F931F93CF93DF9323
:10518000CDB7DEB7C250D2400FB6F894DEBF0FBE27
:10519000CDBF8E010F5F1F4F68017601E01AF10A43
:1051A00080EB97E10E94162F892BD1F380EB97E1DA
:1051B0000E94422FF60181936F018A3071F7F80146
:1051C000EE0DFF1D108262ED72E0C8010E9469437E
:1051D000FC0180818E3479F562ED72E080E090E030
:1051E0000E946943BC01CE018B509E4F0E94512EFC
:1051F000CE018B509E4F0E940A2F70930502609340
:10520000040280EB97E10E94622F6EE073E080EB76
:1052100097E10E94DE2C48EE53E060E070E080EB06
:1052200097E10E94DD2D80EB97E10E94622FCE0175
:105230008B509E4F67C0873509F067C062ED72E002
:1052400080E090E00E946943BC01CE0184509E4FF3
:105250000E94512E62ED72E080E090E00E9469436E
:10526000BC01CE018B509E4F0E94512ECE018B501F
:105270009E4F0E940A2F6B017C0120917A0330918E
:105280007B0319E0129FC001139F900D1124BE01F2
:1052900064507E4F8F569C4F0E94672E80917A03F8
:1052A00090917B03189FF001199FF00D1124EF5688
:1052B000FC4FD086C78280EB97E10E94622F6EE0A0
:1052C00073E080EB97E10E94DE2C48EE53E060E053
:1052D00070E080EB97E10E94DD2D80EB97E10E946A
:1052E000622F80917A0390917B03019690937B03C8
:1052F00080937A03CE018B509E4F0E94E32DCE0106
:1053000084509E4F0E94E32D05C0853419F481E03E
:105310008093F816CE5FDD4F0FB6F894DEBF0FBE58
:10532000CDBFDF91CF911F910F91FF90EF90DF9054
:10533000CF900895CF93DF933091F9162091F8160E
:1053400031111CC0211120C0EC0168EA72E080EB31
:1053500097E10E94DE2C62ED72E080EB97E10E9403
:10536000DE2CBE0180EB97E10E94FB2C80EB97E1E5
:105370000E94622F81E08093F91606C0211104C0BB
:10538000DF91CF910C94B828DF91CF910895CF93FE
:10539000DF93CDB7DEB72E970FB6F894DEBF0FBE02
:1053A000CDBF88EEC82E83E0D82EE12CF12C1092D0
:1053B000F7161092F8161092F91610927B031092BD
:1053C0007A030E94EF210E94AA230E9435040E94C2
:1053D0004B220E94A72A4B015C010E9433250E94A8
:1053E000F3090E94E2210E9460050E94102680912C
:1053F000DF169091E016892B91F70E94A72A681971
:1054000079098A099B09A70196010E943E452093CC
:10541000EB163093EC164093ED165093EE160E9467
:10542000821D2091E3163091E4164091E5165091CB
:10543000E6166091EB167091EC168091ED16909146
:10544000EE160E942E459B01AC016091E71670910B
:10545000E8168091E9169091EA160E942E45CE0139
:1054600008960E94A3228091F816811110C0BE01F7
:10547000685F7F4FCE0101960E947E2ECE0101967D
:105480000E949A29CE0101960E94E32DECCF8091D3
:105490000402909105020E94DA228091F716811190
:1054A00003C00E943822F9CF80EB97E10E94622F5F
:1054B000CE0108960E94E32D7ACF1F920F920FB66D
:1054C0000F9211242F933F938F939F93AF93BF938A
:1054D0008091421790914317A0914417B0914517BE
:1054E0003091411723E0230F2D3720F40196A11DA1
:1054F000B11D05C026E8230F0296A11DB11D209302
:1055000041178093421790934317A0934417B09389
:1055100045178091461790914717A0914817B09171
:1055200049170196A11DB11D809346179093471707
:10553000A0934817B0934917BF91AF919F918F9156
:105540003F912F910F900FBE0F901F9018952FB77E
:10555000F89460914217709143178091441790918D
:1055600045172FBF08953FB7F89480914617909143
:105570004717A0914817B091491726B5A89B05C0B9
:105580002F3F19F00196A11DB11D3FBFBA2FA92FC2
:10559000982F8827820F911DA11DB11DBC01CD013F
:1055A00042E0660F771F881F991F4A95D1F708952B
:1055B000CF92DF92EF92FF92CF93DF936B017C014A
:1055C0000E94B32AEB01C114D104E104F10479F083
:1055D0000E94B32A6C1B7D0B683E7340A0F381E0F0
:1055E000C81AD108E108F108C851DC4FECCFDF91AF
:1055F000CF91FF90EF90DF90CF900895789484B58D
:10560000826084BD84B5816084BD85B5826085BDBE
:1056100085B5816085BDEEE6F0E0808181608083A4
:10562000E1E8F0E010828081826080838081816087
:105630008083E0E8F0E0808181608083E1EBF0E04E
:10564000808184608083E0EBF0E0808181608083F2
:10565000E1E9F0E0808182608083808181608083E5
:10566000E0E9F0E0808181608083E1EAF0E0808120
:1056700082608083808181608083E0EAF0E08081C5
:1056800081608083E1E2F1E08081826080838081BB
:1056900081608083E0E2F1E0808181608083EAE7DD
:1056A000F0E080818460808380818260808380815B
:1056B000816080838081806880831092C10008951A
:1056C000863308F0865390917B00282F2870977FAF
:1056D000922B90937B00877020912F0290E4299F5A
:1056E00090011124822B80937C0080917A00806449
:1056F00080937A0080917A0086FDFCCF80917800BB
:105700002091790090E0922B089590E0FC01319770
:10571000E131F10508F04AC08827EE58FF4F8F4F5E
:105720000C947F45809180008F7703C0809180002A
:105730008F7D80938000089584B58F7702C084B5F3
:105740008F7D84BD08958091B0008F7703C08091D4
:10575000B0008F7D8093B0000895809190008F7786
:1057600007C0809190008F7D03C080919000877F5B
:105770008093900008958091A0008F7707C080915A
:10578000A0008F7D03C08091A000877F8093A00040
:105790000895809120018F7707C0809120018F7D2F
:1057A00003C080912001877F809320010895CF93CB
:1057B000DF9390E0FC01EC5DFD4F2491FC01E65984
:1057C000FD4F8491882361F190E0880F991FFC01BF
:1057D000EC51FD4FC591D491FC01E653FD4FA591CD
:1057E000B491611109C09FB7F894888120958223F4
:1057F0008883EC912E230BC0623061F49FB7F8943C
:105800003881822F809583238883EC912E2B2C93D3
:105810009FBF06C08FB7F894E8812E2B28838FBFD7
:10582000DF91CF9108951F93CF93DF93282F30E01E
:10583000F901E252FE4F8491F901EC5DFD4FD491E4
:10584000F901E659FD4FC491CC23C9F0162F8111FF
:105850000E94852BEC2FF0E0EE0FFF1FE653FD4F6B
:10586000A591B4918FB7F894111105C09C91ED2FBB
:10587000E095E92302C0EC91ED2BEC938FBFDF9113
:10588000CF911F910895CF93DF93282F30E0F90136
:10589000E252FE4F8491F901EC5DFD4FD491F90184
:1058A000E659FD4FC491CC2391F081110E94852BC4
:1058B000EC2FF0E0EE0FFF1FE055FD4FA591B491E6
:1058C000EC91ED2381E090E021F480E002C080E0E3
:1058D00090E0DF91CF910895CF92DF92EF92FF9207
:1058E0000F931F93CF93DF936C01EB017B01E40EC9
:1058F000F51E00E010E0CE15DF0561F06991D601DC
:10590000ED91FC910190F081E02DC6011995080FF1
:10591000191FF1CFC801DF91CF911F910F91FF9017
:10592000EF90DF90CF9008956115710579F0FB013C
:1059300001900020E9F73197AF01461B570BDC01BE
:10594000ED91FC910280F381E02D199480E090E0CC
:105950000895AF92BF92CF92DF92EF92FF920F9392
:105960001F93CF93DF936C017B01C0E0D0E000E098
:1059700010E0D70114968D919C911597C817D907FF
:1059800088F4D601ED91FC91A080B180BE01C701E1
:105990000E94F92E682FC601F5011995080F191FED
:1059A0002196E7CFC801DF91CF911F910F91FF9012
:1059B000EF90DF90CF90BF90AF9008950C94942C0F
:1059C000DC01ED91FC910190F081E02D19940F9391
:1059D0001F93CF93DF93EC016DE00E94E02C8C01CC
:1059E0006AE0CE010E94E02C800F911FDF91CF91E1
:1059F0001F910F9108950F931F93CF93DF93EC01A5
:105A00000E94A92C8C01CE010E94E72C800F911FCF
:105A1000DF91CF911F910F9108950F931F93CF9313
:105A2000DF93EC010E94942C8C01CE010E94E72CA4
:105A3000800F911FDF91CF911F910F9108958F9249
:105A40009F92AF92BF92CF92DF92EF92FF920F930D
:105A50001F93CF93DF93CDB7DEB7A1970FB6F8941E
:105A6000DEBF0FBECDBF6C01142FE52FCB01022F7F
:105A700019A2223008F40AE07E0121E2E20EF11CB4
:105A8000802E912CA12CB12C612F7E2FA501940189
:105A90000E943E45029F1019112481E0E81AF10886
:105AA0001A3014F4105D01C0195CF7011083122F35
:105AB000E32FCA01232B242B252B31F7B701C60175
:105AC0000E94942CA1960FB6F894DEBF0FBECDBFF6
:105AD000DF91CF911F910F91FF90EF90DF90CF90CA
